{"contracts/SYI/mainnet/SYI.sol":{"SYI":{"abi":[{"inputs":[{"internalType":"address","name":"_usdt","type":"address"},{"internalType":"address","name":"_router","type":"address"},{"internalType":"address","name":"_staking","type":"address"}],"stateMutability":"nonpayable","type":"constructor"},{"inputs":[],"name":"AlreadyInitialized","type":"error"},{"inputs":[],"name":"AlreadySet","type":"error"},{"inputs":[],"name":"Blacklisted","type":"error"},{"inputs":[],"name":"DelayedBuyPeriodNotMet","type":"error"},{"inputs":[{"internalType":"address","name":"spender","type":"address"},{"internalType":"uint256","name":"allowance","type":"uint256"},{"internalType":"uint256","name":"needed","type":"uint256"}],"name":"ERC20InsufficientAllowance","type":"error"},{"inputs":[{"internalType":"address","name":"sender","type":"address"},{"internalType":"uint256","name":"balance","type":"uint256"},{"internalType":"uint256","name":"needed","type":"uint256"}],"name":"ERC20InsufficientBalance","type":"error"},{"inputs":[{"internalType":"address","name":"approver","type":"address"}],"name":"ERC20InvalidApprover","type":"error"},{"inputs":[{"internalType":"address","name":"receiver","type":"address"}],"name":"ERC20InvalidReceiver","type":"error"},{"inputs":[{"internalType":"address","name":"sender","type":"address"}],"name":"ERC20InvalidSender","type":"error"},{"inputs":[{"internalType":"address","name":"spender","type":"address"}],"name":"ERC20InvalidSpender","type":"error"},{"inputs":[],"name":"InColdPeriod","type":"error"},{"inputs":[],"name":"InsufficientBalance","type":"error"},{"inputs":[],"name":"NotAllowedBuy","type":"error"},{"inputs":[{"internalType":"address","name":"owner","type":"address"}],"name":"OwnableInvalidOwner","type":"error"},{"inputs":[{"internalType":"address","name":"account","type":"address"}],"name":"OwnableUnauthorizedAccount","type":"error"},{"inputs":[],"name":"ZeroAddress","type":"error"},{"anonymous":false,"inputs":[{"indexed":true,"internalType":"address","name":"owner","type":"address"},{"indexed":true,"internalType":"address","name":"spender","type":"address"},{"indexed":false,"internalType":"uint256","name":"value","type":"uint256"}],"name":"Approval","type":"event"},{"anonymous":false,"inputs":[{"indexed":false,"internalType":"uint256","name":"marketingFee","type":"uint256"},{"indexed":false,"internalType":"uint256","name":"lpFee","type":"uint256"},{"indexed":false,"internalType":"string","name":"trigger","type":"string"}],"name":"AutoSwapTriggered","type":"event"},{"anonymous":false,"inputs":[{"indexed":false,"internalType":"bool","name":"enabled","type":"bool"}],"name":"DelayedBuyEnabled","type":"event"},{"anonymous":false,"inputs":[{"indexed":false,"internalType":"uint256","name":"newPeriod","type":"uint256"}],"name":"DelayedBuyPeriodUpdated","type":"event"},{"anonymous":false,"inputs":[{"indexed":true,"internalType":"address","name":"user","type":"address"},{"indexed":false,"internalType":"uint256","name":"amount","type":"uint256"},{"indexed":true,"internalType":"string","name":"category","type":"string"},{"indexed":true,"internalType":"address","name":"recipient","type":"address"}],"name":"FeeCollected","type":"event"},{"anonymous":false,"inputs":[{"indexed":false,"internalType":"uint256","name":"totalFees","type":"uint256"},{"indexed":false,"internalType":"string","name":"reason","type":"string"},{"indexed":false,"internalType":"uint256","name":"timestamp","type":"uint256"}],"name":"FeeProcessingSkipped","type":"event"},{"anonymous":false,"inputs":[{"indexed":false,"internalType":"uint256","name":"totalFees","type":"uint256"},{"indexed":true,"internalType":"address","name":"triggeredBy","type":"address"},{"indexed":false,"internalType":"string","name":"triggerType","type":"string"},{"indexed":false,"internalType":"uint256","name":"timestamp","type":"uint256"}],"name":"FeeProcessingTriggered","type":"event"},{"anonymous":false,"inputs":[{"indexed":false,"internalType":"string","name":"feeType","type":"string"},{"indexed":false,"internalType":"uint256","name":"amount","type":"uint256"},{"indexed":false,"internalType":"uint256","name":"totalAccumulated","type":"uint256"}],"name":"FeesAccumulated","type":"event"},{"anonymous":false,"inputs":[{"indexed":true,"internalType":"uint256","name":"timestamp","type":"uint256"},{"indexed":true,"internalType":"string","name":"processType","type":"string"},{"indexed":false,"internalType":"uint256","name":"totalFeesXF","type":"uint256"},{"indexed":false,"internalType":"uint256","name":"totalFeesUSDT","type":"uint256"},{"indexed":false,"internalType":"uint256","name":"lpAmount","type":"uint256"},{"indexed":false,"internalType":"uint256","name":"marketingAmount","type":"uint256"},{"indexed":false,"internalType":"uint256","name":"burnAmount","type":"uint256"},{"indexed":false,"internalType":"address","name":"lpRecipient","type":"address"},{"indexed":false,"internalType":"address","name":"marketingRecipient","type":"address"}],"name":"FeesProcessed","type":"event"},{"anonymous":false,"inputs":[{"indexed":false,"internalType":"uint256","name":"expectedAmount","type":"uint256"},{"indexed":false,"internalType":"uint256","name":"actualAmount","type":"uint256"},{"indexed":false,"internalType":"uint256","name":"timestamp","type":"uint256"}],"name":"FundRelayTransferFailed","type":"event"},{"anonymous":false,"inputs":[{"indexed":true,"internalType":"address","name":"user","type":"address"},{"indexed":true,"internalType":"uint256","name":"timestamp","type":"uint256"},{"indexed":false,"internalType":"uint256","name":"previousInvestment","type":"uint256"},{"indexed":false,"internalType":"uint256","name":"newInvestment","type":"uint256"},{"indexed":false,"internalType":"uint256","name":"changeAmount","type":"uint256"},{"indexed":false,"internalType":"string","name":"changeType","type":"string"}],"name":"InvestmentUpdated","type":"event"},{"anonymous":false,"inputs":[{"indexed":true,"internalType":"uint256","name":"timestamp","type":"uint256"},{"indexed":false,"internalType":"uint256","name":"regularFeesXF","type":"uint256"},{"indexed":false,"internalType":"uint256","name":"regularFeesUSDT","type":"uint256"},{"indexed":false,"internalType":"address","name":"liquidityStakingContract","type":"address"},{"indexed":false,"internalType":"string","name":"source","type":"string"}],"name":"LPDistribution","type":"event"},{"anonymous":false,"inputs":[{"indexed":false,"internalType":"uint256","name":"amount","type":"uint256"}],"name":"LPRewardDeposited","type":"event"},{"anonymous":false,"inputs":[{"indexed":false,"internalType":"uint256","name":"tokenAmount","type":"uint256"},{"indexed":false,"internalType":"uint256","name":"usdtAmount","type":"uint256"}],"name":"LiquidityAdded","type":"event"},{"anonymous":false,"inputs":[{"indexed":true,"internalType":"address","name":"from","type":"address"},{"indexed":true,"internalType":"address","name":"to","type":"address"},{"indexed":false,"internalType":"uint256","name":"feeAmount","type":"uint256"},{"indexed":false,"internalType":"uint256","name":"netAmount","type":"uint256"},{"indexed":false,"internalType":"string","name":"operationType","type":"string"}],"name":"LiquidityHandleFeeCollected","type":"event"},{"anonymous":false,"inputs":[{"indexed":true,"internalType":"address","name":"oldAddress","type":"address"},{"indexed":true,"internalType":"address","name":"newAddress","type":"address"}],"name":"MarketingAddressUpdated","type":"event"},{"anonymous":false,"inputs":[{"indexed":false,"internalType":"uint256","name":"timestamp","type":"uint256"},{"indexed":false,"internalType":"uint256","name":"tokenAmount","type":"uint256"},{"indexed":false,"internalType":"uint256","name":"usdtAmount","type":"uint256"},{"indexed":false,"internalType":"uint256","name":"rewardIndex","type":"uint256"},{"indexed":true,"internalType":"address","name":"recipient","type":"address"},{"indexed":false,"internalType":"string","name":"distributionType","type":"string"}],"name":"MarketingDistribution","type":"event"},{"anonymous":false,"inputs":[{"indexed":true,"internalType":"address","name":"seller","type":"address"},{"indexed":true,"internalType":"uint256","name":"timestamp","type":"uint256"},{"indexed":false,"internalType":"uint256","name":"feeAmountXF","type":"uint256"},{"indexed":false,"internalType":"uint256","name":"feeAmountUSDT","type":"uint256"},{"indexed":false,"internalType":"uint256","name":"saleValueUSDT","type":"uint256"},{"indexed":false,"internalType":"uint256","name":"userInvestmentUSDT","type":"uint256"}],"name":"NoProfitFeeCollected","type":"event"},{"anonymous":false,"inputs":[{"indexed":true,"internalType":"address","name":"previousOwner","type":"address"},{"indexed":true,"internalType":"address","name":"newOwner","type":"address"}],"name":"OwnershipTransferred","type":"event"},{"anonymous":false,"inputs":[{"indexed":false,"internalType":"uint256","name":"newDuration","type":"uint256"}],"name":"PresaleDurationUpdated","type":"event"},{"anonymous":false,"inputs":[{"indexed":false,"internalType":"bool","name":"active","type":"bool"}],"name":"PresaleStatusUpdated","type":"event"},{"anonymous":false,"inputs":[{"indexed":true,"internalType":"address","name":"seller","type":"address"},{"indexed":true,"internalType":"uint256","name":"timestamp","type":"uint256"},{"indexed":false,"internalType":"uint256","name":"originalXFAmount","type":"uint256"},{"indexed":false,"internalType":"uint256","name":"tradingFeeXF","type":"uint256"},{"indexed":false,"internalType":"uint256","name":"marketingFeeXF","type":"uint256"},{"indexed":false,"internalType":"uint256","name":"lpFeeXF","type":"uint256"},{"indexed":false,"internalType":"uint256","name":"netXFAfterTradingFees","type":"uint256"},{"indexed":false,"internalType":"uint256","name":"estimatedUSDTFromSale","type":"uint256"},{"indexed":false,"internalType":"uint256","name":"userHistoricalInvestment","type":"uint256"},{"indexed":false,"internalType":"uint256","name":"totalProfitAmount","type":"uint256"},{"indexed":false,"internalType":"uint256","name":"profitTaxUSDT","type":"uint256"},{"indexed":false,"internalType":"uint256","name":"noProfitFeeUSDT","type":"uint256"},{"indexed":false,"internalType":"uint256","name":"profitTaxToMarketing","type":"uint256"},{"indexed":false,"internalType":"uint256","name":"profitTaxToReferrer","type":"uint256"},{"indexed":false,"internalType":"uint256","name":"userNetProfitUSDT","type":"uint256"},{"indexed":false,"internalType":"uint256","name":"finalUSDTReceived","type":"uint256"},{"indexed":false,"internalType":"address","name":"referrer","type":"address"}],"name":"SellTransaction","type":"event"},{"anonymous":false,"inputs":[{"indexed":false,"internalType":"string","name":"reason","type":"string"},{"indexed":false,"internalType":"uint256","name":"tokenAmount","type":"uint256"},{"indexed":false,"internalType":"uint256","name":"timestamp","type":"uint256"}],"name":"SwapFailed","type":"event"},{"anonymous":false,"inputs":[{"indexed":false,"internalType":"uint256","name":"amount","type":"uint256"}],"name":"TokensBurned","type":"event"},{"anonymous":false,"inputs":[{"indexed":true,"internalType":"address","name":"user","type":"address"},{"indexed":true,"internalType":"uint256","name":"timestamp","type":"uint256"},{"indexed":true,"internalType":"string","name":"txType","type":"string"},{"indexed":false,"internalType":"uint256","name":"tokenAmount","type":"uint256"},{"indexed":false,"internalType":"uint256","name":"usdtAmount","type":"uint256"},{"indexed":false,"internalType":"uint256","name":"netUserReceived","type":"uint256"},{"indexed":false,"internalType":"uint256","name":"previousInvestment","type":"uint256"},{"indexed":false,"internalType":"uint256","name":"newInvestment","type":"uint256"},{"indexed":false,"internalType":"uint256","name":"burnFee","type":"uint256"},{"indexed":false,"internalType":"uint256","name":"lpFee","type":"uint256"},{"indexed":false,"internalType":"uint256","name":"marketingFee","type":"uint256"},{"indexed":false,"internalType":"uint256","name":"profitAmount","type":"uint256"},{"indexed":false,"internalType":"uint256","name":"profitTax","type":"uint256"},{"indexed":false,"internalType":"address","name":"referrer","type":"address"}],"name":"TransactionExecuted","type":"event"},{"anonymous":false,"inputs":[{"indexed":true,"internalType":"address","name":"from","type":"address"},{"indexed":true,"internalType":"address","name":"to","type":"address"},{"indexed":false,"internalType":"uint256","name":"value","type":"uint256"}],"name":"Transfer","type":"event"},{"anonymous":false,"inputs":[{"indexed":true,"internalType":"address","name":"from","type":"address"},{"indexed":true,"internalType":"address","name":"to","type":"address"},{"indexed":false,"internalType":"uint256","name":"feeAmount","type":"uint256"},{"indexed":false,"internalType":"uint256","name":"netAmount","type":"uint256"},{"indexed":false,"internalType":"string","name":"transferType","type":"string"}],"name":"TransferFeeCollected","type":"event"},{"anonymous":false,"inputs":[{"indexed":true,"internalType":"address","name":"user","type":"address"},{"indexed":true,"internalType":"uint256","name":"timestamp","type":"uint256"},{"indexed":false,"internalType":"string","name":"txType","type":"string"},{"indexed":false,"internalType":"uint256","name":"tokenAmount","type":"uint256"},{"indexed":false,"internalType":"uint256","name":"usdtAmount","type":"uint256"},{"indexed":false,"internalType":"uint256","name":"netReceived","type":"uint256"}],"name":"UserTransaction","type":"event"},{"inputs":[],"name":"DEAD_ADDRESS","outputs":[{"internalType":"address","name":"","type":"address"}],"stateMutability":"view","type":"function"},{"inputs":[],"name":"USDT","outputs":[{"internalType":"address","name":"","type":"address"}],"stateMutability":"view","type":"function"},{"inputs":[{"internalType":"address","name":"owner","type":"address"},{"internalType":"address","name":"spender","type":"address"}],"name":"allowance","outputs":[{"internalType":"uint256","name":"","type":"uint256"}],"stateMutability":"view","type":"function"},{"inputs":[{"internalType":"address","name":"spender","type":"address"},{"internalType":"uint256","name":"value","type":"uint256"}],"name":"approve","outputs":[{"internalType":"bool","name":"","type":"bool"}],"stateMutability":"nonpayable","type":"function"},{"inputs":[{"internalType":"address","name":"account","type":"address"}],"name":"balanceOf","outputs":[{"internalType":"uint256","name":"","type":"uint256"}],"stateMutability":"view","type":"function"},{"inputs":[{"internalType":"address","name":"","type":"address"}],"name":"blacklisted","outputs":[{"internalType":"bool","name":"","type":"bool"}],"stateMutability":"view","type":"function"},{"inputs":[],"name":"coldTime","outputs":[{"internalType":"uint256","name":"","type":"uint256"}],"stateMutability":"view","type":"function"},{"inputs":[],"name":"contractDeployTime","outputs":[{"internalType":"uint256","name":"","type":"uint256"}],"stateMutability":"view","type":"function"},{"inputs":[],"name":"decimals","outputs":[{"internalType":"uint8","name":"","type":"uint8"}],"stateMutability":"view","type":"function"},{"inputs":[],"name":"delayedBuyEnabled","outputs":[{"internalType":"bool","name":"","type":"bool"}],"stateMutability":"view","type":"function"},{"inputs":[],"name":"delayedBuyEnabledTime","outputs":[{"internalType":"uint256","name":"","type":"uint256"}],"stateMutability":"view","type":"function"},{"inputs":[{"internalType":"address","name":"","type":"address"}],"name":"feeWhitelisted","outputs":[{"internalType":"bool","name":"","type":"bool"}],"stateMutability":"view","type":"function"},{"inputs":[{"internalType":"uint256","name":"amountOut","type":"uint256"},{"internalType":"uint256","name":"reserveIn","type":"uint256"},{"internalType":"uint256","name":"reserveOut","type":"uint256"}],"name":"getAmountIn","outputs":[{"internalType":"uint256","name":"amountIn","type":"uint256"}],"stateMutability":"pure","type":"function"},{"inputs":[{"internalType":"uint256","name":"amountIn","type":"uint256"},{"internalType":"uint256","name":"reserveIn","type":"uint256"},{"internalType":"uint256","name":"reserveOut","type":"uint256"}],"name":"getAmountOut","outputs":[{"internalType":"uint256","name":"amountOut","type":"uint256"}],"stateMutability":"pure","type":"function"},{"inputs":[],"name":"getDelayedBuyInfo","outputs":[{"internalType":"bool","name":"enabled","type":"bool"},{"internalType":"bool","name":"testModeActive","type":"bool"},{"internalType":"uint256","name":"enabledTime","type":"uint256"},{"internalType":"uint256","name":"requiredDelay","type":"uint256"},{"internalType":"uint256","name":"remainingDelay","type":"uint256"}],"stateMutability":"view","type":"function"},{"inputs":[],"name":"getPresaleStatus","outputs":[{"internalType":"bool","name":"active","type":"bool"},{"internalType":"uint256","name":"startTime","type":"uint256"},{"internalType":"uint256","name":"duration","type":"uint256"},{"internalType":"uint256","name":"remainingTime","type":"uint256"},{"internalType":"bool","name":"isInPresale","type":"bool"}],"stateMutability":"view","type":"function"},{"inputs":[],"name":"getUSDTReserve","outputs":[{"internalType":"uint112","name":"usdtReserve","type":"uint112"}],"stateMutability":"view","type":"function"},{"inputs":[],"name":"getUniswapV2Pair","outputs":[{"internalType":"address","name":"","type":"address"}],"stateMutability":"view","type":"function"},{"inputs":[],"name":"initializeWhitelist","outputs":[],"stateMutability":"nonpayable","type":"function"},{"inputs":[{"internalType":"address","name":"account","type":"address"}],"name":"isContract","outputs":[{"internalType":"bool","name":"","type":"bool"}],"stateMutability":"view","type":"function"},{"inputs":[{"internalType":"address","name":"buyer","type":"address"}],"name":"isDelayedBuyPeriodMet","outputs":[{"internalType":"bool","name":"","type":"bool"}],"stateMutability":"view","type":"function"},{"inputs":[{"internalType":"address","name":"","type":"address"}],"name":"lastBuyTime","outputs":[{"internalType":"uint256","name":"","type":"uint256"}],"stateMutability":"view","type":"function"},{"inputs":[],"name":"name","outputs":[{"internalType":"string","name":"","type":"string"}],"stateMutability":"view","type":"function"},{"inputs":[],"name":"owner","outputs":[{"internalType":"address","name":"","type":"address"}],"stateMutability":"view","type":"function"},{"inputs":[],"name":"presaleActive","outputs":[{"internalType":"bool","name":"","type":"bool"}],"stateMutability":"view","type":"function"},{"inputs":[],"name":"presaleDuration","outputs":[{"internalType":"uint256","name":"","type":"uint256"}],"stateMutability":"view","type":"function"},{"inputs":[],"name":"presaleStartTime","outputs":[{"internalType":"uint256","name":"","type":"uint256"}],"stateMutability":"view","type":"function"},{"inputs":[{"internalType":"address","name":"token","type":"address"},{"internalType":"uint256","name":"amount","type":"uint256"}],"name":"recoverStuckTokens","outputs":[],"stateMutability":"nonpayable","type":"function"},{"inputs":[{"internalType":"uint256","name":"amount","type":"uint256"}],"name":"recycle","outputs":[],"stateMutability":"nonpayable","type":"function"},{"inputs":[],"name":"renounceOwnership","outputs":[],"stateMutability":"nonpayable","type":"function"},{"inputs":[],"name":"rootAddress","outputs":[{"internalType":"address","name":"","type":"address"}],"stateMutability":"view","type":"function"},{"inputs":[{"internalType":"address[]","name":"accounts","type":"address[]"},{"internalType":"bool","name":"_blacklisted","type":"bool"}],"name":"setBatchBlacklisted","outputs":[],"stateMutability":"nonpayable","type":"function"},{"inputs":[{"internalType":"address[]","name":"accounts","type":"address[]"},{"internalType":"bool","name":"_whitelisted","type":"bool"}],"name":"setBatchFeeWhitelisted","outputs":[],"stateMutability":"nonpayable","type":"function"},{"inputs":[{"internalType":"address","name":"account","type":"address"},{"internalType":"bool","name":"_blacklisted","type":"bool"}],"name":"setBlacklisted","outputs":[],"stateMutability":"nonpayable","type":"function"},{"inputs":[{"internalType":"uint256","name":"_coldTime","type":"uint256"}],"name":"setColdTime","outputs":[],"stateMutability":"nonpayable","type":"function"},{"inputs":[{"internalType":"bool","name":"_enabled","type":"bool"}],"name":"setDelayedBuyEnabled","outputs":[],"stateMutability":"nonpayable","type":"function"},{"inputs":[{"internalType":"address","name":"account","type":"address"},{"internalType":"bool","name":"whitelisted","type":"bool"}],"name":"setFeeWhitelisted","outputs":[],"stateMutability":"nonpayable","type":"function"},{"inputs":[{"internalType":"address","name":"_pair","type":"address"}],"name":"setPair","outputs":[],"stateMutability":"nonpayable","type":"function"},{"inputs":[{"internalType":"bool","name":"_active","type":"bool"}],"name":"setPresaleActive","outputs":[],"stateMutability":"nonpayable","type":"function"},{"inputs":[],"name":"setPresaleDuration","outputs":[],"stateMutability":"nonpayable","type":"function"},{"inputs":[],"name":"staking","outputs":[{"internalType":"contract IStaking","name":"","type":"address"}],"stateMutability":"view","type":"function"},{"inputs":[],"name":"symbol","outputs":[{"internalType":"string","name":"","type":"string"}],"stateMutability":"view","type":"function"},{"inputs":[],"name":"totalSupply","outputs":[{"internalType":"uint256","name":"","type":"uint256"}],"stateMutability":"view","type":"function"},{"inputs":[{"internalType":"address","name":"to","type":"address"},{"internalType":"uint256","name":"value","type":"uint256"}],"name":"transfer","outputs":[{"internalType":"bool","name":"","type":"bool"}],"stateMutability":"nonpayable","type":"function"},{"inputs":[{"internalType":"address","name":"from","type":"address"},{"internalType":"address","name":"to","type":"address"},{"internalType":"uint256","name":"value","type":"uint256"}],"name":"transferFrom","outputs":[{"internalType":"bool","name":"","type":"bool"}],"stateMutability":"nonpayable","type":"function"},{"inputs":[{"internalType":"address","name":"newOwner","type":"address"}],"name":"transferOwnership","outputs":[],"stateMutability":"nonpayable","type":"function"},{"inputs":[],"name":"uniswapV2Pair","outputs":[{"internalType":"contract IUniswapV2Pair","name":"","type":"address"}],"stateMutability":"view","type":"function"},{"inputs":[],"name":"uniswapV2Router","outputs":[{"internalType":"contract IUniswapV2Router02","name":"","type":"address"}],"stateMutability":"view","type":"function"}],"evm":{"bytecode":{"linkReferences":{},"object":"60e06040523461048e5761223e6060813803918261001c81610493565b93849283398101031261048e57610032816104b8565b9061004b6040610044602084016104b8565b92016104b8565b906100566040610493565b92600984526829aca4902a37b5b2b760b91b60208501526100776040610493565b600381526253594960e81b6020820152845190946001600160401b03821161038b5760035490600182811c92168015610484575b602083101461036b5781601f849311610414575b50602090601f83116001146103ac576000926103a1575b50508160011b916000199060031b1c1916176003555b83516001600160401b03811161038b57600454600181811c91168015610381575b602082101461036b57601f8111610306575b50602094601f821160011461029f57948192939495600092610294575b50508160011b916000199060031b1c1916176004555b331561027e5760058054336001600160a01b0319821681179092556001600160a01b03167f8be0079c531659141344cd1fd0a4f28419497f9722a3daafe3b4186f6b6457e0600080a3600a6008556001600160a01b03811615801561026d575b801561025c575b61024b576080526001600160a01b0390811660a0521660c0526101db336104cc565b42600c554260095562278d00600a55600160ff19600b541617600b55604051611cdd9081610561823960805181818161068401526115d5015260a051818181610f020152818161105701528181611bb00152611c23015260c0518181816103d601528181610cd40152610ecf0152f35b63d92e233d60e01b60005260046000fd5b506001600160a01b038316156101b9565b506001600160a01b038216156101b2565b631e4fbdf760e01b600052600060045260246000fd5b01519050388061013c565b601f198216956004600052806000209160005b8881106102ee575083600195969798106102d5575b505050811b01600455610152565b015160001960f88460031b161c191690553880806102c7565b919260206001819286850151815501940192016102b2565b60046000527f8a35acfbc15ff81a39ae7d344fd709f28e8600b4aa8c65c6b64bfe7fe36bd19b601f830160051c81019160208410610361575b601f0160051c01905b818110610355575061011f565b60008155600101610348565b909150819061033f565b634e487b7160e01b600052602260045260246000fd5b90607f169061010d565b634e487b7160e01b600052604160045260246000fd5b0151905038806100d6565b600360009081528281209350601f198516905b8181106103fc57509084600195949392106103e3575b505050811b016003556100ec565b015160001960f88460031b161c191690553880806103d5565b929360206001819287860151815501950193016103bf565b60036000529091507fc2575a0e9e593c00f959f8c92f12db2869c3395a3b0502d05e2516446f71f85b601f840160051c8101916020851061047a575b90601f859493920160051c01905b81811061046b57506100bf565b6000815584935060010161045e565b9091508190610450565b91607f16916100ab565b600080fd5b6040519190601f01601f191682016001600160401b0381118382101761038b57604052565b51906001600160a01b038216820361048e57565b6a52b7d2dcc80cd2e40000009060009060025483810180911161054a577fddf252ad1be2c89b69c2b068fc378daa952ba7f163c4a11628f55a4df523b3ef916020916002556001600160a01b031693846105325780600254036002555b604051908152a3565b84600052600082526040600020818154019055610529565b634e487b7160e01b600052601160045260246000fdfe6080604052600436101561001257600080fd5b6000803560e01c8063054d50d41461121457806306fdde0314611157578063095ea7b3146110ad57806316279055146110865780631694505e1461104157806318160ddd146110235780631abfa62914610d0357806323b872dd14610f425780632927bacd14610e67578063313ce56714610e4b57806336543fb914610e2d5780633f8121a214610d8b5780633fecc2e214610d5257806343a066aa14610d2c57806349bd5a5e14610d035780634cf088d914610cbe5780634e6fd6c414610ca157806353135ca014610c7e578063569ea10114610c3f5780635868c32a14610c21578063622e6ad814610bfe57806370a0823114610bbc578063715018a614610b5f5780638187f51614610ae957806385f8c25914610a3b578063861bd3c5146109dc57806387894d03146109ae5780638da5cb5b1461098557806390e82f241461092257806395d89b41146108195780639f54790d146107fb578063a82524b2146107dd578063a9059cbb146107ab578063aaa2b8c814610782578063af24ccaa14610705578063b99ce15e146106b3578063c54e44eb1461066e578063c596f3fe14610640578063d01dd6d2146105ee578063d123de31146105c2578063d4273cd6146105a4578063d7517caa14610525578063dbac26e9146104e6578063dd1c35bc146103bf578063dd62ed3e1461036a578063f2fde38b146102e1578063fdc0cdbf146102bd5763ff9191511461022d57600080fd5b346102ba57806003193601126102ba57600b54600d5460a09260089290921c60ff16159190821561027b57815b604051931584526020840152604083015262278d0060608301526080820152f35b80156102b257805b61028c81611428565b421061029957508161025a565b6102ac906102a74291611428565b6116a8565b9161025a565b600c54610283565b80fd5b50346102ba57806003193601126102ba576102d6611a3e565b6102de611a67565b80f35b50346102ba5760203660031901126102ba576102fb6112d6565b610303611a3e565b6001600160a01b0316801561035657600580546001600160a01b0319811683179091556001600160a01b03167f8be0079c531659141344cd1fd0a4f28419497f9722a3daafe3b4186f6b6457e08380a380f35b631e4fbdf760e01b82526004829052602482fd5b50346102ba5760403660031901126102ba5760406103866112d6565b9161038f6112ec565b9260018060a01b031681526001602052209060018060a01b03166000526020526020604060002054604051908152f35b50346102ba5760203660031901126102ba576004357f00000000000000000000000000000000000000000000000000000000000000006001600160a01b0316338190036104a9576006546001600160a01b031660008181526020819052604090205490929060039004908181106104a15750905b8161043c578380f35b610445926116e8565b60065481906001600160a01b0316803b1561049e5781809160046040518095819363fff6cae960e01b83525af180156104915761048157818380f35b61048a91611320565b3881818380f35b50604051903d90823e3d90fd5b50fd5b905090610433565b60405162461bcd60e51b815260206004820152601560248201527413db9b1e481cdd185ada5b99c818dbdb9d1c9858dd605a1b6044820152606490fd5b50346102ba5760203660031901126102ba5760209060ff906040906001600160a01b036105116112d6565b168152601084522054166040519015158152f35b50346102ba57806003193601126102ba5760a09060095490600a5461054a818461144e565b91824210928360001461059d57610563915042906116a8565b905b600b5460ff1693849384610595575b50604051941515855260208501526040840152606083015215156080820152f35b935038610574565b5090610565565b50346102ba57806003193601126102ba576020600d54604051908152f35b50346102ba57806003193601126102ba5760206105dd611564565b6001600160701b0360405191168152f35b50346102ba5760403660031901126102ba576102de61060b6112d6565b610613611311565b9061061c611a3e565b60018060a01b031683526010602052604083209060ff801983541691151516179055565b50346102ba5760403660031901126102ba576102de61065d6112d6565b610665611a3e565b602435906114be565b50346102ba57806003193601126102ba576040517f00000000000000000000000000000000000000000000000000000000000000006001600160a01b03168152602090f35b50346102ba5760403660031901126102ba576102de6106d06112d6565b6106d8611311565b906106e1611a3e565b60018060a01b03168352600f602052604083209060ff801983541691151516179055565b50346102ba5760203660031901126102ba577f2c8ccbef4032016d78404afa804c622487ae3acab4caeff4b2dba121d7488c186020610742611302565b61074a611a3e565b80151590600b5461ff008360081b169061ff00191617600b556000146107795742600d555b604051908152a180f35b83600d5561076f565b50346102ba57806003193601126102ba576007546040516001600160a01b039091168152602090f35b50346102ba5760403660031901126102ba576107d26107c86112d6565b60243590336116e8565b602060405160018152f35b50346102ba57806003193601126102ba576020600954604051908152f35b50346102ba57806003193601126102ba576020600c54604051908152f35b50346102ba57806003193601126102ba576040519080600454908160011c91600181168015610918575b602084108114610904578386529081156108dd5750600114610880575b61087c8461087081860382611320565b6040519182918261128d565b0390f35b600481527f8a35acfbc15ff81a39ae7d344fd709f28e8600b4aa8c65c6b64bfe7fe36bd19b939250905b8082106108c35750909150810160200161087082610860565b9192600181602092548385880101520191019092916108aa565b60ff191660208087019190915292151560051b850190920192506108709150839050610860565b634e487b7160e01b83526022600452602483fd5b92607f1692610843565b50346102ba5761093136611358565b610939611a3e565b825b8251811015610981576001906001600160a01b0361095982866113fe565b51168552600f60205261097b83604087209060ff801983541691151516179055565b0161093b565b8380f35b50346102ba57806003193601126102ba576005546040516001600160a01b039091168152602090f35b50346102ba5760203660031901126102ba5760206109d26109cd6112d6565b61145b565b6040519015158152f35b50346102ba576109eb36611358565b6109f3611a3e565b825b8251811015610981576001906001600160a01b03610a1382866113fe565b511685526010602052610a3583604087209060ff801983541691151516179055565b016109f5565b50346102ba57610a56610a4d3661126e565b929082906116d5565b916127108302928084046127101490151715610ad55790610a76916116a8565b906126f78202918083046126f71490151715610ac15790610a96916116b5565b9060018201809211610aad57602082604051908152f35b634e487b7160e01b81526011600452602490fd5b634e487b7160e01b83526011600452602483fd5b634e487b7160e01b84526011600452602484fd5b50346102ba5760203660031901126102ba57610b036112d6565b610b0b611a3e565b6001600160a01b03168015610b50576006546001600160a01b038116610b41576001600160a01b031916176006556102de611a67565b63a741a04560e01b8352600483fd5b63d92e233d60e01b8252600482fd5b50346102ba57806003193601126102ba57610b78611a3e565b600580546001600160a01b0319811690915581906001600160a01b03167f8be0079c531659141344cd1fd0a4f28419497f9722a3daafe3b4186f6b6457e08280a380f35b50346102ba5760203660031901126102ba576020610bf6610bdb6112d6565b6001600160a01b031660009081526020819052604090205490565b604051908152f35b50346102ba5760203660031901126102ba57610c18611a3e565b60043560085580f35b50346102ba57806003193601126102ba576020600a54604051908152f35b50346102ba5760203660031901126102ba5760209060ff906040906001600160a01b03610c6a6112d6565b168152600f84522054166040519015158152f35b50346102ba57806003193601126102ba57602060ff600b54166040519015158152f35b50346102ba57806003193601126102ba57602060405161dead8152f35b50346102ba57806003193601126102ba576040517f00000000000000000000000000000000000000000000000000000000000000006001600160a01b03168152602090f35b50346102ba57806003193601126102ba576006546040516001600160a01b039091168152602090f35b50346102ba57806003193601126102ba57602060ff600b5460081c166040519015158152f35b50346102ba5760203660031901126102ba576020906040906001600160a01b03610d7a6112d6565b168152600e83522054604051908152f35b50346102ba5760203660031901126102ba577ff19c3bdddf1b5ac58b32a05cc2bc72313b03a8e8ceb7621e8818651371e00e546020610dc8611302565b610dd0611a3e565b8015159060ff19600b541660ff831617600b55610df157604051908152a180f35b4260095562278d00600a557fdbeb6ec948f6eb874ecbd6117742652c35d57fbe578b778b77e677a06af90b968260405162278d008152a161076f565b50346102ba57806003193601126102ba576020600854604051908152f35b50346102ba57806003193601126102ba57602060405160128152f35b50346102ba57806003193601126102ba57610e80611a3e565b60115460ff8116610f3457600160ff1991821681176011556005546001600160a01b039081168452600f60208181526040808720805487168617905530875282825280872080548716861790557f00000000000000000000000000000000000000000000000000000000000000008416875282825280872080548716861790557f00000000000000000000000000000000000000000000000000000000000000009093168652528320805490921617905580f35b62dc149f60e41b8252600482fd5b50346102ba5760603660031901126102ba57610f5c6112d6565b610f646112ec565b6001600160a01b03821680845260016020908152604080862033875290915284205460443593916000198210610fa1575b50506107d293506116e8565b848210611008578015610ff4573315610fe05760408686926107d29852600160205281812060018060a01b033316825260205220910390553880610f95565b634a1406b160e11b86526004869052602486fd5b63e602df0560e01b86526004869052602486fd5b6064868684637dc7a0d960e11b835233600452602452604452fd5b50346102ba57806003193601126102ba576020600254604051908152f35b50346102ba57806003193601126102ba576040517f00000000000000000000000000000000000000000000000000000000000000006001600160a01b03168152602090f35b50346102ba5760203660031901126102ba5760206110a26112d6565b3b1515604051908152f35b50346102ba5760403660031901126102ba576110c76112d6565b602435903315611143576001600160a01b031691821561112f5760408291338152600160205281812085825260205220556040519081527f8c5be1e5ebec7d5bd14f71427d1e84f3dd0314c0f7b2291e5b200ac8c7c3b92560203392a3602060405160018152f35b634a1406b160e11b81526004819052602490fd5b63e602df0560e01b83526004839052602483fd5b50346102ba57806003193601126102ba576040519080600354908160011c9160018116801561120a575b602084108114610904578386529081156108dd57506001146111ad5761087c8461087081860382611320565b600381527fc2575a0e9e593c00f959f8c92f12db2869c3395a3b0502d05e2516446f71f85b939250905b8082106111f05750909150810160200161087082610860565b9192600181602092548385880101520191019092916111d7565b92607f1692611181565b50346102ba576112233661126e565b6126f78302928084046126f71490151715610ad55761124290836116d5565b926127108202918083046127101490151715610aad576020610bf685611268868661144e565b906116b5565b606090600319011261128857600435906024359060443590565b600080fd5b91909160208152825180602083015260005b8181106112c0575060409293506000838284010152601f8019910116010190565b806020809287010151604082860101520161129f565b600435906001600160a01b038216820361128857565b602435906001600160a01b038216820361128857565b60043590811515820361128857565b60243590811515820361128857565b90601f8019910116810190811067ffffffffffffffff82111761134257604052565b634e487b7160e01b600052604160045260246000fd5b60406003198201126112885760043567ffffffffffffffff811161128857816023820112156112885780600401359167ffffffffffffffff8311611342578260051b91604051936113ac6020850186611320565b84526024602085019382010191821161128857602401915b8183106113de575050509060243580151581036112885790565b82356001600160a01b0381168103611288578152602092830192016113c4565b80518210156114125760209160051b010190565b634e487b7160e01b600052603260045260246000fd5b9062278d00820180921161143857565b634e487b7160e01b600052601160045260246000fd5b9190820180921161143857565b60ff600b5460081c161590811561149b575b5061149657600d54801561148a5761148490611428565b42101590565b50611484600c54611428565b600190565b6001600160a01b03166000908152600f602052604090205460ff1690503861146d565b6001600160a01b03169030821461154c57602090604460018060a01b03600554166000604051958694859363a9059cbb60e01b8552600485015260248401525af180156115405761150c5750565b6020813d602011611538575b8161152560209383611320565b8101031261128857518015150361128857565b3d9150611518565b6040513d6000823e3d90fd5b5050565b51906001600160701b038216820361128857565b600654604051630240bc6b60e21b8152906001600160a01b0316606082600481845afa9081600093849361164b575b506115a057505050600090565b602060049160405192838092630dfe168160e01b82525afa90811561154057600091611605575b506001600160a01b039081167f000000000000000000000000000000000000000000000000000000000000000090911603611600575090565b905090565b6020813d602011611643575b8161161e60209383611320565b8101031261163f5751906001600160a01b03821682036102ba5750386115c7565b5080fd5b3d9150611611565b939092506060843d6060116116a0575b8161166860609383611320565b810103126102ba5761167984611550565b90604061168860208701611550565b95015163ffffffff8116036102ba5750929138611593565b3d915061165b565b9190820391821161143857565b81156116bf570490565b634e487b7160e01b600052601260045260246000fd5b8181029291811591840414171561143857565b906001600160a01b03821680158015611a2d575b611a005780600052600f60205260ff604060002054168015611a0b575b611a00576117278284611b86565b6117318385611bfa565b90156118bd5750506001600160a01b03811660008181526010602052604090205490929060ff166118ac57600b5460ff8160081c1680611893575b61185b575b60ff1680611844575b61183457611789918491611a9d565b80600052600e6020524260406000205560036040516242555960e81b815220604051827f681f1f0fb3679a87b3423967dfa2ec97150b706d392eada5b3617c7508afc7654292806117db888083611c5b565b0390a46040519160808352600360808401526242555960e81b60a08401528060208401526000604084015260608301527ffde30999d0ea66fcaf14400b79c9e771a1a87176335a8cc91382321a3d0a0c1f60c04293a35b565b624e610160e31b60005260046000fd5b50611854600954600a549061144e565b421061177a565b600d54801561188a575b62278d00810180911161143857421015611771576320cf80f960e01b60005260046000fd5b50600c54611865565b5083600052600f60205260ff604060002054161561176c565b6309550c7760e01b60005260046000fd5b90939290156119f65783600052601060205260ff604060002054166118ac5783600052600e6020526118f76040600020546008549061144e565b42106119e557611908918391611a9d565b604051818152600060208201526000604082015260006060820152816080820152600060a0820152600060c0820152600060e08201526000610100820152600061012082015260006101408201526000610160820152600061018082015260006101a082015260006101c0820152827f14f1a00236d7bca73ddcf087e3d43ca785808697c6fde3616f17d02d6f2c68e36101e04293a360046040516314d1531360e21b815220917f681f1f0fb3679a87b3423967dfa2ec97150b706d392eada5b3617c7508afc765604051806119e042958083611c5b565b0390a4565b63465fd09160e01b60005260046000fd5b6118329350611a9d565b506118329291611a9d565b506001600160a01b0382166000908152600f602052604090205460ff16611719565b506001600160a01b038216156116fc565b6005546001600160a01b03163303611a5257565b63118cdaa760e01b6000523360045260246000fd5b62278d00600a557fdbeb6ec948f6eb874ecbd6117742652c35d57fbe578b778b77e677a06af90b96602060405162278d008152a1565b6001600160a01b03169081611b195760207fddf252ad1be2c89b69c2b068fc378daa952ba7f163c4a11628f55a4df523b3ef91611adc8560025461144e565b6002555b6001600160a01b03169384611b015780600254036002555b604051908152a3565b84600052600082526040600020818154019055611af8565b816000526000602052604060002054838110611b69577fddf252ad1be2c89b69c2b068fc378daa952ba7f163c4a11628f55a4df523b3ef9184602092856000526000845203604060002055611ae0565b91905063391434e360e21b60005260045260245260445260646000fd5b6006546001600160a01b03908116929116829003611bf3576001600160a01b0316818114611bf3577f00000000000000000000000000000000000000000000000000000000000000006001600160a01b031614611bed573303611be857600190565b600090565b50600090565b5050600090565b6006546001600160a01b039081169216829003611bf3576001600160a01b0316818114611bf3577f00000000000000000000000000000000000000000000000000000000000000006001600160a01b031614611bed573314611be857600190565b610140906000929493610160820195825283602083015260408201528260608201528260808201528260a08201528260c08201528260e08201528261010082015282610120820152015256fea2646970667358221220d93e38b49a13c64d52115a51749acc2b2450a9521da93b487068c51a7e9d2e1764736f6c634300081c0033","opcodes":"PUSH1 0xE0 PUSH1 0x40 MSTORE CALLVALUE PUSH2 0x48E JUMPI PUSH2 0x223E PUSH1 0x60 DUP2 CODESIZE SUB SWAP2 DUP3 PUSH2 0x1C DUP2 PUSH2 0x493 JUMP JUMPDEST SWAP4 DUP5 SWAP3 DUP4 CODECOPY DUP2 ADD SUB SLT PUSH2 0x48E JUMPI PUSH2 0x32 DUP2 PUSH2 0x4B8 JUMP JUMPDEST SWAP1 PUSH2 0x4B PUSH1 0x40 PUSH2 0x44 PUSH1 0x20 DUP5 ADD PUSH2 0x4B8 JUMP JUMPDEST SWAP3 ADD PUSH2 0x4B8 JUMP JUMPDEST SWAP1 PUSH2 0x56 PUSH1 0x40 PUSH2 0x493 JUMP JUMPDEST SWAP3 PUSH1 0x9 DUP5 MSTORE PUSH9 0x29ACA4902A37B5B2B7 PUSH1 0xB9 SHL PUSH1 0x20 DUP6 ADD MSTORE PUSH2 0x77 PUSH1 0x40 PUSH2 0x493 JUMP JUMPDEST PUSH1 0x3 DUP2 MSTORE PUSH3 0x535949 PUSH1 0xE8 SHL PUSH1 0x20 DUP3 ADD MSTORE DUP5 MLOAD SWAP1 SWAP5 PUSH1 0x1 PUSH1 0x1 PUSH1 0x40 SHL SUB DUP3 GT PUSH2 0x38B JUMPI PUSH1 0x3 SLOAD SWAP1 PUSH1 0x1 DUP3 DUP2 SHR SWAP3 AND DUP1 ISZERO PUSH2 0x484 JUMPI JUMPDEST PUSH1 0x20 DUP4 LT EQ PUSH2 0x36B JUMPI DUP2 PUSH1 0x1F DUP5 SWAP4 GT PUSH2 0x414 JUMPI JUMPDEST POP PUSH1 0x20 SWAP1 PUSH1 0x1F DUP4 GT PUSH1 0x1 EQ PUSH2 0x3AC JUMPI PUSH1 0x0 SWAP3 PUSH2 0x3A1 JUMPI JUMPDEST POP POP DUP2 PUSH1 0x1 SHL SWAP2 PUSH1 0x0 NOT SWAP1 PUSH1 0x3 SHL SHR NOT AND OR PUSH1 0x3 SSTORE JUMPDEST DUP4 MLOAD PUSH1 0x1 PUSH1 0x1 PUSH1 0x40 SHL SUB DUP2 GT PUSH2 0x38B JUMPI PUSH1 0x4 SLOAD PUSH1 0x1 DUP2 DUP2 SHR SWAP2 AND DUP1 ISZERO PUSH2 0x381 JUMPI JUMPDEST PUSH1 0x20 DUP3 LT EQ PUSH2 0x36B JUMPI PUSH1 0x1F DUP2 GT PUSH2 0x306 JUMPI JUMPDEST POP PUSH1 0x20 SWAP5 PUSH1 0x1F DUP3 GT PUSH1 0x1 EQ PUSH2 0x29F JUMPI SWAP5 DUP2 SWAP3 SWAP4 SWAP5 SWAP6 PUSH1 0x0 SWAP3 PUSH2 0x294 JUMPI JUMPDEST POP POP DUP2 PUSH1 0x1 SHL SWAP2 PUSH1 0x0 NOT SWAP1 PUSH1 0x3 SHL SHR NOT AND OR PUSH1 0x4 SSTORE JUMPDEST CALLER ISZERO PUSH2 0x27E JUMPI PUSH1 0x5 DUP1 SLOAD CALLER PUSH1 0x1 PUSH1 0x1 PUSH1 0xA0 SHL SUB NOT DUP3 AND DUP2 OR SWAP1 SWAP3 SSTORE PUSH1 0x1 PUSH1 0x1 PUSH1 0xA0 SHL SUB AND PUSH32 0x8BE0079C531659141344CD1FD0A4F28419497F9722A3DAAFE3B4186F6B6457E0 PUSH1 0x0 DUP1 LOG3 PUSH1 0xA PUSH1 0x8 SSTORE PUSH1 0x1 PUSH1 0x1 PUSH1 0xA0 SHL SUB DUP2 AND ISZERO DUP1 ISZERO PUSH2 0x26D JUMPI JUMPDEST DUP1 ISZERO PUSH2 0x25C JUMPI JUMPDEST PUSH2 0x24B JUMPI PUSH1 0x80 MSTORE PUSH1 0x1 PUSH1 0x1 PUSH1 0xA0 SHL SUB SWAP1 DUP2 AND PUSH1 0xA0 MSTORE AND PUSH1 0xC0 MSTORE PUSH2 0x1DB CALLER PUSH2 0x4CC JUMP JUMPDEST TIMESTAMP PUSH1 0xC SSTORE TIMESTAMP PUSH1 0x9 SSTORE PUSH3 0x278D00 PUSH1 0xA SSTORE PUSH1 0x1 PUSH1 0xFF NOT PUSH1 0xB SLOAD AND OR PUSH1 0xB SSTORE PUSH1 0x40 MLOAD PUSH2 0x1CDD SWAP1 DUP2 PUSH2 0x561 DUP3 CODECOPY PUSH1 0x80 MLOAD DUP2 DUP2 DUP2 PUSH2 0x684 ADD MSTORE PUSH2 0x15D5 ADD MSTORE PUSH1 0xA0 MLOAD DUP2 DUP2 DUP2 PUSH2 0xF02 ADD MSTORE DUP2 DUP2 PUSH2 0x1057 ADD MSTORE DUP2 DUP2 PUSH2 0x1BB0 ADD MSTORE PUSH2 0x1C23 ADD MSTORE PUSH1 0xC0 MLOAD DUP2 DUP2 DUP2 PUSH2 0x3D6 ADD MSTORE DUP2 DUP2 PUSH2 0xCD4 ADD MSTORE PUSH2 0xECF ADD MSTORE RETURN JUMPDEST PUSH4 0xD92E233D PUSH1 0xE0 SHL PUSH1 0x0 MSTORE PUSH1 0x4 PUSH1 0x0 REVERT JUMPDEST POP PUSH1 0x1 PUSH1 0x1 PUSH1 0xA0 SHL SUB DUP4 AND ISZERO PUSH2 0x1B9 JUMP JUMPDEST POP PUSH1 0x1 PUSH1 0x1 PUSH1 0xA0 SHL SUB DUP3 AND ISZERO PUSH2 0x1B2 JUMP JUMPDEST PUSH4 0x1E4FBDF7 PUSH1 0xE0 SHL PUSH1 0x0 MSTORE PUSH1 0x0 PUSH1 0x4 MSTORE PUSH1 0x24 PUSH1 0x0 REVERT JUMPDEST ADD MLOAD SWAP1 POP CODESIZE DUP1 PUSH2 0x13C JUMP JUMPDEST PUSH1 0x1F NOT DUP3 AND SWAP6 PUSH1 0x4 PUSH1 0x0 MSTORE DUP1 PUSH1 0x0 KECCAK256 SWAP2 PUSH1 0x0 JUMPDEST DUP9 DUP2 LT PUSH2 0x2EE JUMPI POP DUP4 PUSH1 0x1 SWAP6 SWAP7 SWAP8 SWAP9 LT PUSH2 0x2D5 JUMPI JUMPDEST POP POP POP DUP2 SHL ADD PUSH1 0x4 SSTORE PUSH2 0x152 JUMP JUMPDEST ADD MLOAD PUSH1 0x0 NOT PUSH1 0xF8 DUP5 PUSH1 0x3 SHL AND SHR NOT AND SWAP1 SSTORE CODESIZE DUP1 DUP1 PUSH2 0x2C7 JUMP JUMPDEST SWAP2 SWAP3 PUSH1 0x20 PUSH1 0x1 DUP2 SWAP3 DUP7 DUP6 ADD MLOAD DUP2 SSTORE ADD SWAP5 ADD SWAP3 ADD PUSH2 0x2B2 JUMP JUMPDEST PUSH1 0x4 PUSH1 0x0 MSTORE PUSH32 0x8A35ACFBC15FF81A39AE7D344FD709F28E8600B4AA8C65C6B64BFE7FE36BD19B PUSH1 0x1F DUP4 ADD PUSH1 0x5 SHR DUP2 ADD SWAP2 PUSH1 0x20 DUP5 LT PUSH2 0x361 JUMPI JUMPDEST PUSH1 0x1F ADD PUSH1 0x5 SHR ADD SWAP1 JUMPDEST DUP2 DUP2 LT PUSH2 0x355 JUMPI POP PUSH2 0x11F JUMP JUMPDEST PUSH1 0x0 DUP2 SSTORE PUSH1 0x1 ADD PUSH2 0x348 JUMP JUMPDEST SWAP1 SWAP2 POP DUP2 SWAP1 PUSH2 0x33F JUMP JUMPDEST PUSH4 0x4E487B71 PUSH1 0xE0 SHL PUSH1 0x0 MSTORE PUSH1 0x22 PUSH1 0x4 MSTORE PUSH1 0x24 PUSH1 0x0 REVERT JUMPDEST SWAP1 PUSH1 0x7F AND SWAP1 PUSH2 0x10D JUMP JUMPDEST PUSH4 0x4E487B71 PUSH1 0xE0 SHL PUSH1 0x0 MSTORE PUSH1 0x41 PUSH1 0x4 MSTORE PUSH1 0x24 PUSH1 0x0 REVERT JUMPDEST ADD MLOAD SWAP1 POP CODESIZE DUP1 PUSH2 0xD6 JUMP JUMPDEST PUSH1 0x3 PUSH1 0x0 SWAP1 DUP2 MSTORE DUP3 DUP2 KECCAK256 SWAP4 POP PUSH1 0x1F NOT DUP6 AND SWAP1 JUMPDEST DUP2 DUP2 LT PUSH2 0x3FC JUMPI POP SWAP1 DUP5 PUSH1 0x1 SWAP6 SWAP5 SWAP4 SWAP3 LT PUSH2 0x3E3 JUMPI JUMPDEST POP POP POP DUP2 SHL ADD PUSH1 0x3 SSTORE PUSH2 0xEC JUMP JUMPDEST ADD MLOAD PUSH1 0x0 NOT PUSH1 0xF8 DUP5 PUSH1 0x3 SHL AND SHR NOT AND SWAP1 SSTORE CODESIZE DUP1 DUP1 PUSH2 0x3D5 JUMP JUMPDEST SWAP3 SWAP4 PUSH1 0x20 PUSH1 0x1 DUP2 SWAP3 DUP8 DUP7 ADD MLOAD DUP2 SSTORE ADD SWAP6 ADD SWAP4 ADD PUSH2 0x3BF JUMP JUMPDEST PUSH1 0x3 PUSH1 0x0 MSTORE SWAP1 SWAP2 POP PUSH32 0xC2575A0E9E593C00F959F8C92F12DB2869C3395A3B0502D05E2516446F71F85B PUSH1 0x1F DUP5 ADD PUSH1 0x5 SHR DUP2 ADD SWAP2 PUSH1 0x20 DUP6 LT PUSH2 0x47A JUMPI JUMPDEST SWAP1 PUSH1 0x1F DUP6 SWAP5 SWAP4 SWAP3 ADD PUSH1 0x5 SHR ADD SWAP1 JUMPDEST DUP2 DUP2 LT PUSH2 0x46B JUMPI POP PUSH2 0xBF JUMP JUMPDEST PUSH1 0x0 DUP2 SSTORE DUP5 SWAP4 POP PUSH1 0x1 ADD PUSH2 0x45E JUMP JUMPDEST SWAP1 SWAP2 POP DUP2 SWAP1 PUSH2 0x450 JUMP JUMPDEST SWAP2 PUSH1 0x7F AND SWAP2 PUSH2 0xAB JUMP JUMPDEST PUSH1 0x0 DUP1 REVERT JUMPDEST PUSH1 0x40 MLOAD SWAP2 SWAP1 PUSH1 0x1F ADD PUSH1 0x1F NOT AND DUP3 ADD PUSH1 0x1 PUSH1 0x1 PUSH1 0x40 SHL SUB DUP2 GT DUP4 DUP3 LT OR PUSH2 0x38B JUMPI PUSH1 0x40 MSTORE JUMP JUMPDEST MLOAD SWAP1 PUSH1 0x1 PUSH1 0x1 PUSH1 0xA0 SHL SUB DUP3 AND DUP3 SUB PUSH2 0x48E JUMPI JUMP JUMPDEST PUSH11 0x52B7D2DCC80CD2E4000000 SWAP1 PUSH1 0x0 SWAP1 PUSH1 0x2 SLOAD DUP4 DUP2 ADD DUP1 SWAP2 GT PUSH2 0x54A JUMPI PUSH32 0xDDF252AD1BE2C89B69C2B068FC378DAA952BA7F163C4A11628F55A4DF523B3EF SWAP2 PUSH1 0x20 SWAP2 PUSH1 0x2 SSTORE PUSH1 0x1 PUSH1 0x1 PUSH1 0xA0 SHL SUB AND SWAP4 DUP5 PUSH2 0x532 JUMPI DUP1 PUSH1 0x2 SLOAD SUB PUSH1 0x2 SSTORE JUMPDEST PUSH1 0x40 MLOAD SWAP1 DUP2 MSTORE LOG3 JUMP JUMPDEST DUP5 PUSH1 0x0 MSTORE PUSH1 0x0 DUP3 MSTORE PUSH1 0x40 PUSH1 0x0 KECCAK256 DUP2 DUP2 SLOAD ADD SWAP1 SSTORE PUSH2 0x529 JUMP JUMPDEST PUSH4 0x4E487B71 PUSH1 0xE0 SHL PUSH1 0x0 MSTORE PUSH1 0x11 PUSH1 0x4 MSTORE PUSH1 0x24 PUSH1 0x0 REVERT INVALID PUSH1 0x80 PUSH1 0x40 MSTORE PUSH1 0x4 CALLDATASIZE LT ISZERO PUSH2 0x12 JUMPI PUSH1 0x0 DUP1 REVERT JUMPDEST PUSH1 0x0 DUP1 CALLDATALOAD PUSH1 0xE0 SHR DUP1 PUSH4 0x54D50D4 EQ PUSH2 0x1214 JUMPI DUP1 PUSH4 0x6FDDE03 EQ PUSH2 0x1157 JUMPI DUP1 PUSH4 0x95EA7B3 EQ PUSH2 0x10AD JUMPI DUP1 PUSH4 0x16279055 EQ PUSH2 0x1086 JUMPI DUP1 PUSH4 0x1694505E EQ PUSH2 0x1041 JUMPI DUP1 PUSH4 0x18160DDD EQ PUSH2 0x1023 JUMPI DUP1 PUSH4 0x1ABFA629 EQ PUSH2 0xD03 JUMPI DUP1 PUSH4 0x23B872DD EQ PUSH2 0xF42 JUMPI DUP1 PUSH4 0x2927BACD EQ PUSH2 0xE67 JUMPI DUP1 PUSH4 0x313CE567 EQ PUSH2 0xE4B JUMPI DUP1 PUSH4 0x36543FB9 EQ PUSH2 0xE2D JUMPI DUP1 PUSH4 0x3F8121A2 EQ PUSH2 0xD8B JUMPI DUP1 PUSH4 0x3FECC2E2 EQ PUSH2 0xD52 JUMPI DUP1 PUSH4 0x43A066AA EQ PUSH2 0xD2C JUMPI DUP1 PUSH4 0x49BD5A5E EQ PUSH2 0xD03 JUMPI DUP1 PUSH4 0x4CF088D9 EQ PUSH2 0xCBE JUMPI DUP1 PUSH4 0x4E6FD6C4 EQ PUSH2 0xCA1 JUMPI DUP1 PUSH4 0x53135CA0 EQ PUSH2 0xC7E JUMPI DUP1 PUSH4 0x569EA101 EQ PUSH2 0xC3F JUMPI DUP1 PUSH4 0x5868C32A EQ PUSH2 0xC21 JUMPI DUP1 PUSH4 0x622E6AD8 EQ PUSH2 0xBFE JUMPI DUP1 PUSH4 0x70A08231 EQ PUSH2 0xBBC JUMPI DUP1 PUSH4 0x715018A6 EQ PUSH2 0xB5F JUMPI DUP1 PUSH4 0x8187F516 EQ PUSH2 0xAE9 JUMPI DUP1 PUSH4 0x85F8C259 EQ PUSH2 0xA3B JUMPI DUP1 PUSH4 0x861BD3C5 EQ PUSH2 0x9DC JUMPI DUP1 PUSH4 0x87894D03 EQ PUSH2 0x9AE JUMPI DUP1 PUSH4 0x8DA5CB5B EQ PUSH2 0x985 JUMPI DUP1 PUSH4 0x90E82F24 EQ PUSH2 0x922 JUMPI DUP1 PUSH4 0x95D89B41 EQ PUSH2 0x819 JUMPI DUP1 PUSH4 0x9F54790D EQ PUSH2 0x7FB JUMPI DUP1 PUSH4 0xA82524B2 EQ PUSH2 0x7DD JUMPI DUP1 PUSH4 0xA9059CBB EQ PUSH2 0x7AB JUMPI DUP1 PUSH4 0xAAA2B8C8 EQ PUSH2 0x782 JUMPI DUP1 PUSH4 0xAF24CCAA EQ PUSH2 0x705 JUMPI DUP1 PUSH4 0xB99CE15E EQ PUSH2 0x6B3 JUMPI DUP1 PUSH4 0xC54E44EB EQ PUSH2 0x66E JUMPI DUP1 PUSH4 0xC596F3FE EQ PUSH2 0x640 JUMPI DUP1 PUSH4 0xD01DD6D2 EQ PUSH2 0x5EE JUMPI DUP1 PUSH4 0xD123DE31 EQ PUSH2 0x5C2 JUMPI DUP1 PUSH4 0xD4273CD6 EQ PUSH2 0x5A4 JUMPI DUP1 PUSH4 0xD7517CAA EQ PUSH2 0x525 JUMPI DUP1 PUSH4 0xDBAC26E9 EQ PUSH2 0x4E6 JUMPI DUP1 PUSH4 0xDD1C35BC EQ PUSH2 0x3BF JUMPI DUP1 PUSH4 0xDD62ED3E EQ PUSH2 0x36A JUMPI DUP1 PUSH4 0xF2FDE38B EQ PUSH2 0x2E1 JUMPI DUP1 PUSH4 0xFDC0CDBF EQ PUSH2 0x2BD JUMPI PUSH4 0xFF919151 EQ PUSH2 0x22D JUMPI PUSH1 0x0 DUP1 REVERT JUMPDEST CALLVALUE PUSH2 0x2BA JUMPI DUP1 PUSH1 0x3 NOT CALLDATASIZE ADD SLT PUSH2 0x2BA JUMPI PUSH1 0xB SLOAD PUSH1 0xD SLOAD PUSH1 0xA0 SWAP3 PUSH1 0x8 SWAP3 SWAP1 SWAP3 SHR PUSH1 0xFF AND ISZERO SWAP2 SWAP1 DUP3 ISZERO PUSH2 0x27B JUMPI DUP2 JUMPDEST PUSH1 0x40 MLOAD SWAP4 ISZERO DUP5 MSTORE PUSH1 0x20 DUP5 ADD MSTORE PUSH1 0x40 DUP4 ADD MSTORE PUSH3 0x278D00 PUSH1 0x60 DUP4 ADD MSTORE PUSH1 0x80 DUP3 ADD MSTORE RETURN JUMPDEST DUP1 ISZERO PUSH2 0x2B2 JUMPI DUP1 JUMPDEST PUSH2 0x28C DUP2 PUSH2 0x1428 JUMP JUMPDEST TIMESTAMP LT PUSH2 0x299 JUMPI POP DUP2 PUSH2 0x25A JUMP JUMPDEST PUSH2 0x2AC SWAP1 PUSH2 0x2A7 TIMESTAMP SWAP2 PUSH2 0x1428 JUMP JUMPDEST PUSH2 0x16A8 JUMP JUMPDEST SWAP2 PUSH2 0x25A JUMP JUMPDEST PUSH1 0xC SLOAD PUSH2 0x283 JUMP JUMPDEST DUP1 REVERT JUMPDEST POP CALLVALUE PUSH2 0x2BA JUMPI DUP1 PUSH1 0x3 NOT CALLDATASIZE ADD SLT PUSH2 0x2BA JUMPI PUSH2 0x2D6 PUSH2 0x1A3E JUMP JUMPDEST PUSH2 0x2DE PUSH2 0x1A67 JUMP JUMPDEST DUP1 RETURN JUMPDEST POP CALLVALUE PUSH2 0x2BA JUMPI PUSH1 0x20 CALLDATASIZE PUSH1 0x3 NOT ADD SLT PUSH2 0x2BA JUMPI PUSH2 0x2FB PUSH2 0x12D6 JUMP JUMPDEST PUSH2 0x303 PUSH2 0x1A3E JUMP JUMPDEST PUSH1 0x1 PUSH1 0x1 PUSH1 0xA0 SHL SUB AND DUP1 ISZERO PUSH2 0x356 JUMPI PUSH1 0x5 DUP1 SLOAD PUSH1 0x1 PUSH1 0x1 PUSH1 0xA0 SHL SUB NOT DUP2 AND DUP4 OR SWAP1 SWAP2 SSTORE PUSH1 0x1 PUSH1 0x1 PUSH1 0xA0 SHL SUB AND PUSH32 0x8BE0079C531659141344CD1FD0A4F28419497F9722A3DAAFE3B4186F6B6457E0 DUP4 DUP1 LOG3 DUP1 RETURN JUMPDEST PUSH4 0x1E4FBDF7 PUSH1 0xE0 SHL DUP3 MSTORE PUSH1 0x4 DUP3 SWAP1 MSTORE PUSH1 0x24 DUP3 REVERT JUMPDEST POP CALLVALUE PUSH2 0x2BA JUMPI PUSH1 0x40 CALLDATASIZE PUSH1 0x3 NOT ADD SLT PUSH2 0x2BA JUMPI PUSH1 0x40 PUSH2 0x386 PUSH2 0x12D6 JUMP JUMPDEST SWAP2 PUSH2 0x38F PUSH2 0x12EC JUMP JUMPDEST SWAP3 PUSH1 0x1 DUP1 PUSH1 0xA0 SHL SUB AND DUP2 MSTORE PUSH1 0x1 PUSH1 0x20 MSTORE KECCAK256 SWAP1 PUSH1 0x1 DUP1 PUSH1 0xA0 SHL SUB AND PUSH1 0x0 MSTORE PUSH1 0x20 MSTORE PUSH1 0x20 PUSH1 0x40 PUSH1 0x0 KECCAK256 SLOAD PUSH1 0x40 MLOAD SWAP1 DUP2 MSTORE RETURN JUMPDEST POP CALLVALUE PUSH2 0x2BA JUMPI PUSH1 0x20 CALLDATASIZE PUSH1 0x3 NOT ADD SLT PUSH2 0x2BA JUMPI PUSH1 0x4 CALLDATALOAD PUSH32 0x0 PUSH1 0x1 PUSH1 0x1 PUSH1 0xA0 SHL SUB AND CALLER DUP2 SWAP1 SUB PUSH2 0x4A9 JUMPI PUSH1 0x6 SLOAD PUSH1 0x1 PUSH1 0x1 PUSH1 0xA0 SHL SUB AND PUSH1 0x0 DUP2 DUP2 MSTORE PUSH1 0x20 DUP2 SWAP1 MSTORE PUSH1 0x40 SWAP1 KECCAK256 SLOAD SWAP1 SWAP3 SWAP1 PUSH1 0x3 SWAP1 DIV SWAP1 DUP2 DUP2 LT PUSH2 0x4A1 JUMPI POP SWAP1 JUMPDEST DUP2 PUSH2 0x43C JUMPI DUP4 DUP1 RETURN JUMPDEST PUSH2 0x445 SWAP3 PUSH2 0x16E8 JUMP JUMPDEST PUSH1 0x6 SLOAD DUP2 SWAP1 PUSH1 0x1 PUSH1 0x1 PUSH1 0xA0 SHL SUB AND DUP1 EXTCODESIZE ISZERO PUSH2 0x49E JUMPI DUP2 DUP1 SWAP2 PUSH1 0x4 PUSH1 0x40 MLOAD DUP1 SWAP6 DUP2 SWAP4 PUSH4 0xFFF6CAE9 PUSH1 0xE0 SHL DUP4 MSTORE GAS CALL DUP1 ISZERO PUSH2 0x491 JUMPI PUSH2 0x481 JUMPI DUP2 DUP4 DUP1 RETURN JUMPDEST PUSH2 0x48A SWAP2 PUSH2 0x1320 JUMP JUMPDEST CODESIZE DUP2 DUP2 DUP4 DUP1 RETURN JUMPDEST POP PUSH1 0x40 MLOAD SWAP1 RETURNDATASIZE SWAP1 DUP3 RETURNDATACOPY RETURNDATASIZE SWAP1 REVERT JUMPDEST POP REVERT JUMPDEST SWAP1 POP SWAP1 PUSH2 0x433 JUMP JUMPDEST PUSH1 0x40 MLOAD PUSH3 0x461BCD PUSH1 0xE5 SHL DUP2 MSTORE PUSH1 0x20 PUSH1 0x4 DUP3 ADD MSTORE PUSH1 0x15 PUSH1 0x24 DUP3 ADD MSTORE PUSH21 0x13DB9B1E481CDD185ADA5B99C818DBDB9D1C9858DD PUSH1 0x5A SHL PUSH1 0x44 DUP3 ADD MSTORE PUSH1 0x64 SWAP1 REVERT JUMPDEST POP CALLVALUE PUSH2 0x2BA JUMPI PUSH1 0x20 CALLDATASIZE PUSH1 0x3 NOT ADD SLT PUSH2 0x2BA JUMPI PUSH1 0x20 SWAP1 PUSH1 0xFF SWAP1 PUSH1 0x40 SWAP1 PUSH1 0x1 PUSH1 0x1 PUSH1 0xA0 SHL SUB PUSH2 0x511 PUSH2 0x12D6 JUMP JUMPDEST AND DUP2 MSTORE PUSH1 0x10 DUP5 MSTORE KECCAK256 SLOAD AND PUSH1 0x40 MLOAD SWAP1 ISZERO ISZERO DUP2 MSTORE RETURN JUMPDEST POP CALLVALUE PUSH2 0x2BA JUMPI DUP1 PUSH1 0x3 NOT CALLDATASIZE ADD SLT PUSH2 0x2BA JUMPI PUSH1 0xA0 SWAP1 PUSH1 0x9 SLOAD SWAP1 PUSH1 0xA SLOAD PUSH2 0x54A DUP2 DUP5 PUSH2 0x144E JUMP JUMPDEST SWAP2 DUP3 TIMESTAMP LT SWAP3 DUP4 PUSH1 0x0 EQ PUSH2 0x59D JUMPI PUSH2 0x563 SWAP2 POP TIMESTAMP SWAP1 PUSH2 0x16A8 JUMP JUMPDEST SWAP1 JUMPDEST PUSH1 0xB SLOAD PUSH1 0xFF AND SWAP4 DUP5 SWAP4 DUP5 PUSH2 0x595 JUMPI JUMPDEST POP PUSH1 0x40 MLOAD SWAP5 ISZERO ISZERO DUP6 MSTORE PUSH1 0x20 DUP6 ADD MSTORE PUSH1 0x40 DUP5 ADD MSTORE PUSH1 0x60 DUP4 ADD MSTORE ISZERO ISZERO PUSH1 0x80 DUP3 ADD MSTORE RETURN JUMPDEST SWAP4 POP CODESIZE PUSH2 0x574 JUMP JUMPDEST POP SWAP1 PUSH2 0x565 JUMP JUMPDEST POP CALLVALUE PUSH2 0x2BA JUMPI DUP1 PUSH1 0x3 NOT CALLDATASIZE ADD SLT PUSH2 0x2BA JUMPI PUSH1 0x20 PUSH1 0xD SLOAD PUSH1 0x40 MLOAD SWAP1 DUP2 MSTORE RETURN JUMPDEST POP CALLVALUE PUSH2 0x2BA JUMPI DUP1 PUSH1 0x3 NOT CALLDATASIZE ADD SLT PUSH2 0x2BA JUMPI PUSH1 0x20 PUSH2 0x5DD PUSH2 0x1564 JUMP JUMPDEST PUSH1 0x1 PUSH1 0x1 PUSH1 0x70 SHL SUB PUSH1 0x40 MLOAD SWAP2 AND DUP2 MSTORE RETURN JUMPDEST POP CALLVALUE PUSH2 0x2BA JUMPI PUSH1 0x40 CALLDATASIZE PUSH1 0x3 NOT ADD SLT PUSH2 0x2BA JUMPI PUSH2 0x2DE PUSH2 0x60B PUSH2 0x12D6 JUMP JUMPDEST PUSH2 0x613 PUSH2 0x1311 JUMP JUMPDEST SWAP1 PUSH2 0x61C PUSH2 0x1A3E JUMP JUMPDEST PUSH1 0x1 DUP1 PUSH1 0xA0 SHL SUB AND DUP4 MSTORE PUSH1 0x10 PUSH1 0x20 MSTORE PUSH1 0x40 DUP4 KECCAK256 SWAP1 PUSH1 0xFF DUP1 NOT DUP4 SLOAD AND SWAP2 ISZERO ISZERO AND OR SWAP1 SSTORE JUMP JUMPDEST POP CALLVALUE PUSH2 0x2BA JUMPI PUSH1 0x40 CALLDATASIZE PUSH1 0x3 NOT ADD SLT PUSH2 0x2BA JUMPI PUSH2 0x2DE PUSH2 0x65D PUSH2 0x12D6 JUMP JUMPDEST PUSH2 0x665 PUSH2 0x1A3E JUMP JUMPDEST PUSH1 0x24 CALLDATALOAD SWAP1 PUSH2 0x14BE JUMP JUMPDEST POP CALLVALUE PUSH2 0x2BA JUMPI DUP1 PUSH1 0x3 NOT CALLDATASIZE ADD SLT PUSH2 0x2BA JUMPI PUSH1 0x40 MLOAD PUSH32 0x0 PUSH1 0x1 PUSH1 0x1 PUSH1 0xA0 SHL SUB AND DUP2 MSTORE PUSH1 0x20 SWAP1 RETURN JUMPDEST POP CALLVALUE PUSH2 0x2BA JUMPI PUSH1 0x40 CALLDATASIZE PUSH1 0x3 NOT ADD SLT PUSH2 0x2BA JUMPI PUSH2 0x2DE PUSH2 0x6D0 PUSH2 0x12D6 JUMP JUMPDEST PUSH2 0x6D8 PUSH2 0x1311 JUMP JUMPDEST SWAP1 PUSH2 0x6E1 PUSH2 0x1A3E JUMP JUMPDEST PUSH1 0x1 DUP1 PUSH1 0xA0 SHL SUB AND DUP4 MSTORE PUSH1 0xF PUSH1 0x20 MSTORE PUSH1 0x40 DUP4 KECCAK256 SWAP1 PUSH1 0xFF DUP1 NOT DUP4 SLOAD AND SWAP2 ISZERO ISZERO AND OR SWAP1 SSTORE JUMP JUMPDEST POP CALLVALUE PUSH2 0x2BA JUMPI PUSH1 0x20 CALLDATASIZE PUSH1 0x3 NOT ADD SLT PUSH2 0x2BA JUMPI PUSH32 0x2C8CCBEF4032016D78404AFA804C622487AE3ACAB4CAEFF4B2DBA121D7488C18 PUSH1 0x20 PUSH2 0x742 PUSH2 0x1302 JUMP JUMPDEST PUSH2 0x74A PUSH2 0x1A3E JUMP JUMPDEST DUP1 ISZERO ISZERO SWAP1 PUSH1 0xB SLOAD PUSH2 0xFF00 DUP4 PUSH1 0x8 SHL AND SWAP1 PUSH2 0xFF00 NOT AND OR PUSH1 0xB SSTORE PUSH1 0x0 EQ PUSH2 0x779 JUMPI TIMESTAMP PUSH1 0xD SSTORE JUMPDEST PUSH1 0x40 MLOAD SWAP1 DUP2 MSTORE LOG1 DUP1 RETURN JUMPDEST DUP4 PUSH1 0xD SSTORE PUSH2 0x76F JUMP JUMPDEST POP CALLVALUE PUSH2 0x2BA JUMPI DUP1 PUSH1 0x3 NOT CALLDATASIZE ADD SLT PUSH2 0x2BA JUMPI PUSH1 0x7 SLOAD PUSH1 0x40 MLOAD PUSH1 0x1 PUSH1 0x1 PUSH1 0xA0 SHL SUB SWAP1 SWAP2 AND DUP2 MSTORE PUSH1 0x20 SWAP1 RETURN JUMPDEST POP CALLVALUE PUSH2 0x2BA JUMPI PUSH1 0x40 CALLDATASIZE PUSH1 0x3 NOT ADD SLT PUSH2 0x2BA JUMPI PUSH2 0x7D2 PUSH2 0x7C8 PUSH2 0x12D6 JUMP JUMPDEST PUSH1 0x24 CALLDATALOAD SWAP1 CALLER PUSH2 0x16E8 JUMP JUMPDEST PUSH1 0x20 PUSH1 0x40 MLOAD PUSH1 0x1 DUP2 MSTORE RETURN JUMPDEST POP CALLVALUE PUSH2 0x2BA JUMPI DUP1 PUSH1 0x3 NOT CALLDATASIZE ADD SLT PUSH2 0x2BA JUMPI PUSH1 0x20 PUSH1 0x9 SLOAD PUSH1 0x40 MLOAD SWAP1 DUP2 MSTORE RETURN JUMPDEST POP CALLVALUE PUSH2 0x2BA JUMPI DUP1 PUSH1 0x3 NOT CALLDATASIZE ADD SLT PUSH2 0x2BA JUMPI PUSH1 0x20 PUSH1 0xC SLOAD PUSH1 0x40 MLOAD SWAP1 DUP2 MSTORE RETURN JUMPDEST POP CALLVALUE PUSH2 0x2BA JUMPI DUP1 PUSH1 0x3 NOT CALLDATASIZE ADD SLT PUSH2 0x2BA JUMPI PUSH1 0x40 MLOAD SWAP1 DUP1 PUSH1 0x4 SLOAD SWAP1 DUP2 PUSH1 0x1 SHR SWAP2 PUSH1 0x1 DUP2 AND DUP1 ISZERO PUSH2 0x918 JUMPI JUMPDEST PUSH1 0x20 DUP5 LT DUP2 EQ PUSH2 0x904 JUMPI DUP4 DUP7 MSTORE SWAP1 DUP2 ISZERO PUSH2 0x8DD JUMPI POP PUSH1 0x1 EQ PUSH2 0x880 JUMPI JUMPDEST PUSH2 0x87C DUP5 PUSH2 0x870 DUP2 DUP7 SUB DUP3 PUSH2 0x1320 JUMP JUMPDEST PUSH1 0x40 MLOAD SWAP2 DUP3 SWAP2 DUP3 PUSH2 0x128D JUMP JUMPDEST SUB SWAP1 RETURN JUMPDEST PUSH1 0x4 DUP2 MSTORE PUSH32 0x8A35ACFBC15FF81A39AE7D344FD709F28E8600B4AA8C65C6B64BFE7FE36BD19B SWAP4 SWAP3 POP SWAP1 JUMPDEST DUP1 DUP3 LT PUSH2 0x8C3 JUMPI POP SWAP1 SWAP2 POP DUP2 ADD PUSH1 0x20 ADD PUSH2 0x870 DUP3 PUSH2 0x860 JUMP JUMPDEST SWAP2 SWAP3 PUSH1 0x1 DUP2 PUSH1 0x20 SWAP3 SLOAD DUP4 DUP6 DUP9 ADD ADD MSTORE ADD SWAP2 ADD SWAP1 SWAP3 SWAP2 PUSH2 0x8AA JUMP JUMPDEST PUSH1 0xFF NOT AND PUSH1 0x20 DUP1 DUP8 ADD SWAP2 SWAP1 SWAP2 MSTORE SWAP3 ISZERO ISZERO PUSH1 0x5 SHL DUP6 ADD SWAP1 SWAP3 ADD SWAP3 POP PUSH2 0x870 SWAP2 POP DUP4 SWAP1 POP PUSH2 0x860 JUMP JUMPDEST PUSH4 0x4E487B71 PUSH1 0xE0 SHL DUP4 MSTORE PUSH1 0x22 PUSH1 0x4 MSTORE PUSH1 0x24 DUP4 REVERT JUMPDEST SWAP3 PUSH1 0x7F AND SWAP3 PUSH2 0x843 JUMP JUMPDEST POP CALLVALUE PUSH2 0x2BA JUMPI PUSH2 0x931 CALLDATASIZE PUSH2 0x1358 JUMP JUMPDEST PUSH2 0x939 PUSH2 0x1A3E JUMP JUMPDEST DUP3 JUMPDEST DUP3 MLOAD DUP2 LT ISZERO PUSH2 0x981 JUMPI PUSH1 0x1 SWAP1 PUSH1 0x1 PUSH1 0x1 PUSH1 0xA0 SHL SUB PUSH2 0x959 DUP3 DUP7 PUSH2 0x13FE JUMP JUMPDEST MLOAD AND DUP6 MSTORE PUSH1 0xF PUSH1 0x20 MSTORE PUSH2 0x97B DUP4 PUSH1 0x40 DUP8 KECCAK256 SWAP1 PUSH1 0xFF DUP1 NOT DUP4 SLOAD AND SWAP2 ISZERO ISZERO AND OR SWAP1 SSTORE JUMP JUMPDEST ADD PUSH2 0x93B JUMP JUMPDEST DUP4 DUP1 RETURN JUMPDEST POP CALLVALUE PUSH2 0x2BA JUMPI DUP1 PUSH1 0x3 NOT CALLDATASIZE ADD SLT PUSH2 0x2BA JUMPI PUSH1 0x5 SLOAD PUSH1 0x40 MLOAD PUSH1 0x1 PUSH1 0x1 PUSH1 0xA0 SHL SUB SWAP1 SWAP2 AND DUP2 MSTORE PUSH1 0x20 SWAP1 RETURN JUMPDEST POP CALLVALUE PUSH2 0x2BA JUMPI PUSH1 0x20 CALLDATASIZE PUSH1 0x3 NOT ADD SLT PUSH2 0x2BA JUMPI PUSH1 0x20 PUSH2 0x9D2 PUSH2 0x9CD PUSH2 0x12D6 JUMP JUMPDEST PUSH2 0x145B JUMP JUMPDEST PUSH1 0x40 MLOAD SWAP1 ISZERO ISZERO DUP2 MSTORE RETURN JUMPDEST POP CALLVALUE PUSH2 0x2BA JUMPI PUSH2 0x9EB CALLDATASIZE PUSH2 0x1358 JUMP JUMPDEST PUSH2 0x9F3 PUSH2 0x1A3E JUMP JUMPDEST DUP3 JUMPDEST DUP3 MLOAD DUP2 LT ISZERO PUSH2 0x981 JUMPI PUSH1 0x1 SWAP1 PUSH1 0x1 PUSH1 0x1 PUSH1 0xA0 SHL SUB PUSH2 0xA13 DUP3 DUP7 PUSH2 0x13FE JUMP JUMPDEST MLOAD AND DUP6 MSTORE PUSH1 0x10 PUSH1 0x20 MSTORE PUSH2 0xA35 DUP4 PUSH1 0x40 DUP8 KECCAK256 SWAP1 PUSH1 0xFF DUP1 NOT DUP4 SLOAD AND SWAP2 ISZERO ISZERO AND OR SWAP1 SSTORE JUMP JUMPDEST ADD PUSH2 0x9F5 JUMP JUMPDEST POP CALLVALUE PUSH2 0x2BA JUMPI PUSH2 0xA56 PUSH2 0xA4D CALLDATASIZE PUSH2 0x126E JUMP JUMPDEST SWAP3 SWAP1 DUP3 SWAP1 PUSH2 0x16D5 JUMP JUMPDEST SWAP2 PUSH2 0x2710 DUP4 MUL SWAP3 DUP1 DUP5 DIV PUSH2 0x2710 EQ SWAP1 ISZERO OR ISZERO PUSH2 0xAD5 JUMPI SWAP1 PUSH2 0xA76 SWAP2 PUSH2 0x16A8 JUMP JUMPDEST SWAP1 PUSH2 0x26F7 DUP3 MUL SWAP2 DUP1 DUP4 DIV PUSH2 0x26F7 EQ SWAP1 ISZERO OR ISZERO PUSH2 0xAC1 JUMPI SWAP1 PUSH2 0xA96 SWAP2 PUSH2 0x16B5 JUMP JUMPDEST SWAP1 PUSH1 0x1 DUP3 ADD DUP1 SWAP3 GT PUSH2 0xAAD JUMPI PUSH1 0x20 DUP3 PUSH1 0x40 MLOAD SWAP1 DUP2 MSTORE RETURN JUMPDEST PUSH4 0x4E487B71 PUSH1 0xE0 SHL DUP2 MSTORE PUSH1 0x11 PUSH1 0x4 MSTORE PUSH1 0x24 SWAP1 REVERT JUMPDEST PUSH4 0x4E487B71 PUSH1 0xE0 SHL DUP4 MSTORE PUSH1 0x11 PUSH1 0x4 MSTORE PUSH1 0x24 DUP4 REVERT JUMPDEST PUSH4 0x4E487B71 PUSH1 0xE0 SHL DUP5 MSTORE PUSH1 0x11 PUSH1 0x4 MSTORE PUSH1 0x24 DUP5 REVERT JUMPDEST POP CALLVALUE PUSH2 0x2BA JUMPI PUSH1 0x20 CALLDATASIZE PUSH1 0x3 NOT ADD SLT PUSH2 0x2BA JUMPI PUSH2 0xB03 PUSH2 0x12D6 JUMP JUMPDEST PUSH2 0xB0B PUSH2 0x1A3E JUMP JUMPDEST PUSH1 0x1 PUSH1 0x1 PUSH1 0xA0 SHL SUB AND DUP1 ISZERO PUSH2 0xB50 JUMPI PUSH1 0x6 SLOAD PUSH1 0x1 PUSH1 0x1 PUSH1 0xA0 SHL SUB DUP2 AND PUSH2 0xB41 JUMPI PUSH1 0x1 PUSH1 0x1 PUSH1 0xA0 SHL SUB NOT AND OR PUSH1 0x6 SSTORE PUSH2 0x2DE PUSH2 0x1A67 JUMP JUMPDEST PUSH4 0xA741A045 PUSH1 0xE0 SHL DUP4 MSTORE PUSH1 0x4 DUP4 REVERT JUMPDEST PUSH4 0xD92E233D PUSH1 0xE0 SHL DUP3 MSTORE PUSH1 0x4 DUP3 REVERT JUMPDEST POP CALLVALUE PUSH2 0x2BA JUMPI DUP1 PUSH1 0x3 NOT CALLDATASIZE ADD SLT PUSH2 0x2BA JUMPI PUSH2 0xB78 PUSH2 0x1A3E JUMP JUMPDEST PUSH1 0x5 DUP1 SLOAD PUSH1 0x1 PUSH1 0x1 PUSH1 0xA0 SHL SUB NOT DUP2 AND SWAP1 SWAP2 SSTORE DUP2 SWAP1 PUSH1 0x1 PUSH1 0x1 PUSH1 0xA0 SHL SUB AND PUSH32 0x8BE0079C531659141344CD1FD0A4F28419497F9722A3DAAFE3B4186F6B6457E0 DUP3 DUP1 LOG3 DUP1 RETURN JUMPDEST POP CALLVALUE PUSH2 0x2BA JUMPI PUSH1 0x20 CALLDATASIZE PUSH1 0x3 NOT ADD SLT PUSH2 0x2BA JUMPI PUSH1 0x20 PUSH2 0xBF6 PUSH2 0xBDB PUSH2 0x12D6 JUMP JUMPDEST PUSH1 0x1 PUSH1 0x1 PUSH1 0xA0 SHL SUB AND PUSH1 0x0 SWAP1 DUP2 MSTORE PUSH1 0x20 DUP2 SWAP1 MSTORE PUSH1 0x40 SWAP1 KECCAK256 SLOAD SWAP1 JUMP JUMPDEST PUSH1 0x40 MLOAD SWAP1 DUP2 MSTORE RETURN JUMPDEST POP CALLVALUE PUSH2 0x2BA JUMPI PUSH1 0x20 CALLDATASIZE PUSH1 0x3 NOT ADD SLT PUSH2 0x2BA JUMPI PUSH2 0xC18 PUSH2 0x1A3E JUMP JUMPDEST PUSH1 0x4 CALLDATALOAD PUSH1 0x8 SSTORE DUP1 RETURN JUMPDEST POP CALLVALUE PUSH2 0x2BA JUMPI DUP1 PUSH1 0x3 NOT CALLDATASIZE ADD SLT PUSH2 0x2BA JUMPI PUSH1 0x20 PUSH1 0xA SLOAD PUSH1 0x40 MLOAD SWAP1 DUP2 MSTORE RETURN JUMPDEST POP CALLVALUE PUSH2 0x2BA JUMPI PUSH1 0x20 CALLDATASIZE PUSH1 0x3 NOT ADD SLT PUSH2 0x2BA JUMPI PUSH1 0x20 SWAP1 PUSH1 0xFF SWAP1 PUSH1 0x40 SWAP1 PUSH1 0x1 PUSH1 0x1 PUSH1 0xA0 SHL SUB PUSH2 0xC6A PUSH2 0x12D6 JUMP JUMPDEST AND DUP2 MSTORE PUSH1 0xF DUP5 MSTORE KECCAK256 SLOAD AND PUSH1 0x40 MLOAD SWAP1 ISZERO ISZERO DUP2 MSTORE RETURN JUMPDEST POP CALLVALUE PUSH2 0x2BA JUMPI DUP1 PUSH1 0x3 NOT CALLDATASIZE ADD SLT PUSH2 0x2BA JUMPI PUSH1 0x20 PUSH1 0xFF PUSH1 0xB SLOAD AND PUSH1 0x40 MLOAD SWAP1 ISZERO ISZERO DUP2 MSTORE RETURN JUMPDEST POP CALLVALUE PUSH2 0x2BA JUMPI DUP1 PUSH1 0x3 NOT CALLDATASIZE ADD SLT PUSH2 0x2BA JUMPI PUSH1 0x20 PUSH1 0x40 MLOAD PUSH2 0xDEAD DUP2 MSTORE RETURN JUMPDEST POP CALLVALUE PUSH2 0x2BA JUMPI DUP1 PUSH1 0x3 NOT CALLDATASIZE ADD SLT PUSH2 0x2BA JUMPI PUSH1 0x40 MLOAD PUSH32 0x0 PUSH1 0x1 PUSH1 0x1 PUSH1 0xA0 SHL SUB AND DUP2 MSTORE PUSH1 0x20 SWAP1 RETURN JUMPDEST POP CALLVALUE PUSH2 0x2BA JUMPI DUP1 PUSH1 0x3 NOT CALLDATASIZE ADD SLT PUSH2 0x2BA JUMPI PUSH1 0x6 SLOAD PUSH1 0x40 MLOAD PUSH1 0x1 PUSH1 0x1 PUSH1 0xA0 SHL SUB SWAP1 SWAP2 AND DUP2 MSTORE PUSH1 0x20 SWAP1 RETURN JUMPDEST POP CALLVALUE PUSH2 0x2BA JUMPI DUP1 PUSH1 0x3 NOT CALLDATASIZE ADD SLT PUSH2 0x2BA JUMPI PUSH1 0x20 PUSH1 0xFF PUSH1 0xB SLOAD PUSH1 0x8 SHR AND PUSH1 0x40 MLOAD SWAP1 ISZERO ISZERO DUP2 MSTORE RETURN JUMPDEST POP CALLVALUE PUSH2 0x2BA JUMPI PUSH1 0x20 CALLDATASIZE PUSH1 0x3 NOT ADD SLT PUSH2 0x2BA JUMPI PUSH1 0x20 SWAP1 PUSH1 0x40 SWAP1 PUSH1 0x1 PUSH1 0x1 PUSH1 0xA0 SHL SUB PUSH2 0xD7A PUSH2 0x12D6 JUMP JUMPDEST AND DUP2 MSTORE PUSH1 0xE DUP4 MSTORE KECCAK256 SLOAD PUSH1 0x40 MLOAD SWAP1 DUP2 MSTORE RETURN JUMPDEST POP CALLVALUE PUSH2 0x2BA JUMPI PUSH1 0x20 CALLDATASIZE PUSH1 0x3 NOT ADD SLT PUSH2 0x2BA JUMPI PUSH32 0xF19C3BDDDF1B5AC58B32A05CC2BC72313B03A8E8CEB7621E8818651371E00E54 PUSH1 0x20 PUSH2 0xDC8 PUSH2 0x1302 JUMP JUMPDEST PUSH2 0xDD0 PUSH2 0x1A3E JUMP JUMPDEST DUP1 ISZERO ISZERO SWAP1 PUSH1 0xFF NOT PUSH1 0xB SLOAD AND PUSH1 0xFF DUP4 AND OR PUSH1 0xB SSTORE PUSH2 0xDF1 JUMPI PUSH1 0x40 MLOAD SWAP1 DUP2 MSTORE LOG1 DUP1 RETURN JUMPDEST TIMESTAMP PUSH1 0x9 SSTORE PUSH3 0x278D00 PUSH1 0xA SSTORE PUSH32 0xDBEB6EC948F6EB874ECBD6117742652C35D57FBE578B778B77E677A06AF90B96 DUP3 PUSH1 0x40 MLOAD PUSH3 0x278D00 DUP2 MSTORE LOG1 PUSH2 0x76F JUMP JUMPDEST POP CALLVALUE PUSH2 0x2BA JUMPI DUP1 PUSH1 0x3 NOT CALLDATASIZE ADD SLT PUSH2 0x2BA JUMPI PUSH1 0x20 PUSH1 0x8 SLOAD PUSH1 0x40 MLOAD SWAP1 DUP2 MSTORE RETURN JUMPDEST POP CALLVALUE PUSH2 0x2BA JUMPI DUP1 PUSH1 0x3 NOT CALLDATASIZE ADD SLT PUSH2 0x2BA JUMPI PUSH1 0x20 PUSH1 0x40 MLOAD PUSH1 0x12 DUP2 MSTORE RETURN JUMPDEST POP CALLVALUE PUSH2 0x2BA JUMPI DUP1 PUSH1 0x3 NOT CALLDATASIZE ADD SLT PUSH2 0x2BA JUMPI PUSH2 0xE80 PUSH2 0x1A3E JUMP JUMPDEST PUSH1 0x11 SLOAD PUSH1 0xFF DUP2 AND PUSH2 0xF34 JUMPI PUSH1 0x1 PUSH1 0xFF NOT SWAP2 DUP3 AND DUP2 OR PUSH1 0x11 SSTORE PUSH1 0x5 SLOAD PUSH1 0x1 PUSH1 0x1 PUSH1 0xA0 SHL SUB SWAP1 DUP2 AND DUP5 MSTORE PUSH1 0xF PUSH1 0x20 DUP2 DUP2 MSTORE PUSH1 0x40 DUP1 DUP8 KECCAK256 DUP1 SLOAD DUP8 AND DUP7 OR SWAP1 SSTORE ADDRESS DUP8 MSTORE DUP3 DUP3 MSTORE DUP1 DUP8 KECCAK256 DUP1 SLOAD DUP8 AND DUP7 OR SWAP1 SSTORE PUSH32 0x0 DUP5 AND DUP8 MSTORE DUP3 DUP3 MSTORE DUP1 DUP8 KECCAK256 DUP1 SLOAD DUP8 AND DUP7 OR SWAP1 SSTORE PUSH32 0x0 SWAP1 SWAP4 AND DUP7 MSTORE MSTORE DUP4 KECCAK256 DUP1 SLOAD SWAP1 SWAP3 AND OR SWAP1 SSTORE DUP1 RETURN JUMPDEST PUSH3 0xDC149F PUSH1 0xE4 SHL DUP3 MSTORE PUSH1 0x4 DUP3 REVERT JUMPDEST POP CALLVALUE PUSH2 0x2BA JUMPI PUSH1 0x60 CALLDATASIZE PUSH1 0x3 NOT ADD SLT PUSH2 0x2BA JUMPI PUSH2 0xF5C PUSH2 0x12D6 JUMP JUMPDEST PUSH2 0xF64 PUSH2 0x12EC JUMP JUMPDEST PUSH1 0x1 PUSH1 0x1 PUSH1 0xA0 SHL SUB DUP3 AND DUP1 DUP5 MSTORE PUSH1 0x1 PUSH1 0x20 SWAP1 DUP2 MSTORE PUSH1 0x40 DUP1 DUP7 KECCAK256 CALLER DUP8 MSTORE SWAP1 SWAP2 MSTORE DUP5 KECCAK256 SLOAD PUSH1 0x44 CALLDATALOAD SWAP4 SWAP2 PUSH1 0x0 NOT DUP3 LT PUSH2 0xFA1 JUMPI JUMPDEST POP POP PUSH2 0x7D2 SWAP4 POP PUSH2 0x16E8 JUMP JUMPDEST DUP5 DUP3 LT PUSH2 0x1008 JUMPI DUP1 ISZERO PUSH2 0xFF4 JUMPI CALLER ISZERO PUSH2 0xFE0 JUMPI PUSH1 0x40 DUP7 DUP7 SWAP3 PUSH2 0x7D2 SWAP9 MSTORE PUSH1 0x1 PUSH1 0x20 MSTORE DUP2 DUP2 KECCAK256 PUSH1 0x1 DUP1 PUSH1 0xA0 SHL SUB CALLER AND DUP3 MSTORE PUSH1 0x20 MSTORE KECCAK256 SWAP2 SUB SWAP1 SSTORE CODESIZE DUP1 PUSH2 0xF95 JUMP JUMPDEST PUSH4 0x4A1406B1 PUSH1 0xE1 SHL DUP7 MSTORE PUSH1 0x4 DUP7 SWAP1 MSTORE PUSH1 0x24 DUP7 REVERT JUMPDEST PUSH4 0xE602DF05 PUSH1 0xE0 SHL DUP7 MSTORE PUSH1 0x4 DUP7 SWAP1 MSTORE PUSH1 0x24 DUP7 REVERT JUMPDEST PUSH1 0x64 DUP7 DUP7 DUP5 PUSH4 0x7DC7A0D9 PUSH1 0xE1 SHL DUP4 MSTORE CALLER PUSH1 0x4 MSTORE PUSH1 0x24 MSTORE PUSH1 0x44 MSTORE REVERT JUMPDEST POP CALLVALUE PUSH2 0x2BA JUMPI DUP1 PUSH1 0x3 NOT CALLDATASIZE ADD SLT PUSH2 0x2BA JUMPI PUSH1 0x20 PUSH1 0x2 SLOAD PUSH1 0x40 MLOAD SWAP1 DUP2 MSTORE RETURN JUMPDEST POP CALLVALUE PUSH2 0x2BA JUMPI DUP1 PUSH1 0x3 NOT CALLDATASIZE ADD SLT PUSH2 0x2BA JUMPI PUSH1 0x40 MLOAD PUSH32 0x0 PUSH1 0x1 PUSH1 0x1 PUSH1 0xA0 SHL SUB AND DUP2 MSTORE PUSH1 0x20 SWAP1 RETURN JUMPDEST POP CALLVALUE PUSH2 0x2BA JUMPI PUSH1 0x20 CALLDATASIZE PUSH1 0x3 NOT ADD SLT PUSH2 0x2BA JUMPI PUSH1 0x20 PUSH2 0x10A2 PUSH2 0x12D6 JUMP JUMPDEST EXTCODESIZE ISZERO ISZERO PUSH1 0x40 MLOAD SWAP1 DUP2 MSTORE RETURN JUMPDEST POP CALLVALUE PUSH2 0x2BA JUMPI PUSH1 0x40 CALLDATASIZE PUSH1 0x3 NOT ADD SLT PUSH2 0x2BA JUMPI PUSH2 0x10C7 PUSH2 0x12D6 JUMP JUMPDEST PUSH1 0x24 CALLDATALOAD SWAP1 CALLER ISZERO PUSH2 0x1143 JUMPI PUSH1 0x1 PUSH1 0x1 PUSH1 0xA0 SHL SUB AND SWAP2 DUP3 ISZERO PUSH2 0x112F JUMPI PUSH1 0x40 DUP3 SWAP2 CALLER DUP2 MSTORE PUSH1 0x1 PUSH1 0x20 MSTORE DUP2 DUP2 KECCAK256 DUP6 DUP3 MSTORE PUSH1 0x20 MSTORE KECCAK256 SSTORE PUSH1 0x40 MLOAD SWAP1 DUP2 MSTORE PUSH32 0x8C5BE1E5EBEC7D5BD14F71427D1E84F3DD0314C0F7B2291E5B200AC8C7C3B925 PUSH1 0x20 CALLER SWAP3 LOG3 PUSH1 0x20 PUSH1 0x40 MLOAD PUSH1 0x1 DUP2 MSTORE RETURN JUMPDEST PUSH4 0x4A1406B1 PUSH1 0xE1 SHL DUP2 MSTORE PUSH1 0x4 DUP2 SWAP1 MSTORE PUSH1 0x24 SWAP1 REVERT JUMPDEST PUSH4 0xE602DF05 PUSH1 0xE0 SHL DUP4 MSTORE PUSH1 0x4 DUP4 SWAP1 MSTORE PUSH1 0x24 DUP4 REVERT JUMPDEST POP CALLVALUE PUSH2 0x2BA JUMPI DUP1 PUSH1 0x3 NOT CALLDATASIZE ADD SLT PUSH2 0x2BA JUMPI PUSH1 0x40 MLOAD SWAP1 DUP1 PUSH1 0x3 SLOAD SWAP1 DUP2 PUSH1 0x1 SHR SWAP2 PUSH1 0x1 DUP2 AND DUP1 ISZERO PUSH2 0x120A JUMPI JUMPDEST PUSH1 0x20 DUP5 LT DUP2 EQ PUSH2 0x904 JUMPI DUP4 DUP7 MSTORE SWAP1 DUP2 ISZERO PUSH2 0x8DD JUMPI POP PUSH1 0x1 EQ PUSH2 0x11AD JUMPI PUSH2 0x87C DUP5 PUSH2 0x870 DUP2 DUP7 SUB DUP3 PUSH2 0x1320 JUMP JUMPDEST PUSH1 0x3 DUP2 MSTORE PUSH32 0xC2575A0E9E593C00F959F8C92F12DB2869C3395A3B0502D05E2516446F71F85B SWAP4 SWAP3 POP SWAP1 JUMPDEST DUP1 DUP3 LT PUSH2 0x11F0 JUMPI POP SWAP1 SWAP2 POP DUP2 ADD PUSH1 0x20 ADD PUSH2 0x870 DUP3 PUSH2 0x860 JUMP JUMPDEST SWAP2 SWAP3 PUSH1 0x1 DUP2 PUSH1 0x20 SWAP3 SLOAD DUP4 DUP6 DUP9 ADD ADD MSTORE ADD SWAP2 ADD SWAP1 SWAP3 SWAP2 PUSH2 0x11D7 JUMP JUMPDEST SWAP3 PUSH1 0x7F AND SWAP3 PUSH2 0x1181 JUMP JUMPDEST POP CALLVALUE PUSH2 0x2BA JUMPI PUSH2 0x1223 CALLDATASIZE PUSH2 0x126E JUMP JUMPDEST PUSH2 0x26F7 DUP4 MUL SWAP3 DUP1 DUP5 DIV PUSH2 0x26F7 EQ SWAP1 ISZERO OR ISZERO PUSH2 0xAD5 JUMPI PUSH2 0x1242 SWAP1 DUP4 PUSH2 0x16D5 JUMP JUMPDEST SWAP3 PUSH2 0x2710 DUP3 MUL SWAP2 DUP1 DUP4 DIV PUSH2 0x2710 EQ SWAP1 ISZERO OR ISZERO PUSH2 0xAAD JUMPI PUSH1 0x20 PUSH2 0xBF6 DUP6 PUSH2 0x1268 DUP7 DUP7 PUSH2 0x144E JUMP JUMPDEST SWAP1 PUSH2 0x16B5 JUMP JUMPDEST PUSH1 0x60 SWAP1 PUSH1 0x3 NOT ADD SLT PUSH2 0x1288 JUMPI PUSH1 0x4 CALLDATALOAD SWAP1 PUSH1 0x24 CALLDATALOAD SWAP1 PUSH1 0x44 CALLDATALOAD SWAP1 JUMP JUMPDEST PUSH1 0x0 DUP1 REVERT JUMPDEST SWAP2 SWAP1 SWAP2 PUSH1 0x20 DUP2 MSTORE DUP3 MLOAD DUP1 PUSH1 0x20 DUP4 ADD MSTORE PUSH1 0x0 JUMPDEST DUP2 DUP2 LT PUSH2 0x12C0 JUMPI POP PUSH1 0x40 SWAP3 SWAP4 POP PUSH1 0x0 DUP4 DUP3 DUP5 ADD ADD MSTORE PUSH1 0x1F DUP1 NOT SWAP2 ADD AND ADD ADD SWAP1 JUMP JUMPDEST DUP1 PUSH1 0x20 DUP1 SWAP3 DUP8 ADD ADD MLOAD PUSH1 0x40 DUP3 DUP7 ADD ADD MSTORE ADD PUSH2 0x129F JUMP JUMPDEST PUSH1 0x4 CALLDATALOAD SWAP1 PUSH1 0x1 PUSH1 0x1 PUSH1 0xA0 SHL SUB DUP3 AND DUP3 SUB PUSH2 0x1288 JUMPI JUMP JUMPDEST PUSH1 0x24 CALLDATALOAD SWAP1 PUSH1 0x1 PUSH1 0x1 PUSH1 0xA0 SHL SUB DUP3 AND DUP3 SUB PUSH2 0x1288 JUMPI JUMP JUMPDEST PUSH1 0x4 CALLDATALOAD SWAP1 DUP2 ISZERO ISZERO DUP3 SUB PUSH2 0x1288 JUMPI JUMP JUMPDEST PUSH1 0x24 CALLDATALOAD SWAP1 DUP2 ISZERO ISZERO DUP3 SUB PUSH2 0x1288 JUMPI JUMP JUMPDEST SWAP1 PUSH1 0x1F DUP1 NOT SWAP2 ADD AND DUP2 ADD SWAP1 DUP2 LT PUSH8 0xFFFFFFFFFFFFFFFF DUP3 GT OR PUSH2 0x1342 JUMPI PUSH1 0x40 MSTORE JUMP JUMPDEST PUSH4 0x4E487B71 PUSH1 0xE0 SHL PUSH1 0x0 MSTORE PUSH1 0x41 PUSH1 0x4 MSTORE PUSH1 0x24 PUSH1 0x0 REVERT JUMPDEST PUSH1 0x40 PUSH1 0x3 NOT DUP3 ADD SLT PUSH2 0x1288 JUMPI PUSH1 0x4 CALLDATALOAD PUSH8 0xFFFFFFFFFFFFFFFF DUP2 GT PUSH2 0x1288 JUMPI DUP2 PUSH1 0x23 DUP3 ADD SLT ISZERO PUSH2 0x1288 JUMPI DUP1 PUSH1 0x4 ADD CALLDATALOAD SWAP2 PUSH8 0xFFFFFFFFFFFFFFFF DUP4 GT PUSH2 0x1342 JUMPI DUP3 PUSH1 0x5 SHL SWAP2 PUSH1 0x40 MLOAD SWAP4 PUSH2 0x13AC PUSH1 0x20 DUP6 ADD DUP7 PUSH2 0x1320 JUMP JUMPDEST DUP5 MSTORE PUSH1 0x24 PUSH1 0x20 DUP6 ADD SWAP4 DUP3 ADD ADD SWAP2 DUP3 GT PUSH2 0x1288 JUMPI PUSH1 0x24 ADD SWAP2 JUMPDEST DUP2 DUP4 LT PUSH2 0x13DE JUMPI POP POP POP SWAP1 PUSH1 0x24 CALLDATALOAD DUP1 ISZERO ISZERO DUP2 SUB PUSH2 0x1288 JUMPI SWAP1 JUMP JUMPDEST DUP3 CALLDATALOAD PUSH1 0x1 PUSH1 0x1 PUSH1 0xA0 SHL SUB DUP2 AND DUP2 SUB PUSH2 0x1288 JUMPI DUP2 MSTORE PUSH1 0x20 SWAP3 DUP4 ADD SWAP3 ADD PUSH2 0x13C4 JUMP JUMPDEST DUP1 MLOAD DUP3 LT ISZERO PUSH2 0x1412 JUMPI PUSH1 0x20 SWAP2 PUSH1 0x5 SHL ADD ADD SWAP1 JUMP JUMPDEST PUSH4 0x4E487B71 PUSH1 0xE0 SHL PUSH1 0x0 MSTORE PUSH1 0x32 PUSH1 0x4 MSTORE PUSH1 0x24 PUSH1 0x0 REVERT JUMPDEST SWAP1 PUSH3 0x278D00 DUP3 ADD DUP1 SWAP3 GT PUSH2 0x1438 JUMPI JUMP JUMPDEST PUSH4 0x4E487B71 PUSH1 0xE0 SHL PUSH1 0x0 MSTORE PUSH1 0x11 PUSH1 0x4 MSTORE PUSH1 0x24 PUSH1 0x0 REVERT JUMPDEST SWAP2 SWAP1 DUP3 ADD DUP1 SWAP3 GT PUSH2 0x1438 JUMPI JUMP JUMPDEST PUSH1 0xFF PUSH1 0xB SLOAD PUSH1 0x8 SHR AND ISZERO SWAP1 DUP2 ISZERO PUSH2 0x149B JUMPI JUMPDEST POP PUSH2 0x1496 JUMPI PUSH1 0xD SLOAD DUP1 ISZERO PUSH2 0x148A JUMPI PUSH2 0x1484 SWAP1 PUSH2 0x1428 JUMP JUMPDEST TIMESTAMP LT ISZERO SWAP1 JUMP JUMPDEST POP PUSH2 0x1484 PUSH1 0xC SLOAD PUSH2 0x1428 JUMP JUMPDEST PUSH1 0x1 SWAP1 JUMP JUMPDEST PUSH1 0x1 PUSH1 0x1 PUSH1 0xA0 SHL SUB AND PUSH1 0x0 SWAP1 DUP2 MSTORE PUSH1 0xF PUSH1 0x20 MSTORE PUSH1 0x40 SWAP1 KECCAK256 SLOAD PUSH1 0xFF AND SWAP1 POP CODESIZE PUSH2 0x146D JUMP JUMPDEST PUSH1 0x1 PUSH1 0x1 PUSH1 0xA0 SHL SUB AND SWAP1 ADDRESS DUP3 EQ PUSH2 0x154C JUMPI PUSH1 0x20 SWAP1 PUSH1 0x44 PUSH1 0x1 DUP1 PUSH1 0xA0 SHL SUB PUSH1 0x5 SLOAD AND PUSH1 0x0 PUSH1 0x40 MLOAD SWAP6 DUP7 SWAP5 DUP6 SWAP4 PUSH4 0xA9059CBB PUSH1 0xE0 SHL DUP6 MSTORE PUSH1 0x4 DUP6 ADD MSTORE PUSH1 0x24 DUP5 ADD MSTORE GAS CALL DUP1 ISZERO PUSH2 0x1540 JUMPI PUSH2 0x150C JUMPI POP JUMP JUMPDEST PUSH1 0x20 DUP2 RETURNDATASIZE PUSH1 0x20 GT PUSH2 0x1538 JUMPI JUMPDEST DUP2 PUSH2 0x1525 PUSH1 0x20 SWAP4 DUP4 PUSH2 0x1320 JUMP JUMPDEST DUP2 ADD SUB SLT PUSH2 0x1288 JUMPI MLOAD DUP1 ISZERO ISZERO SUB PUSH2 0x1288 JUMPI JUMP JUMPDEST RETURNDATASIZE SWAP2 POP PUSH2 0x1518 JUMP JUMPDEST PUSH1 0x40 MLOAD RETURNDATASIZE PUSH1 0x0 DUP3 RETURNDATACOPY RETURNDATASIZE SWAP1 REVERT JUMPDEST POP POP JUMP JUMPDEST MLOAD SWAP1 PUSH1 0x1 PUSH1 0x1 PUSH1 0x70 SHL SUB DUP3 AND DUP3 SUB PUSH2 0x1288 JUMPI JUMP JUMPDEST PUSH1 0x6 SLOAD PUSH1 0x40 MLOAD PUSH4 0x240BC6B PUSH1 0xE2 SHL DUP2 MSTORE SWAP1 PUSH1 0x1 PUSH1 0x1 PUSH1 0xA0 SHL SUB AND PUSH1 0x60 DUP3 PUSH1 0x4 DUP2 DUP5 GAS STATICCALL SWAP1 DUP2 PUSH1 0x0 SWAP4 DUP5 SWAP4 PUSH2 0x164B JUMPI JUMPDEST POP PUSH2 0x15A0 JUMPI POP POP POP PUSH1 0x0 SWAP1 JUMP JUMPDEST PUSH1 0x20 PUSH1 0x4 SWAP2 PUSH1 0x40 MLOAD SWAP3 DUP4 DUP1 SWAP3 PUSH4 0xDFE1681 PUSH1 0xE0 SHL DUP3 MSTORE GAS STATICCALL SWAP1 DUP2 ISZERO PUSH2 0x1540 JUMPI PUSH1 0x0 SWAP2 PUSH2 0x1605 JUMPI JUMPDEST POP PUSH1 0x1 PUSH1 0x1 PUSH1 0xA0 SHL SUB SWAP1 DUP2 AND PUSH32 0x0 SWAP1 SWAP2 AND SUB PUSH2 0x1600 JUMPI POP SWAP1 JUMP JUMPDEST SWAP1 POP SWAP1 JUMP JUMPDEST PUSH1 0x20 DUP2 RETURNDATASIZE PUSH1 0x20 GT PUSH2 0x1643 JUMPI JUMPDEST DUP2 PUSH2 0x161E PUSH1 0x20 SWAP4 DUP4 PUSH2 0x1320 JUMP JUMPDEST DUP2 ADD SUB SLT PUSH2 0x163F JUMPI MLOAD SWAP1 PUSH1 0x1 PUSH1 0x1 PUSH1 0xA0 SHL SUB DUP3 AND DUP3 SUB PUSH2 0x2BA JUMPI POP CODESIZE PUSH2 0x15C7 JUMP JUMPDEST POP DUP1 REVERT JUMPDEST RETURNDATASIZE SWAP2 POP PUSH2 0x1611 JUMP JUMPDEST SWAP4 SWAP1 SWAP3 POP PUSH1 0x60 DUP5 RETURNDATASIZE PUSH1 0x60 GT PUSH2 0x16A0 JUMPI JUMPDEST DUP2 PUSH2 0x1668 PUSH1 0x60 SWAP4 DUP4 PUSH2 0x1320 JUMP JUMPDEST DUP2 ADD SUB SLT PUSH2 0x2BA JUMPI PUSH2 0x1679 DUP5 PUSH2 0x1550 JUMP JUMPDEST SWAP1 PUSH1 0x40 PUSH2 0x1688 PUSH1 0x20 DUP8 ADD PUSH2 0x1550 JUMP JUMPDEST SWAP6 ADD MLOAD PUSH4 0xFFFFFFFF DUP2 AND SUB PUSH2 0x2BA JUMPI POP SWAP3 SWAP2 CODESIZE PUSH2 0x1593 JUMP JUMPDEST RETURNDATASIZE SWAP2 POP PUSH2 0x165B JUMP JUMPDEST SWAP2 SWAP1 DUP3 SUB SWAP2 DUP3 GT PUSH2 0x1438 JUMPI JUMP JUMPDEST DUP2 ISZERO PUSH2 0x16BF JUMPI DIV SWAP1 JUMP JUMPDEST PUSH4 0x4E487B71 PUSH1 0xE0 SHL PUSH1 0x0 MSTORE PUSH1 0x12 PUSH1 0x4 MSTORE PUSH1 0x24 PUSH1 0x0 REVERT JUMPDEST DUP2 DUP2 MUL SWAP3 SWAP2 DUP2 ISZERO SWAP2 DUP5 DIV EQ OR ISZERO PUSH2 0x1438 JUMPI JUMP JUMPDEST SWAP1 PUSH1 0x1 PUSH1 0x1 PUSH1 0xA0 SHL SUB DUP3 AND DUP1 ISZERO DUP1 ISZERO PUSH2 0x1A2D JUMPI JUMPDEST PUSH2 0x1A00 JUMPI DUP1 PUSH1 0x0 MSTORE PUSH1 0xF PUSH1 0x20 MSTORE PUSH1 0xFF PUSH1 0x40 PUSH1 0x0 KECCAK256 SLOAD AND DUP1 ISZERO PUSH2 0x1A0B JUMPI JUMPDEST PUSH2 0x1A00 JUMPI PUSH2 0x1727 DUP3 DUP5 PUSH2 0x1B86 JUMP JUMPDEST PUSH2 0x1731 DUP4 DUP6 PUSH2 0x1BFA JUMP JUMPDEST SWAP1 ISZERO PUSH2 0x18BD JUMPI POP POP PUSH1 0x1 PUSH1 0x1 PUSH1 0xA0 SHL SUB DUP2 AND PUSH1 0x0 DUP2 DUP2 MSTORE PUSH1 0x10 PUSH1 0x20 MSTORE PUSH1 0x40 SWAP1 KECCAK256 SLOAD SWAP1 SWAP3 SWAP1 PUSH1 0xFF AND PUSH2 0x18AC JUMPI PUSH1 0xB SLOAD PUSH1 0xFF DUP2 PUSH1 0x8 SHR AND DUP1 PUSH2 0x1893 JUMPI JUMPDEST PUSH2 0x185B JUMPI JUMPDEST PUSH1 0xFF AND DUP1 PUSH2 0x1844 JUMPI JUMPDEST PUSH2 0x1834 JUMPI PUSH2 0x1789 SWAP2 DUP5 SWAP2 PUSH2 0x1A9D JUMP JUMPDEST DUP1 PUSH1 0x0 MSTORE PUSH1 0xE PUSH1 0x20 MSTORE TIMESTAMP PUSH1 0x40 PUSH1 0x0 KECCAK256 SSTORE PUSH1 0x3 PUSH1 0x40 MLOAD PUSH3 0x425559 PUSH1 0xE8 SHL DUP2 MSTORE KECCAK256 PUSH1 0x40 MLOAD DUP3 PUSH32 0x681F1F0FB3679A87B3423967DFA2EC97150B706D392EADA5B3617C7508AFC765 TIMESTAMP SWAP3 DUP1 PUSH2 0x17DB DUP9 DUP1 DUP4 PUSH2 0x1C5B JUMP JUMPDEST SUB SWAP1 LOG4 PUSH1 0x40 MLOAD SWAP2 PUSH1 0x80 DUP4 MSTORE PUSH1 0x3 PUSH1 0x80 DUP5 ADD MSTORE PUSH3 0x425559 PUSH1 0xE8 SHL PUSH1 0xA0 DUP5 ADD MSTORE DUP1 PUSH1 0x20 DUP5 ADD MSTORE PUSH1 0x0 PUSH1 0x40 DUP5 ADD MSTORE PUSH1 0x60 DUP4 ADD MSTORE PUSH32 0xFDE30999D0EA66FCAF14400B79C9E771A1A87176335A8CC91382321A3D0A0C1F PUSH1 0xC0 TIMESTAMP SWAP4 LOG3 JUMPDEST JUMP JUMPDEST PUSH3 0x4E6101 PUSH1 0xE3 SHL PUSH1 0x0 MSTORE PUSH1 0x4 PUSH1 0x0 REVERT JUMPDEST POP PUSH2 0x1854 PUSH1 0x9 SLOAD PUSH1 0xA SLOAD SWAP1 PUSH2 0x144E JUMP JUMPDEST TIMESTAMP LT PUSH2 0x177A JUMP JUMPDEST PUSH1 0xD SLOAD DUP1 ISZERO PUSH2 0x188A JUMPI JUMPDEST PUSH3 0x278D00 DUP2 ADD DUP1 SWAP2 GT PUSH2 0x1438 JUMPI TIMESTAMP LT ISZERO PUSH2 0x1771 JUMPI PUSH4 0x20CF80F9 PUSH1 0xE0 SHL PUSH1 0x0 MSTORE PUSH1 0x4 PUSH1 0x0 REVERT JUMPDEST POP PUSH1 0xC SLOAD PUSH2 0x1865 JUMP JUMPDEST POP DUP4 PUSH1 0x0 MSTORE PUSH1 0xF PUSH1 0x20 MSTORE PUSH1 0xFF PUSH1 0x40 PUSH1 0x0 KECCAK256 SLOAD AND ISZERO PUSH2 0x176C JUMP JUMPDEST PUSH4 0x9550C77 PUSH1 0xE0 SHL PUSH1 0x0 MSTORE PUSH1 0x4 PUSH1 0x0 REVERT JUMPDEST SWAP1 SWAP4 SWAP3 SWAP1 ISZERO PUSH2 0x19F6 JUMPI DUP4 PUSH1 0x0 MSTORE PUSH1 0x10 PUSH1 0x20 MSTORE PUSH1 0xFF PUSH1 0x40 PUSH1 0x0 KECCAK256 SLOAD AND PUSH2 0x18AC JUMPI DUP4 PUSH1 0x0 MSTORE PUSH1 0xE PUSH1 0x20 MSTORE PUSH2 0x18F7 PUSH1 0x40 PUSH1 0x0 KECCAK256 SLOAD PUSH1 0x8 SLOAD SWAP1 PUSH2 0x144E JUMP JUMPDEST TIMESTAMP LT PUSH2 0x19E5 JUMPI PUSH2 0x1908 SWAP2 DUP4 SWAP2 PUSH2 0x1A9D JUMP JUMPDEST PUSH1 0x40 MLOAD DUP2 DUP2 MSTORE PUSH1 0x0 PUSH1 0x20 DUP3 ADD MSTORE PUSH1 0x0 PUSH1 0x40 DUP3 ADD MSTORE PUSH1 0x0 PUSH1 0x60 DUP3 ADD MSTORE DUP2 PUSH1 0x80 DUP3 ADD MSTORE PUSH1 0x0 PUSH1 0xA0 DUP3 ADD MSTORE PUSH1 0x0 PUSH1 0xC0 DUP3 ADD MSTORE PUSH1 0x0 PUSH1 0xE0 DUP3 ADD MSTORE PUSH1 0x0 PUSH2 0x100 DUP3 ADD MSTORE PUSH1 0x0 PUSH2 0x120 DUP3 ADD MSTORE PUSH1 0x0 PUSH2 0x140 DUP3 ADD MSTORE PUSH1 0x0 PUSH2 0x160 DUP3 ADD MSTORE PUSH1 0x0 PUSH2 0x180 DUP3 ADD MSTORE PUSH1 0x0 PUSH2 0x1A0 DUP3 ADD MSTORE PUSH1 0x0 PUSH2 0x1C0 DUP3 ADD MSTORE DUP3 PUSH32 0x14F1A00236D7BCA73DDCF087E3D43CA785808697C6FDE3616F17D02D6F2C68E3 PUSH2 0x1E0 TIMESTAMP SWAP4 LOG3 PUSH1 0x4 PUSH1 0x40 MLOAD PUSH4 0x14D15313 PUSH1 0xE2 SHL DUP2 MSTORE KECCAK256 SWAP2 PUSH32 0x681F1F0FB3679A87B3423967DFA2EC97150B706D392EADA5B3617C7508AFC765 PUSH1 0x40 MLOAD DUP1 PUSH2 0x19E0 TIMESTAMP SWAP6 DUP1 DUP4 PUSH2 0x1C5B JUMP JUMPDEST SUB SWAP1 LOG4 JUMP JUMPDEST PUSH4 0x465FD091 PUSH1 0xE0 SHL PUSH1 0x0 MSTORE PUSH1 0x4 PUSH1 0x0 REVERT JUMPDEST PUSH2 0x1832 SWAP4 POP PUSH2 0x1A9D JUMP JUMPDEST POP PUSH2 0x1832 SWAP3 SWAP2 PUSH2 0x1A9D JUMP JUMPDEST POP PUSH1 0x1 PUSH1 0x1 PUSH1 0xA0 SHL SUB DUP3 AND PUSH1 0x0 SWAP1 DUP2 MSTORE PUSH1 0xF PUSH1 0x20 MSTORE PUSH1 0x40 SWAP1 KECCAK256 SLOAD PUSH1 0xFF AND PUSH2 0x1719 JUMP JUMPDEST POP PUSH1 0x1 PUSH1 0x1 PUSH1 0xA0 SHL SUB DUP3 AND ISZERO PUSH2 0x16FC JUMP JUMPDEST PUSH1 0x5 SLOAD PUSH1 0x1 PUSH1 0x1 PUSH1 0xA0 SHL SUB AND CALLER SUB PUSH2 0x1A52 JUMPI JUMP JUMPDEST PUSH4 0x118CDAA7 PUSH1 0xE0 SHL PUSH1 0x0 MSTORE CALLER PUSH1 0x4 MSTORE PUSH1 0x24 PUSH1 0x0 REVERT JUMPDEST PUSH3 0x278D00 PUSH1 0xA SSTORE PUSH32 0xDBEB6EC948F6EB874ECBD6117742652C35D57FBE578B778B77E677A06AF90B96 PUSH1 0x20 PUSH1 0x40 MLOAD PUSH3 0x278D00 DUP2 MSTORE LOG1 JUMP JUMPDEST PUSH1 0x1 PUSH1 0x1 PUSH1 0xA0 SHL SUB AND SWAP1 DUP2 PUSH2 0x1B19 JUMPI PUSH1 0x20 PUSH32 0xDDF252AD1BE2C89B69C2B068FC378DAA952BA7F163C4A11628F55A4DF523B3EF SWAP2 PUSH2 0x1ADC DUP6 PUSH1 0x2 SLOAD PUSH2 0x144E JUMP JUMPDEST PUSH1 0x2 SSTORE JUMPDEST PUSH1 0x1 PUSH1 0x1 PUSH1 0xA0 SHL SUB AND SWAP4 DUP5 PUSH2 0x1B01 JUMPI DUP1 PUSH1 0x2 SLOAD SUB PUSH1 0x2 SSTORE JUMPDEST PUSH1 0x40 MLOAD SWAP1 DUP2 MSTORE LOG3 JUMP JUMPDEST DUP5 PUSH1 0x0 MSTORE PUSH1 0x0 DUP3 MSTORE PUSH1 0x40 PUSH1 0x0 KECCAK256 DUP2 DUP2 SLOAD ADD SWAP1 SSTORE PUSH2 0x1AF8 JUMP JUMPDEST DUP2 PUSH1 0x0 MSTORE PUSH1 0x0 PUSH1 0x20 MSTORE PUSH1 0x40 PUSH1 0x0 KECCAK256 SLOAD DUP4 DUP2 LT PUSH2 0x1B69 JUMPI PUSH32 0xDDF252AD1BE2C89B69C2B068FC378DAA952BA7F163C4A11628F55A4DF523B3EF SWAP2 DUP5 PUSH1 0x20 SWAP3 DUP6 PUSH1 0x0 MSTORE PUSH1 0x0 DUP5 MSTORE SUB PUSH1 0x40 PUSH1 0x0 KECCAK256 SSTORE PUSH2 0x1AE0 JUMP JUMPDEST SWAP2 SWAP1 POP PUSH4 0x391434E3 PUSH1 0xE2 SHL PUSH1 0x0 MSTORE PUSH1 0x4 MSTORE PUSH1 0x24 MSTORE PUSH1 0x44 MSTORE PUSH1 0x64 PUSH1 0x0 REVERT JUMPDEST PUSH1 0x6 SLOAD PUSH1 0x1 PUSH1 0x1 PUSH1 0xA0 SHL SUB SWAP1 DUP2 AND SWAP3 SWAP2 AND DUP3 SWAP1 SUB PUSH2 0x1BF3 JUMPI PUSH1 0x1 PUSH1 0x1 PUSH1 0xA0 SHL SUB AND DUP2 DUP2 EQ PUSH2 0x1BF3 JUMPI PUSH32 0x0 PUSH1 0x1 PUSH1 0x1 PUSH1 0xA0 SHL SUB AND EQ PUSH2 0x1BED JUMPI CALLER SUB PUSH2 0x1BE8 JUMPI PUSH1 0x1 SWAP1 JUMP JUMPDEST PUSH1 0x0 SWAP1 JUMP JUMPDEST POP PUSH1 0x0 SWAP1 JUMP JUMPDEST POP POP PUSH1 0x0 SWAP1 JUMP JUMPDEST PUSH1 0x6 SLOAD PUSH1 0x1 PUSH1 0x1 PUSH1 0xA0 SHL SUB SWAP1 DUP2 AND SWAP3 AND DUP3 SWAP1 SUB PUSH2 0x1BF3 JUMPI PUSH1 0x1 PUSH1 0x1 PUSH1 0xA0 SHL SUB AND DUP2 DUP2 EQ PUSH2 0x1BF3 JUMPI PUSH32 0x0 PUSH1 0x1 PUSH1 0x1 PUSH1 0xA0 SHL SUB AND EQ PUSH2 0x1BED JUMPI CALLER EQ PUSH2 0x1BE8 JUMPI PUSH1 0x1 SWAP1 JUMP JUMPDEST PUSH2 0x140 SWAP1 PUSH1 0x0 SWAP3 SWAP5 SWAP4 PUSH2 0x160 DUP3 ADD SWAP6 DUP3 MSTORE DUP4 PUSH1 0x20 DUP4 ADD MSTORE PUSH1 0x40 DUP3 ADD MSTORE DUP3 PUSH1 0x60 DUP3 ADD MSTORE DUP3 PUSH1 0x80 DUP3 ADD MSTORE DUP3 PUSH1 0xA0 DUP3 ADD MSTORE DUP3 PUSH1 0xC0 DUP3 ADD MSTORE DUP3 PUSH1 0xE0 DUP3 ADD MSTORE DUP3 PUSH2 0x100 DUP3 ADD MSTORE DUP3 PUSH2 0x120 DUP3 ADD MSTORE ADD MSTORE JUMP INVALID LOG2 PUSH5 0x6970667358 0x22 SLT KECCAK256 0xD9 RETURNDATACOPY CODESIZE 0xB4 SWAP11 SGT 0xC6 0x4D MSTORE GT GAS MLOAD PUSH21 0x9ACC2B2450A9521DA93B487068C51A7E9D2E176473 PUSH16 0x6C634300081C00330000000000000000 "},"methodIdentifiers":{"DEAD_ADDRESS()":"4e6fd6c4","USDT()":"c54e44eb","allowance(address,address)":"dd62ed3e","approve(address,uint256)":"095ea7b3","balanceOf(address)":"70a08231","blacklisted(address)":"dbac26e9","coldTime()":"36543fb9","contractDeployTime()":"9f54790d","decimals()":"313ce567","delayedBuyEnabled()":"43a066aa","delayedBuyEnabledTime()":"d4273cd6","feeWhitelisted(address)":"569ea101","getAmountIn(uint256,uint256,uint256)":"85f8c259","getAmountOut(uint256,uint256,uint256)":"054d50d4","getDelayedBuyInfo()":"ff919151","getPresaleStatus()":"d7517caa","getUSDTReserve()":"d123de31","getUniswapV2Pair()":"1abfa629","initializeWhitelist()":"2927bacd","isContract(address)":"16279055","isDelayedBuyPeriodMet(address)":"87894d03","lastBuyTime(address)":"3fecc2e2","name()":"06fdde03","owner()":"8da5cb5b","presaleActive()":"53135ca0","presaleDuration()":"5868c32a","presaleStartTime()":"a82524b2","recoverStuckTokens(address,uint256)":"c596f3fe","recycle(uint256)":"dd1c35bc","renounceOwnership()":"715018a6","rootAddress()":"aaa2b8c8","setBatchBlacklisted(address[],bool)":"861bd3c5","setBatchFeeWhitelisted(address[],bool)":"90e82f24","setBlacklisted(address,bool)":"d01dd6d2","setColdTime(uint256)":"622e6ad8","setDelayedBuyEnabled(bool)":"af24ccaa","setFeeWhitelisted(address,bool)":"b99ce15e","setPair(address)":"8187f516","setPresaleActive(bool)":"3f8121a2","setPresaleDuration()":"fdc0cdbf","staking()":"4cf088d9","symbol()":"95d89b41","totalSupply()":"18160ddd","transfer(address,uint256)":"a9059cbb","transferFrom(address,address,uint256)":"23b872dd","transferOwnership(address)":"f2fde38b","uniswapV2Pair()":"49bd5a5e","uniswapV2Router()":"1694505e"}}}}}