{"contracts/test-pancake/PancakeSwapDemo.sol":{"PancakeSwapDemo":{"abi":[{"inputs":[],"stateMutability":"nonpayable","type":"constructor"},{"anonymous":false,"inputs":[{"indexed":false,"internalType":"address","name":"tokenIn","type":"address"},{"indexed":false,"internalType":"address","name":"tokenOut","type":"address"},{"indexed":false,"internalType":"uint256","name":"amountIn","type":"uint256"},{"indexed":false,"internalType":"uint256","name":"amountOut","type":"uint256"}],"name":"PriceQueried","type":"event"},{"anonymous":false,"inputs":[{"indexed":false,"internalType":"address","name":"tokenIn","type":"address"},{"indexed":false,"internalType":"address","name":"tokenOut","type":"address"},{"indexed":false,"internalType":"uint256","name":"amountIn","type":"uint256"},{"indexed":false,"internalType":"uint256","name":"amountOut","type":"uint256"}],"name":"SwapExecuted","type":"event"},{"inputs":[],"name":"BUSD","outputs":[{"internalType":"address","name":"","type":"address"}],"stateMutability":"view","type":"function"},{"inputs":[],"name":"PANCAKE_FACTORY","outputs":[{"internalType":"address","name":"","type":"address"}],"stateMutability":"view","type":"function"},{"inputs":[],"name":"PANCAKE_ROUTER","outputs":[{"internalType":"address","name":"","type":"address"}],"stateMutability":"view","type":"function"},{"inputs":[],"name":"USDT","outputs":[{"internalType":"address","name":"","type":"address"}],"stateMutability":"view","type":"function"},{"inputs":[],"name":"WBNB","outputs":[{"internalType":"address","name":"","type":"address"}],"stateMutability":"view","type":"function"},{"inputs":[],"name":"factory","outputs":[{"internalType":"contract IPancakeFactory","name":"","type":"address"}],"stateMutability":"view","type":"function"},{"inputs":[{"internalType":"uint256","name":"amountBNB","type":"uint256"}],"name":"getBNBPrice","outputs":[{"internalType":"uint256","name":"amountBUSD","type":"uint256"}],"stateMutability":"view","type":"function"},{"inputs":[{"internalType":"address","name":"tokenA","type":"address"},{"internalType":"address","name":"tokenB","type":"address"}],"name":"getPairAddress","outputs":[{"internalType":"address","name":"pair","type":"address"}],"stateMutability":"view","type":"function"},{"inputs":[{"internalType":"address","name":"tokenA","type":"address"},{"internalType":"address","name":"tokenB","type":"address"}],"name":"getPairReserves","outputs":[{"internalType":"uint112","name":"reserve0","type":"uint112"},{"internalType":"uint112","name":"reserve1","type":"uint112"},{"internalType":"address","name":"token0","type":"address"},{"internalType":"address","name":"token1","type":"address"}],"stateMutability":"view","type":"function"},{"inputs":[{"internalType":"uint256","name":"amountIn","type":"uint256"},{"internalType":"address","name":"tokenIn","type":"address"},{"internalType":"address","name":"tokenOut","type":"address"}],"name":"getPrice","outputs":[{"internalType":"uint256","name":"amountOut","type":"uint256"}],"stateMutability":"view","type":"function"},{"inputs":[{"internalType":"uint256","name":"amountIn","type":"uint256"},{"internalType":"address","name":"tokenIn","type":"address"},{"internalType":"address","name":"tokenMid","type":"address"},{"internalType":"address","name":"tokenOut","type":"address"}],"name":"getPriceWithHop","outputs":[{"internalType":"uint256","name":"amountOut","type":"uint256"}],"stateMutability":"view","type":"function"},{"inputs":[],"name":"getWBNBBUSDPairInfo","outputs":[{"internalType":"address","name":"pairAddress","type":"address"},{"internalType":"uint256","name":"reserveWBNB","type":"uint256"},{"internalType":"uint256","name":"reserveBUSD","type":"uint256"}],"stateMutability":"view","type":"function"},{"inputs":[],"name":"router","outputs":[{"internalType":"contract IPancakeRouter02","name":"","type":"address"}],"stateMutability":"view","type":"function"},{"inputs":[{"internalType":"uint256","name":"amountIn","type":"uint256"},{"internalType":"uint256","name":"amountOutMin","type":"uint256"},{"internalType":"address","name":"tokenIn","type":"address"},{"internalType":"address","name":"tokenOut","type":"address"}],"name":"swap","outputs":[{"internalType":"uint256","name":"amountOut","type":"uint256"}],"stateMutability":"nonpayable","type":"function"}],"evm":{"bytecode":{"linkReferences":{},"object":"60808060405234605d57600080546001600160a01b03199081167310ed43c718714eb63d5aa57b78b54704e256024e179091556001805490911673ca143ce32fe78f1f7019d7d551a6402fc5350c73179055610d4790816100638239f35b600080fdfe6080604052600436101561001257600080fd5b60003560e01c80631af92bcb14610a08578063484f4ea9146109d95780634f9fe4161461093f57806369a11133146107885780637f6f2178146105f65780638b985795146105c75780638dd950021461059857806393ae88091461032d578063b4f69a2f14610277578063c45a01551461024e578063c54e44eb1461021f578063d29eedc614610113578063e08836dd146100e45763f887ea40146100b657600080fd5b346100df5760003660031901126100df576000546040516001600160a01b039091168152602090f35b600080fd5b346100df5760003660031901126100df5760206040517310ed43c718714eb63d5aa57b78b54704e256024e8152f35b346100df5760803660031901126100df576101c76000610131610a9e565b610139610ab4565b610141610ae0565b9060405192610151608085610af6565b60038452606036602086013761016684610b2e565b6001600160a01b03909116905261017c83610b51565b6001600160a01b03909116905261019282610b61565b6001600160a01b039182169052825460405163d06ca61f60e01b81529485939190921691839182919060048035908401610c34565b03915afa908115610213576020916101e7916000916101f0575b50610b61565b51604051908152f35b61020d91503d806000833e6102058183610af6565b810190610b71565b836101e1565b6040513d6000823e3d90fd5b346100df5760003660031901126100df5760206040517355d398326f99059ff775485246999027b31979558152f35b346100df5760003660031901126100df576001546040516001600160a01b039091168152602090f35b346100df5760403660031901126100df576102d86020610295610aca565b61029d610a9e565b60015460405163e6a4390560e01b81526001600160a01b03938416600482015291831660248301529093849290911690829081906044820190565b03915afa801561021357602091600091610300575b506040516001600160a01b039091168152f35b6103209150823d8411610326575b6103188183610af6565b810190610c4e565b826102ed565b503d61030e565b346100df5760803660031901126100df57600435610349610ab4565b90610352610ae0565b6040516323b872dd60e01b81523360048201523060248201526044810183905290926001600160a01b0316906020816064816000865af190811561021357600091610579575b50156105425760405163095ea7b360e01b81527310ed43c718714eb63d5aa57b78b54704e256024e6004820152602481018390526020816044816000865af1801561021357610515575b50606092604051916103f48584610af6565b60028352601f1985013660208501378061040d84610b2e565b5261041783610b51565b9160018060a01b031680925260018060a01b036000541661012c4201938442116104ff5760009161047591836040518098819582946338ed173960e01b84528c6004850152602435602485015260a0604485015260a4840190610bf7565b90336064840152608483015203925af1918215610213576020956104c56080947fdd36740e2a012d93061a0d99eaa9107860955de4e90027d3cf465a055026c407966000916104e4575b50610b51565b51958692604051948552888501526040840152820152a1604051908152f35b6104f991503d806000833e6102058183610af6565b896104bf565b634e487b7160e01b600052601160045260246000fd5b6105369060203d60201161053b575b61052e8183610af6565b810190610cf9565b6103e2565b503d610524565b60405162461bcd60e51b815260206004820152600f60248201526e151c985b9cd9995c8819985a5b1959608a1b6044820152606490fd5b610592915060203d60201161053b5761052e8183610af6565b84610398565b346100df5760003660031901126100df57602060405173bb4cdb9cbd36b01bd1cbaebf2de08d9173bc095c8152f35b346100df5760003660031901126100df57602060405173ca143ce32fe78f1f7019d7d551a6402fc5350c738152f35b346100df5760403660031901126100df576106146020610295610aca565b03915afa90811561021357600091610769575b506001600160a01b031661063c811515610c6d565b604051630240bc6b60e21b8152606081600481855afa801561021357600091600091610737575b50604051630dfe168160e01b815292602084600481845afa90811561021357600494600092610715575b506020906040519586809263d21220a760e01b82525afa918215610213576080946000936106eb575b50604080516001600160701b0395861681529190941660208201526001600160a01b0391821693810193909352166060820152f35b6001600160701b0391935061070e9060203d602011610326576103188183610af6565b92906106b6565b602091925061073090823d8411610326576103188183610af6565b919061068d565b905061075b915060603d606011610762575b6107538183610af6565b810190610cc3565b5083610663565b503d610749565b610782915060203d602011610326576103188183610af6565b81610627565b346100df5760003660031901126100df5760015460405163e6a4390560e01b815273bb4cdb9cbd36b01bd1cbaebf2de08d9173bc095c600482015273e9e7cea3dedca5984780bafc599bd69add087d566024820152600091602090829060449082906001600160a01b03165afa908115610934578291610915575b506001600160a01b0316610818811515610c6d565b604051630240bc6b60e21b8152606081600481855afa90811561090a57839084926108e7575b50604051630dfe168160e01b8152602081600481875afa9081156108dc579073bb4cdb9cbd36b01bd1cbaebf2de08d9173bc095c91606096916108bd575b506001600160a01b0316036108ab576001600160701b0391821691165b60405192835260208301526040820152f35b6001600160701b039081169116610899565b6108d6915060203d602011610326576103188183610af6565b8661087c565b6040513d87823e3d90fd5b9050610902915060603d606011610762576107538183610af6565b50908461083e565b6040513d85823e3d90fd5b61092e915060203d602011610326576103188183610af6565b82610803565b6040513d84823e3d90fd5b346100df5760603660031901126100df5761099f600061095d610a9e565b610965610ab4565b60405191610974606084610af6565b60028352604036602085013761098983610b2e565b6001600160a01b03909116905261019282610b51565b03915afa908115610213576020916101e7916000916109be5750610b51565b6109d391503d806000833e6102058183610af6565b836104bf565b346100df5760003660031901126100df57602060405173e9e7cea3dedca5984780bafc599bd69add087d568152f35b346100df5760203660031901126100df5761099f6000604051610a2c606082610af6565b60028152604036602083013773bb4cdb9cbd36b01bd1cbaebf2de08d9173bc095c610a5682610b2e565b5273e9e7cea3dedca5984780bafc599bd69add087d56610a7582610b51565b5260018060a01b03825416604051808095819463d06ca61f60e01b835260043560048401610c34565b602435906001600160a01b03821682036100df57565b604435906001600160a01b03821682036100df57565b600435906001600160a01b03821682036100df57565b606435906001600160a01b03821682036100df57565b90601f8019910116810190811067ffffffffffffffff821117610b1857604052565b634e487b7160e01b600052604160045260246000fd5b805115610b3b5760200190565b634e487b7160e01b600052603260045260246000fd5b805160011015610b3b5760400190565b805160021015610b3b5760600190565b6020818303126100df5780519067ffffffffffffffff82116100df57019080601f830112156100df5781519167ffffffffffffffff8311610b18578260051b906020820193610bc36040519586610af6565b84526020808501928201019283116100df57602001905b828210610be75750505090565b8151815260209182019101610bda565b906020808351928381520192019060005b818110610c155750505090565b82516001600160a01b0316845260209384019390920191600101610c08565b604090610c4b939281528160208201520190610bf7565b90565b908160209103126100df57516001600160a01b03811681036100df5790565b15610c7457565b60405162461bcd60e51b815260206004820152601360248201527214185a5c88191bd95cc81b9bdd08195e1a5cdd606a1b6044820152606490fd5b51906001600160701b03821682036100df57565b908160609103126100df57610cd781610caf565b916040610ce660208401610caf565b92015163ffffffff811681036100df5790565b908160209103126100df575180151581036100df579056fea26469706673582212207123b1e62edc5eb827957fe2037ffaad074e05a4d6fbc07894a5e1c2d6fbf4e664736f6c634300081c0033","opcodes":"PUSH1 0x80 DUP1 PUSH1 0x40 MSTORE CALLVALUE PUSH1 0x5D JUMPI PUSH1 0x0 DUP1 SLOAD PUSH1 0x1 PUSH1 0x1 PUSH1 0xA0 SHL SUB NOT SWAP1 DUP2 AND PUSH20 0x10ED43C718714EB63D5AA57B78B54704E256024E OR SWAP1 SWAP2 SSTORE PUSH1 0x1 DUP1 SLOAD SWAP1 SWAP2 AND PUSH20 0xCA143CE32FE78F1F7019D7D551A6402FC5350C73 OR SWAP1 SSTORE PUSH2 0xD47 SWAP1 DUP2 PUSH2 0x63 DUP3 CODECOPY RETURN JUMPDEST PUSH1 0x0 DUP1 REVERT INVALID PUSH1 0x80 PUSH1 0x40 MSTORE PUSH1 0x4 CALLDATASIZE LT ISZERO PUSH2 0x12 JUMPI PUSH1 0x0 DUP1 REVERT JUMPDEST PUSH1 0x0 CALLDATALOAD PUSH1 0xE0 SHR DUP1 PUSH4 0x1AF92BCB EQ PUSH2 0xA08 JUMPI DUP1 PUSH4 0x484F4EA9 EQ PUSH2 0x9D9 JUMPI DUP1 PUSH4 0x4F9FE416 EQ PUSH2 0x93F JUMPI DUP1 PUSH4 0x69A11133 EQ PUSH2 0x788 JUMPI DUP1 PUSH4 0x7F6F2178 EQ PUSH2 0x5F6 JUMPI DUP1 PUSH4 0x8B985795 EQ PUSH2 0x5C7 JUMPI DUP1 PUSH4 0x8DD95002 EQ PUSH2 0x598 JUMPI DUP1 PUSH4 0x93AE8809 EQ PUSH2 0x32D JUMPI DUP1 PUSH4 0xB4F69A2F EQ PUSH2 0x277 JUMPI DUP1 PUSH4 0xC45A0155 EQ PUSH2 0x24E JUMPI DUP1 PUSH4 0xC54E44EB EQ PUSH2 0x21F JUMPI DUP1 PUSH4 0xD29EEDC6 EQ PUSH2 0x113 JUMPI DUP1 PUSH4 0xE08836DD EQ PUSH2 0xE4 JUMPI PUSH4 0xF887EA40 EQ PUSH2 0xB6 JUMPI PUSH1 0x0 DUP1 REVERT JUMPDEST CALLVALUE PUSH2 0xDF JUMPI PUSH1 0x0 CALLDATASIZE PUSH1 0x3 NOT ADD SLT PUSH2 0xDF JUMPI PUSH1 0x0 SLOAD PUSH1 0x40 MLOAD PUSH1 0x1 PUSH1 0x1 PUSH1 0xA0 SHL SUB SWAP1 SWAP2 AND DUP2 MSTORE PUSH1 0x20 SWAP1 RETURN JUMPDEST PUSH1 0x0 DUP1 REVERT JUMPDEST CALLVALUE PUSH2 0xDF JUMPI PUSH1 0x0 CALLDATASIZE PUSH1 0x3 NOT ADD SLT PUSH2 0xDF JUMPI PUSH1 0x20 PUSH1 0x40 MLOAD PUSH20 0x10ED43C718714EB63D5AA57B78B54704E256024E DUP2 MSTORE RETURN JUMPDEST CALLVALUE PUSH2 0xDF JUMPI PUSH1 0x80 CALLDATASIZE PUSH1 0x3 NOT ADD SLT PUSH2 0xDF JUMPI PUSH2 0x1C7 PUSH1 0x0 PUSH2 0x131 PUSH2 0xA9E JUMP JUMPDEST PUSH2 0x139 PUSH2 0xAB4 JUMP JUMPDEST PUSH2 0x141 PUSH2 0xAE0 JUMP JUMPDEST SWAP1 PUSH1 0x40 MLOAD SWAP3 PUSH2 0x151 PUSH1 0x80 DUP6 PUSH2 0xAF6 JUMP JUMPDEST PUSH1 0x3 DUP5 MSTORE PUSH1 0x60 CALLDATASIZE PUSH1 0x20 DUP7 ADD CALLDATACOPY PUSH2 0x166 DUP5 PUSH2 0xB2E JUMP JUMPDEST PUSH1 0x1 PUSH1 0x1 PUSH1 0xA0 SHL SUB SWAP1 SWAP2 AND SWAP1 MSTORE PUSH2 0x17C DUP4 PUSH2 0xB51 JUMP JUMPDEST PUSH1 0x1 PUSH1 0x1 PUSH1 0xA0 SHL SUB SWAP1 SWAP2 AND SWAP1 MSTORE PUSH2 0x192 DUP3 PUSH2 0xB61 JUMP JUMPDEST PUSH1 0x1 PUSH1 0x1 PUSH1 0xA0 SHL SUB SWAP2 DUP3 AND SWAP1 MSTORE DUP3 SLOAD PUSH1 0x40 MLOAD PUSH4 0xD06CA61F PUSH1 0xE0 SHL DUP2 MSTORE SWAP5 DUP6 SWAP4 SWAP2 SWAP1 SWAP3 AND SWAP2 DUP4 SWAP2 DUP3 SWAP2 SWAP1 PUSH1 0x4 DUP1 CALLDATALOAD SWAP1 DUP5 ADD PUSH2 0xC34 JUMP JUMPDEST SUB SWAP2 GAS STATICCALL SWAP1 DUP2 ISZERO PUSH2 0x213 JUMPI PUSH1 0x20 SWAP2 PUSH2 0x1E7 SWAP2 PUSH1 0x0 SWAP2 PUSH2 0x1F0 JUMPI JUMPDEST POP PUSH2 0xB61 JUMP JUMPDEST MLOAD PUSH1 0x40 MLOAD SWAP1 DUP2 MSTORE RETURN JUMPDEST PUSH2 0x20D SWAP2 POP RETURNDATASIZE DUP1 PUSH1 0x0 DUP4 RETURNDATACOPY PUSH2 0x205 DUP2 DUP4 PUSH2 0xAF6 JUMP JUMPDEST DUP2 ADD SWAP1 PUSH2 0xB71 JUMP JUMPDEST DUP4 PUSH2 0x1E1 JUMP JUMPDEST PUSH1 0x40 MLOAD RETURNDATASIZE PUSH1 0x0 DUP3 RETURNDATACOPY RETURNDATASIZE SWAP1 REVERT JUMPDEST CALLVALUE PUSH2 0xDF JUMPI PUSH1 0x0 CALLDATASIZE PUSH1 0x3 NOT ADD SLT PUSH2 0xDF JUMPI PUSH1 0x20 PUSH1 0x40 MLOAD PUSH20 0x55D398326F99059FF775485246999027B3197955 DUP2 MSTORE RETURN JUMPDEST CALLVALUE PUSH2 0xDF JUMPI PUSH1 0x0 CALLDATASIZE PUSH1 0x3 NOT ADD SLT PUSH2 0xDF JUMPI PUSH1 0x1 SLOAD PUSH1 0x40 MLOAD PUSH1 0x1 PUSH1 0x1 PUSH1 0xA0 SHL SUB SWAP1 SWAP2 AND DUP2 MSTORE PUSH1 0x20 SWAP1 RETURN JUMPDEST CALLVALUE PUSH2 0xDF JUMPI PUSH1 0x40 CALLDATASIZE PUSH1 0x3 NOT ADD SLT PUSH2 0xDF JUMPI PUSH2 0x2D8 PUSH1 0x20 PUSH2 0x295 PUSH2 0xACA JUMP JUMPDEST PUSH2 0x29D PUSH2 0xA9E JUMP JUMPDEST PUSH1 0x1 SLOAD PUSH1 0x40 MLOAD PUSH4 0xE6A43905 PUSH1 0xE0 SHL DUP2 MSTORE PUSH1 0x1 PUSH1 0x1 PUSH1 0xA0 SHL SUB SWAP4 DUP5 AND PUSH1 0x4 DUP3 ADD MSTORE SWAP2 DUP4 AND PUSH1 0x24 DUP4 ADD MSTORE SWAP1 SWAP4 DUP5 SWAP3 SWAP1 SWAP2 AND SWAP1 DUP3 SWAP1 DUP2 SWAP1 PUSH1 0x44 DUP3 ADD SWAP1 JUMP JUMPDEST SUB SWAP2 GAS STATICCALL DUP1 ISZERO PUSH2 0x213 JUMPI PUSH1 0x20 SWAP2 PUSH1 0x0 SWAP2 PUSH2 0x300 JUMPI JUMPDEST POP PUSH1 0x40 MLOAD PUSH1 0x1 PUSH1 0x1 PUSH1 0xA0 SHL SUB SWAP1 SWAP2 AND DUP2 MSTORE RETURN JUMPDEST PUSH2 0x320 SWAP2 POP DUP3 RETURNDATASIZE DUP5 GT PUSH2 0x326 JUMPI JUMPDEST PUSH2 0x318 DUP2 DUP4 PUSH2 0xAF6 JUMP JUMPDEST DUP2 ADD SWAP1 PUSH2 0xC4E JUMP JUMPDEST DUP3 PUSH2 0x2ED JUMP JUMPDEST POP RETURNDATASIZE PUSH2 0x30E JUMP JUMPDEST CALLVALUE PUSH2 0xDF JUMPI PUSH1 0x80 CALLDATASIZE PUSH1 0x3 NOT ADD SLT PUSH2 0xDF JUMPI PUSH1 0x4 CALLDATALOAD PUSH2 0x349 PUSH2 0xAB4 JUMP JUMPDEST SWAP1 PUSH2 0x352 PUSH2 0xAE0 JUMP JUMPDEST PUSH1 0x40 MLOAD PUSH4 0x23B872DD PUSH1 0xE0 SHL DUP2 MSTORE CALLER PUSH1 0x4 DUP3 ADD MSTORE ADDRESS PUSH1 0x24 DUP3 ADD MSTORE PUSH1 0x44 DUP2 ADD DUP4 SWAP1 MSTORE SWAP1 SWAP3 PUSH1 0x1 PUSH1 0x1 PUSH1 0xA0 SHL SUB AND SWAP1 PUSH1 0x20 DUP2 PUSH1 0x64 DUP2 PUSH1 0x0 DUP7 GAS CALL SWAP1 DUP2 ISZERO PUSH2 0x213 JUMPI PUSH1 0x0 SWAP2 PUSH2 0x579 JUMPI JUMPDEST POP ISZERO PUSH2 0x542 JUMPI PUSH1 0x40 MLOAD PUSH4 0x95EA7B3 PUSH1 0xE0 SHL DUP2 MSTORE PUSH20 0x10ED43C718714EB63D5AA57B78B54704E256024E PUSH1 0x4 DUP3 ADD MSTORE PUSH1 0x24 DUP2 ADD DUP4 SWAP1 MSTORE PUSH1 0x20 DUP2 PUSH1 0x44 DUP2 PUSH1 0x0 DUP7 GAS CALL DUP1 ISZERO PUSH2 0x213 JUMPI PUSH2 0x515 JUMPI JUMPDEST POP PUSH1 0x60 SWAP3 PUSH1 0x40 MLOAD SWAP2 PUSH2 0x3F4 DUP6 DUP5 PUSH2 0xAF6 JUMP JUMPDEST PUSH1 0x2 DUP4 MSTORE PUSH1 0x1F NOT DUP6 ADD CALLDATASIZE PUSH1 0x20 DUP6 ADD CALLDATACOPY DUP1 PUSH2 0x40D DUP5 PUSH2 0xB2E JUMP JUMPDEST MSTORE PUSH2 0x417 DUP4 PUSH2 0xB51 JUMP JUMPDEST SWAP2 PUSH1 0x1 DUP1 PUSH1 0xA0 SHL SUB AND DUP1 SWAP3 MSTORE PUSH1 0x1 DUP1 PUSH1 0xA0 SHL SUB PUSH1 0x0 SLOAD AND PUSH2 0x12C TIMESTAMP ADD SWAP4 DUP5 TIMESTAMP GT PUSH2 0x4FF JUMPI PUSH1 0x0 SWAP2 PUSH2 0x475 SWAP2 DUP4 PUSH1 0x40 MLOAD DUP1 SWAP9 DUP2 SWAP6 DUP3 SWAP5 PUSH4 0x38ED1739 PUSH1 0xE0 SHL DUP5 MSTORE DUP13 PUSH1 0x4 DUP6 ADD MSTORE PUSH1 0x24 CALLDATALOAD PUSH1 0x24 DUP6 ADD MSTORE PUSH1 0xA0 PUSH1 0x44 DUP6 ADD MSTORE PUSH1 0xA4 DUP5 ADD SWAP1 PUSH2 0xBF7 JUMP JUMPDEST SWAP1 CALLER PUSH1 0x64 DUP5 ADD MSTORE PUSH1 0x84 DUP4 ADD MSTORE SUB SWAP3 GAS CALL SWAP2 DUP3 ISZERO PUSH2 0x213 JUMPI PUSH1 0x20 SWAP6 PUSH2 0x4C5 PUSH1 0x80 SWAP5 PUSH32 0xDD36740E2A012D93061A0D99EAA9107860955DE4E90027D3CF465A055026C407 SWAP7 PUSH1 0x0 SWAP2 PUSH2 0x4E4 JUMPI JUMPDEST POP PUSH2 0xB51 JUMP JUMPDEST MLOAD SWAP6 DUP7 SWAP3 PUSH1 0x40 MLOAD SWAP5 DUP6 MSTORE DUP9 DUP6 ADD MSTORE PUSH1 0x40 DUP5 ADD MSTORE DUP3 ADD MSTORE LOG1 PUSH1 0x40 MLOAD SWAP1 DUP2 MSTORE RETURN JUMPDEST PUSH2 0x4F9 SWAP2 POP RETURNDATASIZE DUP1 PUSH1 0x0 DUP4 RETURNDATACOPY PUSH2 0x205 DUP2 DUP4 PUSH2 0xAF6 JUMP JUMPDEST DUP10 PUSH2 0x4BF JUMP JUMPDEST PUSH4 0x4E487B71 PUSH1 0xE0 SHL PUSH1 0x0 MSTORE PUSH1 0x11 PUSH1 0x4 MSTORE PUSH1 0x24 PUSH1 0x0 REVERT JUMPDEST PUSH2 0x536 SWAP1 PUSH1 0x20 RETURNDATASIZE PUSH1 0x20 GT PUSH2 0x53B JUMPI JUMPDEST PUSH2 0x52E DUP2 DUP4 PUSH2 0xAF6 JUMP JUMPDEST DUP2 ADD SWAP1 PUSH2 0xCF9 JUMP JUMPDEST PUSH2 0x3E2 JUMP JUMPDEST POP RETURNDATASIZE PUSH2 0x524 JUMP JUMPDEST PUSH1 0x40 MLOAD PUSH3 0x461BCD PUSH1 0xE5 SHL DUP2 MSTORE PUSH1 0x20 PUSH1 0x4 DUP3 ADD MSTORE PUSH1 0xF PUSH1 0x24 DUP3 ADD MSTORE PUSH15 0x151C985B9CD9995C8819985A5B1959 PUSH1 0x8A SHL PUSH1 0x44 DUP3 ADD MSTORE PUSH1 0x64 SWAP1 REVERT JUMPDEST PUSH2 0x592 SWAP2 POP PUSH1 0x20 RETURNDATASIZE PUSH1 0x20 GT PUSH2 0x53B JUMPI PUSH2 0x52E DUP2 DUP4 PUSH2 0xAF6 JUMP JUMPDEST DUP5 PUSH2 0x398 JUMP JUMPDEST CALLVALUE PUSH2 0xDF JUMPI PUSH1 0x0 CALLDATASIZE PUSH1 0x3 NOT ADD SLT PUSH2 0xDF JUMPI PUSH1 0x20 PUSH1 0x40 MLOAD PUSH20 0xBB4CDB9CBD36B01BD1CBAEBF2DE08D9173BC095C DUP2 MSTORE RETURN JUMPDEST CALLVALUE PUSH2 0xDF JUMPI PUSH1 0x0 CALLDATASIZE PUSH1 0x3 NOT ADD SLT PUSH2 0xDF JUMPI PUSH1 0x20 PUSH1 0x40 MLOAD PUSH20 0xCA143CE32FE78F1F7019D7D551A6402FC5350C73 DUP2 MSTORE RETURN JUMPDEST CALLVALUE PUSH2 0xDF JUMPI PUSH1 0x40 CALLDATASIZE PUSH1 0x3 NOT ADD SLT PUSH2 0xDF JUMPI PUSH2 0x614 PUSH1 0x20 PUSH2 0x295 PUSH2 0xACA JUMP JUMPDEST SUB SWAP2 GAS STATICCALL SWAP1 DUP2 ISZERO PUSH2 0x213 JUMPI PUSH1 0x0 SWAP2 PUSH2 0x769 JUMPI JUMPDEST POP PUSH1 0x1 PUSH1 0x1 PUSH1 0xA0 SHL SUB AND PUSH2 0x63C DUP2 ISZERO ISZERO PUSH2 0xC6D JUMP JUMPDEST PUSH1 0x40 MLOAD PUSH4 0x240BC6B PUSH1 0xE2 SHL DUP2 MSTORE PUSH1 0x60 DUP2 PUSH1 0x4 DUP2 DUP6 GAS STATICCALL DUP1 ISZERO PUSH2 0x213 JUMPI PUSH1 0x0 SWAP2 PUSH1 0x0 SWAP2 PUSH2 0x737 JUMPI JUMPDEST POP PUSH1 0x40 MLOAD PUSH4 0xDFE1681 PUSH1 0xE0 SHL DUP2 MSTORE SWAP3 PUSH1 0x20 DUP5 PUSH1 0x4 DUP2 DUP5 GAS STATICCALL SWAP1 DUP2 ISZERO PUSH2 0x213 JUMPI PUSH1 0x4 SWAP5 PUSH1 0x0 SWAP3 PUSH2 0x715 JUMPI JUMPDEST POP PUSH1 0x20 SWAP1 PUSH1 0x40 MLOAD SWAP6 DUP7 DUP1 SWAP3 PUSH4 0xD21220A7 PUSH1 0xE0 SHL DUP3 MSTORE GAS STATICCALL SWAP2 DUP3 ISZERO PUSH2 0x213 JUMPI PUSH1 0x80 SWAP5 PUSH1 0x0 SWAP4 PUSH2 0x6EB JUMPI JUMPDEST POP PUSH1 0x40 DUP1 MLOAD PUSH1 0x1 PUSH1 0x1 PUSH1 0x70 SHL SUB SWAP6 DUP7 AND DUP2 MSTORE SWAP2 SWAP1 SWAP5 AND PUSH1 0x20 DUP3 ADD MSTORE PUSH1 0x1 PUSH1 0x1 PUSH1 0xA0 SHL SUB SWAP2 DUP3 AND SWAP4 DUP2 ADD SWAP4 SWAP1 SWAP4 MSTORE AND PUSH1 0x60 DUP3 ADD MSTORE RETURN JUMPDEST PUSH1 0x1 PUSH1 0x1 PUSH1 0x70 SHL SUB SWAP2 SWAP4 POP PUSH2 0x70E SWAP1 PUSH1 0x20 RETURNDATASIZE PUSH1 0x20 GT PUSH2 0x326 JUMPI PUSH2 0x318 DUP2 DUP4 PUSH2 0xAF6 JUMP JUMPDEST SWAP3 SWAP1 PUSH2 0x6B6 JUMP JUMPDEST PUSH1 0x20 SWAP2 SWAP3 POP PUSH2 0x730 SWAP1 DUP3 RETURNDATASIZE DUP5 GT PUSH2 0x326 JUMPI PUSH2 0x318 DUP2 DUP4 PUSH2 0xAF6 JUMP JUMPDEST SWAP2 SWAP1 PUSH2 0x68D JUMP JUMPDEST SWAP1 POP PUSH2 0x75B SWAP2 POP PUSH1 0x60 RETURNDATASIZE PUSH1 0x60 GT PUSH2 0x762 JUMPI JUMPDEST PUSH2 0x753 DUP2 DUP4 PUSH2 0xAF6 JUMP JUMPDEST DUP2 ADD SWAP1 PUSH2 0xCC3 JUMP JUMPDEST POP DUP4 PUSH2 0x663 JUMP JUMPDEST POP RETURNDATASIZE PUSH2 0x749 JUMP JUMPDEST PUSH2 0x782 SWAP2 POP PUSH1 0x20 RETURNDATASIZE PUSH1 0x20 GT PUSH2 0x326 JUMPI PUSH2 0x318 DUP2 DUP4 PUSH2 0xAF6 JUMP JUMPDEST DUP2 PUSH2 0x627 JUMP JUMPDEST CALLVALUE PUSH2 0xDF JUMPI PUSH1 0x0 CALLDATASIZE PUSH1 0x3 NOT ADD SLT PUSH2 0xDF JUMPI PUSH1 0x1 SLOAD PUSH1 0x40 MLOAD PUSH4 0xE6A43905 PUSH1 0xE0 SHL DUP2 MSTORE PUSH20 0xBB4CDB9CBD36B01BD1CBAEBF2DE08D9173BC095C PUSH1 0x4 DUP3 ADD MSTORE PUSH20 0xE9E7CEA3DEDCA5984780BAFC599BD69ADD087D56 PUSH1 0x24 DUP3 ADD MSTORE PUSH1 0x0 SWAP2 PUSH1 0x20 SWAP1 DUP3 SWAP1 PUSH1 0x44 SWAP1 DUP3 SWAP1 PUSH1 0x1 PUSH1 0x1 PUSH1 0xA0 SHL SUB AND GAS STATICCALL SWAP1 DUP2 ISZERO PUSH2 0x934 JUMPI DUP3 SWAP2 PUSH2 0x915 JUMPI JUMPDEST POP PUSH1 0x1 PUSH1 0x1 PUSH1 0xA0 SHL SUB AND PUSH2 0x818 DUP2 ISZERO ISZERO PUSH2 0xC6D JUMP JUMPDEST PUSH1 0x40 MLOAD PUSH4 0x240BC6B PUSH1 0xE2 SHL DUP2 MSTORE PUSH1 0x60 DUP2 PUSH1 0x4 DUP2 DUP6 GAS STATICCALL SWAP1 DUP2 ISZERO PUSH2 0x90A JUMPI DUP4 SWAP1 DUP5 SWAP3 PUSH2 0x8E7 JUMPI JUMPDEST POP PUSH1 0x40 MLOAD PUSH4 0xDFE1681 PUSH1 0xE0 SHL DUP2 MSTORE PUSH1 0x20 DUP2 PUSH1 0x4 DUP2 DUP8 GAS STATICCALL SWAP1 DUP2 ISZERO PUSH2 0x8DC JUMPI SWAP1 PUSH20 0xBB4CDB9CBD36B01BD1CBAEBF2DE08D9173BC095C SWAP2 PUSH1 0x60 SWAP7 SWAP2 PUSH2 0x8BD JUMPI JUMPDEST POP PUSH1 0x1 PUSH1 0x1 PUSH1 0xA0 SHL SUB AND SUB PUSH2 0x8AB JUMPI PUSH1 0x1 PUSH1 0x1 PUSH1 0x70 SHL SUB SWAP2 DUP3 AND SWAP2 AND JUMPDEST PUSH1 0x40 MLOAD SWAP3 DUP4 MSTORE PUSH1 0x20 DUP4 ADD MSTORE PUSH1 0x40 DUP3 ADD MSTORE RETURN JUMPDEST PUSH1 0x1 PUSH1 0x1 PUSH1 0x70 SHL SUB SWAP1 DUP2 AND SWAP2 AND PUSH2 0x899 JUMP JUMPDEST PUSH2 0x8D6 SWAP2 POP PUSH1 0x20 RETURNDATASIZE PUSH1 0x20 GT PUSH2 0x326 JUMPI PUSH2 0x318 DUP2 DUP4 PUSH2 0xAF6 JUMP JUMPDEST DUP7 PUSH2 0x87C JUMP JUMPDEST PUSH1 0x40 MLOAD RETURNDATASIZE DUP8 DUP3 RETURNDATACOPY RETURNDATASIZE SWAP1 REVERT JUMPDEST SWAP1 POP PUSH2 0x902 SWAP2 POP PUSH1 0x60 RETURNDATASIZE PUSH1 0x60 GT PUSH2 0x762 JUMPI PUSH2 0x753 DUP2 DUP4 PUSH2 0xAF6 JUMP JUMPDEST POP SWAP1 DUP5 PUSH2 0x83E JUMP JUMPDEST PUSH1 0x40 MLOAD RETURNDATASIZE DUP6 DUP3 RETURNDATACOPY RETURNDATASIZE SWAP1 REVERT JUMPDEST PUSH2 0x92E SWAP2 POP PUSH1 0x20 RETURNDATASIZE PUSH1 0x20 GT PUSH2 0x326 JUMPI PUSH2 0x318 DUP2 DUP4 PUSH2 0xAF6 JUMP JUMPDEST DUP3 PUSH2 0x803 JUMP JUMPDEST PUSH1 0x40 MLOAD RETURNDATASIZE DUP5 DUP3 RETURNDATACOPY RETURNDATASIZE SWAP1 REVERT JUMPDEST CALLVALUE PUSH2 0xDF JUMPI PUSH1 0x60 CALLDATASIZE PUSH1 0x3 NOT ADD SLT PUSH2 0xDF JUMPI PUSH2 0x99F PUSH1 0x0 PUSH2 0x95D PUSH2 0xA9E JUMP JUMPDEST PUSH2 0x965 PUSH2 0xAB4 JUMP JUMPDEST PUSH1 0x40 MLOAD SWAP2 PUSH2 0x974 PUSH1 0x60 DUP5 PUSH2 0xAF6 JUMP JUMPDEST PUSH1 0x2 DUP4 MSTORE PUSH1 0x40 CALLDATASIZE PUSH1 0x20 DUP6 ADD CALLDATACOPY PUSH2 0x989 DUP4 PUSH2 0xB2E JUMP JUMPDEST PUSH1 0x1 PUSH1 0x1 PUSH1 0xA0 SHL SUB SWAP1 SWAP2 AND SWAP1 MSTORE PUSH2 0x192 DUP3 PUSH2 0xB51 JUMP JUMPDEST SUB SWAP2 GAS STATICCALL SWAP1 DUP2 ISZERO PUSH2 0x213 JUMPI PUSH1 0x20 SWAP2 PUSH2 0x1E7 SWAP2 PUSH1 0x0 SWAP2 PUSH2 0x9BE JUMPI POP PUSH2 0xB51 JUMP JUMPDEST PUSH2 0x9D3 SWAP2 POP RETURNDATASIZE DUP1 PUSH1 0x0 DUP4 RETURNDATACOPY PUSH2 0x205 DUP2 DUP4 PUSH2 0xAF6 JUMP JUMPDEST DUP4 PUSH2 0x4BF JUMP JUMPDEST CALLVALUE PUSH2 0xDF JUMPI PUSH1 0x0 CALLDATASIZE PUSH1 0x3 NOT ADD SLT PUSH2 0xDF JUMPI PUSH1 0x20 PUSH1 0x40 MLOAD PUSH20 0xE9E7CEA3DEDCA5984780BAFC599BD69ADD087D56 DUP2 MSTORE RETURN JUMPDEST CALLVALUE PUSH2 0xDF JUMPI PUSH1 0x20 CALLDATASIZE PUSH1 0x3 NOT ADD SLT PUSH2 0xDF JUMPI PUSH2 0x99F PUSH1 0x0 PUSH1 0x40 MLOAD PUSH2 0xA2C PUSH1 0x60 DUP3 PUSH2 0xAF6 JUMP JUMPDEST PUSH1 0x2 DUP2 MSTORE PUSH1 0x40 CALLDATASIZE PUSH1 0x20 DUP4 ADD CALLDATACOPY PUSH20 0xBB4CDB9CBD36B01BD1CBAEBF2DE08D9173BC095C PUSH2 0xA56 DUP3 PUSH2 0xB2E JUMP JUMPDEST MSTORE PUSH20 0xE9E7CEA3DEDCA5984780BAFC599BD69ADD087D56 PUSH2 0xA75 DUP3 PUSH2 0xB51 JUMP JUMPDEST MSTORE PUSH1 0x1 DUP1 PUSH1 0xA0 SHL SUB DUP3 SLOAD AND PUSH1 0x40 MLOAD DUP1 DUP1 SWAP6 DUP2 SWAP5 PUSH4 0xD06CA61F PUSH1 0xE0 SHL DUP4 MSTORE PUSH1 0x4 CALLDATALOAD PUSH1 0x4 DUP5 ADD PUSH2 0xC34 JUMP JUMPDEST PUSH1 0x24 CALLDATALOAD SWAP1 PUSH1 0x1 PUSH1 0x1 PUSH1 0xA0 SHL SUB DUP3 AND DUP3 SUB PUSH2 0xDF JUMPI JUMP JUMPDEST PUSH1 0x44 CALLDATALOAD SWAP1 PUSH1 0x1 PUSH1 0x1 PUSH1 0xA0 SHL SUB DUP3 AND DUP3 SUB PUSH2 0xDF JUMPI JUMP JUMPDEST PUSH1 0x4 CALLDATALOAD SWAP1 PUSH1 0x1 PUSH1 0x1 PUSH1 0xA0 SHL SUB DUP3 AND DUP3 SUB PUSH2 0xDF JUMPI JUMP JUMPDEST PUSH1 0x64 CALLDATALOAD SWAP1 PUSH1 0x1 PUSH1 0x1 PUSH1 0xA0 SHL SUB DUP3 AND DUP3 SUB PUSH2 0xDF JUMPI JUMP JUMPDEST SWAP1 PUSH1 0x1F DUP1 NOT SWAP2 ADD AND DUP2 ADD SWAP1 DUP2 LT PUSH8 0xFFFFFFFFFFFFFFFF DUP3 GT OR PUSH2 0xB18 JUMPI PUSH1 0x40 MSTORE JUMP JUMPDEST PUSH4 0x4E487B71 PUSH1 0xE0 SHL PUSH1 0x0 MSTORE PUSH1 0x41 PUSH1 0x4 MSTORE PUSH1 0x24 PUSH1 0x0 REVERT JUMPDEST DUP1 MLOAD ISZERO PUSH2 0xB3B JUMPI PUSH1 0x20 ADD SWAP1 JUMP JUMPDEST PUSH4 0x4E487B71 PUSH1 0xE0 SHL PUSH1 0x0 MSTORE PUSH1 0x32 PUSH1 0x4 MSTORE PUSH1 0x24 PUSH1 0x0 REVERT JUMPDEST DUP1 MLOAD PUSH1 0x1 LT ISZERO PUSH2 0xB3B JUMPI PUSH1 0x40 ADD SWAP1 JUMP JUMPDEST DUP1 MLOAD PUSH1 0x2 LT ISZERO PUSH2 0xB3B JUMPI PUSH1 0x60 ADD SWAP1 JUMP JUMPDEST PUSH1 0x20 DUP2 DUP4 SUB SLT PUSH2 0xDF JUMPI DUP1 MLOAD SWAP1 PUSH8 0xFFFFFFFFFFFFFFFF DUP3 GT PUSH2 0xDF JUMPI ADD SWAP1 DUP1 PUSH1 0x1F DUP4 ADD SLT ISZERO PUSH2 0xDF JUMPI DUP2 MLOAD SWAP2 PUSH8 0xFFFFFFFFFFFFFFFF DUP4 GT PUSH2 0xB18 JUMPI DUP3 PUSH1 0x5 SHL SWAP1 PUSH1 0x20 DUP3 ADD SWAP4 PUSH2 0xBC3 PUSH1 0x40 MLOAD SWAP6 DUP7 PUSH2 0xAF6 JUMP JUMPDEST DUP5 MSTORE PUSH1 0x20 DUP1 DUP6 ADD SWAP3 DUP3 ADD ADD SWAP3 DUP4 GT PUSH2 0xDF JUMPI PUSH1 0x20 ADD SWAP1 JUMPDEST DUP3 DUP3 LT PUSH2 0xBE7 JUMPI POP POP POP SWAP1 JUMP JUMPDEST DUP2 MLOAD DUP2 MSTORE PUSH1 0x20 SWAP2 DUP3 ADD SWAP2 ADD PUSH2 0xBDA JUMP JUMPDEST SWAP1 PUSH1 0x20 DUP1 DUP4 MLOAD SWAP3 DUP4 DUP2 MSTORE ADD SWAP3 ADD SWAP1 PUSH1 0x0 JUMPDEST DUP2 DUP2 LT PUSH2 0xC15 JUMPI POP POP POP SWAP1 JUMP JUMPDEST DUP3 MLOAD PUSH1 0x1 PUSH1 0x1 PUSH1 0xA0 SHL SUB AND DUP5 MSTORE PUSH1 0x20 SWAP4 DUP5 ADD SWAP4 SWAP1 SWAP3 ADD SWAP2 PUSH1 0x1 ADD PUSH2 0xC08 JUMP JUMPDEST PUSH1 0x40 SWAP1 PUSH2 0xC4B SWAP4 SWAP3 DUP2 MSTORE DUP2 PUSH1 0x20 DUP3 ADD MSTORE ADD SWAP1 PUSH2 0xBF7 JUMP JUMPDEST SWAP1 JUMP JUMPDEST SWAP1 DUP2 PUSH1 0x20 SWAP2 SUB SLT PUSH2 0xDF JUMPI MLOAD PUSH1 0x1 PUSH1 0x1 PUSH1 0xA0 SHL SUB DUP2 AND DUP2 SUB PUSH2 0xDF JUMPI SWAP1 JUMP JUMPDEST ISZERO PUSH2 0xC74 JUMPI JUMP JUMPDEST PUSH1 0x40 MLOAD PUSH3 0x461BCD PUSH1 0xE5 SHL DUP2 MSTORE PUSH1 0x20 PUSH1 0x4 DUP3 ADD MSTORE PUSH1 0x13 PUSH1 0x24 DUP3 ADD MSTORE PUSH19 0x14185A5C88191BD95CC81B9BDD08195E1A5CDD PUSH1 0x6A SHL PUSH1 0x44 DUP3 ADD MSTORE PUSH1 0x64 SWAP1 REVERT JUMPDEST MLOAD SWAP1 PUSH1 0x1 PUSH1 0x1 PUSH1 0x70 SHL SUB DUP3 AND DUP3 SUB PUSH2 0xDF JUMPI JUMP JUMPDEST SWAP1 DUP2 PUSH1 0x60 SWAP2 SUB SLT PUSH2 0xDF JUMPI PUSH2 0xCD7 DUP2 PUSH2 0xCAF JUMP JUMPDEST SWAP2 PUSH1 0x40 PUSH2 0xCE6 PUSH1 0x20 DUP5 ADD PUSH2 0xCAF JUMP JUMPDEST SWAP3 ADD MLOAD PUSH4 0xFFFFFFFF DUP2 AND DUP2 SUB PUSH2 0xDF JUMPI SWAP1 JUMP JUMPDEST SWAP1 DUP2 PUSH1 0x20 SWAP2 SUB SLT PUSH2 0xDF JUMPI MLOAD DUP1 ISZERO ISZERO DUP2 SUB PUSH2 0xDF JUMPI SWAP1 JUMP INVALID LOG2 PUSH5 0x6970667358 0x22 SLT KECCAK256 PUSH18 0x23B1E62EDC5EB827957FE2037FFAAD074E05 LOG4 0xD6 0xFB 0xC0 PUSH25 0x94A5E1C2D6FBF4E664736F6C634300081C0033000000000000 "},"methodIdentifiers":{"BUSD()":"484f4ea9","PANCAKE_FACTORY()":"8b985795","PANCAKE_ROUTER()":"e08836dd","USDT()":"c54e44eb","WBNB()":"8dd95002","factory()":"c45a0155","getBNBPrice(uint256)":"1af92bcb","getPairAddress(address,address)":"b4f69a2f","getPairReserves(address,address)":"7f6f2178","getPrice(uint256,address,address)":"4f9fe416","getPriceWithHop(uint256,address,address,address)":"d29eedc6","getWBNBBUSDPairInfo()":"69a11133","router()":"f887ea40","swap(uint256,uint256,address,address)":"93ae8809"}}}}}