{"contracts/SYI/mainnet/SYI.sol":{"SYI":{"abi":[{"inputs":[{"internalType":"address","name":"_usdt","type":"address"},{"internalType":"address","name":"_router","type":"address"},{"internalType":"address","name":"_staking","type":"address"},{"internalType":"address","name":"_marketingAddress","type":"address"}],"stateMutability":"nonpayable","type":"constructor"},{"inputs":[],"name":"AlreadyInitialized","type":"error"},{"inputs":[],"name":"AlreadySet","type":"error"},{"inputs":[],"name":"Blacklisted","type":"error"},{"inputs":[],"name":"DelayedBuyPeriodNotMet","type":"error"},{"inputs":[{"internalType":"address","name":"spender","type":"address"},{"internalType":"uint256","name":"allowance","type":"uint256"},{"internalType":"uint256","name":"needed","type":"uint256"}],"name":"ERC20InsufficientAllowance","type":"error"},{"inputs":[{"internalType":"address","name":"sender","type":"address"},{"internalType":"uint256","name":"balance","type":"uint256"},{"internalType":"uint256","name":"needed","type":"uint256"}],"name":"ERC20InsufficientBalance","type":"error"},{"inputs":[{"internalType":"address","name":"approver","type":"address"}],"name":"ERC20InvalidApprover","type":"error"},{"inputs":[{"internalType":"address","name":"receiver","type":"address"}],"name":"ERC20InvalidReceiver","type":"error"},{"inputs":[{"internalType":"address","name":"sender","type":"address"}],"name":"ERC20InvalidSender","type":"error"},{"inputs":[{"internalType":"address","name":"spender","type":"address"}],"name":"ERC20InvalidSpender","type":"error"},{"inputs":[],"name":"InColdPeriod","type":"error"},{"inputs":[],"name":"InsufficientBalance","type":"error"},{"inputs":[],"name":"NotAllowedBuy","type":"error"},{"inputs":[{"internalType":"address","name":"owner","type":"address"}],"name":"OwnableInvalidOwner","type":"error"},{"inputs":[{"internalType":"address","name":"account","type":"address"}],"name":"OwnableUnauthorizedAccount","type":"error"},{"inputs":[],"name":"ZeroAddress","type":"error"},{"anonymous":false,"inputs":[{"indexed":true,"internalType":"address","name":"owner","type":"address"},{"indexed":true,"internalType":"address","name":"spender","type":"address"},{"indexed":false,"internalType":"uint256","name":"value","type":"uint256"}],"name":"Approval","type":"event"},{"anonymous":false,"inputs":[{"indexed":false,"internalType":"uint256","name":"marketingFee","type":"uint256"},{"indexed":false,"internalType":"uint256","name":"lpFee","type":"uint256"},{"indexed":false,"internalType":"string","name":"trigger","type":"string"}],"name":"AutoSwapTriggered","type":"event"},{"anonymous":false,"inputs":[{"indexed":false,"internalType":"bool","name":"enabled","type":"bool"}],"name":"DelayedBuyEnabled","type":"event"},{"anonymous":false,"inputs":[{"indexed":false,"internalType":"uint256","name":"newPeriod","type":"uint256"}],"name":"DelayedBuyPeriodUpdated","type":"event"},{"anonymous":false,"inputs":[{"indexed":true,"internalType":"address","name":"user","type":"address"},{"indexed":false,"internalType":"uint256","name":"amount","type":"uint256"},{"indexed":true,"internalType":"string","name":"category","type":"string"},{"indexed":true,"internalType":"address","name":"recipient","type":"address"}],"name":"FeeCollected","type":"event"},{"anonymous":false,"inputs":[{"indexed":false,"internalType":"uint256","name":"totalFees","type":"uint256"},{"indexed":false,"internalType":"string","name":"reason","type":"string"},{"indexed":false,"internalType":"uint256","name":"timestamp","type":"uint256"}],"name":"FeeProcessingSkipped","type":"event"},{"anonymous":false,"inputs":[{"indexed":false,"internalType":"uint256","name":"totalFees","type":"uint256"},{"indexed":true,"internalType":"address","name":"triggeredBy","type":"address"},{"indexed":false,"internalType":"string","name":"triggerType","type":"string"},{"indexed":false,"internalType":"uint256","name":"timestamp","type":"uint256"}],"name":"FeeProcessingTriggered","type":"event"},{"anonymous":false,"inputs":[{"indexed":false,"internalType":"string","name":"feeType","type":"string"},{"indexed":false,"internalType":"uint256","name":"amount","type":"uint256"},{"indexed":false,"internalType":"uint256","name":"totalAccumulated","type":"uint256"}],"name":"FeesAccumulated","type":"event"},{"anonymous":false,"inputs":[{"indexed":true,"internalType":"uint256","name":"timestamp","type":"uint256"},{"indexed":true,"internalType":"string","name":"processType","type":"string"},{"indexed":false,"internalType":"uint256","name":"totalFeesXF","type":"uint256"},{"indexed":false,"internalType":"uint256","name":"totalFeesUSDT","type":"uint256"},{"indexed":false,"internalType":"uint256","name":"lpAmount","type":"uint256"},{"indexed":false,"internalType":"uint256","name":"marketingAmount","type":"uint256"},{"indexed":false,"internalType":"uint256","name":"burnAmount","type":"uint256"},{"indexed":false,"internalType":"address","name":"lpRecipient","type":"address"},{"indexed":false,"internalType":"address","name":"marketingRecipient","type":"address"}],"name":"FeesProcessed","type":"event"},{"anonymous":false,"inputs":[{"indexed":false,"internalType":"uint256","name":"expectedAmount","type":"uint256"},{"indexed":false,"internalType":"uint256","name":"actualAmount","type":"uint256"},{"indexed":false,"internalType":"uint256","name":"timestamp","type":"uint256"}],"name":"FundRelayTransferFailed","type":"event"},{"anonymous":false,"inputs":[{"indexed":true,"internalType":"address","name":"user","type":"address"},{"indexed":true,"internalType":"uint256","name":"timestamp","type":"uint256"},{"indexed":false,"internalType":"uint256","name":"previousInvestment","type":"uint256"},{"indexed":false,"internalType":"uint256","name":"newInvestment","type":"uint256"},{"indexed":false,"internalType":"uint256","name":"changeAmount","type":"uint256"},{"indexed":false,"internalType":"string","name":"changeType","type":"string"}],"name":"InvestmentUpdated","type":"event"},{"anonymous":false,"inputs":[{"indexed":true,"internalType":"uint256","name":"timestamp","type":"uint256"},{"indexed":false,"internalType":"uint256","name":"regularFeesXF","type":"uint256"},{"indexed":false,"internalType":"uint256","name":"regularFeesUSDT","type":"uint256"},{"indexed":false,"internalType":"address","name":"liquidityStakingContract","type":"address"},{"indexed":false,"internalType":"string","name":"source","type":"string"}],"name":"LPDistribution","type":"event"},{"anonymous":false,"inputs":[{"indexed":false,"internalType":"uint256","name":"amount","type":"uint256"}],"name":"LPRewardDeposited","type":"event"},{"anonymous":false,"inputs":[{"indexed":false,"internalType":"uint256","name":"tokenAmount","type":"uint256"},{"indexed":false,"internalType":"uint256","name":"usdtAmount","type":"uint256"}],"name":"LiquidityAdded","type":"event"},{"anonymous":false,"inputs":[{"indexed":true,"internalType":"address","name":"from","type":"address"},{"indexed":true,"internalType":"address","name":"to","type":"address"},{"indexed":false,"internalType":"uint256","name":"feeAmount","type":"uint256"},{"indexed":false,"internalType":"uint256","name":"netAmount","type":"uint256"},{"indexed":false,"internalType":"string","name":"operationType","type":"string"}],"name":"LiquidityHandleFeeCollected","type":"event"},{"anonymous":false,"inputs":[{"indexed":true,"internalType":"address","name":"oldAddress","type":"address"},{"indexed":true,"internalType":"address","name":"newAddress","type":"address"}],"name":"MarketingAddressUpdated","type":"event"},{"anonymous":false,"inputs":[{"indexed":false,"internalType":"uint256","name":"timestamp","type":"uint256"},{"indexed":false,"internalType":"uint256","name":"tokenAmount","type":"uint256"},{"indexed":false,"internalType":"uint256","name":"usdtAmount","type":"uint256"},{"indexed":false,"internalType":"uint256","name":"rewardIndex","type":"uint256"},{"indexed":true,"internalType":"address","name":"recipient","type":"address"},{"indexed":false,"internalType":"string","name":"distributionType","type":"string"}],"name":"MarketingDistribution","type":"event"},{"anonymous":false,"inputs":[{"indexed":true,"internalType":"address","name":"seller","type":"address"},{"indexed":true,"internalType":"uint256","name":"timestamp","type":"uint256"},{"indexed":false,"internalType":"uint256","name":"feeAmountXF","type":"uint256"},{"indexed":false,"internalType":"uint256","name":"feeAmountUSDT","type":"uint256"},{"indexed":false,"internalType":"uint256","name":"saleValueUSDT","type":"uint256"},{"indexed":false,"internalType":"uint256","name":"userInvestmentUSDT","type":"uint256"}],"name":"NoProfitFeeCollected","type":"event"},{"anonymous":false,"inputs":[{"indexed":true,"internalType":"address","name":"previousOwner","type":"address"},{"indexed":true,"internalType":"address","name":"newOwner","type":"address"}],"name":"OwnershipTransferred","type":"event"},{"anonymous":false,"inputs":[{"indexed":false,"internalType":"uint256","name":"newDuration","type":"uint256"}],"name":"PresaleDurationUpdated","type":"event"},{"anonymous":false,"inputs":[{"indexed":false,"internalType":"bool","name":"active","type":"bool"}],"name":"PresaleStatusUpdated","type":"event"},{"anonymous":false,"inputs":[{"indexed":true,"internalType":"address","name":"seller","type":"address"},{"indexed":true,"internalType":"uint256","name":"timestamp","type":"uint256"},{"indexed":false,"internalType":"uint256","name":"originalXFAmount","type":"uint256"},{"indexed":false,"internalType":"uint256","name":"tradingFeeXF","type":"uint256"},{"indexed":false,"internalType":"uint256","name":"marketingFeeXF","type":"uint256"},{"indexed":false,"internalType":"uint256","name":"lpFeeXF","type":"uint256"},{"indexed":false,"internalType":"uint256","name":"netXFAfterTradingFees","type":"uint256"},{"indexed":false,"internalType":"uint256","name":"estimatedUSDTFromSale","type":"uint256"},{"indexed":false,"internalType":"uint256","name":"userHistoricalInvestment","type":"uint256"},{"indexed":false,"internalType":"uint256","name":"totalProfitAmount","type":"uint256"},{"indexed":false,"internalType":"uint256","name":"profitTaxUSDT","type":"uint256"},{"indexed":false,"internalType":"uint256","name":"noProfitFeeUSDT","type":"uint256"},{"indexed":false,"internalType":"uint256","name":"profitTaxToMarketing","type":"uint256"},{"indexed":false,"internalType":"uint256","name":"profitTaxToReferrer","type":"uint256"},{"indexed":false,"internalType":"uint256","name":"userNetProfitUSDT","type":"uint256"},{"indexed":false,"internalType":"uint256","name":"finalUSDTReceived","type":"uint256"},{"indexed":false,"internalType":"address","name":"referrer","type":"address"}],"name":"SellTransaction","type":"event"},{"anonymous":false,"inputs":[{"indexed":false,"internalType":"string","name":"reason","type":"string"},{"indexed":false,"internalType":"uint256","name":"tokenAmount","type":"uint256"},{"indexed":false,"internalType":"uint256","name":"timestamp","type":"uint256"}],"name":"SwapFailed","type":"event"},{"anonymous":false,"inputs":[{"indexed":false,"internalType":"uint256","name":"amount","type":"uint256"}],"name":"TokensBurned","type":"event"},{"anonymous":false,"inputs":[{"indexed":true,"internalType":"address","name":"user","type":"address"},{"indexed":true,"internalType":"uint256","name":"timestamp","type":"uint256"},{"indexed":true,"internalType":"string","name":"txType","type":"string"},{"indexed":false,"internalType":"uint256","name":"tokenAmount","type":"uint256"},{"indexed":false,"internalType":"uint256","name":"usdtAmount","type":"uint256"},{"indexed":false,"internalType":"uint256","name":"netUserReceived","type":"uint256"},{"indexed":false,"internalType":"uint256","name":"previousInvestment","type":"uint256"},{"indexed":false,"internalType":"uint256","name":"newInvestment","type":"uint256"},{"indexed":false,"internalType":"uint256","name":"burnFee","type":"uint256"},{"indexed":false,"internalType":"uint256","name":"lpFee","type":"uint256"},{"indexed":false,"internalType":"uint256","name":"marketingFee","type":"uint256"},{"indexed":false,"internalType":"uint256","name":"profitAmount","type":"uint256"},{"indexed":false,"internalType":"uint256","name":"profitTax","type":"uint256"},{"indexed":false,"internalType":"address","name":"referrer","type":"address"}],"name":"TransactionExecuted","type":"event"},{"anonymous":false,"inputs":[{"indexed":true,"internalType":"address","name":"from","type":"address"},{"indexed":true,"internalType":"address","name":"to","type":"address"},{"indexed":false,"internalType":"uint256","name":"value","type":"uint256"}],"name":"Transfer","type":"event"},{"anonymous":false,"inputs":[{"indexed":true,"internalType":"address","name":"from","type":"address"},{"indexed":true,"internalType":"address","name":"to","type":"address"},{"indexed":false,"internalType":"uint256","name":"feeAmount","type":"uint256"},{"indexed":false,"internalType":"uint256","name":"netAmount","type":"uint256"},{"indexed":false,"internalType":"string","name":"transferType","type":"string"}],"name":"TransferFeeCollected","type":"event"},{"anonymous":false,"inputs":[{"indexed":true,"internalType":"address","name":"user","type":"address"},{"indexed":true,"internalType":"uint256","name":"timestamp","type":"uint256"},{"indexed":false,"internalType":"string","name":"txType","type":"string"},{"indexed":false,"internalType":"uint256","name":"tokenAmount","type":"uint256"},{"indexed":false,"internalType":"uint256","name":"usdtAmount","type":"uint256"},{"indexed":false,"internalType":"uint256","name":"netReceived","type":"uint256"}],"name":"UserTransaction","type":"event"},{"inputs":[],"name":"DEAD_ADDRESS","outputs":[{"internalType":"address","name":"","type":"address"}],"stateMutability":"view","type":"function"},{"inputs":[],"name":"USDT","outputs":[{"internalType":"address","name":"","type":"address"}],"stateMutability":"view","type":"function"},{"inputs":[{"internalType":"address","name":"owner","type":"address"},{"internalType":"address","name":"spender","type":"address"}],"name":"allowance","outputs":[{"internalType":"uint256","name":"","type":"uint256"}],"stateMutability":"view","type":"function"},{"inputs":[],"name":"amountLPFee","outputs":[{"internalType":"uint256","name":"","type":"uint256"}],"stateMutability":"view","type":"function"},{"inputs":[],"name":"amountMarketingFee","outputs":[{"internalType":"uint256","name":"","type":"uint256"}],"stateMutability":"view","type":"function"},{"inputs":[{"internalType":"address","name":"spender","type":"address"},{"internalType":"uint256","name":"value","type":"uint256"}],"name":"approve","outputs":[{"internalType":"bool","name":"","type":"bool"}],"stateMutability":"nonpayable","type":"function"},{"inputs":[{"internalType":"address","name":"account","type":"address"}],"name":"balanceOf","outputs":[{"internalType":"uint256","name":"","type":"uint256"}],"stateMutability":"view","type":"function"},{"inputs":[{"internalType":"address","name":"","type":"address"}],"name":"blacklisted","outputs":[{"internalType":"bool","name":"","type":"bool"}],"stateMutability":"view","type":"function"},{"inputs":[],"name":"coldTime","outputs":[{"internalType":"uint256","name":"","type":"uint256"}],"stateMutability":"view","type":"function"},{"inputs":[],"name":"contractDeployTime","outputs":[{"internalType":"uint256","name":"","type":"uint256"}],"stateMutability":"view","type":"function"},{"inputs":[],"name":"decimals","outputs":[{"internalType":"uint8","name":"","type":"uint8"}],"stateMutability":"view","type":"function"},{"inputs":[],"name":"delayedBuyEnabled","outputs":[{"internalType":"bool","name":"","type":"bool"}],"stateMutability":"view","type":"function"},{"inputs":[],"name":"delayedBuyEnabledTime","outputs":[{"internalType":"uint256","name":"","type":"uint256"}],"stateMutability":"view","type":"function"},{"inputs":[{"internalType":"address","name":"","type":"address"}],"name":"feeWhitelisted","outputs":[{"internalType":"bool","name":"","type":"bool"}],"stateMutability":"view","type":"function"},{"inputs":[],"name":"fundRelay","outputs":[{"internalType":"contract FundRelay","name":"","type":"address"}],"stateMutability":"view","type":"function"},{"inputs":[],"name":"getAccumulatedFees","outputs":[{"internalType":"uint256","name":"marketing","type":"uint256"},{"internalType":"uint256","name":"lp","type":"uint256"},{"internalType":"uint256","name":"threshold","type":"uint256"}],"stateMutability":"view","type":"function"},{"inputs":[{"internalType":"uint256","name":"amountOut","type":"uint256"},{"internalType":"uint256","name":"reserveIn","type":"uint256"},{"internalType":"uint256","name":"reserveOut","type":"uint256"}],"name":"getAmountIn","outputs":[{"internalType":"uint256","name":"amountIn","type":"uint256"}],"stateMutability":"pure","type":"function"},{"inputs":[{"internalType":"uint256","name":"amountIn","type":"uint256"},{"internalType":"uint256","name":"reserveIn","type":"uint256"},{"internalType":"uint256","name":"reserveOut","type":"uint256"}],"name":"getAmountOut","outputs":[{"internalType":"uint256","name":"amountOut","type":"uint256"}],"stateMutability":"pure","type":"function"},{"inputs":[],"name":"getDelayedBuyInfo","outputs":[{"internalType":"bool","name":"enabled","type":"bool"},{"internalType":"bool","name":"testModeActive","type":"bool"},{"internalType":"uint256","name":"enabledTime","type":"uint256"},{"internalType":"uint256","name":"requiredDelay","type":"uint256"},{"internalType":"uint256","name":"remainingDelay","type":"uint256"}],"stateMutability":"view","type":"function"},{"inputs":[],"name":"getDelayedSwapStatus","outputs":[{"internalType":"bool","name":"pending","type":"bool"},{"internalType":"uint256","name":"totalFees","type":"uint256"}],"stateMutability":"view","type":"function"},{"inputs":[],"name":"getFundRelay","outputs":[{"internalType":"address","name":"","type":"address"}],"stateMutability":"view","type":"function"},{"inputs":[],"name":"getLiquidityStaking","outputs":[{"internalType":"address","name":"","type":"address"}],"stateMutability":"view","type":"function"},{"inputs":[],"name":"getPresaleStatus","outputs":[{"internalType":"bool","name":"active","type":"bool"},{"internalType":"uint256","name":"startTime","type":"uint256"},{"internalType":"uint256","name":"duration","type":"uint256"},{"internalType":"uint256","name":"remainingTime","type":"uint256"},{"internalType":"bool","name":"isInPresale","type":"bool"}],"stateMutability":"view","type":"function"},{"inputs":[],"name":"getUSDTReserve","outputs":[{"internalType":"uint112","name":"usdtReserve","type":"uint112"}],"stateMutability":"view","type":"function"},{"inputs":[],"name":"getUniswapV2Pair","outputs":[{"internalType":"address","name":"","type":"address"}],"stateMutability":"view","type":"function"},{"inputs":[{"internalType":"address","name":"user","type":"address"}],"name":"getUserInvestment","outputs":[{"internalType":"uint256","name":"investment","type":"uint256"},{"internalType":"uint256","name":"lastBuy","type":"uint256"}],"stateMutability":"view","type":"function"},{"inputs":[],"name":"initializeWhitelist","outputs":[],"stateMutability":"nonpayable","type":"function"},{"inputs":[{"internalType":"address","name":"account","type":"address"}],"name":"isContract","outputs":[{"internalType":"bool","name":"","type":"bool"}],"stateMutability":"view","type":"function"},{"inputs":[{"internalType":"address","name":"buyer","type":"address"}],"name":"isDelayedBuyPeriodMet","outputs":[{"internalType":"bool","name":"","type":"bool"}],"stateMutability":"view","type":"function"},{"inputs":[{"internalType":"address","name":"","type":"address"}],"name":"lastBuyTime","outputs":[{"internalType":"uint256","name":"","type":"uint256"}],"stateMutability":"view","type":"function"},{"inputs":[],"name":"liquidityStaking","outputs":[{"internalType":"contract ILiquidityStaking","name":"","type":"address"}],"stateMutability":"view","type":"function"},{"inputs":[],"name":"liquidityThreshold","outputs":[{"internalType":"uint256","name":"","type":"uint256"}],"stateMutability":"view","type":"function"},{"inputs":[],"name":"marketingAddress","outputs":[{"internalType":"address","name":"","type":"address"}],"stateMutability":"view","type":"function"},{"inputs":[],"name":"name","outputs":[{"internalType":"string","name":"","type":"string"}],"stateMutability":"view","type":"function"},{"inputs":[],"name":"nodeDividendAddress","outputs":[{"internalType":"address","name":"","type":"address"}],"stateMutability":"view","type":"function"},{"inputs":[],"name":"owner","outputs":[{"internalType":"address","name":"","type":"address"}],"stateMutability":"view","type":"function"},{"inputs":[],"name":"presaleActive","outputs":[{"internalType":"bool","name":"","type":"bool"}],"stateMutability":"view","type":"function"},{"inputs":[],"name":"presaleDuration","outputs":[{"internalType":"uint256","name":"","type":"uint256"}],"stateMutability":"view","type":"function"},{"inputs":[],"name":"presaleStartTime","outputs":[{"internalType":"uint256","name":"","type":"uint256"}],"stateMutability":"view","type":"function"},{"inputs":[{"internalType":"address","name":"token","type":"address"},{"internalType":"uint256","name":"amount","type":"uint256"}],"name":"recoverStuckTokens","outputs":[],"stateMutability":"nonpayable","type":"function"},{"inputs":[{"internalType":"uint256","name":"amount","type":"uint256"}],"name":"recycle","outputs":[],"stateMutability":"nonpayable","type":"function"},{"inputs":[],"name":"renounceOwnership","outputs":[],"stateMutability":"nonpayable","type":"function"},{"inputs":[],"name":"rootAddress","outputs":[{"internalType":"address","name":"","type":"address"}],"stateMutability":"view","type":"function"},{"inputs":[{"internalType":"address[]","name":"accounts","type":"address[]"},{"internalType":"bool","name":"_blacklisted","type":"bool"}],"name":"setBatchBlacklisted","outputs":[],"stateMutability":"nonpayable","type":"function"},{"inputs":[{"internalType":"address[]","name":"accounts","type":"address[]"},{"internalType":"bool","name":"_whitelisted","type":"bool"}],"name":"setBatchFeeWhitelisted","outputs":[],"stateMutability":"nonpayable","type":"function"},{"inputs":[{"internalType":"address","name":"account","type":"address"},{"internalType":"bool","name":"_blacklisted","type":"bool"}],"name":"setBlacklisted","outputs":[],"stateMutability":"nonpayable","type":"function"},{"inputs":[{"internalType":"uint256","name":"_coldTime","type":"uint256"}],"name":"setColdTime","outputs":[],"stateMutability":"nonpayable","type":"function"},{"inputs":[{"internalType":"bool","name":"_enabled","type":"bool"}],"name":"setDelayedBuyEnabled","outputs":[],"stateMutability":"nonpayable","type":"function"},{"inputs":[{"internalType":"address","name":"account","type":"address"},{"internalType":"bool","name":"whitelisted","type":"bool"}],"name":"setFeeWhitelisted","outputs":[],"stateMutability":"nonpayable","type":"function"},{"inputs":[{"internalType":"address","name":"_fundRelay","type":"address"}],"name":"setFundRelay","outputs":[],"stateMutability":"nonpayable","type":"function"},{"inputs":[{"internalType":"address","name":"_liquidityStaking","type":"address"}],"name":"setLiquidityStaking","outputs":[],"stateMutability":"nonpayable","type":"function"},{"inputs":[{"internalType":"uint256","name":"newThreshold","type":"uint256"}],"name":"setLiquidityThreshold","outputs":[],"stateMutability":"nonpayable","type":"function"},{"inputs":[{"internalType":"address","name":"_newAddress","type":"address"}],"name":"setMarketingAddress","outputs":[],"stateMutability":"nonpayable","type":"function"},{"inputs":[{"internalType":"address","name":"_node","type":"address"}],"name":"setNodeDividendAddress","outputs":[],"stateMutability":"nonpayable","type":"function"},{"inputs":[{"internalType":"address","name":"_pair","type":"address"}],"name":"setPair","outputs":[],"stateMutability":"nonpayable","type":"function"},{"inputs":[{"internalType":"bool","name":"_active","type":"bool"}],"name":"setPresaleActive","outputs":[],"stateMutability":"nonpayable","type":"function"},{"inputs":[],"name":"setPresaleDuration","outputs":[],"stateMutability":"nonpayable","type":"function"},{"inputs":[{"internalType":"uint256","name":"_swapAtAmount","type":"uint256"}],"name":"setSwapAtAmount","outputs":[],"stateMutability":"nonpayable","type":"function"},{"inputs":[],"name":"staking","outputs":[{"internalType":"contract IStaking","name":"","type":"address"}],"stateMutability":"view","type":"function"},{"inputs":[],"name":"swapAtAmount","outputs":[{"internalType":"uint256","name":"","type":"uint256"}],"stateMutability":"view","type":"function"},{"inputs":[],"name":"symbol","outputs":[{"internalType":"string","name":"","type":"string"}],"stateMutability":"view","type":"function"},{"inputs":[],"name":"totalSupply","outputs":[{"internalType":"uint256","name":"","type":"uint256"}],"stateMutability":"view","type":"function"},{"inputs":[{"internalType":"address","name":"to","type":"address"},{"internalType":"uint256","name":"value","type":"uint256"}],"name":"transfer","outputs":[{"internalType":"bool","name":"","type":"bool"}],"stateMutability":"nonpayable","type":"function"},{"inputs":[{"internalType":"address","name":"from","type":"address"},{"internalType":"address","name":"to","type":"address"},{"internalType":"uint256","name":"value","type":"uint256"}],"name":"transferFrom","outputs":[{"internalType":"bool","name":"","type":"bool"}],"stateMutability":"nonpayable","type":"function"},{"inputs":[{"internalType":"address","name":"newOwner","type":"address"}],"name":"transferOwnership","outputs":[],"stateMutability":"nonpayable","type":"function"},{"inputs":[],"name":"triggerFeeProcessing","outputs":[],"stateMutability":"nonpayable","type":"function"},{"inputs":[],"name":"triggerFundRelayDistribution","outputs":[],"stateMutability":"nonpayable","type":"function"},{"inputs":[],"name":"uniswapV2Pair","outputs":[{"internalType":"contract IUniswapV2Pair","name":"","type":"address"}],"stateMutability":"view","type":"function"},{"inputs":[],"name":"uniswapV2Router","outputs":[{"internalType":"contract IUniswapV2Router02","name":"","type":"address"}],"stateMutability":"view","type":"function"},{"inputs":[{"internalType":"address","name":"","type":"address"}],"name":"userInvestment","outputs":[{"internalType":"uint256","name":"","type":"uint256"}],"stateMutability":"view","type":"function"}],"evm":{"bytecode":{"linkReferences":{},"object":"60e0806040523461053957608081614009803803809161001f828561053e565b8339810103126105395761003281610561565b9061003f60208201610561565b610057606061005060408501610561565b9301610561565b9260405161006660408261053e565b600981526829aca4902a37b5b2b760b91b60208201526040519061008b60408361053e565b600382526253594960e81b60208301528051906001600160401b0382116104365760035490600182811c9216801561052f575b60208310146104165781601f8493116104bf575b50602090601f83116001146104575760009261044c575b50508160011b916000199060031b1c1916176003555b8051906001600160401b0382116104365760045490600182811c9216801561042c575b60208310146104165781601f8493116103a6575b50602090601f831160011461033e57600092610333575b50508160011b916000199060031b1c1916176004555b331561031d5760058054336001600160a01b0319821681179092556001600160a01b03167f8be0079c531659141344cd1fd0a4f28419497f9722a3daafe3b4186f6b6457e0600080a3600a600c5569021e19e0c9bab2400000600f55633b9aca00601a556001600160a01b03811615801561030c575b80156102fb575b80156102ea575b6102d9576080526001600160a01b0390811660a05290811660c052600a80546001600160a01b0319169290911691909117905561022333610575565b426013554260105562278d00601155600160ff1960125416176012556040516139ff908161060a82396080518181816107bd01528181611b400152818161259c0152818161264f01528181612d96015281816131270152818161321b015281816133c301526138ee015260a051818181611411015281816115c201528181612c5201528181612cc501526133ef015260c0518181816104c801528181610f7d01528181611061015281816112af01526113c90152f35b63d92e233d60e01b60005260046000fd5b506001600160a01b038416156101e7565b506001600160a01b038316156101e0565b506001600160a01b038216156101d9565b631e4fbdf760e01b600052600060045260246000fd5b01519050388061014d565b600460009081528281209350601f198516905b81811061038e5750908460019594939210610375575b505050811b01600455610163565b015160001960f88460031b161c19169055388080610367565b92936020600181928786015181550195019301610351565b60046000529091507f8a35acfbc15ff81a39ae7d344fd709f28e8600b4aa8c65c6b64bfe7fe36bd19b601f840160051c8101916020851061040c575b90601f859493920160051c01905b8181106103fd5750610136565b600081558493506001016103f0565b90915081906103e2565b634e487b7160e01b600052602260045260246000fd5b91607f1691610122565b634e487b7160e01b600052604160045260246000fd5b0151905038806100e9565b600360009081528281209350601f198516905b8181106104a7575090846001959493921061048e575b505050811b016003556100ff565b015160001960f88460031b161c19169055388080610480565b9293602060018192878601518155019501930161046a565b60036000529091507fc2575a0e9e593c00f959f8c92f12db2869c3395a3b0502d05e2516446f71f85b601f840160051c81019160208510610525575b90601f859493920160051c01905b81811061051657506100d2565b60008155849350600101610509565b90915081906104fb565b91607f16916100be565b600080fd5b601f909101601f19168101906001600160401b0382119082101761043657604052565b51906001600160a01b038216820361053957565b6a084595161401484a000000906000906002548381018091116105f3577fddf252ad1be2c89b69c2b068fc378daa952ba7f163c4a11628f55a4df523b3ef916020916002556001600160a01b031693846105db5780600254036002555b604051908152a3565b846000526000825260406000208181540190556105d2565b634e487b7160e01b600052601160045260246000fdfe6080604052600436101561001257600080fd5b6000803560e01c8063054d50d41461175857806306fdde031461169b578063095ea7b314611674578063140bdcba1461161857806316279055146115f15780631694505e146115ac57806318160ddd1461158e5780631abfa629146110b357806321e2c9571461153257806323b872dd146114515780632927bacd14611361578063313ce5671461134557806332f65881146112fb57806336543fb9146112dd57806338a674c5146112295780633c19814e146111dd5780633f8121a21461113b5780633fecc2e21461110257806343a066aa146110dc57806349bd5a5e146110b35780634baf59f3146110905780634cf088d91461104b5780634e6fd6c41461102e57806352795e0b14610f6957806353135ca014610f46578063569ea10114610f07578063570475dc14610ed85780635868c32a14610eba5780635df45a3714610e8b578063615c440914610e62578063622e6ad814610e3f5780636402511e14610e1c57806366d57b9514610dfe57806370a0823114610dc4578063715018a614610d675780637464024c1461095d5780638187f51614610d0057806385f8c25914610cde578063861bd3c514610c7f5780638691752414610c615780638733cfd314610c2857806387894d0314610bfa5780638da5cb5b14610bd1578063906e9dd014610b3657806390e82f2414610ad35780639315e56114610ab557806395d89b41146109a45780639f54790d14610986578063a33bce2814610617578063a48230591461095d578063a5ece94114610934578063a82524b214610916578063a9059cbb146108e4578063aaa2b8c8146108bb578063af24ccaa1461083e578063b99ce15e146107ec578063c54e44eb146107a7578063c596f3fe14610779578063c96880861461075b578063d01dd6d214610709578063d123de31146106dd578063d4273cd6146106bf578063d7517caa14610640578063d9c821f314610617578063dbac26e9146105d8578063dd1c35bc146104b1578063dd62ed3e1461045c578063f2fde38b146103d3578063fdc0cdbf146103af5763ff9191511461031f57600080fd5b346103ac57806003193601126103ac5760125460145460a09260089290921c60ff16159190821561036d57815b604051931584526020840152604083015262278d0060608301526080820152f35b80156103a457805b61037e816118fe565b421061038b57508161034c565b61039e9061039942916118fe565b611bd7565b9161034c565b601354610375565b80fd5b50346103ac57806003193601126103ac576103c8611c63565b6103d0612a1f565b80f35b50346103ac5760203660031901126103ac576103ed6117d2565b6103f5611c63565b6001600160a01b0316801561044857600580546001600160a01b0319811683179091556001600160a01b03167f8be0079c531659141344cd1fd0a4f28419497f9722a3daafe3b4186f6b6457e08380a380f35b631e4fbdf760e01b82526004829052602482fd5b50346103ac5760403660031901126103ac5760406104786117d2565b916104816117e8565b9260018060a01b031681526001602052209060018060a01b03166000526020526020604060002054604051908152f35b50346103ac5760203660031901126103ac576004357f00000000000000000000000000000000000000000000000000000000000000006001600160a01b03163381900361059b576006546001600160a01b031660008181526020819052604090205490929060039004908181106105935750905b8161052e578380f35b61053792611c8c565b60065481906001600160a01b0316803b156105905781809160046040518095819363fff6cae960e01b83525af180156105835761057357818380f35b61057c9161181c565b3881818380f35b50604051903d90823e3d90fd5b50fd5b905090610525565b60405162461bcd60e51b815260206004820152601560248201527413db9b1e481cdd185ada5b99c818dbdb9d1c9858dd605a1b6044820152606490fd5b50346103ac5760203660031901126103ac5760209060ff906040906001600160a01b036106036117d2565b168152601984522054166040519015158152f35b50346103ac57806003193601126103ac576007546040516001600160a01b039091168152602090f35b50346103ac57806003193601126103ac5760a090601054906011546106658184611924565b9182421092836000146106b85761067e91504290611bd7565b905b60125460ff16938493846106b0575b50604051941515855260208501526040840152606083015215156080820152f35b93503861068f565b5090610680565b50346103ac57806003193601126103ac576020601454604051908152f35b50346103ac57806003193601126103ac5760206106f8611ace565b6001600160701b0360405191168152f35b50346103ac5760403660031901126103ac576103d06107266117d2565b61072e61180d565b90610737611c63565b60018060a01b031683526019602052604083209060ff801983541691151516179055565b50346103ac57806003193601126103ac576020601a54604051908152f35b50346103ac5760403660031901126103ac576103d06107966117d2565b61079e611c63565b602435906119d6565b50346103ac57806003193601126103ac576040517f00000000000000000000000000000000000000000000000000000000000000006001600160a01b03168152602090f35b50346103ac5760403660031901126103ac576103d06108096117d2565b61081161180d565b9061081a611c63565b60018060a01b031683526018602052604083209060ff801983541691151516179055565b50346103ac5760203660031901126103ac577f2c8ccbef4032016d78404afa804c622487ae3acab4caeff4b2dba121d7488c18602061087b6117fe565b610883611c63565b8015159060125461ff008360081b169061ff001916176012556000146108b257426014555b604051908152a180f35b836014556108a8565b50346103ac57806003193601126103ac576009546040516001600160a01b039091168152602090f35b50346103ac5760403660031901126103ac5761090b6109016117d2565b6024359033611c8c565b602060405160018152f35b50346103ac57806003193601126103ac576020601054604051908152f35b50346103ac57806003193601126103ac57600a546040516001600160a01b039091168152602090f35b50346103ac57806003193601126103ac576008546040516001600160a01b039091168152602090f35b50346103ac57806003193601126103ac576020601354604051908152f35b50346103ac57806003193601126103ac576040519080600454908160011c91600181168015610aab575b602084108114610a9757838652908115610a705750600114610a13575b610a0f846109fb8186038261181c565b604051918291602083526020830190611791565b0390f35b600481527f8a35acfbc15ff81a39ae7d344fd709f28e8600b4aa8c65c6b64bfe7fe36bd19b939250905b808210610a56575090915081016020016109fb826109eb565b919260018160209254838588010152019101909291610a3d565b60ff191660208087019190915292151560051b850190920192506109fb91508390506109eb565b634e487b7160e01b83526022600452602483fd5b92607f16926109ce565b50346103ac57806003193601126103ac576020600e54604051908152f35b50346103ac57610ae236611854565b610aea611c63565b825b8251811015610b32576001906001600160a01b03610b0a8286611931565b511685526018602052610b2c83604087209060ff801983541691151516179055565b01610aec565b8380f35b50346103ac5760203660031901126103ac57610b506117d2565b610b58611c63565b6001600160a01b03168015610bc257600a80546001600160a01b031981168317909155818352601860205260408320805460ff191660011790556001600160a01b03167fa8efc72ed34f90017df79620d1972d42b8e3b17eb0077fc5fc46cbf1a19ed9a98380a380f35b63d92e233d60e01b8252600482fd5b50346103ac57806003193601126103ac576005546040516001600160a01b039091168152602090f35b50346103ac5760203660031901126103ac576020610c1e610c196117d2565b61195b565b6040519015158152f35b50346103ac5760203660031901126103ac576020906040906001600160a01b03610c506117d2565b168152601683522054604051908152f35b50346103ac57806003193601126103ac576020600f54604051908152f35b50346103ac57610c8e36611854565b610c96611c63565b825b8251811015610b32576001906001600160a01b03610cb68286611931565b511685526019602052610cd883604087209060ff801983541691151516179055565b01610c98565b50346103ac576020610cf8610cf236611772565b91612a55565b604051908152f35b50346103ac5760203660031901126103ac57610d1a6117d2565b610d22611c63565b6001600160a01b03168015610bc2576006546001600160a01b038116610d58576001600160a01b031916176006556103d0612a1f565b63a741a04560e01b8352600483fd5b50346103ac57806003193601126103ac57610d80611c63565b600580546001600160a01b0319811690915581906001600160a01b03167f8be0079c531659141344cd1fd0a4f28419497f9722a3daafe3b4186f6b6457e08280a380f35b50346103ac5760203660031901126103ac576020610cf8610de36117d2565b6001600160a01b031660009081526020819052604090205490565b50346103ac57806003193601126103ac576020600d54604051908152f35b50346103ac5760203660031901126103ac57610e36611c63565b600435600f5580f35b50346103ac5760203660031901126103ac57610e59611c63565b600435600c5580f35b50346103ac57806003193601126103ac57600b546040516001600160a01b039091168152602090f35b50346103ac57806003193601126103ac576060600d54600e54600f549060405192835260208301526040820152f35b50346103ac57806003193601126103ac576020601154604051908152f35b50346103ac57806003193601126103ac57604090610efb600d54600e5490611924565b82519182526020820152f35b50346103ac5760203660031901126103ac5760209060ff906040906001600160a01b03610f326117d2565b168152601884522054166040519015158152f35b50346103ac57806003193601126103ac57602060ff601254166040519015158152f35b50346103ac57806003193601126103ac57337f00000000000000000000000000000000000000000000000000000000000000006001600160a01b031614801561101a575b15610fc257610fba61294d565b6103d0612839565b60405162461bcd60e51b815260206004820152602a60248201527f4f6e6c79207374616b696e67206f72206c6971756964697479207374616b696e60448201526919c818dbdb9d1c9858dd60b21b6064820152608490fd5b506007546001600160a01b03163314610fad565b50346103ac57806003193601126103ac57602060405161dead8152f35b50346103ac57806003193601126103ac576040517f00000000000000000000000000000000000000000000000000000000000000006001600160a01b03168152602090f35b50346103ac5760203660031901126103ac576110aa611c63565b600435601a5580f35b50346103ac57806003193601126103ac576006546040516001600160a01b039091168152602090f35b50346103ac57806003193601126103ac57602060ff60125460081c166040519015158152f35b50346103ac5760203660031901126103ac576020906040906001600160a01b0361112a6117d2565b168152601783522054604051908152f35b50346103ac5760203660031901126103ac577ff19c3bdddf1b5ac58b32a05cc2bc72313b03a8e8ceb7621e8818651371e00e5460206111786117fe565b611180611c63565b8015159060ff196012541660ff8316176012556111a157604051908152a180f35b4260105562278d006011557fdbeb6ec948f6eb874ecbd6117742652c35d57fbe578b778b77e677a06af90b968260405162278d008152a16108a8565b50346103ac5760203660031901126103ac576111f76117d2565b6111ff611c63565b6001600160a01b03168015610bc2576bffffffffffffffffffffffff60a01b600b541617600b5580f35b50346103ac57806003193601126103ac576005546001600160a01b0316331480156112ab575b8015611297575b15611263576103d0612839565b60405162461bcd60e51b815260206004820152600c60248201526b155b985d5d1a1bdc9a5e995960a21b6044820152606490fd5b506007546001600160a01b03163314611256565b50337f00000000000000000000000000000000000000000000000000000000000000006001600160a01b03161461124f565b50346103ac57806003193601126103ac576020600c54604051908152f35b50346103ac5760203660031901126103ac57604090816001600160a01b036113216117d2565b16918281526016602052818120549281526017602052205482519182526020820152f35b50346103ac57806003193601126103ac57602060405160128152f35b50346103ac57806003193601126103ac5761137a611c63565b601b5460ff811661144357600160ff199182168117601b556005546001600160a01b039081168452601860208181526040808720805487168617905530875282825280872080548716861790557f0000000000000000000000000000000000000000000000000000000000000000841687528282528087208054871686179055600a548416875282825280872080548716861790557f00000000000000000000000000000000000000000000000000000000000000009093168652528320805490921617905580f35b62dc149f60e41b8252600482fd5b50346103ac5760603660031901126103ac5761146b6117d2565b6114736117e8565b6001600160a01b038216808452600160209081526040808620338752909152842054604435939160001982106114b0575b505061090b9350611c8c565b8482106115175780156115035733156114ef57604086869261090b9852600160205281812060018060a01b0333168252602052209103905538806114a4565b634a1406b160e11b86526004869052602486fd5b63e602df0560e01b86526004869052602486fd5b6064868684637dc7a0d960e11b835233600452602452604452fd5b50346103ac5760203660031901126103ac5761154c6117d2565b611554611c63565b6001600160a01b03168015610bc257600880546001600160a01b031916821790558152601860205260408120805460ff1916600117905580f35b50346103ac57806003193601126103ac576020600254604051908152f35b50346103ac57806003193601126103ac576040517f00000000000000000000000000000000000000000000000000000000000000006001600160a01b03168152602090f35b50346103ac5760203660031901126103ac57602061160d6117d2565b3b1515604051908152f35b50346103ac5760203660031901126103ac576116326117d2565b61163a611c63565b6001600160a01b03168015610bc257600780546001600160a01b031916821790558152601860205260408120805460ff1916600117905580f35b50346103ac5760403660031901126103ac5761090b6116916117d2565b6024359033612aac565b50346103ac57806003193601126103ac576040519080600354908160011c9160018116801561174e575b602084108114610a9757838652908115610a7057506001146116f157610a0f846109fb8186038261181c565b600381527fc2575a0e9e593c00f959f8c92f12db2869c3395a3b0502d05e2516446f71f85b939250905b808210611734575090915081016020016109fb826109eb565b91926001816020925483858801015201910190929161171b565b92607f16926116c5565b50346103ac576020610cf861176c36611772565b91611c17565b606090600319011261178c57600435906024359060443590565b600080fd5b919082519283825260005b8481106117bd575050826000602080949584010152601f8019910116010190565b8060208092840101518282860101520161179c565b600435906001600160a01b038216820361178c57565b602435906001600160a01b038216820361178c57565b60043590811515820361178c57565b60243590811515820361178c57565b90601f8019910116810190811067ffffffffffffffff82111761183e57604052565b634e487b7160e01b600052604160045260246000fd5b604060031982011261178c576004359067ffffffffffffffff821161178c578060238301121561178c5781600401359067ffffffffffffffff821161183e5760208260051b01926118a8604051948561181c565b8284526024602085019360051b82010191821161178c57602401915b8183106118de5750505090602435801515810361178c5790565b82356001600160a01b038116810361178c578152602092830192016118c4565b9062278d00820180921161190e57565b634e487b7160e01b600052601160045260246000fd5b9190820180921161190e57565b80518210156119455760209160051b010190565b634e487b7160e01b600052603260045260246000fd5b60ff60125460081c161590811561199b575b5061199657601454801561198a57611984906118fe565b42101590565b506119846013546118fe565b600190565b6001600160a01b031660009081526018602052604090205460ff1690503861196d565b9081602091031261178c5751801515810361178c5790565b6001600160a01b0316308114611a615760055460405163a9059cbb60e01b81526001600160a01b0390911660048201526024810192909252602090829060449082906000905af18015611a5557611a2a5750565b611a4b9060203d602011611a4e575b611a43818361181c565b8101906119be565b50565b503d611a39565b6040513d6000823e3d90fd5b5050565b51906001600160701b038216820361178c57565b9081606091031261178c57611a8d81611a65565b916040611a9c60208401611a65565b92015163ffffffff8116810361178c5790565b9081602091031261178c57516001600160a01b038116810361178c5790565b600654604051630240bc6b60e21b8152906001600160a01b0316606082600481845afa9081600093600093611b9f575b50611b0b57505050600090565b602060049160405192838092630dfe168160e01b82525afa908115611a5557600091611b70575b506001600160a01b039081167f000000000000000000000000000000000000000000000000000000000000000090911603611b6b575090565b905090565b611b92915060203d602011611b98575b611b8a818361181c565b810190611aaf565b38611b32565b503d611b80565b909250611bc591935060603d606011611bd0575b611bbd818361181c565b810190611a79565b509290929138611afe565b503d611bb3565b9190820391821161190e57565b8115611bee570490565b634e487b7160e01b600052601260045260246000fd5b8181029291811591840414171561190e57565b916126f78302928084046126f7149015171561190e57611c379083611c04565b90612710810290808204612710149015171561190e57611c6092611c5a91611924565b90611be4565b90565b6005546001600160a01b03163303611c7757565b63118cdaa760e01b6000523360045260246000fd5b909291906001600160a01b03811690600090821590818015612828575b6127fa57838352601860205260ff6040842054168015612809575b6127fa57611cd28782612c28565b611cdc8883612c9c565b90156121fb57506001600160a01b0387168084526019602052604084205490949060ff166121ec5760125460ff8160081c16806121d5575b61219f575b60ff1680612188575b61217a5760648602918615928781046064148417156121665761271090049260c888029088820460c814171561216657612710900491611d6b611d658486611924565b89611bd7565b9484612093575b505081611f11575b837ffde30999d0ea66fcaf14400b79c9e771a1a87176335a8cc91382321a3d0a0c1f96979899611da992612b3f565b611db28361387c565b938681526016602052604081205491611dcb8684611924565b8883526016602052604083205587825260176020524260408320558782526016602052604082205460405190848252602082015286604082015260806060820152887ffa935fe56c7e4dc5d59a584d81aa99b9714c92d3b1cb2e7e329969203c3fd226429280611e4f60808201604090600381526242555960e81b60208201520190565b0390a3878252601660205260408220549360036040516242555960e81b81522094604051948b86528860208701528760408701526060860152608085015260a084015260c08301528060e08301528061010083015280610120830152610140820152857f681f1f0fb3679a87b3423967dfa2ec97150b706d392eada5b3617c7508afc7656101604293a460405160808082526003908201526242555960e81b60a08201529160c08301956020840152604083015260608201528042940390a35b565b611f1c823083612b3f565b60075460405163095ea7b360e01b81526001600160a01b0390911660048201526024810183905260208160448189305af1801561206757612076575b506007546001600160a01b0316803b1561207257858091602460405180948193633acfcef160e11b83528860048401525af180156120675761204b575b50837ffde30999d0ea66fcaf14400b79c9e771a1a87176335a8cc91382321a3d0a0c1f96979899611da9927f14164d84b45b7c78b262f5a0a6e5ce9db145a21b0c02951209c371bdece6c7e56020604051878152a160018060a01b03600754166011604051704255595f4c505f5245574152445f53594960781b8152206040518781527fdc0542397de1d347eb80cba6dcba197e295e2516706ef1dd5a16d8ac5fb3eeda60203092a49250999897965050611d7a565b856120559161181c565b846000126120635738611f95565b8480fd5b6040513d88823e3d90fd5b8580fd5b61208e9060203d602011611a4e57611a43818361181c565b611f58565b60009015612120579061dead916120ac86600254611924565b6002555b5081600052600060205260406000208581540190557fddf252ad1be2c89b69c2b068fc378daa952ba7f163c4a11628f55a4df523b3ef6020604051878152a37f6ef4855b666dcc7884561072e4358b28dfe01feb1b7f4dcebc00e62d50394ac76020604051858152a13880611d72565b81815280602052604081205485811061214c579085839261dead948352826020520360408220556120b0565b859060649363391434e360e21b8452600452602452604452fd5b634e487b7160e01b86526011600452602486fd5b624e610160e31b8452600484fd5b5061219860105460115490611924565b4210611d22565b60145480156121cc575b62278d00810180911161216657421015611d19576320cf80f960e01b8552600485fd5b506013546121a9565b50858552601860205260ff60408620541615611d14565b6309550c7760e01b8452600484fd5b959695909150156127e557828252601960205260ff6040832054166127d65782825260176020526122336040832054600c5490611924565b42106127c75760968402848104609614851517156124c05761271090049161225f836103998188611bd7565b92612269846131a5565b9682948391878552601660205260408520549289841515806127be575b612774575b81610399876103998161229d95611bd7565b6122a7898d611bd7565b965085151580612755575b612736575b60009283988493806124eb575b50906122d09291612b3f565b888252601660205260408220548681116124dc57825b8a84526016602052604084205589835260166020526040832054604051918252602082015286604082015260806060820152600460808201526314d1531360e21b60a0820152897ffa935fe56c7e4dc5d59a584d81aa99b9714c92d3b1cb2e7e329969203c3fd22660c04293a38715806124d4576127108902908982046127101417156124c0576109c49004965b61237e8680611924565b936123898a89611bd7565b93806124ac5750604051948c8652602086015286604086015286606086015260808501528b60a08501528460c08501528760e0850152886101008501526000610120850152610140840152610160830152610180820152836101a082015260006101c0820152867f14f1a00236d7bca73ddcf087e3d43ca785808697c6fde3616f17d02d6f2c68e36101e04293a38560005260166020526124306040600020549280611924565b9260046040516314d1531360e21b815220986040519889526020890152604088015260608701526080860152600060a0860152600060c086015260e085015261010084015261012083015260006101408301527f681f1f0fb3679a87b3423967dfa2ec97150b706d392eada5b3617c7508afc7656101604293a4565b634e487b7160e01b81526011600452602490fd5b634e487b7160e01b83526011600452602483fd5b508196612374565b6124e68782611bd7565b6122e6565b806124fa6124ff923085612b3f565b6132db565b8015801561250e575b506122c4565b919a509350600a840290848204600a14171561272257601961253291048094611bd7565b928061261b575b8361254a575b92986122d038612508565b600b5484906001600160a01b0316801561260257612597916020915b60405163a9059cbb60e01b81526001600160a01b039091166004820152602481019190915291829081906044820190565b0381897f00000000000000000000000000000000000000000000000000000000000000006001600160a01b03165af1801561206757906122d0949392916125e3575b509091925061253f565b6125fb9060203d602011611a4e57611a43818361181c565b50386125d9565b50600a54612597916020916001600160a01b0316612566565b60075460405163095ea7b360e01b81526001600160a01b0390911660048201526024810182905260208180604481010381897f00000000000000000000000000000000000000000000000000000000000000006001600160a01b03165af1801561206757612705575b506007546001600160a01b0316803b15612072578580916024604051809481936345efb3f960e11b83528760048401525af18015612067576126f1575b507f14164d84b45b7c78b262f5a0a6e5ce9db145a21b0c02951209c371bdece6c7e56020604051838152a1612539565b856126fe9196929661181c565b93386126c1565b61271d9060203d602011611a4e57611a43818361181c565b612684565b634e487b7160e01b85526011600452602485fd5b61274186308a612b3f565b61274d86600e54611924565b600e556122b7565b61276087308b612b3f565b61276c87600d54611924565b600d556122b2565b50509550612782828a611bd7565b6109c48102908082046109c41490151715612722576127109004958884808c6127ab868c611c04565b906127b591611be4565b9291505061228b565b50848c11612286565b63465fd09160e01b8252600482fd5b6309550c7760e01b8252600482fd5b90506127f2939150612b3f565b611f0f61294d565b915050611f0f93949150612b3f565b506001600160a01b03871683526018602052604083205460ff16611cc4565b506001600160a01b03871615611ca9565b612848600d54600e5490611924565b600f5481101580612940575b61285b5750565b612863612cfd565b156128e05760405190815260606020820152600e60608201526d10555513d7d512149154d213d31160921b60808201524260408201527f0d8296aa488bfcef418c563cfdccad96b64e0d82f06eda3fe90068d39c9fb85c60a03392a2600160ff1960155416176015556128d4612f15565b60ff1960155416601555565b60a07fe87b88b4c27d1729d389885f3f6648294b68791762d08e1bc96ece2f6dff0b1491604051908152606060208201526016606082015275494e53554646494349454e545f4c495155494449545960501b6080820152426040820152a1565b5060ff6015541615612854565b6008546001600160a01b03168015611a4b5760206000916004604051809481936327d16ce960e11b83525af1600091816129eb575b5061298a5750565b806129925750565b60176040517f46554e445f52454c41595f444953545249425554494f4e00000000000000000081522060405191825230917fdc0542397de1d347eb80cba6dcba197e295e2516706ef1dd5a16d8ac5fb3eeda60203092a4565b90916020823d602011612a17575b81612a066020938361181c565b810103126103ac5750519038612982565b3d91506129f9565b62278d006011557fdbeb6ec948f6eb874ecbd6117742652c35d57fbe578b778b77e677a06af90b96602060405162278d008152a1565b919082612a6191611c04565b91612710830292808404612710149015171561190e57612a8091611bd7565b6126f78102908082046126f7149015171561190e57612a9e91611be4565b6001810180911161190e5790565b6001600160a01b0316908115612b29576001600160a01b0316918215612b135760207f8c5be1e5ebec7d5bd14f71427d1e84f3dd0314c0f7b2291e5b200ac8c7c3b925918360005260018252604060002085600052825280604060002055604051908152a3565b634a1406b160e11b600052600060045260246000fd5b63e602df0560e01b600052600060045260246000fd5b6001600160a01b03169081612bbb5760207fddf252ad1be2c89b69c2b068fc378daa952ba7f163c4a11628f55a4df523b3ef91612b7e85600254611924565b6002555b6001600160a01b03169384612ba35780600254036002555b604051908152a3565b84600052600082526040600020818154019055612b9a565b816000526000602052604060002054838110612c0b577fddf252ad1be2c89b69c2b068fc378daa952ba7f163c4a11628f55a4df523b3ef9184602092856000526000845203604060002055612b82565b91905063391434e360e21b60005260045260245260445260646000fd5b6006546001600160a01b03908116929116829003612c95576001600160a01b0316818114612c95577f00000000000000000000000000000000000000000000000000000000000000006001600160a01b031614612c8f573303612c8a57600190565b600090565b50600090565b5050600090565b6006546001600160a01b039081169216829003612c95576001600160a01b0316818114612c95577f00000000000000000000000000000000000000000000000000000000000000006001600160a01b031614612c8f573314612c8a57600190565b612d0c600d54600e5490611924565b8015612c8f573060005260006020528060406000205410612c8f57600654604051630240bc6b60e21b8152906001600160a01b0316606082600481845afa9182600091600094612ef1575b50612d655750505050600090565b604051630dfe168160e01b815290602082600481865afa918215611a5557600092612ed0575b506001600160a01b037f0000000000000000000000000000000000000000000000000000000000000000811692168203612eca5792905b6001600160a01b03831660009081526020818152604090912054936024604051809481936370a0823160e01b835260048301525afa908115611a5557600091612e98575b506001600160701b03821693605f850293851594868104605f1486171561190e576064900411612e8d576001600160701b0316605f810290808204605f149015171561190e576064900411612e84576e01fffffffffffffffffffffffffffe9060011b16918204600214171561190e576064900410612c8a57600190565b50505050600090565b505050505050600090565b90506020813d602011612ec2575b81612eb36020938361181c565b8101031261178c575138612e06565b3d9150612ea6565b90612dc2565b612eea91925060203d602011611b9857611b8a818361181c565b9038612d8b565b909350612f0d915060603d606011611bd057611bbd818361181c565b509238612d57565b600d546000600e5491612f288382611924565b156131a05781600d5581600e5581928291806130d6575b81612fd2575b90612f4f91611924565b9160018060a01b03600754169060018060a01b03600a54169260106040516f414343554d554c415445445f4645455360801b8152209560405195865260208601528160408601526060850152608084015260a083015260c08201527f86e133fbf1e40a6a97b6c78d78538f95f9c3b84ec08e1a53eb43fb050d9acb9460e04292a3565b60075460405163095ea7b360e01b81526001600160a01b0390911660048201526024810183905290949060208160448188305af180156130ae576130b9575b506007546001600160a01b0316803b1561206357848091602460405180948193633acfcef160e11b83528860048401525af180156130ae57613090575b509061308781612f4f937f14164d84b45b7c78b262f5a0a6e5ce9db145a21b0c02951209c371bdece6c7e56020604051848152a1611924565b94909150612f45565b82856130a4612f4f9594976130879461181c565b959250925061304e565b6040513d87823e3d90fd5b6130d19060203d602011611a4e57611a43818361181c565b613011565b91506130e1826132db565b918215158061318c575b15612f3f57600a5460405163a9059cbb60e01b81526001600160a01b0390911660048201526024810184905290945060208180604481010381877f00000000000000000000000000000000000000000000000000000000000000006001600160a01b03165af1801561318157613164575b508193612f3f565b61317c9060203d602011611a4e57611a43818361181c565b61315c565b6040513d86823e3d90fd5b50600a546001600160a01b031615156130eb565b505050565b600654604051630240bc6b60e21b81526001600160a01b039091169190606081600481865afa92836000926000956132b3575b506131e65750505050600090565b602060049160405192838092630dfe168160e01b82525afa908115611a5557600091613294575b506001600160a01b039081167f000000000000000000000000000000000000000000000000000000000000000090911603613286576001600160701b0390925b1680151580613274575b6132615780612e84565b6001600160701b03611c60931691611c17565b506001600160701b0383161515613257565b6001600160701b039061324d565b6132ad915060203d602011611b9857611b8a818361181c565b3861320d565b9094506132d091925060603d606011611bd057611bbd818361181c565b5091909193386131d8565b6132f390600160ff1960155416176015556000613375565b9060ff1960155416601555565b600060443d10611c60576040513d600319016004823e8051913d602484011167ffffffffffffffff84111761336f578282019283519167ffffffffffffffff8311613367573d840160031901858401602001116133675750611c609291016020019061181c565b949350505050565b92915050565b5060009080158015613868575b613864576060604051613395828261181c565b6002815260208101601f19830136823781511561385057308152815160011015613850576001600160a01b037f000000000000000000000000000000000000000000000000000000000000000081166040840181905292907f00000000000000000000000000000000000000000000000000000000000000001661341a868230612aac565b6008546001600160a01b0316801561384857925b6040516370a0823160e01b815230600482015293602085602481895afa94851561383d578995613805575b5061012c4201908142116137f157833b156137ed579391899391604051958694635c11d79560e01b865260a48601908c600488015287602488015260a060448801525180915260c486019390875b8181106137c8575050506001600160a01b03166064850152608484015282900390829084905af190816137b4575b50613598575050907f23710c5e610526df3c632bc797fb4914964991cc07e128ee2af743aeed319e06918360033d11613588575b6308c379a01461354d575b60a091601260405192808452830152712ab735b737bbb71039bbb0b81032b93937b960711b60808301526020820152426040820152a190565b613555613300565b9182613562579150613514565b613576604051938385948552840190611791565b9060208301524260408301520390a190565b50600484803e835160e01c613509565b6008546001600160a01b03169182156136b5575050602084916004604051809781936327d16ce960e11b83525af1938415610583578194613681575b5083156135e2575b50505090565b7f23710c5e610526df3c632bc797fb4914964991cc07e128ee2af743aeed319e0660a07f163a4024b77f02bfab6d1e18c917f413dc151008cf420bf1e0309f0cf8d7b1fa94604051908582526019868301527f46756e6452656c6179207472616e73666572206661696c65640000000000000060808301526020820152426040820152a1604051908082526020820152426040820152a13880806135dc565b9093506020813d6020116136ad575b8161369d6020938361181c565b8101031261178c575192386135d4565b3d9150613690565b6040516370a0823160e01b815230600482015294959394919250602090829060249082905afa9081156137a9578391613777575b508181111561376f576136fc9250611bd7565b915b821561370957505090565b7f23710c5e610526df3c632bc797fb4914964991cc07e128ee2af743aeed319e069160a091601e604051928084528301527f44697265637420737761702072657475726e6564207a65726f2055534454000060808301526020820152426040820152a190565b5050916136fe565b90506020813d6020116137a1575b816137926020938361181c565b8101031261178c5751386136e9565b3d9150613785565b6040513d85823e3d90fd5b866137c19197929761181c565b94386134d5565b82516001600160a01b031686528e9850899750602095860195909201916001016134a7565b8980fd5b634e487b7160e01b8a52601160045260248afd5b9094506020813d602011613835575b816138216020938361181c565b8101031261383157519338613459565b8880fd5b3d9150613814565b6040513d8b823e3d90fd5b50309261342e565b634e487b7160e01b85526032600452602485fd5b5090565b503082528160205280604083205410613382565b600654604051630240bc6b60e21b81526001600160a01b0390911690606081600481855afa91826000926000946139a1575b506138b95750505090565b602060049160405192838092630dfe168160e01b82525afa908115611a5557600091613982575b506001600160a01b039081167f000000000000000000000000000000000000000000000000000000000000000090911603613974576001600160701b0390915b169081151580613962575b61393557806135dc565b612710830292808404612710149015171561190e576001600160701b036125e4611c609404911690612a55565b506001600160701b038116151561392b565b6001600160701b0390613920565b61399b915060203d602011611b9857611b8a818361181c565b386138e0565b9093506139be91925060603d606011611bd057611bbd818361181c565b5091909192386138ae56fea26469706673582212206750f1a1196cd9c1cc64347605865680303388814c442db3c67f801e9560b3d464736f6c634300081c0033","opcodes":"PUSH1 0xE0 DUP1 PUSH1 0x40 MSTORE CALLVALUE PUSH2 0x539 JUMPI PUSH1 0x80 DUP2 PUSH2 0x4009 DUP1 CODESIZE SUB DUP1 SWAP2 PUSH2 0x1F DUP3 DUP6 PUSH2 0x53E JUMP JUMPDEST DUP4 CODECOPY DUP2 ADD SUB SLT PUSH2 0x539 JUMPI PUSH2 0x32 DUP2 PUSH2 0x561 JUMP JUMPDEST SWAP1 PUSH2 0x3F PUSH1 0x20 DUP3 ADD PUSH2 0x561 JUMP JUMPDEST PUSH2 0x57 PUSH1 0x60 PUSH2 0x50 PUSH1 0x40 DUP6 ADD PUSH2 0x561 JUMP JUMPDEST SWAP4 ADD PUSH2 0x561 JUMP JUMPDEST SWAP3 PUSH1 0x40 MLOAD PUSH2 0x66 PUSH1 0x40 DUP3 PUSH2 0x53E JUMP JUMPDEST PUSH1 0x9 DUP2 MSTORE PUSH9 0x29ACA4902A37B5B2B7 PUSH1 0xB9 SHL PUSH1 0x20 DUP3 ADD MSTORE PUSH1 0x40 MLOAD SWAP1 PUSH2 0x8B PUSH1 0x40 DUP4 PUSH2 0x53E JUMP JUMPDEST PUSH1 0x3 DUP3 MSTORE PUSH3 0x535949 PUSH1 0xE8 SHL PUSH1 0x20 DUP4 ADD MSTORE DUP1 MLOAD SWAP1 PUSH1 0x1 PUSH1 0x1 PUSH1 0x40 SHL SUB DUP3 GT PUSH2 0x436 JUMPI PUSH1 0x3 SLOAD SWAP1 PUSH1 0x1 DUP3 DUP2 SHR SWAP3 AND DUP1 ISZERO PUSH2 0x52F JUMPI JUMPDEST PUSH1 0x20 DUP4 LT EQ PUSH2 0x416 JUMPI DUP2 PUSH1 0x1F DUP5 SWAP4 GT PUSH2 0x4BF JUMPI JUMPDEST POP PUSH1 0x20 SWAP1 PUSH1 0x1F DUP4 GT PUSH1 0x1 EQ PUSH2 0x457 JUMPI PUSH1 0x0 SWAP3 PUSH2 0x44C JUMPI JUMPDEST POP POP DUP2 PUSH1 0x1 SHL SWAP2 PUSH1 0x0 NOT SWAP1 PUSH1 0x3 SHL SHR NOT AND OR PUSH1 0x3 SSTORE JUMPDEST DUP1 MLOAD SWAP1 PUSH1 0x1 PUSH1 0x1 PUSH1 0x40 SHL SUB DUP3 GT PUSH2 0x436 JUMPI PUSH1 0x4 SLOAD SWAP1 PUSH1 0x1 DUP3 DUP2 SHR SWAP3 AND DUP1 ISZERO PUSH2 0x42C JUMPI JUMPDEST PUSH1 0x20 DUP4 LT EQ PUSH2 0x416 JUMPI DUP2 PUSH1 0x1F DUP5 SWAP4 GT PUSH2 0x3A6 JUMPI JUMPDEST POP PUSH1 0x20 SWAP1 PUSH1 0x1F DUP4 GT PUSH1 0x1 EQ PUSH2 0x33E JUMPI PUSH1 0x0 SWAP3 PUSH2 0x333 JUMPI JUMPDEST POP POP DUP2 PUSH1 0x1 SHL SWAP2 PUSH1 0x0 NOT SWAP1 PUSH1 0x3 SHL SHR NOT AND OR PUSH1 0x4 SSTORE JUMPDEST CALLER ISZERO PUSH2 0x31D JUMPI PUSH1 0x5 DUP1 SLOAD CALLER PUSH1 0x1 PUSH1 0x1 PUSH1 0xA0 SHL SUB NOT DUP3 AND DUP2 OR SWAP1 SWAP3 SSTORE PUSH1 0x1 PUSH1 0x1 PUSH1 0xA0 SHL SUB AND PUSH32 0x8BE0079C531659141344CD1FD0A4F28419497F9722A3DAAFE3B4186F6B6457E0 PUSH1 0x0 DUP1 LOG3 PUSH1 0xA PUSH1 0xC SSTORE PUSH10 0x21E19E0C9BAB2400000 PUSH1 0xF SSTORE PUSH4 0x3B9ACA00 PUSH1 0x1A SSTORE PUSH1 0x1 PUSH1 0x1 PUSH1 0xA0 SHL SUB DUP2 AND ISZERO DUP1 ISZERO PUSH2 0x30C JUMPI JUMPDEST DUP1 ISZERO PUSH2 0x2FB JUMPI JUMPDEST DUP1 ISZERO PUSH2 0x2EA JUMPI JUMPDEST PUSH2 0x2D9 JUMPI PUSH1 0x80 MSTORE PUSH1 0x1 PUSH1 0x1 PUSH1 0xA0 SHL SUB SWAP1 DUP2 AND PUSH1 0xA0 MSTORE SWAP1 DUP2 AND PUSH1 0xC0 MSTORE PUSH1 0xA DUP1 SLOAD PUSH1 0x1 PUSH1 0x1 PUSH1 0xA0 SHL SUB NOT AND SWAP3 SWAP1 SWAP2 AND SWAP2 SWAP1 SWAP2 OR SWAP1 SSTORE PUSH2 0x223 CALLER PUSH2 0x575 JUMP JUMPDEST TIMESTAMP PUSH1 0x13 SSTORE TIMESTAMP PUSH1 0x10 SSTORE PUSH3 0x278D00 PUSH1 0x11 SSTORE PUSH1 0x1 PUSH1 0xFF NOT PUSH1 0x12 SLOAD AND OR PUSH1 0x12 SSTORE PUSH1 0x40 MLOAD PUSH2 0x39FF SWAP1 DUP2 PUSH2 0x60A DUP3 CODECOPY PUSH1 0x80 MLOAD DUP2 DUP2 DUP2 PUSH2 0x7BD ADD MSTORE DUP2 DUP2 PUSH2 0x1B40 ADD MSTORE DUP2 DUP2 PUSH2 0x259C ADD MSTORE DUP2 DUP2 PUSH2 0x264F ADD MSTORE DUP2 DUP2 PUSH2 0x2D96 ADD MSTORE DUP2 DUP2 PUSH2 0x3127 ADD MSTORE DUP2 DUP2 PUSH2 0x321B ADD MSTORE DUP2 DUP2 PUSH2 0x33C3 ADD MSTORE PUSH2 0x38EE ADD MSTORE PUSH1 0xA0 MLOAD DUP2 DUP2 DUP2 PUSH2 0x1411 ADD MSTORE DUP2 DUP2 PUSH2 0x15C2 ADD MSTORE DUP2 DUP2 PUSH2 0x2C52 ADD MSTORE DUP2 DUP2 PUSH2 0x2CC5 ADD MSTORE PUSH2 0x33EF ADD MSTORE PUSH1 0xC0 MLOAD DUP2 DUP2 DUP2 PUSH2 0x4C8 ADD MSTORE DUP2 DUP2 PUSH2 0xF7D ADD MSTORE DUP2 DUP2 PUSH2 0x1061 ADD MSTORE DUP2 DUP2 PUSH2 0x12AF ADD MSTORE PUSH2 0x13C9 ADD MSTORE RETURN JUMPDEST PUSH4 0xD92E233D PUSH1 0xE0 SHL PUSH1 0x0 MSTORE PUSH1 0x4 PUSH1 0x0 REVERT JUMPDEST POP PUSH1 0x1 PUSH1 0x1 PUSH1 0xA0 SHL SUB DUP5 AND ISZERO PUSH2 0x1E7 JUMP JUMPDEST POP PUSH1 0x1 PUSH1 0x1 PUSH1 0xA0 SHL SUB DUP4 AND ISZERO PUSH2 0x1E0 JUMP JUMPDEST POP PUSH1 0x1 PUSH1 0x1 PUSH1 0xA0 SHL SUB DUP3 AND ISZERO PUSH2 0x1D9 JUMP JUMPDEST PUSH4 0x1E4FBDF7 PUSH1 0xE0 SHL PUSH1 0x0 MSTORE PUSH1 0x0 PUSH1 0x4 MSTORE PUSH1 0x24 PUSH1 0x0 REVERT JUMPDEST ADD MLOAD SWAP1 POP CODESIZE DUP1 PUSH2 0x14D JUMP JUMPDEST PUSH1 0x4 PUSH1 0x0 SWAP1 DUP2 MSTORE DUP3 DUP2 KECCAK256 SWAP4 POP PUSH1 0x1F NOT DUP6 AND SWAP1 JUMPDEST DUP2 DUP2 LT PUSH2 0x38E JUMPI POP SWAP1 DUP5 PUSH1 0x1 SWAP6 SWAP5 SWAP4 SWAP3 LT PUSH2 0x375 JUMPI JUMPDEST POP POP POP DUP2 SHL ADD PUSH1 0x4 SSTORE PUSH2 0x163 JUMP JUMPDEST ADD MLOAD PUSH1 0x0 NOT PUSH1 0xF8 DUP5 PUSH1 0x3 SHL AND SHR NOT AND SWAP1 SSTORE CODESIZE DUP1 DUP1 PUSH2 0x367 JUMP JUMPDEST SWAP3 SWAP4 PUSH1 0x20 PUSH1 0x1 DUP2 SWAP3 DUP8 DUP7 ADD MLOAD DUP2 SSTORE ADD SWAP6 ADD SWAP4 ADD PUSH2 0x351 JUMP JUMPDEST PUSH1 0x4 PUSH1 0x0 MSTORE SWAP1 SWAP2 POP PUSH32 0x8A35ACFBC15FF81A39AE7D344FD709F28E8600B4AA8C65C6B64BFE7FE36BD19B PUSH1 0x1F DUP5 ADD PUSH1 0x5 SHR DUP2 ADD SWAP2 PUSH1 0x20 DUP6 LT PUSH2 0x40C JUMPI JUMPDEST SWAP1 PUSH1 0x1F DUP6 SWAP5 SWAP4 SWAP3 ADD PUSH1 0x5 SHR ADD SWAP1 JUMPDEST DUP2 DUP2 LT PUSH2 0x3FD JUMPI POP PUSH2 0x136 JUMP JUMPDEST PUSH1 0x0 DUP2 SSTORE DUP5 SWAP4 POP PUSH1 0x1 ADD PUSH2 0x3F0 JUMP JUMPDEST SWAP1 SWAP2 POP DUP2 SWAP1 PUSH2 0x3E2 JUMP JUMPDEST PUSH4 0x4E487B71 PUSH1 0xE0 SHL PUSH1 0x0 MSTORE PUSH1 0x22 PUSH1 0x4 MSTORE PUSH1 0x24 PUSH1 0x0 REVERT JUMPDEST SWAP2 PUSH1 0x7F AND SWAP2 PUSH2 0x122 JUMP JUMPDEST PUSH4 0x4E487B71 PUSH1 0xE0 SHL PUSH1 0x0 MSTORE PUSH1 0x41 PUSH1 0x4 MSTORE PUSH1 0x24 PUSH1 0x0 REVERT JUMPDEST ADD MLOAD SWAP1 POP CODESIZE DUP1 PUSH2 0xE9 JUMP JUMPDEST PUSH1 0x3 PUSH1 0x0 SWAP1 DUP2 MSTORE DUP3 DUP2 KECCAK256 SWAP4 POP PUSH1 0x1F NOT DUP6 AND SWAP1 JUMPDEST DUP2 DUP2 LT PUSH2 0x4A7 JUMPI POP SWAP1 DUP5 PUSH1 0x1 SWAP6 SWAP5 SWAP4 SWAP3 LT PUSH2 0x48E JUMPI JUMPDEST POP POP POP DUP2 SHL ADD PUSH1 0x3 SSTORE PUSH2 0xFF JUMP JUMPDEST ADD MLOAD PUSH1 0x0 NOT PUSH1 0xF8 DUP5 PUSH1 0x3 SHL AND SHR NOT AND SWAP1 SSTORE CODESIZE DUP1 DUP1 PUSH2 0x480 JUMP JUMPDEST SWAP3 SWAP4 PUSH1 0x20 PUSH1 0x1 DUP2 SWAP3 DUP8 DUP7 ADD MLOAD DUP2 SSTORE ADD SWAP6 ADD SWAP4 ADD PUSH2 0x46A JUMP JUMPDEST PUSH1 0x3 PUSH1 0x0 MSTORE SWAP1 SWAP2 POP PUSH32 0xC2575A0E9E593C00F959F8C92F12DB2869C3395A3B0502D05E2516446F71F85B PUSH1 0x1F DUP5 ADD PUSH1 0x5 SHR DUP2 ADD SWAP2 PUSH1 0x20 DUP6 LT PUSH2 0x525 JUMPI JUMPDEST SWAP1 PUSH1 0x1F DUP6 SWAP5 SWAP4 SWAP3 ADD PUSH1 0x5 SHR ADD SWAP1 JUMPDEST DUP2 DUP2 LT PUSH2 0x516 JUMPI POP PUSH2 0xD2 JUMP JUMPDEST PUSH1 0x0 DUP2 SSTORE DUP5 SWAP4 POP PUSH1 0x1 ADD PUSH2 0x509 JUMP JUMPDEST SWAP1 SWAP2 POP DUP2 SWAP1 PUSH2 0x4FB JUMP JUMPDEST SWAP2 PUSH1 0x7F AND SWAP2 PUSH2 0xBE JUMP JUMPDEST PUSH1 0x0 DUP1 REVERT JUMPDEST PUSH1 0x1F SWAP1 SWAP2 ADD PUSH1 0x1F NOT AND DUP2 ADD SWAP1 PUSH1 0x1 PUSH1 0x1 PUSH1 0x40 SHL SUB DUP3 GT SWAP1 DUP3 LT OR PUSH2 0x436 JUMPI PUSH1 0x40 MSTORE JUMP JUMPDEST MLOAD SWAP1 PUSH1 0x1 PUSH1 0x1 PUSH1 0xA0 SHL SUB DUP3 AND DUP3 SUB PUSH2 0x539 JUMPI JUMP JUMPDEST PUSH11 0x84595161401484A000000 SWAP1 PUSH1 0x0 SWAP1 PUSH1 0x2 SLOAD DUP4 DUP2 ADD DUP1 SWAP2 GT PUSH2 0x5F3 JUMPI PUSH32 0xDDF252AD1BE2C89B69C2B068FC378DAA952BA7F163C4A11628F55A4DF523B3EF SWAP2 PUSH1 0x20 SWAP2 PUSH1 0x2 SSTORE PUSH1 0x1 PUSH1 0x1 PUSH1 0xA0 SHL SUB AND SWAP4 DUP5 PUSH2 0x5DB JUMPI DUP1 PUSH1 0x2 SLOAD SUB PUSH1 0x2 SSTORE JUMPDEST PUSH1 0x40 MLOAD SWAP1 DUP2 MSTORE LOG3 JUMP JUMPDEST DUP5 PUSH1 0x0 MSTORE PUSH1 0x0 DUP3 MSTORE PUSH1 0x40 PUSH1 0x0 KECCAK256 DUP2 DUP2 SLOAD ADD SWAP1 SSTORE PUSH2 0x5D2 JUMP JUMPDEST PUSH4 0x4E487B71 PUSH1 0xE0 SHL PUSH1 0x0 MSTORE PUSH1 0x11 PUSH1 0x4 MSTORE PUSH1 0x24 PUSH1 0x0 REVERT INVALID PUSH1 0x80 PUSH1 0x40 MSTORE PUSH1 0x4 CALLDATASIZE LT ISZERO PUSH2 0x12 JUMPI PUSH1 0x0 DUP1 REVERT JUMPDEST PUSH1 0x0 DUP1 CALLDATALOAD PUSH1 0xE0 SHR DUP1 PUSH4 0x54D50D4 EQ PUSH2 0x1758 JUMPI DUP1 PUSH4 0x6FDDE03 EQ PUSH2 0x169B JUMPI DUP1 PUSH4 0x95EA7B3 EQ PUSH2 0x1674 JUMPI DUP1 PUSH4 0x140BDCBA EQ PUSH2 0x1618 JUMPI DUP1 PUSH4 0x16279055 EQ PUSH2 0x15F1 JUMPI DUP1 PUSH4 0x1694505E EQ PUSH2 0x15AC JUMPI DUP1 PUSH4 0x18160DDD EQ PUSH2 0x158E JUMPI DUP1 PUSH4 0x1ABFA629 EQ PUSH2 0x10B3 JUMPI DUP1 PUSH4 0x21E2C957 EQ PUSH2 0x1532 JUMPI DUP1 PUSH4 0x23B872DD EQ PUSH2 0x1451 JUMPI DUP1 PUSH4 0x2927BACD EQ PUSH2 0x1361 JUMPI DUP1 PUSH4 0x313CE567 EQ PUSH2 0x1345 JUMPI DUP1 PUSH4 0x32F65881 EQ PUSH2 0x12FB JUMPI DUP1 PUSH4 0x36543FB9 EQ PUSH2 0x12DD JUMPI DUP1 PUSH4 0x38A674C5 EQ PUSH2 0x1229 JUMPI DUP1 PUSH4 0x3C19814E EQ PUSH2 0x11DD JUMPI DUP1 PUSH4 0x3F8121A2 EQ PUSH2 0x113B JUMPI DUP1 PUSH4 0x3FECC2E2 EQ PUSH2 0x1102 JUMPI DUP1 PUSH4 0x43A066AA EQ PUSH2 0x10DC JUMPI DUP1 PUSH4 0x49BD5A5E EQ PUSH2 0x10B3 JUMPI DUP1 PUSH4 0x4BAF59F3 EQ PUSH2 0x1090 JUMPI DUP1 PUSH4 0x4CF088D9 EQ PUSH2 0x104B JUMPI DUP1 PUSH4 0x4E6FD6C4 EQ PUSH2 0x102E JUMPI DUP1 PUSH4 0x52795E0B EQ PUSH2 0xF69 JUMPI DUP1 PUSH4 0x53135CA0 EQ PUSH2 0xF46 JUMPI DUP1 PUSH4 0x569EA101 EQ PUSH2 0xF07 JUMPI DUP1 PUSH4 0x570475DC EQ PUSH2 0xED8 JUMPI DUP1 PUSH4 0x5868C32A EQ PUSH2 0xEBA JUMPI DUP1 PUSH4 0x5DF45A37 EQ PUSH2 0xE8B JUMPI DUP1 PUSH4 0x615C4409 EQ PUSH2 0xE62 JUMPI DUP1 PUSH4 0x622E6AD8 EQ PUSH2 0xE3F JUMPI DUP1 PUSH4 0x6402511E EQ PUSH2 0xE1C JUMPI DUP1 PUSH4 0x66D57B95 EQ PUSH2 0xDFE JUMPI DUP1 PUSH4 0x70A08231 EQ PUSH2 0xDC4 JUMPI DUP1 PUSH4 0x715018A6 EQ PUSH2 0xD67 JUMPI DUP1 PUSH4 0x7464024C EQ PUSH2 0x95D JUMPI DUP1 PUSH4 0x8187F516 EQ PUSH2 0xD00 JUMPI DUP1 PUSH4 0x85F8C259 EQ PUSH2 0xCDE JUMPI DUP1 PUSH4 0x861BD3C5 EQ PUSH2 0xC7F JUMPI DUP1 PUSH4 0x86917524 EQ PUSH2 0xC61 JUMPI DUP1 PUSH4 0x8733CFD3 EQ PUSH2 0xC28 JUMPI DUP1 PUSH4 0x87894D03 EQ PUSH2 0xBFA JUMPI DUP1 PUSH4 0x8DA5CB5B EQ PUSH2 0xBD1 JUMPI DUP1 PUSH4 0x906E9DD0 EQ PUSH2 0xB36 JUMPI DUP1 PUSH4 0x90E82F24 EQ PUSH2 0xAD3 JUMPI DUP1 PUSH4 0x9315E561 EQ PUSH2 0xAB5 JUMPI DUP1 PUSH4 0x95D89B41 EQ PUSH2 0x9A4 JUMPI DUP1 PUSH4 0x9F54790D EQ PUSH2 0x986 JUMPI DUP1 PUSH4 0xA33BCE28 EQ PUSH2 0x617 JUMPI DUP1 PUSH4 0xA4823059 EQ PUSH2 0x95D JUMPI DUP1 PUSH4 0xA5ECE941 EQ PUSH2 0x934 JUMPI DUP1 PUSH4 0xA82524B2 EQ PUSH2 0x916 JUMPI DUP1 PUSH4 0xA9059CBB EQ PUSH2 0x8E4 JUMPI DUP1 PUSH4 0xAAA2B8C8 EQ PUSH2 0x8BB JUMPI DUP1 PUSH4 0xAF24CCAA EQ PUSH2 0x83E JUMPI DUP1 PUSH4 0xB99CE15E EQ PUSH2 0x7EC JUMPI DUP1 PUSH4 0xC54E44EB EQ PUSH2 0x7A7 JUMPI DUP1 PUSH4 0xC596F3FE EQ PUSH2 0x779 JUMPI DUP1 PUSH4 0xC9688086 EQ PUSH2 0x75B JUMPI DUP1 PUSH4 0xD01DD6D2 EQ PUSH2 0x709 JUMPI DUP1 PUSH4 0xD123DE31 EQ PUSH2 0x6DD JUMPI DUP1 PUSH4 0xD4273CD6 EQ PUSH2 0x6BF JUMPI DUP1 PUSH4 0xD7517CAA EQ PUSH2 0x640 JUMPI DUP1 PUSH4 0xD9C821F3 EQ PUSH2 0x617 JUMPI DUP1 PUSH4 0xDBAC26E9 EQ PUSH2 0x5D8 JUMPI DUP1 PUSH4 0xDD1C35BC EQ PUSH2 0x4B1 JUMPI DUP1 PUSH4 0xDD62ED3E EQ PUSH2 0x45C JUMPI DUP1 PUSH4 0xF2FDE38B EQ PUSH2 0x3D3 JUMPI DUP1 PUSH4 0xFDC0CDBF EQ PUSH2 0x3AF JUMPI PUSH4 0xFF919151 EQ PUSH2 0x31F JUMPI PUSH1 0x0 DUP1 REVERT JUMPDEST CALLVALUE PUSH2 0x3AC JUMPI DUP1 PUSH1 0x3 NOT CALLDATASIZE ADD SLT PUSH2 0x3AC JUMPI PUSH1 0x12 SLOAD PUSH1 0x14 SLOAD PUSH1 0xA0 SWAP3 PUSH1 0x8 SWAP3 SWAP1 SWAP3 SHR PUSH1 0xFF AND ISZERO SWAP2 SWAP1 DUP3 ISZERO PUSH2 0x36D JUMPI DUP2 JUMPDEST PUSH1 0x40 MLOAD SWAP4 ISZERO DUP5 MSTORE PUSH1 0x20 DUP5 ADD MSTORE PUSH1 0x40 DUP4 ADD MSTORE PUSH3 0x278D00 PUSH1 0x60 DUP4 ADD MSTORE PUSH1 0x80 DUP3 ADD MSTORE RETURN JUMPDEST DUP1 ISZERO PUSH2 0x3A4 JUMPI DUP1 JUMPDEST PUSH2 0x37E DUP2 PUSH2 0x18FE JUMP JUMPDEST TIMESTAMP LT PUSH2 0x38B JUMPI POP DUP2 PUSH2 0x34C JUMP JUMPDEST PUSH2 0x39E SWAP1 PUSH2 0x399 TIMESTAMP SWAP2 PUSH2 0x18FE JUMP JUMPDEST PUSH2 0x1BD7 JUMP JUMPDEST SWAP2 PUSH2 0x34C JUMP JUMPDEST PUSH1 0x13 SLOAD PUSH2 0x375 JUMP JUMPDEST DUP1 REVERT JUMPDEST POP CALLVALUE PUSH2 0x3AC JUMPI DUP1 PUSH1 0x3 NOT CALLDATASIZE ADD SLT PUSH2 0x3AC JUMPI PUSH2 0x3C8 PUSH2 0x1C63 JUMP JUMPDEST PUSH2 0x3D0 PUSH2 0x2A1F JUMP JUMPDEST DUP1 RETURN JUMPDEST POP CALLVALUE PUSH2 0x3AC JUMPI PUSH1 0x20 CALLDATASIZE PUSH1 0x3 NOT ADD SLT PUSH2 0x3AC JUMPI PUSH2 0x3ED PUSH2 0x17D2 JUMP JUMPDEST PUSH2 0x3F5 PUSH2 0x1C63 JUMP JUMPDEST PUSH1 0x1 PUSH1 0x1 PUSH1 0xA0 SHL SUB AND DUP1 ISZERO PUSH2 0x448 JUMPI PUSH1 0x5 DUP1 SLOAD PUSH1 0x1 PUSH1 0x1 PUSH1 0xA0 SHL SUB NOT DUP2 AND DUP4 OR SWAP1 SWAP2 SSTORE PUSH1 0x1 PUSH1 0x1 PUSH1 0xA0 SHL SUB AND PUSH32 0x8BE0079C531659141344CD1FD0A4F28419497F9722A3DAAFE3B4186F6B6457E0 DUP4 DUP1 LOG3 DUP1 RETURN JUMPDEST PUSH4 0x1E4FBDF7 PUSH1 0xE0 SHL DUP3 MSTORE PUSH1 0x4 DUP3 SWAP1 MSTORE PUSH1 0x24 DUP3 REVERT JUMPDEST POP CALLVALUE PUSH2 0x3AC JUMPI PUSH1 0x40 CALLDATASIZE PUSH1 0x3 NOT ADD SLT PUSH2 0x3AC JUMPI PUSH1 0x40 PUSH2 0x478 PUSH2 0x17D2 JUMP JUMPDEST SWAP2 PUSH2 0x481 PUSH2 0x17E8 JUMP JUMPDEST SWAP3 PUSH1 0x1 DUP1 PUSH1 0xA0 SHL SUB AND DUP2 MSTORE PUSH1 0x1 PUSH1 0x20 MSTORE KECCAK256 SWAP1 PUSH1 0x1 DUP1 PUSH1 0xA0 SHL SUB AND PUSH1 0x0 MSTORE PUSH1 0x20 MSTORE PUSH1 0x20 PUSH1 0x40 PUSH1 0x0 KECCAK256 SLOAD PUSH1 0x40 MLOAD SWAP1 DUP2 MSTORE RETURN JUMPDEST POP CALLVALUE PUSH2 0x3AC JUMPI PUSH1 0x20 CALLDATASIZE PUSH1 0x3 NOT ADD SLT PUSH2 0x3AC JUMPI PUSH1 0x4 CALLDATALOAD PUSH32 0x0 PUSH1 0x1 PUSH1 0x1 PUSH1 0xA0 SHL SUB AND CALLER DUP2 SWAP1 SUB PUSH2 0x59B JUMPI PUSH1 0x6 SLOAD PUSH1 0x1 PUSH1 0x1 PUSH1 0xA0 SHL SUB AND PUSH1 0x0 DUP2 DUP2 MSTORE PUSH1 0x20 DUP2 SWAP1 MSTORE PUSH1 0x40 SWAP1 KECCAK256 SLOAD SWAP1 SWAP3 SWAP1 PUSH1 0x3 SWAP1 DIV SWAP1 DUP2 DUP2 LT PUSH2 0x593 JUMPI POP SWAP1 JUMPDEST DUP2 PUSH2 0x52E JUMPI DUP4 DUP1 RETURN JUMPDEST PUSH2 0x537 SWAP3 PUSH2 0x1C8C JUMP JUMPDEST PUSH1 0x6 SLOAD DUP2 SWAP1 PUSH1 0x1 PUSH1 0x1 PUSH1 0xA0 SHL SUB AND DUP1 EXTCODESIZE ISZERO PUSH2 0x590 JUMPI DUP2 DUP1 SWAP2 PUSH1 0x4 PUSH1 0x40 MLOAD DUP1 SWAP6 DUP2 SWAP4 PUSH4 0xFFF6CAE9 PUSH1 0xE0 SHL DUP4 MSTORE GAS CALL DUP1 ISZERO PUSH2 0x583 JUMPI PUSH2 0x573 JUMPI DUP2 DUP4 DUP1 RETURN JUMPDEST PUSH2 0x57C SWAP2 PUSH2 0x181C JUMP JUMPDEST CODESIZE DUP2 DUP2 DUP4 DUP1 RETURN JUMPDEST POP PUSH1 0x40 MLOAD SWAP1 RETURNDATASIZE SWAP1 DUP3 RETURNDATACOPY RETURNDATASIZE SWAP1 REVERT JUMPDEST POP REVERT JUMPDEST SWAP1 POP SWAP1 PUSH2 0x525 JUMP JUMPDEST PUSH1 0x40 MLOAD PUSH3 0x461BCD PUSH1 0xE5 SHL DUP2 MSTORE PUSH1 0x20 PUSH1 0x4 DUP3 ADD MSTORE PUSH1 0x15 PUSH1 0x24 DUP3 ADD MSTORE PUSH21 0x13DB9B1E481CDD185ADA5B99C818DBDB9D1C9858DD PUSH1 0x5A SHL PUSH1 0x44 DUP3 ADD MSTORE PUSH1 0x64 SWAP1 REVERT JUMPDEST POP CALLVALUE PUSH2 0x3AC JUMPI PUSH1 0x20 CALLDATASIZE PUSH1 0x3 NOT ADD SLT PUSH2 0x3AC JUMPI PUSH1 0x20 SWAP1 PUSH1 0xFF SWAP1 PUSH1 0x40 SWAP1 PUSH1 0x1 PUSH1 0x1 PUSH1 0xA0 SHL SUB PUSH2 0x603 PUSH2 0x17D2 JUMP JUMPDEST AND DUP2 MSTORE PUSH1 0x19 DUP5 MSTORE KECCAK256 SLOAD AND PUSH1 0x40 MLOAD SWAP1 ISZERO ISZERO DUP2 MSTORE RETURN JUMPDEST POP CALLVALUE PUSH2 0x3AC JUMPI DUP1 PUSH1 0x3 NOT CALLDATASIZE ADD SLT PUSH2 0x3AC JUMPI PUSH1 0x7 SLOAD PUSH1 0x40 MLOAD PUSH1 0x1 PUSH1 0x1 PUSH1 0xA0 SHL SUB SWAP1 SWAP2 AND DUP2 MSTORE PUSH1 0x20 SWAP1 RETURN JUMPDEST POP CALLVALUE PUSH2 0x3AC JUMPI DUP1 PUSH1 0x3 NOT CALLDATASIZE ADD SLT PUSH2 0x3AC JUMPI PUSH1 0xA0 SWAP1 PUSH1 0x10 SLOAD SWAP1 PUSH1 0x11 SLOAD PUSH2 0x665 DUP2 DUP5 PUSH2 0x1924 JUMP JUMPDEST SWAP2 DUP3 TIMESTAMP LT SWAP3 DUP4 PUSH1 0x0 EQ PUSH2 0x6B8 JUMPI PUSH2 0x67E SWAP2 POP TIMESTAMP SWAP1 PUSH2 0x1BD7 JUMP JUMPDEST SWAP1 JUMPDEST PUSH1 0x12 SLOAD PUSH1 0xFF AND SWAP4 DUP5 SWAP4 DUP5 PUSH2 0x6B0 JUMPI JUMPDEST POP PUSH1 0x40 MLOAD SWAP5 ISZERO ISZERO DUP6 MSTORE PUSH1 0x20 DUP6 ADD MSTORE PUSH1 0x40 DUP5 ADD MSTORE PUSH1 0x60 DUP4 ADD MSTORE ISZERO ISZERO PUSH1 0x80 DUP3 ADD MSTORE RETURN JUMPDEST SWAP4 POP CODESIZE PUSH2 0x68F JUMP JUMPDEST POP SWAP1 PUSH2 0x680 JUMP JUMPDEST POP CALLVALUE PUSH2 0x3AC JUMPI DUP1 PUSH1 0x3 NOT CALLDATASIZE ADD SLT PUSH2 0x3AC JUMPI PUSH1 0x20 PUSH1 0x14 SLOAD PUSH1 0x40 MLOAD SWAP1 DUP2 MSTORE RETURN JUMPDEST POP CALLVALUE PUSH2 0x3AC JUMPI DUP1 PUSH1 0x3 NOT CALLDATASIZE ADD SLT PUSH2 0x3AC JUMPI PUSH1 0x20 PUSH2 0x6F8 PUSH2 0x1ACE JUMP JUMPDEST PUSH1 0x1 PUSH1 0x1 PUSH1 0x70 SHL SUB PUSH1 0x40 MLOAD SWAP2 AND DUP2 MSTORE RETURN JUMPDEST POP CALLVALUE PUSH2 0x3AC JUMPI PUSH1 0x40 CALLDATASIZE PUSH1 0x3 NOT ADD SLT PUSH2 0x3AC JUMPI PUSH2 0x3D0 PUSH2 0x726 PUSH2 0x17D2 JUMP JUMPDEST PUSH2 0x72E PUSH2 0x180D JUMP JUMPDEST SWAP1 PUSH2 0x737 PUSH2 0x1C63 JUMP JUMPDEST PUSH1 0x1 DUP1 PUSH1 0xA0 SHL SUB AND DUP4 MSTORE PUSH1 0x19 PUSH1 0x20 MSTORE PUSH1 0x40 DUP4 KECCAK256 SWAP1 PUSH1 0xFF DUP1 NOT DUP4 SLOAD AND SWAP2 ISZERO ISZERO AND OR SWAP1 SSTORE JUMP JUMPDEST POP CALLVALUE PUSH2 0x3AC JUMPI DUP1 PUSH1 0x3 NOT CALLDATASIZE ADD SLT PUSH2 0x3AC JUMPI PUSH1 0x20 PUSH1 0x1A SLOAD PUSH1 0x40 MLOAD SWAP1 DUP2 MSTORE RETURN JUMPDEST POP CALLVALUE PUSH2 0x3AC JUMPI PUSH1 0x40 CALLDATASIZE PUSH1 0x3 NOT ADD SLT PUSH2 0x3AC JUMPI PUSH2 0x3D0 PUSH2 0x796 PUSH2 0x17D2 JUMP JUMPDEST PUSH2 0x79E PUSH2 0x1C63 JUMP JUMPDEST PUSH1 0x24 CALLDATALOAD SWAP1 PUSH2 0x19D6 JUMP JUMPDEST POP CALLVALUE PUSH2 0x3AC JUMPI DUP1 PUSH1 0x3 NOT CALLDATASIZE ADD SLT PUSH2 0x3AC JUMPI PUSH1 0x40 MLOAD PUSH32 0x0 PUSH1 0x1 PUSH1 0x1 PUSH1 0xA0 SHL SUB AND DUP2 MSTORE PUSH1 0x20 SWAP1 RETURN JUMPDEST POP CALLVALUE PUSH2 0x3AC JUMPI PUSH1 0x40 CALLDATASIZE PUSH1 0x3 NOT ADD SLT PUSH2 0x3AC JUMPI PUSH2 0x3D0 PUSH2 0x809 PUSH2 0x17D2 JUMP JUMPDEST PUSH2 0x811 PUSH2 0x180D JUMP JUMPDEST SWAP1 PUSH2 0x81A PUSH2 0x1C63 JUMP JUMPDEST PUSH1 0x1 DUP1 PUSH1 0xA0 SHL SUB AND DUP4 MSTORE PUSH1 0x18 PUSH1 0x20 MSTORE PUSH1 0x40 DUP4 KECCAK256 SWAP1 PUSH1 0xFF DUP1 NOT DUP4 SLOAD AND SWAP2 ISZERO ISZERO AND OR SWAP1 SSTORE JUMP JUMPDEST POP CALLVALUE PUSH2 0x3AC JUMPI PUSH1 0x20 CALLDATASIZE PUSH1 0x3 NOT ADD SLT PUSH2 0x3AC JUMPI PUSH32 0x2C8CCBEF4032016D78404AFA804C622487AE3ACAB4CAEFF4B2DBA121D7488C18 PUSH1 0x20 PUSH2 0x87B PUSH2 0x17FE JUMP JUMPDEST PUSH2 0x883 PUSH2 0x1C63 JUMP JUMPDEST DUP1 ISZERO ISZERO SWAP1 PUSH1 0x12 SLOAD PUSH2 0xFF00 DUP4 PUSH1 0x8 SHL AND SWAP1 PUSH2 0xFF00 NOT AND OR PUSH1 0x12 SSTORE PUSH1 0x0 EQ PUSH2 0x8B2 JUMPI TIMESTAMP PUSH1 0x14 SSTORE JUMPDEST PUSH1 0x40 MLOAD SWAP1 DUP2 MSTORE LOG1 DUP1 RETURN JUMPDEST DUP4 PUSH1 0x14 SSTORE PUSH2 0x8A8 JUMP JUMPDEST POP CALLVALUE PUSH2 0x3AC JUMPI DUP1 PUSH1 0x3 NOT CALLDATASIZE ADD SLT PUSH2 0x3AC JUMPI PUSH1 0x9 SLOAD PUSH1 0x40 MLOAD PUSH1 0x1 PUSH1 0x1 PUSH1 0xA0 SHL SUB SWAP1 SWAP2 AND DUP2 MSTORE PUSH1 0x20 SWAP1 RETURN JUMPDEST POP CALLVALUE PUSH2 0x3AC JUMPI PUSH1 0x40 CALLDATASIZE PUSH1 0x3 NOT ADD SLT PUSH2 0x3AC JUMPI PUSH2 0x90B PUSH2 0x901 PUSH2 0x17D2 JUMP JUMPDEST PUSH1 0x24 CALLDATALOAD SWAP1 CALLER PUSH2 0x1C8C JUMP JUMPDEST PUSH1 0x20 PUSH1 0x40 MLOAD PUSH1 0x1 DUP2 MSTORE RETURN JUMPDEST POP CALLVALUE PUSH2 0x3AC JUMPI DUP1 PUSH1 0x3 NOT CALLDATASIZE ADD SLT PUSH2 0x3AC JUMPI PUSH1 0x20 PUSH1 0x10 SLOAD PUSH1 0x40 MLOAD SWAP1 DUP2 MSTORE RETURN JUMPDEST POP CALLVALUE PUSH2 0x3AC JUMPI DUP1 PUSH1 0x3 NOT CALLDATASIZE ADD SLT PUSH2 0x3AC JUMPI PUSH1 0xA SLOAD PUSH1 0x40 MLOAD PUSH1 0x1 PUSH1 0x1 PUSH1 0xA0 SHL SUB SWAP1 SWAP2 AND DUP2 MSTORE PUSH1 0x20 SWAP1 RETURN JUMPDEST POP CALLVALUE PUSH2 0x3AC JUMPI DUP1 PUSH1 0x3 NOT CALLDATASIZE ADD SLT PUSH2 0x3AC JUMPI PUSH1 0x8 SLOAD PUSH1 0x40 MLOAD PUSH1 0x1 PUSH1 0x1 PUSH1 0xA0 SHL SUB SWAP1 SWAP2 AND DUP2 MSTORE PUSH1 0x20 SWAP1 RETURN JUMPDEST POP CALLVALUE PUSH2 0x3AC JUMPI DUP1 PUSH1 0x3 NOT CALLDATASIZE ADD SLT PUSH2 0x3AC JUMPI PUSH1 0x20 PUSH1 0x13 SLOAD PUSH1 0x40 MLOAD SWAP1 DUP2 MSTORE RETURN JUMPDEST POP CALLVALUE PUSH2 0x3AC JUMPI DUP1 PUSH1 0x3 NOT CALLDATASIZE ADD SLT PUSH2 0x3AC JUMPI PUSH1 0x40 MLOAD SWAP1 DUP1 PUSH1 0x4 SLOAD SWAP1 DUP2 PUSH1 0x1 SHR SWAP2 PUSH1 0x1 DUP2 AND DUP1 ISZERO PUSH2 0xAAB JUMPI JUMPDEST PUSH1 0x20 DUP5 LT DUP2 EQ PUSH2 0xA97 JUMPI DUP4 DUP7 MSTORE SWAP1 DUP2 ISZERO PUSH2 0xA70 JUMPI POP PUSH1 0x1 EQ PUSH2 0xA13 JUMPI JUMPDEST PUSH2 0xA0F DUP5 PUSH2 0x9FB DUP2 DUP7 SUB DUP3 PUSH2 0x181C JUMP JUMPDEST PUSH1 0x40 MLOAD SWAP2 DUP3 SWAP2 PUSH1 0x20 DUP4 MSTORE PUSH1 0x20 DUP4 ADD SWAP1 PUSH2 0x1791 JUMP JUMPDEST SUB SWAP1 RETURN JUMPDEST PUSH1 0x4 DUP2 MSTORE PUSH32 0x8A35ACFBC15FF81A39AE7D344FD709F28E8600B4AA8C65C6B64BFE7FE36BD19B SWAP4 SWAP3 POP SWAP1 JUMPDEST DUP1 DUP3 LT PUSH2 0xA56 JUMPI POP SWAP1 SWAP2 POP DUP2 ADD PUSH1 0x20 ADD PUSH2 0x9FB DUP3 PUSH2 0x9EB JUMP JUMPDEST SWAP2 SWAP3 PUSH1 0x1 DUP2 PUSH1 0x20 SWAP3 SLOAD DUP4 DUP6 DUP9 ADD ADD MSTORE ADD SWAP2 ADD SWAP1 SWAP3 SWAP2 PUSH2 0xA3D JUMP JUMPDEST PUSH1 0xFF NOT AND PUSH1 0x20 DUP1 DUP8 ADD SWAP2 SWAP1 SWAP2 MSTORE SWAP3 ISZERO ISZERO PUSH1 0x5 SHL DUP6 ADD SWAP1 SWAP3 ADD SWAP3 POP PUSH2 0x9FB SWAP2 POP DUP4 SWAP1 POP PUSH2 0x9EB JUMP JUMPDEST PUSH4 0x4E487B71 PUSH1 0xE0 SHL DUP4 MSTORE PUSH1 0x22 PUSH1 0x4 MSTORE PUSH1 0x24 DUP4 REVERT JUMPDEST SWAP3 PUSH1 0x7F AND SWAP3 PUSH2 0x9CE JUMP JUMPDEST POP CALLVALUE PUSH2 0x3AC JUMPI DUP1 PUSH1 0x3 NOT CALLDATASIZE ADD SLT PUSH2 0x3AC JUMPI PUSH1 0x20 PUSH1 0xE SLOAD PUSH1 0x40 MLOAD SWAP1 DUP2 MSTORE RETURN JUMPDEST POP CALLVALUE PUSH2 0x3AC JUMPI PUSH2 0xAE2 CALLDATASIZE PUSH2 0x1854 JUMP JUMPDEST PUSH2 0xAEA PUSH2 0x1C63 JUMP JUMPDEST DUP3 JUMPDEST DUP3 MLOAD DUP2 LT ISZERO PUSH2 0xB32 JUMPI PUSH1 0x1 SWAP1 PUSH1 0x1 PUSH1 0x1 PUSH1 0xA0 SHL SUB PUSH2 0xB0A DUP3 DUP7 PUSH2 0x1931 JUMP JUMPDEST MLOAD AND DUP6 MSTORE PUSH1 0x18 PUSH1 0x20 MSTORE PUSH2 0xB2C DUP4 PUSH1 0x40 DUP8 KECCAK256 SWAP1 PUSH1 0xFF DUP1 NOT DUP4 SLOAD AND SWAP2 ISZERO ISZERO AND OR SWAP1 SSTORE JUMP JUMPDEST ADD PUSH2 0xAEC JUMP JUMPDEST DUP4 DUP1 RETURN JUMPDEST POP CALLVALUE PUSH2 0x3AC JUMPI PUSH1 0x20 CALLDATASIZE PUSH1 0x3 NOT ADD SLT PUSH2 0x3AC JUMPI PUSH2 0xB50 PUSH2 0x17D2 JUMP JUMPDEST PUSH2 0xB58 PUSH2 0x1C63 JUMP JUMPDEST PUSH1 0x1 PUSH1 0x1 PUSH1 0xA0 SHL SUB AND DUP1 ISZERO PUSH2 0xBC2 JUMPI PUSH1 0xA DUP1 SLOAD PUSH1 0x1 PUSH1 0x1 PUSH1 0xA0 SHL SUB NOT DUP2 AND DUP4 OR SWAP1 SWAP2 SSTORE DUP2 DUP4 MSTORE PUSH1 0x18 PUSH1 0x20 MSTORE PUSH1 0x40 DUP4 KECCAK256 DUP1 SLOAD PUSH1 0xFF NOT AND PUSH1 0x1 OR SWAP1 SSTORE PUSH1 0x1 PUSH1 0x1 PUSH1 0xA0 SHL SUB AND PUSH32 0xA8EFC72ED34F90017DF79620D1972D42B8E3B17EB0077FC5FC46CBF1A19ED9A9 DUP4 DUP1 LOG3 DUP1 RETURN JUMPDEST PUSH4 0xD92E233D PUSH1 0xE0 SHL DUP3 MSTORE PUSH1 0x4 DUP3 REVERT JUMPDEST POP CALLVALUE PUSH2 0x3AC JUMPI DUP1 PUSH1 0x3 NOT CALLDATASIZE ADD SLT PUSH2 0x3AC JUMPI PUSH1 0x5 SLOAD PUSH1 0x40 MLOAD PUSH1 0x1 PUSH1 0x1 PUSH1 0xA0 SHL SUB SWAP1 SWAP2 AND DUP2 MSTORE PUSH1 0x20 SWAP1 RETURN JUMPDEST POP CALLVALUE PUSH2 0x3AC JUMPI PUSH1 0x20 CALLDATASIZE PUSH1 0x3 NOT ADD SLT PUSH2 0x3AC JUMPI PUSH1 0x20 PUSH2 0xC1E PUSH2 0xC19 PUSH2 0x17D2 JUMP JUMPDEST PUSH2 0x195B JUMP JUMPDEST PUSH1 0x40 MLOAD SWAP1 ISZERO ISZERO DUP2 MSTORE RETURN JUMPDEST POP CALLVALUE PUSH2 0x3AC JUMPI PUSH1 0x20 CALLDATASIZE PUSH1 0x3 NOT ADD SLT PUSH2 0x3AC JUMPI PUSH1 0x20 SWAP1 PUSH1 0x40 SWAP1 PUSH1 0x1 PUSH1 0x1 PUSH1 0xA0 SHL SUB PUSH2 0xC50 PUSH2 0x17D2 JUMP JUMPDEST AND DUP2 MSTORE PUSH1 0x16 DUP4 MSTORE KECCAK256 SLOAD PUSH1 0x40 MLOAD SWAP1 DUP2 MSTORE RETURN JUMPDEST POP CALLVALUE PUSH2 0x3AC JUMPI DUP1 PUSH1 0x3 NOT CALLDATASIZE ADD SLT PUSH2 0x3AC JUMPI PUSH1 0x20 PUSH1 0xF SLOAD PUSH1 0x40 MLOAD SWAP1 DUP2 MSTORE RETURN JUMPDEST POP CALLVALUE PUSH2 0x3AC JUMPI PUSH2 0xC8E CALLDATASIZE PUSH2 0x1854 JUMP JUMPDEST PUSH2 0xC96 PUSH2 0x1C63 JUMP JUMPDEST DUP3 JUMPDEST DUP3 MLOAD DUP2 LT ISZERO PUSH2 0xB32 JUMPI PUSH1 0x1 SWAP1 PUSH1 0x1 PUSH1 0x1 PUSH1 0xA0 SHL SUB PUSH2 0xCB6 DUP3 DUP7 PUSH2 0x1931 JUMP JUMPDEST MLOAD AND DUP6 MSTORE PUSH1 0x19 PUSH1 0x20 MSTORE PUSH2 0xCD8 DUP4 PUSH1 0x40 DUP8 KECCAK256 SWAP1 PUSH1 0xFF DUP1 NOT DUP4 SLOAD AND SWAP2 ISZERO ISZERO AND OR SWAP1 SSTORE JUMP JUMPDEST ADD PUSH2 0xC98 JUMP JUMPDEST POP CALLVALUE PUSH2 0x3AC JUMPI PUSH1 0x20 PUSH2 0xCF8 PUSH2 0xCF2 CALLDATASIZE PUSH2 0x1772 JUMP JUMPDEST SWAP2 PUSH2 0x2A55 JUMP JUMPDEST PUSH1 0x40 MLOAD SWAP1 DUP2 MSTORE RETURN JUMPDEST POP CALLVALUE PUSH2 0x3AC JUMPI PUSH1 0x20 CALLDATASIZE PUSH1 0x3 NOT ADD SLT PUSH2 0x3AC JUMPI PUSH2 0xD1A PUSH2 0x17D2 JUMP JUMPDEST PUSH2 0xD22 PUSH2 0x1C63 JUMP JUMPDEST PUSH1 0x1 PUSH1 0x1 PUSH1 0xA0 SHL SUB AND DUP1 ISZERO PUSH2 0xBC2 JUMPI PUSH1 0x6 SLOAD PUSH1 0x1 PUSH1 0x1 PUSH1 0xA0 SHL SUB DUP2 AND PUSH2 0xD58 JUMPI PUSH1 0x1 PUSH1 0x1 PUSH1 0xA0 SHL SUB NOT AND OR PUSH1 0x6 SSTORE PUSH2 0x3D0 PUSH2 0x2A1F JUMP JUMPDEST PUSH4 0xA741A045 PUSH1 0xE0 SHL DUP4 MSTORE PUSH1 0x4 DUP4 REVERT JUMPDEST POP CALLVALUE PUSH2 0x3AC JUMPI DUP1 PUSH1 0x3 NOT CALLDATASIZE ADD SLT PUSH2 0x3AC JUMPI PUSH2 0xD80 PUSH2 0x1C63 JUMP JUMPDEST PUSH1 0x5 DUP1 SLOAD PUSH1 0x1 PUSH1 0x1 PUSH1 0xA0 SHL SUB NOT DUP2 AND SWAP1 SWAP2 SSTORE DUP2 SWAP1 PUSH1 0x1 PUSH1 0x1 PUSH1 0xA0 SHL SUB AND PUSH32 0x8BE0079C531659141344CD1FD0A4F28419497F9722A3DAAFE3B4186F6B6457E0 DUP3 DUP1 LOG3 DUP1 RETURN JUMPDEST POP CALLVALUE PUSH2 0x3AC JUMPI PUSH1 0x20 CALLDATASIZE PUSH1 0x3 NOT ADD SLT PUSH2 0x3AC JUMPI PUSH1 0x20 PUSH2 0xCF8 PUSH2 0xDE3 PUSH2 0x17D2 JUMP JUMPDEST PUSH1 0x1 PUSH1 0x1 PUSH1 0xA0 SHL SUB AND PUSH1 0x0 SWAP1 DUP2 MSTORE PUSH1 0x20 DUP2 SWAP1 MSTORE PUSH1 0x40 SWAP1 KECCAK256 SLOAD SWAP1 JUMP JUMPDEST POP CALLVALUE PUSH2 0x3AC JUMPI DUP1 PUSH1 0x3 NOT CALLDATASIZE ADD SLT PUSH2 0x3AC JUMPI PUSH1 0x20 PUSH1 0xD SLOAD PUSH1 0x40 MLOAD SWAP1 DUP2 MSTORE RETURN JUMPDEST POP CALLVALUE PUSH2 0x3AC JUMPI PUSH1 0x20 CALLDATASIZE PUSH1 0x3 NOT ADD SLT PUSH2 0x3AC JUMPI PUSH2 0xE36 PUSH2 0x1C63 JUMP JUMPDEST PUSH1 0x4 CALLDATALOAD PUSH1 0xF SSTORE DUP1 RETURN JUMPDEST POP CALLVALUE PUSH2 0x3AC JUMPI PUSH1 0x20 CALLDATASIZE PUSH1 0x3 NOT ADD SLT PUSH2 0x3AC JUMPI PUSH2 0xE59 PUSH2 0x1C63 JUMP JUMPDEST PUSH1 0x4 CALLDATALOAD PUSH1 0xC SSTORE DUP1 RETURN JUMPDEST POP CALLVALUE PUSH2 0x3AC JUMPI DUP1 PUSH1 0x3 NOT CALLDATASIZE ADD SLT PUSH2 0x3AC JUMPI PUSH1 0xB SLOAD PUSH1 0x40 MLOAD PUSH1 0x1 PUSH1 0x1 PUSH1 0xA0 SHL SUB SWAP1 SWAP2 AND DUP2 MSTORE PUSH1 0x20 SWAP1 RETURN JUMPDEST POP CALLVALUE PUSH2 0x3AC JUMPI DUP1 PUSH1 0x3 NOT CALLDATASIZE ADD SLT PUSH2 0x3AC JUMPI PUSH1 0x60 PUSH1 0xD SLOAD PUSH1 0xE SLOAD PUSH1 0xF SLOAD SWAP1 PUSH1 0x40 MLOAD SWAP3 DUP4 MSTORE PUSH1 0x20 DUP4 ADD MSTORE PUSH1 0x40 DUP3 ADD MSTORE RETURN JUMPDEST POP CALLVALUE PUSH2 0x3AC JUMPI DUP1 PUSH1 0x3 NOT CALLDATASIZE ADD SLT PUSH2 0x3AC JUMPI PUSH1 0x20 PUSH1 0x11 SLOAD PUSH1 0x40 MLOAD SWAP1 DUP2 MSTORE RETURN JUMPDEST POP CALLVALUE PUSH2 0x3AC JUMPI DUP1 PUSH1 0x3 NOT CALLDATASIZE ADD SLT PUSH2 0x3AC JUMPI PUSH1 0x40 SWAP1 PUSH2 0xEFB PUSH1 0xD SLOAD PUSH1 0xE SLOAD SWAP1 PUSH2 0x1924 JUMP JUMPDEST DUP3 MLOAD SWAP2 DUP3 MSTORE PUSH1 0x20 DUP3 ADD MSTORE RETURN JUMPDEST POP CALLVALUE PUSH2 0x3AC JUMPI PUSH1 0x20 CALLDATASIZE PUSH1 0x3 NOT ADD SLT PUSH2 0x3AC JUMPI PUSH1 0x20 SWAP1 PUSH1 0xFF SWAP1 PUSH1 0x40 SWAP1 PUSH1 0x1 PUSH1 0x1 PUSH1 0xA0 SHL SUB PUSH2 0xF32 PUSH2 0x17D2 JUMP JUMPDEST AND DUP2 MSTORE PUSH1 0x18 DUP5 MSTORE KECCAK256 SLOAD AND PUSH1 0x40 MLOAD SWAP1 ISZERO ISZERO DUP2 MSTORE RETURN JUMPDEST POP CALLVALUE PUSH2 0x3AC JUMPI DUP1 PUSH1 0x3 NOT CALLDATASIZE ADD SLT PUSH2 0x3AC JUMPI PUSH1 0x20 PUSH1 0xFF PUSH1 0x12 SLOAD AND PUSH1 0x40 MLOAD SWAP1 ISZERO ISZERO DUP2 MSTORE RETURN JUMPDEST POP CALLVALUE PUSH2 0x3AC JUMPI DUP1 PUSH1 0x3 NOT CALLDATASIZE ADD SLT PUSH2 0x3AC JUMPI CALLER PUSH32 0x0 PUSH1 0x1 PUSH1 0x1 PUSH1 0xA0 SHL SUB AND EQ DUP1 ISZERO PUSH2 0x101A JUMPI JUMPDEST ISZERO PUSH2 0xFC2 JUMPI PUSH2 0xFBA PUSH2 0x294D JUMP JUMPDEST PUSH2 0x3D0 PUSH2 0x2839 JUMP JUMPDEST PUSH1 0x40 MLOAD PUSH3 0x461BCD PUSH1 0xE5 SHL DUP2 MSTORE PUSH1 0x20 PUSH1 0x4 DUP3 ADD MSTORE PUSH1 0x2A PUSH1 0x24 DUP3 ADD MSTORE PUSH32 0x4F6E6C79207374616B696E67206F72206C6971756964697479207374616B696E PUSH1 0x44 DUP3 ADD MSTORE PUSH10 0x19C818DBDB9D1C9858DD PUSH1 0xB2 SHL PUSH1 0x64 DUP3 ADD MSTORE PUSH1 0x84 SWAP1 REVERT JUMPDEST POP PUSH1 0x7 SLOAD PUSH1 0x1 PUSH1 0x1 PUSH1 0xA0 SHL SUB AND CALLER EQ PUSH2 0xFAD JUMP JUMPDEST POP CALLVALUE PUSH2 0x3AC JUMPI DUP1 PUSH1 0x3 NOT CALLDATASIZE ADD SLT PUSH2 0x3AC JUMPI PUSH1 0x20 PUSH1 0x40 MLOAD PUSH2 0xDEAD DUP2 MSTORE RETURN JUMPDEST POP CALLVALUE PUSH2 0x3AC JUMPI DUP1 PUSH1 0x3 NOT CALLDATASIZE ADD SLT PUSH2 0x3AC JUMPI PUSH1 0x40 MLOAD PUSH32 0x0 PUSH1 0x1 PUSH1 0x1 PUSH1 0xA0 SHL SUB AND DUP2 MSTORE PUSH1 0x20 SWAP1 RETURN JUMPDEST POP CALLVALUE PUSH2 0x3AC JUMPI PUSH1 0x20 CALLDATASIZE PUSH1 0x3 NOT ADD SLT PUSH2 0x3AC JUMPI PUSH2 0x10AA PUSH2 0x1C63 JUMP JUMPDEST PUSH1 0x4 CALLDATALOAD PUSH1 0x1A SSTORE DUP1 RETURN JUMPDEST POP CALLVALUE PUSH2 0x3AC JUMPI DUP1 PUSH1 0x3 NOT CALLDATASIZE ADD SLT PUSH2 0x3AC JUMPI PUSH1 0x6 SLOAD PUSH1 0x40 MLOAD PUSH1 0x1 PUSH1 0x1 PUSH1 0xA0 SHL SUB SWAP1 SWAP2 AND DUP2 MSTORE PUSH1 0x20 SWAP1 RETURN JUMPDEST POP CALLVALUE PUSH2 0x3AC JUMPI DUP1 PUSH1 0x3 NOT CALLDATASIZE ADD SLT PUSH2 0x3AC JUMPI PUSH1 0x20 PUSH1 0xFF PUSH1 0x12 SLOAD PUSH1 0x8 SHR AND PUSH1 0x40 MLOAD SWAP1 ISZERO ISZERO DUP2 MSTORE RETURN JUMPDEST POP CALLVALUE PUSH2 0x3AC JUMPI PUSH1 0x20 CALLDATASIZE PUSH1 0x3 NOT ADD SLT PUSH2 0x3AC JUMPI PUSH1 0x20 SWAP1 PUSH1 0x40 SWAP1 PUSH1 0x1 PUSH1 0x1 PUSH1 0xA0 SHL SUB PUSH2 0x112A PUSH2 0x17D2 JUMP JUMPDEST AND DUP2 MSTORE PUSH1 0x17 DUP4 MSTORE KECCAK256 SLOAD PUSH1 0x40 MLOAD SWAP1 DUP2 MSTORE RETURN JUMPDEST POP CALLVALUE PUSH2 0x3AC JUMPI PUSH1 0x20 CALLDATASIZE PUSH1 0x3 NOT ADD SLT PUSH2 0x3AC JUMPI PUSH32 0xF19C3BDDDF1B5AC58B32A05CC2BC72313B03A8E8CEB7621E8818651371E00E54 PUSH1 0x20 PUSH2 0x1178 PUSH2 0x17FE JUMP JUMPDEST PUSH2 0x1180 PUSH2 0x1C63 JUMP JUMPDEST DUP1 ISZERO ISZERO SWAP1 PUSH1 0xFF NOT PUSH1 0x12 SLOAD AND PUSH1 0xFF DUP4 AND OR PUSH1 0x12 SSTORE PUSH2 0x11A1 JUMPI PUSH1 0x40 MLOAD SWAP1 DUP2 MSTORE LOG1 DUP1 RETURN JUMPDEST TIMESTAMP PUSH1 0x10 SSTORE PUSH3 0x278D00 PUSH1 0x11 SSTORE PUSH32 0xDBEB6EC948F6EB874ECBD6117742652C35D57FBE578B778B77E677A06AF90B96 DUP3 PUSH1 0x40 MLOAD PUSH3 0x278D00 DUP2 MSTORE LOG1 PUSH2 0x8A8 JUMP JUMPDEST POP CALLVALUE PUSH2 0x3AC JUMPI PUSH1 0x20 CALLDATASIZE PUSH1 0x3 NOT ADD SLT PUSH2 0x3AC JUMPI PUSH2 0x11F7 PUSH2 0x17D2 JUMP JUMPDEST PUSH2 0x11FF PUSH2 0x1C63 JUMP JUMPDEST PUSH1 0x1 PUSH1 0x1 PUSH1 0xA0 SHL SUB AND DUP1 ISZERO PUSH2 0xBC2 JUMPI PUSH12 0xFFFFFFFFFFFFFFFFFFFFFFFF PUSH1 0xA0 SHL PUSH1 0xB SLOAD AND OR PUSH1 0xB SSTORE DUP1 RETURN JUMPDEST POP CALLVALUE PUSH2 0x3AC JUMPI DUP1 PUSH1 0x3 NOT CALLDATASIZE ADD SLT PUSH2 0x3AC JUMPI PUSH1 0x5 SLOAD PUSH1 0x1 PUSH1 0x1 PUSH1 0xA0 SHL SUB AND CALLER EQ DUP1 ISZERO PUSH2 0x12AB JUMPI JUMPDEST DUP1 ISZERO PUSH2 0x1297 JUMPI JUMPDEST ISZERO PUSH2 0x1263 JUMPI PUSH2 0x3D0 PUSH2 0x2839 JUMP JUMPDEST PUSH1 0x40 MLOAD PUSH3 0x461BCD PUSH1 0xE5 SHL DUP2 MSTORE PUSH1 0x20 PUSH1 0x4 DUP3 ADD MSTORE PUSH1 0xC PUSH1 0x24 DUP3 ADD MSTORE PUSH12 0x155B985D5D1A1BDC9A5E9959 PUSH1 0xA2 SHL PUSH1 0x44 DUP3 ADD MSTORE PUSH1 0x64 SWAP1 REVERT JUMPDEST POP PUSH1 0x7 SLOAD PUSH1 0x1 PUSH1 0x1 PUSH1 0xA0 SHL SUB AND CALLER EQ PUSH2 0x1256 JUMP JUMPDEST POP CALLER PUSH32 0x0 PUSH1 0x1 PUSH1 0x1 PUSH1 0xA0 SHL SUB AND EQ PUSH2 0x124F JUMP JUMPDEST POP CALLVALUE PUSH2 0x3AC JUMPI DUP1 PUSH1 0x3 NOT CALLDATASIZE ADD SLT PUSH2 0x3AC JUMPI PUSH1 0x20 PUSH1 0xC SLOAD PUSH1 0x40 MLOAD SWAP1 DUP2 MSTORE RETURN JUMPDEST POP CALLVALUE PUSH2 0x3AC JUMPI PUSH1 0x20 CALLDATASIZE PUSH1 0x3 NOT ADD SLT PUSH2 0x3AC JUMPI PUSH1 0x40 SWAP1 DUP2 PUSH1 0x1 PUSH1 0x1 PUSH1 0xA0 SHL SUB PUSH2 0x1321 PUSH2 0x17D2 JUMP JUMPDEST AND SWAP2 DUP3 DUP2 MSTORE PUSH1 0x16 PUSH1 0x20 MSTORE DUP2 DUP2 KECCAK256 SLOAD SWAP3 DUP2 MSTORE PUSH1 0x17 PUSH1 0x20 MSTORE KECCAK256 SLOAD DUP3 MLOAD SWAP2 DUP3 MSTORE PUSH1 0x20 DUP3 ADD MSTORE RETURN JUMPDEST POP CALLVALUE PUSH2 0x3AC JUMPI DUP1 PUSH1 0x3 NOT CALLDATASIZE ADD SLT PUSH2 0x3AC JUMPI PUSH1 0x20 PUSH1 0x40 MLOAD PUSH1 0x12 DUP2 MSTORE RETURN JUMPDEST POP CALLVALUE PUSH2 0x3AC JUMPI DUP1 PUSH1 0x3 NOT CALLDATASIZE ADD SLT PUSH2 0x3AC JUMPI PUSH2 0x137A PUSH2 0x1C63 JUMP JUMPDEST PUSH1 0x1B SLOAD PUSH1 0xFF DUP2 AND PUSH2 0x1443 JUMPI PUSH1 0x1 PUSH1 0xFF NOT SWAP2 DUP3 AND DUP2 OR PUSH1 0x1B SSTORE PUSH1 0x5 SLOAD PUSH1 0x1 PUSH1 0x1 PUSH1 0xA0 SHL SUB SWAP1 DUP2 AND DUP5 MSTORE PUSH1 0x18 PUSH1 0x20 DUP2 DUP2 MSTORE PUSH1 0x40 DUP1 DUP8 KECCAK256 DUP1 SLOAD DUP8 AND DUP7 OR SWAP1 SSTORE ADDRESS DUP8 MSTORE DUP3 DUP3 MSTORE DUP1 DUP8 KECCAK256 DUP1 SLOAD DUP8 AND DUP7 OR SWAP1 SSTORE PUSH32 0x0 DUP5 AND DUP8 MSTORE DUP3 DUP3 MSTORE DUP1 DUP8 KECCAK256 DUP1 SLOAD DUP8 AND DUP7 OR SWAP1 SSTORE PUSH1 0xA SLOAD DUP5 AND DUP8 MSTORE DUP3 DUP3 MSTORE DUP1 DUP8 KECCAK256 DUP1 SLOAD DUP8 AND DUP7 OR SWAP1 SSTORE PUSH32 0x0 SWAP1 SWAP4 AND DUP7 MSTORE MSTORE DUP4 KECCAK256 DUP1 SLOAD SWAP1 SWAP3 AND OR SWAP1 SSTORE DUP1 RETURN JUMPDEST PUSH3 0xDC149F PUSH1 0xE4 SHL DUP3 MSTORE PUSH1 0x4 DUP3 REVERT JUMPDEST POP CALLVALUE PUSH2 0x3AC JUMPI PUSH1 0x60 CALLDATASIZE PUSH1 0x3 NOT ADD SLT PUSH2 0x3AC JUMPI PUSH2 0x146B PUSH2 0x17D2 JUMP JUMPDEST PUSH2 0x1473 PUSH2 0x17E8 JUMP JUMPDEST PUSH1 0x1 PUSH1 0x1 PUSH1 0xA0 SHL SUB DUP3 AND DUP1 DUP5 MSTORE PUSH1 0x1 PUSH1 0x20 SWAP1 DUP2 MSTORE PUSH1 0x40 DUP1 DUP7 KECCAK256 CALLER DUP8 MSTORE SWAP1 SWAP2 MSTORE DUP5 KECCAK256 SLOAD PUSH1 0x44 CALLDATALOAD SWAP4 SWAP2 PUSH1 0x0 NOT DUP3 LT PUSH2 0x14B0 JUMPI JUMPDEST POP POP PUSH2 0x90B SWAP4 POP PUSH2 0x1C8C JUMP JUMPDEST DUP5 DUP3 LT PUSH2 0x1517 JUMPI DUP1 ISZERO PUSH2 0x1503 JUMPI CALLER ISZERO PUSH2 0x14EF JUMPI PUSH1 0x40 DUP7 DUP7 SWAP3 PUSH2 0x90B SWAP9 MSTORE PUSH1 0x1 PUSH1 0x20 MSTORE DUP2 DUP2 KECCAK256 PUSH1 0x1 DUP1 PUSH1 0xA0 SHL SUB CALLER AND DUP3 MSTORE PUSH1 0x20 MSTORE KECCAK256 SWAP2 SUB SWAP1 SSTORE CODESIZE DUP1 PUSH2 0x14A4 JUMP JUMPDEST PUSH4 0x4A1406B1 PUSH1 0xE1 SHL DUP7 MSTORE PUSH1 0x4 DUP7 SWAP1 MSTORE PUSH1 0x24 DUP7 REVERT JUMPDEST PUSH4 0xE602DF05 PUSH1 0xE0 SHL DUP7 MSTORE PUSH1 0x4 DUP7 SWAP1 MSTORE PUSH1 0x24 DUP7 REVERT JUMPDEST PUSH1 0x64 DUP7 DUP7 DUP5 PUSH4 0x7DC7A0D9 PUSH1 0xE1 SHL DUP4 MSTORE CALLER PUSH1 0x4 MSTORE PUSH1 0x24 MSTORE PUSH1 0x44 MSTORE REVERT JUMPDEST POP CALLVALUE PUSH2 0x3AC JUMPI PUSH1 0x20 CALLDATASIZE PUSH1 0x3 NOT ADD SLT PUSH2 0x3AC JUMPI PUSH2 0x154C PUSH2 0x17D2 JUMP JUMPDEST PUSH2 0x1554 PUSH2 0x1C63 JUMP JUMPDEST PUSH1 0x1 PUSH1 0x1 PUSH1 0xA0 SHL SUB AND DUP1 ISZERO PUSH2 0xBC2 JUMPI PUSH1 0x8 DUP1 SLOAD PUSH1 0x1 PUSH1 0x1 PUSH1 0xA0 SHL SUB NOT AND DUP3 OR SWAP1 SSTORE DUP2 MSTORE PUSH1 0x18 PUSH1 0x20 MSTORE PUSH1 0x40 DUP2 KECCAK256 DUP1 SLOAD PUSH1 0xFF NOT AND PUSH1 0x1 OR SWAP1 SSTORE DUP1 RETURN JUMPDEST POP CALLVALUE PUSH2 0x3AC JUMPI DUP1 PUSH1 0x3 NOT CALLDATASIZE ADD SLT PUSH2 0x3AC JUMPI PUSH1 0x20 PUSH1 0x2 SLOAD PUSH1 0x40 MLOAD SWAP1 DUP2 MSTORE RETURN JUMPDEST POP CALLVALUE PUSH2 0x3AC JUMPI DUP1 PUSH1 0x3 NOT CALLDATASIZE ADD SLT PUSH2 0x3AC JUMPI PUSH1 0x40 MLOAD PUSH32 0x0 PUSH1 0x1 PUSH1 0x1 PUSH1 0xA0 SHL SUB AND DUP2 MSTORE PUSH1 0x20 SWAP1 RETURN JUMPDEST POP CALLVALUE PUSH2 0x3AC JUMPI PUSH1 0x20 CALLDATASIZE PUSH1 0x3 NOT ADD SLT PUSH2 0x3AC JUMPI PUSH1 0x20 PUSH2 0x160D PUSH2 0x17D2 JUMP JUMPDEST EXTCODESIZE ISZERO ISZERO PUSH1 0x40 MLOAD SWAP1 DUP2 MSTORE RETURN JUMPDEST POP CALLVALUE PUSH2 0x3AC JUMPI PUSH1 0x20 CALLDATASIZE PUSH1 0x3 NOT ADD SLT PUSH2 0x3AC JUMPI PUSH2 0x1632 PUSH2 0x17D2 JUMP JUMPDEST PUSH2 0x163A PUSH2 0x1C63 JUMP JUMPDEST PUSH1 0x1 PUSH1 0x1 PUSH1 0xA0 SHL SUB AND DUP1 ISZERO PUSH2 0xBC2 JUMPI PUSH1 0x7 DUP1 SLOAD PUSH1 0x1 PUSH1 0x1 PUSH1 0xA0 SHL SUB NOT AND DUP3 OR SWAP1 SSTORE DUP2 MSTORE PUSH1 0x18 PUSH1 0x20 MSTORE PUSH1 0x40 DUP2 KECCAK256 DUP1 SLOAD PUSH1 0xFF NOT AND PUSH1 0x1 OR SWAP1 SSTORE DUP1 RETURN JUMPDEST POP CALLVALUE PUSH2 0x3AC JUMPI PUSH1 0x40 CALLDATASIZE PUSH1 0x3 NOT ADD SLT PUSH2 0x3AC JUMPI PUSH2 0x90B PUSH2 0x1691 PUSH2 0x17D2 JUMP JUMPDEST PUSH1 0x24 CALLDATALOAD SWAP1 CALLER PUSH2 0x2AAC JUMP JUMPDEST POP CALLVALUE PUSH2 0x3AC JUMPI DUP1 PUSH1 0x3 NOT CALLDATASIZE ADD SLT PUSH2 0x3AC JUMPI PUSH1 0x40 MLOAD SWAP1 DUP1 PUSH1 0x3 SLOAD SWAP1 DUP2 PUSH1 0x1 SHR SWAP2 PUSH1 0x1 DUP2 AND DUP1 ISZERO PUSH2 0x174E JUMPI JUMPDEST PUSH1 0x20 DUP5 LT DUP2 EQ PUSH2 0xA97 JUMPI DUP4 DUP7 MSTORE SWAP1 DUP2 ISZERO PUSH2 0xA70 JUMPI POP PUSH1 0x1 EQ PUSH2 0x16F1 JUMPI PUSH2 0xA0F DUP5 PUSH2 0x9FB DUP2 DUP7 SUB DUP3 PUSH2 0x181C JUMP JUMPDEST PUSH1 0x3 DUP2 MSTORE PUSH32 0xC2575A0E9E593C00F959F8C92F12DB2869C3395A3B0502D05E2516446F71F85B SWAP4 SWAP3 POP SWAP1 JUMPDEST DUP1 DUP3 LT PUSH2 0x1734 JUMPI POP SWAP1 SWAP2 POP DUP2 ADD PUSH1 0x20 ADD PUSH2 0x9FB DUP3 PUSH2 0x9EB JUMP JUMPDEST SWAP2 SWAP3 PUSH1 0x1 DUP2 PUSH1 0x20 SWAP3 SLOAD DUP4 DUP6 DUP9 ADD ADD MSTORE ADD SWAP2 ADD SWAP1 SWAP3 SWAP2 PUSH2 0x171B JUMP JUMPDEST SWAP3 PUSH1 0x7F AND SWAP3 PUSH2 0x16C5 JUMP JUMPDEST POP CALLVALUE PUSH2 0x3AC JUMPI PUSH1 0x20 PUSH2 0xCF8 PUSH2 0x176C CALLDATASIZE PUSH2 0x1772 JUMP JUMPDEST SWAP2 PUSH2 0x1C17 JUMP JUMPDEST PUSH1 0x60 SWAP1 PUSH1 0x3 NOT ADD SLT PUSH2 0x178C JUMPI PUSH1 0x4 CALLDATALOAD SWAP1 PUSH1 0x24 CALLDATALOAD SWAP1 PUSH1 0x44 CALLDATALOAD SWAP1 JUMP JUMPDEST PUSH1 0x0 DUP1 REVERT JUMPDEST SWAP2 SWAP1 DUP3 MLOAD SWAP3 DUP4 DUP3 MSTORE PUSH1 0x0 JUMPDEST DUP5 DUP2 LT PUSH2 0x17BD JUMPI POP POP DUP3 PUSH1 0x0 PUSH1 0x20 DUP1 SWAP5 SWAP6 DUP5 ADD ADD MSTORE PUSH1 0x1F DUP1 NOT SWAP2 ADD AND ADD ADD SWAP1 JUMP JUMPDEST DUP1 PUSH1 0x20 DUP1 SWAP3 DUP5 ADD ADD MLOAD DUP3 DUP3 DUP7 ADD ADD MSTORE ADD PUSH2 0x179C JUMP JUMPDEST PUSH1 0x4 CALLDATALOAD SWAP1 PUSH1 0x1 PUSH1 0x1 PUSH1 0xA0 SHL SUB DUP3 AND DUP3 SUB PUSH2 0x178C JUMPI JUMP JUMPDEST PUSH1 0x24 CALLDATALOAD SWAP1 PUSH1 0x1 PUSH1 0x1 PUSH1 0xA0 SHL SUB DUP3 AND DUP3 SUB PUSH2 0x178C JUMPI JUMP JUMPDEST PUSH1 0x4 CALLDATALOAD SWAP1 DUP2 ISZERO ISZERO DUP3 SUB PUSH2 0x178C JUMPI JUMP JUMPDEST PUSH1 0x24 CALLDATALOAD SWAP1 DUP2 ISZERO ISZERO DUP3 SUB PUSH2 0x178C JUMPI JUMP JUMPDEST SWAP1 PUSH1 0x1F DUP1 NOT SWAP2 ADD AND DUP2 ADD SWAP1 DUP2 LT PUSH8 0xFFFFFFFFFFFFFFFF DUP3 GT OR PUSH2 0x183E JUMPI PUSH1 0x40 MSTORE JUMP JUMPDEST PUSH4 0x4E487B71 PUSH1 0xE0 SHL PUSH1 0x0 MSTORE PUSH1 0x41 PUSH1 0x4 MSTORE PUSH1 0x24 PUSH1 0x0 REVERT JUMPDEST PUSH1 0x40 PUSH1 0x3 NOT DUP3 ADD SLT PUSH2 0x178C JUMPI PUSH1 0x4 CALLDATALOAD SWAP1 PUSH8 0xFFFFFFFFFFFFFFFF DUP3 GT PUSH2 0x178C JUMPI DUP1 PUSH1 0x23 DUP4 ADD SLT ISZERO PUSH2 0x178C JUMPI DUP2 PUSH1 0x4 ADD CALLDATALOAD SWAP1 PUSH8 0xFFFFFFFFFFFFFFFF DUP3 GT PUSH2 0x183E JUMPI PUSH1 0x20 DUP3 PUSH1 0x5 SHL ADD SWAP3 PUSH2 0x18A8 PUSH1 0x40 MLOAD SWAP5 DUP6 PUSH2 0x181C JUMP JUMPDEST DUP3 DUP5 MSTORE PUSH1 0x24 PUSH1 0x20 DUP6 ADD SWAP4 PUSH1 0x5 SHL DUP3 ADD ADD SWAP2 DUP3 GT PUSH2 0x178C JUMPI PUSH1 0x24 ADD SWAP2 JUMPDEST DUP2 DUP4 LT PUSH2 0x18DE JUMPI POP POP POP SWAP1 PUSH1 0x24 CALLDATALOAD DUP1 ISZERO ISZERO DUP2 SUB PUSH2 0x178C JUMPI SWAP1 JUMP JUMPDEST DUP3 CALLDATALOAD PUSH1 0x1 PUSH1 0x1 PUSH1 0xA0 SHL SUB DUP2 AND DUP2 SUB PUSH2 0x178C JUMPI DUP2 MSTORE PUSH1 0x20 SWAP3 DUP4 ADD SWAP3 ADD PUSH2 0x18C4 JUMP JUMPDEST SWAP1 PUSH3 0x278D00 DUP3 ADD DUP1 SWAP3 GT PUSH2 0x190E JUMPI JUMP JUMPDEST PUSH4 0x4E487B71 PUSH1 0xE0 SHL PUSH1 0x0 MSTORE PUSH1 0x11 PUSH1 0x4 MSTORE PUSH1 0x24 PUSH1 0x0 REVERT JUMPDEST SWAP2 SWAP1 DUP3 ADD DUP1 SWAP3 GT PUSH2 0x190E JUMPI JUMP JUMPDEST DUP1 MLOAD DUP3 LT ISZERO PUSH2 0x1945 JUMPI PUSH1 0x20 SWAP2 PUSH1 0x5 SHL ADD ADD SWAP1 JUMP JUMPDEST PUSH4 0x4E487B71 PUSH1 0xE0 SHL PUSH1 0x0 MSTORE PUSH1 0x32 PUSH1 0x4 MSTORE PUSH1 0x24 PUSH1 0x0 REVERT JUMPDEST PUSH1 0xFF PUSH1 0x12 SLOAD PUSH1 0x8 SHR AND ISZERO SWAP1 DUP2 ISZERO PUSH2 0x199B JUMPI JUMPDEST POP PUSH2 0x1996 JUMPI PUSH1 0x14 SLOAD DUP1 ISZERO PUSH2 0x198A JUMPI PUSH2 0x1984 SWAP1 PUSH2 0x18FE JUMP JUMPDEST TIMESTAMP LT ISZERO SWAP1 JUMP JUMPDEST POP PUSH2 0x1984 PUSH1 0x13 SLOAD PUSH2 0x18FE JUMP JUMPDEST PUSH1 0x1 SWAP1 JUMP JUMPDEST PUSH1 0x1 PUSH1 0x1 PUSH1 0xA0 SHL SUB AND PUSH1 0x0 SWAP1 DUP2 MSTORE PUSH1 0x18 PUSH1 0x20 MSTORE PUSH1 0x40 SWAP1 KECCAK256 SLOAD PUSH1 0xFF AND SWAP1 POP CODESIZE PUSH2 0x196D JUMP JUMPDEST SWAP1 DUP2 PUSH1 0x20 SWAP2 SUB SLT PUSH2 0x178C JUMPI MLOAD DUP1 ISZERO ISZERO DUP2 SUB PUSH2 0x178C JUMPI SWAP1 JUMP JUMPDEST PUSH1 0x1 PUSH1 0x1 PUSH1 0xA0 SHL SUB AND ADDRESS DUP2 EQ PUSH2 0x1A61 JUMPI PUSH1 0x5 SLOAD PUSH1 0x40 MLOAD PUSH4 0xA9059CBB PUSH1 0xE0 SHL DUP2 MSTORE PUSH1 0x1 PUSH1 0x1 PUSH1 0xA0 SHL SUB SWAP1 SWAP2 AND PUSH1 0x4 DUP3 ADD MSTORE PUSH1 0x24 DUP2 ADD SWAP3 SWAP1 SWAP3 MSTORE PUSH1 0x20 SWAP1 DUP3 SWAP1 PUSH1 0x44 SWAP1 DUP3 SWAP1 PUSH1 0x0 SWAP1 GAS CALL DUP1 ISZERO PUSH2 0x1A55 JUMPI PUSH2 0x1A2A JUMPI POP JUMP JUMPDEST PUSH2 0x1A4B SWAP1 PUSH1 0x20 RETURNDATASIZE PUSH1 0x20 GT PUSH2 0x1A4E JUMPI JUMPDEST PUSH2 0x1A43 DUP2 DUP4 PUSH2 0x181C JUMP JUMPDEST DUP2 ADD SWAP1 PUSH2 0x19BE JUMP JUMPDEST POP JUMP JUMPDEST POP RETURNDATASIZE PUSH2 0x1A39 JUMP JUMPDEST PUSH1 0x40 MLOAD RETURNDATASIZE PUSH1 0x0 DUP3 RETURNDATACOPY RETURNDATASIZE SWAP1 REVERT JUMPDEST POP POP JUMP JUMPDEST MLOAD SWAP1 PUSH1 0x1 PUSH1 0x1 PUSH1 0x70 SHL SUB DUP3 AND DUP3 SUB PUSH2 0x178C JUMPI JUMP JUMPDEST SWAP1 DUP2 PUSH1 0x60 SWAP2 SUB SLT PUSH2 0x178C JUMPI PUSH2 0x1A8D DUP2 PUSH2 0x1A65 JUMP JUMPDEST SWAP2 PUSH1 0x40 PUSH2 0x1A9C PUSH1 0x20 DUP5 ADD PUSH2 0x1A65 JUMP JUMPDEST SWAP3 ADD MLOAD PUSH4 0xFFFFFFFF DUP2 AND DUP2 SUB PUSH2 0x178C JUMPI SWAP1 JUMP JUMPDEST SWAP1 DUP2 PUSH1 0x20 SWAP2 SUB SLT PUSH2 0x178C JUMPI MLOAD PUSH1 0x1 PUSH1 0x1 PUSH1 0xA0 SHL SUB DUP2 AND DUP2 SUB PUSH2 0x178C JUMPI SWAP1 JUMP JUMPDEST PUSH1 0x6 SLOAD PUSH1 0x40 MLOAD PUSH4 0x240BC6B PUSH1 0xE2 SHL DUP2 MSTORE SWAP1 PUSH1 0x1 PUSH1 0x1 PUSH1 0xA0 SHL SUB AND PUSH1 0x60 DUP3 PUSH1 0x4 DUP2 DUP5 GAS STATICCALL SWAP1 DUP2 PUSH1 0x0 SWAP4 PUSH1 0x0 SWAP4 PUSH2 0x1B9F JUMPI JUMPDEST POP PUSH2 0x1B0B JUMPI POP POP POP PUSH1 0x0 SWAP1 JUMP JUMPDEST PUSH1 0x20 PUSH1 0x4 SWAP2 PUSH1 0x40 MLOAD SWAP3 DUP4 DUP1 SWAP3 PUSH4 0xDFE1681 PUSH1 0xE0 SHL DUP3 MSTORE GAS STATICCALL SWAP1 DUP2 ISZERO PUSH2 0x1A55 JUMPI PUSH1 0x0 SWAP2 PUSH2 0x1B70 JUMPI JUMPDEST POP PUSH1 0x1 PUSH1 0x1 PUSH1 0xA0 SHL SUB SWAP1 DUP2 AND PUSH32 0x0 SWAP1 SWAP2 AND SUB PUSH2 0x1B6B JUMPI POP SWAP1 JUMP JUMPDEST SWAP1 POP SWAP1 JUMP JUMPDEST PUSH2 0x1B92 SWAP2 POP PUSH1 0x20 RETURNDATASIZE PUSH1 0x20 GT PUSH2 0x1B98 JUMPI JUMPDEST PUSH2 0x1B8A DUP2 DUP4 PUSH2 0x181C JUMP JUMPDEST DUP2 ADD SWAP1 PUSH2 0x1AAF JUMP JUMPDEST CODESIZE PUSH2 0x1B32 JUMP JUMPDEST POP RETURNDATASIZE PUSH2 0x1B80 JUMP JUMPDEST SWAP1 SWAP3 POP PUSH2 0x1BC5 SWAP2 SWAP4 POP PUSH1 0x60 RETURNDATASIZE PUSH1 0x60 GT PUSH2 0x1BD0 JUMPI JUMPDEST PUSH2 0x1BBD DUP2 DUP4 PUSH2 0x181C JUMP JUMPDEST DUP2 ADD SWAP1 PUSH2 0x1A79 JUMP JUMPDEST POP SWAP3 SWAP1 SWAP3 SWAP2 CODESIZE PUSH2 0x1AFE JUMP JUMPDEST POP RETURNDATASIZE PUSH2 0x1BB3 JUMP JUMPDEST SWAP2 SWAP1 DUP3 SUB SWAP2 DUP3 GT PUSH2 0x190E JUMPI JUMP JUMPDEST DUP2 ISZERO PUSH2 0x1BEE JUMPI DIV SWAP1 JUMP JUMPDEST PUSH4 0x4E487B71 PUSH1 0xE0 SHL PUSH1 0x0 MSTORE PUSH1 0x12 PUSH1 0x4 MSTORE PUSH1 0x24 PUSH1 0x0 REVERT JUMPDEST DUP2 DUP2 MUL SWAP3 SWAP2 DUP2 ISZERO SWAP2 DUP5 DIV EQ OR ISZERO PUSH2 0x190E JUMPI JUMP JUMPDEST SWAP2 PUSH2 0x26F7 DUP4 MUL SWAP3 DUP1 DUP5 DIV PUSH2 0x26F7 EQ SWAP1 ISZERO OR ISZERO PUSH2 0x190E JUMPI PUSH2 0x1C37 SWAP1 DUP4 PUSH2 0x1C04 JUMP JUMPDEST SWAP1 PUSH2 0x2710 DUP2 MUL SWAP1 DUP1 DUP3 DIV PUSH2 0x2710 EQ SWAP1 ISZERO OR ISZERO PUSH2 0x190E JUMPI PUSH2 0x1C60 SWAP3 PUSH2 0x1C5A SWAP2 PUSH2 0x1924 JUMP JUMPDEST SWAP1 PUSH2 0x1BE4 JUMP JUMPDEST SWAP1 JUMP JUMPDEST PUSH1 0x5 SLOAD PUSH1 0x1 PUSH1 0x1 PUSH1 0xA0 SHL SUB AND CALLER SUB PUSH2 0x1C77 JUMPI JUMP JUMPDEST PUSH4 0x118CDAA7 PUSH1 0xE0 SHL PUSH1 0x0 MSTORE CALLER PUSH1 0x4 MSTORE PUSH1 0x24 PUSH1 0x0 REVERT JUMPDEST SWAP1 SWAP3 SWAP2 SWAP1 PUSH1 0x1 PUSH1 0x1 PUSH1 0xA0 SHL SUB DUP2 AND SWAP1 PUSH1 0x0 SWAP1 DUP3 ISZERO SWAP1 DUP2 DUP1 ISZERO PUSH2 0x2828 JUMPI JUMPDEST PUSH2 0x27FA JUMPI DUP4 DUP4 MSTORE PUSH1 0x18 PUSH1 0x20 MSTORE PUSH1 0xFF PUSH1 0x40 DUP5 KECCAK256 SLOAD AND DUP1 ISZERO PUSH2 0x2809 JUMPI JUMPDEST PUSH2 0x27FA JUMPI PUSH2 0x1CD2 DUP8 DUP3 PUSH2 0x2C28 JUMP JUMPDEST PUSH2 0x1CDC DUP9 DUP4 PUSH2 0x2C9C JUMP JUMPDEST SWAP1 ISZERO PUSH2 0x21FB JUMPI POP PUSH1 0x1 PUSH1 0x1 PUSH1 0xA0 SHL SUB DUP8 AND DUP1 DUP5 MSTORE PUSH1 0x19 PUSH1 0x20 MSTORE PUSH1 0x40 DUP5 KECCAK256 SLOAD SWAP1 SWAP5 SWAP1 PUSH1 0xFF AND PUSH2 0x21EC JUMPI PUSH1 0x12 SLOAD PUSH1 0xFF DUP2 PUSH1 0x8 SHR AND DUP1 PUSH2 0x21D5 JUMPI JUMPDEST PUSH2 0x219F JUMPI JUMPDEST PUSH1 0xFF AND DUP1 PUSH2 0x2188 JUMPI JUMPDEST PUSH2 0x217A JUMPI PUSH1 0x64 DUP7 MUL SWAP2 DUP7 ISZERO SWAP3 DUP8 DUP2 DIV PUSH1 0x64 EQ DUP5 OR ISZERO PUSH2 0x2166 JUMPI PUSH2 0x2710 SWAP1 DIV SWAP3 PUSH1 0xC8 DUP9 MUL SWAP1 DUP9 DUP3 DIV PUSH1 0xC8 EQ OR ISZERO PUSH2 0x2166 JUMPI PUSH2 0x2710 SWAP1 DIV SWAP2 PUSH2 0x1D6B PUSH2 0x1D65 DUP5 DUP7 PUSH2 0x1924 JUMP JUMPDEST DUP10 PUSH2 0x1BD7 JUMP JUMPDEST SWAP5 DUP5 PUSH2 0x2093 JUMPI JUMPDEST POP POP DUP2 PUSH2 0x1F11 JUMPI JUMPDEST DUP4 PUSH32 0xFDE30999D0EA66FCAF14400B79C9E771A1A87176335A8CC91382321A3D0A0C1F SWAP7 SWAP8 SWAP9 SWAP10 PUSH2 0x1DA9 SWAP3 PUSH2 0x2B3F JUMP JUMPDEST PUSH2 0x1DB2 DUP4 PUSH2 0x387C JUMP JUMPDEST SWAP4 DUP7 DUP2 MSTORE PUSH1 0x16 PUSH1 0x20 MSTORE PUSH1 0x40 DUP2 KECCAK256 SLOAD SWAP2 PUSH2 0x1DCB DUP7 DUP5 PUSH2 0x1924 JUMP JUMPDEST DUP9 DUP4 MSTORE PUSH1 0x16 PUSH1 0x20 MSTORE PUSH1 0x40 DUP4 KECCAK256 SSTORE DUP8 DUP3 MSTORE PUSH1 0x17 PUSH1 0x20 MSTORE TIMESTAMP PUSH1 0x40 DUP4 KECCAK256 SSTORE DUP8 DUP3 MSTORE PUSH1 0x16 PUSH1 0x20 MSTORE PUSH1 0x40 DUP3 KECCAK256 SLOAD PUSH1 0x40 MLOAD SWAP1 DUP5 DUP3 MSTORE PUSH1 0x20 DUP3 ADD MSTORE DUP7 PUSH1 0x40 DUP3 ADD MSTORE PUSH1 0x80 PUSH1 0x60 DUP3 ADD MSTORE DUP9 PUSH32 0xFA935FE56C7E4DC5D59A584D81AA99B9714C92D3B1CB2E7E329969203C3FD226 TIMESTAMP SWAP3 DUP1 PUSH2 0x1E4F PUSH1 0x80 DUP3 ADD PUSH1 0x40 SWAP1 PUSH1 0x3 DUP2 MSTORE PUSH3 0x425559 PUSH1 0xE8 SHL PUSH1 0x20 DUP3 ADD MSTORE ADD SWAP1 JUMP JUMPDEST SUB SWAP1 LOG3 DUP8 DUP3 MSTORE PUSH1 0x16 PUSH1 0x20 MSTORE PUSH1 0x40 DUP3 KECCAK256 SLOAD SWAP4 PUSH1 0x3 PUSH1 0x40 MLOAD PUSH3 0x425559 PUSH1 0xE8 SHL DUP2 MSTORE KECCAK256 SWAP5 PUSH1 0x40 MLOAD SWAP5 DUP12 DUP7 MSTORE DUP9 PUSH1 0x20 DUP8 ADD MSTORE DUP8 PUSH1 0x40 DUP8 ADD MSTORE PUSH1 0x60 DUP7 ADD MSTORE PUSH1 0x80 DUP6 ADD MSTORE PUSH1 0xA0 DUP5 ADD MSTORE PUSH1 0xC0 DUP4 ADD MSTORE DUP1 PUSH1 0xE0 DUP4 ADD MSTORE DUP1 PUSH2 0x100 DUP4 ADD MSTORE DUP1 PUSH2 0x120 DUP4 ADD MSTORE PUSH2 0x140 DUP3 ADD MSTORE DUP6 PUSH32 0x681F1F0FB3679A87B3423967DFA2EC97150B706D392EADA5B3617C7508AFC765 PUSH2 0x160 TIMESTAMP SWAP4 LOG4 PUSH1 0x40 MLOAD PUSH1 0x80 DUP1 DUP3 MSTORE PUSH1 0x3 SWAP1 DUP3 ADD MSTORE PUSH3 0x425559 PUSH1 0xE8 SHL PUSH1 0xA0 DUP3 ADD MSTORE SWAP2 PUSH1 0xC0 DUP4 ADD SWAP6 PUSH1 0x20 DUP5 ADD MSTORE PUSH1 0x40 DUP4 ADD MSTORE PUSH1 0x60 DUP3 ADD MSTORE DUP1 TIMESTAMP SWAP5 SUB SWAP1 LOG3 JUMPDEST JUMP JUMPDEST PUSH2 0x1F1C DUP3 ADDRESS DUP4 PUSH2 0x2B3F JUMP JUMPDEST PUSH1 0x7 SLOAD PUSH1 0x40 MLOAD PUSH4 0x95EA7B3 PUSH1 0xE0 SHL DUP2 MSTORE PUSH1 0x1 PUSH1 0x1 PUSH1 0xA0 SHL SUB SWAP1 SWAP2 AND PUSH1 0x4 DUP3 ADD MSTORE PUSH1 0x24 DUP2 ADD DUP4 SWAP1 MSTORE PUSH1 0x20 DUP2 PUSH1 0x44 DUP2 DUP10 ADDRESS GAS CALL DUP1 ISZERO PUSH2 0x2067 JUMPI PUSH2 0x2076 JUMPI JUMPDEST POP PUSH1 0x7 SLOAD PUSH1 0x1 PUSH1 0x1 PUSH1 0xA0 SHL SUB AND DUP1 EXTCODESIZE ISZERO PUSH2 0x2072 JUMPI DUP6 DUP1 SWAP2 PUSH1 0x24 PUSH1 0x40 MLOAD DUP1 SWAP5 DUP2 SWAP4 PUSH4 0x3ACFCEF1 PUSH1 0xE1 SHL DUP4 MSTORE DUP9 PUSH1 0x4 DUP5 ADD MSTORE GAS CALL DUP1 ISZERO PUSH2 0x2067 JUMPI PUSH2 0x204B JUMPI JUMPDEST POP DUP4 PUSH32 0xFDE30999D0EA66FCAF14400B79C9E771A1A87176335A8CC91382321A3D0A0C1F SWAP7 SWAP8 SWAP9 SWAP10 PUSH2 0x1DA9 SWAP3 PUSH32 0x14164D84B45B7C78B262F5A0A6E5CE9DB145A21B0C02951209C371BDECE6C7E5 PUSH1 0x20 PUSH1 0x40 MLOAD DUP8 DUP2 MSTORE LOG1 PUSH1 0x1 DUP1 PUSH1 0xA0 SHL SUB PUSH1 0x7 SLOAD AND PUSH1 0x11 PUSH1 0x40 MLOAD PUSH17 0x4255595F4C505F5245574152445F535949 PUSH1 0x78 SHL DUP2 MSTORE KECCAK256 PUSH1 0x40 MLOAD DUP8 DUP2 MSTORE PUSH32 0xDC0542397DE1D347EB80CBA6DCBA197E295E2516706EF1DD5A16D8AC5FB3EEDA PUSH1 0x20 ADDRESS SWAP3 LOG4 SWAP3 POP SWAP10 SWAP9 SWAP8 SWAP7 POP POP PUSH2 0x1D7A JUMP JUMPDEST DUP6 PUSH2 0x2055 SWAP2 PUSH2 0x181C JUMP JUMPDEST DUP5 PUSH1 0x0 SLT PUSH2 0x2063 JUMPI CODESIZE PUSH2 0x1F95 JUMP JUMPDEST DUP5 DUP1 REVERT JUMPDEST PUSH1 0x40 MLOAD RETURNDATASIZE DUP9 DUP3 RETURNDATACOPY RETURNDATASIZE SWAP1 REVERT JUMPDEST DUP6 DUP1 REVERT JUMPDEST PUSH2 0x208E SWAP1 PUSH1 0x20 RETURNDATASIZE PUSH1 0x20 GT PUSH2 0x1A4E JUMPI PUSH2 0x1A43 DUP2 DUP4 PUSH2 0x181C JUMP JUMPDEST PUSH2 0x1F58 JUMP JUMPDEST PUSH1 0x0 SWAP1 ISZERO PUSH2 0x2120 JUMPI SWAP1 PUSH2 0xDEAD SWAP2 PUSH2 0x20AC DUP7 PUSH1 0x2 SLOAD PUSH2 0x1924 JUMP JUMPDEST PUSH1 0x2 SSTORE JUMPDEST POP DUP2 PUSH1 0x0 MSTORE PUSH1 0x0 PUSH1 0x20 MSTORE PUSH1 0x40 PUSH1 0x0 KECCAK256 DUP6 DUP2 SLOAD ADD SWAP1 SSTORE PUSH32 0xDDF252AD1BE2C89B69C2B068FC378DAA952BA7F163C4A11628F55A4DF523B3EF PUSH1 0x20 PUSH1 0x40 MLOAD DUP8 DUP2 MSTORE LOG3 PUSH32 0x6EF4855B666DCC7884561072E4358B28DFE01FEB1B7F4DCEBC00E62D50394AC7 PUSH1 0x20 PUSH1 0x40 MLOAD DUP6 DUP2 MSTORE LOG1 CODESIZE DUP1 PUSH2 0x1D72 JUMP JUMPDEST DUP2 DUP2 MSTORE DUP1 PUSH1 0x20 MSTORE PUSH1 0x40 DUP2 KECCAK256 SLOAD DUP6 DUP2 LT PUSH2 0x214C JUMPI SWAP1 DUP6 DUP4 SWAP3 PUSH2 0xDEAD SWAP5 DUP4 MSTORE DUP3 PUSH1 0x20 MSTORE SUB PUSH1 0x40 DUP3 KECCAK256 SSTORE PUSH2 0x20B0 JUMP JUMPDEST DUP6 SWAP1 PUSH1 0x64 SWAP4 PUSH4 0x391434E3 PUSH1 0xE2 SHL DUP5 MSTORE PUSH1 0x4 MSTORE PUSH1 0x24 MSTORE PUSH1 0x44 MSTORE REVERT JUMPDEST PUSH4 0x4E487B71 PUSH1 0xE0 SHL DUP7 MSTORE PUSH1 0x11 PUSH1 0x4 MSTORE PUSH1 0x24 DUP7 REVERT JUMPDEST PUSH3 0x4E6101 PUSH1 0xE3 SHL DUP5 MSTORE PUSH1 0x4 DUP5 REVERT JUMPDEST POP PUSH2 0x2198 PUSH1 0x10 SLOAD PUSH1 0x11 SLOAD SWAP1 PUSH2 0x1924 JUMP JUMPDEST TIMESTAMP LT PUSH2 0x1D22 JUMP JUMPDEST PUSH1 0x14 SLOAD DUP1 ISZERO PUSH2 0x21CC JUMPI JUMPDEST PUSH3 0x278D00 DUP2 ADD DUP1 SWAP2 GT PUSH2 0x2166 JUMPI TIMESTAMP LT ISZERO PUSH2 0x1D19 JUMPI PUSH4 0x20CF80F9 PUSH1 0xE0 SHL DUP6 MSTORE PUSH1 0x4 DUP6 REVERT JUMPDEST POP PUSH1 0x13 SLOAD PUSH2 0x21A9 JUMP JUMPDEST POP DUP6 DUP6 MSTORE PUSH1 0x18 PUSH1 0x20 MSTORE PUSH1 0xFF PUSH1 0x40 DUP7 KECCAK256 SLOAD AND ISZERO PUSH2 0x1D14 JUMP JUMPDEST PUSH4 0x9550C77 PUSH1 0xE0 SHL DUP5 MSTORE PUSH1 0x4 DUP5 REVERT JUMPDEST SWAP6 SWAP7 SWAP6 SWAP1 SWAP2 POP ISZERO PUSH2 0x27E5 JUMPI DUP3 DUP3 MSTORE PUSH1 0x19 PUSH1 0x20 MSTORE PUSH1 0xFF PUSH1 0x40 DUP4 KECCAK256 SLOAD AND PUSH2 0x27D6 JUMPI DUP3 DUP3 MSTORE PUSH1 0x17 PUSH1 0x20 MSTORE PUSH2 0x2233 PUSH1 0x40 DUP4 KECCAK256 SLOAD PUSH1 0xC SLOAD SWAP1 PUSH2 0x1924 JUMP JUMPDEST TIMESTAMP LT PUSH2 0x27C7 JUMPI PUSH1 0x96 DUP5 MUL DUP5 DUP2 DIV PUSH1 0x96 EQ DUP6 ISZERO OR ISZERO PUSH2 0x24C0 JUMPI PUSH2 0x2710 SWAP1 DIV SWAP2 PUSH2 0x225F DUP4 PUSH2 0x399 DUP2 DUP9 PUSH2 0x1BD7 JUMP JUMPDEST SWAP3 PUSH2 0x2269 DUP5 PUSH2 0x31A5 JUMP JUMPDEST SWAP7 DUP3 SWAP5 DUP4 SWAP2 DUP8 DUP6 MSTORE PUSH1 0x16 PUSH1 0x20 MSTORE PUSH1 0x40 DUP6 KECCAK256 SLOAD SWAP3 DUP10 DUP5 ISZERO ISZERO DUP1 PUSH2 0x27BE JUMPI JUMPDEST PUSH2 0x2774 JUMPI JUMPDEST DUP2 PUSH2 0x399 DUP8 PUSH2 0x399 DUP2 PUSH2 0x229D SWAP6 PUSH2 0x1BD7 JUMP JUMPDEST PUSH2 0x22A7 DUP10 DUP14 PUSH2 0x1BD7 JUMP JUMPDEST SWAP7 POP DUP6 ISZERO ISZERO DUP1 PUSH2 0x2755 JUMPI JUMPDEST PUSH2 0x2736 JUMPI JUMPDEST PUSH1 0x0 SWAP3 DUP4 SWAP9 DUP5 SWAP4 DUP1 PUSH2 0x24EB JUMPI JUMPDEST POP SWAP1 PUSH2 0x22D0 SWAP3 SWAP2 PUSH2 0x2B3F JUMP JUMPDEST DUP9 DUP3 MSTORE PUSH1 0x16 PUSH1 0x20 MSTORE PUSH1 0x40 DUP3 KECCAK256 SLOAD DUP7 DUP2 GT PUSH2 0x24DC JUMPI DUP3 JUMPDEST DUP11 DUP5 MSTORE PUSH1 0x16 PUSH1 0x20 MSTORE PUSH1 0x40 DUP5 KECCAK256 SSTORE DUP10 DUP4 MSTORE PUSH1 0x16 PUSH1 0x20 MSTORE PUSH1 0x40 DUP4 KECCAK256 SLOAD PUSH1 0x40 MLOAD SWAP2 DUP3 MSTORE PUSH1 0x20 DUP3 ADD MSTORE DUP7 PUSH1 0x40 DUP3 ADD MSTORE PUSH1 0x80 PUSH1 0x60 DUP3 ADD MSTORE PUSH1 0x4 PUSH1 0x80 DUP3 ADD MSTORE PUSH4 0x14D15313 PUSH1 0xE2 SHL PUSH1 0xA0 DUP3 ADD MSTORE DUP10 PUSH32 0xFA935FE56C7E4DC5D59A584D81AA99B9714C92D3B1CB2E7E329969203C3FD226 PUSH1 0xC0 TIMESTAMP SWAP4 LOG3 DUP8 ISZERO DUP1 PUSH2 0x24D4 JUMPI PUSH2 0x2710 DUP10 MUL SWAP1 DUP10 DUP3 DIV PUSH2 0x2710 EQ OR ISZERO PUSH2 0x24C0 JUMPI PUSH2 0x9C4 SWAP1 DIV SWAP7 JUMPDEST PUSH2 0x237E DUP7 DUP1 PUSH2 0x1924 JUMP JUMPDEST SWAP4 PUSH2 0x2389 DUP11 DUP10 PUSH2 0x1BD7 JUMP JUMPDEST SWAP4 DUP1 PUSH2 0x24AC JUMPI POP PUSH1 0x40 MLOAD SWAP5 DUP13 DUP7 MSTORE PUSH1 0x20 DUP7 ADD MSTORE DUP7 PUSH1 0x40 DUP7 ADD MSTORE DUP7 PUSH1 0x60 DUP7 ADD MSTORE PUSH1 0x80 DUP6 ADD MSTORE DUP12 PUSH1 0xA0 DUP6 ADD MSTORE DUP5 PUSH1 0xC0 DUP6 ADD MSTORE DUP8 PUSH1 0xE0 DUP6 ADD MSTORE DUP9 PUSH2 0x100 DUP6 ADD MSTORE PUSH1 0x0 PUSH2 0x120 DUP6 ADD MSTORE PUSH2 0x140 DUP5 ADD MSTORE PUSH2 0x160 DUP4 ADD MSTORE PUSH2 0x180 DUP3 ADD MSTORE DUP4 PUSH2 0x1A0 DUP3 ADD MSTORE PUSH1 0x0 PUSH2 0x1C0 DUP3 ADD MSTORE DUP7 PUSH32 0x14F1A00236D7BCA73DDCF087E3D43CA785808697C6FDE3616F17D02D6F2C68E3 PUSH2 0x1E0 TIMESTAMP SWAP4 LOG3 DUP6 PUSH1 0x0 MSTORE PUSH1 0x16 PUSH1 0x20 MSTORE PUSH2 0x2430 PUSH1 0x40 PUSH1 0x0 KECCAK256 SLOAD SWAP3 DUP1 PUSH2 0x1924 JUMP JUMPDEST SWAP3 PUSH1 0x4 PUSH1 0x40 MLOAD PUSH4 0x14D15313 PUSH1 0xE2 SHL DUP2 MSTORE KECCAK256 SWAP9 PUSH1 0x40 MLOAD SWAP9 DUP10 MSTORE PUSH1 0x20 DUP10 ADD MSTORE PUSH1 0x40 DUP9 ADD MSTORE PUSH1 0x60 DUP8 ADD MSTORE PUSH1 0x80 DUP7 ADD MSTORE PUSH1 0x0 PUSH1 0xA0 DUP7 ADD MSTORE PUSH1 0x0 PUSH1 0xC0 DUP7 ADD MSTORE PUSH1 0xE0 DUP6 ADD MSTORE PUSH2 0x100 DUP5 ADD MSTORE PUSH2 0x120 DUP4 ADD MSTORE PUSH1 0x0 PUSH2 0x140 DUP4 ADD MSTORE PUSH32 0x681F1F0FB3679A87B3423967DFA2EC97150B706D392EADA5B3617C7508AFC765 PUSH2 0x160 TIMESTAMP SWAP4 LOG4 JUMP JUMPDEST PUSH4 0x4E487B71 PUSH1 0xE0 SHL DUP2 MSTORE PUSH1 0x11 PUSH1 0x4 MSTORE PUSH1 0x24 SWAP1 REVERT JUMPDEST PUSH4 0x4E487B71 PUSH1 0xE0 SHL DUP4 MSTORE PUSH1 0x11 PUSH1 0x4 MSTORE PUSH1 0x24 DUP4 REVERT JUMPDEST POP DUP2 SWAP7 PUSH2 0x2374 JUMP JUMPDEST PUSH2 0x24E6 DUP8 DUP3 PUSH2 0x1BD7 JUMP JUMPDEST PUSH2 0x22E6 JUMP JUMPDEST DUP1 PUSH2 0x24FA PUSH2 0x24FF SWAP3 ADDRESS DUP6 PUSH2 0x2B3F JUMP JUMPDEST PUSH2 0x32DB JUMP JUMPDEST DUP1 ISZERO DUP1 ISZERO PUSH2 0x250E JUMPI JUMPDEST POP PUSH2 0x22C4 JUMP JUMPDEST SWAP2 SWAP11 POP SWAP4 POP PUSH1 0xA DUP5 MUL SWAP1 DUP5 DUP3 DIV PUSH1 0xA EQ OR ISZERO PUSH2 0x2722 JUMPI PUSH1 0x19 PUSH2 0x2532 SWAP2 DIV DUP1 SWAP5 PUSH2 0x1BD7 JUMP JUMPDEST SWAP3 DUP1 PUSH2 0x261B JUMPI JUMPDEST DUP4 PUSH2 0x254A JUMPI JUMPDEST SWAP3 SWAP9 PUSH2 0x22D0 CODESIZE PUSH2 0x2508 JUMP JUMPDEST PUSH1 0xB SLOAD DUP5 SWAP1 PUSH1 0x1 PUSH1 0x1 PUSH1 0xA0 SHL SUB AND DUP1 ISZERO PUSH2 0x2602 JUMPI PUSH2 0x2597 SWAP2 PUSH1 0x20 SWAP2 JUMPDEST PUSH1 0x40 MLOAD PUSH4 0xA9059CBB PUSH1 0xE0 SHL DUP2 MSTORE PUSH1 0x1 PUSH1 0x1 PUSH1 0xA0 SHL SUB SWAP1 SWAP2 AND PUSH1 0x4 DUP3 ADD MSTORE PUSH1 0x24 DUP2 ADD SWAP2 SWAP1 SWAP2 MSTORE SWAP2 DUP3 SWAP1 DUP2 SWAP1 PUSH1 0x44 DUP3 ADD SWAP1 JUMP JUMPDEST SUB DUP2 DUP10 PUSH32 0x0 PUSH1 0x1 PUSH1 0x1 PUSH1 0xA0 SHL SUB AND GAS CALL DUP1 ISZERO PUSH2 0x2067 JUMPI SWAP1 PUSH2 0x22D0 SWAP5 SWAP4 SWAP3 SWAP2 PUSH2 0x25E3 JUMPI JUMPDEST POP SWAP1 SWAP2 SWAP3 POP PUSH2 0x253F JUMP JUMPDEST PUSH2 0x25FB SWAP1 PUSH1 0x20 RETURNDATASIZE PUSH1 0x20 GT PUSH2 0x1A4E JUMPI PUSH2 0x1A43 DUP2 DUP4 PUSH2 0x181C JUMP JUMPDEST POP CODESIZE PUSH2 0x25D9 JUMP JUMPDEST POP PUSH1 0xA SLOAD PUSH2 0x2597 SWAP2 PUSH1 0x20 SWAP2 PUSH1 0x1 PUSH1 0x1 PUSH1 0xA0 SHL SUB AND PUSH2 0x2566 JUMP JUMPDEST PUSH1 0x7 SLOAD PUSH1 0x40 MLOAD PUSH4 0x95EA7B3 PUSH1 0xE0 SHL DUP2 MSTORE PUSH1 0x1 PUSH1 0x1 PUSH1 0xA0 SHL SUB SWAP1 SWAP2 AND PUSH1 0x4 DUP3 ADD MSTORE PUSH1 0x24 DUP2 ADD DUP3 SWAP1 MSTORE PUSH1 0x20 DUP2 DUP1 PUSH1 0x44 DUP2 ADD SUB DUP2 DUP10 PUSH32 0x0 PUSH1 0x1 PUSH1 0x1 PUSH1 0xA0 SHL SUB AND GAS CALL DUP1 ISZERO PUSH2 0x2067 JUMPI PUSH2 0x2705 JUMPI JUMPDEST POP PUSH1 0x7 SLOAD PUSH1 0x1 PUSH1 0x1 PUSH1 0xA0 SHL SUB AND DUP1 EXTCODESIZE ISZERO PUSH2 0x2072 JUMPI DUP6 DUP1 SWAP2 PUSH1 0x24 PUSH1 0x40 MLOAD DUP1 SWAP5 DUP2 SWAP4 PUSH4 0x45EFB3F9 PUSH1 0xE1 SHL DUP4 MSTORE DUP8 PUSH1 0x4 DUP5 ADD MSTORE GAS CALL DUP1 ISZERO PUSH2 0x2067 JUMPI PUSH2 0x26F1 JUMPI JUMPDEST POP PUSH32 0x14164D84B45B7C78B262F5A0A6E5CE9DB145A21B0C02951209C371BDECE6C7E5 PUSH1 0x20 PUSH1 0x40 MLOAD DUP4 DUP2 MSTORE LOG1 PUSH2 0x2539 JUMP JUMPDEST DUP6 PUSH2 0x26FE SWAP2 SWAP7 SWAP3 SWAP7 PUSH2 0x181C JUMP JUMPDEST SWAP4 CODESIZE PUSH2 0x26C1 JUMP JUMPDEST PUSH2 0x271D SWAP1 PUSH1 0x20 RETURNDATASIZE PUSH1 0x20 GT PUSH2 0x1A4E JUMPI PUSH2 0x1A43 DUP2 DUP4 PUSH2 0x181C JUMP JUMPDEST PUSH2 0x2684 JUMP JUMPDEST PUSH4 0x4E487B71 PUSH1 0xE0 SHL DUP6 MSTORE PUSH1 0x11 PUSH1 0x4 MSTORE PUSH1 0x24 DUP6 REVERT JUMPDEST PUSH2 0x2741 DUP7 ADDRESS DUP11 PUSH2 0x2B3F JUMP JUMPDEST PUSH2 0x274D DUP7 PUSH1 0xE SLOAD PUSH2 0x1924 JUMP JUMPDEST PUSH1 0xE SSTORE PUSH2 0x22B7 JUMP JUMPDEST PUSH2 0x2760 DUP8 ADDRESS DUP12 PUSH2 0x2B3F JUMP JUMPDEST PUSH2 0x276C DUP8 PUSH1 0xD SLOAD PUSH2 0x1924 JUMP JUMPDEST PUSH1 0xD SSTORE PUSH2 0x22B2 JUMP JUMPDEST POP POP SWAP6 POP PUSH2 0x2782 DUP3 DUP11 PUSH2 0x1BD7 JUMP JUMPDEST PUSH2 0x9C4 DUP2 MUL SWAP1 DUP1 DUP3 DIV PUSH2 0x9C4 EQ SWAP1 ISZERO OR ISZERO PUSH2 0x2722 JUMPI PUSH2 0x2710 SWAP1 DIV SWAP6 DUP9 DUP5 DUP1 DUP13 PUSH2 0x27AB DUP7 DUP13 PUSH2 0x1C04 JUMP JUMPDEST SWAP1 PUSH2 0x27B5 SWAP2 PUSH2 0x1BE4 JUMP JUMPDEST SWAP3 SWAP2 POP POP PUSH2 0x228B JUMP JUMPDEST POP DUP5 DUP13 GT PUSH2 0x2286 JUMP JUMPDEST PUSH4 0x465FD091 PUSH1 0xE0 SHL DUP3 MSTORE PUSH1 0x4 DUP3 REVERT JUMPDEST PUSH4 0x9550C77 PUSH1 0xE0 SHL DUP3 MSTORE PUSH1 0x4 DUP3 REVERT JUMPDEST SWAP1 POP PUSH2 0x27F2 SWAP4 SWAP2 POP PUSH2 0x2B3F JUMP JUMPDEST PUSH2 0x1F0F PUSH2 0x294D JUMP JUMPDEST SWAP2 POP POP PUSH2 0x1F0F SWAP4 SWAP5 SWAP2 POP PUSH2 0x2B3F JUMP JUMPDEST POP PUSH1 0x1 PUSH1 0x1 PUSH1 0xA0 SHL SUB DUP8 AND DUP4 MSTORE PUSH1 0x18 PUSH1 0x20 MSTORE PUSH1 0x40 DUP4 KECCAK256 SLOAD PUSH1 0xFF AND PUSH2 0x1CC4 JUMP JUMPDEST POP PUSH1 0x1 PUSH1 0x1 PUSH1 0xA0 SHL SUB DUP8 AND ISZERO PUSH2 0x1CA9 JUMP JUMPDEST PUSH2 0x2848 PUSH1 0xD SLOAD PUSH1 0xE SLOAD SWAP1 PUSH2 0x1924 JUMP JUMPDEST PUSH1 0xF SLOAD DUP2 LT ISZERO DUP1 PUSH2 0x2940 JUMPI JUMPDEST PUSH2 0x285B JUMPI POP JUMP JUMPDEST PUSH2 0x2863 PUSH2 0x2CFD JUMP JUMPDEST ISZERO PUSH2 0x28E0 JUMPI PUSH1 0x40 MLOAD SWAP1 DUP2 MSTORE PUSH1 0x60 PUSH1 0x20 DUP3 ADD MSTORE PUSH1 0xE PUSH1 0x60 DUP3 ADD MSTORE PUSH14 0x10555513D7D512149154D213D311 PUSH1 0x92 SHL PUSH1 0x80 DUP3 ADD MSTORE TIMESTAMP PUSH1 0x40 DUP3 ADD MSTORE PUSH32 0xD8296AA488BFCEF418C563CFDCCAD96B64E0D82F06EDA3FE90068D39C9FB85C PUSH1 0xA0 CALLER SWAP3 LOG2 PUSH1 0x1 PUSH1 0xFF NOT PUSH1 0x15 SLOAD AND OR PUSH1 0x15 SSTORE PUSH2 0x28D4 PUSH2 0x2F15 JUMP JUMPDEST PUSH1 0xFF NOT PUSH1 0x15 SLOAD AND PUSH1 0x15 SSTORE JUMP JUMPDEST PUSH1 0xA0 PUSH32 0xE87B88B4C27D1729D389885F3F6648294B68791762D08E1BC96ECE2F6DFF0B14 SWAP2 PUSH1 0x40 MLOAD SWAP1 DUP2 MSTORE PUSH1 0x60 PUSH1 0x20 DUP3 ADD MSTORE PUSH1 0x16 PUSH1 0x60 DUP3 ADD MSTORE PUSH22 0x494E53554646494349454E545F4C4951554944495459 PUSH1 0x50 SHL PUSH1 0x80 DUP3 ADD MSTORE TIMESTAMP PUSH1 0x40 DUP3 ADD MSTORE LOG1 JUMP JUMPDEST POP PUSH1 0xFF PUSH1 0x15 SLOAD AND ISZERO PUSH2 0x2854 JUMP JUMPDEST PUSH1 0x8 SLOAD PUSH1 0x1 PUSH1 0x1 PUSH1 0xA0 SHL SUB AND DUP1 ISZERO PUSH2 0x1A4B JUMPI PUSH1 0x20 PUSH1 0x0 SWAP2 PUSH1 0x4 PUSH1 0x40 MLOAD DUP1 SWAP5 DUP2 SWAP4 PUSH4 0x27D16CE9 PUSH1 0xE1 SHL DUP4 MSTORE GAS CALL PUSH1 0x0 SWAP2 DUP2 PUSH2 0x29EB JUMPI JUMPDEST POP PUSH2 0x298A JUMPI POP JUMP JUMPDEST DUP1 PUSH2 0x2992 JUMPI POP JUMP JUMPDEST PUSH1 0x17 PUSH1 0x40 MLOAD PUSH32 0x46554E445F52454C41595F444953545249425554494F4E000000000000000000 DUP2 MSTORE KECCAK256 PUSH1 0x40 MLOAD SWAP2 DUP3 MSTORE ADDRESS SWAP2 PUSH32 0xDC0542397DE1D347EB80CBA6DCBA197E295E2516706EF1DD5A16D8AC5FB3EEDA PUSH1 0x20 ADDRESS SWAP3 LOG4 JUMP JUMPDEST SWAP1 SWAP2 PUSH1 0x20 DUP3 RETURNDATASIZE PUSH1 0x20 GT PUSH2 0x2A17 JUMPI JUMPDEST DUP2 PUSH2 0x2A06 PUSH1 0x20 SWAP4 DUP4 PUSH2 0x181C JUMP JUMPDEST DUP2 ADD SUB SLT PUSH2 0x3AC JUMPI POP MLOAD SWAP1 CODESIZE PUSH2 0x2982 JUMP JUMPDEST RETURNDATASIZE SWAP2 POP PUSH2 0x29F9 JUMP JUMPDEST PUSH3 0x278D00 PUSH1 0x11 SSTORE PUSH32 0xDBEB6EC948F6EB874ECBD6117742652C35D57FBE578B778B77E677A06AF90B96 PUSH1 0x20 PUSH1 0x40 MLOAD PUSH3 0x278D00 DUP2 MSTORE LOG1 JUMP JUMPDEST SWAP2 SWAP1 DUP3 PUSH2 0x2A61 SWAP2 PUSH2 0x1C04 JUMP JUMPDEST SWAP2 PUSH2 0x2710 DUP4 MUL SWAP3 DUP1 DUP5 DIV PUSH2 0x2710 EQ SWAP1 ISZERO OR ISZERO PUSH2 0x190E JUMPI PUSH2 0x2A80 SWAP2 PUSH2 0x1BD7 JUMP JUMPDEST PUSH2 0x26F7 DUP2 MUL SWAP1 DUP1 DUP3 DIV PUSH2 0x26F7 EQ SWAP1 ISZERO OR ISZERO PUSH2 0x190E JUMPI PUSH2 0x2A9E SWAP2 PUSH2 0x1BE4 JUMP JUMPDEST PUSH1 0x1 DUP2 ADD DUP1 SWAP2 GT PUSH2 0x190E JUMPI SWAP1 JUMP JUMPDEST PUSH1 0x1 PUSH1 0x1 PUSH1 0xA0 SHL SUB AND SWAP1 DUP2 ISZERO PUSH2 0x2B29 JUMPI PUSH1 0x1 PUSH1 0x1 PUSH1 0xA0 SHL SUB AND SWAP2 DUP3 ISZERO PUSH2 0x2B13 JUMPI PUSH1 0x20 PUSH32 0x8C5BE1E5EBEC7D5BD14F71427D1E84F3DD0314C0F7B2291E5B200AC8C7C3B925 SWAP2 DUP4 PUSH1 0x0 MSTORE PUSH1 0x1 DUP3 MSTORE PUSH1 0x40 PUSH1 0x0 KECCAK256 DUP6 PUSH1 0x0 MSTORE DUP3 MSTORE DUP1 PUSH1 0x40 PUSH1 0x0 KECCAK256 SSTORE PUSH1 0x40 MLOAD SWAP1 DUP2 MSTORE LOG3 JUMP JUMPDEST PUSH4 0x4A1406B1 PUSH1 0xE1 SHL PUSH1 0x0 MSTORE PUSH1 0x0 PUSH1 0x4 MSTORE PUSH1 0x24 PUSH1 0x0 REVERT JUMPDEST PUSH4 0xE602DF05 PUSH1 0xE0 SHL PUSH1 0x0 MSTORE PUSH1 0x0 PUSH1 0x4 MSTORE PUSH1 0x24 PUSH1 0x0 REVERT JUMPDEST PUSH1 0x1 PUSH1 0x1 PUSH1 0xA0 SHL SUB AND SWAP1 DUP2 PUSH2 0x2BBB JUMPI PUSH1 0x20 PUSH32 0xDDF252AD1BE2C89B69C2B068FC378DAA952BA7F163C4A11628F55A4DF523B3EF SWAP2 PUSH2 0x2B7E DUP6 PUSH1 0x2 SLOAD PUSH2 0x1924 JUMP JUMPDEST PUSH1 0x2 SSTORE JUMPDEST PUSH1 0x1 PUSH1 0x1 PUSH1 0xA0 SHL SUB AND SWAP4 DUP5 PUSH2 0x2BA3 JUMPI DUP1 PUSH1 0x2 SLOAD SUB PUSH1 0x2 SSTORE JUMPDEST PUSH1 0x40 MLOAD SWAP1 DUP2 MSTORE LOG3 JUMP JUMPDEST DUP5 PUSH1 0x0 MSTORE PUSH1 0x0 DUP3 MSTORE PUSH1 0x40 PUSH1 0x0 KECCAK256 DUP2 DUP2 SLOAD ADD SWAP1 SSTORE PUSH2 0x2B9A JUMP JUMPDEST DUP2 PUSH1 0x0 MSTORE PUSH1 0x0 PUSH1 0x20 MSTORE PUSH1 0x40 PUSH1 0x0 KECCAK256 SLOAD DUP4 DUP2 LT PUSH2 0x2C0B JUMPI PUSH32 0xDDF252AD1BE2C89B69C2B068FC378DAA952BA7F163C4A11628F55A4DF523B3EF SWAP2 DUP5 PUSH1 0x20 SWAP3 DUP6 PUSH1 0x0 MSTORE PUSH1 0x0 DUP5 MSTORE SUB PUSH1 0x40 PUSH1 0x0 KECCAK256 SSTORE PUSH2 0x2B82 JUMP JUMPDEST SWAP2 SWAP1 POP PUSH4 0x391434E3 PUSH1 0xE2 SHL PUSH1 0x0 MSTORE PUSH1 0x4 MSTORE PUSH1 0x24 MSTORE PUSH1 0x44 MSTORE PUSH1 0x64 PUSH1 0x0 REVERT JUMPDEST PUSH1 0x6 SLOAD PUSH1 0x1 PUSH1 0x1 PUSH1 0xA0 SHL SUB SWAP1 DUP2 AND SWAP3 SWAP2 AND DUP3 SWAP1 SUB PUSH2 0x2C95 JUMPI PUSH1 0x1 PUSH1 0x1 PUSH1 0xA0 SHL SUB AND DUP2 DUP2 EQ PUSH2 0x2C95 JUMPI PUSH32 0x0 PUSH1 0x1 PUSH1 0x1 PUSH1 0xA0 SHL SUB AND EQ PUSH2 0x2C8F JUMPI CALLER SUB PUSH2 0x2C8A JUMPI PUSH1 0x1 SWAP1 JUMP JUMPDEST PUSH1 0x0 SWAP1 JUMP JUMPDEST POP PUSH1 0x0 SWAP1 JUMP JUMPDEST POP POP PUSH1 0x0 SWAP1 JUMP JUMPDEST PUSH1 0x6 SLOAD PUSH1 0x1 PUSH1 0x1 PUSH1 0xA0 SHL SUB SWAP1 DUP2 AND SWAP3 AND DUP3 SWAP1 SUB PUSH2 0x2C95 JUMPI PUSH1 0x1 PUSH1 0x1 PUSH1 0xA0 SHL SUB AND DUP2 DUP2 EQ PUSH2 0x2C95 JUMPI PUSH32 0x0 PUSH1 0x1 PUSH1 0x1 PUSH1 0xA0 SHL SUB AND EQ PUSH2 0x2C8F JUMPI CALLER EQ PUSH2 0x2C8A JUMPI PUSH1 0x1 SWAP1 JUMP JUMPDEST PUSH2 0x2D0C PUSH1 0xD SLOAD PUSH1 0xE SLOAD SWAP1 PUSH2 0x1924 JUMP JUMPDEST DUP1 ISZERO PUSH2 0x2C8F JUMPI ADDRESS PUSH1 0x0 MSTORE PUSH1 0x0 PUSH1 0x20 MSTORE DUP1 PUSH1 0x40 PUSH1 0x0 KECCAK256 SLOAD LT PUSH2 0x2C8F JUMPI PUSH1 0x6 SLOAD PUSH1 0x40 MLOAD PUSH4 0x240BC6B PUSH1 0xE2 SHL DUP2 MSTORE SWAP1 PUSH1 0x1 PUSH1 0x1 PUSH1 0xA0 SHL SUB AND PUSH1 0x60 DUP3 PUSH1 0x4 DUP2 DUP5 GAS STATICCALL SWAP2 DUP3 PUSH1 0x0 SWAP2 PUSH1 0x0 SWAP5 PUSH2 0x2EF1 JUMPI JUMPDEST POP PUSH2 0x2D65 JUMPI POP POP POP POP PUSH1 0x0 SWAP1 JUMP JUMPDEST PUSH1 0x40 MLOAD PUSH4 0xDFE1681 PUSH1 0xE0 SHL DUP2 MSTORE SWAP1 PUSH1 0x20 DUP3 PUSH1 0x4 DUP2 DUP7 GAS STATICCALL SWAP2 DUP3 ISZERO PUSH2 0x1A55 JUMPI PUSH1 0x0 SWAP3 PUSH2 0x2ED0 JUMPI JUMPDEST POP PUSH1 0x1 PUSH1 0x1 PUSH1 0xA0 SHL SUB PUSH32 0x0 DUP2 AND SWAP3 AND DUP3 SUB PUSH2 0x2ECA JUMPI SWAP3 SWAP1 JUMPDEST PUSH1 0x1 PUSH1 0x1 PUSH1 0xA0 SHL SUB DUP4 AND PUSH1 0x0 SWAP1 DUP2 MSTORE PUSH1 0x20 DUP2 DUP2 MSTORE PUSH1 0x40 SWAP1 SWAP2 KECCAK256 SLOAD SWAP4 PUSH1 0x24 PUSH1 0x40 MLOAD DUP1 SWAP5 DUP2 SWAP4 PUSH4 0x70A08231 PUSH1 0xE0 SHL DUP4 MSTORE PUSH1 0x4 DUP4 ADD MSTORE GAS STATICCALL SWAP1 DUP2 ISZERO PUSH2 0x1A55 JUMPI PUSH1 0x0 SWAP2 PUSH2 0x2E98 JUMPI JUMPDEST POP PUSH1 0x1 PUSH1 0x1 PUSH1 0x70 SHL SUB DUP3 AND SWAP4 PUSH1 0x5F DUP6 MUL SWAP4 DUP6 ISZERO SWAP5 DUP7 DUP2 DIV PUSH1 0x5F EQ DUP7 OR ISZERO PUSH2 0x190E JUMPI PUSH1 0x64 SWAP1 DIV GT PUSH2 0x2E8D JUMPI PUSH1 0x1 PUSH1 0x1 PUSH1 0x70 SHL SUB AND PUSH1 0x5F DUP2 MUL SWAP1 DUP1 DUP3 DIV PUSH1 0x5F EQ SWAP1 ISZERO OR ISZERO PUSH2 0x190E JUMPI PUSH1 0x64 SWAP1 DIV GT PUSH2 0x2E84 JUMPI PUSH15 0x1FFFFFFFFFFFFFFFFFFFFFFFFFFFE SWAP1 PUSH1 0x1 SHL AND SWAP2 DUP3 DIV PUSH1 0x2 EQ OR ISZERO PUSH2 0x190E JUMPI PUSH1 0x64 SWAP1 DIV LT PUSH2 0x2C8A JUMPI PUSH1 0x1 SWAP1 JUMP JUMPDEST POP POP POP POP PUSH1 0x0 SWAP1 JUMP JUMPDEST POP POP POP POP POP POP PUSH1 0x0 SWAP1 JUMP JUMPDEST SWAP1 POP PUSH1 0x20 DUP2 RETURNDATASIZE PUSH1 0x20 GT PUSH2 0x2EC2 JUMPI JUMPDEST DUP2 PUSH2 0x2EB3 PUSH1 0x20 SWAP4 DUP4 PUSH2 0x181C JUMP JUMPDEST DUP2 ADD SUB SLT PUSH2 0x178C JUMPI MLOAD CODESIZE PUSH2 0x2E06 JUMP JUMPDEST RETURNDATASIZE SWAP2 POP PUSH2 0x2EA6 JUMP JUMPDEST SWAP1 PUSH2 0x2DC2 JUMP JUMPDEST PUSH2 0x2EEA SWAP2 SWAP3 POP PUSH1 0x20 RETURNDATASIZE PUSH1 0x20 GT PUSH2 0x1B98 JUMPI PUSH2 0x1B8A DUP2 DUP4 PUSH2 0x181C JUMP JUMPDEST SWAP1 CODESIZE PUSH2 0x2D8B JUMP JUMPDEST SWAP1 SWAP4 POP PUSH2 0x2F0D SWAP2 POP PUSH1 0x60 RETURNDATASIZE PUSH1 0x60 GT PUSH2 0x1BD0 JUMPI PUSH2 0x1BBD DUP2 DUP4 PUSH2 0x181C JUMP JUMPDEST POP SWAP3 CODESIZE PUSH2 0x2D57 JUMP JUMPDEST PUSH1 0xD SLOAD PUSH1 0x0 PUSH1 0xE SLOAD SWAP2 PUSH2 0x2F28 DUP4 DUP3 PUSH2 0x1924 JUMP JUMPDEST ISZERO PUSH2 0x31A0 JUMPI DUP2 PUSH1 0xD SSTORE DUP2 PUSH1 0xE SSTORE DUP2 SWAP3 DUP3 SWAP2 DUP1 PUSH2 0x30D6 JUMPI JUMPDEST DUP2 PUSH2 0x2FD2 JUMPI JUMPDEST SWAP1 PUSH2 0x2F4F SWAP2 PUSH2 0x1924 JUMP JUMPDEST SWAP2 PUSH1 0x1 DUP1 PUSH1 0xA0 SHL SUB PUSH1 0x7 SLOAD AND SWAP1 PUSH1 0x1 DUP1 PUSH1 0xA0 SHL SUB PUSH1 0xA SLOAD AND SWAP3 PUSH1 0x10 PUSH1 0x40 MLOAD PUSH16 0x414343554D554C415445445F46454553 PUSH1 0x80 SHL DUP2 MSTORE KECCAK256 SWAP6 PUSH1 0x40 MLOAD SWAP6 DUP7 MSTORE PUSH1 0x20 DUP7 ADD MSTORE DUP2 PUSH1 0x40 DUP7 ADD MSTORE PUSH1 0x60 DUP6 ADD MSTORE PUSH1 0x80 DUP5 ADD MSTORE PUSH1 0xA0 DUP4 ADD MSTORE PUSH1 0xC0 DUP3 ADD MSTORE PUSH32 0x86E133FBF1E40A6A97B6C78D78538F95F9C3B84EC08E1A53EB43FB050D9ACB94 PUSH1 0xE0 TIMESTAMP SWAP3 LOG3 JUMP JUMPDEST PUSH1 0x7 SLOAD PUSH1 0x40 MLOAD PUSH4 0x95EA7B3 PUSH1 0xE0 SHL DUP2 MSTORE PUSH1 0x1 PUSH1 0x1 PUSH1 0xA0 SHL SUB SWAP1 SWAP2 AND PUSH1 0x4 DUP3 ADD MSTORE PUSH1 0x24 DUP2 ADD DUP4 SWAP1 MSTORE SWAP1 SWAP5 SWAP1 PUSH1 0x20 DUP2 PUSH1 0x44 DUP2 DUP9 ADDRESS GAS CALL DUP1 ISZERO PUSH2 0x30AE JUMPI PUSH2 0x30B9 JUMPI JUMPDEST POP PUSH1 0x7 SLOAD PUSH1 0x1 PUSH1 0x1 PUSH1 0xA0 SHL SUB AND DUP1 EXTCODESIZE ISZERO PUSH2 0x2063 JUMPI DUP5 DUP1 SWAP2 PUSH1 0x24 PUSH1 0x40 MLOAD DUP1 SWAP5 DUP2 SWAP4 PUSH4 0x3ACFCEF1 PUSH1 0xE1 SHL DUP4 MSTORE DUP9 PUSH1 0x4 DUP5 ADD MSTORE GAS CALL DUP1 ISZERO PUSH2 0x30AE JUMPI PUSH2 0x3090 JUMPI JUMPDEST POP SWAP1 PUSH2 0x3087 DUP2 PUSH2 0x2F4F SWAP4 PUSH32 0x14164D84B45B7C78B262F5A0A6E5CE9DB145A21B0C02951209C371BDECE6C7E5 PUSH1 0x20 PUSH1 0x40 MLOAD DUP5 DUP2 MSTORE LOG1 PUSH2 0x1924 JUMP JUMPDEST SWAP5 SWAP1 SWAP2 POP PUSH2 0x2F45 JUMP JUMPDEST DUP3 DUP6 PUSH2 0x30A4 PUSH2 0x2F4F SWAP6 SWAP5 SWAP8 PUSH2 0x3087 SWAP5 PUSH2 0x181C JUMP JUMPDEST SWAP6 SWAP3 POP SWAP3 POP PUSH2 0x304E JUMP JUMPDEST PUSH1 0x40 MLOAD RETURNDATASIZE DUP8 DUP3 RETURNDATACOPY RETURNDATASIZE SWAP1 REVERT JUMPDEST PUSH2 0x30D1 SWAP1 PUSH1 0x20 RETURNDATASIZE PUSH1 0x20 GT PUSH2 0x1A4E JUMPI PUSH2 0x1A43 DUP2 DUP4 PUSH2 0x181C JUMP JUMPDEST PUSH2 0x3011 JUMP JUMPDEST SWAP2 POP PUSH2 0x30E1 DUP3 PUSH2 0x32DB JUMP JUMPDEST SWAP2 DUP3 ISZERO ISZERO DUP1 PUSH2 0x318C JUMPI JUMPDEST ISZERO PUSH2 0x2F3F JUMPI PUSH1 0xA SLOAD PUSH1 0x40 MLOAD PUSH4 0xA9059CBB PUSH1 0xE0 SHL DUP2 MSTORE PUSH1 0x1 PUSH1 0x1 PUSH1 0xA0 SHL SUB SWAP1 SWAP2 AND PUSH1 0x4 DUP3 ADD MSTORE PUSH1 0x24 DUP2 ADD DUP5 SWAP1 MSTORE SWAP1 SWAP5 POP PUSH1 0x20 DUP2 DUP1 PUSH1 0x44 DUP2 ADD SUB DUP2 DUP8 PUSH32 0x0 PUSH1 0x1 PUSH1 0x1 PUSH1 0xA0 SHL SUB AND GAS CALL DUP1 ISZERO PUSH2 0x3181 JUMPI PUSH2 0x3164 JUMPI JUMPDEST POP DUP2 SWAP4 PUSH2 0x2F3F JUMP JUMPDEST PUSH2 0x317C SWAP1 PUSH1 0x20 RETURNDATASIZE PUSH1 0x20 GT PUSH2 0x1A4E JUMPI PUSH2 0x1A43 DUP2 DUP4 PUSH2 0x181C JUMP JUMPDEST PUSH2 0x315C JUMP JUMPDEST PUSH1 0x40 MLOAD RETURNDATASIZE DUP7 DUP3 RETURNDATACOPY RETURNDATASIZE SWAP1 REVERT JUMPDEST POP PUSH1 0xA SLOAD PUSH1 0x1 PUSH1 0x1 PUSH1 0xA0 SHL SUB AND ISZERO ISZERO PUSH2 0x30EB JUMP JUMPDEST POP POP POP JUMP JUMPDEST PUSH1 0x6 SLOAD PUSH1 0x40 MLOAD PUSH4 0x240BC6B PUSH1 0xE2 SHL DUP2 MSTORE PUSH1 0x1 PUSH1 0x1 PUSH1 0xA0 SHL SUB SWAP1 SWAP2 AND SWAP2 SWAP1 PUSH1 0x60 DUP2 PUSH1 0x4 DUP2 DUP7 GAS STATICCALL SWAP3 DUP4 PUSH1 0x0 SWAP3 PUSH1 0x0 SWAP6 PUSH2 0x32B3 JUMPI JUMPDEST POP PUSH2 0x31E6 JUMPI POP POP POP POP PUSH1 0x0 SWAP1 JUMP JUMPDEST PUSH1 0x20 PUSH1 0x4 SWAP2 PUSH1 0x40 MLOAD SWAP3 DUP4 DUP1 SWAP3 PUSH4 0xDFE1681 PUSH1 0xE0 SHL DUP3 MSTORE GAS STATICCALL SWAP1 DUP2 ISZERO PUSH2 0x1A55 JUMPI PUSH1 0x0 SWAP2 PUSH2 0x3294 JUMPI JUMPDEST POP PUSH1 0x1 PUSH1 0x1 PUSH1 0xA0 SHL SUB SWAP1 DUP2 AND PUSH32 0x0 SWAP1 SWAP2 AND SUB PUSH2 0x3286 JUMPI PUSH1 0x1 PUSH1 0x1 PUSH1 0x70 SHL SUB SWAP1 SWAP3 JUMPDEST AND DUP1 ISZERO ISZERO DUP1 PUSH2 0x3274 JUMPI JUMPDEST PUSH2 0x3261 JUMPI DUP1 PUSH2 0x2E84 JUMP JUMPDEST PUSH1 0x1 PUSH1 0x1 PUSH1 0x70 SHL SUB PUSH2 0x1C60 SWAP4 AND SWAP2 PUSH2 0x1C17 JUMP JUMPDEST POP PUSH1 0x1 PUSH1 0x1 PUSH1 0x70 SHL SUB DUP4 AND ISZERO ISZERO PUSH2 0x3257 JUMP JUMPDEST PUSH1 0x1 PUSH1 0x1 PUSH1 0x70 SHL SUB SWAP1 PUSH2 0x324D JUMP JUMPDEST PUSH2 0x32AD SWAP2 POP PUSH1 0x20 RETURNDATASIZE PUSH1 0x20 GT PUSH2 0x1B98 JUMPI PUSH2 0x1B8A DUP2 DUP4 PUSH2 0x181C JUMP JUMPDEST CODESIZE PUSH2 0x320D JUMP JUMPDEST SWAP1 SWAP5 POP PUSH2 0x32D0 SWAP2 SWAP3 POP PUSH1 0x60 RETURNDATASIZE PUSH1 0x60 GT PUSH2 0x1BD0 JUMPI PUSH2 0x1BBD DUP2 DUP4 PUSH2 0x181C JUMP JUMPDEST POP SWAP2 SWAP1 SWAP2 SWAP4 CODESIZE PUSH2 0x31D8 JUMP JUMPDEST PUSH2 0x32F3 SWAP1 PUSH1 0x1 PUSH1 0xFF NOT PUSH1 0x15 SLOAD AND OR PUSH1 0x15 SSTORE PUSH1 0x0 PUSH2 0x3375 JUMP JUMPDEST SWAP1 PUSH1 0xFF NOT PUSH1 0x15 SLOAD AND PUSH1 0x15 SSTORE JUMP JUMPDEST PUSH1 0x0 PUSH1 0x44 RETURNDATASIZE LT PUSH2 0x1C60 JUMPI PUSH1 0x40 MLOAD RETURNDATASIZE PUSH1 0x3 NOT ADD PUSH1 0x4 DUP3 RETURNDATACOPY DUP1 MLOAD SWAP2 RETURNDATASIZE PUSH1 0x24 DUP5 ADD GT PUSH8 0xFFFFFFFFFFFFFFFF DUP5 GT OR PUSH2 0x336F JUMPI DUP3 DUP3 ADD SWAP3 DUP4 MLOAD SWAP2 PUSH8 0xFFFFFFFFFFFFFFFF DUP4 GT PUSH2 0x3367 JUMPI RETURNDATASIZE DUP5 ADD PUSH1 0x3 NOT ADD DUP6 DUP5 ADD PUSH1 0x20 ADD GT PUSH2 0x3367 JUMPI POP PUSH2 0x1C60 SWAP3 SWAP2 ADD PUSH1 0x20 ADD SWAP1 PUSH2 0x181C JUMP JUMPDEST SWAP5 SWAP4 POP POP POP POP JUMP JUMPDEST SWAP3 SWAP2 POP POP JUMP JUMPDEST POP PUSH1 0x0 SWAP1 DUP1 ISZERO DUP1 ISZERO PUSH2 0x3868 JUMPI JUMPDEST PUSH2 0x3864 JUMPI PUSH1 0x60 PUSH1 0x40 MLOAD PUSH2 0x3395 DUP3 DUP3 PUSH2 0x181C JUMP JUMPDEST PUSH1 0x2 DUP2 MSTORE PUSH1 0x20 DUP2 ADD PUSH1 0x1F NOT DUP4 ADD CALLDATASIZE DUP3 CALLDATACOPY DUP2 MLOAD ISZERO PUSH2 0x3850 JUMPI ADDRESS DUP2 MSTORE DUP2 MLOAD PUSH1 0x1 LT ISZERO PUSH2 0x3850 JUMPI PUSH1 0x1 PUSH1 0x1 PUSH1 0xA0 SHL SUB PUSH32 0x0 DUP2 AND PUSH1 0x40 DUP5 ADD DUP2 SWAP1 MSTORE SWAP3 SWAP1 PUSH32 0x0 AND PUSH2 0x341A DUP7 DUP3 ADDRESS PUSH2 0x2AAC JUMP JUMPDEST PUSH1 0x8 SLOAD PUSH1 0x1 PUSH1 0x1 PUSH1 0xA0 SHL SUB AND DUP1 ISZERO PUSH2 0x3848 JUMPI SWAP3 JUMPDEST PUSH1 0x40 MLOAD PUSH4 0x70A08231 PUSH1 0xE0 SHL DUP2 MSTORE ADDRESS PUSH1 0x4 DUP3 ADD MSTORE SWAP4 PUSH1 0x20 DUP6 PUSH1 0x24 DUP2 DUP10 GAS STATICCALL SWAP5 DUP6 ISZERO PUSH2 0x383D JUMPI DUP10 SWAP6 PUSH2 0x3805 JUMPI JUMPDEST POP PUSH2 0x12C TIMESTAMP ADD SWAP1 DUP2 TIMESTAMP GT PUSH2 0x37F1 JUMPI DUP4 EXTCODESIZE ISZERO PUSH2 0x37ED JUMPI SWAP4 SWAP2 DUP10 SWAP4 SWAP2 PUSH1 0x40 MLOAD SWAP6 DUP7 SWAP5 PUSH4 0x5C11D795 PUSH1 0xE0 SHL DUP7 MSTORE PUSH1 0xA4 DUP7 ADD SWAP1 DUP13 PUSH1 0x4 DUP9 ADD MSTORE DUP8 PUSH1 0x24 DUP9 ADD MSTORE PUSH1 0xA0 PUSH1 0x44 DUP9 ADD MSTORE MLOAD DUP1 SWAP2 MSTORE PUSH1 0xC4 DUP7 ADD SWAP4 SWAP1 DUP8 JUMPDEST DUP2 DUP2 LT PUSH2 0x37C8 JUMPI POP POP POP PUSH1 0x1 PUSH1 0x1 PUSH1 0xA0 SHL SUB AND PUSH1 0x64 DUP6 ADD MSTORE PUSH1 0x84 DUP5 ADD MSTORE DUP3 SWAP1 SUB SWAP1 DUP3 SWAP1 DUP5 SWAP1 GAS CALL SWAP1 DUP2 PUSH2 0x37B4 JUMPI JUMPDEST POP PUSH2 0x3598 JUMPI POP POP SWAP1 PUSH32 0x23710C5E610526DF3C632BC797FB4914964991CC07E128EE2AF743AEED319E06 SWAP2 DUP4 PUSH1 0x3 RETURNDATASIZE GT PUSH2 0x3588 JUMPI JUMPDEST PUSH4 0x8C379A0 EQ PUSH2 0x354D JUMPI JUMPDEST PUSH1 0xA0 SWAP2 PUSH1 0x12 PUSH1 0x40 MLOAD SWAP3 DUP1 DUP5 MSTORE DUP4 ADD MSTORE PUSH18 0x2AB735B737BBB71039BBB0B81032B93937B9 PUSH1 0x71 SHL PUSH1 0x80 DUP4 ADD MSTORE PUSH1 0x20 DUP3 ADD MSTORE TIMESTAMP PUSH1 0x40 DUP3 ADD MSTORE LOG1 SWAP1 JUMP JUMPDEST PUSH2 0x3555 PUSH2 0x3300 JUMP JUMPDEST SWAP2 DUP3 PUSH2 0x3562 JUMPI SWAP2 POP PUSH2 0x3514 JUMP JUMPDEST PUSH2 0x3576 PUSH1 0x40 MLOAD SWAP4 DUP4 DUP6 SWAP5 DUP6 MSTORE DUP5 ADD SWAP1 PUSH2 0x1791 JUMP JUMPDEST SWAP1 PUSH1 0x20 DUP4 ADD MSTORE TIMESTAMP PUSH1 0x40 DUP4 ADD MSTORE SUB SWAP1 LOG1 SWAP1 JUMP JUMPDEST POP PUSH1 0x4 DUP5 DUP1 RETURNDATACOPY DUP4 MLOAD PUSH1 0xE0 SHR PUSH2 0x3509 JUMP JUMPDEST PUSH1 0x8 SLOAD PUSH1 0x1 PUSH1 0x1 PUSH1 0xA0 SHL SUB AND SWAP2 DUP3 ISZERO PUSH2 0x36B5 JUMPI POP POP PUSH1 0x20 DUP5 SWAP2 PUSH1 0x4 PUSH1 0x40 MLOAD DUP1 SWAP8 DUP2 SWAP4 PUSH4 0x27D16CE9 PUSH1 0xE1 SHL DUP4 MSTORE GAS CALL SWAP4 DUP5 ISZERO PUSH2 0x583 JUMPI DUP2 SWAP5 PUSH2 0x3681 JUMPI JUMPDEST POP DUP4 ISZERO PUSH2 0x35E2 JUMPI JUMPDEST POP POP POP SWAP1 JUMP JUMPDEST PUSH32 0x23710C5E610526DF3C632BC797FB4914964991CC07E128EE2AF743AEED319E06 PUSH1 0xA0 PUSH32 0x163A4024B77F02BFAB6D1E18C917F413DC151008CF420BF1E0309F0CF8D7B1FA SWAP5 PUSH1 0x40 MLOAD SWAP1 DUP6 DUP3 MSTORE PUSH1 0x19 DUP7 DUP4 ADD MSTORE PUSH32 0x46756E6452656C6179207472616E73666572206661696C656400000000000000 PUSH1 0x80 DUP4 ADD MSTORE PUSH1 0x20 DUP3 ADD MSTORE TIMESTAMP PUSH1 0x40 DUP3 ADD MSTORE LOG1 PUSH1 0x40 MLOAD SWAP1 DUP1 DUP3 MSTORE PUSH1 0x20 DUP3 ADD MSTORE TIMESTAMP PUSH1 0x40 DUP3 ADD MSTORE LOG1 CODESIZE DUP1 DUP1 PUSH2 0x35DC JUMP JUMPDEST SWAP1 SWAP4 POP PUSH1 0x20 DUP2 RETURNDATASIZE PUSH1 0x20 GT PUSH2 0x36AD JUMPI JUMPDEST DUP2 PUSH2 0x369D PUSH1 0x20 SWAP4 DUP4 PUSH2 0x181C JUMP JUMPDEST DUP2 ADD SUB SLT PUSH2 0x178C JUMPI MLOAD SWAP3 CODESIZE PUSH2 0x35D4 JUMP JUMPDEST RETURNDATASIZE SWAP2 POP PUSH2 0x3690 JUMP JUMPDEST PUSH1 0x40 MLOAD PUSH4 0x70A08231 PUSH1 0xE0 SHL DUP2 MSTORE ADDRESS PUSH1 0x4 DUP3 ADD MSTORE SWAP5 SWAP6 SWAP4 SWAP5 SWAP2 SWAP3 POP PUSH1 0x20 SWAP1 DUP3 SWAP1 PUSH1 0x24 SWAP1 DUP3 SWAP1 GAS STATICCALL SWAP1 DUP2 ISZERO PUSH2 0x37A9 JUMPI DUP4 SWAP2 PUSH2 0x3777 JUMPI JUMPDEST POP DUP2 DUP2 GT ISZERO PUSH2 0x376F JUMPI PUSH2 0x36FC SWAP3 POP PUSH2 0x1BD7 JUMP JUMPDEST SWAP2 JUMPDEST DUP3 ISZERO PUSH2 0x3709 JUMPI POP POP SWAP1 JUMP JUMPDEST PUSH32 0x23710C5E610526DF3C632BC797FB4914964991CC07E128EE2AF743AEED319E06 SWAP2 PUSH1 0xA0 SWAP2 PUSH1 0x1E PUSH1 0x40 MLOAD SWAP3 DUP1 DUP5 MSTORE DUP4 ADD MSTORE PUSH32 0x44697265637420737761702072657475726E6564207A65726F20555344540000 PUSH1 0x80 DUP4 ADD MSTORE PUSH1 0x20 DUP3 ADD MSTORE TIMESTAMP PUSH1 0x40 DUP3 ADD MSTORE LOG1 SWAP1 JUMP JUMPDEST POP POP SWAP2 PUSH2 0x36FE JUMP JUMPDEST SWAP1 POP PUSH1 0x20 DUP2 RETURNDATASIZE PUSH1 0x20 GT PUSH2 0x37A1 JUMPI JUMPDEST DUP2 PUSH2 0x3792 PUSH1 0x20 SWAP4 DUP4 PUSH2 0x181C JUMP JUMPDEST DUP2 ADD SUB SLT PUSH2 0x178C JUMPI MLOAD CODESIZE PUSH2 0x36E9 JUMP JUMPDEST RETURNDATASIZE SWAP2 POP PUSH2 0x3785 JUMP JUMPDEST PUSH1 0x40 MLOAD RETURNDATASIZE DUP6 DUP3 RETURNDATACOPY RETURNDATASIZE SWAP1 REVERT JUMPDEST DUP7 PUSH2 0x37C1 SWAP2 SWAP8 SWAP3 SWAP8 PUSH2 0x181C JUMP JUMPDEST SWAP5 CODESIZE PUSH2 0x34D5 JUMP JUMPDEST DUP3 MLOAD PUSH1 0x1 PUSH1 0x1 PUSH1 0xA0 SHL SUB AND DUP7 MSTORE DUP15 SWAP9 POP DUP10 SWAP8 POP PUSH1 0x20 SWAP6 DUP7 ADD SWAP6 SWAP1 SWAP3 ADD SWAP2 PUSH1 0x1 ADD PUSH2 0x34A7 JUMP JUMPDEST DUP10 DUP1 REVERT JUMPDEST PUSH4 0x4E487B71 PUSH1 0xE0 SHL DUP11 MSTORE PUSH1 0x11 PUSH1 0x4 MSTORE PUSH1 0x24 DUP11 REVERT JUMPDEST SWAP1 SWAP5 POP PUSH1 0x20 DUP2 RETURNDATASIZE PUSH1 0x20 GT PUSH2 0x3835 JUMPI JUMPDEST DUP2 PUSH2 0x3821 PUSH1 0x20 SWAP4 DUP4 PUSH2 0x181C JUMP JUMPDEST DUP2 ADD SUB SLT PUSH2 0x3831 JUMPI MLOAD SWAP4 CODESIZE PUSH2 0x3459 JUMP JUMPDEST DUP9 DUP1 REVERT JUMPDEST RETURNDATASIZE SWAP2 POP PUSH2 0x3814 JUMP JUMPDEST PUSH1 0x40 MLOAD RETURNDATASIZE DUP12 DUP3 RETURNDATACOPY RETURNDATASIZE SWAP1 REVERT JUMPDEST POP ADDRESS SWAP3 PUSH2 0x342E JUMP JUMPDEST PUSH4 0x4E487B71 PUSH1 0xE0 SHL DUP6 MSTORE PUSH1 0x32 PUSH1 0x4 MSTORE PUSH1 0x24 DUP6 REVERT JUMPDEST POP SWAP1 JUMP JUMPDEST POP ADDRESS DUP3 MSTORE DUP2 PUSH1 0x20 MSTORE DUP1 PUSH1 0x40 DUP4 KECCAK256 SLOAD LT PUSH2 0x3382 JUMP JUMPDEST PUSH1 0x6 SLOAD PUSH1 0x40 MLOAD PUSH4 0x240BC6B PUSH1 0xE2 SHL DUP2 MSTORE PUSH1 0x1 PUSH1 0x1 PUSH1 0xA0 SHL SUB SWAP1 SWAP2 AND SWAP1 PUSH1 0x60 DUP2 PUSH1 0x4 DUP2 DUP6 GAS STATICCALL SWAP2 DUP3 PUSH1 0x0 SWAP3 PUSH1 0x0 SWAP5 PUSH2 0x39A1 JUMPI JUMPDEST POP PUSH2 0x38B9 JUMPI POP POP POP SWAP1 JUMP JUMPDEST PUSH1 0x20 PUSH1 0x4 SWAP2 PUSH1 0x40 MLOAD SWAP3 DUP4 DUP1 SWAP3 PUSH4 0xDFE1681 PUSH1 0xE0 SHL DUP3 MSTORE GAS STATICCALL SWAP1 DUP2 ISZERO PUSH2 0x1A55 JUMPI PUSH1 0x0 SWAP2 PUSH2 0x3982 JUMPI JUMPDEST POP PUSH1 0x1 PUSH1 0x1 PUSH1 0xA0 SHL SUB SWAP1 DUP2 AND PUSH32 0x0 SWAP1 SWAP2 AND SUB PUSH2 0x3974 JUMPI PUSH1 0x1 PUSH1 0x1 PUSH1 0x70 SHL SUB SWAP1 SWAP2 JUMPDEST AND SWAP1 DUP2 ISZERO ISZERO DUP1 PUSH2 0x3962 JUMPI JUMPDEST PUSH2 0x3935 JUMPI DUP1 PUSH2 0x35DC JUMP JUMPDEST PUSH2 0x2710 DUP4 MUL SWAP3 DUP1 DUP5 DIV PUSH2 0x2710 EQ SWAP1 ISZERO OR ISZERO PUSH2 0x190E JUMPI PUSH1 0x1 PUSH1 0x1 PUSH1 0x70 SHL SUB PUSH2 0x25E4 PUSH2 0x1C60 SWAP5 DIV SWAP2 AND SWAP1 PUSH2 0x2A55 JUMP JUMPDEST POP PUSH1 0x1 PUSH1 0x1 PUSH1 0x70 SHL SUB DUP2 AND ISZERO ISZERO PUSH2 0x392B JUMP JUMPDEST PUSH1 0x1 PUSH1 0x1 PUSH1 0x70 SHL SUB SWAP1 PUSH2 0x3920 JUMP JUMPDEST PUSH2 0x399B SWAP2 POP PUSH1 0x20 RETURNDATASIZE PUSH1 0x20 GT PUSH2 0x1B98 JUMPI PUSH2 0x1B8A DUP2 DUP4 PUSH2 0x181C JUMP JUMPDEST CODESIZE PUSH2 0x38E0 JUMP JUMPDEST SWAP1 SWAP4 POP PUSH2 0x39BE SWAP2 SWAP3 POP PUSH1 0x60 RETURNDATASIZE PUSH1 0x60 GT PUSH2 0x1BD0 JUMPI PUSH2 0x1BBD DUP2 DUP4 PUSH2 0x181C JUMP JUMPDEST POP SWAP2 SWAP1 SWAP2 SWAP3 CODESIZE PUSH2 0x38AE JUMP INVALID LOG2 PUSH5 0x6970667358 0x22 SLT KECCAK256 PUSH8 0x50F1A1196CD9C1CC PUSH5 0x3476058656 DUP1 ADDRESS CALLER DUP9 DUP2 0x4C PREVRANDAO 0x2D 0xB3 0xC6 PUSH32 0x801E9560B3D464736F6C634300081C0033000000000000000000000000000000 "},"methodIdentifiers":{"DEAD_ADDRESS()":"4e6fd6c4","USDT()":"c54e44eb","allowance(address,address)":"dd62ed3e","amountLPFee()":"9315e561","amountMarketingFee()":"66d57b95","approve(address,uint256)":"095ea7b3","balanceOf(address)":"70a08231","blacklisted(address)":"dbac26e9","coldTime()":"36543fb9","contractDeployTime()":"9f54790d","decimals()":"313ce567","delayedBuyEnabled()":"43a066aa","delayedBuyEnabledTime()":"d4273cd6","feeWhitelisted(address)":"569ea101","fundRelay()":"7464024c","getAccumulatedFees()":"5df45a37","getAmountIn(uint256,uint256,uint256)":"85f8c259","getAmountOut(uint256,uint256,uint256)":"054d50d4","getDelayedBuyInfo()":"ff919151","getDelayedSwapStatus()":"570475dc","getFundRelay()":"a4823059","getLiquidityStaking()":"a33bce28","getPresaleStatus()":"d7517caa","getUSDTReserve()":"d123de31","getUniswapV2Pair()":"1abfa629","getUserInvestment(address)":"32f65881","initializeWhitelist()":"2927bacd","isContract(address)":"16279055","isDelayedBuyPeriodMet(address)":"87894d03","lastBuyTime(address)":"3fecc2e2","liquidityStaking()":"d9c821f3","liquidityThreshold()":"c9688086","marketingAddress()":"a5ece941","name()":"06fdde03","nodeDividendAddress()":"615c4409","owner()":"8da5cb5b","presaleActive()":"53135ca0","presaleDuration()":"5868c32a","presaleStartTime()":"a82524b2","recoverStuckTokens(address,uint256)":"c596f3fe","recycle(uint256)":"dd1c35bc","renounceOwnership()":"715018a6","rootAddress()":"aaa2b8c8","setBatchBlacklisted(address[],bool)":"861bd3c5","setBatchFeeWhitelisted(address[],bool)":"90e82f24","setBlacklisted(address,bool)":"d01dd6d2","setColdTime(uint256)":"622e6ad8","setDelayedBuyEnabled(bool)":"af24ccaa","setFeeWhitelisted(address,bool)":"b99ce15e","setFundRelay(address)":"21e2c957","setLiquidityStaking(address)":"140bdcba","setLiquidityThreshold(uint256)":"4baf59f3","setMarketingAddress(address)":"906e9dd0","setNodeDividendAddress(address)":"3c19814e","setPair(address)":"8187f516","setPresaleActive(bool)":"3f8121a2","setPresaleDuration()":"fdc0cdbf","setSwapAtAmount(uint256)":"6402511e","staking()":"4cf088d9","swapAtAmount()":"86917524","symbol()":"95d89b41","totalSupply()":"18160ddd","transfer(address,uint256)":"a9059cbb","transferFrom(address,address,uint256)":"23b872dd","transferOwnership(address)":"f2fde38b","triggerFeeProcessing()":"38a674c5","triggerFundRelayDistribution()":"52795e0b","uniswapV2Pair()":"49bd5a5e","uniswapV2Router()":"1694505e","userInvestment(address)":"8733cfd3"}}}}}