{"contracts/SYI-Staking/mainnet/Staking.sol":{"Staking":{"abi":[{"inputs":[{"internalType":"address","name":"_usdt","type":"address"},{"internalType":"address","name":"_router","type":"address"},{"internalType":"address","name":"_rootAddress","type":"address"},{"internalType":"address","name":"_feeRecipient","type":"address"}],"stateMutability":"nonpayable","type":"constructor"},{"inputs":[],"name":"AlreadyBound","type":"error"},{"inputs":[],"name":"AlreadyLocked","type":"error"},{"inputs":[],"name":"AlreadyWithdrawn","type":"error"},{"inputs":[],"name":"CannotReferSelf","type":"error"},{"inputs":[],"name":"ExceedsMaxStakeAmount","type":"error"},{"inputs":[],"name":"ExceedsUserTotalStakeLimit","type":"error"},{"inputs":[],"name":"InvalidReferral","type":"error"},{"inputs":[],"name":"InvalidReferrer","type":"error"},{"inputs":[],"name":"InvalidStakeIndex","type":"error"},{"inputs":[],"name":"MustBindReferral","type":"error"},{"inputs":[],"name":"NotAuthorized","type":"error"},{"inputs":[],"name":"OnlyEOAAllowed","type":"error"},{"inputs":[{"internalType":"address","name":"owner","type":"address"}],"name":"OwnableInvalidOwner","type":"error"},{"inputs":[{"internalType":"address","name":"account","type":"address"}],"name":"OwnableUnauthorizedAccount","type":"error"},{"inputs":[{"internalType":"uint256","name":"x","type":"uint256"},{"internalType":"uint256","name":"y","type":"uint256"}],"name":"PRBMath_MulDiv18_Overflow","type":"error"},{"inputs":[],"name":"StakingPeriodNotMet","type":"error"},{"anonymous":false,"inputs":[{"indexed":true,"internalType":"address","name":"user","type":"address"},{"indexed":true,"internalType":"address","name":"friend","type":"address"}],"name":"BindFriend","type":"event"},{"anonymous":false,"inputs":[{"indexed":true,"internalType":"address","name":"user","type":"address"},{"indexed":true,"internalType":"address","name":"parent","type":"address"}],"name":"BindReferral","type":"event"},{"anonymous":false,"inputs":[{"indexed":true,"internalType":"address","name":"oldRecipient","type":"address"},{"indexed":true,"internalType":"address","name":"newRecipient","type":"address"}],"name":"FeeRecipientUpdated","type":"event"},{"anonymous":false,"inputs":[{"indexed":true,"internalType":"address","name":"oldAddress","type":"address"},{"indexed":true,"internalType":"address","name":"newAddress","type":"address"}],"name":"MarketingAddressUpdated","type":"event"},{"anonymous":false,"inputs":[{"indexed":true,"internalType":"address","name":"previousOwner","type":"address"},{"indexed":true,"internalType":"address","name":"newOwner","type":"address"}],"name":"OwnershipTransferred","type":"event"},{"anonymous":false,"inputs":[{"indexed":true,"internalType":"address","name":"user","type":"address"},{"indexed":true,"internalType":"uint8","name":"tier","type":"uint8"},{"indexed":false,"internalType":"string","name":"reason","type":"string"}],"name":"PreacherCheckFailed","type":"event"},{"anonymous":false,"inputs":[{"indexed":false,"internalType":"uint256","name":"duration","type":"uint256"}],"name":"PresaleDurationUpdated","type":"event"},{"anonymous":false,"inputs":[{"indexed":true,"internalType":"address","name":"user","type":"address"},{"indexed":false,"internalType":"uint256","name":"stakeIndex","type":"uint256"},{"indexed":false,"internalType":"uint256","name":"syiAmount","type":"uint256"},{"indexed":false,"internalType":"uint256","name":"usdtAmount","type":"uint256"},{"indexed":true,"internalType":"address","name":"feeRecipient","type":"address"},{"indexed":false,"internalType":"uint256","name":"timestamp","type":"uint256"}],"name":"RedemptionFeeCollected","type":"event"},{"anonymous":false,"inputs":[{"indexed":true,"internalType":"address","name":"user","type":"address"},{"indexed":false,"internalType":"uint256","name":"reward","type":"uint256"},{"indexed":false,"internalType":"uint40","name":"timestamp","type":"uint40"},{"indexed":false,"internalType":"uint256","name":"index","type":"uint256"}],"name":"RewardPaid","type":"event"},{"anonymous":false,"inputs":[{"indexed":true,"internalType":"address","name":"syiAddress","type":"address"}],"name":"SYIContractSet","type":"event"},{"anonymous":false,"inputs":[{"indexed":true,"internalType":"address","name":"user","type":"address"},{"indexed":false,"internalType":"uint256","name":"amount","type":"uint256"},{"indexed":false,"internalType":"uint256","name":"timestamp","type":"uint256"},{"indexed":false,"internalType":"uint256","name":"index","type":"uint256"},{"indexed":false,"internalType":"uint256","name":"stakeTime","type":"uint256"}],"name":"Staked","type":"event"},{"anonymous":false,"inputs":[{"indexed":false,"internalType":"uint256[4]","name":"newRates","type":"uint256[4]"}],"name":"StakingRatesUpdated","type":"event"},{"anonymous":false,"inputs":[{"indexed":true,"internalType":"address","name":"recipient","type":"address"},{"indexed":true,"internalType":"uint8","name":"tier","type":"uint8"},{"indexed":false,"internalType":"uint256","name":"actualRewardRate","type":"uint256"},{"indexed":false,"internalType":"uint256","name":"rewardAmount","type":"uint256"},{"indexed":false,"internalType":"uint256","name":"previousCumulativeRate","type":"uint256"},{"indexed":false,"internalType":"uint256","name":"currentTierRate","type":"uint256"}],"name":"StrictDifferentialRewardPaid","type":"event"},{"anonymous":false,"inputs":[{"indexed":false,"internalType":"uint256","name":"interestAmount","type":"uint256"},{"indexed":false,"internalType":"uint256","name":"totalTeamRewardPool","type":"uint256"},{"indexed":false,"internalType":"uint256","name":"totalDistributed","type":"uint256"},{"indexed":false,"internalType":"uint256","name":"marketingAmount","type":"uint256"},{"indexed":false,"internalType":"address[7]","name":"tierRecipients","type":"address[7]"},{"indexed":false,"internalType":"uint256[7]","name":"tierAmounts","type":"uint256[7]"},{"indexed":false,"internalType":"uint8","name":"activeTiers","type":"uint8"}],"name":"TeamRewardDistributionCompleted","type":"event"},{"anonymous":false,"inputs":[{"indexed":false,"internalType":"bool","name":"enabled","type":"bool"}],"name":"TestModeSet","type":"event"},{"anonymous":false,"inputs":[{"indexed":true,"internalType":"address","name":"from","type":"address"},{"indexed":true,"internalType":"address","name":"to","type":"address"},{"indexed":false,"internalType":"uint256","name":"amount","type":"uint256"}],"name":"Transfer","type":"event"},{"anonymous":false,"inputs":[{"indexed":true,"internalType":"address","name":"user","type":"address"},{"indexed":true,"internalType":"uint256","name":"stakeIndex","type":"uint256"},{"indexed":false,"internalType":"uint256","name":"principalAmount","type":"uint256"},{"indexed":false,"internalType":"uint256","name":"calculatedReward","type":"uint256"},{"indexed":false,"internalType":"uint256","name":"usdtReceived","type":"uint256"},{"indexed":false,"internalType":"uint256","name":"olaTokensUsed","type":"uint256"},{"indexed":false,"internalType":"uint256","name":"referralFee","type":"uint256"},{"indexed":false,"internalType":"uint256","name":"teamFee","type":"uint256"},{"indexed":false,"internalType":"uint256","name":"userPayout","type":"uint256"},{"indexed":false,"internalType":"uint256","name":"interestEarned","type":"uint256"},{"indexed":false,"internalType":"uint40","name":"withdrawalTime","type":"uint40"}],"name":"WithdrawalCompleted","type":"event"},{"inputs":[],"name":"REDEMPTION_FEE_RATE","outputs":[{"internalType":"uint256","name":"","type":"uint256"}],"stateMutability":"view","type":"function"},{"inputs":[],"name":"ROUTER","outputs":[{"internalType":"contract IUniswapV2Router02","name":"","type":"address"}],"stateMutability":"view","type":"function"},{"inputs":[],"name":"SYI","outputs":[{"internalType":"contract ISYI","name":"","type":"address"}],"stateMutability":"view","type":"function"},{"inputs":[{"internalType":"address","name":"","type":"address"},{"internalType":"address","name":"","type":"address"}],"name":"allowance","outputs":[{"internalType":"uint256","name":"","type":"uint256"}],"stateMutability":"pure","type":"function"},{"inputs":[{"internalType":"address","name":"","type":"address"},{"internalType":"uint256","name":"","type":"uint256"}],"name":"approve","outputs":[{"internalType":"bool","name":"","type":"bool"}],"stateMutability":"pure","type":"function"},{"inputs":[{"internalType":"address","name":"account","type":"address"}],"name":"balanceOf","outputs":[{"internalType":"uint256","name":"balance","type":"uint256"}],"stateMutability":"view","type":"function"},{"inputs":[{"internalType":"address","name":"","type":"address"}],"name":"balances","outputs":[{"internalType":"uint256","name":"","type":"uint256"}],"stateMutability":"view","type":"function"},{"inputs":[{"internalType":"address","name":"user","type":"address"},{"internalType":"uint256","name":"stakeIndex","type":"uint256"}],"name":"canWithdrawStake","outputs":[{"internalType":"bool","name":"canWithdraw","type":"bool"}],"stateMutability":"view","type":"function"},{"inputs":[{"internalType":"address","name":"account","type":"address"}],"name":"currentStakeValue","outputs":[{"internalType":"uint256","name":"currentValue","type":"uint256"}],"stateMutability":"view","type":"function"},{"inputs":[],"name":"decimals","outputs":[{"internalType":"uint8","name":"","type":"uint8"}],"stateMutability":"view","type":"function"},{"inputs":[{"internalType":"address","name":"account","type":"address"}],"name":"earnedInterest","outputs":[{"internalType":"uint256","name":"interest","type":"uint256"}],"stateMutability":"view","type":"function"},{"inputs":[{"internalType":"address","name":"to","type":"address"},{"internalType":"uint256","name":"_amount","type":"uint256"}],"name":"emergencyWithdrawSYI","outputs":[],"stateMutability":"nonpayable","type":"function"},{"inputs":[{"internalType":"address","name":"to","type":"address"},{"internalType":"uint256","name":"_amount","type":"uint256"}],"name":"emergencyWithdrawUSDT","outputs":[],"stateMutability":"nonpayable","type":"function"},{"inputs":[],"name":"feeRecipient","outputs":[{"internalType":"address","name":"","type":"address"}],"stateMutability":"view","type":"function"},{"inputs":[{"internalType":"address","name":"user","type":"address"}],"name":"getFriend","outputs":[{"internalType":"address","name":"","type":"address"}],"stateMutability":"view","type":"function"},{"inputs":[],"name":"getMaxStakeAmount","outputs":[{"internalType":"uint256","name":"maxAmount","type":"uint256"}],"stateMutability":"view","type":"function"},{"inputs":[],"name":"getMaxUserTotalStake","outputs":[{"internalType":"uint256","name":"limit","type":"uint256"}],"stateMutability":"pure","type":"function"},{"inputs":[],"name":"getNetworkInflow","outputs":[{"internalType":"uint256","name":"value","type":"uint256"}],"stateMutability":"view","type":"function"},{"inputs":[],"name":"getRecentNetworkInflow","outputs":[{"internalType":"uint256","name":"recentInflow","type":"uint256"}],"stateMutability":"view","type":"function"},{"inputs":[{"internalType":"address","name":"_user","type":"address"}],"name":"getReferral","outputs":[{"internalType":"address","name":"","type":"address"}],"stateMutability":"view","type":"function"},{"inputs":[{"internalType":"address","name":"_user","type":"address"}],"name":"getReferralCount","outputs":[{"internalType":"uint256","name":"","type":"uint256"}],"stateMutability":"view","type":"function"},{"inputs":[{"internalType":"address","name":"_user","type":"address"},{"internalType":"uint256","name":"_maxDepth","type":"uint256"}],"name":"getReferrals","outputs":[{"internalType":"address[]","name":"","type":"address[]"}],"stateMutability":"view","type":"function"},{"inputs":[{"internalType":"address","name":"_user","type":"address"},{"internalType":"uint8","name":"_maxDepth","type":"uint8"}],"name":"getReferrals","outputs":[{"internalType":"address[]","name":"","type":"address[]"}],"stateMutability":"view","type":"function"},{"inputs":[{"internalType":"address","name":"user","type":"address"}],"name":"getRemainingStakeCapacity","outputs":[{"internalType":"uint256","name":"remaining","type":"uint256"}],"stateMutability":"view","type":"function"},{"inputs":[],"name":"getRootAddress","outputs":[{"internalType":"address","name":"","type":"address"}],"stateMutability":"view","type":"function"},{"inputs":[],"name":"getSlippageConfig","outputs":[{"internalType":"uint256","name":"baseSlippage","type":"uint256"},{"internalType":"uint256","name":"maxSlippage","type":"uint256"},{"internalType":"uint256","name":"priceImpactThreshold","type":"uint256"}],"stateMutability":"pure","type":"function"},{"inputs":[{"internalType":"uint8","name":"stakeIndex","type":"uint8"}],"name":"getStakePeriod","outputs":[{"internalType":"uint256","name":"period","type":"uint256"}],"stateMutability":"pure","type":"function"},{"inputs":[],"name":"getStakePeriods","outputs":[{"internalType":"uint256[4]","name":"periods","type":"uint256[4]"}],"stateMutability":"pure","type":"function"},{"inputs":[{"internalType":"address","name":"_user","type":"address"}],"name":"getTeamKpi","outputs":[{"internalType":"uint256","name":"","type":"uint256"}],"stateMutability":"view","type":"function"},{"inputs":[{"internalType":"address","name":"_user","type":"address"}],"name":"getTeamPerformanceDetails","outputs":[{"internalType":"uint256","name":"totalTeamInvestment","type":"uint256"},{"internalType":"uint256","name":"teamMemberCount","type":"uint256"},{"internalType":"uint8","name":"currentTier","type":"uint8"},{"internalType":"uint256","name":"nextTierThreshold","type":"uint256"},{"internalType":"uint256","name":"progressToNextTier","type":"uint256"}],"stateMutability":"view","type":"function"},{"inputs":[],"name":"getTeamRewardRates","outputs":[{"internalType":"uint256[7]","name":"rewardRates","type":"uint256[7]"}],"stateMutability":"pure","type":"function"},{"inputs":[],"name":"getTeamRewardThresholds","outputs":[{"internalType":"uint256[7]","name":"thresholds","type":"uint256[7]"}],"stateMutability":"pure","type":"function"},{"inputs":[{"internalType":"address","name":"user","type":"address"}],"name":"getUserInfo","outputs":[{"internalType":"uint128","name":"totalStaked","type":"uint128"},{"internalType":"uint128","name":"teamKPI","type":"uint128"},{"internalType":"address","name":"referrer","type":"address"},{"internalType":"bool","name":"hasLockedReferral","type":"bool"},{"internalType":"bool","name":"isPreacherStatus","type":"bool"}],"stateMutability":"view","type":"function"},{"inputs":[{"internalType":"address","name":"user","type":"address"}],"name":"getUserStakeWithdrawalStatus","outputs":[{"internalType":"uint256[]","name":"stakeIndices","type":"uint256[]"},{"internalType":"bool[]","name":"canWithdrawArray","type":"bool[]"},{"internalType":"uint256[]","name":"timeRemaining","type":"uint256[]"}],"stateMutability":"view","type":"function"},{"inputs":[{"internalType":"address","name":"user","type":"address"}],"name":"getWithdrawalCount","outputs":[{"internalType":"uint256","name":"","type":"uint256"}],"stateMutability":"view","type":"function"},{"inputs":[{"internalType":"address","name":"user","type":"address"}],"name":"getWithdrawalHistory","outputs":[{"components":[{"internalType":"uint40","name":"withdrawalTime","type":"uint40"},{"internalType":"uint256","name":"stakeIndex","type":"uint256"},{"internalType":"uint256","name":"principalAmount","type":"uint256"},{"internalType":"uint256","name":"calculatedReward","type":"uint256"},{"internalType":"uint256","name":"usdtReceived","type":"uint256"},{"internalType":"uint256","name":"syiTokensUsed","type":"uint256"},{"internalType":"uint256","name":"referralFee","type":"uint256"},{"internalType":"uint256","name":"teamFee","type":"uint256"},{"internalType":"uint256","name":"userPayout","type":"uint256"},{"internalType":"uint256","name":"interestEarned","type":"uint256"}],"internalType":"struct IStaking.WithdrawalRecord[]","name":"","type":"tuple[]"}],"stateMutability":"view","type":"function"},{"inputs":[{"internalType":"address","name":"user","type":"address"},{"internalType":"uint256","name":"index","type":"uint256"}],"name":"getWithdrawalRecord","outputs":[{"components":[{"internalType":"uint40","name":"withdrawalTime","type":"uint40"},{"internalType":"uint256","name":"stakeIndex","type":"uint256"},{"internalType":"uint256","name":"principalAmount","type":"uint256"},{"internalType":"uint256","name":"calculatedReward","type":"uint256"},{"internalType":"uint256","name":"usdtReceived","type":"uint256"},{"internalType":"uint256","name":"syiTokensUsed","type":"uint256"},{"internalType":"uint256","name":"referralFee","type":"uint256"},{"internalType":"uint256","name":"teamFee","type":"uint256"},{"internalType":"uint256","name":"userPayout","type":"uint256"},{"internalType":"uint256","name":"interestEarned","type":"uint256"}],"internalType":"struct IStaking.WithdrawalRecord","name":"","type":"tuple"}],"stateMutability":"view","type":"function"},{"inputs":[{"internalType":"address","name":"_user","type":"address"}],"name":"isBindReferral","outputs":[{"internalType":"bool","name":"","type":"bool"}],"stateMutability":"view","type":"function"},{"inputs":[{"internalType":"address","name":"user","type":"address"}],"name":"isPreacher","outputs":[{"internalType":"bool","name":"","type":"bool"}],"stateMutability":"view","type":"function"},{"inputs":[{"internalType":"address","name":"_friend","type":"address"}],"name":"lockFriend","outputs":[],"stateMutability":"nonpayable","type":"function"},{"inputs":[{"internalType":"address","name":"_referrer","type":"address"}],"name":"lockReferral","outputs":[],"stateMutability":"nonpayable","type":"function"},{"inputs":[],"name":"maxStakeAmount","outputs":[{"internalType":"uint256","name":"maxAmount","type":"uint256"}],"stateMutability":"view","type":"function"},{"inputs":[],"name":"name","outputs":[{"internalType":"string","name":"","type":"string"}],"stateMutability":"view","type":"function"},{"inputs":[],"name":"network1In","outputs":[{"internalType":"uint256","name":"value","type":"uint256"}],"stateMutability":"view","type":"function"},{"inputs":[],"name":"owner","outputs":[{"internalType":"address","name":"","type":"address"}],"stateMutability":"view","type":"function"},{"inputs":[{"internalType":"uint256","name":"usdtAmount","type":"uint256"}],"name":"previewStakeOutput","outputs":[{"internalType":"uint256","name":"halfUsdtAmount","type":"uint256"},{"internalType":"uint256","name":"expectedSYI","type":"uint256"},{"internalType":"uint256","name":"minSYIOut","type":"uint256"}],"stateMutability":"view","type":"function"},{"inputs":[{"internalType":"address","name":"account","type":"address"}],"name":"principalBalance","outputs":[{"internalType":"uint256","name":"balance","type":"uint256"}],"stateMutability":"view","type":"function"},{"inputs":[{"internalType":"uint256","name":"","type":"uint256"}],"name":"rates","outputs":[{"internalType":"uint256","name":"","type":"uint256"}],"stateMutability":"view","type":"function"},{"inputs":[],"name":"renounceOwnership","outputs":[],"stateMutability":"nonpayable","type":"function"},{"inputs":[{"internalType":"address","name":"user","type":"address"},{"internalType":"uint8","name":"index","type":"uint8"}],"name":"rewardOfSlot","outputs":[{"internalType":"uint256","name":"reward","type":"uint256"}],"stateMutability":"view","type":"function"},{"inputs":[{"internalType":"address","name":"_feeRecipient","type":"address"}],"name":"setFeeRecipient","outputs":[],"stateMutability":"nonpayable","type":"function"},{"inputs":[{"internalType":"address","name":"_rootAddress","type":"address"}],"name":"setRootAddress","outputs":[],"stateMutability":"nonpayable","type":"function"},{"inputs":[{"internalType":"address","name":"_syi","type":"address"}],"name":"setSYI","outputs":[],"stateMutability":"nonpayable","type":"function"},{"inputs":[{"internalType":"uint160","name":"_amount","type":"uint160"},{"internalType":"uint8","name":"_stakeIndex","type":"uint8"}],"name":"stake","outputs":[],"stateMutability":"nonpayable","type":"function"},{"inputs":[{"internalType":"address","name":"user","type":"address"}],"name":"stakeCount","outputs":[{"internalType":"uint256","name":"count","type":"uint256"}],"stateMutability":"view","type":"function"},{"inputs":[],"name":"symbol","outputs":[{"internalType":"string","name":"","type":"string"}],"stateMutability":"view","type":"function"},{"inputs":[],"name":"sync","outputs":[],"stateMutability":"nonpayable","type":"function"},{"inputs":[{"internalType":"uint256","name":"","type":"uint256"}],"name":"t_supply","outputs":[{"internalType":"uint40","name":"stakeTime","type":"uint40"},{"internalType":"uint160","name":"tamount","type":"uint160"}],"stateMutability":"view","type":"function"},{"inputs":[{"internalType":"address","name":"","type":"address"}],"name":"teamTotalInvestValue","outputs":[{"internalType":"uint256","name":"","type":"uint256"}],"stateMutability":"view","type":"function"},{"inputs":[],"name":"totalSupply","outputs":[{"internalType":"uint256","name":"","type":"uint256"}],"stateMutability":"view","type":"function"},{"inputs":[{"internalType":"address","name":"","type":"address"},{"internalType":"uint256","name":"","type":"uint256"}],"name":"transfer","outputs":[{"internalType":"bool","name":"","type":"bool"}],"stateMutability":"pure","type":"function"},{"inputs":[{"internalType":"address","name":"","type":"address"},{"internalType":"address","name":"","type":"address"},{"internalType":"uint256","name":"","type":"uint256"}],"name":"transferFrom","outputs":[{"internalType":"bool","name":"","type":"bool"}],"stateMutability":"pure","type":"function"},{"inputs":[{"internalType":"address","name":"newOwner","type":"address"}],"name":"transferOwnership","outputs":[],"stateMutability":"nonpayable","type":"function"},{"inputs":[{"internalType":"uint256","name":"stakeIndex","type":"uint256"}],"name":"unstake","outputs":[{"internalType":"uint256","name":"totalReward","type":"uint256"}],"stateMutability":"nonpayable","type":"function"},{"inputs":[{"internalType":"address","name":"","type":"address"}],"name":"userIndex","outputs":[{"internalType":"uint256","name":"","type":"uint256"}],"stateMutability":"view","type":"function"},{"inputs":[{"internalType":"address","name":"","type":"address"},{"internalType":"uint256","name":"","type":"uint256"}],"name":"userStakeRecord","outputs":[{"internalType":"uint40","name":"stakeTime","type":"uint40"},{"internalType":"uint160","name":"amount","type":"uint160"},{"internalType":"bool","name":"status","type":"bool"},{"internalType":"uint8","name":"stakeIndex","type":"uint8"}],"stateMutability":"view","type":"function"}],"evm":{"bytecode":{"linkReferences":{},"object":"60e08060405234610284576080816148ba803803809161001f828561033a565b8339810103126102845761003281610373565b9061003f60208201610373565b610057606061005060408501610373565b9301610373565b9233156103245760008054336001600160a01b0319821681178355604051949290916001600160a01b0316907f8be0079c531659141344cd1fd0a4f28419497f9722a3daafe3b4186f6b6457e09080a3601e60c0526001600160a01b0382169283156102e257506001600160a01b0316801561029d576000946020946044936080528260a05260018060a01b031660018060a01b0319600254161760025560018060a01b031660018060a01b03196012541617601255604051948593849263095ea7b360e01b84526004840152811960248401525af1801561029157610258575b50670deb5f2f95b78000600555670df607ab840b0000600655670e00b027725e8000600755670e16011f4f058000600855604051806005906000905b60048210610242577f91878134c373fd304a6480d969bf581cca2e4044be07a4d5ab42425ffcfc55d8608085a1604051614532908161038882396080518181816103180152818161104e0152818161114701528181611cf0015281816120f8015281816123cb015281816133a101528181613a9701528181613d9701528181613e660152614033015260a051818181610dc90152818161121001528181611bc601528181611d53015281816134bf015261409b015260c05181818161082a0152818161149d01526120770152f35b6001602081928554815201930191019091610174565b6020813d602011610289575b816102716020938361033a565b8101031261028457518015158114610138575b600080fd5b3d9150610264565b6040513d6000823e3d90fd5b60405162461bcd60e51b815260206004820152601660248201527f496e76616c696420726f757465722061646472657373000000000000000000006044820152606490fd5b62461bcd60e51b815260206004820152601460248201527f496e76616c6964205553445420616464726573730000000000000000000000006044820152606490fd5b631e4fbdf760e01b600052600060045260246000fd5b601f909101601f19168101906001600160401b0382119082101761035d57604052565b634e487b7160e01b600052604160045260246000fd5b51906001600160a01b03821682036102845756fe6080604052600436101561001257600080fd5b60003560e01c8063069a8f2d146127c057806306fdde031461277b57806308a2ab4b1461271557806308adb4be14612690578063095ea7b3146126315780631451952b146125ee57806318160ddd146125d0578063195112671461176757806323b872dd146125ae57806324acbd691461257457806327e235e3146109bc5780632e17de7814611f9057806330ead46914611f4e5780633114740e14611e7a578063313ce56714611e5e57806331516ab814611c3157806332a00d8e14611bf557806332fe7b2614611bb057806333060d9014611b765780633b0f0f2f14611b3457806341edf84814611767578063451309ed146119185780634690484014611b0b578063488eaf3d14611ae2578063532193231461194f57806359f0c0e71461191d5780635d80ca32146119185780635d948c35146118be5780635e61da08146118715780636386c1c7146117c557806370a0823114610ab5578063715018a61461176c57806372fbab3b146117675780637c61655f1461168e5780638b9909b4146110ad5780638da5cb5b1461108457806394f3b11814610ff157806395d89b4114610fb257806396d391bf14610f86578063a2daf14e14610f27578063a681093d14610f0b578063a7f189b514610ee2578063a9059cbb14610ec3578063b108b4cb1461052d578063b16da00f14610e9e578063b7be124e14610d78578063b9cc477b14610c8e578063bfbc304814610b7a578063c96679fe14610b40578063ca74de9b14610ad8578063d9dd0fdf14610ab5578063dd418ae214610a89578063dd62ed3e14610a5b578063e4fae6da14610a21578063e566d74d146109f6578063e68fc0ee146109bc578063e74b981b1461090b578063ea73a841146106ea578063eba73d981461065f578063eec76e0414610621578063f2fde38b14610598578063f34642a014610567578063f4fdf7321461052d578063f5a94215146104e8578063f6d5660f146104bf5763fff6cae9146102f257600080fd5b3461041f57600036600319011261041f576040516370a0823160e01b81523060048201527f00000000000000000000000000000000000000000000000000000000000000006001600160a01b0316602082602481845afa80156104135760009061048c575b600154604051631abfa62960e01b81529350602090849060049082906001600160a01b03165afa92831561041357600093610451575b5060405163a9059cbb60e01b81526001600160a01b0384166004820152602481019190915290602090829081600081604481015b03925af1801561041357610424575b506001600160a01b0316803b1561041f576000809160046040518094819363fff6cae960e01b83525af180156104135761040657005b600061041191612881565b005b6040513d6000823e3d90fd5b600080fd5b6104459060203d60201161044a575b61043d8183612881565b810190612b03565b6103d0565b503d610433565b602091935060009261047b6103c192843d8611610485575b6104738183612881565b810190612baa565b949250925061038d565b503d610469565b506020823d6020116104b7575b816104a660209383612881565b8101031261041f5760049151610357565b3d9150610499565b3461041f57600036600319011261041f576002546040516001600160a01b039091168152602090f35b3461041f57604036600319011261041f5761052961051561050761280c565b61050f612838565b90612fd5565b6040519182916020835260208301906129e1565b0390f35b3461041f57602036600319011261041f576001600160a01b0361054e61280c565b16600052600c6020526020604060002054604051908152f35b3461041f57604036600319011261041f57602061058e61058561280c565b60243590612f3f565b6040519015158152f35b3461041f57602036600319011261041f576105b161280c565b6105b96132ee565b6001600160a01b0316801561060b57600080546001600160a01b03198116831782556001600160a01b0316907f8be0079c531659141344cd1fd0a4f28419497f9722a3daafe3b4186f6b6457e09080a3005b631e4fbdf760e01b600052600060045260246000fd5b3461041f57602036600319011261041f57602061058e61063f61280c565b6001600160a01b039081166000908152600d602052604090205416151590565b3461041f57604036600319011261041f57600060206106c261067f61280c565b6106876132ee565b60015460405163a9059cbb60e01b81526001600160a01b03928316600482015260248035908201529485939190921691839182906044820190565b03925af18015610413576106d257005b6104119060203d60201161044a5761043d8183612881565b3461041f57602036600319011261041f5761070361280c565b336000908152600d60205260409020546001600160a01b03166108fa576002546001600160a01b0316903382146108e2576001600160a01b038116156108f3575b6001600160a01b038116913383146108e25782141590816108c6575b506108b55733600052600d6020526040600020816bffffffffffffffffffffffff60a01b82541617905580600052600e60205260406000208054600160401b81101561089f576107b591600182018155612945565b81549060031b9033821b9160018060a01b03901b191617905533600052600f6020526040600020600160ff1982541617905533600052600460205260406000205480610825575b50337fcb282389824b9ba09f76f40ee522be8104006b13f0a7a8d78c2198a1cd1da468600080a3005b61084f7f000000000000000000000000000000000000000000000000000000000000000033612fd5565b60005b815160ff8216908110156108955760ff916001916001600160a01b03906108799086612d69565b5116600052600c60205260406000208581540190550116610852565b50505050816107fc565b634e487b7160e01b600052604160045260246000fd5b630c22084560e31b60005260046000fd5b670de0b6b3a764000091506108da90612e79565b111582610760565b63dc33424560e01b60005260046000fd5b5080610744565b63682a906560e01b60005260046000fd5b3461041f57602036600319011261041f5761092461280c565b61092c6132ee565b6001600160a01b0316801561097f57601280546001600160a01b0319811683179091556001600160a01b03167faaebcf1bfa00580e41d966056b48521fa9f202645c86d4ddf28113e617c1b1d3600080a3005b60405162461bcd60e51b8152602060048201526015602482015274125b9d985b1a5908199959481c9958da5c1a595b9d605a1b6044820152606490fd5b3461041f57602036600319011261041f576001600160a01b036109dd61280c565b1660005260046020526020604060002054604051908152f35b3461041f57602036600319011261041f576020610a19610a1461280c565b612eef565b604051908152f35b3461041f57602036600319011261041f576001600160a01b03610a4261280c565b1660005260116020526020604060002054604051908152f35b3461041f57604036600319011261041f57610a7461280c565b50610a7d612822565b50602060405160008152f35b3461041f57602036600319011261041f57600435600481101561041f5760209060050154604051908152f35b3461041f57602036600319011261041f576020610a19610ad361280c565b612e79565b3461041f57600036600319011261041f576080604051610af88282612881565b8136823760018152601e6020820152605a604082015260b46060820152604051906000825b60048210610b2a57505050f35b6020806001928551815201930191019091610b1d565b3461041f57602036600319011261041f576001600160a01b03610b6161280c565b16600052600b6020526020604060002054604051908152f35b3461041f57602036600319011261041f57610b9361280c565b336000908152601060205260409020546001600160a01b03166108fa576001600160a01b03168015610c5057338114610c0b5733600081815260106020526040812080546001600160a01b031916841790557f49143b55f926e514375927d6abffe4bc105a5832b9ae50fc457ab36620cacaa99080a3005b60405162461bcd60e51b815260206004820152601960248201527f43616e6e6f74207365742073656c6620617320667269656e64000000000000006044820152606490fd5b60405162461bcd60e51b8152602060048201526016602482015275496e76616c696420667269656e64206164647265737360501b6044820152606490fd5b3461041f57604036600319011261041f57610ca761280c565b602435906000610120604051610cbc81612848565b8281528260208201528260408201528260608201528260808201528260a08201528260c08201528260e082015282610100820152015260018060a01b031690816000526011602052604060002054811015610d4357610d2e610d34916101409360005260116020526040600020612e5d565b50612b33565b610d416040518092612978565bf35b60405162461bcd60e51b815260206004820152600d60248201526c092dcecc2d8d2c840d2dcc8caf609b1b6044820152606490fd5b3461041f57602036600319011261041f57610d9161280c565b610d996132ee565b6001600160a01b03168015610e5957600180546001600160a01b0319168217905560405163095ea7b360e01b81527f00000000000000000000000000000000000000000000000000000000000000006001600160a01b0316600482015260001960248201526020816044816000865af1801561041357610e3c575b507f685a736322f4a782f69eb455f2394d6ead581625259a45e38d78168683db6700600080a2005b610e549060203d60201161044a5761043d8183612881565b610e14565b60405162461bcd60e51b815260206004820152601a60248201527f53594920616464726573732063616e6e6f74206265207a65726f0000000000006044820152606490fd5b3461041f57600036600319011261041f57602060405169021e19e0c9bab24000008152f35b3461041f57604036600319011261041f57610edc61280c565b50612a7e565b3461041f57600036600319011261041f576001546040516001600160a01b039091168152602090f35b3461041f57600036600319011261041f57602060405160648152f35b3461041f57600036600319011261041f5760e0604051610f478282612881565b8136823760058152600a6020820152600f60408201526014606082015260196080820152601e60a0820152602360c0820152610d4160405180926128ec565b3461041f57600036600319011261041f5760606040516105dc81526107d0602082015260c86040820152f35b3461041f57600036600319011261041f57610529604051610fd4604082612881565b60048152637353594960e01b6020820152604051918291826128a3565b3461041f57604036600319011261041f57611048602061100f61280c565b6110176132ee565b60405163a9059cbb60e01b81526001600160a01b039091166004820152602480359082015291829081906044820190565b038160007f00000000000000000000000000000000000000000000000000000000000000006001600160a01b03165af18015610413576106d257005b3461041f57600036600319011261041f576000546040516001600160a01b039091168152602090f35b3461041f57604036600319011261041f576004356001600160a01b0381169081810361041f576110db612838565b33320361167d576110ea612d7d565b831161166c5760ff8116906003821161165b5733600052600460205269021e19e0c9bab240000061112085604060002054613f7d565b1161164b576040516323b872dd60e01b8152336004820152306024820152604481018590527f00000000000000000000000000000000000000000000000000000000000000006001600160a01b0316906020816064816000865af180156104135761162e575b5060246060946040519061119a8783612881565b60028252601f198701366020840137836111b383612d4c565b526001546020906001600160a01b0316806111cd85612d59565b526040516370a0823160e01b815230600482015294859182905afa928315610413576000936115fa575b5060011c60016001609f1b03169261120e84613f8a565b7f00000000000000000000000000000000000000000000000000000000000000006001600160a01b03169290833b1561041f57604051635c11d79560e01b815291600091839182916112699142913091908c60048701613317565b038183875af18015610413576115e9575b506001546040516370a0823160e01b8152306004820152936001600160a01b039091169290602085602481875afa80156104135789956000916115ac575b50916112d46112cd6000936101049695612ac3565b978c612ac3565b96604051978896879562e8e33760e81b875260048701526024860152604485015260648401528160848401528160a48401528160c48401524260e48401525af1908115610413578491611583575b5050336000908152600d60205260409020546001600160a01b031615611572576040519161134f83612865565b4264ffffffffff168084526003546001600160a01b031660208501908152600954919491600160401b81101561089f5780600161138f9201600955612914565b91909161155c579151815492516001600160c81b031990931664ffffffffff919091161760289290921b65010000000000600160c81b0316919091179055604051926080840184811067ffffffffffffffff82111761089f576040526020840191604085019086860192865287845260008252825233600052600a602052604060002094855495600160401b87101561089f578661143291600182018155612945565b94909461155c579051845491516001600160c81b031990921664ffffffffff919091161760289190911b65010000000000600160c81b0316178355518254915161ffff60c81b1990921690151560c81b60ff60c81b161760d09190911b60ff60d01b161790556114c27f000000000000000000000000000000000000000000000000000000000000000033612fd5565b9160005b835160ff8216908110156115095760ff916001916001600160a01b03906114ed9088612d69565b5116600052600c602052604060002088815401905501166114c6565b86838761151f8761151a85336143a6565b612c96565b9160405193845242602085015260408401528201527f9cfd25589d1eb8ad71e342a86a8524e83522e3936c0803048c08f6d9ad974f4060803392a2005b634e487b7160e01b600052600060045260246000fd5b637b7140f560e11b60005260046000fd5b813d83116115a5575b6115968183612881565b8101031261041f578285611322565b503d61158c565b9193929550506020813d6020116115e1575b816115cb60209383612881565b8101031261041f575188949192906112d46112b8565b3d91506115be565b60006115f491612881565b8861127a565b9092506020813d602011611626575b8161161660209383612881565b8101031261041f575191886111f7565b3d9150611609565b6116469060203d60201161044a5761043d8183612881565b611186565b620da58960e41b60005260046000fd5b63cf468e4360e01b60005260046000fd5b63ba1e17c160e01b60005260046000fd5b6303cc142b60e41b60005260046000fd5b3461041f57602036600319011261041f576116a761280c565b60009060018060a01b03811690818352600c6020526040832054918352600e60205260ff6116d960408520549261425d565b1692600784101561175c57506116ed61318f565b836006039060ff82116117465760ff611707921690612a6d565b5151606483029383850460641484151715611746576117288260a096612ae3565b925b6040519485526020850152604084015260608301526080820152f35b634e487b7160e01b600052601160045260246000fd5b60a09360649261172a565b61295d565b3461041f57600036600319011261041f576117856132ee565b600080546001600160a01b0319811682556001600160a01b03167f8be0079c531659141344cd1fd0a4f28419497f9722a3daafe3b4186f6b6457e08280a3005b3461041f57602036600319011261041f5760a06117e061280c565b6001600160801b036117f182612e79565b1690600180841b0381169081600052600c6020526001600160801b03604060002054169180600052600d602052600180861b036040600020541690600052600f602052680ad78ebc5ac620000061185060ff6040600020541693612e79565b10159260405194855260208501526040840152151560608301526080820152f35b3461041f57602036600319011261041f5760043560095481101561041f5761189a604091612914565b5054815164ffffffffff8216815260289190911c6001600160a01b03166020820152f35b3461041f57602036600319011261041f5760206118d961280c565b6001600160a01b038116600090815260048352604081205490916118fc90612e79565b81811161190e575b5050604051908152f35b0390508280611904565b612a1e565b3461041f57602036600319011261041f576020680ad78ebc5ac6200000611945610ad361280c565b1015604051908152f35b3461041f57602036600319011261041f5761196861280c565b6001600160a01b0381166000818152600a6020526040902054909161198c82612d1a565b9161199681612b1b565b906119a46040519283612881565b8082526119b081612b1b565b602083019590601f19013687376119c682612d1a565b9360005b838110611a32575050505060206119ec60405194606086526060860190612a39565b9184830382860152519182815201939060005b818110611a1a57848061052988878382036040850152612a39565b825115158652602095860195909201916001016119ff565b8080611a406001938a612d69565b52611a4b8184612f3f565b611a558288612d69565b901515905283600052600a602052611a71816040600020612945565b505460ff8160c81c1615600014611acf57611aa260ff611a9864ffffffffff841642612ac3565b9260d01c16612c96565b90818110611ac157505060005b611ab98289612d69565b525b016119ca565b611aca91612ac3565b611aaf565b506000611adc8289612d69565b52611abb565b3461041f57602036600319011261041f5760043560ff8116810361041f57610a19602091612c96565b3461041f57600036600319011261041f576012546040516001600160a01b039091168152602090f35b3461041f57602036600319011261041f576001600160a01b03611b5561280c565b16600052600d602052602060018060a01b0360406000205416604051908152f35b3461041f57602036600319011261041f576001600160a01b03611b9761280c565b16600052600a6020526020604060002054604051908152f35b3461041f57600036600319011261041f576040517f00000000000000000000000000000000000000000000000000000000000000006001600160a01b03168152602090f35b3461041f57604036600319011261041f57610529610515611c1461280c565b60243560ff8111611c29575b60ff1690612fd5565b5060ff611c20565b3461041f57602036600319011261041f5760043560011c6004602060018060a01b036001541660405192838092631abfa62960e01b82525afa90811561041357600091611e3f575b50604051630240bc6b60e21b81526001600160a01b03919091169190606081600481865afa90811561041357600090600092611e0c575b506004602060009560405192838092630dfe168160e01b82525afa908115611e0157906020939291611d4f9691611de4575b506001600160a01b039081167f000000000000000000000000000000000000000000000000000000000000000090911603611dde575b604051630153543560e21b8152600481018590526001600160701b0391821660248201529116604482015292839081906064820190565b03817f00000000000000000000000000000000000000000000000000000000000000006001600160a01b03165afa801561041357600090611dab575b60609250611d9882613f8a565b9060405192835260208301526040820152f35b506020823d602011611dd6575b81611dc560209383612881565b8101031261041f5760609151611d8b565b3d9150611db8565b90611d18565b611dfb9150843d8611610485576104738183612881565b86611ce2565b6040513d87823e3d90fd5b9050611e30915060603d606011611e38575b611e288183612881565b810190612bdd565b509084611cb0565b503d611e1e565b611e58915060203d602011610485576104738183612881565b82611c79565b3461041f57600036600319011261041f57602060405160128152f35b3461041f57602036600319011261041f576001600160a01b03611e9b61280c565b1660005260116020526040600020805490611eb582612b1b565b91611ec36040519384612881565b80835260208301809260005260206000206000915b838310611f305784866040519182916020830190602084525180915260408301919060005b818110611f0b575050500390f35b91935091602061014082611f226001948851612978565b019401910191849392611efd565b600a6020600192611f4085612b33565b815201920192019190611ed8565b3461041f57602036600319011261041f576001600160a01b03611f6f61280c565b166000526010602052602060018060a01b0360406000205416604051908152f35b3461041f57602036600319011261041f5733320361167d5733600052600a602052611fc16004356040600020612945565b508054611fd564ffffffffff821642612ac3565b611fe460ff8360d01c16612c96565b116125635760ff8160c81c1661255257611ffd826130b7565b60ff60c81b198216600160c81b17909255612025602882901c6001600160a01b0316336142f2565b336000908152600b602052604090208054600101905561204482613350565b6000602884901c6001600160a01b031683111561254c5750612073602884901c6001600160a01b031683612ac3565b905b7f0000000000000000000000000000000000000000000000000000000000000000946120a18633612fd5565b336000908152601060205260409020546001600160a01b031680156125125760405163a9059cbb60e01b81526001600160a01b03909116600482015260646005860204602482015260208180604481015b038160007f00000000000000000000000000000000000000000000000000000000000000006001600160a01b03165af18015610413576121449261213d9287926124f3575b506138a8565b9633612fd5565b9360005b855160ff8216908110156121955760ff916001916001600160a01b039061216f908a612d69565b5116600052600c6020526040600020828060a01b038a60281c1681540390550116612148565b50508684876121b3836121ae6064600586020487612ac3565b612ac3565b916064830283810460641484151715611746576127109004801515806124df575b61247b575b50604051936121e785612848565b64ffffffffff42168552600435602086015260018060a01b038360281c1660408601528660608601528560808601528760a08601526064600583020460c08601528060e0860152836101008601528161012086015233600052601160205260406000208054600160401b81101561089f5761226791600182018155612e5d565b96909661155c576123c59660096101208864ffffffffff8060209b51161664ffffffffff1985541617845589810151600185015560408101516002850155606081015160038501556080810151600485015560a0810151600585015560c0810151600685015560e081015160078501556101008101516008850155015191015560405188815264ffffffffff42168782015260043560408201527f48711929c842404f1d698f9525c36a831e8224d0bac22977e91904b3fe9f656460603392a26040519360018060a01b039060281c1684528786850152604084015287606084015260646005830204608084015260a08301528260c083015260e082015264ffffffffff4216610100820152600435907fab399e9275f69c267fe8b281747707bbd6b5b7dc2afb59ac345ae3e7ee24338d6101203392a360405163a9059cbb60e01b8152336004820152602481019190915291829081906044820190565b038160007f00000000000000000000000000000000000000000000000000000000000000006001600160a01b03165af180156104135761245e575b506001546001600160a01b031691823b1561041f576000926024849260405195869384926337470d6f60e21b845260048401525af19182156104135760209261244d575b50604051908152f35b600061245891612881565b82612444565b6124769060203d60201161044a5761043d8183612881565b612400565b61248481613350565b60125460408051600435815260208101939093528201939093524260608201526001600160a01b03909216913391507f91a9f62031be84840eb01532b7f49aac5edbd1cf88134c55fecb102753216b2c90608090a3876121d9565b506012546001600160a01b031615156121d4565b61250b9060203d60201161044a5761043d8183612881565b508a612137565b5060025460405163a9059cbb60e01b81526001600160a01b03909116600482015260646005860204602482015260208180604481016120f2565b90612075565b636507689f60e01b60005260046000fd5b63508bb1f560e01b60005260046000fd5b3461041f57602036600319011261041f576001600160a01b0361259561280c565b16600052600e6020526020604060002054604051908152f35b3461041f57606036600319011261041f576125c761280c565b50610edc612822565b3461041f57600036600319011261041f576020600354604051908152f35b3461041f57602036600319011261041f5761260761280c565b61260f6132ee565b600280546001600160a01b0319166001600160a01b0392909216919091179055005b3461041f57604036600319011261041f5761264a61280c565b5060405162461bcd60e51b815260206004820152601760248201527f417070726f76616c73206e6f7420737570706f727465640000000000000000006044820152606490fd5b3461041f57604036600319011261041f576126a961280c565b6001600160a01b03166000908152600a602052604090208054602435919082101561041f576080916126da91612945565b505460ff6040519164ffffffffff8116835260018060a01b038160281c166020840152818160c81c161515604084015260d01c166060820152f35b3461041f57600036600319011261041f5760405160e06127358183612881565b8036833761274161318f565b9160005b6007811061275b5750610d4160405180926128ec565b8061276860019286612a6d565b51516127748285612a6d565b5201612745565b3461041f57600036600319011261041f5761052960405161279d604082612881565b600a8152695374616b65642053594960b01b6020820152604051918291826128a3565b3461041f57604036600319011261041f576020610a196128066127e161280c565b6127e9612838565b6001600160a01b039091166000908152600a855260409020612945565b506130b7565b600435906001600160a01b038216820361041f57565b602435906001600160a01b038216820361041f57565b6024359060ff8216820361041f57565b610140810190811067ffffffffffffffff82111761089f57604052565b6040810190811067ffffffffffffffff82111761089f57604052565b90601f8019910116810190811067ffffffffffffffff82111761089f57604052565b91909160208152825180602083015260005b8181106128d6575060409293506000838284010152601f8019910116010190565b80602080928701015160408286010152016128b5565b906000905b600782106128fe57505050565b60208060019285518152019301910190916128f1565b60095481101561292f57600960005260206000200190600090565b634e487b7160e01b600052603260045260246000fd5b805482101561292f5760005260206000200190600090565b3461041f57600036600319011261041f576020610a19612c13565b610120809164ffffffffff81511684526020810151602085015260408101516040850152606081015160608501526080810151608085015260a081015160a085015260c081015160c085015260e081015160e08501526101008101516101008501520151910152565b906020808351928381520192019060005b8181106129ff5750505090565b82516001600160a01b03168452602093840193909201916001016129f2565b3461041f57600036600319011261041f576020610a19612d7d565b906020808351928381520192019060005b818110612a575750505090565b8251845260209384019390920191600101612a4a565b90600781101561292f5760051b0190565b60405162461bcd60e51b815260206004820152601760248201527f5472616e7366657273206e6f7420737570706f727465640000000000000000006044820152606490fd5b9190820391821161174657565b8181029291811591840414171561174657565b8115612aed570490565b634e487b7160e01b600052601260045260246000fd5b9081602091031261041f5751801515810361041f5790565b67ffffffffffffffff811161089f5760051b60200190565b90604051612b4081612848565b6101206009829464ffffffffff815416845260018101546020850152600281015460408501526003810154606085015260048101546080850152600581015460a0850152600681015460c0850152600781015460e085015260088101546101008501520154910152565b9081602091031261041f57516001600160a01b038116810361041f5790565b51906001600160701b038216820361041f57565b9081606091031261041f57612bf181612bc9565b916040612c0060208401612bc9565b92015163ffffffff8116810361041f5790565b600954908115612c9057603b19420191428311611746576003549081906000198101908111611746575b612c4681612914565b505464ffffffffff8116861115612c67575050612c64929350612ac3565b90565b60281c6001600160a01b031692508015612c845760001901612c3d565b50612c64929350612ac3565b60009150565b9060ff6000921660038111612cdf578015612cd85760018114612cd15760028114612cca57600314612cc457565b60b49150565b50605a9150565b50601e9150565b5060019150565b60405162461bcd60e51b8152602060048201526013602482015272092dcecc2d8d2c840e6e8c2d6ca40d2dcc8caf606b1b6044820152606490fd5b90612d2482612b1b565b612d316040519182612881565b8281528092612d42601f1991612b1b565b0190602036910137565b80511561292f5760200190565b80516001101561292f5760400190565b805182101561292f5760209160051b010190565b612d85612c13565b60015460405163d123de3160e01b815290602090829060049082906001600160a01b03165afa90811561041357600091612e05575b506001600160701b03606491160490818111600014612dda575050600090565b612de391612ac3565b683635c9adc5dea00000811015612df75790565b50683635c9adc5dea0000090565b90506020813d602011612e42575b81612e2060209383612881565b8101031261041f576001600160701b03612e3b606492612bc9565b9150612dba565b3d9150612e13565b60ff6000199116019060ff821161174657565b805482101561292f57600052600a602060002091020190600090565b6001600160a01b03166000908152600a60205260408120805491929180612e9e575050565b909290600019810190811161174657905b612eb98285612945565b5060ff815460c81c1615612edf575b50908015612eda576000190190612eaf565b509150565b612ee8906130b7565b0138612ec8565b6001600160a01b031660009081526004602052604090205469021e19e0c9bab2400000811015612f395769021e19e0c9bab24000000369021e19e0c9bab240000081116117465790565b50600090565b6001600160a01b03166000818152600a602052604090205490919015612fbd5781600052600a602052604060002054811015612fbd57612f8b91600052600a6020526040600020612945565b505460ff8160c81c16612f3957612fb864ffffffffff612fb060ff8460d01c16612c96565b921642612ac3565b101590565b5050600090565b60ff1660ff81146117465760010190565b9060ff1690612fe382612d1a565b906000906000905b8460ff831610806130a5575b15613051576001600160a01b039081166000908152600d602052604090205416908161302d575b61302790612fc4565b90612feb565b91613049818361304360ff613027951688612d69565b52612fc4565b92905061301e565b505060ff9192501661306281612d1a565b9160005b60ff81168381101561309e5760ff916001916130966001600160a01b0361308d8388612d69565b51169188612d69565b520116613066565b5050505090565b506001600160a01b0381161515612ff7565b5460018060a01b038160281c1660ff64ffffffffff80841681421603169260d01c169164ffffffffff6130e984612c96565b16808210156131875750915b64ffffffffff8316908161310a575050905090565b600481101561292f5760050154905080600184161561317257647fffffffff905b9360011c1690815b61314357505090612c64916143fc565b8061314d916143fc565b9060018116613161575b60011c9081613133565b928161316c916143fc565b92613157565b50647fffffffff670de0b6b3a764000061312b565b9050916130f5565b60e060405161319e8282612881565b60005b8281106132cb57505060405190810181811067ffffffffffffffff82111761089f576040526040516131d281612865565b6a0422ca8b0a00a42500000081526023602082015281526040516131f581612865565b6a02116545850052128000008152601e6020820152602082015260405161321b81612865565b69d3c21bcecceda1000000815260196020820152604082015260405161324081612865565b6969e10de76676d0800000815260146020820152606082015260405161326581612865565b692a5a058fc295ed0000008152600f6020820152608082015260405161328a81612865565b690a968163f0a57b4000008152600a602082015260a08201526040516132af81612865565b69021e19e0c9bab240000081526005602082015260c082015290565b6020906040516132da81612865565b6000815260008382015281840152016131a1565b6000546001600160a01b0316330361330257565b63118cdaa760e01b6000523360045260246000fd5b919260809361333c92979695978452602084015260a0604084015260a08301906129e1565b6001600160a01b0390951660608201520152565b6001546040516370a0823160e01b81523060048201529291906001600160a01b0316602084602481845afa93841561041357600094613842575b506040516370a0823160e01b8152306004820152917f00000000000000000000000000000000000000000000000000000000000000006001600160a01b03169190602084602481865afa9384156104135760009461380e575b506040519160606133f48185612881565b60028452601f1981013660208601378161340d85612d4c565b528461341885612d59565b52604051631abfa62960e01b8152602081600481865afa908115610413576000916137ef575b50604051630240bc6b60e21b815292906001600160a01b03168284600481845afa6000948594826137c7575b505061369c57505050508560011c905b811580613693575b613688575b8660011c80831161367f575b50600091926134ba6040519485938493634401edf760e11b85524292309260048701613317565b0381837f00000000000000000000000000000000000000000000000000000000000000006001600160a01b03165af1908115610413576000916135e1575b50506001546040516370a0823160e01b81523060048201529190602090839060249082906001600160a01b03165afa918215610413576000926135ac575b506020602491604051928380926370a0823160e01b82523060048301525afa90811561041357600091613578575b50612c649261357291612ac3565b93612ac3565b90506020813d6020116135a4575b8161359360209383612881565b8101031261041f5751612c64613564565b3d9150613586565b9091506020813d6020116135d9575b816135c860209383612881565b8101031261041f5751906020613536565b3d91506135bb565b3d8083833e6135f08183612881565b8101906020818303126136775780519067ffffffffffffffff821161367b570181601f820112156136775780519061362782612b1b565b936136356040519586612881565b82855260208086019360051b8301019384116136745750602001905b8282106136645750839291506134f89050565b8151815260209182019101613651565b80fd5b8280fd5b8380fd5b91506000613493565b600a87049150613487565b50861515613482565b602060049160405192838092630dfe168160e01b82525afa908115610413576000916137a8575b506001600160a01b031603613799576001600160701b03905b169081151580613787575b1561377b576001600160701b0381169060011c6d7fffffffffffffffffffffffffff168084111561377357915b81831015613766578261372d6137339261373995612ad0565b92612ac3565b90612ae3565b60968102908082046096149015171561174657606490048681101561375f575b9061347a565b5085613759565b5050508560021c9061347a565b508291613714565b50508560011c9061347a565b506001600160701b03811615156136e7565b906001600160701b03906136dc565b6137c1915060203d602011610485576104738183612881565b386136c3565b80919296506137e3939550903d10611e3857611e288183612881565b5092909293388061346a565b613808915060203d602011610485576104738183612881565b3861343e565b9093506020813d60201161383a575b8161382a60209383612881565b8101031261041f575192386133e3565b3d915061381d565b90936020823d60201161386e575b8161385d60209383612881565b81010312613674575051923861338a565b3d9150613850565b906000905b6007821061388857505050565b82516001600160a01b03168152602092830192600192909201910161387b565b80516064602384020493929015613e2d578151926138c584612b1b565b936138d36040519586612881565b8085526138e2601f1991612b1b565b0136602086013760005b835181101561392a576001906139146001600160a01b0361390d8388612d69565b511661425d565b60ff6139208389612d69565b91169052016138ec565b50909360009060e095604051926139418885612881565b8736853760405197613953818a612881565b36893795600095865b60ff81168a600782101561398e5791896139868360ff95836139806001978e612a6d565b52612a6d565b52011661395c565b5050509296919590939461010094604051956139aa8188612881565b3687378291825b8651841015613cc85760ff6139c68585612d69565b51168015158080613cb6575b80613c8f575b15613bc457508c6139e882614494565b92600081851115613bbe57506139fe8185612ac3565b905b8d82613a23575b50505050906001613a1981938b6143eb565b52935b01926139b1565b613a2f83606492612ad0565b04928b84613a41575b5092508d613a07565b90602085613a91969c93613a5f8d60018060a09d9c9d1b0392612d69565b5160405163a9059cbb60e01b815291166001600160a01b03166004820152602481019190915295869081906044820190565b038160007f00000000000000000000000000000000000000000000000000000000000000006001600160a01b03165af1908115610413578f8b8f9e8e613ae0918c9a8297613ba2575b50613f7d565b9e6001600160a01b0391613af391612d69565b511690613aff88612e4a565b60ff16613b0b91612a6d565b52613b1586612e4a565b60ff16613b2191612a6d565b52613b2b84612e4a565b600160ff9182161b1617986001600160a01b03613b488a8e612d69565b51169285604051938493613b7393859094939260609260808301968352602083015260408201520152565b037f01a734153c0601a74f1dc5664552f5332bdbff9d65f915aa93203670b315f2bc91a3903880808f8b613a38565b613bb99060203d811161044a5761043d8183612881565b613ada565b90613a00565b9081600193969290613c7d575b80613c52575b613be2575b50613a1c565b828060a01b03613bf2838b612d69565b51167f7a3d04064bf52fd85b24e9b77ff67ea0509733b9d322a1e5db9015b88a5777f0606060405160208152601c60208201527f494e53554646494349454e545f50524541434845525f535441545553000000006040820152a338613bdc565b50680ad78ebc5ac6200000613c77848060a01b03613c70858d612d69565b5116612e79565b10613bd7565b50613c88818b6143eb565b5115613bd1565b50680ad78ebc5ac6200000613caf6001600160a01b03613c70898d612d69565b10156139d8565b50613cc1828b6143eb565b51156139d2565b5099945050509250939293600090868110613d46575b60ff92613d307f20c7869a18417805c9820e55e867d39f97ad72dac389ee573ebe84a9c4e0a76097610260979694613d3b946040519889528b60208a0152604089015260608801526080870190613876565b6101608501906128ec565b16610240820152a190565b9193929050613d91613d588388612ac3565b60025460405163a9059cbb60e01b81526001600160a01b0390911660048201526024810182905290959091602090839081906044820190565b038160007f00000000000000000000000000000000000000000000000000000000000000006001600160a01b03165af18015610413577f20c7869a18417805c9820e55e867d39f97ad72dac389ee573ebe84a9c4e0a760976102609760ff96613d3b95613d3094613e0e575b509450949697509750509250613cde565b613e269060203d60201161044a5761043d8183612881565b5038613dfd565b60025460405163a9059cbb60e01b81526001600160a01b03909116600482015260248101859052909291506020818060448101038160007f00000000000000000000000000000000000000000000000000000000000000006001600160a01b03165af1801561041357613f60575b5060405160e091613eac8383612881565b8236833760405192613ebe8185612881565b36843760005b60ff81166007811015613ef65760ff916000613eee8382613ee76001968a612a6d565b5288612a6d565b520116613ec4565b50509392613f547f20c7869a18417805c9820e55e867d39f97ad72dac389ee573ebe84a9c4e0a76093613f4961026094604051948552876020860152600060408601528760608601526080850190613876565b6101608301906128ec565b6000610240820152a190565b613f789060203d60201161044a5761043d8183612881565b613e9b565b9190820180921161174657565b600154604051631abfa62960e01b815291929190602090829060049082906001600160a01b03165afa9081156104135760009161423e575b50604051630240bc6b60e21b81526001600160a01b039190911692606082600481875afa91821561041357600090600093614219575b506004602060009660405192838092630dfe168160e01b82525afa90811561420e576140979596916141ef575b506001600160a01b039081167f0000000000000000000000000000000000000000000000000000000000000000909116036141e757602090925b604051630153543560e21b8152600481018490526001600160701b038086166024830152909116604482015293849081906064820190565b03817f00000000000000000000000000000000000000000000000000000000000000006001600160a01b03165afa928315610413576000936141b3575b506127108102908082046127101490151715611746576001600160701b036140fd921690612ae3565b60009060c881116141505750506105dc5b6125e48202918083046125e4149015171561174657612710039061271082116117465761271091826141409204612ad0565b0490811561414a57565b60019150565b6105dc8102908082046105dc149015171561419f5760c890046105dc0190816105dc1161418b57506107d081111561410e57506107d061410e565b634e487b7160e01b81526011600452602490fd5b634e487b7160e01b82526011600452602482fd5b90926020823d6020116141df575b816141ce60209383612881565b8101031261367457505191386140d4565b3d91506141c1565b60209061405f565b614208915060203d602011610485576104738183612881565b38614025565b6040513d88823e3d90fd5b905061423591925060603d606011611e3857611e288183612881565b50919038613ff8565b614257915060203d602011610485576104738183612881565b38613fc2565b6002546001600160a01b0382811692911682149081156142d6575b50612f3957600052600c60205260406000205461429361318f565b9060005b600781106142a757505050600090565b6142b18184612a6d565b51518210156142c257600101614297565b915050600703600781116117465760ff1690565b680ad78ebc5ac620000091506142eb90612e79565b1038614278565b6000916001600160a01b0390911690811561435b5760207fddf252ad1be2c89b69c2b068fc378daa952ba7f163c4a11628f55a4df523b3ef918385526004825260408520614341828254612ac3565b905561434f81600354612ac3565b600355604051908152a3565b82915060207fddf252ad1be2c89b69c2b068fc378daa952ba7f163c4a11628f55a4df523b3ef918380526004825260408420614398828254613f7d565b905561434f81600354613f7d565b7fddf252ad1be2c89b69c2b068fc378daa952ba7f163c4a11628f55a4df523b3ef602060009260018060a01b0316938484526004825260408420614398828254613f7d565b90600881101561292f5760051b0190565b9091906000198382098382029182808310920391808303921461448357670de0b6b3a764000082101561446a577faccb18165bd6fe31ae1cf318dc5b51eee0e1ba569b88cd74c1773b91fac106699394670de0b6b3a7640000910990828211900360ee1b910360121c170290565b8490635173648d60e01b60005260045260245260446000fd5b5050670de0b6b3a764000090049150565b60ff16600181146144f657600281146144f057600381146144ea57600481146144e457600581146144de57600681146144d8576007146144d357600090565b602390565b50601e90565b50601990565b50601490565b50600f90565b50600a90565b5060059056fea2646970667358221220fe32fb514775b068db6be154e05fd0cccf4bb437a1026082469c01e092804ddf64736f6c634300081c0033","opcodes":"PUSH1 0xE0 DUP1 PUSH1 0x40 MSTORE CALLVALUE PUSH2 0x284 JUMPI PUSH1 0x80 DUP2 PUSH2 0x48BA DUP1 CODESIZE SUB DUP1 SWAP2 PUSH2 0x1F DUP3 DUP6 PUSH2 0x33A JUMP JUMPDEST DUP4 CODECOPY DUP2 ADD SUB SLT PUSH2 0x284 JUMPI PUSH2 0x32 DUP2 PUSH2 0x373 JUMP JUMPDEST SWAP1 PUSH2 0x3F PUSH1 0x20 DUP3 ADD PUSH2 0x373 JUMP JUMPDEST PUSH2 0x57 PUSH1 0x60 PUSH2 0x50 PUSH1 0x40 DUP6 ADD PUSH2 0x373 JUMP JUMPDEST SWAP4 ADD PUSH2 0x373 JUMP JUMPDEST SWAP3 CALLER ISZERO PUSH2 0x324 JUMPI PUSH1 0x0 DUP1 SLOAD CALLER PUSH1 0x1 PUSH1 0x1 PUSH1 0xA0 SHL SUB NOT DUP3 AND DUP2 OR DUP4 SSTORE PUSH1 0x40 MLOAD SWAP5 SWAP3 SWAP1 SWAP2 PUSH1 0x1 PUSH1 0x1 PUSH1 0xA0 SHL SUB AND SWAP1 PUSH32 0x8BE0079C531659141344CD1FD0A4F28419497F9722A3DAAFE3B4186F6B6457E0 SWAP1 DUP1 LOG3 PUSH1 0x1E PUSH1 0xC0 MSTORE PUSH1 0x1 PUSH1 0x1 PUSH1 0xA0 SHL SUB DUP3 AND SWAP3 DUP4 ISZERO PUSH2 0x2E2 JUMPI POP PUSH1 0x1 PUSH1 0x1 PUSH1 0xA0 SHL SUB AND DUP1 ISZERO PUSH2 0x29D JUMPI PUSH1 0x0 SWAP5 PUSH1 0x20 SWAP5 PUSH1 0x44 SWAP4 PUSH1 0x80 MSTORE DUP3 PUSH1 0xA0 MSTORE PUSH1 0x1 DUP1 PUSH1 0xA0 SHL SUB AND PUSH1 0x1 DUP1 PUSH1 0xA0 SHL SUB NOT PUSH1 0x2 SLOAD AND OR PUSH1 0x2 SSTORE PUSH1 0x1 DUP1 PUSH1 0xA0 SHL SUB AND PUSH1 0x1 DUP1 PUSH1 0xA0 SHL SUB NOT PUSH1 0x12 SLOAD AND OR PUSH1 0x12 SSTORE PUSH1 0x40 MLOAD SWAP5 DUP6 SWAP4 DUP5 SWAP3 PUSH4 0x95EA7B3 PUSH1 0xE0 SHL DUP5 MSTORE PUSH1 0x4 DUP5 ADD MSTORE DUP2 NOT PUSH1 0x24 DUP5 ADD MSTORE GAS CALL DUP1 ISZERO PUSH2 0x291 JUMPI PUSH2 0x258 JUMPI JUMPDEST POP PUSH8 0xDEB5F2F95B78000 PUSH1 0x5 SSTORE PUSH8 0xDF607AB840B0000 PUSH1 0x6 SSTORE PUSH8 0xE00B027725E8000 PUSH1 0x7 SSTORE PUSH8 0xE16011F4F058000 PUSH1 0x8 SSTORE PUSH1 0x40 MLOAD DUP1 PUSH1 0x5 SWAP1 PUSH1 0x0 SWAP1 JUMPDEST PUSH1 0x4 DUP3 LT PUSH2 0x242 JUMPI PUSH32 0x91878134C373FD304A6480D969BF581CCA2E4044BE07A4D5AB42425FFCFC55D8 PUSH1 0x80 DUP6 LOG1 PUSH1 0x40 MLOAD PUSH2 0x4532 SWAP1 DUP2 PUSH2 0x388 DUP3 CODECOPY PUSH1 0x80 MLOAD DUP2 DUP2 DUP2 PUSH2 0x318 ADD MSTORE DUP2 DUP2 PUSH2 0x104E ADD MSTORE DUP2 DUP2 PUSH2 0x1147 ADD MSTORE DUP2 DUP2 PUSH2 0x1CF0 ADD MSTORE DUP2 DUP2 PUSH2 0x20F8 ADD MSTORE DUP2 DUP2 PUSH2 0x23CB ADD MSTORE DUP2 DUP2 PUSH2 0x33A1 ADD MSTORE DUP2 DUP2 PUSH2 0x3A97 ADD MSTORE DUP2 DUP2 PUSH2 0x3D97 ADD MSTORE DUP2 DUP2 PUSH2 0x3E66 ADD MSTORE PUSH2 0x4033 ADD MSTORE PUSH1 0xA0 MLOAD DUP2 DUP2 DUP2 PUSH2 0xDC9 ADD MSTORE DUP2 DUP2 PUSH2 0x1210 ADD MSTORE DUP2 DUP2 PUSH2 0x1BC6 ADD MSTORE DUP2 DUP2 PUSH2 0x1D53 ADD MSTORE DUP2 DUP2 PUSH2 0x34BF ADD MSTORE PUSH2 0x409B ADD MSTORE PUSH1 0xC0 MLOAD DUP2 DUP2 DUP2 PUSH2 0x82A ADD MSTORE DUP2 DUP2 PUSH2 0x149D ADD MSTORE PUSH2 0x2077 ADD MSTORE RETURN JUMPDEST PUSH1 0x1 PUSH1 0x20 DUP2 SWAP3 DUP6 SLOAD DUP2 MSTORE ADD SWAP4 ADD SWAP2 ADD SWAP1 SWAP2 PUSH2 0x174 JUMP JUMPDEST PUSH1 0x20 DUP2 RETURNDATASIZE PUSH1 0x20 GT PUSH2 0x289 JUMPI JUMPDEST DUP2 PUSH2 0x271 PUSH1 0x20 SWAP4 DUP4 PUSH2 0x33A JUMP JUMPDEST DUP2 ADD SUB SLT PUSH2 0x284 JUMPI MLOAD DUP1 ISZERO ISZERO DUP2 EQ PUSH2 0x138 JUMPI JUMPDEST PUSH1 0x0 DUP1 REVERT JUMPDEST RETURNDATASIZE SWAP2 POP PUSH2 0x264 JUMP JUMPDEST PUSH1 0x40 MLOAD RETURNDATASIZE PUSH1 0x0 DUP3 RETURNDATACOPY RETURNDATASIZE SWAP1 REVERT JUMPDEST PUSH1 0x40 MLOAD PUSH3 0x461BCD PUSH1 0xE5 SHL DUP2 MSTORE PUSH1 0x20 PUSH1 0x4 DUP3 ADD MSTORE PUSH1 0x16 PUSH1 0x24 DUP3 ADD MSTORE PUSH32 0x496E76616C696420726F75746572206164647265737300000000000000000000 PUSH1 0x44 DUP3 ADD MSTORE PUSH1 0x64 SWAP1 REVERT JUMPDEST PUSH3 0x461BCD PUSH1 0xE5 SHL DUP2 MSTORE PUSH1 0x20 PUSH1 0x4 DUP3 ADD MSTORE PUSH1 0x14 PUSH1 0x24 DUP3 ADD MSTORE PUSH32 0x496E76616C696420555344542061646472657373000000000000000000000000 PUSH1 0x44 DUP3 ADD MSTORE PUSH1 0x64 SWAP1 REVERT JUMPDEST PUSH4 0x1E4FBDF7 PUSH1 0xE0 SHL PUSH1 0x0 MSTORE PUSH1 0x0 PUSH1 0x4 MSTORE PUSH1 0x24 PUSH1 0x0 REVERT JUMPDEST PUSH1 0x1F SWAP1 SWAP2 ADD PUSH1 0x1F NOT AND DUP2 ADD SWAP1 PUSH1 0x1 PUSH1 0x1 PUSH1 0x40 SHL SUB DUP3 GT SWAP1 DUP3 LT OR PUSH2 0x35D JUMPI PUSH1 0x40 MSTORE JUMP JUMPDEST PUSH4 0x4E487B71 PUSH1 0xE0 SHL PUSH1 0x0 MSTORE PUSH1 0x41 PUSH1 0x4 MSTORE PUSH1 0x24 PUSH1 0x0 REVERT JUMPDEST MLOAD SWAP1 PUSH1 0x1 PUSH1 0x1 PUSH1 0xA0 SHL SUB DUP3 AND DUP3 SUB PUSH2 0x284 JUMPI JUMP INVALID PUSH1 0x80 PUSH1 0x40 MSTORE PUSH1 0x4 CALLDATASIZE LT ISZERO PUSH2 0x12 JUMPI PUSH1 0x0 DUP1 REVERT JUMPDEST PUSH1 0x0 CALLDATALOAD PUSH1 0xE0 SHR DUP1 PUSH4 0x69A8F2D EQ PUSH2 0x27C0 JUMPI DUP1 PUSH4 0x6FDDE03 EQ PUSH2 0x277B JUMPI DUP1 PUSH4 0x8A2AB4B EQ PUSH2 0x2715 JUMPI DUP1 PUSH4 0x8ADB4BE EQ PUSH2 0x2690 JUMPI DUP1 PUSH4 0x95EA7B3 EQ PUSH2 0x2631 JUMPI DUP1 PUSH4 0x1451952B EQ PUSH2 0x25EE JUMPI DUP1 PUSH4 0x18160DDD EQ PUSH2 0x25D0 JUMPI DUP1 PUSH4 0x19511267 EQ PUSH2 0x1767 JUMPI DUP1 PUSH4 0x23B872DD EQ PUSH2 0x25AE JUMPI DUP1 PUSH4 0x24ACBD69 EQ PUSH2 0x2574 JUMPI DUP1 PUSH4 0x27E235E3 EQ PUSH2 0x9BC JUMPI DUP1 PUSH4 0x2E17DE78 EQ PUSH2 0x1F90 JUMPI DUP1 PUSH4 0x30EAD469 EQ PUSH2 0x1F4E JUMPI DUP1 PUSH4 0x3114740E EQ PUSH2 0x1E7A JUMPI DUP1 PUSH4 0x313CE567 EQ PUSH2 0x1E5E JUMPI DUP1 PUSH4 0x31516AB8 EQ PUSH2 0x1C31 JUMPI DUP1 PUSH4 0x32A00D8E EQ PUSH2 0x1BF5 JUMPI DUP1 PUSH4 0x32FE7B26 EQ PUSH2 0x1BB0 JUMPI DUP1 PUSH4 0x33060D90 EQ PUSH2 0x1B76 JUMPI DUP1 PUSH4 0x3B0F0F2F EQ PUSH2 0x1B34 JUMPI DUP1 PUSH4 0x41EDF848 EQ PUSH2 0x1767 JUMPI DUP1 PUSH4 0x451309ED EQ PUSH2 0x1918 JUMPI DUP1 PUSH4 0x46904840 EQ PUSH2 0x1B0B JUMPI DUP1 PUSH4 0x488EAF3D EQ PUSH2 0x1AE2 JUMPI DUP1 PUSH4 0x53219323 EQ PUSH2 0x194F JUMPI DUP1 PUSH4 0x59F0C0E7 EQ PUSH2 0x191D JUMPI DUP1 PUSH4 0x5D80CA32 EQ PUSH2 0x1918 JUMPI DUP1 PUSH4 0x5D948C35 EQ PUSH2 0x18BE JUMPI DUP1 PUSH4 0x5E61DA08 EQ PUSH2 0x1871 JUMPI DUP1 PUSH4 0x6386C1C7 EQ PUSH2 0x17C5 JUMPI DUP1 PUSH4 0x70A08231 EQ PUSH2 0xAB5 JUMPI DUP1 PUSH4 0x715018A6 EQ PUSH2 0x176C JUMPI DUP1 PUSH4 0x72FBAB3B EQ PUSH2 0x1767 JUMPI DUP1 PUSH4 0x7C61655F EQ PUSH2 0x168E JUMPI DUP1 PUSH4 0x8B9909B4 EQ PUSH2 0x10AD JUMPI DUP1 PUSH4 0x8DA5CB5B EQ PUSH2 0x1084 JUMPI DUP1 PUSH4 0x94F3B118 EQ PUSH2 0xFF1 JUMPI DUP1 PUSH4 0x95D89B41 EQ PUSH2 0xFB2 JUMPI DUP1 PUSH4 0x96D391BF EQ PUSH2 0xF86 JUMPI DUP1 PUSH4 0xA2DAF14E EQ PUSH2 0xF27 JUMPI DUP1 PUSH4 0xA681093D EQ PUSH2 0xF0B JUMPI DUP1 PUSH4 0xA7F189B5 EQ PUSH2 0xEE2 JUMPI DUP1 PUSH4 0xA9059CBB EQ PUSH2 0xEC3 JUMPI DUP1 PUSH4 0xB108B4CB EQ PUSH2 0x52D JUMPI DUP1 PUSH4 0xB16DA00F EQ PUSH2 0xE9E JUMPI DUP1 PUSH4 0xB7BE124E EQ PUSH2 0xD78 JUMPI DUP1 PUSH4 0xB9CC477B EQ PUSH2 0xC8E JUMPI DUP1 PUSH4 0xBFBC3048 EQ PUSH2 0xB7A JUMPI DUP1 PUSH4 0xC96679FE EQ PUSH2 0xB40 JUMPI DUP1 PUSH4 0xCA74DE9B EQ PUSH2 0xAD8 JUMPI DUP1 PUSH4 0xD9DD0FDF EQ PUSH2 0xAB5 JUMPI DUP1 PUSH4 0xDD418AE2 EQ PUSH2 0xA89 JUMPI DUP1 PUSH4 0xDD62ED3E EQ PUSH2 0xA5B JUMPI DUP1 PUSH4 0xE4FAE6DA EQ PUSH2 0xA21 JUMPI DUP1 PUSH4 0xE566D74D EQ PUSH2 0x9F6 JUMPI DUP1 PUSH4 0xE68FC0EE EQ PUSH2 0x9BC JUMPI DUP1 PUSH4 0xE74B981B EQ PUSH2 0x90B JUMPI DUP1 PUSH4 0xEA73A841 EQ PUSH2 0x6EA JUMPI DUP1 PUSH4 0xEBA73D98 EQ PUSH2 0x65F JUMPI DUP1 PUSH4 0xEEC76E04 EQ PUSH2 0x621 JUMPI DUP1 PUSH4 0xF2FDE38B EQ PUSH2 0x598 JUMPI DUP1 PUSH4 0xF34642A0 EQ PUSH2 0x567 JUMPI DUP1 PUSH4 0xF4FDF732 EQ PUSH2 0x52D JUMPI DUP1 PUSH4 0xF5A94215 EQ PUSH2 0x4E8 JUMPI DUP1 PUSH4 0xF6D5660F EQ PUSH2 0x4BF JUMPI PUSH4 0xFFF6CAE9 EQ PUSH2 0x2F2 JUMPI PUSH1 0x0 DUP1 REVERT JUMPDEST CALLVALUE PUSH2 0x41F JUMPI PUSH1 0x0 CALLDATASIZE PUSH1 0x3 NOT ADD SLT PUSH2 0x41F JUMPI PUSH1 0x40 MLOAD PUSH4 0x70A08231 PUSH1 0xE0 SHL DUP2 MSTORE ADDRESS PUSH1 0x4 DUP3 ADD MSTORE PUSH32 0x0 PUSH1 0x1 PUSH1 0x1 PUSH1 0xA0 SHL SUB AND PUSH1 0x20 DUP3 PUSH1 0x24 DUP2 DUP5 GAS STATICCALL DUP1 ISZERO PUSH2 0x413 JUMPI PUSH1 0x0 SWAP1 PUSH2 0x48C JUMPI JUMPDEST PUSH1 0x1 SLOAD PUSH1 0x40 MLOAD PUSH4 0x1ABFA629 PUSH1 0xE0 SHL DUP2 MSTORE SWAP4 POP PUSH1 0x20 SWAP1 DUP5 SWAP1 PUSH1 0x4 SWAP1 DUP3 SWAP1 PUSH1 0x1 PUSH1 0x1 PUSH1 0xA0 SHL SUB AND GAS STATICCALL SWAP3 DUP4 ISZERO PUSH2 0x413 JUMPI PUSH1 0x0 SWAP4 PUSH2 0x451 JUMPI JUMPDEST POP PUSH1 0x40 MLOAD PUSH4 0xA9059CBB PUSH1 0xE0 SHL DUP2 MSTORE PUSH1 0x1 PUSH1 0x1 PUSH1 0xA0 SHL SUB DUP5 AND PUSH1 0x4 DUP3 ADD MSTORE PUSH1 0x24 DUP2 ADD SWAP2 SWAP1 SWAP2 MSTORE SWAP1 PUSH1 0x20 SWAP1 DUP3 SWAP1 DUP2 PUSH1 0x0 DUP2 PUSH1 0x44 DUP2 ADD JUMPDEST SUB SWAP3 GAS CALL DUP1 ISZERO PUSH2 0x413 JUMPI PUSH2 0x424 JUMPI JUMPDEST POP PUSH1 0x1 PUSH1 0x1 PUSH1 0xA0 SHL SUB AND DUP1 EXTCODESIZE ISZERO PUSH2 0x41F JUMPI PUSH1 0x0 DUP1 SWAP2 PUSH1 0x4 PUSH1 0x40 MLOAD DUP1 SWAP5 DUP2 SWAP4 PUSH4 0xFFF6CAE9 PUSH1 0xE0 SHL DUP4 MSTORE GAS CALL DUP1 ISZERO PUSH2 0x413 JUMPI PUSH2 0x406 JUMPI STOP JUMPDEST PUSH1 0x0 PUSH2 0x411 SWAP2 PUSH2 0x2881 JUMP JUMPDEST STOP JUMPDEST PUSH1 0x40 MLOAD RETURNDATASIZE PUSH1 0x0 DUP3 RETURNDATACOPY RETURNDATASIZE SWAP1 REVERT JUMPDEST PUSH1 0x0 DUP1 REVERT JUMPDEST PUSH2 0x445 SWAP1 PUSH1 0x20 RETURNDATASIZE PUSH1 0x20 GT PUSH2 0x44A JUMPI JUMPDEST PUSH2 0x43D DUP2 DUP4 PUSH2 0x2881 JUMP JUMPDEST DUP2 ADD SWAP1 PUSH2 0x2B03 JUMP JUMPDEST PUSH2 0x3D0 JUMP JUMPDEST POP RETURNDATASIZE PUSH2 0x433 JUMP JUMPDEST PUSH1 0x20 SWAP2 SWAP4 POP PUSH1 0x0 SWAP3 PUSH2 0x47B PUSH2 0x3C1 SWAP3 DUP5 RETURNDATASIZE DUP7 GT PUSH2 0x485 JUMPI JUMPDEST PUSH2 0x473 DUP2 DUP4 PUSH2 0x2881 JUMP JUMPDEST DUP2 ADD SWAP1 PUSH2 0x2BAA JUMP JUMPDEST SWAP5 SWAP3 POP SWAP3 POP PUSH2 0x38D JUMP JUMPDEST POP RETURNDATASIZE PUSH2 0x469 JUMP JUMPDEST POP PUSH1 0x20 DUP3 RETURNDATASIZE PUSH1 0x20 GT PUSH2 0x4B7 JUMPI JUMPDEST DUP2 PUSH2 0x4A6 PUSH1 0x20 SWAP4 DUP4 PUSH2 0x2881 JUMP JUMPDEST DUP2 ADD SUB SLT PUSH2 0x41F JUMPI PUSH1 0x4 SWAP2 MLOAD PUSH2 0x357 JUMP JUMPDEST RETURNDATASIZE SWAP2 POP PUSH2 0x499 JUMP JUMPDEST CALLVALUE PUSH2 0x41F JUMPI PUSH1 0x0 CALLDATASIZE PUSH1 0x3 NOT ADD SLT PUSH2 0x41F JUMPI PUSH1 0x2 SLOAD PUSH1 0x40 MLOAD PUSH1 0x1 PUSH1 0x1 PUSH1 0xA0 SHL SUB SWAP1 SWAP2 AND DUP2 MSTORE PUSH1 0x20 SWAP1 RETURN JUMPDEST CALLVALUE PUSH2 0x41F JUMPI PUSH1 0x40 CALLDATASIZE PUSH1 0x3 NOT ADD SLT PUSH2 0x41F JUMPI PUSH2 0x529 PUSH2 0x515 PUSH2 0x507 PUSH2 0x280C JUMP JUMPDEST PUSH2 0x50F PUSH2 0x2838 JUMP JUMPDEST SWAP1 PUSH2 0x2FD5 JUMP JUMPDEST PUSH1 0x40 MLOAD SWAP2 DUP3 SWAP2 PUSH1 0x20 DUP4 MSTORE PUSH1 0x20 DUP4 ADD SWAP1 PUSH2 0x29E1 JUMP JUMPDEST SUB SWAP1 RETURN JUMPDEST CALLVALUE PUSH2 0x41F JUMPI PUSH1 0x20 CALLDATASIZE PUSH1 0x3 NOT ADD SLT PUSH2 0x41F JUMPI PUSH1 0x1 PUSH1 0x1 PUSH1 0xA0 SHL SUB PUSH2 0x54E PUSH2 0x280C JUMP JUMPDEST AND PUSH1 0x0 MSTORE PUSH1 0xC PUSH1 0x20 MSTORE PUSH1 0x20 PUSH1 0x40 PUSH1 0x0 KECCAK256 SLOAD PUSH1 0x40 MLOAD SWAP1 DUP2 MSTORE RETURN JUMPDEST CALLVALUE PUSH2 0x41F JUMPI PUSH1 0x40 CALLDATASIZE PUSH1 0x3 NOT ADD SLT PUSH2 0x41F JUMPI PUSH1 0x20 PUSH2 0x58E PUSH2 0x585 PUSH2 0x280C JUMP JUMPDEST PUSH1 0x24 CALLDATALOAD SWAP1 PUSH2 0x2F3F JUMP JUMPDEST PUSH1 0x40 MLOAD SWAP1 ISZERO ISZERO DUP2 MSTORE RETURN JUMPDEST CALLVALUE PUSH2 0x41F JUMPI PUSH1 0x20 CALLDATASIZE PUSH1 0x3 NOT ADD SLT PUSH2 0x41F JUMPI PUSH2 0x5B1 PUSH2 0x280C JUMP JUMPDEST PUSH2 0x5B9 PUSH2 0x32EE JUMP JUMPDEST PUSH1 0x1 PUSH1 0x1 PUSH1 0xA0 SHL SUB AND DUP1 ISZERO PUSH2 0x60B JUMPI PUSH1 0x0 DUP1 SLOAD PUSH1 0x1 PUSH1 0x1 PUSH1 0xA0 SHL SUB NOT DUP2 AND DUP4 OR DUP3 SSTORE PUSH1 0x1 PUSH1 0x1 PUSH1 0xA0 SHL SUB AND SWAP1 PUSH32 0x8BE0079C531659141344CD1FD0A4F28419497F9722A3DAAFE3B4186F6B6457E0 SWAP1 DUP1 LOG3 STOP JUMPDEST PUSH4 0x1E4FBDF7 PUSH1 0xE0 SHL PUSH1 0x0 MSTORE PUSH1 0x0 PUSH1 0x4 MSTORE PUSH1 0x24 PUSH1 0x0 REVERT JUMPDEST CALLVALUE PUSH2 0x41F JUMPI PUSH1 0x20 CALLDATASIZE PUSH1 0x3 NOT ADD SLT PUSH2 0x41F JUMPI PUSH1 0x20 PUSH2 0x58E PUSH2 0x63F PUSH2 0x280C JUMP JUMPDEST PUSH1 0x1 PUSH1 0x1 PUSH1 0xA0 SHL SUB SWAP1 DUP2 AND PUSH1 0x0 SWAP1 DUP2 MSTORE PUSH1 0xD PUSH1 0x20 MSTORE PUSH1 0x40 SWAP1 KECCAK256 SLOAD AND ISZERO ISZERO SWAP1 JUMP JUMPDEST CALLVALUE PUSH2 0x41F JUMPI PUSH1 0x40 CALLDATASIZE PUSH1 0x3 NOT ADD SLT PUSH2 0x41F JUMPI PUSH1 0x0 PUSH1 0x20 PUSH2 0x6C2 PUSH2 0x67F PUSH2 0x280C JUMP JUMPDEST PUSH2 0x687 PUSH2 0x32EE JUMP JUMPDEST PUSH1 0x1 SLOAD PUSH1 0x40 MLOAD PUSH4 0xA9059CBB PUSH1 0xE0 SHL DUP2 MSTORE PUSH1 0x1 PUSH1 0x1 PUSH1 0xA0 SHL SUB SWAP3 DUP4 AND PUSH1 0x4 DUP3 ADD MSTORE PUSH1 0x24 DUP1 CALLDATALOAD SWAP1 DUP3 ADD MSTORE SWAP5 DUP6 SWAP4 SWAP2 SWAP1 SWAP3 AND SWAP2 DUP4 SWAP2 DUP3 SWAP1 PUSH1 0x44 DUP3 ADD SWAP1 JUMP JUMPDEST SUB SWAP3 GAS CALL DUP1 ISZERO PUSH2 0x413 JUMPI PUSH2 0x6D2 JUMPI STOP JUMPDEST PUSH2 0x411 SWAP1 PUSH1 0x20 RETURNDATASIZE PUSH1 0x20 GT PUSH2 0x44A JUMPI PUSH2 0x43D DUP2 DUP4 PUSH2 0x2881 JUMP JUMPDEST CALLVALUE PUSH2 0x41F JUMPI PUSH1 0x20 CALLDATASIZE PUSH1 0x3 NOT ADD SLT PUSH2 0x41F JUMPI PUSH2 0x703 PUSH2 0x280C JUMP JUMPDEST CALLER PUSH1 0x0 SWAP1 DUP2 MSTORE PUSH1 0xD PUSH1 0x20 MSTORE PUSH1 0x40 SWAP1 KECCAK256 SLOAD PUSH1 0x1 PUSH1 0x1 PUSH1 0xA0 SHL SUB AND PUSH2 0x8FA JUMPI PUSH1 0x2 SLOAD PUSH1 0x1 PUSH1 0x1 PUSH1 0xA0 SHL SUB AND SWAP1 CALLER DUP3 EQ PUSH2 0x8E2 JUMPI PUSH1 0x1 PUSH1 0x1 PUSH1 0xA0 SHL SUB DUP2 AND ISZERO PUSH2 0x8F3 JUMPI JUMPDEST PUSH1 0x1 PUSH1 0x1 PUSH1 0xA0 SHL SUB DUP2 AND SWAP2 CALLER DUP4 EQ PUSH2 0x8E2 JUMPI DUP3 EQ ISZERO SWAP1 DUP2 PUSH2 0x8C6 JUMPI JUMPDEST POP PUSH2 0x8B5 JUMPI CALLER PUSH1 0x0 MSTORE PUSH1 0xD PUSH1 0x20 MSTORE PUSH1 0x40 PUSH1 0x0 KECCAK256 DUP2 PUSH12 0xFFFFFFFFFFFFFFFFFFFFFFFF PUSH1 0xA0 SHL DUP3 SLOAD AND OR SWAP1 SSTORE DUP1 PUSH1 0x0 MSTORE PUSH1 0xE PUSH1 0x20 MSTORE PUSH1 0x40 PUSH1 0x0 KECCAK256 DUP1 SLOAD PUSH1 0x1 PUSH1 0x40 SHL DUP2 LT ISZERO PUSH2 0x89F JUMPI PUSH2 0x7B5 SWAP2 PUSH1 0x1 DUP3 ADD DUP2 SSTORE PUSH2 0x2945 JUMP JUMPDEST DUP2 SLOAD SWAP1 PUSH1 0x3 SHL SWAP1 CALLER DUP3 SHL SWAP2 PUSH1 0x1 DUP1 PUSH1 0xA0 SHL SUB SWAP1 SHL NOT AND OR SWAP1 SSTORE CALLER PUSH1 0x0 MSTORE PUSH1 0xF PUSH1 0x20 MSTORE PUSH1 0x40 PUSH1 0x0 KECCAK256 PUSH1 0x1 PUSH1 0xFF NOT DUP3 SLOAD AND OR SWAP1 SSTORE CALLER PUSH1 0x0 MSTORE PUSH1 0x4 PUSH1 0x20 MSTORE PUSH1 0x40 PUSH1 0x0 KECCAK256 SLOAD DUP1 PUSH2 0x825 JUMPI JUMPDEST POP CALLER PUSH32 0xCB282389824B9BA09F76F40EE522BE8104006B13F0A7A8D78C2198A1CD1DA468 PUSH1 0x0 DUP1 LOG3 STOP JUMPDEST PUSH2 0x84F PUSH32 0x0 CALLER PUSH2 0x2FD5 JUMP JUMPDEST PUSH1 0x0 JUMPDEST DUP2 MLOAD PUSH1 0xFF DUP3 AND SWAP1 DUP2 LT ISZERO PUSH2 0x895 JUMPI PUSH1 0xFF SWAP2 PUSH1 0x1 SWAP2 PUSH1 0x1 PUSH1 0x1 PUSH1 0xA0 SHL SUB SWAP1 PUSH2 0x879 SWAP1 DUP7 PUSH2 0x2D69 JUMP JUMPDEST MLOAD AND PUSH1 0x0 MSTORE PUSH1 0xC PUSH1 0x20 MSTORE PUSH1 0x40 PUSH1 0x0 KECCAK256 DUP6 DUP2 SLOAD ADD SWAP1 SSTORE ADD AND PUSH2 0x852 JUMP JUMPDEST POP POP POP POP DUP2 PUSH2 0x7FC JUMP JUMPDEST PUSH4 0x4E487B71 PUSH1 0xE0 SHL PUSH1 0x0 MSTORE PUSH1 0x41 PUSH1 0x4 MSTORE PUSH1 0x24 PUSH1 0x0 REVERT JUMPDEST PUSH4 0xC220845 PUSH1 0xE3 SHL PUSH1 0x0 MSTORE PUSH1 0x4 PUSH1 0x0 REVERT JUMPDEST PUSH8 0xDE0B6B3A7640000 SWAP2 POP PUSH2 0x8DA SWAP1 PUSH2 0x2E79 JUMP JUMPDEST GT ISZERO DUP3 PUSH2 0x760 JUMP JUMPDEST PUSH4 0xDC334245 PUSH1 0xE0 SHL PUSH1 0x0 MSTORE PUSH1 0x4 PUSH1 0x0 REVERT JUMPDEST POP DUP1 PUSH2 0x744 JUMP JUMPDEST PUSH4 0x682A9065 PUSH1 0xE0 SHL PUSH1 0x0 MSTORE PUSH1 0x4 PUSH1 0x0 REVERT JUMPDEST CALLVALUE PUSH2 0x41F JUMPI PUSH1 0x20 CALLDATASIZE PUSH1 0x3 NOT ADD SLT PUSH2 0x41F JUMPI PUSH2 0x924 PUSH2 0x280C JUMP JUMPDEST PUSH2 0x92C PUSH2 0x32EE JUMP JUMPDEST PUSH1 0x1 PUSH1 0x1 PUSH1 0xA0 SHL SUB AND DUP1 ISZERO PUSH2 0x97F JUMPI PUSH1 0x12 DUP1 SLOAD PUSH1 0x1 PUSH1 0x1 PUSH1 0xA0 SHL SUB NOT DUP2 AND DUP4 OR SWAP1 SWAP2 SSTORE PUSH1 0x1 PUSH1 0x1 PUSH1 0xA0 SHL SUB AND PUSH32 0xAAEBCF1BFA00580E41D966056B48521FA9F202645C86D4DDF28113E617C1B1D3 PUSH1 0x0 DUP1 LOG3 STOP JUMPDEST PUSH1 0x40 MLOAD PUSH3 0x461BCD PUSH1 0xE5 SHL DUP2 MSTORE PUSH1 0x20 PUSH1 0x4 DUP3 ADD MSTORE PUSH1 0x15 PUSH1 0x24 DUP3 ADD MSTORE PUSH21 0x125B9D985B1A5908199959481C9958DA5C1A595B9D PUSH1 0x5A SHL PUSH1 0x44 DUP3 ADD MSTORE PUSH1 0x64 SWAP1 REVERT JUMPDEST CALLVALUE PUSH2 0x41F JUMPI PUSH1 0x20 CALLDATASIZE PUSH1 0x3 NOT ADD SLT PUSH2 0x41F JUMPI PUSH1 0x1 PUSH1 0x1 PUSH1 0xA0 SHL SUB PUSH2 0x9DD PUSH2 0x280C JUMP JUMPDEST AND PUSH1 0x0 MSTORE PUSH1 0x4 PUSH1 0x20 MSTORE PUSH1 0x20 PUSH1 0x40 PUSH1 0x0 KECCAK256 SLOAD PUSH1 0x40 MLOAD SWAP1 DUP2 MSTORE RETURN JUMPDEST CALLVALUE PUSH2 0x41F JUMPI PUSH1 0x20 CALLDATASIZE PUSH1 0x3 NOT ADD SLT PUSH2 0x41F JUMPI PUSH1 0x20 PUSH2 0xA19 PUSH2 0xA14 PUSH2 0x280C JUMP JUMPDEST PUSH2 0x2EEF JUMP JUMPDEST PUSH1 0x40 MLOAD SWAP1 DUP2 MSTORE RETURN JUMPDEST CALLVALUE PUSH2 0x41F JUMPI PUSH1 0x20 CALLDATASIZE PUSH1 0x3 NOT ADD SLT PUSH2 0x41F JUMPI PUSH1 0x1 PUSH1 0x1 PUSH1 0xA0 SHL SUB PUSH2 0xA42 PUSH2 0x280C JUMP JUMPDEST AND PUSH1 0x0 MSTORE PUSH1 0x11 PUSH1 0x20 MSTORE PUSH1 0x20 PUSH1 0x40 PUSH1 0x0 KECCAK256 SLOAD PUSH1 0x40 MLOAD SWAP1 DUP2 MSTORE RETURN JUMPDEST CALLVALUE PUSH2 0x41F JUMPI PUSH1 0x40 CALLDATASIZE PUSH1 0x3 NOT ADD SLT PUSH2 0x41F JUMPI PUSH2 0xA74 PUSH2 0x280C JUMP JUMPDEST POP PUSH2 0xA7D PUSH2 0x2822 JUMP JUMPDEST POP PUSH1 0x20 PUSH1 0x40 MLOAD PUSH1 0x0 DUP2 MSTORE RETURN JUMPDEST CALLVALUE PUSH2 0x41F JUMPI PUSH1 0x20 CALLDATASIZE PUSH1 0x3 NOT ADD SLT PUSH2 0x41F JUMPI PUSH1 0x4 CALLDATALOAD PUSH1 0x4 DUP2 LT ISZERO PUSH2 0x41F JUMPI PUSH1 0x20 SWAP1 PUSH1 0x5 ADD SLOAD PUSH1 0x40 MLOAD SWAP1 DUP2 MSTORE RETURN JUMPDEST CALLVALUE PUSH2 0x41F JUMPI PUSH1 0x20 CALLDATASIZE PUSH1 0x3 NOT ADD SLT PUSH2 0x41F JUMPI PUSH1 0x20 PUSH2 0xA19 PUSH2 0xAD3 PUSH2 0x280C JUMP JUMPDEST PUSH2 0x2E79 JUMP JUMPDEST CALLVALUE PUSH2 0x41F JUMPI PUSH1 0x0 CALLDATASIZE PUSH1 0x3 NOT ADD SLT PUSH2 0x41F JUMPI PUSH1 0x80 PUSH1 0x40 MLOAD PUSH2 0xAF8 DUP3 DUP3 PUSH2 0x2881 JUMP JUMPDEST DUP2 CALLDATASIZE DUP3 CALLDATACOPY PUSH1 0x1 DUP2 MSTORE PUSH1 0x1E PUSH1 0x20 DUP3 ADD MSTORE PUSH1 0x5A PUSH1 0x40 DUP3 ADD MSTORE PUSH1 0xB4 PUSH1 0x60 DUP3 ADD MSTORE PUSH1 0x40 MLOAD SWAP1 PUSH1 0x0 DUP3 JUMPDEST PUSH1 0x4 DUP3 LT PUSH2 0xB2A JUMPI POP POP POP RETURN JUMPDEST PUSH1 0x20 DUP1 PUSH1 0x1 SWAP3 DUP6 MLOAD DUP2 MSTORE ADD SWAP4 ADD SWAP2 ADD SWAP1 SWAP2 PUSH2 0xB1D JUMP JUMPDEST CALLVALUE PUSH2 0x41F JUMPI PUSH1 0x20 CALLDATASIZE PUSH1 0x3 NOT ADD SLT PUSH2 0x41F JUMPI PUSH1 0x1 PUSH1 0x1 PUSH1 0xA0 SHL SUB PUSH2 0xB61 PUSH2 0x280C JUMP JUMPDEST AND PUSH1 0x0 MSTORE PUSH1 0xB PUSH1 0x20 MSTORE PUSH1 0x20 PUSH1 0x40 PUSH1 0x0 KECCAK256 SLOAD PUSH1 0x40 MLOAD SWAP1 DUP2 MSTORE RETURN JUMPDEST CALLVALUE PUSH2 0x41F JUMPI PUSH1 0x20 CALLDATASIZE PUSH1 0x3 NOT ADD SLT PUSH2 0x41F JUMPI PUSH2 0xB93 PUSH2 0x280C JUMP JUMPDEST CALLER PUSH1 0x0 SWAP1 DUP2 MSTORE PUSH1 0x10 PUSH1 0x20 MSTORE PUSH1 0x40 SWAP1 KECCAK256 SLOAD PUSH1 0x1 PUSH1 0x1 PUSH1 0xA0 SHL SUB AND PUSH2 0x8FA JUMPI PUSH1 0x1 PUSH1 0x1 PUSH1 0xA0 SHL SUB AND DUP1 ISZERO PUSH2 0xC50 JUMPI CALLER DUP2 EQ PUSH2 0xC0B JUMPI CALLER PUSH1 0x0 DUP2 DUP2 MSTORE PUSH1 0x10 PUSH1 0x20 MSTORE PUSH1 0x40 DUP2 KECCAK256 DUP1 SLOAD PUSH1 0x1 PUSH1 0x1 PUSH1 0xA0 SHL SUB NOT AND DUP5 OR SWAP1 SSTORE PUSH32 0x49143B55F926E514375927D6ABFFE4BC105A5832B9AE50FC457AB36620CACAA9 SWAP1 DUP1 LOG3 STOP JUMPDEST PUSH1 0x40 MLOAD PUSH3 0x461BCD PUSH1 0xE5 SHL DUP2 MSTORE PUSH1 0x20 PUSH1 0x4 DUP3 ADD MSTORE PUSH1 0x19 PUSH1 0x24 DUP3 ADD MSTORE PUSH32 0x43616E6E6F74207365742073656C6620617320667269656E6400000000000000 PUSH1 0x44 DUP3 ADD MSTORE PUSH1 0x64 SWAP1 REVERT JUMPDEST PUSH1 0x40 MLOAD PUSH3 0x461BCD PUSH1 0xE5 SHL DUP2 MSTORE PUSH1 0x20 PUSH1 0x4 DUP3 ADD MSTORE PUSH1 0x16 PUSH1 0x24 DUP3 ADD MSTORE PUSH22 0x496E76616C696420667269656E642061646472657373 PUSH1 0x50 SHL PUSH1 0x44 DUP3 ADD MSTORE PUSH1 0x64 SWAP1 REVERT JUMPDEST CALLVALUE PUSH2 0x41F JUMPI PUSH1 0x40 CALLDATASIZE PUSH1 0x3 NOT ADD SLT PUSH2 0x41F JUMPI PUSH2 0xCA7 PUSH2 0x280C JUMP JUMPDEST PUSH1 0x24 CALLDATALOAD SWAP1 PUSH1 0x0 PUSH2 0x120 PUSH1 0x40 MLOAD PUSH2 0xCBC DUP2 PUSH2 0x2848 JUMP JUMPDEST DUP3 DUP2 MSTORE DUP3 PUSH1 0x20 DUP3 ADD MSTORE DUP3 PUSH1 0x40 DUP3 ADD MSTORE DUP3 PUSH1 0x60 DUP3 ADD MSTORE DUP3 PUSH1 0x80 DUP3 ADD MSTORE DUP3 PUSH1 0xA0 DUP3 ADD MSTORE DUP3 PUSH1 0xC0 DUP3 ADD MSTORE DUP3 PUSH1 0xE0 DUP3 ADD MSTORE DUP3 PUSH2 0x100 DUP3 ADD MSTORE ADD MSTORE PUSH1 0x1 DUP1 PUSH1 0xA0 SHL SUB AND SWAP1 DUP2 PUSH1 0x0 MSTORE PUSH1 0x11 PUSH1 0x20 MSTORE PUSH1 0x40 PUSH1 0x0 KECCAK256 SLOAD DUP2 LT ISZERO PUSH2 0xD43 JUMPI PUSH2 0xD2E PUSH2 0xD34 SWAP2 PUSH2 0x140 SWAP4 PUSH1 0x0 MSTORE PUSH1 0x11 PUSH1 0x20 MSTORE PUSH1 0x40 PUSH1 0x0 KECCAK256 PUSH2 0x2E5D JUMP JUMPDEST POP PUSH2 0x2B33 JUMP JUMPDEST PUSH2 0xD41 PUSH1 0x40 MLOAD DUP1 SWAP3 PUSH2 0x2978 JUMP JUMPDEST RETURN JUMPDEST PUSH1 0x40 MLOAD PUSH3 0x461BCD PUSH1 0xE5 SHL DUP2 MSTORE PUSH1 0x20 PUSH1 0x4 DUP3 ADD MSTORE PUSH1 0xD PUSH1 0x24 DUP3 ADD MSTORE PUSH13 0x92DCECC2D8D2C840D2DCC8CAF PUSH1 0x9B SHL PUSH1 0x44 DUP3 ADD MSTORE PUSH1 0x64 SWAP1 REVERT JUMPDEST CALLVALUE PUSH2 0x41F JUMPI PUSH1 0x20 CALLDATASIZE PUSH1 0x3 NOT ADD SLT PUSH2 0x41F JUMPI PUSH2 0xD91 PUSH2 0x280C JUMP JUMPDEST PUSH2 0xD99 PUSH2 0x32EE JUMP JUMPDEST PUSH1 0x1 PUSH1 0x1 PUSH1 0xA0 SHL SUB AND DUP1 ISZERO PUSH2 0xE59 JUMPI PUSH1 0x1 DUP1 SLOAD PUSH1 0x1 PUSH1 0x1 PUSH1 0xA0 SHL SUB NOT AND DUP3 OR SWAP1 SSTORE PUSH1 0x40 MLOAD PUSH4 0x95EA7B3 PUSH1 0xE0 SHL DUP2 MSTORE PUSH32 0x0 PUSH1 0x1 PUSH1 0x1 PUSH1 0xA0 SHL SUB AND PUSH1 0x4 DUP3 ADD MSTORE PUSH1 0x0 NOT PUSH1 0x24 DUP3 ADD MSTORE PUSH1 0x20 DUP2 PUSH1 0x44 DUP2 PUSH1 0x0 DUP7 GAS CALL DUP1 ISZERO PUSH2 0x413 JUMPI PUSH2 0xE3C JUMPI JUMPDEST POP PUSH32 0x685A736322F4A782F69EB455F2394D6EAD581625259A45E38D78168683DB6700 PUSH1 0x0 DUP1 LOG2 STOP JUMPDEST PUSH2 0xE54 SWAP1 PUSH1 0x20 RETURNDATASIZE PUSH1 0x20 GT PUSH2 0x44A JUMPI PUSH2 0x43D DUP2 DUP4 PUSH2 0x2881 JUMP JUMPDEST PUSH2 0xE14 JUMP JUMPDEST PUSH1 0x40 MLOAD PUSH3 0x461BCD PUSH1 0xE5 SHL DUP2 MSTORE PUSH1 0x20 PUSH1 0x4 DUP3 ADD MSTORE PUSH1 0x1A PUSH1 0x24 DUP3 ADD MSTORE PUSH32 0x53594920616464726573732063616E6E6F74206265207A65726F000000000000 PUSH1 0x44 DUP3 ADD MSTORE PUSH1 0x64 SWAP1 REVERT JUMPDEST CALLVALUE PUSH2 0x41F JUMPI PUSH1 0x0 CALLDATASIZE PUSH1 0x3 NOT ADD SLT PUSH2 0x41F JUMPI PUSH1 0x20 PUSH1 0x40 MLOAD PUSH10 0x21E19E0C9BAB2400000 DUP2 MSTORE RETURN JUMPDEST CALLVALUE PUSH2 0x41F JUMPI PUSH1 0x40 CALLDATASIZE PUSH1 0x3 NOT ADD SLT PUSH2 0x41F JUMPI PUSH2 0xEDC PUSH2 0x280C JUMP JUMPDEST POP PUSH2 0x2A7E JUMP JUMPDEST CALLVALUE PUSH2 0x41F JUMPI PUSH1 0x0 CALLDATASIZE PUSH1 0x3 NOT ADD SLT PUSH2 0x41F JUMPI PUSH1 0x1 SLOAD PUSH1 0x40 MLOAD PUSH1 0x1 PUSH1 0x1 PUSH1 0xA0 SHL SUB SWAP1 SWAP2 AND DUP2 MSTORE PUSH1 0x20 SWAP1 RETURN JUMPDEST CALLVALUE PUSH2 0x41F JUMPI PUSH1 0x0 CALLDATASIZE PUSH1 0x3 NOT ADD SLT PUSH2 0x41F JUMPI PUSH1 0x20 PUSH1 0x40 MLOAD PUSH1 0x64 DUP2 MSTORE RETURN JUMPDEST CALLVALUE PUSH2 0x41F JUMPI PUSH1 0x0 CALLDATASIZE PUSH1 0x3 NOT ADD SLT PUSH2 0x41F JUMPI PUSH1 0xE0 PUSH1 0x40 MLOAD PUSH2 0xF47 DUP3 DUP3 PUSH2 0x2881 JUMP JUMPDEST DUP2 CALLDATASIZE DUP3 CALLDATACOPY PUSH1 0x5 DUP2 MSTORE PUSH1 0xA PUSH1 0x20 DUP3 ADD MSTORE PUSH1 0xF PUSH1 0x40 DUP3 ADD MSTORE PUSH1 0x14 PUSH1 0x60 DUP3 ADD MSTORE PUSH1 0x19 PUSH1 0x80 DUP3 ADD MSTORE PUSH1 0x1E PUSH1 0xA0 DUP3 ADD MSTORE PUSH1 0x23 PUSH1 0xC0 DUP3 ADD MSTORE PUSH2 0xD41 PUSH1 0x40 MLOAD DUP1 SWAP3 PUSH2 0x28EC JUMP JUMPDEST CALLVALUE PUSH2 0x41F JUMPI PUSH1 0x0 CALLDATASIZE PUSH1 0x3 NOT ADD SLT PUSH2 0x41F JUMPI PUSH1 0x60 PUSH1 0x40 MLOAD PUSH2 0x5DC DUP2 MSTORE PUSH2 0x7D0 PUSH1 0x20 DUP3 ADD MSTORE PUSH1 0xC8 PUSH1 0x40 DUP3 ADD MSTORE RETURN JUMPDEST CALLVALUE PUSH2 0x41F JUMPI PUSH1 0x0 CALLDATASIZE PUSH1 0x3 NOT ADD SLT PUSH2 0x41F JUMPI PUSH2 0x529 PUSH1 0x40 MLOAD PUSH2 0xFD4 PUSH1 0x40 DUP3 PUSH2 0x2881 JUMP JUMPDEST PUSH1 0x4 DUP2 MSTORE PUSH4 0x73535949 PUSH1 0xE0 SHL PUSH1 0x20 DUP3 ADD MSTORE PUSH1 0x40 MLOAD SWAP2 DUP3 SWAP2 DUP3 PUSH2 0x28A3 JUMP JUMPDEST CALLVALUE PUSH2 0x41F JUMPI PUSH1 0x40 CALLDATASIZE PUSH1 0x3 NOT ADD SLT PUSH2 0x41F JUMPI PUSH2 0x1048 PUSH1 0x20 PUSH2 0x100F PUSH2 0x280C JUMP JUMPDEST PUSH2 0x1017 PUSH2 0x32EE JUMP JUMPDEST PUSH1 0x40 MLOAD PUSH4 0xA9059CBB PUSH1 0xE0 SHL DUP2 MSTORE PUSH1 0x1 PUSH1 0x1 PUSH1 0xA0 SHL SUB SWAP1 SWAP2 AND PUSH1 0x4 DUP3 ADD MSTORE PUSH1 0x24 DUP1 CALLDATALOAD SWAP1 DUP3 ADD MSTORE SWAP2 DUP3 SWAP1 DUP2 SWAP1 PUSH1 0x44 DUP3 ADD SWAP1 JUMP JUMPDEST SUB DUP2 PUSH1 0x0 PUSH32 0x0 PUSH1 0x1 PUSH1 0x1 PUSH1 0xA0 SHL SUB AND GAS CALL DUP1 ISZERO PUSH2 0x413 JUMPI PUSH2 0x6D2 JUMPI STOP JUMPDEST CALLVALUE PUSH2 0x41F JUMPI PUSH1 0x0 CALLDATASIZE PUSH1 0x3 NOT ADD SLT PUSH2 0x41F JUMPI PUSH1 0x0 SLOAD PUSH1 0x40 MLOAD PUSH1 0x1 PUSH1 0x1 PUSH1 0xA0 SHL SUB SWAP1 SWAP2 AND DUP2 MSTORE PUSH1 0x20 SWAP1 RETURN JUMPDEST CALLVALUE PUSH2 0x41F JUMPI PUSH1 0x40 CALLDATASIZE PUSH1 0x3 NOT ADD SLT PUSH2 0x41F JUMPI PUSH1 0x4 CALLDATALOAD PUSH1 0x1 PUSH1 0x1 PUSH1 0xA0 SHL SUB DUP2 AND SWAP1 DUP2 DUP2 SUB PUSH2 0x41F JUMPI PUSH2 0x10DB PUSH2 0x2838 JUMP JUMPDEST CALLER ORIGIN SUB PUSH2 0x167D JUMPI PUSH2 0x10EA PUSH2 0x2D7D JUMP JUMPDEST DUP4 GT PUSH2 0x166C JUMPI PUSH1 0xFF DUP2 AND SWAP1 PUSH1 0x3 DUP3 GT PUSH2 0x165B JUMPI CALLER PUSH1 0x0 MSTORE PUSH1 0x4 PUSH1 0x20 MSTORE PUSH10 0x21E19E0C9BAB2400000 PUSH2 0x1120 DUP6 PUSH1 0x40 PUSH1 0x0 KECCAK256 SLOAD PUSH2 0x3F7D JUMP JUMPDEST GT PUSH2 0x164B JUMPI PUSH1 0x40 MLOAD PUSH4 0x23B872DD PUSH1 0xE0 SHL DUP2 MSTORE CALLER PUSH1 0x4 DUP3 ADD MSTORE ADDRESS PUSH1 0x24 DUP3 ADD MSTORE PUSH1 0x44 DUP2 ADD DUP6 SWAP1 MSTORE PUSH32 0x0 PUSH1 0x1 PUSH1 0x1 PUSH1 0xA0 SHL SUB AND SWAP1 PUSH1 0x20 DUP2 PUSH1 0x64 DUP2 PUSH1 0x0 DUP7 GAS CALL DUP1 ISZERO PUSH2 0x413 JUMPI PUSH2 0x162E JUMPI JUMPDEST POP PUSH1 0x24 PUSH1 0x60 SWAP5 PUSH1 0x40 MLOAD SWAP1 PUSH2 0x119A DUP8 DUP4 PUSH2 0x2881 JUMP JUMPDEST PUSH1 0x2 DUP3 MSTORE PUSH1 0x1F NOT DUP8 ADD CALLDATASIZE PUSH1 0x20 DUP5 ADD CALLDATACOPY DUP4 PUSH2 0x11B3 DUP4 PUSH2 0x2D4C JUMP JUMPDEST MSTORE PUSH1 0x1 SLOAD PUSH1 0x20 SWAP1 PUSH1 0x1 PUSH1 0x1 PUSH1 0xA0 SHL SUB AND DUP1 PUSH2 0x11CD DUP6 PUSH2 0x2D59 JUMP JUMPDEST MSTORE PUSH1 0x40 MLOAD PUSH4 0x70A08231 PUSH1 0xE0 SHL DUP2 MSTORE ADDRESS PUSH1 0x4 DUP3 ADD MSTORE SWAP5 DUP6 SWAP2 DUP3 SWAP1 GAS STATICCALL SWAP3 DUP4 ISZERO PUSH2 0x413 JUMPI PUSH1 0x0 SWAP4 PUSH2 0x15FA JUMPI JUMPDEST POP PUSH1 0x1 SHR PUSH1 0x1 PUSH1 0x1 PUSH1 0x9F SHL SUB AND SWAP3 PUSH2 0x120E DUP5 PUSH2 0x3F8A JUMP JUMPDEST PUSH32 0x0 PUSH1 0x1 PUSH1 0x1 PUSH1 0xA0 SHL SUB AND SWAP3 SWAP1 DUP4 EXTCODESIZE ISZERO PUSH2 0x41F JUMPI PUSH1 0x40 MLOAD PUSH4 0x5C11D795 PUSH1 0xE0 SHL DUP2 MSTORE SWAP2 PUSH1 0x0 SWAP2 DUP4 SWAP2 DUP3 SWAP2 PUSH2 0x1269 SWAP2 TIMESTAMP SWAP2 ADDRESS SWAP2 SWAP1 DUP13 PUSH1 0x4 DUP8 ADD PUSH2 0x3317 JUMP JUMPDEST SUB DUP2 DUP4 DUP8 GAS CALL DUP1 ISZERO PUSH2 0x413 JUMPI PUSH2 0x15E9 JUMPI JUMPDEST POP PUSH1 0x1 SLOAD PUSH1 0x40 MLOAD PUSH4 0x70A08231 PUSH1 0xE0 SHL DUP2 MSTORE ADDRESS PUSH1 0x4 DUP3 ADD MSTORE SWAP4 PUSH1 0x1 PUSH1 0x1 PUSH1 0xA0 SHL SUB SWAP1 SWAP2 AND SWAP3 SWAP1 PUSH1 0x20 DUP6 PUSH1 0x24 DUP2 DUP8 GAS STATICCALL DUP1 ISZERO PUSH2 0x413 JUMPI DUP10 SWAP6 PUSH1 0x0 SWAP2 PUSH2 0x15AC JUMPI JUMPDEST POP SWAP2 PUSH2 0x12D4 PUSH2 0x12CD PUSH1 0x0 SWAP4 PUSH2 0x104 SWAP7 SWAP6 PUSH2 0x2AC3 JUMP JUMPDEST SWAP8 DUP13 PUSH2 0x2AC3 JUMP JUMPDEST SWAP7 PUSH1 0x40 MLOAD SWAP8 DUP9 SWAP7 DUP8 SWAP6 PUSH3 0xE8E337 PUSH1 0xE8 SHL DUP8 MSTORE PUSH1 0x4 DUP8 ADD MSTORE PUSH1 0x24 DUP7 ADD MSTORE PUSH1 0x44 DUP6 ADD MSTORE PUSH1 0x64 DUP5 ADD MSTORE DUP2 PUSH1 0x84 DUP5 ADD MSTORE DUP2 PUSH1 0xA4 DUP5 ADD MSTORE DUP2 PUSH1 0xC4 DUP5 ADD MSTORE TIMESTAMP PUSH1 0xE4 DUP5 ADD MSTORE GAS CALL SWAP1 DUP2 ISZERO PUSH2 0x413 JUMPI DUP5 SWAP2 PUSH2 0x1583 JUMPI JUMPDEST POP POP CALLER PUSH1 0x0 SWAP1 DUP2 MSTORE PUSH1 0xD PUSH1 0x20 MSTORE PUSH1 0x40 SWAP1 KECCAK256 SLOAD PUSH1 0x1 PUSH1 0x1 PUSH1 0xA0 SHL SUB AND ISZERO PUSH2 0x1572 JUMPI PUSH1 0x40 MLOAD SWAP2 PUSH2 0x134F DUP4 PUSH2 0x2865 JUMP JUMPDEST TIMESTAMP PUSH5 0xFFFFFFFFFF AND DUP1 DUP5 MSTORE PUSH1 0x3 SLOAD PUSH1 0x1 PUSH1 0x1 PUSH1 0xA0 SHL SUB AND PUSH1 0x20 DUP6 ADD SWAP1 DUP2 MSTORE PUSH1 0x9 SLOAD SWAP2 SWAP5 SWAP2 PUSH1 0x1 PUSH1 0x40 SHL DUP2 LT ISZERO PUSH2 0x89F JUMPI DUP1 PUSH1 0x1 PUSH2 0x138F SWAP3 ADD PUSH1 0x9 SSTORE PUSH2 0x2914 JUMP JUMPDEST SWAP2 SWAP1 SWAP2 PUSH2 0x155C JUMPI SWAP2 MLOAD DUP2 SLOAD SWAP3 MLOAD PUSH1 0x1 PUSH1 0x1 PUSH1 0xC8 SHL SUB NOT SWAP1 SWAP4 AND PUSH5 0xFFFFFFFFFF SWAP2 SWAP1 SWAP2 AND OR PUSH1 0x28 SWAP3 SWAP1 SWAP3 SHL PUSH6 0x10000000000 PUSH1 0x1 PUSH1 0xC8 SHL SUB AND SWAP2 SWAP1 SWAP2 OR SWAP1 SSTORE PUSH1 0x40 MLOAD SWAP3 PUSH1 0x80 DUP5 ADD DUP5 DUP2 LT PUSH8 0xFFFFFFFFFFFFFFFF DUP3 GT OR PUSH2 0x89F JUMPI PUSH1 0x40 MSTORE PUSH1 0x20 DUP5 ADD SWAP2 PUSH1 0x40 DUP6 ADD SWAP1 DUP7 DUP7 ADD SWAP3 DUP7 MSTORE DUP8 DUP5 MSTORE PUSH1 0x0 DUP3 MSTORE DUP3 MSTORE CALLER PUSH1 0x0 MSTORE PUSH1 0xA PUSH1 0x20 MSTORE PUSH1 0x40 PUSH1 0x0 KECCAK256 SWAP5 DUP6 SLOAD SWAP6 PUSH1 0x1 PUSH1 0x40 SHL DUP8 LT ISZERO PUSH2 0x89F JUMPI DUP7 PUSH2 0x1432 SWAP2 PUSH1 0x1 DUP3 ADD DUP2 SSTORE PUSH2 0x2945 JUMP JUMPDEST SWAP5 SWAP1 SWAP5 PUSH2 0x155C JUMPI SWAP1 MLOAD DUP5 SLOAD SWAP2 MLOAD PUSH1 0x1 PUSH1 0x1 PUSH1 0xC8 SHL SUB NOT SWAP1 SWAP3 AND PUSH5 0xFFFFFFFFFF SWAP2 SWAP1 SWAP2 AND OR PUSH1 0x28 SWAP2 SWAP1 SWAP2 SHL PUSH6 0x10000000000 PUSH1 0x1 PUSH1 0xC8 SHL SUB AND OR DUP4 SSTORE MLOAD DUP3 SLOAD SWAP2 MLOAD PUSH2 0xFFFF PUSH1 0xC8 SHL NOT SWAP1 SWAP3 AND SWAP1 ISZERO ISZERO PUSH1 0xC8 SHL PUSH1 0xFF PUSH1 0xC8 SHL AND OR PUSH1 0xD0 SWAP2 SWAP1 SWAP2 SHL PUSH1 0xFF PUSH1 0xD0 SHL AND OR SWAP1 SSTORE PUSH2 0x14C2 PUSH32 0x0 CALLER PUSH2 0x2FD5 JUMP JUMPDEST SWAP2 PUSH1 0x0 JUMPDEST DUP4 MLOAD PUSH1 0xFF DUP3 AND SWAP1 DUP2 LT ISZERO PUSH2 0x1509 JUMPI PUSH1 0xFF SWAP2 PUSH1 0x1 SWAP2 PUSH1 0x1 PUSH1 0x1 PUSH1 0xA0 SHL SUB SWAP1 PUSH2 0x14ED SWAP1 DUP9 PUSH2 0x2D69 JUMP JUMPDEST MLOAD AND PUSH1 0x0 MSTORE PUSH1 0xC PUSH1 0x20 MSTORE PUSH1 0x40 PUSH1 0x0 KECCAK256 DUP9 DUP2 SLOAD ADD SWAP1 SSTORE ADD AND PUSH2 0x14C6 JUMP JUMPDEST DUP7 DUP4 DUP8 PUSH2 0x151F DUP8 PUSH2 0x151A DUP6 CALLER PUSH2 0x43A6 JUMP JUMPDEST PUSH2 0x2C96 JUMP JUMPDEST SWAP2 PUSH1 0x40 MLOAD SWAP4 DUP5 MSTORE TIMESTAMP PUSH1 0x20 DUP6 ADD MSTORE PUSH1 0x40 DUP5 ADD MSTORE DUP3 ADD MSTORE PUSH32 0x9CFD25589D1EB8AD71E342A86A8524E83522E3936C0803048C08F6D9AD974F40 PUSH1 0x80 CALLER SWAP3 LOG2 STOP JUMPDEST PUSH4 0x4E487B71 PUSH1 0xE0 SHL PUSH1 0x0 MSTORE PUSH1 0x0 PUSH1 0x4 MSTORE PUSH1 0x24 PUSH1 0x0 REVERT JUMPDEST PUSH4 0x7B7140F5 PUSH1 0xE1 SHL PUSH1 0x0 MSTORE PUSH1 0x4 PUSH1 0x0 REVERT JUMPDEST DUP2 RETURNDATASIZE DUP4 GT PUSH2 0x15A5 JUMPI JUMPDEST PUSH2 0x1596 DUP2 DUP4 PUSH2 0x2881 JUMP JUMPDEST DUP2 ADD SUB SLT PUSH2 0x41F JUMPI DUP3 DUP6 PUSH2 0x1322 JUMP JUMPDEST POP RETURNDATASIZE PUSH2 0x158C JUMP JUMPDEST SWAP2 SWAP4 SWAP3 SWAP6 POP POP PUSH1 0x20 DUP2 RETURNDATASIZE PUSH1 0x20 GT PUSH2 0x15E1 JUMPI JUMPDEST DUP2 PUSH2 0x15CB PUSH1 0x20 SWAP4 DUP4 PUSH2 0x2881 JUMP JUMPDEST DUP2 ADD SUB SLT PUSH2 0x41F JUMPI MLOAD DUP9 SWAP5 SWAP2 SWAP3 SWAP1 PUSH2 0x12D4 PUSH2 0x12B8 JUMP JUMPDEST RETURNDATASIZE SWAP2 POP PUSH2 0x15BE JUMP JUMPDEST PUSH1 0x0 PUSH2 0x15F4 SWAP2 PUSH2 0x2881 JUMP JUMPDEST DUP9 PUSH2 0x127A JUMP JUMPDEST SWAP1 SWAP3 POP PUSH1 0x20 DUP2 RETURNDATASIZE PUSH1 0x20 GT PUSH2 0x1626 JUMPI JUMPDEST DUP2 PUSH2 0x1616 PUSH1 0x20 SWAP4 DUP4 PUSH2 0x2881 JUMP JUMPDEST DUP2 ADD SUB SLT PUSH2 0x41F JUMPI MLOAD SWAP2 DUP9 PUSH2 0x11F7 JUMP JUMPDEST RETURNDATASIZE SWAP2 POP PUSH2 0x1609 JUMP JUMPDEST PUSH2 0x1646 SWAP1 PUSH1 0x20 RETURNDATASIZE PUSH1 0x20 GT PUSH2 0x44A JUMPI PUSH2 0x43D DUP2 DUP4 PUSH2 0x2881 JUMP JUMPDEST PUSH2 0x1186 JUMP JUMPDEST PUSH3 0xDA589 PUSH1 0xE4 SHL PUSH1 0x0 MSTORE PUSH1 0x4 PUSH1 0x0 REVERT JUMPDEST PUSH4 0xCF468E43 PUSH1 0xE0 SHL PUSH1 0x0 MSTORE PUSH1 0x4 PUSH1 0x0 REVERT JUMPDEST PUSH4 0xBA1E17C1 PUSH1 0xE0 SHL PUSH1 0x0 MSTORE PUSH1 0x4 PUSH1 0x0 REVERT JUMPDEST PUSH4 0x3CC142B PUSH1 0xE4 SHL PUSH1 0x0 MSTORE PUSH1 0x4 PUSH1 0x0 REVERT JUMPDEST CALLVALUE PUSH2 0x41F JUMPI PUSH1 0x20 CALLDATASIZE PUSH1 0x3 NOT ADD SLT PUSH2 0x41F JUMPI PUSH2 0x16A7 PUSH2 0x280C JUMP JUMPDEST PUSH1 0x0 SWAP1 PUSH1 0x1 DUP1 PUSH1 0xA0 SHL SUB DUP2 AND SWAP1 DUP2 DUP4 MSTORE PUSH1 0xC PUSH1 0x20 MSTORE PUSH1 0x40 DUP4 KECCAK256 SLOAD SWAP2 DUP4 MSTORE PUSH1 0xE PUSH1 0x20 MSTORE PUSH1 0xFF PUSH2 0x16D9 PUSH1 0x40 DUP6 KECCAK256 SLOAD SWAP3 PUSH2 0x425D JUMP JUMPDEST AND SWAP3 PUSH1 0x7 DUP5 LT ISZERO PUSH2 0x175C JUMPI POP PUSH2 0x16ED PUSH2 0x318F JUMP JUMPDEST DUP4 PUSH1 0x6 SUB SWAP1 PUSH1 0xFF DUP3 GT PUSH2 0x1746 JUMPI PUSH1 0xFF PUSH2 0x1707 SWAP3 AND SWAP1 PUSH2 0x2A6D JUMP JUMPDEST MLOAD MLOAD PUSH1 0x64 DUP4 MUL SWAP4 DUP4 DUP6 DIV PUSH1 0x64 EQ DUP5 ISZERO OR ISZERO PUSH2 0x1746 JUMPI PUSH2 0x1728 DUP3 PUSH1 0xA0 SWAP7 PUSH2 0x2AE3 JUMP JUMPDEST SWAP3 JUMPDEST PUSH1 0x40 MLOAD SWAP5 DUP6 MSTORE PUSH1 0x20 DUP6 ADD MSTORE PUSH1 0x40 DUP5 ADD MSTORE PUSH1 0x60 DUP4 ADD MSTORE PUSH1 0x80 DUP3 ADD MSTORE RETURN JUMPDEST PUSH4 0x4E487B71 PUSH1 0xE0 SHL PUSH1 0x0 MSTORE PUSH1 0x11 PUSH1 0x4 MSTORE PUSH1 0x24 PUSH1 0x0 REVERT JUMPDEST PUSH1 0xA0 SWAP4 PUSH1 0x64 SWAP3 PUSH2 0x172A JUMP JUMPDEST PUSH2 0x295D JUMP JUMPDEST CALLVALUE PUSH2 0x41F JUMPI PUSH1 0x0 CALLDATASIZE PUSH1 0x3 NOT ADD SLT PUSH2 0x41F JUMPI PUSH2 0x1785 PUSH2 0x32EE JUMP JUMPDEST PUSH1 0x0 DUP1 SLOAD PUSH1 0x1 PUSH1 0x1 PUSH1 0xA0 SHL SUB NOT DUP2 AND DUP3 SSTORE PUSH1 0x1 PUSH1 0x1 PUSH1 0xA0 SHL SUB AND PUSH32 0x8BE0079C531659141344CD1FD0A4F28419497F9722A3DAAFE3B4186F6B6457E0 DUP3 DUP1 LOG3 STOP JUMPDEST CALLVALUE PUSH2 0x41F JUMPI PUSH1 0x20 CALLDATASIZE PUSH1 0x3 NOT ADD SLT PUSH2 0x41F JUMPI PUSH1 0xA0 PUSH2 0x17E0 PUSH2 0x280C JUMP JUMPDEST PUSH1 0x1 PUSH1 0x1 PUSH1 0x80 SHL SUB PUSH2 0x17F1 DUP3 PUSH2 0x2E79 JUMP JUMPDEST AND SWAP1 PUSH1 0x1 DUP1 DUP5 SHL SUB DUP2 AND SWAP1 DUP2 PUSH1 0x0 MSTORE PUSH1 0xC PUSH1 0x20 MSTORE PUSH1 0x1 PUSH1 0x1 PUSH1 0x80 SHL SUB PUSH1 0x40 PUSH1 0x0 KECCAK256 SLOAD AND SWAP2 DUP1 PUSH1 0x0 MSTORE PUSH1 0xD PUSH1 0x20 MSTORE PUSH1 0x1 DUP1 DUP7 SHL SUB PUSH1 0x40 PUSH1 0x0 KECCAK256 SLOAD AND SWAP1 PUSH1 0x0 MSTORE PUSH1 0xF PUSH1 0x20 MSTORE PUSH9 0xAD78EBC5AC6200000 PUSH2 0x1850 PUSH1 0xFF PUSH1 0x40 PUSH1 0x0 KECCAK256 SLOAD AND SWAP4 PUSH2 0x2E79 JUMP JUMPDEST LT ISZERO SWAP3 PUSH1 0x40 MLOAD SWAP5 DUP6 MSTORE PUSH1 0x20 DUP6 ADD MSTORE PUSH1 0x40 DUP5 ADD MSTORE ISZERO ISZERO PUSH1 0x60 DUP4 ADD MSTORE PUSH1 0x80 DUP3 ADD MSTORE RETURN JUMPDEST CALLVALUE PUSH2 0x41F JUMPI PUSH1 0x20 CALLDATASIZE PUSH1 0x3 NOT ADD SLT PUSH2 0x41F JUMPI PUSH1 0x4 CALLDATALOAD PUSH1 0x9 SLOAD DUP2 LT ISZERO PUSH2 0x41F JUMPI PUSH2 0x189A PUSH1 0x40 SWAP2 PUSH2 0x2914 JUMP JUMPDEST POP SLOAD DUP2 MLOAD PUSH5 0xFFFFFFFFFF DUP3 AND DUP2 MSTORE PUSH1 0x28 SWAP2 SWAP1 SWAP2 SHR PUSH1 0x1 PUSH1 0x1 PUSH1 0xA0 SHL SUB AND PUSH1 0x20 DUP3 ADD MSTORE RETURN JUMPDEST CALLVALUE PUSH2 0x41F JUMPI PUSH1 0x20 CALLDATASIZE PUSH1 0x3 NOT ADD SLT PUSH2 0x41F JUMPI PUSH1 0x20 PUSH2 0x18D9 PUSH2 0x280C JUMP JUMPDEST PUSH1 0x1 PUSH1 0x1 PUSH1 0xA0 SHL SUB DUP2 AND PUSH1 0x0 SWAP1 DUP2 MSTORE PUSH1 0x4 DUP4 MSTORE PUSH1 0x40 DUP2 KECCAK256 SLOAD SWAP1 SWAP2 PUSH2 0x18FC SWAP1 PUSH2 0x2E79 JUMP JUMPDEST DUP2 DUP2 GT PUSH2 0x190E JUMPI JUMPDEST POP POP PUSH1 0x40 MLOAD SWAP1 DUP2 MSTORE RETURN JUMPDEST SUB SWAP1 POP DUP3 DUP1 PUSH2 0x1904 JUMP JUMPDEST PUSH2 0x2A1E JUMP JUMPDEST CALLVALUE PUSH2 0x41F JUMPI PUSH1 0x20 CALLDATASIZE PUSH1 0x3 NOT ADD SLT PUSH2 0x41F JUMPI PUSH1 0x20 PUSH9 0xAD78EBC5AC6200000 PUSH2 0x1945 PUSH2 0xAD3 PUSH2 0x280C JUMP JUMPDEST LT ISZERO PUSH1 0x40 MLOAD SWAP1 DUP2 MSTORE RETURN JUMPDEST CALLVALUE PUSH2 0x41F JUMPI PUSH1 0x20 CALLDATASIZE PUSH1 0x3 NOT ADD SLT PUSH2 0x41F JUMPI PUSH2 0x1968 PUSH2 0x280C JUMP JUMPDEST PUSH1 0x1 PUSH1 0x1 PUSH1 0xA0 SHL SUB DUP2 AND PUSH1 0x0 DUP2 DUP2 MSTORE PUSH1 0xA PUSH1 0x20 MSTORE PUSH1 0x40 SWAP1 KECCAK256 SLOAD SWAP1 SWAP2 PUSH2 0x198C DUP3 PUSH2 0x2D1A JUMP JUMPDEST SWAP2 PUSH2 0x1996 DUP2 PUSH2 0x2B1B JUMP JUMPDEST SWAP1 PUSH2 0x19A4 PUSH1 0x40 MLOAD SWAP3 DUP4 PUSH2 0x2881 JUMP JUMPDEST DUP1 DUP3 MSTORE PUSH2 0x19B0 DUP2 PUSH2 0x2B1B JUMP JUMPDEST PUSH1 0x20 DUP4 ADD SWAP6 SWAP1 PUSH1 0x1F NOT ADD CALLDATASIZE DUP8 CALLDATACOPY PUSH2 0x19C6 DUP3 PUSH2 0x2D1A JUMP JUMPDEST SWAP4 PUSH1 0x0 JUMPDEST DUP4 DUP2 LT PUSH2 0x1A32 JUMPI POP POP POP POP PUSH1 0x20 PUSH2 0x19EC PUSH1 0x40 MLOAD SWAP5 PUSH1 0x60 DUP7 MSTORE PUSH1 0x60 DUP7 ADD SWAP1 PUSH2 0x2A39 JUMP JUMPDEST SWAP2 DUP5 DUP4 SUB DUP3 DUP7 ADD MSTORE MLOAD SWAP2 DUP3 DUP2 MSTORE ADD SWAP4 SWAP1 PUSH1 0x0 JUMPDEST DUP2 DUP2 LT PUSH2 0x1A1A JUMPI DUP5 DUP1 PUSH2 0x529 DUP9 DUP8 DUP4 DUP3 SUB PUSH1 0x40 DUP6 ADD MSTORE PUSH2 0x2A39 JUMP JUMPDEST DUP3 MLOAD ISZERO ISZERO DUP7 MSTORE PUSH1 0x20 SWAP6 DUP7 ADD SWAP6 SWAP1 SWAP3 ADD SWAP2 PUSH1 0x1 ADD PUSH2 0x19FF JUMP JUMPDEST DUP1 DUP1 PUSH2 0x1A40 PUSH1 0x1 SWAP4 DUP11 PUSH2 0x2D69 JUMP JUMPDEST MSTORE PUSH2 0x1A4B DUP2 DUP5 PUSH2 0x2F3F JUMP JUMPDEST PUSH2 0x1A55 DUP3 DUP9 PUSH2 0x2D69 JUMP JUMPDEST SWAP1 ISZERO ISZERO SWAP1 MSTORE DUP4 PUSH1 0x0 MSTORE PUSH1 0xA PUSH1 0x20 MSTORE PUSH2 0x1A71 DUP2 PUSH1 0x40 PUSH1 0x0 KECCAK256 PUSH2 0x2945 JUMP JUMPDEST POP SLOAD PUSH1 0xFF DUP2 PUSH1 0xC8 SHR AND ISZERO PUSH1 0x0 EQ PUSH2 0x1ACF JUMPI PUSH2 0x1AA2 PUSH1 0xFF PUSH2 0x1A98 PUSH5 0xFFFFFFFFFF DUP5 AND TIMESTAMP PUSH2 0x2AC3 JUMP JUMPDEST SWAP3 PUSH1 0xD0 SHR AND PUSH2 0x2C96 JUMP JUMPDEST SWAP1 DUP2 DUP2 LT PUSH2 0x1AC1 JUMPI POP POP PUSH1 0x0 JUMPDEST PUSH2 0x1AB9 DUP3 DUP10 PUSH2 0x2D69 JUMP JUMPDEST MSTORE JUMPDEST ADD PUSH2 0x19CA JUMP JUMPDEST PUSH2 0x1ACA SWAP2 PUSH2 0x2AC3 JUMP JUMPDEST PUSH2 0x1AAF JUMP JUMPDEST POP PUSH1 0x0 PUSH2 0x1ADC DUP3 DUP10 PUSH2 0x2D69 JUMP JUMPDEST MSTORE PUSH2 0x1ABB JUMP JUMPDEST CALLVALUE PUSH2 0x41F JUMPI PUSH1 0x20 CALLDATASIZE PUSH1 0x3 NOT ADD SLT PUSH2 0x41F JUMPI PUSH1 0x4 CALLDATALOAD PUSH1 0xFF DUP2 AND DUP2 SUB PUSH2 0x41F JUMPI PUSH2 0xA19 PUSH1 0x20 SWAP2 PUSH2 0x2C96 JUMP JUMPDEST CALLVALUE PUSH2 0x41F JUMPI PUSH1 0x0 CALLDATASIZE PUSH1 0x3 NOT ADD SLT PUSH2 0x41F JUMPI PUSH1 0x12 SLOAD PUSH1 0x40 MLOAD PUSH1 0x1 PUSH1 0x1 PUSH1 0xA0 SHL SUB SWAP1 SWAP2 AND DUP2 MSTORE PUSH1 0x20 SWAP1 RETURN JUMPDEST CALLVALUE PUSH2 0x41F JUMPI PUSH1 0x20 CALLDATASIZE PUSH1 0x3 NOT ADD SLT PUSH2 0x41F JUMPI PUSH1 0x1 PUSH1 0x1 PUSH1 0xA0 SHL SUB PUSH2 0x1B55 PUSH2 0x280C JUMP JUMPDEST AND PUSH1 0x0 MSTORE PUSH1 0xD PUSH1 0x20 MSTORE PUSH1 0x20 PUSH1 0x1 DUP1 PUSH1 0xA0 SHL SUB PUSH1 0x40 PUSH1 0x0 KECCAK256 SLOAD AND PUSH1 0x40 MLOAD SWAP1 DUP2 MSTORE RETURN JUMPDEST CALLVALUE PUSH2 0x41F JUMPI PUSH1 0x20 CALLDATASIZE PUSH1 0x3 NOT ADD SLT PUSH2 0x41F JUMPI PUSH1 0x1 PUSH1 0x1 PUSH1 0xA0 SHL SUB PUSH2 0x1B97 PUSH2 0x280C JUMP JUMPDEST AND PUSH1 0x0 MSTORE PUSH1 0xA PUSH1 0x20 MSTORE PUSH1 0x20 PUSH1 0x40 PUSH1 0x0 KECCAK256 SLOAD PUSH1 0x40 MLOAD SWAP1 DUP2 MSTORE RETURN JUMPDEST CALLVALUE PUSH2 0x41F JUMPI PUSH1 0x0 CALLDATASIZE PUSH1 0x3 NOT ADD SLT PUSH2 0x41F JUMPI PUSH1 0x40 MLOAD PUSH32 0x0 PUSH1 0x1 PUSH1 0x1 PUSH1 0xA0 SHL SUB AND DUP2 MSTORE PUSH1 0x20 SWAP1 RETURN JUMPDEST CALLVALUE PUSH2 0x41F JUMPI PUSH1 0x40 CALLDATASIZE PUSH1 0x3 NOT ADD SLT PUSH2 0x41F JUMPI PUSH2 0x529 PUSH2 0x515 PUSH2 0x1C14 PUSH2 0x280C JUMP JUMPDEST PUSH1 0x24 CALLDATALOAD PUSH1 0xFF DUP2 GT PUSH2 0x1C29 JUMPI JUMPDEST PUSH1 0xFF AND SWAP1 PUSH2 0x2FD5 JUMP JUMPDEST POP PUSH1 0xFF PUSH2 0x1C20 JUMP JUMPDEST CALLVALUE PUSH2 0x41F JUMPI PUSH1 0x20 CALLDATASIZE PUSH1 0x3 NOT ADD SLT PUSH2 0x41F JUMPI PUSH1 0x4 CALLDATALOAD PUSH1 0x1 SHR PUSH1 0x4 PUSH1 0x20 PUSH1 0x1 DUP1 PUSH1 0xA0 SHL SUB PUSH1 0x1 SLOAD AND PUSH1 0x40 MLOAD SWAP3 DUP4 DUP1 SWAP3 PUSH4 0x1ABFA629 PUSH1 0xE0 SHL DUP3 MSTORE GAS STATICCALL SWAP1 DUP2 ISZERO PUSH2 0x413 JUMPI PUSH1 0x0 SWAP2 PUSH2 0x1E3F JUMPI JUMPDEST POP PUSH1 0x40 MLOAD PUSH4 0x240BC6B PUSH1 0xE2 SHL DUP2 MSTORE PUSH1 0x1 PUSH1 0x1 PUSH1 0xA0 SHL SUB SWAP2 SWAP1 SWAP2 AND SWAP2 SWAP1 PUSH1 0x60 DUP2 PUSH1 0x4 DUP2 DUP7 GAS STATICCALL SWAP1 DUP2 ISZERO PUSH2 0x413 JUMPI PUSH1 0x0 SWAP1 PUSH1 0x0 SWAP3 PUSH2 0x1E0C JUMPI JUMPDEST POP PUSH1 0x4 PUSH1 0x20 PUSH1 0x0 SWAP6 PUSH1 0x40 MLOAD SWAP3 DUP4 DUP1 SWAP3 PUSH4 0xDFE1681 PUSH1 0xE0 SHL DUP3 MSTORE GAS STATICCALL SWAP1 DUP2 ISZERO PUSH2 0x1E01 JUMPI SWAP1 PUSH1 0x20 SWAP4 SWAP3 SWAP2 PUSH2 0x1D4F SWAP7 SWAP2 PUSH2 0x1DE4 JUMPI JUMPDEST POP PUSH1 0x1 PUSH1 0x1 PUSH1 0xA0 SHL SUB SWAP1 DUP2 AND PUSH32 0x0 SWAP1 SWAP2 AND SUB PUSH2 0x1DDE JUMPI JUMPDEST PUSH1 0x40 MLOAD PUSH4 0x1535435 PUSH1 0xE2 SHL DUP2 MSTORE PUSH1 0x4 DUP2 ADD DUP6 SWAP1 MSTORE PUSH1 0x1 PUSH1 0x1 PUSH1 0x70 SHL SUB SWAP2 DUP3 AND PUSH1 0x24 DUP3 ADD MSTORE SWAP2 AND PUSH1 0x44 DUP3 ADD MSTORE SWAP3 DUP4 SWAP1 DUP2 SWAP1 PUSH1 0x64 DUP3 ADD SWAP1 JUMP JUMPDEST SUB DUP2 PUSH32 0x0 PUSH1 0x1 PUSH1 0x1 PUSH1 0xA0 SHL SUB AND GAS STATICCALL DUP1 ISZERO PUSH2 0x413 JUMPI PUSH1 0x0 SWAP1 PUSH2 0x1DAB JUMPI JUMPDEST PUSH1 0x60 SWAP3 POP PUSH2 0x1D98 DUP3 PUSH2 0x3F8A JUMP JUMPDEST SWAP1 PUSH1 0x40 MLOAD SWAP3 DUP4 MSTORE PUSH1 0x20 DUP4 ADD MSTORE PUSH1 0x40 DUP3 ADD MSTORE RETURN JUMPDEST POP PUSH1 0x20 DUP3 RETURNDATASIZE PUSH1 0x20 GT PUSH2 0x1DD6 JUMPI JUMPDEST DUP2 PUSH2 0x1DC5 PUSH1 0x20 SWAP4 DUP4 PUSH2 0x2881 JUMP JUMPDEST DUP2 ADD SUB SLT PUSH2 0x41F JUMPI PUSH1 0x60 SWAP2 MLOAD PUSH2 0x1D8B JUMP JUMPDEST RETURNDATASIZE SWAP2 POP PUSH2 0x1DB8 JUMP JUMPDEST SWAP1 PUSH2 0x1D18 JUMP JUMPDEST PUSH2 0x1DFB SWAP2 POP DUP5 RETURNDATASIZE DUP7 GT PUSH2 0x485 JUMPI PUSH2 0x473 DUP2 DUP4 PUSH2 0x2881 JUMP JUMPDEST DUP7 PUSH2 0x1CE2 JUMP JUMPDEST PUSH1 0x40 MLOAD RETURNDATASIZE DUP8 DUP3 RETURNDATACOPY RETURNDATASIZE SWAP1 REVERT JUMPDEST SWAP1 POP PUSH2 0x1E30 SWAP2 POP PUSH1 0x60 RETURNDATASIZE PUSH1 0x60 GT PUSH2 0x1E38 JUMPI JUMPDEST PUSH2 0x1E28 DUP2 DUP4 PUSH2 0x2881 JUMP JUMPDEST DUP2 ADD SWAP1 PUSH2 0x2BDD JUMP JUMPDEST POP SWAP1 DUP5 PUSH2 0x1CB0 JUMP JUMPDEST POP RETURNDATASIZE PUSH2 0x1E1E JUMP JUMPDEST PUSH2 0x1E58 SWAP2 POP PUSH1 0x20 RETURNDATASIZE PUSH1 0x20 GT PUSH2 0x485 JUMPI PUSH2 0x473 DUP2 DUP4 PUSH2 0x2881 JUMP JUMPDEST DUP3 PUSH2 0x1C79 JUMP JUMPDEST CALLVALUE PUSH2 0x41F JUMPI PUSH1 0x0 CALLDATASIZE PUSH1 0x3 NOT ADD SLT PUSH2 0x41F JUMPI PUSH1 0x20 PUSH1 0x40 MLOAD PUSH1 0x12 DUP2 MSTORE RETURN JUMPDEST CALLVALUE PUSH2 0x41F JUMPI PUSH1 0x20 CALLDATASIZE PUSH1 0x3 NOT ADD SLT PUSH2 0x41F JUMPI PUSH1 0x1 PUSH1 0x1 PUSH1 0xA0 SHL SUB PUSH2 0x1E9B PUSH2 0x280C JUMP JUMPDEST AND PUSH1 0x0 MSTORE PUSH1 0x11 PUSH1 0x20 MSTORE PUSH1 0x40 PUSH1 0x0 KECCAK256 DUP1 SLOAD SWAP1 PUSH2 0x1EB5 DUP3 PUSH2 0x2B1B JUMP JUMPDEST SWAP2 PUSH2 0x1EC3 PUSH1 0x40 MLOAD SWAP4 DUP5 PUSH2 0x2881 JUMP JUMPDEST DUP1 DUP4 MSTORE PUSH1 0x20 DUP4 ADD DUP1 SWAP3 PUSH1 0x0 MSTORE PUSH1 0x20 PUSH1 0x0 KECCAK256 PUSH1 0x0 SWAP2 JUMPDEST DUP4 DUP4 LT PUSH2 0x1F30 JUMPI DUP5 DUP7 PUSH1 0x40 MLOAD SWAP2 DUP3 SWAP2 PUSH1 0x20 DUP4 ADD SWAP1 PUSH1 0x20 DUP5 MSTORE MLOAD DUP1 SWAP2 MSTORE PUSH1 0x40 DUP4 ADD SWAP2 SWAP1 PUSH1 0x0 JUMPDEST DUP2 DUP2 LT PUSH2 0x1F0B JUMPI POP POP POP SUB SWAP1 RETURN JUMPDEST SWAP2 SWAP4 POP SWAP2 PUSH1 0x20 PUSH2 0x140 DUP3 PUSH2 0x1F22 PUSH1 0x1 SWAP5 DUP9 MLOAD PUSH2 0x2978 JUMP JUMPDEST ADD SWAP5 ADD SWAP2 ADD SWAP2 DUP5 SWAP4 SWAP3 PUSH2 0x1EFD JUMP JUMPDEST PUSH1 0xA PUSH1 0x20 PUSH1 0x1 SWAP3 PUSH2 0x1F40 DUP6 PUSH2 0x2B33 JUMP JUMPDEST DUP2 MSTORE ADD SWAP3 ADD SWAP3 ADD SWAP2 SWAP1 PUSH2 0x1ED8 JUMP JUMPDEST CALLVALUE PUSH2 0x41F JUMPI PUSH1 0x20 CALLDATASIZE PUSH1 0x3 NOT ADD SLT PUSH2 0x41F JUMPI PUSH1 0x1 PUSH1 0x1 PUSH1 0xA0 SHL SUB PUSH2 0x1F6F PUSH2 0x280C JUMP JUMPDEST AND PUSH1 0x0 MSTORE PUSH1 0x10 PUSH1 0x20 MSTORE PUSH1 0x20 PUSH1 0x1 DUP1 PUSH1 0xA0 SHL SUB PUSH1 0x40 PUSH1 0x0 KECCAK256 SLOAD AND PUSH1 0x40 MLOAD SWAP1 DUP2 MSTORE RETURN JUMPDEST CALLVALUE PUSH2 0x41F JUMPI PUSH1 0x20 CALLDATASIZE PUSH1 0x3 NOT ADD SLT PUSH2 0x41F JUMPI CALLER ORIGIN SUB PUSH2 0x167D JUMPI CALLER PUSH1 0x0 MSTORE PUSH1 0xA PUSH1 0x20 MSTORE PUSH2 0x1FC1 PUSH1 0x4 CALLDATALOAD PUSH1 0x40 PUSH1 0x0 KECCAK256 PUSH2 0x2945 JUMP JUMPDEST POP DUP1 SLOAD PUSH2 0x1FD5 PUSH5 0xFFFFFFFFFF DUP3 AND TIMESTAMP PUSH2 0x2AC3 JUMP JUMPDEST PUSH2 0x1FE4 PUSH1 0xFF DUP4 PUSH1 0xD0 SHR AND PUSH2 0x2C96 JUMP JUMPDEST GT PUSH2 0x2563 JUMPI PUSH1 0xFF DUP2 PUSH1 0xC8 SHR AND PUSH2 0x2552 JUMPI PUSH2 0x1FFD DUP3 PUSH2 0x30B7 JUMP JUMPDEST PUSH1 0xFF PUSH1 0xC8 SHL NOT DUP3 AND PUSH1 0x1 PUSH1 0xC8 SHL OR SWAP1 SWAP3 SSTORE PUSH2 0x2025 PUSH1 0x28 DUP3 SWAP1 SHR PUSH1 0x1 PUSH1 0x1 PUSH1 0xA0 SHL SUB AND CALLER PUSH2 0x42F2 JUMP JUMPDEST CALLER PUSH1 0x0 SWAP1 DUP2 MSTORE PUSH1 0xB PUSH1 0x20 MSTORE PUSH1 0x40 SWAP1 KECCAK256 DUP1 SLOAD PUSH1 0x1 ADD SWAP1 SSTORE PUSH2 0x2044 DUP3 PUSH2 0x3350 JUMP JUMPDEST PUSH1 0x0 PUSH1 0x28 DUP5 SWAP1 SHR PUSH1 0x1 PUSH1 0x1 PUSH1 0xA0 SHL SUB AND DUP4 GT ISZERO PUSH2 0x254C JUMPI POP PUSH2 0x2073 PUSH1 0x28 DUP5 SWAP1 SHR PUSH1 0x1 PUSH1 0x1 PUSH1 0xA0 SHL SUB AND DUP4 PUSH2 0x2AC3 JUMP JUMPDEST SWAP1 JUMPDEST PUSH32 0x0 SWAP5 PUSH2 0x20A1 DUP7 CALLER PUSH2 0x2FD5 JUMP JUMPDEST CALLER PUSH1 0x0 SWAP1 DUP2 MSTORE PUSH1 0x10 PUSH1 0x20 MSTORE PUSH1 0x40 SWAP1 KECCAK256 SLOAD PUSH1 0x1 PUSH1 0x1 PUSH1 0xA0 SHL SUB AND DUP1 ISZERO PUSH2 0x2512 JUMPI PUSH1 0x40 MLOAD PUSH4 0xA9059CBB PUSH1 0xE0 SHL DUP2 MSTORE PUSH1 0x1 PUSH1 0x1 PUSH1 0xA0 SHL SUB SWAP1 SWAP2 AND PUSH1 0x4 DUP3 ADD MSTORE PUSH1 0x64 PUSH1 0x5 DUP7 MUL DIV PUSH1 0x24 DUP3 ADD MSTORE PUSH1 0x20 DUP2 DUP1 PUSH1 0x44 DUP2 ADD JUMPDEST SUB DUP2 PUSH1 0x0 PUSH32 0x0 PUSH1 0x1 PUSH1 0x1 PUSH1 0xA0 SHL SUB AND GAS CALL DUP1 ISZERO PUSH2 0x413 JUMPI PUSH2 0x2144 SWAP3 PUSH2 0x213D SWAP3 DUP8 SWAP3 PUSH2 0x24F3 JUMPI JUMPDEST POP PUSH2 0x38A8 JUMP JUMPDEST SWAP7 CALLER PUSH2 0x2FD5 JUMP JUMPDEST SWAP4 PUSH1 0x0 JUMPDEST DUP6 MLOAD PUSH1 0xFF DUP3 AND SWAP1 DUP2 LT ISZERO PUSH2 0x2195 JUMPI PUSH1 0xFF SWAP2 PUSH1 0x1 SWAP2 PUSH1 0x1 PUSH1 0x1 PUSH1 0xA0 SHL SUB SWAP1 PUSH2 0x216F SWAP1 DUP11 PUSH2 0x2D69 JUMP JUMPDEST MLOAD AND PUSH1 0x0 MSTORE PUSH1 0xC PUSH1 0x20 MSTORE PUSH1 0x40 PUSH1 0x0 KECCAK256 DUP3 DUP1 PUSH1 0xA0 SHL SUB DUP11 PUSH1 0x28 SHR AND DUP2 SLOAD SUB SWAP1 SSTORE ADD AND PUSH2 0x2148 JUMP JUMPDEST POP POP DUP7 DUP5 DUP8 PUSH2 0x21B3 DUP4 PUSH2 0x21AE PUSH1 0x64 PUSH1 0x5 DUP7 MUL DIV DUP8 PUSH2 0x2AC3 JUMP JUMPDEST PUSH2 0x2AC3 JUMP JUMPDEST SWAP2 PUSH1 0x64 DUP4 MUL DUP4 DUP2 DIV PUSH1 0x64 EQ DUP5 ISZERO OR ISZERO PUSH2 0x1746 JUMPI PUSH2 0x2710 SWAP1 DIV DUP1 ISZERO ISZERO DUP1 PUSH2 0x24DF JUMPI JUMPDEST PUSH2 0x247B JUMPI JUMPDEST POP PUSH1 0x40 MLOAD SWAP4 PUSH2 0x21E7 DUP6 PUSH2 0x2848 JUMP JUMPDEST PUSH5 0xFFFFFFFFFF TIMESTAMP AND DUP6 MSTORE PUSH1 0x4 CALLDATALOAD PUSH1 0x20 DUP7 ADD MSTORE PUSH1 0x1 DUP1 PUSH1 0xA0 SHL SUB DUP4 PUSH1 0x28 SHR AND PUSH1 0x40 DUP7 ADD MSTORE DUP7 PUSH1 0x60 DUP7 ADD MSTORE DUP6 PUSH1 0x80 DUP7 ADD MSTORE DUP8 PUSH1 0xA0 DUP7 ADD MSTORE PUSH1 0x64 PUSH1 0x5 DUP4 MUL DIV PUSH1 0xC0 DUP7 ADD MSTORE DUP1 PUSH1 0xE0 DUP7 ADD MSTORE DUP4 PUSH2 0x100 DUP7 ADD MSTORE DUP2 PUSH2 0x120 DUP7 ADD MSTORE CALLER PUSH1 0x0 MSTORE PUSH1 0x11 PUSH1 0x20 MSTORE PUSH1 0x40 PUSH1 0x0 KECCAK256 DUP1 SLOAD PUSH1 0x1 PUSH1 0x40 SHL DUP2 LT ISZERO PUSH2 0x89F JUMPI PUSH2 0x2267 SWAP2 PUSH1 0x1 DUP3 ADD DUP2 SSTORE PUSH2 0x2E5D JUMP JUMPDEST SWAP7 SWAP1 SWAP7 PUSH2 0x155C JUMPI PUSH2 0x23C5 SWAP7 PUSH1 0x9 PUSH2 0x120 DUP9 PUSH5 0xFFFFFFFFFF DUP1 PUSH1 0x20 SWAP12 MLOAD AND AND PUSH5 0xFFFFFFFFFF NOT DUP6 SLOAD AND OR DUP5 SSTORE DUP10 DUP2 ADD MLOAD PUSH1 0x1 DUP6 ADD SSTORE PUSH1 0x40 DUP2 ADD MLOAD PUSH1 0x2 DUP6 ADD SSTORE PUSH1 0x60 DUP2 ADD MLOAD PUSH1 0x3 DUP6 ADD SSTORE PUSH1 0x80 DUP2 ADD MLOAD PUSH1 0x4 DUP6 ADD SSTORE PUSH1 0xA0 DUP2 ADD MLOAD PUSH1 0x5 DUP6 ADD SSTORE PUSH1 0xC0 DUP2 ADD MLOAD PUSH1 0x6 DUP6 ADD SSTORE PUSH1 0xE0 DUP2 ADD MLOAD PUSH1 0x7 DUP6 ADD SSTORE PUSH2 0x100 DUP2 ADD MLOAD PUSH1 0x8 DUP6 ADD SSTORE ADD MLOAD SWAP2 ADD SSTORE PUSH1 0x40 MLOAD DUP9 DUP2 MSTORE PUSH5 0xFFFFFFFFFF TIMESTAMP AND DUP8 DUP3 ADD MSTORE PUSH1 0x4 CALLDATALOAD PUSH1 0x40 DUP3 ADD MSTORE PUSH32 0x48711929C842404F1D698F9525C36A831E8224D0BAC22977E91904B3FE9F6564 PUSH1 0x60 CALLER SWAP3 LOG2 PUSH1 0x40 MLOAD SWAP4 PUSH1 0x1 DUP1 PUSH1 0xA0 SHL SUB SWAP1 PUSH1 0x28 SHR AND DUP5 MSTORE DUP8 DUP7 DUP6 ADD MSTORE PUSH1 0x40 DUP5 ADD MSTORE DUP8 PUSH1 0x60 DUP5 ADD MSTORE PUSH1 0x64 PUSH1 0x5 DUP4 MUL DIV PUSH1 0x80 DUP5 ADD MSTORE PUSH1 0xA0 DUP4 ADD MSTORE DUP3 PUSH1 0xC0 DUP4 ADD MSTORE PUSH1 0xE0 DUP3 ADD MSTORE PUSH5 0xFFFFFFFFFF TIMESTAMP AND PUSH2 0x100 DUP3 ADD MSTORE PUSH1 0x4 CALLDATALOAD SWAP1 PUSH32 0xAB399E9275F69C267FE8B281747707BBD6B5B7DC2AFB59AC345AE3E7EE24338D PUSH2 0x120 CALLER SWAP3 LOG3 PUSH1 0x40 MLOAD PUSH4 0xA9059CBB PUSH1 0xE0 SHL DUP2 MSTORE CALLER PUSH1 0x4 DUP3 ADD MSTORE PUSH1 0x24 DUP2 ADD SWAP2 SWAP1 SWAP2 MSTORE SWAP2 DUP3 SWAP1 DUP2 SWAP1 PUSH1 0x44 DUP3 ADD SWAP1 JUMP JUMPDEST SUB DUP2 PUSH1 0x0 PUSH32 0x0 PUSH1 0x1 PUSH1 0x1 PUSH1 0xA0 SHL SUB AND GAS CALL DUP1 ISZERO PUSH2 0x413 JUMPI PUSH2 0x245E JUMPI JUMPDEST POP PUSH1 0x1 SLOAD PUSH1 0x1 PUSH1 0x1 PUSH1 0xA0 SHL SUB AND SWAP2 DUP3 EXTCODESIZE ISZERO PUSH2 0x41F JUMPI PUSH1 0x0 SWAP3 PUSH1 0x24 DUP5 SWAP3 PUSH1 0x40 MLOAD SWAP6 DUP7 SWAP4 DUP5 SWAP3 PUSH4 0x37470D6F PUSH1 0xE2 SHL DUP5 MSTORE PUSH1 0x4 DUP5 ADD MSTORE GAS CALL SWAP2 DUP3 ISZERO PUSH2 0x413 JUMPI PUSH1 0x20 SWAP3 PUSH2 0x244D JUMPI JUMPDEST POP PUSH1 0x40 MLOAD SWAP1 DUP2 MSTORE RETURN JUMPDEST PUSH1 0x0 PUSH2 0x2458 SWAP2 PUSH2 0x2881 JUMP JUMPDEST DUP3 PUSH2 0x2444 JUMP JUMPDEST PUSH2 0x2476 SWAP1 PUSH1 0x20 RETURNDATASIZE PUSH1 0x20 GT PUSH2 0x44A JUMPI PUSH2 0x43D DUP2 DUP4 PUSH2 0x2881 JUMP JUMPDEST PUSH2 0x2400 JUMP JUMPDEST PUSH2 0x2484 DUP2 PUSH2 0x3350 JUMP JUMPDEST PUSH1 0x12 SLOAD PUSH1 0x40 DUP1 MLOAD PUSH1 0x4 CALLDATALOAD DUP2 MSTORE PUSH1 0x20 DUP2 ADD SWAP4 SWAP1 SWAP4 MSTORE DUP3 ADD SWAP4 SWAP1 SWAP4 MSTORE TIMESTAMP PUSH1 0x60 DUP3 ADD MSTORE PUSH1 0x1 PUSH1 0x1 PUSH1 0xA0 SHL SUB SWAP1 SWAP3 AND SWAP2 CALLER SWAP2 POP PUSH32 0x91A9F62031BE84840EB01532B7F49AAC5EDBD1CF88134C55FECB102753216B2C SWAP1 PUSH1 0x80 SWAP1 LOG3 DUP8 PUSH2 0x21D9 JUMP JUMPDEST POP PUSH1 0x12 SLOAD PUSH1 0x1 PUSH1 0x1 PUSH1 0xA0 SHL SUB AND ISZERO ISZERO PUSH2 0x21D4 JUMP JUMPDEST PUSH2 0x250B SWAP1 PUSH1 0x20 RETURNDATASIZE PUSH1 0x20 GT PUSH2 0x44A JUMPI PUSH2 0x43D DUP2 DUP4 PUSH2 0x2881 JUMP JUMPDEST POP DUP11 PUSH2 0x2137 JUMP JUMPDEST POP PUSH1 0x2 SLOAD PUSH1 0x40 MLOAD PUSH4 0xA9059CBB PUSH1 0xE0 SHL DUP2 MSTORE PUSH1 0x1 PUSH1 0x1 PUSH1 0xA0 SHL SUB SWAP1 SWAP2 AND PUSH1 0x4 DUP3 ADD MSTORE PUSH1 0x64 PUSH1 0x5 DUP7 MUL DIV PUSH1 0x24 DUP3 ADD MSTORE PUSH1 0x20 DUP2 DUP1 PUSH1 0x44 DUP2 ADD PUSH2 0x20F2 JUMP JUMPDEST SWAP1 PUSH2 0x2075 JUMP JUMPDEST PUSH4 0x6507689F PUSH1 0xE0 SHL PUSH1 0x0 MSTORE PUSH1 0x4 PUSH1 0x0 REVERT JUMPDEST PUSH4 0x508BB1F5 PUSH1 0xE0 SHL PUSH1 0x0 MSTORE PUSH1 0x4 PUSH1 0x0 REVERT JUMPDEST CALLVALUE PUSH2 0x41F JUMPI PUSH1 0x20 CALLDATASIZE PUSH1 0x3 NOT ADD SLT PUSH2 0x41F JUMPI PUSH1 0x1 PUSH1 0x1 PUSH1 0xA0 SHL SUB PUSH2 0x2595 PUSH2 0x280C JUMP JUMPDEST AND PUSH1 0x0 MSTORE PUSH1 0xE PUSH1 0x20 MSTORE PUSH1 0x20 PUSH1 0x40 PUSH1 0x0 KECCAK256 SLOAD PUSH1 0x40 MLOAD SWAP1 DUP2 MSTORE RETURN JUMPDEST CALLVALUE PUSH2 0x41F JUMPI PUSH1 0x60 CALLDATASIZE PUSH1 0x3 NOT ADD SLT PUSH2 0x41F JUMPI PUSH2 0x25C7 PUSH2 0x280C JUMP JUMPDEST POP PUSH2 0xEDC PUSH2 0x2822 JUMP JUMPDEST CALLVALUE PUSH2 0x41F JUMPI PUSH1 0x0 CALLDATASIZE PUSH1 0x3 NOT ADD SLT PUSH2 0x41F JUMPI PUSH1 0x20 PUSH1 0x3 SLOAD PUSH1 0x40 MLOAD SWAP1 DUP2 MSTORE RETURN JUMPDEST CALLVALUE PUSH2 0x41F JUMPI PUSH1 0x20 CALLDATASIZE PUSH1 0x3 NOT ADD SLT PUSH2 0x41F JUMPI PUSH2 0x2607 PUSH2 0x280C JUMP JUMPDEST PUSH2 0x260F PUSH2 0x32EE JUMP JUMPDEST PUSH1 0x2 DUP1 SLOAD PUSH1 0x1 PUSH1 0x1 PUSH1 0xA0 SHL SUB NOT AND PUSH1 0x1 PUSH1 0x1 PUSH1 0xA0 SHL SUB SWAP3 SWAP1 SWAP3 AND SWAP2 SWAP1 SWAP2 OR SWAP1 SSTORE STOP JUMPDEST CALLVALUE PUSH2 0x41F JUMPI PUSH1 0x40 CALLDATASIZE PUSH1 0x3 NOT ADD SLT PUSH2 0x41F JUMPI PUSH2 0x264A PUSH2 0x280C JUMP JUMPDEST POP PUSH1 0x40 MLOAD PUSH3 0x461BCD PUSH1 0xE5 SHL DUP2 MSTORE PUSH1 0x20 PUSH1 0x4 DUP3 ADD MSTORE PUSH1 0x17 PUSH1 0x24 DUP3 ADD MSTORE PUSH32 0x417070726F76616C73206E6F7420737570706F72746564000000000000000000 PUSH1 0x44 DUP3 ADD MSTORE PUSH1 0x64 SWAP1 REVERT JUMPDEST CALLVALUE PUSH2 0x41F JUMPI PUSH1 0x40 CALLDATASIZE PUSH1 0x3 NOT ADD SLT PUSH2 0x41F JUMPI PUSH2 0x26A9 PUSH2 0x280C JUMP JUMPDEST PUSH1 0x1 PUSH1 0x1 PUSH1 0xA0 SHL SUB AND PUSH1 0x0 SWAP1 DUP2 MSTORE PUSH1 0xA PUSH1 0x20 MSTORE PUSH1 0x40 SWAP1 KECCAK256 DUP1 SLOAD PUSH1 0x24 CALLDATALOAD SWAP2 SWAP1 DUP3 LT ISZERO PUSH2 0x41F JUMPI PUSH1 0x80 SWAP2 PUSH2 0x26DA SWAP2 PUSH2 0x2945 JUMP JUMPDEST POP SLOAD PUSH1 0xFF PUSH1 0x40 MLOAD SWAP2 PUSH5 0xFFFFFFFFFF DUP2 AND DUP4 MSTORE PUSH1 0x1 DUP1 PUSH1 0xA0 SHL SUB DUP2 PUSH1 0x28 SHR AND PUSH1 0x20 DUP5 ADD MSTORE DUP2 DUP2 PUSH1 0xC8 SHR AND ISZERO ISZERO PUSH1 0x40 DUP5 ADD MSTORE PUSH1 0xD0 SHR AND PUSH1 0x60 DUP3 ADD MSTORE RETURN JUMPDEST CALLVALUE PUSH2 0x41F JUMPI PUSH1 0x0 CALLDATASIZE PUSH1 0x3 NOT ADD SLT PUSH2 0x41F JUMPI PUSH1 0x40 MLOAD PUSH1 0xE0 PUSH2 0x2735 DUP2 DUP4 PUSH2 0x2881 JUMP JUMPDEST DUP1 CALLDATASIZE DUP4 CALLDATACOPY PUSH2 0x2741 PUSH2 0x318F JUMP JUMPDEST SWAP2 PUSH1 0x0 JUMPDEST PUSH1 0x7 DUP2 LT PUSH2 0x275B JUMPI POP PUSH2 0xD41 PUSH1 0x40 MLOAD DUP1 SWAP3 PUSH2 0x28EC JUMP JUMPDEST DUP1 PUSH2 0x2768 PUSH1 0x1 SWAP3 DUP7 PUSH2 0x2A6D JUMP JUMPDEST MLOAD MLOAD PUSH2 0x2774 DUP3 DUP6 PUSH2 0x2A6D JUMP JUMPDEST MSTORE ADD PUSH2 0x2745 JUMP JUMPDEST CALLVALUE PUSH2 0x41F JUMPI PUSH1 0x0 CALLDATASIZE PUSH1 0x3 NOT ADD SLT PUSH2 0x41F JUMPI PUSH2 0x529 PUSH1 0x40 MLOAD PUSH2 0x279D PUSH1 0x40 DUP3 PUSH2 0x2881 JUMP JUMPDEST PUSH1 0xA DUP2 MSTORE PUSH10 0x5374616B656420535949 PUSH1 0xB0 SHL PUSH1 0x20 DUP3 ADD MSTORE PUSH1 0x40 MLOAD SWAP2 DUP3 SWAP2 DUP3 PUSH2 0x28A3 JUMP JUMPDEST CALLVALUE PUSH2 0x41F JUMPI PUSH1 0x40 CALLDATASIZE PUSH1 0x3 NOT ADD SLT PUSH2 0x41F JUMPI PUSH1 0x20 PUSH2 0xA19 PUSH2 0x2806 PUSH2 0x27E1 PUSH2 0x280C JUMP JUMPDEST PUSH2 0x27E9 PUSH2 0x2838 JUMP JUMPDEST PUSH1 0x1 PUSH1 0x1 PUSH1 0xA0 SHL SUB SWAP1 SWAP2 AND PUSH1 0x0 SWAP1 DUP2 MSTORE PUSH1 0xA DUP6 MSTORE PUSH1 0x40 SWAP1 KECCAK256 PUSH2 0x2945 JUMP JUMPDEST POP PUSH2 0x30B7 JUMP JUMPDEST PUSH1 0x4 CALLDATALOAD SWAP1 PUSH1 0x1 PUSH1 0x1 PUSH1 0xA0 SHL SUB DUP3 AND DUP3 SUB PUSH2 0x41F JUMPI JUMP JUMPDEST PUSH1 0x24 CALLDATALOAD SWAP1 PUSH1 0x1 PUSH1 0x1 PUSH1 0xA0 SHL SUB DUP3 AND DUP3 SUB PUSH2 0x41F JUMPI JUMP JUMPDEST PUSH1 0x24 CALLDATALOAD SWAP1 PUSH1 0xFF DUP3 AND DUP3 SUB PUSH2 0x41F JUMPI JUMP JUMPDEST PUSH2 0x140 DUP2 ADD SWAP1 DUP2 LT PUSH8 0xFFFFFFFFFFFFFFFF DUP3 GT OR PUSH2 0x89F JUMPI PUSH1 0x40 MSTORE JUMP JUMPDEST PUSH1 0x40 DUP2 ADD SWAP1 DUP2 LT PUSH8 0xFFFFFFFFFFFFFFFF DUP3 GT OR PUSH2 0x89F JUMPI PUSH1 0x40 MSTORE JUMP JUMPDEST SWAP1 PUSH1 0x1F DUP1 NOT SWAP2 ADD AND DUP2 ADD SWAP1 DUP2 LT PUSH8 0xFFFFFFFFFFFFFFFF DUP3 GT OR PUSH2 0x89F JUMPI PUSH1 0x40 MSTORE JUMP JUMPDEST SWAP2 SWAP1 SWAP2 PUSH1 0x20 DUP2 MSTORE DUP3 MLOAD DUP1 PUSH1 0x20 DUP4 ADD MSTORE PUSH1 0x0 JUMPDEST DUP2 DUP2 LT PUSH2 0x28D6 JUMPI POP PUSH1 0x40 SWAP3 SWAP4 POP PUSH1 0x0 DUP4 DUP3 DUP5 ADD ADD MSTORE PUSH1 0x1F DUP1 NOT SWAP2 ADD AND ADD ADD SWAP1 JUMP JUMPDEST DUP1 PUSH1 0x20 DUP1 SWAP3 DUP8 ADD ADD MLOAD PUSH1 0x40 DUP3 DUP7 ADD ADD MSTORE ADD PUSH2 0x28B5 JUMP JUMPDEST SWAP1 PUSH1 0x0 SWAP1 JUMPDEST PUSH1 0x7 DUP3 LT PUSH2 0x28FE JUMPI POP POP POP JUMP JUMPDEST PUSH1 0x20 DUP1 PUSH1 0x1 SWAP3 DUP6 MLOAD DUP2 MSTORE ADD SWAP4 ADD SWAP2 ADD SWAP1 SWAP2 PUSH2 0x28F1 JUMP JUMPDEST PUSH1 0x9 SLOAD DUP2 LT ISZERO PUSH2 0x292F JUMPI PUSH1 0x9 PUSH1 0x0 MSTORE PUSH1 0x20 PUSH1 0x0 KECCAK256 ADD SWAP1 PUSH1 0x0 SWAP1 JUMP JUMPDEST PUSH4 0x4E487B71 PUSH1 0xE0 SHL PUSH1 0x0 MSTORE PUSH1 0x32 PUSH1 0x4 MSTORE PUSH1 0x24 PUSH1 0x0 REVERT JUMPDEST DUP1 SLOAD DUP3 LT ISZERO PUSH2 0x292F JUMPI PUSH1 0x0 MSTORE PUSH1 0x20 PUSH1 0x0 KECCAK256 ADD SWAP1 PUSH1 0x0 SWAP1 JUMP JUMPDEST CALLVALUE PUSH2 0x41F JUMPI PUSH1 0x0 CALLDATASIZE PUSH1 0x3 NOT ADD SLT PUSH2 0x41F JUMPI PUSH1 0x20 PUSH2 0xA19 PUSH2 0x2C13 JUMP JUMPDEST PUSH2 0x120 DUP1 SWAP2 PUSH5 0xFFFFFFFFFF DUP2 MLOAD AND DUP5 MSTORE PUSH1 0x20 DUP2 ADD MLOAD PUSH1 0x20 DUP6 ADD MSTORE PUSH1 0x40 DUP2 ADD MLOAD PUSH1 0x40 DUP6 ADD MSTORE PUSH1 0x60 DUP2 ADD MLOAD PUSH1 0x60 DUP6 ADD MSTORE PUSH1 0x80 DUP2 ADD MLOAD PUSH1 0x80 DUP6 ADD MSTORE PUSH1 0xA0 DUP2 ADD MLOAD PUSH1 0xA0 DUP6 ADD MSTORE PUSH1 0xC0 DUP2 ADD MLOAD PUSH1 0xC0 DUP6 ADD MSTORE PUSH1 0xE0 DUP2 ADD MLOAD PUSH1 0xE0 DUP6 ADD MSTORE PUSH2 0x100 DUP2 ADD MLOAD PUSH2 0x100 DUP6 ADD MSTORE ADD MLOAD SWAP2 ADD MSTORE JUMP JUMPDEST SWAP1 PUSH1 0x20 DUP1 DUP4 MLOAD SWAP3 DUP4 DUP2 MSTORE ADD SWAP3 ADD SWAP1 PUSH1 0x0 JUMPDEST DUP2 DUP2 LT PUSH2 0x29FF JUMPI POP POP POP SWAP1 JUMP JUMPDEST DUP3 MLOAD PUSH1 0x1 PUSH1 0x1 PUSH1 0xA0 SHL SUB AND DUP5 MSTORE PUSH1 0x20 SWAP4 DUP5 ADD SWAP4 SWAP1 SWAP3 ADD SWAP2 PUSH1 0x1 ADD PUSH2 0x29F2 JUMP JUMPDEST CALLVALUE PUSH2 0x41F JUMPI PUSH1 0x0 CALLDATASIZE PUSH1 0x3 NOT ADD SLT PUSH2 0x41F JUMPI PUSH1 0x20 PUSH2 0xA19 PUSH2 0x2D7D JUMP JUMPDEST SWAP1 PUSH1 0x20 DUP1 DUP4 MLOAD SWAP3 DUP4 DUP2 MSTORE ADD SWAP3 ADD SWAP1 PUSH1 0x0 JUMPDEST DUP2 DUP2 LT PUSH2 0x2A57 JUMPI POP POP POP SWAP1 JUMP JUMPDEST DUP3 MLOAD DUP5 MSTORE PUSH1 0x20 SWAP4 DUP5 ADD SWAP4 SWAP1 SWAP3 ADD SWAP2 PUSH1 0x1 ADD PUSH2 0x2A4A JUMP JUMPDEST SWAP1 PUSH1 0x7 DUP2 LT ISZERO PUSH2 0x292F JUMPI PUSH1 0x5 SHL ADD SWAP1 JUMP JUMPDEST PUSH1 0x40 MLOAD PUSH3 0x461BCD PUSH1 0xE5 SHL DUP2 MSTORE PUSH1 0x20 PUSH1 0x4 DUP3 ADD MSTORE PUSH1 0x17 PUSH1 0x24 DUP3 ADD MSTORE PUSH32 0x5472616E7366657273206E6F7420737570706F72746564000000000000000000 PUSH1 0x44 DUP3 ADD MSTORE PUSH1 0x64 SWAP1 REVERT JUMPDEST SWAP2 SWAP1 DUP3 SUB SWAP2 DUP3 GT PUSH2 0x1746 JUMPI JUMP JUMPDEST DUP2 DUP2 MUL SWAP3 SWAP2 DUP2 ISZERO SWAP2 DUP5 DIV EQ OR ISZERO PUSH2 0x1746 JUMPI JUMP JUMPDEST DUP2 ISZERO PUSH2 0x2AED JUMPI DIV SWAP1 JUMP JUMPDEST PUSH4 0x4E487B71 PUSH1 0xE0 SHL PUSH1 0x0 MSTORE PUSH1 0x12 PUSH1 0x4 MSTORE PUSH1 0x24 PUSH1 0x0 REVERT JUMPDEST SWAP1 DUP2 PUSH1 0x20 SWAP2 SUB SLT PUSH2 0x41F JUMPI MLOAD DUP1 ISZERO ISZERO DUP2 SUB PUSH2 0x41F JUMPI SWAP1 JUMP JUMPDEST PUSH8 0xFFFFFFFFFFFFFFFF DUP2 GT PUSH2 0x89F JUMPI PUSH1 0x5 SHL PUSH1 0x20 ADD SWAP1 JUMP JUMPDEST SWAP1 PUSH1 0x40 MLOAD PUSH2 0x2B40 DUP2 PUSH2 0x2848 JUMP JUMPDEST PUSH2 0x120 PUSH1 0x9 DUP3 SWAP5 PUSH5 0xFFFFFFFFFF DUP2 SLOAD AND DUP5 MSTORE PUSH1 0x1 DUP2 ADD SLOAD PUSH1 0x20 DUP6 ADD MSTORE PUSH1 0x2 DUP2 ADD SLOAD PUSH1 0x40 DUP6 ADD MSTORE PUSH1 0x3 DUP2 ADD SLOAD PUSH1 0x60 DUP6 ADD MSTORE PUSH1 0x4 DUP2 ADD SLOAD PUSH1 0x80 DUP6 ADD MSTORE PUSH1 0x5 DUP2 ADD SLOAD PUSH1 0xA0 DUP6 ADD MSTORE PUSH1 0x6 DUP2 ADD SLOAD PUSH1 0xC0 DUP6 ADD MSTORE PUSH1 0x7 DUP2 ADD SLOAD PUSH1 0xE0 DUP6 ADD MSTORE PUSH1 0x8 DUP2 ADD SLOAD PUSH2 0x100 DUP6 ADD MSTORE ADD SLOAD SWAP2 ADD MSTORE JUMP JUMPDEST SWAP1 DUP2 PUSH1 0x20 SWAP2 SUB SLT PUSH2 0x41F JUMPI MLOAD PUSH1 0x1 PUSH1 0x1 PUSH1 0xA0 SHL SUB DUP2 AND DUP2 SUB PUSH2 0x41F JUMPI SWAP1 JUMP JUMPDEST MLOAD SWAP1 PUSH1 0x1 PUSH1 0x1 PUSH1 0x70 SHL SUB DUP3 AND DUP3 SUB PUSH2 0x41F JUMPI JUMP JUMPDEST SWAP1 DUP2 PUSH1 0x60 SWAP2 SUB SLT PUSH2 0x41F JUMPI PUSH2 0x2BF1 DUP2 PUSH2 0x2BC9 JUMP JUMPDEST SWAP2 PUSH1 0x40 PUSH2 0x2C00 PUSH1 0x20 DUP5 ADD PUSH2 0x2BC9 JUMP JUMPDEST SWAP3 ADD MLOAD PUSH4 0xFFFFFFFF DUP2 AND DUP2 SUB PUSH2 0x41F JUMPI SWAP1 JUMP JUMPDEST PUSH1 0x9 SLOAD SWAP1 DUP2 ISZERO PUSH2 0x2C90 JUMPI PUSH1 0x3B NOT TIMESTAMP ADD SWAP2 TIMESTAMP DUP4 GT PUSH2 0x1746 JUMPI PUSH1 0x3 SLOAD SWAP1 DUP2 SWAP1 PUSH1 0x0 NOT DUP2 ADD SWAP1 DUP2 GT PUSH2 0x1746 JUMPI JUMPDEST PUSH2 0x2C46 DUP2 PUSH2 0x2914 JUMP JUMPDEST POP SLOAD PUSH5 0xFFFFFFFFFF DUP2 AND DUP7 GT ISZERO PUSH2 0x2C67 JUMPI POP POP PUSH2 0x2C64 SWAP3 SWAP4 POP PUSH2 0x2AC3 JUMP JUMPDEST SWAP1 JUMP JUMPDEST PUSH1 0x28 SHR PUSH1 0x1 PUSH1 0x1 PUSH1 0xA0 SHL SUB AND SWAP3 POP DUP1 ISZERO PUSH2 0x2C84 JUMPI PUSH1 0x0 NOT ADD PUSH2 0x2C3D JUMP JUMPDEST POP PUSH2 0x2C64 SWAP3 SWAP4 POP PUSH2 0x2AC3 JUMP JUMPDEST PUSH1 0x0 SWAP2 POP JUMP JUMPDEST SWAP1 PUSH1 0xFF PUSH1 0x0 SWAP3 AND PUSH1 0x3 DUP2 GT PUSH2 0x2CDF JUMPI DUP1 ISZERO PUSH2 0x2CD8 JUMPI PUSH1 0x1 DUP2 EQ PUSH2 0x2CD1 JUMPI PUSH1 0x2 DUP2 EQ PUSH2 0x2CCA JUMPI PUSH1 0x3 EQ PUSH2 0x2CC4 JUMPI JUMP JUMPDEST PUSH1 0xB4 SWAP2 POP JUMP JUMPDEST POP PUSH1 0x5A SWAP2 POP JUMP JUMPDEST POP PUSH1 0x1E SWAP2 POP JUMP JUMPDEST POP PUSH1 0x1 SWAP2 POP JUMP JUMPDEST PUSH1 0x40 MLOAD PUSH3 0x461BCD PUSH1 0xE5 SHL DUP2 MSTORE PUSH1 0x20 PUSH1 0x4 DUP3 ADD MSTORE PUSH1 0x13 PUSH1 0x24 DUP3 ADD MSTORE PUSH19 0x92DCECC2D8D2C840E6E8C2D6CA40D2DCC8CAF PUSH1 0x6B SHL PUSH1 0x44 DUP3 ADD MSTORE PUSH1 0x64 SWAP1 REVERT JUMPDEST SWAP1 PUSH2 0x2D24 DUP3 PUSH2 0x2B1B JUMP JUMPDEST PUSH2 0x2D31 PUSH1 0x40 MLOAD SWAP2 DUP3 PUSH2 0x2881 JUMP JUMPDEST DUP3 DUP2 MSTORE DUP1 SWAP3 PUSH2 0x2D42 PUSH1 0x1F NOT SWAP2 PUSH2 0x2B1B JUMP JUMPDEST ADD SWAP1 PUSH1 0x20 CALLDATASIZE SWAP2 ADD CALLDATACOPY JUMP JUMPDEST DUP1 MLOAD ISZERO PUSH2 0x292F JUMPI PUSH1 0x20 ADD SWAP1 JUMP JUMPDEST DUP1 MLOAD PUSH1 0x1 LT ISZERO PUSH2 0x292F JUMPI PUSH1 0x40 ADD SWAP1 JUMP JUMPDEST DUP1 MLOAD DUP3 LT ISZERO PUSH2 0x292F JUMPI PUSH1 0x20 SWAP2 PUSH1 0x5 SHL ADD ADD SWAP1 JUMP JUMPDEST PUSH2 0x2D85 PUSH2 0x2C13 JUMP JUMPDEST PUSH1 0x1 SLOAD PUSH1 0x40 MLOAD PUSH4 0xD123DE31 PUSH1 0xE0 SHL DUP2 MSTORE SWAP1 PUSH1 0x20 SWAP1 DUP3 SWAP1 PUSH1 0x4 SWAP1 DUP3 SWAP1 PUSH1 0x1 PUSH1 0x1 PUSH1 0xA0 SHL SUB AND GAS STATICCALL SWAP1 DUP2 ISZERO PUSH2 0x413 JUMPI PUSH1 0x0 SWAP2 PUSH2 0x2E05 JUMPI JUMPDEST POP PUSH1 0x1 PUSH1 0x1 PUSH1 0x70 SHL SUB PUSH1 0x64 SWAP2 AND DIV SWAP1 DUP2 DUP2 GT PUSH1 0x0 EQ PUSH2 0x2DDA JUMPI POP POP PUSH1 0x0 SWAP1 JUMP JUMPDEST PUSH2 0x2DE3 SWAP2 PUSH2 0x2AC3 JUMP JUMPDEST PUSH9 0x3635C9ADC5DEA00000 DUP2 LT ISZERO PUSH2 0x2DF7 JUMPI SWAP1 JUMP JUMPDEST POP PUSH9 0x3635C9ADC5DEA00000 SWAP1 JUMP JUMPDEST SWAP1 POP PUSH1 0x20 DUP2 RETURNDATASIZE PUSH1 0x20 GT PUSH2 0x2E42 JUMPI JUMPDEST DUP2 PUSH2 0x2E20 PUSH1 0x20 SWAP4 DUP4 PUSH2 0x2881 JUMP JUMPDEST DUP2 ADD SUB SLT PUSH2 0x41F JUMPI PUSH1 0x1 PUSH1 0x1 PUSH1 0x70 SHL SUB PUSH2 0x2E3B PUSH1 0x64 SWAP3 PUSH2 0x2BC9 JUMP JUMPDEST SWAP2 POP PUSH2 0x2DBA JUMP JUMPDEST RETURNDATASIZE SWAP2 POP PUSH2 0x2E13 JUMP JUMPDEST PUSH1 0xFF PUSH1 0x0 NOT SWAP2 AND ADD SWAP1 PUSH1 0xFF DUP3 GT PUSH2 0x1746 JUMPI JUMP JUMPDEST DUP1 SLOAD DUP3 LT ISZERO PUSH2 0x292F JUMPI PUSH1 0x0 MSTORE PUSH1 0xA PUSH1 0x20 PUSH1 0x0 KECCAK256 SWAP2 MUL ADD SWAP1 PUSH1 0x0 SWAP1 JUMP JUMPDEST PUSH1 0x1 PUSH1 0x1 PUSH1 0xA0 SHL SUB AND PUSH1 0x0 SWAP1 DUP2 MSTORE PUSH1 0xA PUSH1 0x20 MSTORE PUSH1 0x40 DUP2 KECCAK256 DUP1 SLOAD SWAP2 SWAP3 SWAP2 DUP1 PUSH2 0x2E9E JUMPI POP POP JUMP JUMPDEST SWAP1 SWAP3 SWAP1 PUSH1 0x0 NOT DUP2 ADD SWAP1 DUP2 GT PUSH2 0x1746 JUMPI SWAP1 JUMPDEST PUSH2 0x2EB9 DUP3 DUP6 PUSH2 0x2945 JUMP JUMPDEST POP PUSH1 0xFF DUP2 SLOAD PUSH1 0xC8 SHR AND ISZERO PUSH2 0x2EDF JUMPI JUMPDEST POP SWAP1 DUP1 ISZERO PUSH2 0x2EDA JUMPI PUSH1 0x0 NOT ADD SWAP1 PUSH2 0x2EAF JUMP JUMPDEST POP SWAP2 POP JUMP JUMPDEST PUSH2 0x2EE8 SWAP1 PUSH2 0x30B7 JUMP JUMPDEST ADD CODESIZE PUSH2 0x2EC8 JUMP JUMPDEST PUSH1 0x1 PUSH1 0x1 PUSH1 0xA0 SHL SUB AND PUSH1 0x0 SWAP1 DUP2 MSTORE PUSH1 0x4 PUSH1 0x20 MSTORE PUSH1 0x40 SWAP1 KECCAK256 SLOAD PUSH10 0x21E19E0C9BAB2400000 DUP2 LT ISZERO PUSH2 0x2F39 JUMPI PUSH10 0x21E19E0C9BAB2400000 SUB PUSH10 0x21E19E0C9BAB2400000 DUP2 GT PUSH2 0x1746 JUMPI SWAP1 JUMP JUMPDEST POP PUSH1 0x0 SWAP1 JUMP JUMPDEST PUSH1 0x1 PUSH1 0x1 PUSH1 0xA0 SHL SUB AND PUSH1 0x0 DUP2 DUP2 MSTORE PUSH1 0xA PUSH1 0x20 MSTORE PUSH1 0x40 SWAP1 KECCAK256 SLOAD SWAP1 SWAP2 SWAP1 ISZERO PUSH2 0x2FBD JUMPI DUP2 PUSH1 0x0 MSTORE PUSH1 0xA PUSH1 0x20 MSTORE PUSH1 0x40 PUSH1 0x0 KECCAK256 SLOAD DUP2 LT ISZERO PUSH2 0x2FBD JUMPI PUSH2 0x2F8B SWAP2 PUSH1 0x0 MSTORE PUSH1 0xA PUSH1 0x20 MSTORE PUSH1 0x40 PUSH1 0x0 KECCAK256 PUSH2 0x2945 JUMP JUMPDEST POP SLOAD PUSH1 0xFF DUP2 PUSH1 0xC8 SHR AND PUSH2 0x2F39 JUMPI PUSH2 0x2FB8 PUSH5 0xFFFFFFFFFF PUSH2 0x2FB0 PUSH1 0xFF DUP5 PUSH1 0xD0 SHR AND PUSH2 0x2C96 JUMP JUMPDEST SWAP3 AND TIMESTAMP PUSH2 0x2AC3 JUMP JUMPDEST LT ISZERO SWAP1 JUMP JUMPDEST POP POP PUSH1 0x0 SWAP1 JUMP JUMPDEST PUSH1 0xFF AND PUSH1 0xFF DUP2 EQ PUSH2 0x1746 JUMPI PUSH1 0x1 ADD SWAP1 JUMP JUMPDEST SWAP1 PUSH1 0xFF AND SWAP1 PUSH2 0x2FE3 DUP3 PUSH2 0x2D1A JUMP JUMPDEST SWAP1 PUSH1 0x0 SWAP1 PUSH1 0x0 SWAP1 JUMPDEST DUP5 PUSH1 0xFF DUP4 AND LT DUP1 PUSH2 0x30A5 JUMPI JUMPDEST ISZERO PUSH2 0x3051 JUMPI PUSH1 0x1 PUSH1 0x1 PUSH1 0xA0 SHL SUB SWAP1 DUP2 AND PUSH1 0x0 SWAP1 DUP2 MSTORE PUSH1 0xD PUSH1 0x20 MSTORE PUSH1 0x40 SWAP1 KECCAK256 SLOAD AND SWAP1 DUP2 PUSH2 0x302D JUMPI JUMPDEST PUSH2 0x3027 SWAP1 PUSH2 0x2FC4 JUMP JUMPDEST SWAP1 PUSH2 0x2FEB JUMP JUMPDEST SWAP2 PUSH2 0x3049 DUP2 DUP4 PUSH2 0x3043 PUSH1 0xFF PUSH2 0x3027 SWAP6 AND DUP9 PUSH2 0x2D69 JUMP JUMPDEST MSTORE PUSH2 0x2FC4 JUMP JUMPDEST SWAP3 SWAP1 POP PUSH2 0x301E JUMP JUMPDEST POP POP PUSH1 0xFF SWAP2 SWAP3 POP AND PUSH2 0x3062 DUP2 PUSH2 0x2D1A JUMP JUMPDEST SWAP2 PUSH1 0x0 JUMPDEST PUSH1 0xFF DUP2 AND DUP4 DUP2 LT ISZERO PUSH2 0x309E JUMPI PUSH1 0xFF SWAP2 PUSH1 0x1 SWAP2 PUSH2 0x3096 PUSH1 0x1 PUSH1 0x1 PUSH1 0xA0 SHL SUB PUSH2 0x308D DUP4 DUP9 PUSH2 0x2D69 JUMP JUMPDEST MLOAD AND SWAP2 DUP9 PUSH2 0x2D69 JUMP JUMPDEST MSTORE ADD AND PUSH2 0x3066 JUMP JUMPDEST POP POP POP POP SWAP1 JUMP JUMPDEST POP PUSH1 0x1 PUSH1 0x1 PUSH1 0xA0 SHL SUB DUP2 AND ISZERO ISZERO PUSH2 0x2FF7 JUMP JUMPDEST SLOAD PUSH1 0x1 DUP1 PUSH1 0xA0 SHL SUB DUP2 PUSH1 0x28 SHR AND PUSH1 0xFF PUSH5 0xFFFFFFFFFF DUP1 DUP5 AND DUP2 TIMESTAMP AND SUB AND SWAP3 PUSH1 0xD0 SHR AND SWAP2 PUSH5 0xFFFFFFFFFF PUSH2 0x30E9 DUP5 PUSH2 0x2C96 JUMP JUMPDEST AND DUP1 DUP3 LT ISZERO PUSH2 0x3187 JUMPI POP SWAP2 JUMPDEST PUSH5 0xFFFFFFFFFF DUP4 AND SWAP1 DUP2 PUSH2 0x310A JUMPI POP POP SWAP1 POP SWAP1 JUMP JUMPDEST PUSH1 0x4 DUP2 LT ISZERO PUSH2 0x292F JUMPI PUSH1 0x5 ADD SLOAD SWAP1 POP DUP1 PUSH1 0x1 DUP5 AND ISZERO PUSH2 0x3172 JUMPI PUSH5 0x7FFFFFFFFF SWAP1 JUMPDEST SWAP4 PUSH1 0x1 SHR AND SWAP1 DUP2 JUMPDEST PUSH2 0x3143 JUMPI POP POP SWAP1 PUSH2 0x2C64 SWAP2 PUSH2 0x43FC JUMP JUMPDEST DUP1 PUSH2 0x314D SWAP2 PUSH2 0x43FC JUMP JUMPDEST SWAP1 PUSH1 0x1 DUP2 AND PUSH2 0x3161 JUMPI JUMPDEST PUSH1 0x1 SHR SWAP1 DUP2 PUSH2 0x3133 JUMP JUMPDEST SWAP3 DUP2 PUSH2 0x316C SWAP2 PUSH2 0x43FC JUMP JUMPDEST SWAP3 PUSH2 0x3157 JUMP JUMPDEST POP PUSH5 0x7FFFFFFFFF PUSH8 0xDE0B6B3A7640000 PUSH2 0x312B JUMP JUMPDEST SWAP1 POP SWAP2 PUSH2 0x30F5 JUMP JUMPDEST PUSH1 0xE0 PUSH1 0x40 MLOAD PUSH2 0x319E DUP3 DUP3 PUSH2 0x2881 JUMP JUMPDEST PUSH1 0x0 JUMPDEST DUP3 DUP2 LT PUSH2 0x32CB JUMPI POP POP PUSH1 0x40 MLOAD SWAP1 DUP2 ADD DUP2 DUP2 LT PUSH8 0xFFFFFFFFFFFFFFFF DUP3 GT OR PUSH2 0x89F JUMPI PUSH1 0x40 MSTORE PUSH1 0x40 MLOAD PUSH2 0x31D2 DUP2 PUSH2 0x2865 JUMP JUMPDEST PUSH11 0x422CA8B0A00A425000000 DUP2 MSTORE PUSH1 0x23 PUSH1 0x20 DUP3 ADD MSTORE DUP2 MSTORE PUSH1 0x40 MLOAD PUSH2 0x31F5 DUP2 PUSH2 0x2865 JUMP JUMPDEST PUSH11 0x211654585005212800000 DUP2 MSTORE PUSH1 0x1E PUSH1 0x20 DUP3 ADD MSTORE PUSH1 0x20 DUP3 ADD MSTORE PUSH1 0x40 MLOAD PUSH2 0x321B DUP2 PUSH2 0x2865 JUMP JUMPDEST PUSH10 0xD3C21BCECCEDA1000000 DUP2 MSTORE PUSH1 0x19 PUSH1 0x20 DUP3 ADD MSTORE PUSH1 0x40 DUP3 ADD MSTORE PUSH1 0x40 MLOAD PUSH2 0x3240 DUP2 PUSH2 0x2865 JUMP JUMPDEST PUSH10 0x69E10DE76676D0800000 DUP2 MSTORE PUSH1 0x14 PUSH1 0x20 DUP3 ADD MSTORE PUSH1 0x60 DUP3 ADD MSTORE PUSH1 0x40 MLOAD PUSH2 0x3265 DUP2 PUSH2 0x2865 JUMP JUMPDEST PUSH10 0x2A5A058FC295ED000000 DUP2 MSTORE PUSH1 0xF PUSH1 0x20 DUP3 ADD MSTORE PUSH1 0x80 DUP3 ADD MSTORE PUSH1 0x40 MLOAD PUSH2 0x328A DUP2 PUSH2 0x2865 JUMP JUMPDEST PUSH10 0xA968163F0A57B400000 DUP2 MSTORE PUSH1 0xA PUSH1 0x20 DUP3 ADD MSTORE PUSH1 0xA0 DUP3 ADD MSTORE PUSH1 0x40 MLOAD PUSH2 0x32AF DUP2 PUSH2 0x2865 JUMP JUMPDEST PUSH10 0x21E19E0C9BAB2400000 DUP2 MSTORE PUSH1 0x5 PUSH1 0x20 DUP3 ADD MSTORE PUSH1 0xC0 DUP3 ADD MSTORE SWAP1 JUMP JUMPDEST PUSH1 0x20 SWAP1 PUSH1 0x40 MLOAD PUSH2 0x32DA DUP2 PUSH2 0x2865 JUMP JUMPDEST PUSH1 0x0 DUP2 MSTORE PUSH1 0x0 DUP4 DUP3 ADD MSTORE DUP2 DUP5 ADD MSTORE ADD PUSH2 0x31A1 JUMP JUMPDEST PUSH1 0x0 SLOAD PUSH1 0x1 PUSH1 0x1 PUSH1 0xA0 SHL SUB AND CALLER SUB PUSH2 0x3302 JUMPI JUMP JUMPDEST PUSH4 0x118CDAA7 PUSH1 0xE0 SHL PUSH1 0x0 MSTORE CALLER PUSH1 0x4 MSTORE PUSH1 0x24 PUSH1 0x0 REVERT JUMPDEST SWAP2 SWAP3 PUSH1 0x80 SWAP4 PUSH2 0x333C SWAP3 SWAP8 SWAP7 SWAP6 SWAP8 DUP5 MSTORE PUSH1 0x20 DUP5 ADD MSTORE PUSH1 0xA0 PUSH1 0x40 DUP5 ADD MSTORE PUSH1 0xA0 DUP4 ADD SWAP1 PUSH2 0x29E1 JUMP JUMPDEST PUSH1 0x1 PUSH1 0x1 PUSH1 0xA0 SHL SUB SWAP1 SWAP6 AND PUSH1 0x60 DUP3 ADD MSTORE ADD MSTORE JUMP JUMPDEST PUSH1 0x1 SLOAD PUSH1 0x40 MLOAD PUSH4 0x70A08231 PUSH1 0xE0 SHL DUP2 MSTORE ADDRESS PUSH1 0x4 DUP3 ADD MSTORE SWAP3 SWAP2 SWAP1 PUSH1 0x1 PUSH1 0x1 PUSH1 0xA0 SHL SUB AND PUSH1 0x20 DUP5 PUSH1 0x24 DUP2 DUP5 GAS STATICCALL SWAP4 DUP5 ISZERO PUSH2 0x413 JUMPI PUSH1 0x0 SWAP5 PUSH2 0x3842 JUMPI JUMPDEST POP PUSH1 0x40 MLOAD PUSH4 0x70A08231 PUSH1 0xE0 SHL DUP2 MSTORE ADDRESS PUSH1 0x4 DUP3 ADD MSTORE SWAP2 PUSH32 0x0 PUSH1 0x1 PUSH1 0x1 PUSH1 0xA0 SHL SUB AND SWAP2 SWAP1 PUSH1 0x20 DUP5 PUSH1 0x24 DUP2 DUP7 GAS STATICCALL SWAP4 DUP5 ISZERO PUSH2 0x413 JUMPI PUSH1 0x0 SWAP5 PUSH2 0x380E JUMPI JUMPDEST POP PUSH1 0x40 MLOAD SWAP2 PUSH1 0x60 PUSH2 0x33F4 DUP2 DUP6 PUSH2 0x2881 JUMP JUMPDEST PUSH1 0x2 DUP5 MSTORE PUSH1 0x1F NOT DUP2 ADD CALLDATASIZE PUSH1 0x20 DUP7 ADD CALLDATACOPY DUP2 PUSH2 0x340D DUP6 PUSH2 0x2D4C JUMP JUMPDEST MSTORE DUP5 PUSH2 0x3418 DUP6 PUSH2 0x2D59 JUMP JUMPDEST MSTORE PUSH1 0x40 MLOAD PUSH4 0x1ABFA629 PUSH1 0xE0 SHL DUP2 MSTORE PUSH1 0x20 DUP2 PUSH1 0x4 DUP2 DUP7 GAS STATICCALL SWAP1 DUP2 ISZERO PUSH2 0x413 JUMPI PUSH1 0x0 SWAP2 PUSH2 0x37EF JUMPI JUMPDEST POP PUSH1 0x40 MLOAD PUSH4 0x240BC6B PUSH1 0xE2 SHL DUP2 MSTORE SWAP3 SWAP1 PUSH1 0x1 PUSH1 0x1 PUSH1 0xA0 SHL SUB AND DUP3 DUP5 PUSH1 0x4 DUP2 DUP5 GAS STATICCALL PUSH1 0x0 SWAP5 DUP6 SWAP5 DUP3 PUSH2 0x37C7 JUMPI JUMPDEST POP POP PUSH2 0x369C JUMPI POP POP POP POP DUP6 PUSH1 0x1 SHR SWAP1 JUMPDEST DUP2 ISZERO DUP1 PUSH2 0x3693 JUMPI JUMPDEST PUSH2 0x3688 JUMPI JUMPDEST DUP7 PUSH1 0x1 SHR DUP1 DUP4 GT PUSH2 0x367F JUMPI JUMPDEST POP PUSH1 0x0 SWAP2 SWAP3 PUSH2 0x34BA PUSH1 0x40 MLOAD SWAP5 DUP6 SWAP4 DUP5 SWAP4 PUSH4 0x4401EDF7 PUSH1 0xE1 SHL DUP6 MSTORE TIMESTAMP SWAP3 ADDRESS SWAP3 PUSH1 0x4 DUP8 ADD PUSH2 0x3317 JUMP JUMPDEST SUB DUP2 DUP4 PUSH32 0x0 PUSH1 0x1 PUSH1 0x1 PUSH1 0xA0 SHL SUB AND GAS CALL SWAP1 DUP2 ISZERO PUSH2 0x413 JUMPI PUSH1 0x0 SWAP2 PUSH2 0x35E1 JUMPI JUMPDEST POP POP PUSH1 0x1 SLOAD PUSH1 0x40 MLOAD PUSH4 0x70A08231 PUSH1 0xE0 SHL DUP2 MSTORE ADDRESS PUSH1 0x4 DUP3 ADD MSTORE SWAP2 SWAP1 PUSH1 0x20 SWAP1 DUP4 SWAP1 PUSH1 0x24 SWAP1 DUP3 SWAP1 PUSH1 0x1 PUSH1 0x1 PUSH1 0xA0 SHL SUB AND GAS STATICCALL SWAP2 DUP3 ISZERO PUSH2 0x413 JUMPI PUSH1 0x0 SWAP3 PUSH2 0x35AC JUMPI JUMPDEST POP PUSH1 0x20 PUSH1 0x24 SWAP2 PUSH1 0x40 MLOAD SWAP3 DUP4 DUP1 SWAP3 PUSH4 0x70A08231 PUSH1 0xE0 SHL DUP3 MSTORE ADDRESS PUSH1 0x4 DUP4 ADD MSTORE GAS STATICCALL SWAP1 DUP2 ISZERO PUSH2 0x413 JUMPI PUSH1 0x0 SWAP2 PUSH2 0x3578 JUMPI JUMPDEST POP PUSH2 0x2C64 SWAP3 PUSH2 0x3572 SWAP2 PUSH2 0x2AC3 JUMP JUMPDEST SWAP4 PUSH2 0x2AC3 JUMP JUMPDEST SWAP1 POP PUSH1 0x20 DUP2 RETURNDATASIZE PUSH1 0x20 GT PUSH2 0x35A4 JUMPI JUMPDEST DUP2 PUSH2 0x3593 PUSH1 0x20 SWAP4 DUP4 PUSH2 0x2881 JUMP JUMPDEST DUP2 ADD SUB SLT PUSH2 0x41F JUMPI MLOAD PUSH2 0x2C64 PUSH2 0x3564 JUMP JUMPDEST RETURNDATASIZE SWAP2 POP PUSH2 0x3586 JUMP JUMPDEST SWAP1 SWAP2 POP PUSH1 0x20 DUP2 RETURNDATASIZE PUSH1 0x20 GT PUSH2 0x35D9 JUMPI JUMPDEST DUP2 PUSH2 0x35C8 PUSH1 0x20 SWAP4 DUP4 PUSH2 0x2881 JUMP JUMPDEST DUP2 ADD SUB SLT PUSH2 0x41F JUMPI MLOAD SWAP1 PUSH1 0x20 PUSH2 0x3536 JUMP JUMPDEST RETURNDATASIZE SWAP2 POP PUSH2 0x35BB JUMP JUMPDEST RETURNDATASIZE DUP1 DUP4 DUP4 RETURNDATACOPY PUSH2 0x35F0 DUP2 DUP4 PUSH2 0x2881 JUMP JUMPDEST DUP2 ADD SWAP1 PUSH1 0x20 DUP2 DUP4 SUB SLT PUSH2 0x3677 JUMPI DUP1 MLOAD SWAP1 PUSH8 0xFFFFFFFFFFFFFFFF DUP3 GT PUSH2 0x367B JUMPI ADD DUP2 PUSH1 0x1F DUP3 ADD SLT ISZERO PUSH2 0x3677 JUMPI DUP1 MLOAD SWAP1 PUSH2 0x3627 DUP3 PUSH2 0x2B1B JUMP JUMPDEST SWAP4 PUSH2 0x3635 PUSH1 0x40 MLOAD SWAP6 DUP7 PUSH2 0x2881 JUMP JUMPDEST DUP3 DUP6 MSTORE PUSH1 0x20 DUP1 DUP7 ADD SWAP4 PUSH1 0x5 SHL DUP4 ADD ADD SWAP4 DUP5 GT PUSH2 0x3674 JUMPI POP PUSH1 0x20 ADD SWAP1 JUMPDEST DUP3 DUP3 LT PUSH2 0x3664 JUMPI POP DUP4 SWAP3 SWAP2 POP PUSH2 0x34F8 SWAP1 POP JUMP JUMPDEST DUP2 MLOAD DUP2 MSTORE PUSH1 0x20 SWAP2 DUP3 ADD SWAP2 ADD PUSH2 0x3651 JUMP JUMPDEST DUP1 REVERT JUMPDEST DUP3 DUP1 REVERT JUMPDEST DUP4 DUP1 REVERT JUMPDEST SWAP2 POP PUSH1 0x0 PUSH2 0x3493 JUMP JUMPDEST PUSH1 0xA DUP8 DIV SWAP2 POP PUSH2 0x3487 JUMP JUMPDEST POP DUP7 ISZERO ISZERO PUSH2 0x3482 JUMP JUMPDEST PUSH1 0x20 PUSH1 0x4 SWAP2 PUSH1 0x40 MLOAD SWAP3 DUP4 DUP1 SWAP3 PUSH4 0xDFE1681 PUSH1 0xE0 SHL DUP3 MSTORE GAS STATICCALL SWAP1 DUP2 ISZERO PUSH2 0x413 JUMPI PUSH1 0x0 SWAP2 PUSH2 0x37A8 JUMPI JUMPDEST POP PUSH1 0x1 PUSH1 0x1 PUSH1 0xA0 SHL SUB AND SUB PUSH2 0x3799 JUMPI PUSH1 0x1 PUSH1 0x1 PUSH1 0x70 SHL SUB SWAP1 JUMPDEST AND SWAP1 DUP2 ISZERO ISZERO DUP1 PUSH2 0x3787 JUMPI JUMPDEST ISZERO PUSH2 0x377B JUMPI PUSH1 0x1 PUSH1 0x1 PUSH1 0x70 SHL SUB DUP2 AND SWAP1 PUSH1 0x1 SHR PUSH14 0x7FFFFFFFFFFFFFFFFFFFFFFFFFFF AND DUP1 DUP5 GT ISZERO PUSH2 0x3773 JUMPI SWAP2 JUMPDEST DUP2 DUP4 LT ISZERO PUSH2 0x3766 JUMPI DUP3 PUSH2 0x372D PUSH2 0x3733 SWAP3 PUSH2 0x3739 SWAP6 PUSH2 0x2AD0 JUMP JUMPDEST SWAP3 PUSH2 0x2AC3 JUMP JUMPDEST SWAP1 PUSH2 0x2AE3 JUMP JUMPDEST PUSH1 0x96 DUP2 MUL SWAP1 DUP1 DUP3 DIV PUSH1 0x96 EQ SWAP1 ISZERO OR ISZERO PUSH2 0x1746 JUMPI PUSH1 0x64 SWAP1 DIV DUP7 DUP2 LT ISZERO PUSH2 0x375F JUMPI JUMPDEST SWAP1 PUSH2 0x347A JUMP JUMPDEST POP DUP6 PUSH2 0x3759 JUMP JUMPDEST POP POP POP DUP6 PUSH1 0x2 SHR SWAP1 PUSH2 0x347A JUMP JUMPDEST POP DUP3 SWAP2 PUSH2 0x3714 JUMP JUMPDEST POP POP DUP6 PUSH1 0x1 SHR SWAP1 PUSH2 0x347A JUMP JUMPDEST POP PUSH1 0x1 PUSH1 0x1 PUSH1 0x70 SHL SUB DUP2 AND ISZERO ISZERO PUSH2 0x36E7 JUMP JUMPDEST SWAP1 PUSH1 0x1 PUSH1 0x1 PUSH1 0x70 SHL SUB SWAP1 PUSH2 0x36DC JUMP JUMPDEST PUSH2 0x37C1 SWAP2 POP PUSH1 0x20 RETURNDATASIZE PUSH1 0x20 GT PUSH2 0x485 JUMPI PUSH2 0x473 DUP2 DUP4 PUSH2 0x2881 JUMP JUMPDEST CODESIZE PUSH2 0x36C3 JUMP JUMPDEST DUP1 SWAP2 SWAP3 SWAP7 POP PUSH2 0x37E3 SWAP4 SWAP6 POP SWAP1 RETURNDATASIZE LT PUSH2 0x1E38 JUMPI PUSH2 0x1E28 DUP2 DUP4 PUSH2 0x2881 JUMP JUMPDEST POP SWAP3 SWAP1 SWAP3 SWAP4 CODESIZE DUP1 PUSH2 0x346A JUMP JUMPDEST PUSH2 0x3808 SWAP2 POP PUSH1 0x20 RETURNDATASIZE PUSH1 0x20 GT PUSH2 0x485 JUMPI PUSH2 0x473 DUP2 DUP4 PUSH2 0x2881 JUMP JUMPDEST CODESIZE PUSH2 0x343E JUMP JUMPDEST SWAP1 SWAP4 POP PUSH1 0x20 DUP2 RETURNDATASIZE PUSH1 0x20 GT PUSH2 0x383A JUMPI JUMPDEST DUP2 PUSH2 0x382A PUSH1 0x20 SWAP4 DUP4 PUSH2 0x2881 JUMP JUMPDEST DUP2 ADD SUB SLT PUSH2 0x41F JUMPI MLOAD SWAP3 CODESIZE PUSH2 0x33E3 JUMP JUMPDEST RETURNDATASIZE SWAP2 POP PUSH2 0x381D JUMP JUMPDEST SWAP1 SWAP4 PUSH1 0x20 DUP3 RETURNDATASIZE PUSH1 0x20 GT PUSH2 0x386E JUMPI JUMPDEST DUP2 PUSH2 0x385D PUSH1 0x20 SWAP4 DUP4 PUSH2 0x2881 JUMP JUMPDEST DUP2 ADD SUB SLT PUSH2 0x3674 JUMPI POP MLOAD SWAP3 CODESIZE PUSH2 0x338A JUMP JUMPDEST RETURNDATASIZE SWAP2 POP PUSH2 0x3850 JUMP JUMPDEST SWAP1 PUSH1 0x0 SWAP1 JUMPDEST PUSH1 0x7 DUP3 LT PUSH2 0x3888 JUMPI POP POP POP JUMP JUMPDEST DUP3 MLOAD PUSH1 0x1 PUSH1 0x1 PUSH1 0xA0 SHL SUB AND DUP2 MSTORE PUSH1 0x20 SWAP3 DUP4 ADD SWAP3 PUSH1 0x1 SWAP3 SWAP1 SWAP3 ADD SWAP2 ADD PUSH2 0x387B JUMP JUMPDEST DUP1 MLOAD PUSH1 0x64 PUSH1 0x23 DUP5 MUL DIV SWAP4 SWAP3 SWAP1 ISZERO PUSH2 0x3E2D JUMPI DUP2 MLOAD SWAP3 PUSH2 0x38C5 DUP5 PUSH2 0x2B1B JUMP JUMPDEST SWAP4 PUSH2 0x38D3 PUSH1 0x40 MLOAD SWAP6 DUP7 PUSH2 0x2881 JUMP JUMPDEST DUP1 DUP6 MSTORE PUSH2 0x38E2 PUSH1 0x1F NOT SWAP2 PUSH2 0x2B1B JUMP JUMPDEST ADD CALLDATASIZE PUSH1 0x20 DUP7 ADD CALLDATACOPY PUSH1 0x0 JUMPDEST DUP4 MLOAD DUP2 LT ISZERO PUSH2 0x392A JUMPI PUSH1 0x1 SWAP1 PUSH2 0x3914 PUSH1 0x1 PUSH1 0x1 PUSH1 0xA0 SHL SUB PUSH2 0x390D DUP4 DUP9 PUSH2 0x2D69 JUMP JUMPDEST MLOAD AND PUSH2 0x425D JUMP JUMPDEST PUSH1 0xFF PUSH2 0x3920 DUP4 DUP10 PUSH2 0x2D69 JUMP JUMPDEST SWAP2 AND SWAP1 MSTORE ADD PUSH2 0x38EC JUMP JUMPDEST POP SWAP1 SWAP4 PUSH1 0x0 SWAP1 PUSH1 0xE0 SWAP6 PUSH1 0x40 MLOAD SWAP3 PUSH2 0x3941 DUP9 DUP6 PUSH2 0x2881 JUMP JUMPDEST DUP8 CALLDATASIZE DUP6 CALLDATACOPY PUSH1 0x40 MLOAD SWAP8 PUSH2 0x3953 DUP2 DUP11 PUSH2 0x2881 JUMP JUMPDEST CALLDATASIZE DUP10 CALLDATACOPY SWAP6 PUSH1 0x0 SWAP6 DUP7 JUMPDEST PUSH1 0xFF DUP2 AND DUP11 PUSH1 0x7 DUP3 LT ISZERO PUSH2 0x398E JUMPI SWAP2 DUP10 PUSH2 0x3986 DUP4 PUSH1 0xFF SWAP6 DUP4 PUSH2 0x3980 PUSH1 0x1 SWAP8 DUP15 PUSH2 0x2A6D JUMP JUMPDEST MSTORE PUSH2 0x2A6D JUMP JUMPDEST MSTORE ADD AND PUSH2 0x395C JUMP JUMPDEST POP POP POP SWAP3 SWAP7 SWAP2 SWAP6 SWAP1 SWAP4 SWAP5 PUSH2 0x100 SWAP5 PUSH1 0x40 MLOAD SWAP6 PUSH2 0x39AA DUP2 DUP9 PUSH2 0x2881 JUMP JUMPDEST CALLDATASIZE DUP8 CALLDATACOPY DUP3 SWAP2 DUP3 JUMPDEST DUP7 MLOAD DUP5 LT ISZERO PUSH2 0x3CC8 JUMPI PUSH1 0xFF PUSH2 0x39C6 DUP6 DUP6 PUSH2 0x2D69 JUMP JUMPDEST MLOAD AND DUP1 ISZERO ISZERO DUP1 DUP1 PUSH2 0x3CB6 JUMPI JUMPDEST DUP1 PUSH2 0x3C8F JUMPI JUMPDEST ISZERO PUSH2 0x3BC4 JUMPI POP DUP13 PUSH2 0x39E8 DUP3 PUSH2 0x4494 JUMP JUMPDEST SWAP3 PUSH1 0x0 DUP2 DUP6 GT ISZERO PUSH2 0x3BBE JUMPI POP PUSH2 0x39FE DUP2 DUP6 PUSH2 0x2AC3 JUMP JUMPDEST SWAP1 JUMPDEST DUP14 DUP3 PUSH2 0x3A23 JUMPI JUMPDEST POP POP POP POP SWAP1 PUSH1 0x1 PUSH2 0x3A19 DUP2 SWAP4 DUP12 PUSH2 0x43EB JUMP JUMPDEST MSTORE SWAP4 JUMPDEST ADD SWAP3 PUSH2 0x39B1 JUMP JUMPDEST PUSH2 0x3A2F DUP4 PUSH1 0x64 SWAP3 PUSH2 0x2AD0 JUMP JUMPDEST DIV SWAP3 DUP12 DUP5 PUSH2 0x3A41 JUMPI JUMPDEST POP SWAP3 POP DUP14 PUSH2 0x3A07 JUMP JUMPDEST SWAP1 PUSH1 0x20 DUP6 PUSH2 0x3A91 SWAP7 SWAP13 SWAP4 PUSH2 0x3A5F DUP14 PUSH1 0x1 DUP1 PUSH1 0xA0 SWAP14 SWAP13 SWAP14 SHL SUB SWAP3 PUSH2 0x2D69 JUMP JUMPDEST MLOAD PUSH1 0x40 MLOAD PUSH4 0xA9059CBB PUSH1 0xE0 SHL DUP2 MSTORE SWAP2 AND PUSH1 0x1 PUSH1 0x1 PUSH1 0xA0 SHL SUB AND PUSH1 0x4 DUP3 ADD MSTORE PUSH1 0x24 DUP2 ADD SWAP2 SWAP1 SWAP2 MSTORE SWAP6 DUP7 SWAP1 DUP2 SWAP1 PUSH1 0x44 DUP3 ADD SWAP1 JUMP JUMPDEST SUB DUP2 PUSH1 0x0 PUSH32 0x0 PUSH1 0x1 PUSH1 0x1 PUSH1 0xA0 SHL SUB AND GAS CALL SWAP1 DUP2 ISZERO PUSH2 0x413 JUMPI DUP16 DUP12 DUP16 SWAP15 DUP15 PUSH2 0x3AE0 SWAP2 DUP13 SWAP11 DUP3 SWAP8 PUSH2 0x3BA2 JUMPI JUMPDEST POP PUSH2 0x3F7D JUMP JUMPDEST SWAP15 PUSH1 0x1 PUSH1 0x1 PUSH1 0xA0 SHL SUB SWAP2 PUSH2 0x3AF3 SWAP2 PUSH2 0x2D69 JUMP JUMPDEST MLOAD AND SWAP1 PUSH2 0x3AFF DUP9 PUSH2 0x2E4A JUMP JUMPDEST PUSH1 0xFF AND PUSH2 0x3B0B SWAP2 PUSH2 0x2A6D JUMP JUMPDEST MSTORE PUSH2 0x3B15 DUP7 PUSH2 0x2E4A JUMP JUMPDEST PUSH1 0xFF AND PUSH2 0x3B21 SWAP2 PUSH2 0x2A6D JUMP JUMPDEST MSTORE PUSH2 0x3B2B DUP5 PUSH2 0x2E4A JUMP JUMPDEST PUSH1 0x1 PUSH1 0xFF SWAP2 DUP3 AND SHL AND OR SWAP9 PUSH1 0x1 PUSH1 0x1 PUSH1 0xA0 SHL SUB PUSH2 0x3B48 DUP11 DUP15 PUSH2 0x2D69 JUMP JUMPDEST MLOAD AND SWAP3 DUP6 PUSH1 0x40 MLOAD SWAP4 DUP5 SWAP4 PUSH2 0x3B73 SWAP4 DUP6 SWAP1 SWAP5 SWAP4 SWAP3 PUSH1 0x60 SWAP3 PUSH1 0x80 DUP4 ADD SWAP7 DUP4 MSTORE PUSH1 0x20 DUP4 ADD MSTORE PUSH1 0x40 DUP3 ADD MSTORE ADD MSTORE JUMP JUMPDEST SUB PUSH32 0x1A734153C0601A74F1DC5664552F5332BDBFF9D65F915AA93203670B315F2BC SWAP2 LOG3 SWAP1 CODESIZE DUP1 DUP1 DUP16 DUP12 PUSH2 0x3A38 JUMP JUMPDEST PUSH2 0x3BB9 SWAP1 PUSH1 0x20 RETURNDATASIZE DUP2 GT PUSH2 0x44A JUMPI PUSH2 0x43D DUP2 DUP4 PUSH2 0x2881 JUMP JUMPDEST PUSH2 0x3ADA JUMP JUMPDEST SWAP1 PUSH2 0x3A00 JUMP JUMPDEST SWAP1 DUP2 PUSH1 0x1 SWAP4 SWAP7 SWAP3 SWAP1 PUSH2 0x3C7D JUMPI JUMPDEST DUP1 PUSH2 0x3C52 JUMPI JUMPDEST PUSH2 0x3BE2 JUMPI JUMPDEST POP PUSH2 0x3A1C JUMP JUMPDEST DUP3 DUP1 PUSH1 0xA0 SHL SUB PUSH2 0x3BF2 DUP4 DUP12 PUSH2 0x2D69 JUMP JUMPDEST MLOAD AND PUSH32 0x7A3D04064BF52FD85B24E9B77FF67EA0509733B9D322A1E5DB9015B88A5777F0 PUSH1 0x60 PUSH1 0x40 MLOAD PUSH1 0x20 DUP2 MSTORE PUSH1 0x1C PUSH1 0x20 DUP3 ADD MSTORE PUSH32 0x494E53554646494349454E545F50524541434845525F53544154555300000000 PUSH1 0x40 DUP3 ADD MSTORE LOG3 CODESIZE PUSH2 0x3BDC JUMP JUMPDEST POP PUSH9 0xAD78EBC5AC6200000 PUSH2 0x3C77 DUP5 DUP1 PUSH1 0xA0 SHL SUB PUSH2 0x3C70 DUP6 DUP14 PUSH2 0x2D69 JUMP JUMPDEST MLOAD AND PUSH2 0x2E79 JUMP JUMPDEST LT PUSH2 0x3BD7 JUMP JUMPDEST POP PUSH2 0x3C88 DUP2 DUP12 PUSH2 0x43EB JUMP JUMPDEST MLOAD ISZERO PUSH2 0x3BD1 JUMP JUMPDEST POP PUSH9 0xAD78EBC5AC6200000 PUSH2 0x3CAF PUSH1 0x1 PUSH1 0x1 PUSH1 0xA0 SHL SUB PUSH2 0x3C70 DUP10 DUP14 PUSH2 0x2D69 JUMP JUMPDEST LT ISZERO PUSH2 0x39D8 JUMP JUMPDEST POP PUSH2 0x3CC1 DUP3 DUP12 PUSH2 0x43EB JUMP JUMPDEST MLOAD ISZERO PUSH2 0x39D2 JUMP JUMPDEST POP SWAP10 SWAP5 POP POP POP SWAP3 POP SWAP4 SWAP3 SWAP4 PUSH1 0x0 SWAP1 DUP7 DUP2 LT PUSH2 0x3D46 JUMPI JUMPDEST PUSH1 0xFF SWAP3 PUSH2 0x3D30 PUSH32 0x20C7869A18417805C9820E55E867D39F97AD72DAC389EE573EBE84A9C4E0A760 SWAP8 PUSH2 0x260 SWAP8 SWAP7 SWAP5 PUSH2 0x3D3B SWAP5 PUSH1 0x40 MLOAD SWAP9 DUP10 MSTORE DUP12 PUSH1 0x20 DUP11 ADD MSTORE PUSH1 0x40 DUP10 ADD MSTORE PUSH1 0x60 DUP9 ADD MSTORE PUSH1 0x80 DUP8 ADD SWAP1 PUSH2 0x3876 JUMP JUMPDEST PUSH2 0x160 DUP6 ADD SWAP1 PUSH2 0x28EC JUMP JUMPDEST AND PUSH2 0x240 DUP3 ADD MSTORE LOG1 SWAP1 JUMP JUMPDEST SWAP2 SWAP4 SWAP3 SWAP1 POP PUSH2 0x3D91 PUSH2 0x3D58 DUP4 DUP9 PUSH2 0x2AC3 JUMP JUMPDEST PUSH1 0x2 SLOAD PUSH1 0x40 MLOAD PUSH4 0xA9059CBB PUSH1 0xE0 SHL DUP2 MSTORE PUSH1 0x1 PUSH1 0x1 PUSH1 0xA0 SHL SUB SWAP1 SWAP2 AND PUSH1 0x4 DUP3 ADD MSTORE PUSH1 0x24 DUP2 ADD DUP3 SWAP1 MSTORE SWAP1 SWAP6 SWAP1 SWAP2 PUSH1 0x20 SWAP1 DUP4 SWAP1 DUP2 SWAP1 PUSH1 0x44 DUP3 ADD SWAP1 JUMP JUMPDEST SUB DUP2 PUSH1 0x0 PUSH32 0x0 PUSH1 0x1 PUSH1 0x1 PUSH1 0xA0 SHL SUB AND GAS CALL DUP1 ISZERO PUSH2 0x413 JUMPI PUSH32 0x20C7869A18417805C9820E55E867D39F97AD72DAC389EE573EBE84A9C4E0A760 SWAP8 PUSH2 0x260 SWAP8 PUSH1 0xFF SWAP7 PUSH2 0x3D3B SWAP6 PUSH2 0x3D30 SWAP5 PUSH2 0x3E0E JUMPI JUMPDEST POP SWAP5 POP SWAP5 SWAP7 SWAP8 POP SWAP8 POP POP SWAP3 POP PUSH2 0x3CDE JUMP JUMPDEST PUSH2 0x3E26 SWAP1 PUSH1 0x20 RETURNDATASIZE PUSH1 0x20 GT PUSH2 0x44A JUMPI PUSH2 0x43D DUP2 DUP4 PUSH2 0x2881 JUMP JUMPDEST POP CODESIZE PUSH2 0x3DFD JUMP JUMPDEST PUSH1 0x2 SLOAD PUSH1 0x40 MLOAD PUSH4 0xA9059CBB PUSH1 0xE0 SHL DUP2 MSTORE PUSH1 0x1 PUSH1 0x1 PUSH1 0xA0 SHL SUB SWAP1 SWAP2 AND PUSH1 0x4 DUP3 ADD MSTORE PUSH1 0x24 DUP2 ADD DUP6 SWAP1 MSTORE SWAP1 SWAP3 SWAP2 POP PUSH1 0x20 DUP2 DUP1 PUSH1 0x44 DUP2 ADD SUB DUP2 PUSH1 0x0 PUSH32 0x0 PUSH1 0x1 PUSH1 0x1 PUSH1 0xA0 SHL SUB AND GAS CALL DUP1 ISZERO PUSH2 0x413 JUMPI PUSH2 0x3F60 JUMPI JUMPDEST POP PUSH1 0x40 MLOAD PUSH1 0xE0 SWAP2 PUSH2 0x3EAC DUP4 DUP4 PUSH2 0x2881 JUMP JUMPDEST DUP3 CALLDATASIZE DUP4 CALLDATACOPY PUSH1 0x40 MLOAD SWAP3 PUSH2 0x3EBE DUP2 DUP6 PUSH2 0x2881 JUMP JUMPDEST CALLDATASIZE DUP5 CALLDATACOPY PUSH1 0x0 JUMPDEST PUSH1 0xFF DUP2 AND PUSH1 0x7 DUP2 LT ISZERO PUSH2 0x3EF6 JUMPI PUSH1 0xFF SWAP2 PUSH1 0x0 PUSH2 0x3EEE DUP4 DUP3 PUSH2 0x3EE7 PUSH1 0x1 SWAP7 DUP11 PUSH2 0x2A6D JUMP JUMPDEST MSTORE DUP9 PUSH2 0x2A6D JUMP JUMPDEST MSTORE ADD AND PUSH2 0x3EC4 JUMP JUMPDEST POP POP SWAP4 SWAP3 PUSH2 0x3F54 PUSH32 0x20C7869A18417805C9820E55E867D39F97AD72DAC389EE573EBE84A9C4E0A760 SWAP4 PUSH2 0x3F49 PUSH2 0x260 SWAP5 PUSH1 0x40 MLOAD SWAP5 DUP6 MSTORE DUP8 PUSH1 0x20 DUP7 ADD MSTORE PUSH1 0x0 PUSH1 0x40 DUP7 ADD MSTORE DUP8 PUSH1 0x60 DUP7 ADD MSTORE PUSH1 0x80 DUP6 ADD SWAP1 PUSH2 0x3876 JUMP JUMPDEST PUSH2 0x160 DUP4 ADD SWAP1 PUSH2 0x28EC JUMP JUMPDEST PUSH1 0x0 PUSH2 0x240 DUP3 ADD MSTORE LOG1 SWAP1 JUMP JUMPDEST PUSH2 0x3F78 SWAP1 PUSH1 0x20 RETURNDATASIZE PUSH1 0x20 GT PUSH2 0x44A JUMPI PUSH2 0x43D DUP2 DUP4 PUSH2 0x2881 JUMP JUMPDEST PUSH2 0x3E9B JUMP JUMPDEST SWAP2 SWAP1 DUP3 ADD DUP1 SWAP3 GT PUSH2 0x1746 JUMPI JUMP JUMPDEST PUSH1 0x1 SLOAD PUSH1 0x40 MLOAD PUSH4 0x1ABFA629 PUSH1 0xE0 SHL DUP2 MSTORE SWAP2 SWAP3 SWAP2 SWAP1 PUSH1 0x20 SWAP1 DUP3 SWAP1 PUSH1 0x4 SWAP1 DUP3 SWAP1 PUSH1 0x1 PUSH1 0x1 PUSH1 0xA0 SHL SUB AND GAS STATICCALL SWAP1 DUP2 ISZERO PUSH2 0x413 JUMPI PUSH1 0x0 SWAP2 PUSH2 0x423E JUMPI JUMPDEST POP PUSH1 0x40 MLOAD PUSH4 0x240BC6B PUSH1 0xE2 SHL DUP2 MSTORE PUSH1 0x1 PUSH1 0x1 PUSH1 0xA0 SHL SUB SWAP2 SWAP1 SWAP2 AND SWAP3 PUSH1 0x60 DUP3 PUSH1 0x4 DUP2 DUP8 GAS STATICCALL SWAP2 DUP3 ISZERO PUSH2 0x413 JUMPI PUSH1 0x0 SWAP1 PUSH1 0x0 SWAP4 PUSH2 0x4219 JUMPI JUMPDEST POP PUSH1 0x4 PUSH1 0x20 PUSH1 0x0 SWAP7 PUSH1 0x40 MLOAD SWAP3 DUP4 DUP1 SWAP3 PUSH4 0xDFE1681 PUSH1 0xE0 SHL DUP3 MSTORE GAS STATICCALL SWAP1 DUP2 ISZERO PUSH2 0x420E JUMPI PUSH2 0x4097 SWAP6 SWAP7 SWAP2 PUSH2 0x41EF JUMPI JUMPDEST POP PUSH1 0x1 PUSH1 0x1 PUSH1 0xA0 SHL SUB SWAP1 DUP2 AND PUSH32 0x0 SWAP1 SWAP2 AND SUB PUSH2 0x41E7 JUMPI PUSH1 0x20 SWAP1 SWAP3 JUMPDEST PUSH1 0x40 MLOAD PUSH4 0x1535435 PUSH1 0xE2 SHL DUP2 MSTORE PUSH1 0x4 DUP2 ADD DUP5 SWAP1 MSTORE PUSH1 0x1 PUSH1 0x1 PUSH1 0x70 SHL SUB DUP1 DUP7 AND PUSH1 0x24 DUP4 ADD MSTORE SWAP1 SWAP2 AND PUSH1 0x44 DUP3 ADD MSTORE SWAP4 DUP5 SWAP1 DUP2 SWAP1 PUSH1 0x64 DUP3 ADD SWAP1 JUMP JUMPDEST SUB DUP2 PUSH32 0x0 PUSH1 0x1 PUSH1 0x1 PUSH1 0xA0 SHL SUB AND GAS STATICCALL SWAP3 DUP4 ISZERO PUSH2 0x413 JUMPI PUSH1 0x0 SWAP4 PUSH2 0x41B3 JUMPI JUMPDEST POP PUSH2 0x2710 DUP2 MUL SWAP1 DUP1 DUP3 DIV PUSH2 0x2710 EQ SWAP1 ISZERO OR ISZERO PUSH2 0x1746 JUMPI PUSH1 0x1 PUSH1 0x1 PUSH1 0x70 SHL SUB PUSH2 0x40FD SWAP3 AND SWAP1 PUSH2 0x2AE3 JUMP JUMPDEST PUSH1 0x0 SWAP1 PUSH1 0xC8 DUP2 GT PUSH2 0x4150 JUMPI POP POP PUSH2 0x5DC JUMPDEST PUSH2 0x25E4 DUP3 MUL SWAP2 DUP1 DUP4 DIV PUSH2 0x25E4 EQ SWAP1 ISZERO OR ISZERO PUSH2 0x1746 JUMPI PUSH2 0x2710 SUB SWAP1 PUSH2 0x2710 DUP3 GT PUSH2 0x1746 JUMPI PUSH2 0x2710 SWAP2 DUP3 PUSH2 0x4140 SWAP3 DIV PUSH2 0x2AD0 JUMP JUMPDEST DIV SWAP1 DUP2 ISZERO PUSH2 0x414A JUMPI JUMP JUMPDEST PUSH1 0x1 SWAP2 POP JUMP JUMPDEST PUSH2 0x5DC DUP2 MUL SWAP1 DUP1 DUP3 DIV PUSH2 0x5DC EQ SWAP1 ISZERO OR ISZERO PUSH2 0x419F JUMPI PUSH1 0xC8 SWAP1 DIV PUSH2 0x5DC ADD SWAP1 DUP2 PUSH2 0x5DC GT PUSH2 0x418B JUMPI POP PUSH2 0x7D0 DUP2 GT ISZERO PUSH2 0x410E JUMPI POP PUSH2 0x7D0 PUSH2 0x410E JUMP JUMPDEST PUSH4 0x4E487B71 PUSH1 0xE0 SHL DUP2 MSTORE PUSH1 0x11 PUSH1 0x4 MSTORE PUSH1 0x24 SWAP1 REVERT JUMPDEST PUSH4 0x4E487B71 PUSH1 0xE0 SHL DUP3 MSTORE PUSH1 0x11 PUSH1 0x4 MSTORE PUSH1 0x24 DUP3 REVERT JUMPDEST SWAP1 SWAP3 PUSH1 0x20 DUP3 RETURNDATASIZE PUSH1 0x20 GT PUSH2 0x41DF JUMPI JUMPDEST DUP2 PUSH2 0x41CE PUSH1 0x20 SWAP4 DUP4 PUSH2 0x2881 JUMP JUMPDEST DUP2 ADD SUB SLT PUSH2 0x3674 JUMPI POP MLOAD SWAP2 CODESIZE PUSH2 0x40D4 JUMP JUMPDEST RETURNDATASIZE SWAP2 POP PUSH2 0x41C1 JUMP JUMPDEST PUSH1 0x20 SWAP1 PUSH2 0x405F JUMP JUMPDEST PUSH2 0x4208 SWAP2 POP PUSH1 0x20 RETURNDATASIZE PUSH1 0x20 GT PUSH2 0x485 JUMPI PUSH2 0x473 DUP2 DUP4 PUSH2 0x2881 JUMP JUMPDEST CODESIZE PUSH2 0x4025 JUMP JUMPDEST PUSH1 0x40 MLOAD RETURNDATASIZE DUP9 DUP3 RETURNDATACOPY RETURNDATASIZE SWAP1 REVERT JUMPDEST SWAP1 POP PUSH2 0x4235 SWAP2 SWAP3 POP PUSH1 0x60 RETURNDATASIZE PUSH1 0x60 GT PUSH2 0x1E38 JUMPI PUSH2 0x1E28 DUP2 DUP4 PUSH2 0x2881 JUMP JUMPDEST POP SWAP2 SWAP1 CODESIZE PUSH2 0x3FF8 JUMP JUMPDEST PUSH2 0x4257 SWAP2 POP PUSH1 0x20 RETURNDATASIZE PUSH1 0x20 GT PUSH2 0x485 JUMPI PUSH2 0x473 DUP2 DUP4 PUSH2 0x2881 JUMP JUMPDEST CODESIZE PUSH2 0x3FC2 JUMP JUMPDEST PUSH1 0x2 SLOAD PUSH1 0x1 PUSH1 0x1 PUSH1 0xA0 SHL SUB DUP3 DUP2 AND SWAP3 SWAP2 AND DUP3 EQ SWAP1 DUP2 ISZERO PUSH2 0x42D6 JUMPI JUMPDEST POP PUSH2 0x2F39 JUMPI PUSH1 0x0 MSTORE PUSH1 0xC PUSH1 0x20 MSTORE PUSH1 0x40 PUSH1 0x0 KECCAK256 SLOAD PUSH2 0x4293 PUSH2 0x318F JUMP JUMPDEST SWAP1 PUSH1 0x0 JUMPDEST PUSH1 0x7 DUP2 LT PUSH2 0x42A7 JUMPI POP POP POP PUSH1 0x0 SWAP1 JUMP JUMPDEST PUSH2 0x42B1 DUP2 DUP5 PUSH2 0x2A6D JUMP JUMPDEST MLOAD MLOAD DUP3 LT ISZERO PUSH2 0x42C2 JUMPI PUSH1 0x1 ADD PUSH2 0x4297 JUMP JUMPDEST SWAP2 POP POP PUSH1 0x7 SUB PUSH1 0x7 DUP2 GT PUSH2 0x1746 JUMPI PUSH1 0xFF AND SWAP1 JUMP JUMPDEST PUSH9 0xAD78EBC5AC6200000 SWAP2 POP PUSH2 0x42EB SWAP1 PUSH2 0x2E79 JUMP JUMPDEST LT CODESIZE PUSH2 0x4278 JUMP JUMPDEST PUSH1 0x0 SWAP2 PUSH1 0x1 PUSH1 0x1 PUSH1 0xA0 SHL SUB SWAP1 SWAP2 AND SWAP1 DUP2 ISZERO PUSH2 0x435B JUMPI PUSH1 0x20 PUSH32 0xDDF252AD1BE2C89B69C2B068FC378DAA952BA7F163C4A11628F55A4DF523B3EF SWAP2 DUP4 DUP6 MSTORE PUSH1 0x4 DUP3 MSTORE PUSH1 0x40 DUP6 KECCAK256 PUSH2 0x4341 DUP3 DUP3 SLOAD PUSH2 0x2AC3 JUMP JUMPDEST SWAP1 SSTORE PUSH2 0x434F DUP2 PUSH1 0x3 SLOAD PUSH2 0x2AC3 JUMP JUMPDEST PUSH1 0x3 SSTORE PUSH1 0x40 MLOAD SWAP1 DUP2 MSTORE LOG3 JUMP JUMPDEST DUP3 SWAP2 POP PUSH1 0x20 PUSH32 0xDDF252AD1BE2C89B69C2B068FC378DAA952BA7F163C4A11628F55A4DF523B3EF SWAP2 DUP4 DUP1 MSTORE PUSH1 0x4 DUP3 MSTORE PUSH1 0x40 DUP5 KECCAK256 PUSH2 0x4398 DUP3 DUP3 SLOAD PUSH2 0x3F7D JUMP JUMPDEST SWAP1 SSTORE PUSH2 0x434F DUP2 PUSH1 0x3 SLOAD PUSH2 0x3F7D JUMP JUMPDEST PUSH32 0xDDF252AD1BE2C89B69C2B068FC378DAA952BA7F163C4A11628F55A4DF523B3EF PUSH1 0x20 PUSH1 0x0 SWAP3 PUSH1 0x1 DUP1 PUSH1 0xA0 SHL SUB AND SWAP4 DUP5 DUP5 MSTORE PUSH1 0x4 DUP3 MSTORE PUSH1 0x40 DUP5 KECCAK256 PUSH2 0x4398 DUP3 DUP3 SLOAD PUSH2 0x3F7D JUMP JUMPDEST SWAP1 PUSH1 0x8 DUP2 LT ISZERO PUSH2 0x292F JUMPI PUSH1 0x5 SHL ADD SWAP1 JUMP JUMPDEST SWAP1 SWAP2 SWAP1 PUSH1 0x0 NOT DUP4 DUP3 MULMOD DUP4 DUP3 MUL SWAP2 DUP3 DUP1 DUP4 LT SWAP3 SUB SWAP2 DUP1 DUP4 SUB SWAP3 EQ PUSH2 0x4483 JUMPI PUSH8 0xDE0B6B3A7640000 DUP3 LT ISZERO PUSH2 0x446A JUMPI PUSH32 0xACCB18165BD6FE31AE1CF318DC5B51EEE0E1BA569B88CD74C1773B91FAC10669 SWAP4 SWAP5 PUSH8 0xDE0B6B3A7640000 SWAP2 MULMOD SWAP1 DUP3 DUP3 GT SWAP1 SUB PUSH1 0xEE SHL SWAP2 SUB PUSH1 0x12 SHR OR MUL SWAP1 JUMP JUMPDEST DUP5 SWAP1 PUSH4 0x5173648D PUSH1 0xE0 SHL PUSH1 0x0 MSTORE PUSH1 0x4 MSTORE PUSH1 0x24 MSTORE PUSH1 0x44 PUSH1 0x0 REVERT JUMPDEST POP POP PUSH8 0xDE0B6B3A7640000 SWAP1 DIV SWAP2 POP JUMP JUMPDEST PUSH1 0xFF AND PUSH1 0x1 DUP2 EQ PUSH2 0x44F6 JUMPI PUSH1 0x2 DUP2 EQ PUSH2 0x44F0 JUMPI PUSH1 0x3 DUP2 EQ PUSH2 0x44EA JUMPI PUSH1 0x4 DUP2 EQ PUSH2 0x44E4 JUMPI PUSH1 0x5 DUP2 EQ PUSH2 0x44DE JUMPI PUSH1 0x6 DUP2 EQ PUSH2 0x44D8 JUMPI PUSH1 0x7 EQ PUSH2 0x44D3 JUMPI PUSH1 0x0 SWAP1 JUMP JUMPDEST PUSH1 0x23 SWAP1 JUMP JUMPDEST POP PUSH1 0x1E SWAP1 JUMP JUMPDEST POP PUSH1 0x19 SWAP1 JUMP JUMPDEST POP PUSH1 0x14 SWAP1 JUMP JUMPDEST POP PUSH1 0xF SWAP1 JUMP JUMPDEST POP PUSH1 0xA SWAP1 JUMP JUMPDEST POP PUSH1 0x5 SWAP1 JUMP INVALID LOG2 PUSH5 0x6970667358 0x22 SLT KECCAK256 INVALID ORIGIN 0xFB MLOAD SELFBALANCE PUSH22 0xB068DB6BE154E05FD0CCCF4BB437A1026082469C01E0 SWAP3 DUP1 0x4D 0xDF PUSH5 0x736F6C6343 STOP ADDMOD SHR STOP CALLER "},"methodIdentifiers":{"REDEMPTION_FEE_RATE()":"a681093d","ROUTER()":"32fe7b26","SYI()":"a7f189b5","allowance(address,address)":"dd62ed3e","approve(address,uint256)":"095ea7b3","balanceOf(address)":"70a08231","balances(address)":"27e235e3","canWithdrawStake(address,uint256)":"f34642a0","currentStakeValue(address)":"d9dd0fdf","decimals()":"313ce567","earnedInterest(address)":"5d948c35","emergencyWithdrawSYI(address,uint256)":"eba73d98","emergencyWithdrawUSDT(address,uint256)":"94f3b118","feeRecipient()":"46904840","getFriend(address)":"30ead469","getMaxStakeAmount()":"451309ed","getMaxUserTotalStake()":"b16da00f","getNetworkInflow()":"19511267","getRecentNetworkInflow()":"41edf848","getReferral(address)":"3b0f0f2f","getReferralCount(address)":"24acbd69","getReferrals(address,uint256)":"32a00d8e","getReferrals(address,uint8)":"f5a94215","getRemainingStakeCapacity(address)":"e566d74d","getRootAddress()":"f6d5660f","getSlippageConfig()":"96d391bf","getStakePeriod(uint8)":"488eaf3d","getStakePeriods()":"ca74de9b","getTeamKpi(address)":"f4fdf732","getTeamPerformanceDetails(address)":"7c61655f","getTeamRewardRates()":"a2daf14e","getTeamRewardThresholds()":"08a2ab4b","getUserInfo(address)":"6386c1c7","getUserStakeWithdrawalStatus(address)":"53219323","getWithdrawalCount(address)":"e4fae6da","getWithdrawalHistory(address)":"3114740e","getWithdrawalRecord(address,uint256)":"b9cc477b","isBindReferral(address)":"eec76e04","isPreacher(address)":"59f0c0e7","lockFriend(address)":"bfbc3048","lockReferral(address)":"ea73a841","maxStakeAmount()":"5d80ca32","name()":"06fdde03","network1In()":"72fbab3b","owner()":"8da5cb5b","previewStakeOutput(uint256)":"31516ab8","principalBalance(address)":"e68fc0ee","rates(uint256)":"dd418ae2","renounceOwnership()":"715018a6","rewardOfSlot(address,uint8)":"069a8f2d","setFeeRecipient(address)":"e74b981b","setRootAddress(address)":"1451952b","setSYI(address)":"b7be124e","stake(uint160,uint8)":"8b9909b4","stakeCount(address)":"33060d90","symbol()":"95d89b41","sync()":"fff6cae9","t_supply(uint256)":"5e61da08","teamTotalInvestValue(address)":"b108b4cb","totalSupply()":"18160ddd","transfer(address,uint256)":"a9059cbb","transferFrom(address,address,uint256)":"23b872dd","transferOwnership(address)":"f2fde38b","unstake(uint256)":"2e17de78","userIndex(address)":"c96679fe","userStakeRecord(address,uint256)":"08adb4be"}}}}}