{"contracts/LiquidityStaking/mainnet/LiquidityStaking.sol":{"LiquidityStaking":{"abi":[{"inputs":[{"internalType":"address","name":"_usdt","type":"address"},{"internalType":"address","name":"_syiContract","type":"address"},{"internalType":"address","name":"_lpToken","type":"address"},{"internalType":"address","name":"_staking","type":"address"},{"internalType":"address","name":"_marketingAddress","type":"address"},{"internalType":"address","name":"_admin","type":"address"},{"internalType":"address","name":"_router","type":"address"}],"stateMutability":"nonpayable","type":"constructor"},{"inputs":[],"name":"ExcludedFromStaking","type":"error"},{"inputs":[],"name":"InsufficientStakeTime","type":"error"},{"inputs":[],"name":"InvalidAddress","type":"error"},{"inputs":[],"name":"InvalidAmount","type":"error"},{"inputs":[],"name":"NoStakeFound","type":"error"},{"inputs":[],"name":"OnlyAdmin","type":"error"},{"inputs":[{"internalType":"address","name":"owner","type":"address"}],"name":"OwnableInvalidOwner","type":"error"},{"inputs":[{"internalType":"address","name":"account","type":"address"}],"name":"OwnableUnauthorizedAccount","type":"error"},{"inputs":[],"name":"ReentrancyGuardReentrantCall","type":"error"},{"inputs":[],"name":"TransferFailed","type":"error"},{"anonymous":false,"inputs":[{"indexed":true,"internalType":"address","name":"account","type":"address"},{"indexed":false,"internalType":"bool","name":"excluded","type":"bool"}],"name":"AddressExcluded","type":"event"},{"anonymous":false,"inputs":[{"indexed":true,"internalType":"address","name":"previousOwner","type":"address"},{"indexed":true,"internalType":"address","name":"newOwner","type":"address"}],"name":"OwnershipTransferred","type":"event"},{"anonymous":false,"inputs":[{"indexed":true,"internalType":"address","name":"user","type":"address"},{"indexed":false,"internalType":"uint256","name":"reward","type":"uint256"}],"name":"RewardClaimed","type":"event"},{"anonymous":false,"inputs":[{"indexed":false,"internalType":"uint256","name":"amount","type":"uint256"},{"indexed":false,"internalType":"uint256","name":"newRewardRate","type":"uint256"}],"name":"RewardsDeposited","type":"event"},{"anonymous":false,"inputs":[{"indexed":false,"internalType":"uint256","name":"syiAmount","type":"uint256"},{"indexed":false,"internalType":"uint256","name":"totalAccumulated","type":"uint256"}],"name":"SYIRewardsAccumulated","type":"event"},{"anonymous":false,"inputs":[{"indexed":false,"internalType":"uint256","name":"syiAmount","type":"uint256"},{"indexed":false,"internalType":"uint256","name":"usdtAmount","type":"uint256"},{"indexed":false,"internalType":"uint256","name":"newRewardRate","type":"uint256"}],"name":"SYISwappedToRewards","type":"event"},{"anonymous":false,"inputs":[{"indexed":true,"internalType":"address","name":"user","type":"address"},{"indexed":false,"internalType":"uint256","name":"amount","type":"uint256"},{"indexed":false,"internalType":"uint256","name":"timestamp","type":"uint256"}],"name":"Staked","type":"event"},{"anonymous":false,"inputs":[{"indexed":true,"internalType":"address","name":"user","type":"address"},{"indexed":false,"internalType":"uint256","name":"amount","type":"uint256"},{"indexed":false,"internalType":"uint256","name":"reward","type":"uint256"}],"name":"Unstaked","type":"event"},{"inputs":[],"name":"MIN_REWARD_AMOUNT","outputs":[{"internalType":"uint256","name":"","type":"uint256"}],"stateMutability":"view","type":"function"},{"inputs":[],"name":"accumulatedSYI","outputs":[{"internalType":"uint256","name":"","type":"uint256"}],"stateMutability":"view","type":"function"},{"inputs":[{"internalType":"address","name":"account","type":"address"}],"name":"canUnstake","outputs":[{"internalType":"bool","name":"","type":"bool"}],"stateMutability":"view","type":"function"},{"inputs":[{"internalType":"address","name":"account","type":"address"}],"name":"canWithdrawStake","outputs":[{"internalType":"bool","name":"canWithdraw","type":"bool"},{"internalType":"uint256","name":"stakedAmount","type":"uint256"},{"internalType":"uint256","name":"timeRemaining","type":"uint256"}],"stateMutability":"view","type":"function"},{"inputs":[],"name":"claimReward","outputs":[],"stateMutability":"nonpayable","type":"function"},{"inputs":[{"internalType":"uint256","name":"amount","type":"uint256"}],"name":"depositRewards","outputs":[],"stateMutability":"nonpayable","type":"function"},{"inputs":[{"internalType":"uint256","name":"syiAmount","type":"uint256"}],"name":"depositSYIRewards","outputs":[],"stateMutability":"nonpayable","type":"function"},{"inputs":[{"internalType":"address","name":"token","type":"address"},{"internalType":"uint256","name":"amount","type":"uint256"}],"name":"emergencyWithdraw","outputs":[],"stateMutability":"nonpayable","type":"function"},{"inputs":[{"internalType":"address","name":"","type":"address"}],"name":"excludedFromStaking","outputs":[{"internalType":"bool","name":"","type":"bool"}],"stateMutability":"view","type":"function"},{"inputs":[],"name":"getMinStakeDurationExternal","outputs":[{"internalType":"uint256","name":"duration","type":"uint256"}],"stateMutability":"pure","type":"function"},{"inputs":[],"name":"getRewardPoolInfo","outputs":[{"internalType":"uint256","name":"totalRewards","type":"uint256"},{"internalType":"uint256","name":"rewardPerSecond","type":"uint256"},{"internalType":"uint256","name":"totalStaked","type":"uint256"},{"internalType":"uint256","name":"totalWeight","type":"uint256"},{"internalType":"uint256","name":"stakersCount","type":"uint256"},{"internalType":"uint256","name":"distributedRewards","type":"uint256"},{"internalType":"uint256","name":"pendingRewards","type":"uint256"}],"stateMutability":"view","type":"function"},{"inputs":[],"name":"getStakersCount","outputs":[{"internalType":"uint256","name":"","type":"uint256"}],"stateMutability":"view","type":"function"},{"inputs":[{"internalType":"address","name":"account","type":"address"}],"name":"getUserStakeInfo","outputs":[{"internalType":"uint256","name":"stakedAmount","type":"uint256"},{"internalType":"uint256","name":"stakeTime","type":"uint256"},{"internalType":"uint256","name":"pendingReward","type":"uint256"},{"internalType":"uint256","name":"accumulatedReward","type":"uint256"},{"internalType":"uint256","name":"weight","type":"uint256"}],"stateMutability":"view","type":"function"},{"inputs":[{"internalType":"address","name":"","type":"address"}],"name":"isStaker","outputs":[{"internalType":"bool","name":"","type":"bool"}],"stateMutability":"view","type":"function"},{"inputs":[],"name":"lpToken","outputs":[{"internalType":"address","name":"","type":"address"}],"stateMutability":"view","type":"function"},{"inputs":[],"name":"owner","outputs":[{"internalType":"address","name":"","type":"address"}],"stateMutability":"view","type":"function"},{"inputs":[],"name":"renounceOwnership","outputs":[],"stateMutability":"nonpayable","type":"function"},{"inputs":[],"name":"rewardPool","outputs":[{"internalType":"uint256","name":"totalRewards","type":"uint256"},{"internalType":"uint256","name":"rewardPerSecond","type":"uint256"},{"internalType":"uint256","name":"lastUpdateTime","type":"uint256"},{"internalType":"uint256","name":"rewardPerTokenStored","type":"uint256"},{"internalType":"uint256","name":"totalStaked","type":"uint256"},{"internalType":"uint256","name":"totalWeight","type":"uint256"},{"internalType":"uint256","name":"distributedRewards","type":"uint256"},{"internalType":"uint256","name":"pendingRewards","type":"uint256"}],"stateMutability":"view","type":"function"},{"inputs":[],"name":"router","outputs":[{"internalType":"contract IUniswapV2Router02","name":"","type":"address"}],"stateMutability":"view","type":"function"},{"inputs":[{"internalType":"address","name":"account","type":"address"},{"internalType":"bool","name":"excluded","type":"bool"}],"name":"setExcluded","outputs":[],"stateMutability":"nonpayable","type":"function"},{"inputs":[{"internalType":"uint256","name":"amount","type":"uint256"}],"name":"stake","outputs":[],"stateMutability":"nonpayable","type":"function"},{"inputs":[{"internalType":"uint256","name":"","type":"uint256"}],"name":"stakers","outputs":[{"internalType":"address","name":"","type":"address"}],"stateMutability":"view","type":"function"},{"inputs":[{"internalType":"address","name":"","type":"address"}],"name":"stakes","outputs":[{"internalType":"uint256","name":"amount","type":"uint256"},{"internalType":"uint256","name":"stakeTime","type":"uint256"},{"internalType":"uint256","name":"lastRewardTime","type":"uint256"},{"internalType":"uint256","name":"accumulatedReward","type":"uint256"}],"stateMutability":"view","type":"function"},{"inputs":[],"name":"staking","outputs":[{"internalType":"contract IStaking","name":"","type":"address"}],"stateMutability":"view","type":"function"},{"inputs":[],"name":"syiContract","outputs":[{"internalType":"address","name":"","type":"address"}],"stateMutability":"view","type":"function"},{"inputs":[{"internalType":"address","name":"newOwner","type":"address"}],"name":"transferOwnership","outputs":[],"stateMutability":"nonpayable","type":"function"},{"inputs":[{"internalType":"uint256","name":"amount","type":"uint256"}],"name":"unstake","outputs":[],"stateMutability":"nonpayable","type":"function"},{"inputs":[],"name":"usdt","outputs":[{"internalType":"address","name":"","type":"address"}],"stateMutability":"view","type":"function"},{"inputs":[{"internalType":"address","name":"","type":"address"}],"name":"userPendingRewards","outputs":[{"internalType":"uint256","name":"","type":"uint256"}],"stateMutability":"view","type":"function"},{"inputs":[{"internalType":"address","name":"","type":"address"}],"name":"userRewardPerTokenPaid","outputs":[{"internalType":"uint256","name":"","type":"uint256"}],"stateMutability":"view","type":"function"}],"evm":{"bytecode":{"linkReferences":{},"object":"610120346102f757601f61204d38819003918201601f19168301916001600160401b038311848410176102fc5780849260e0946040528339810103126102f75761004881610312565b61005460208301610312565b9161006160408201610312565b9061006e60608201610312565b61007a60808301610312565b9261009360c061008c60a08601610312565b9401610312565b60016000556001600160a01b039093169485156102e157600180546001600160a01b03198116881790915560405196906001600160a01b03167f8be0079c531659141344cd1fd0a4f28419497f9722a3daafe3b4186f6b6457e0600080a36001600160a01b0381161580156102d0575b80156102bf575b80156102ae575b801561029d575b61028c5760a052608086905260c0526001600160a01b0390811660e0529081166101005242600855169081610256575b8230600052600e6020526040600020600160ff1982541617905560018060a01b031680600052600e6020526040600020600160ff198254161790556040516001815260008051602061202d83398151915260203092a260008051602061202d833981519152602060405160018152a2604051611d06908161032782396080518181816102ec015281816106f9015281816107ef015281816108cd01528181610e5001528181611119015281816116bf0152611a24015260a051818181610b4901528181610d7d0152818161124b015281816113ab0152611a8f015260c0518181816104f401528181610a830152610c4f015260e05181610ac801526101005181818161020001526119f30152f35b602060008051602061202d8339815191529183600052600e82526040600020600160ff1982541617905560018152a23880610148565b63e6c4247b60e01b60005260046000fd5b506001600160a01b03841615610118565b506001600160a01b03831615610111565b506001600160a01b0382161561010a565b506001600160a01b03871615610103565b631e4fbdf760e01b600052600060045260246000fd5b600080fd5b634e487b7160e01b600052604160045260246000fd5b51906001600160a01b03821682036102f75756fe608080604052600436101561001357600080fd5b60003560e01c9081630ccaa97e14610f455750806316934fc414610ee95780632836be2414610e265780632e17de7814610b785780632f48ab7d14610b335780633911f68e14610b155780634828478914610af75780634cf088d914610ab25780635fcbd28514610a6d57806366666aa914610a135780636ab9bba7146109db5780636f1e85331461099c57806370f4edbf1461097e578063715018a614610921578063759f9de2146108b957806385f4498b1461088c5780638b876347146108525780638bdf67f2146107db5780638da5cb5b146107b257806395ccea67146106de578063a694fc3a14610475578063b88a802f1461042a578063c32d3ae214610371578063c3e40a141461031b578063df5f747c146102d6578063f2fde38b1461024c578063f6ef85cd1461022f578063f887ea40146101ea578063fc9d7711146101b05763fd5e6dd11461016957600080fd5b346101ab5760203660031901126101ab576004356004548110156101ab57610192602091610f96565b905460405160039290921b1c6001600160a01b03168152f35b600080fd5b346101ab5760203660031901126101ab576001600160a01b036101d1610f80565b1660005260126020526020604060002054604051908152f35b346101ab5760003660031901126101ab576040517f00000000000000000000000000000000000000000000000000000000000000006001600160a01b03168152602090f35b346101ab5760003660031901126101ab5760206040516103e88152f35b346101ab5760203660031901126101ab57610265610f80565b61026d6117ba565b6001600160a01b031680156102c057600180546001600160a01b0319811683179091556001600160a01b03167f8be0079c531659141344cd1fd0a4f28419497f9722a3daafe3b4186f6b6457e0600080a3005b631e4fbdf760e01b600052600060045260246000fd5b346101ab5760003660031901126101ab576040517f00000000000000000000000000000000000000000000000000000000000000006001600160a01b03168152602090f35b346101ab5760003660031901126101ab5760e0600654600754600a5461033f61183d565b60045490600c5492600d5494604051968752602087015260408601526060850152608084015260a083015260c0820152f35b346101ab5760203660031901126101ab5760a061038c610f80565b6000600180841b03821660005260036020526040600020604051926103b084611007565b8154938481526001830154906103e26003602083019584875260028101546040850152015493606083019485526114c7565b925193815161040a575b50506040519485526020850152604084015260608301526080820152f35b61042292955061041b905142610ffa565b90516117e3565b9286806103ec565b346101ab5760003660031901126101ab57610443611440565b61044b611557565b6009554260085533610467575b6104606112fa565b6001600055005b61047033611462565b610458565b346101ab5760203660031901126101ab57600435610491611440565b610499611557565b60095542600855336106d0575b80156106bf5733600052600e60205260ff604060002054166106ae576040516323b872dd60e01b81523360048201523060248201526044810182905260208160648160006001600160a01b037f0000000000000000000000000000000000000000000000000000000000000000165af19081156106a257600091610673575b501561066257336000526003602052604060002033600052600560205260ff60406000205416156105b6575b61055c828254610fed565b905561056a81600a54610fed565b600a5561057561183d565b600f55426010556040519081524260208201527f1449c6dd7851abc30abf37f57715f492010519147cc2652fbc38202c18a6ee9060403392a26104606116bd565b6004546801000000000000000081101561064c576105dd8160016105fb9301600455610f96565b81546001600160a01b0360039290921b91821b19163390911b179055565b3360005260056020526040600020600160ff19825416179055426001820155426002820155610628611557565b33600052601160205260406000205533600052601260205260006040812055610551565b634e487b7160e01b600052604160045260246000fd5b6312171d8360e31b60005260046000fd5b610695915060203d60201161069b575b61068d8183611023565b810190611045565b82610525565b503d610683565b6040513d6000823e3d90fd5b636bae2ecf60e01b60005260046000fd5b63162908e360e11b60005260046000fd5b6106d933611462565b6104a6565b346101ab5760403660031901126101ab576106f7610f80565b7f000000000000000000000000000000000000000000000000000000000000000090336001600160a01b03831614158061079d575b61078c5760405163a9059cbb60e01b81526001600160a01b03928316600482015260248035908201529160209183916044918391600091165af180156106a25761077257005b61078a9060203d60201161069b5761068d8183611023565b005b634755657960e01b60005260046000fd5b506001546001600160a01b031633141561072c565b346101ab5760003660031901126101ab576001546040516001600160a01b039091168152602090f35b346101ab5760203660031901126101ab57337f00000000000000000000000000000000000000000000000000000000000000006001600160a01b031614158061083d575b61078c5761082b611557565b6009554260085561078a600435611213565b506001546001600160a01b031633141561081f565b346101ab5760203660031901126101ab576001600160a01b03610873610f80565b1660005260116020526020604060002054604051908152f35b346101ab5760203660031901126101ab5760206108af6108aa610f80565b6111b3565b6040519015158152f35b346101ab5760203660031901126101ab57337f00000000000000000000000000000000000000000000000000000000000000006001600160a01b031614158061090c575b61078c5761078a6004356110e1565b506001546001600160a01b03163314156108fd565b346101ab5760003660031901126101ab5761093a6117ba565b600180546001600160a01b031981169091556000906001600160a01b03167f8be0079c531659141344cd1fd0a4f28419497f9722a3daafe3b4186f6b6457e08280a3005b346101ab5760003660031901126101ab576020600254604051908152f35b346101ab5760203660031901126101ab576001600160a01b036109bd610f80565b166000526005602052602060ff604060002054166040519015158152f35b346101ab5760203660031901126101ab5760606109fe6109f9610f80565b61105d565b90604051921515835260208301526040820152f35b346101ab5760003660031901126101ab57610100600654600754600854600954600a54600b5491600c5493600d5495604051978852602088015260408701526060860152608085015260a084015260c083015260e0820152f35b346101ab5760003660031901126101ab576040517f00000000000000000000000000000000000000000000000000000000000000006001600160a01b03168152602090f35b346101ab5760003660031901126101ab576040517f00000000000000000000000000000000000000000000000000000000000000006001600160a01b03168152602090f35b346101ab5760003660031901126101ab576020600454604051908152f35b346101ab5760003660031901126101ab576020604051620151808152f35b346101ab5760003660031901126101ab576040517f00000000000000000000000000000000000000000000000000000000000000006001600160a01b03168152602090f35b346101ab5760203660031901126101ab57600435610b94611440565b610b9c611557565b6009554260085533610e18575b336000526003602052604060002080548015610e07578215908115610dfd575b506106bf57610bdb6001820154610fc7565b4210610dec57610bea336114c7565b9081610cec575b610bfc838254610ffa565b8155610c0a83600a54610ffa565b600a555415610cde575b610c1c61183d565b600f554260105560405163a9059cbb60e01b81523360048201526024810183905260208160448160006001600160a01b037f0000000000000000000000000000000000000000000000000000000000000000165af19081156106a257600091610cbf575b50156106625760405191825260208201527f7fc4727e062e336010f2c282598ef5f14facb3de68cf8195c2f23e1454b2b74e60403392a26104606116bd565b610cd8915060203d60201161069b5761068d8183611023565b83610c80565b610ce7336115ae565b610c14565b33600052601260205260006040812055610d04611557565b33600052601160205260406000205560038101610d22838254610fed565b9055426002820155610d3682600c54610fed565b600c55600d548280821115610de357610d4e91610ffa565b600d5560405163a9059cbb60e01b81523360048201526024810183905260208160448160006001600160a01b037f0000000000000000000000000000000000000000000000000000000000000000165af19081156106a257600091610dc4575b50610bf1576312171d8360e31b60005260046000fd5b610ddd915060203d60201161069b5761068d8183611023565b84610dae565b50506000610d4e565b638d9c2d7f60e01b60005260046000fd5b9050821183610bc9565b632cdf478160e11b60005260046000fd5b610e2133611462565b610ba9565b346101ab5760403660031901126101ab57610e3f610f80565b602435908115158092036101ab57337f00000000000000000000000000000000000000000000000000000000000000006001600160a01b0316141580610ed4575b61078c5760207f41a696dfbded725d7a02bf24db905bc48040509581dd59098d66b9aa7416bb5e9160018060a01b03169283600052600e8252604060002060ff1981541660ff8316179055604051908152a2005b506001546001600160a01b0316331415610e80565b346101ab5760203660031901126101ab576001600160a01b03610f0a610f80565b166000526003602052608060406000208054906001810154906003600282015491015491604051938452602084015260408301526060820152f35b346101ab5760203660031901126101ab576020906001600160a01b03610f69610f80565b16600052600e825260ff6040600020541615158152f35b600435906001600160a01b03821682036101ab57565b600454811015610fb157600460005260206000200190600090565b634e487b7160e01b600052603260045260246000fd5b90620151808201809211610fd757565b634e487b7160e01b600052601160045260246000fd5b91908201809211610fd757565b91908203918211610fd757565b6080810190811067ffffffffffffffff82111761064c57604052565b90601f8019910116810190811067ffffffffffffffff82111761064c57604052565b908160209103126101ab575180151581036101ab5790565b60018060a01b0316600052600360205260406000206040519061107f82611007565b805491828152606060036001840154938460208501526002810154604085015201549101528180156110d657506110b590610fc7565b4281116110c55750600191600090565b916110d36000934290610ffa565b90565b600093909250839150565b80156111b0576040516323b872dd60e01b81523360048201523060248201526044810182905260208160648160006001600160a01b037f0000000000000000000000000000000000000000000000000000000000000000165af19081156106a257600091611191575b5015610662576040816111807fcc262df37e95bd0c34586a7f3cad8b5f26a8dddfea761d63314f024f0fe3f0c193600254610fed565b8060025582519182526020820152a1565b6111aa915060203d60201161069b5761068d8183611023565b3861114a565b50565b60018060a01b0316600052600360205260406000206040516111d481611007565b815490818152606060036001850154948560208501526002810154604085015201549101521561120d5761120790610fc7565b42101590565b50600090565b80156111b0576040516323b872dd60e01b81523360048201523060248201526044810182905260208160648160006001600160a01b037f0000000000000000000000000000000000000000000000000000000000000000165af19081156106a2576000916112db575b5015610662576040816112b27f8ad0c4905aa5603107e860e0c2b1a78e23eba312c30f8114a70d94d9e187f5af93600654610fed565b60065562093a806112c582600d54610fed565b80600d55048060075582519182526020820152a1565b6112f4915060203d60201161069b5761068d8183611023565b3861127c565b611303336114c7565b6103e881106111b057336000526003602052604060002033600052601260205260006040812055611332611557565b33600052601160205260406000205560038101611350838254610fed565b905560024291015561136481600c54610fed565b600c55600d5481808211156114375761137c91610ffa565b600d5560405163a9059cbb60e01b81523360048201526024810182905260208160448160006001600160a01b037f0000000000000000000000000000000000000000000000000000000000000000165af19081156106a257600091611418575b5015610662576040519081527f106f923f993c2149d49b4255ff723acafa1f2d94393f561d3eda32ae348f724160203392a26114166116bd565b565b611431915060203d60201161069b5761068d8183611023565b386113dc565b5050600061137c565b600260005414611451576002600055565b633ee5aeb560e01b60005260046000fd5b6001600160a01b03811680156114c357806000526003602052604060002054156114c357611498611491611557565b80936118f9565b8160005260126020526114b16040600020918254610fed565b90556000526011602052604060002055565b5050565b6001600160a01b0381166000818152600360205260409081902090516114ec81611007565b60606003835493848452600181015460208501526002810154604085015201549101521561153d576115296110d392611523611557565b906118f9565b906000526012602052604060002054610fed565b5050600090565b81810292918115918404141715610fd757565b600a5480156115a75761157861156f60085442610ffa565b60075490611544565b90670de0b6b3a7640000820291808304670de0b6b3a76400001490151715610fd7576110d39104600954610fed565b5060095490565b6001600160a01b031660008181526005602052604090205460ff16156111b05760005b60045490818110156116b857826115e782610f96565b905460039190911b1c6001600160a01b0316146116085760019150016115d1565b6000198201918211610fd75761163b61162361165f93610f96565b905460039190911b1c6001600160a01b031691610f96565b81546001600160a01b0393841660039290921b91821b9390911b1916919091179055565b60045480156116a2576000190161167581610f96565b81549060018060a01b039060031b1b191690556004556000526005602052604060002060ff198154169055565b634e487b7160e01b600052603160045260246000fd5b505050565b7f00000000000000000000000000000000000000000000000000000000000000006001600160a01b0316803b156101ab5760049060405180916352795e0b60e01b82528160009485938480945af16117aa575b50506002549081158015611799575b6114c35760025561172f816119d3565b80611738575050565b7fa6378dd16102467b0770ff29e0feccdc228faf8ca76bf50b12bf0501be2c45239181611769606093600654610fed565b60065562093a8061177c82600d54610fed565b80600d5504908160075560405192835260208301526040820152a1565b50678ac7230489e80000821061171f565b6117b391611023565b3881611710565b6001546001600160a01b031633036117ce57565b63118cdaa760e01b6000523360045260246000fd5b90670de0b6b3a7640000810290808204670de0b6b3a76400001490151715610fd7576301e133809004670de0b6b3a7640000019081670de0b6b3a764000011610fd757670de0b6b3a76400009161183991611544565b0490565b6010544214806118ee575b6118e857600080600454905b81811061186057505090565b61186981610f96565b60018060a01b0391549060031b1c16600052600360205260406000206040519061189282611007565b8054808352600360018301549283602086015260028101546040860152015460608401526118c5575b5050600101611854565b936118da6118e09261041b6001959742610ffa565b90610fed565b9290386118bb565b600f5490565b50600f541515611848565b60018060a01b03168060005260036020526040600020916040519161191d83611007565b83548084526003600186015495602086019687526002810154604087015201546060850152156119ca5761196b9161196391600052601160205260406000205490610ffa565b925142610ffa565b670de0b6b3a7640000810290808204670de0b6b3a76400001490151715610fd7576301e133809004670de0b6b3a76400000180670de0b6b3a764000011610fd757670de0b6b3a76400006119c481946118399451611544565b04611544565b50505050600090565b6000908015611ccc5760405163095ea7b360e01b81526001600160a01b037f0000000000000000000000000000000000000000000000000000000000000000811660048301819052602483018490527f00000000000000000000000000000000000000000000000000000000000000009091169160208160448188875af18015611cc157611ca4575b5060405190611a6c606083611023565b6002825260208201926040368537825115611c90578352815160011015611c7c577f00000000000000000000000000000000000000000000000000000000000000006001600160a01b03166040838101829052516370a0823160e01b815230600482015294909390602086602481885afa958615611c71578796611c39575b5061012c420190814211611c2557833b15611c21579391879391604051958694635c11d79560e01b865260a4860191600487015286602487015260a060448701525180915260c485019290865b818110611bfc575050508380928692306064840152608483015203925af19081611be8575b50611b6757505090565b6020602491604051928380926370a0823160e01b82523060048301525afa908115611bdd578391611bab575b5081811115611ba6576110d39250610ffa565b505090565b90506020813d602011611bd5575b81611bc660209383611023565b810103126101ab575138611b93565b3d9150611bb9565b6040513d85823e3d90fd5b84611bf591959295611023565b9238611b5d565b82516001600160a01b031685528b975088965060209485019490920191600101611b38565b8780fd5b634e487b7160e01b88526011600452602488fd5b9095506020813d602011611c69575b81611c5560209383611023565b81010312611c6557519438611aeb565b8680fd5b3d9150611c48565b6040513d89823e3d90fd5b634e487b7160e01b85526032600452602485fd5b634e487b7160e01b86526032600452602486fd5b611cbc9060203d60201161069b5761068d8183611023565b611a5c565b6040513d87823e3d90fd5b509056fea26469706673582212204b97a8691718d8408acdadc2b909986919cea2e42f63d96fe0c89f8972ee966664736f6c634300081c003341a696dfbded725d7a02bf24db905bc48040509581dd59098d66b9aa7416bb5e","opcodes":"PUSH2 0x120 CALLVALUE PUSH2 0x2F7 JUMPI PUSH1 0x1F PUSH2 0x204D CODESIZE DUP2 SWAP1 SUB SWAP2 DUP3 ADD PUSH1 0x1F NOT AND DUP4 ADD SWAP2 PUSH1 0x1 PUSH1 0x1 PUSH1 0x40 SHL SUB DUP4 GT DUP5 DUP5 LT OR PUSH2 0x2FC JUMPI DUP1 DUP5 SWAP3 PUSH1 0xE0 SWAP5 PUSH1 0x40 MSTORE DUP4 CODECOPY DUP2 ADD SUB SLT PUSH2 0x2F7 JUMPI PUSH2 0x48 DUP2 PUSH2 0x312 JUMP JUMPDEST PUSH2 0x54 PUSH1 0x20 DUP4 ADD PUSH2 0x312 JUMP JUMPDEST SWAP2 PUSH2 0x61 PUSH1 0x40 DUP3 ADD PUSH2 0x312 JUMP JUMPDEST SWAP1 PUSH2 0x6E PUSH1 0x60 DUP3 ADD PUSH2 0x312 JUMP JUMPDEST PUSH2 0x7A PUSH1 0x80 DUP4 ADD PUSH2 0x312 JUMP JUMPDEST SWAP3 PUSH2 0x93 PUSH1 0xC0 PUSH2 0x8C PUSH1 0xA0 DUP7 ADD PUSH2 0x312 JUMP JUMPDEST SWAP5 ADD PUSH2 0x312 JUMP JUMPDEST PUSH1 0x1 PUSH1 0x0 SSTORE PUSH1 0x1 PUSH1 0x1 PUSH1 0xA0 SHL SUB SWAP1 SWAP4 AND SWAP5 DUP6 ISZERO PUSH2 0x2E1 JUMPI PUSH1 0x1 DUP1 SLOAD PUSH1 0x1 PUSH1 0x1 PUSH1 0xA0 SHL SUB NOT DUP2 AND DUP9 OR SWAP1 SWAP2 SSTORE PUSH1 0x40 MLOAD SWAP7 SWAP1 PUSH1 0x1 PUSH1 0x1 PUSH1 0xA0 SHL SUB AND PUSH32 0x8BE0079C531659141344CD1FD0A4F28419497F9722A3DAAFE3B4186F6B6457E0 PUSH1 0x0 DUP1 LOG3 PUSH1 0x1 PUSH1 0x1 PUSH1 0xA0 SHL SUB DUP2 AND ISZERO DUP1 ISZERO PUSH2 0x2D0 JUMPI JUMPDEST DUP1 ISZERO PUSH2 0x2BF JUMPI JUMPDEST DUP1 ISZERO PUSH2 0x2AE JUMPI JUMPDEST DUP1 ISZERO PUSH2 0x29D JUMPI JUMPDEST PUSH2 0x28C JUMPI PUSH1 0xA0 MSTORE PUSH1 0x80 DUP7 SWAP1 MSTORE PUSH1 0xC0 MSTORE PUSH1 0x1 PUSH1 0x1 PUSH1 0xA0 SHL SUB SWAP1 DUP2 AND PUSH1 0xE0 MSTORE SWAP1 DUP2 AND PUSH2 0x100 MSTORE TIMESTAMP PUSH1 0x8 SSTORE AND SWAP1 DUP2 PUSH2 0x256 JUMPI JUMPDEST DUP3 ADDRESS PUSH1 0x0 MSTORE PUSH1 0xE PUSH1 0x20 MSTORE PUSH1 0x40 PUSH1 0x0 KECCAK256 PUSH1 0x1 PUSH1 0xFF NOT DUP3 SLOAD AND OR SWAP1 SSTORE PUSH1 0x1 DUP1 PUSH1 0xA0 SHL SUB AND DUP1 PUSH1 0x0 MSTORE PUSH1 0xE PUSH1 0x20 MSTORE PUSH1 0x40 PUSH1 0x0 KECCAK256 PUSH1 0x1 PUSH1 0xFF NOT DUP3 SLOAD AND OR SWAP1 SSTORE PUSH1 0x40 MLOAD PUSH1 0x1 DUP2 MSTORE PUSH1 0x0 DUP1 MLOAD PUSH1 0x20 PUSH2 0x202D DUP4 CODECOPY DUP2 MLOAD SWAP2 MSTORE PUSH1 0x20 ADDRESS SWAP3 LOG2 PUSH1 0x0 DUP1 MLOAD PUSH1 0x20 PUSH2 0x202D DUP4 CODECOPY DUP2 MLOAD SWAP2 MSTORE PUSH1 0x20 PUSH1 0x40 MLOAD PUSH1 0x1 DUP2 MSTORE LOG2 PUSH1 0x40 MLOAD PUSH2 0x1D06 SWAP1 DUP2 PUSH2 0x327 DUP3 CODECOPY PUSH1 0x80 MLOAD DUP2 DUP2 DUP2 PUSH2 0x2EC ADD MSTORE DUP2 DUP2 PUSH2 0x6F9 ADD MSTORE DUP2 DUP2 PUSH2 0x7EF ADD MSTORE DUP2 DUP2 PUSH2 0x8CD ADD MSTORE DUP2 DUP2 PUSH2 0xE50 ADD MSTORE DUP2 DUP2 PUSH2 0x1119 ADD MSTORE DUP2 DUP2 PUSH2 0x16BF ADD MSTORE PUSH2 0x1A24 ADD MSTORE PUSH1 0xA0 MLOAD DUP2 DUP2 DUP2 PUSH2 0xB49 ADD MSTORE DUP2 DUP2 PUSH2 0xD7D ADD MSTORE DUP2 DUP2 PUSH2 0x124B ADD MSTORE DUP2 DUP2 PUSH2 0x13AB ADD MSTORE PUSH2 0x1A8F ADD MSTORE PUSH1 0xC0 MLOAD DUP2 DUP2 DUP2 PUSH2 0x4F4 ADD MSTORE DUP2 DUP2 PUSH2 0xA83 ADD MSTORE PUSH2 0xC4F ADD MSTORE PUSH1 0xE0 MLOAD DUP2 PUSH2 0xAC8 ADD MSTORE PUSH2 0x100 MLOAD DUP2 DUP2 DUP2 PUSH2 0x200 ADD MSTORE PUSH2 0x19F3 ADD MSTORE RETURN JUMPDEST PUSH1 0x20 PUSH1 0x0 DUP1 MLOAD PUSH1 0x20 PUSH2 0x202D DUP4 CODECOPY DUP2 MLOAD SWAP2 MSTORE SWAP2 DUP4 PUSH1 0x0 MSTORE PUSH1 0xE DUP3 MSTORE PUSH1 0x40 PUSH1 0x0 KECCAK256 PUSH1 0x1 PUSH1 0xFF NOT DUP3 SLOAD AND OR SWAP1 SSTORE PUSH1 0x1 DUP2 MSTORE LOG2 CODESIZE DUP1 PUSH2 0x148 JUMP JUMPDEST PUSH4 0xE6C4247B PUSH1 0xE0 SHL PUSH1 0x0 MSTORE PUSH1 0x4 PUSH1 0x0 REVERT JUMPDEST POP PUSH1 0x1 PUSH1 0x1 PUSH1 0xA0 SHL SUB DUP5 AND ISZERO PUSH2 0x118 JUMP JUMPDEST POP PUSH1 0x1 PUSH1 0x1 PUSH1 0xA0 SHL SUB DUP4 AND ISZERO PUSH2 0x111 JUMP JUMPDEST POP PUSH1 0x1 PUSH1 0x1 PUSH1 0xA0 SHL SUB DUP3 AND ISZERO PUSH2 0x10A JUMP JUMPDEST POP PUSH1 0x1 PUSH1 0x1 PUSH1 0xA0 SHL SUB DUP8 AND ISZERO PUSH2 0x103 JUMP JUMPDEST PUSH4 0x1E4FBDF7 PUSH1 0xE0 SHL PUSH1 0x0 MSTORE PUSH1 0x0 PUSH1 0x4 MSTORE PUSH1 0x24 PUSH1 0x0 REVERT JUMPDEST PUSH1 0x0 DUP1 REVERT JUMPDEST PUSH4 0x4E487B71 PUSH1 0xE0 SHL PUSH1 0x0 MSTORE PUSH1 0x41 PUSH1 0x4 MSTORE PUSH1 0x24 PUSH1 0x0 REVERT JUMPDEST MLOAD SWAP1 PUSH1 0x1 PUSH1 0x1 PUSH1 0xA0 SHL SUB DUP3 AND DUP3 SUB PUSH2 0x2F7 JUMPI JUMP INVALID PUSH1 0x80 DUP1 PUSH1 0x40 MSTORE PUSH1 0x4 CALLDATASIZE LT ISZERO PUSH2 0x13 JUMPI PUSH1 0x0 DUP1 REVERT JUMPDEST PUSH1 0x0 CALLDATALOAD PUSH1 0xE0 SHR SWAP1 DUP2 PUSH4 0xCCAA97E EQ PUSH2 0xF45 JUMPI POP DUP1 PUSH4 0x16934FC4 EQ PUSH2 0xEE9 JUMPI DUP1 PUSH4 0x2836BE24 EQ PUSH2 0xE26 JUMPI DUP1 PUSH4 0x2E17DE78 EQ PUSH2 0xB78 JUMPI DUP1 PUSH4 0x2F48AB7D EQ PUSH2 0xB33 JUMPI DUP1 PUSH4 0x3911F68E EQ PUSH2 0xB15 JUMPI DUP1 PUSH4 0x48284789 EQ PUSH2 0xAF7 JUMPI DUP1 PUSH4 0x4CF088D9 EQ PUSH2 0xAB2 JUMPI DUP1 PUSH4 0x5FCBD285 EQ PUSH2 0xA6D JUMPI DUP1 PUSH4 0x66666AA9 EQ PUSH2 0xA13 JUMPI DUP1 PUSH4 0x6AB9BBA7 EQ PUSH2 0x9DB JUMPI DUP1 PUSH4 0x6F1E8533 EQ PUSH2 0x99C JUMPI DUP1 PUSH4 0x70F4EDBF EQ PUSH2 0x97E JUMPI DUP1 PUSH4 0x715018A6 EQ PUSH2 0x921 JUMPI DUP1 PUSH4 0x759F9DE2 EQ PUSH2 0x8B9 JUMPI DUP1 PUSH4 0x85F4498B EQ PUSH2 0x88C JUMPI DUP1 PUSH4 0x8B876347 EQ PUSH2 0x852 JUMPI DUP1 PUSH4 0x8BDF67F2 EQ PUSH2 0x7DB JUMPI DUP1 PUSH4 0x8DA5CB5B EQ PUSH2 0x7B2 JUMPI DUP1 PUSH4 0x95CCEA67 EQ PUSH2 0x6DE JUMPI DUP1 PUSH4 0xA694FC3A EQ PUSH2 0x475 JUMPI DUP1 PUSH4 0xB88A802F EQ PUSH2 0x42A JUMPI DUP1 PUSH4 0xC32D3AE2 EQ PUSH2 0x371 JUMPI DUP1 PUSH4 0xC3E40A14 EQ PUSH2 0x31B JUMPI DUP1 PUSH4 0xDF5F747C EQ PUSH2 0x2D6 JUMPI DUP1 PUSH4 0xF2FDE38B EQ PUSH2 0x24C JUMPI DUP1 PUSH4 0xF6EF85CD EQ PUSH2 0x22F JUMPI DUP1 PUSH4 0xF887EA40 EQ PUSH2 0x1EA JUMPI DUP1 PUSH4 0xFC9D7711 EQ PUSH2 0x1B0 JUMPI PUSH4 0xFD5E6DD1 EQ PUSH2 0x169 JUMPI PUSH1 0x0 DUP1 REVERT JUMPDEST CALLVALUE PUSH2 0x1AB JUMPI PUSH1 0x20 CALLDATASIZE PUSH1 0x3 NOT ADD SLT PUSH2 0x1AB JUMPI PUSH1 0x4 CALLDATALOAD PUSH1 0x4 SLOAD DUP2 LT ISZERO PUSH2 0x1AB JUMPI PUSH2 0x192 PUSH1 0x20 SWAP2 PUSH2 0xF96 JUMP JUMPDEST SWAP1 SLOAD PUSH1 0x40 MLOAD PUSH1 0x3 SWAP3 SWAP1 SWAP3 SHL SHR PUSH1 0x1 PUSH1 0x1 PUSH1 0xA0 SHL SUB AND DUP2 MSTORE RETURN JUMPDEST PUSH1 0x0 DUP1 REVERT JUMPDEST CALLVALUE PUSH2 0x1AB JUMPI PUSH1 0x20 CALLDATASIZE PUSH1 0x3 NOT ADD SLT PUSH2 0x1AB JUMPI PUSH1 0x1 PUSH1 0x1 PUSH1 0xA0 SHL SUB PUSH2 0x1D1 PUSH2 0xF80 JUMP JUMPDEST AND PUSH1 0x0 MSTORE PUSH1 0x12 PUSH1 0x20 MSTORE PUSH1 0x20 PUSH1 0x40 PUSH1 0x0 KECCAK256 SLOAD PUSH1 0x40 MLOAD SWAP1 DUP2 MSTORE RETURN JUMPDEST CALLVALUE PUSH2 0x1AB JUMPI PUSH1 0x0 CALLDATASIZE PUSH1 0x3 NOT ADD SLT PUSH2 0x1AB JUMPI PUSH1 0x40 MLOAD PUSH32 0x0 PUSH1 0x1 PUSH1 0x1 PUSH1 0xA0 SHL SUB AND DUP2 MSTORE PUSH1 0x20 SWAP1 RETURN JUMPDEST CALLVALUE PUSH2 0x1AB JUMPI PUSH1 0x0 CALLDATASIZE PUSH1 0x3 NOT ADD SLT PUSH2 0x1AB JUMPI PUSH1 0x20 PUSH1 0x40 MLOAD PUSH2 0x3E8 DUP2 MSTORE RETURN JUMPDEST CALLVALUE PUSH2 0x1AB JUMPI PUSH1 0x20 CALLDATASIZE PUSH1 0x3 NOT ADD SLT PUSH2 0x1AB JUMPI PUSH2 0x265 PUSH2 0xF80 JUMP JUMPDEST PUSH2 0x26D PUSH2 0x17BA JUMP JUMPDEST PUSH1 0x1 PUSH1 0x1 PUSH1 0xA0 SHL SUB AND DUP1 ISZERO PUSH2 0x2C0 JUMPI PUSH1 0x1 DUP1 SLOAD PUSH1 0x1 PUSH1 0x1 PUSH1 0xA0 SHL SUB NOT DUP2 AND DUP4 OR SWAP1 SWAP2 SSTORE PUSH1 0x1 PUSH1 0x1 PUSH1 0xA0 SHL SUB AND PUSH32 0x8BE0079C531659141344CD1FD0A4F28419497F9722A3DAAFE3B4186F6B6457E0 PUSH1 0x0 DUP1 LOG3 STOP JUMPDEST PUSH4 0x1E4FBDF7 PUSH1 0xE0 SHL PUSH1 0x0 MSTORE PUSH1 0x0 PUSH1 0x4 MSTORE PUSH1 0x24 PUSH1 0x0 REVERT JUMPDEST CALLVALUE PUSH2 0x1AB JUMPI PUSH1 0x0 CALLDATASIZE PUSH1 0x3 NOT ADD SLT PUSH2 0x1AB JUMPI PUSH1 0x40 MLOAD PUSH32 0x0 PUSH1 0x1 PUSH1 0x1 PUSH1 0xA0 SHL SUB AND DUP2 MSTORE PUSH1 0x20 SWAP1 RETURN JUMPDEST CALLVALUE PUSH2 0x1AB JUMPI PUSH1 0x0 CALLDATASIZE PUSH1 0x3 NOT ADD SLT PUSH2 0x1AB JUMPI PUSH1 0xE0 PUSH1 0x6 SLOAD PUSH1 0x7 SLOAD PUSH1 0xA SLOAD PUSH2 0x33F PUSH2 0x183D JUMP JUMPDEST PUSH1 0x4 SLOAD SWAP1 PUSH1 0xC SLOAD SWAP3 PUSH1 0xD SLOAD SWAP5 PUSH1 0x40 MLOAD SWAP7 DUP8 MSTORE PUSH1 0x20 DUP8 ADD MSTORE PUSH1 0x40 DUP7 ADD MSTORE PUSH1 0x60 DUP6 ADD MSTORE PUSH1 0x80 DUP5 ADD MSTORE PUSH1 0xA0 DUP4 ADD MSTORE PUSH1 0xC0 DUP3 ADD MSTORE RETURN JUMPDEST CALLVALUE PUSH2 0x1AB JUMPI PUSH1 0x20 CALLDATASIZE PUSH1 0x3 NOT ADD SLT PUSH2 0x1AB JUMPI PUSH1 0xA0 PUSH2 0x38C PUSH2 0xF80 JUMP JUMPDEST PUSH1 0x0 PUSH1 0x1 DUP1 DUP5 SHL SUB DUP3 AND PUSH1 0x0 MSTORE PUSH1 0x3 PUSH1 0x20 MSTORE PUSH1 0x40 PUSH1 0x0 KECCAK256 PUSH1 0x40 MLOAD SWAP3 PUSH2 0x3B0 DUP5 PUSH2 0x1007 JUMP JUMPDEST DUP2 SLOAD SWAP4 DUP5 DUP2 MSTORE PUSH1 0x1 DUP4 ADD SLOAD SWAP1 PUSH2 0x3E2 PUSH1 0x3 PUSH1 0x20 DUP4 ADD SWAP6 DUP5 DUP8 MSTORE PUSH1 0x2 DUP2 ADD SLOAD PUSH1 0x40 DUP6 ADD MSTORE ADD SLOAD SWAP4 PUSH1 0x60 DUP4 ADD SWAP5 DUP6 MSTORE PUSH2 0x14C7 JUMP JUMPDEST SWAP3 MLOAD SWAP4 DUP2 MLOAD PUSH2 0x40A JUMPI JUMPDEST POP POP PUSH1 0x40 MLOAD SWAP5 DUP6 MSTORE PUSH1 0x20 DUP6 ADD MSTORE PUSH1 0x40 DUP5 ADD MSTORE PUSH1 0x60 DUP4 ADD MSTORE PUSH1 0x80 DUP3 ADD MSTORE RETURN JUMPDEST PUSH2 0x422 SWAP3 SWAP6 POP PUSH2 0x41B SWAP1 MLOAD TIMESTAMP PUSH2 0xFFA JUMP JUMPDEST SWAP1 MLOAD PUSH2 0x17E3 JUMP JUMPDEST SWAP3 DUP7 DUP1 PUSH2 0x3EC JUMP JUMPDEST CALLVALUE PUSH2 0x1AB JUMPI PUSH1 0x0 CALLDATASIZE PUSH1 0x3 NOT ADD SLT PUSH2 0x1AB JUMPI PUSH2 0x443 PUSH2 0x1440 JUMP JUMPDEST PUSH2 0x44B PUSH2 0x1557 JUMP JUMPDEST PUSH1 0x9 SSTORE TIMESTAMP PUSH1 0x8 SSTORE CALLER PUSH2 0x467 JUMPI JUMPDEST PUSH2 0x460 PUSH2 0x12FA JUMP JUMPDEST PUSH1 0x1 PUSH1 0x0 SSTORE STOP JUMPDEST PUSH2 0x470 CALLER PUSH2 0x1462 JUMP JUMPDEST PUSH2 0x458 JUMP JUMPDEST CALLVALUE PUSH2 0x1AB JUMPI PUSH1 0x20 CALLDATASIZE PUSH1 0x3 NOT ADD SLT PUSH2 0x1AB JUMPI PUSH1 0x4 CALLDATALOAD PUSH2 0x491 PUSH2 0x1440 JUMP JUMPDEST PUSH2 0x499 PUSH2 0x1557 JUMP JUMPDEST PUSH1 0x9 SSTORE TIMESTAMP PUSH1 0x8 SSTORE CALLER PUSH2 0x6D0 JUMPI JUMPDEST DUP1 ISZERO PUSH2 0x6BF JUMPI CALLER PUSH1 0x0 MSTORE PUSH1 0xE PUSH1 0x20 MSTORE PUSH1 0xFF PUSH1 0x40 PUSH1 0x0 KECCAK256 SLOAD AND PUSH2 0x6AE JUMPI PUSH1 0x40 MLOAD PUSH4 0x23B872DD PUSH1 0xE0 SHL DUP2 MSTORE CALLER PUSH1 0x4 DUP3 ADD MSTORE ADDRESS PUSH1 0x24 DUP3 ADD MSTORE PUSH1 0x44 DUP2 ADD DUP3 SWAP1 MSTORE PUSH1 0x20 DUP2 PUSH1 0x64 DUP2 PUSH1 0x0 PUSH1 0x1 PUSH1 0x1 PUSH1 0xA0 SHL SUB PUSH32 0x0 AND GAS CALL SWAP1 DUP2 ISZERO PUSH2 0x6A2 JUMPI PUSH1 0x0 SWAP2 PUSH2 0x673 JUMPI JUMPDEST POP ISZERO PUSH2 0x662 JUMPI CALLER PUSH1 0x0 MSTORE PUSH1 0x3 PUSH1 0x20 MSTORE PUSH1 0x40 PUSH1 0x0 KECCAK256 CALLER PUSH1 0x0 MSTORE PUSH1 0x5 PUSH1 0x20 MSTORE PUSH1 0xFF PUSH1 0x40 PUSH1 0x0 KECCAK256 SLOAD AND ISZERO PUSH2 0x5B6 JUMPI JUMPDEST PUSH2 0x55C DUP3 DUP3 SLOAD PUSH2 0xFED JUMP JUMPDEST SWAP1 SSTORE PUSH2 0x56A DUP2 PUSH1 0xA SLOAD PUSH2 0xFED JUMP JUMPDEST PUSH1 0xA SSTORE PUSH2 0x575 PUSH2 0x183D JUMP JUMPDEST PUSH1 0xF SSTORE TIMESTAMP PUSH1 0x10 SSTORE PUSH1 0x40 MLOAD SWAP1 DUP2 MSTORE TIMESTAMP PUSH1 0x20 DUP3 ADD MSTORE PUSH32 0x1449C6DD7851ABC30ABF37F57715F492010519147CC2652FBC38202C18A6EE90 PUSH1 0x40 CALLER SWAP3 LOG2 PUSH2 0x460 PUSH2 0x16BD JUMP JUMPDEST PUSH1 0x4 SLOAD PUSH9 0x10000000000000000 DUP2 LT ISZERO PUSH2 0x64C JUMPI PUSH2 0x5DD DUP2 PUSH1 0x1 PUSH2 0x5FB SWAP4 ADD PUSH1 0x4 SSTORE PUSH2 0xF96 JUMP JUMPDEST DUP2 SLOAD PUSH1 0x1 PUSH1 0x1 PUSH1 0xA0 SHL SUB PUSH1 0x3 SWAP3 SWAP1 SWAP3 SHL SWAP2 DUP3 SHL NOT AND CALLER SWAP1 SWAP2 SHL OR SWAP1 SSTORE JUMP JUMPDEST CALLER PUSH1 0x0 MSTORE PUSH1 0x5 PUSH1 0x20 MSTORE PUSH1 0x40 PUSH1 0x0 KECCAK256 PUSH1 0x1 PUSH1 0xFF NOT DUP3 SLOAD AND OR SWAP1 SSTORE TIMESTAMP PUSH1 0x1 DUP3 ADD SSTORE TIMESTAMP PUSH1 0x2 DUP3 ADD SSTORE PUSH2 0x628 PUSH2 0x1557 JUMP JUMPDEST CALLER PUSH1 0x0 MSTORE PUSH1 0x11 PUSH1 0x20 MSTORE PUSH1 0x40 PUSH1 0x0 KECCAK256 SSTORE CALLER PUSH1 0x0 MSTORE PUSH1 0x12 PUSH1 0x20 MSTORE PUSH1 0x0 PUSH1 0x40 DUP2 KECCAK256 SSTORE PUSH2 0x551 JUMP JUMPDEST PUSH4 0x4E487B71 PUSH1 0xE0 SHL PUSH1 0x0 MSTORE PUSH1 0x41 PUSH1 0x4 MSTORE PUSH1 0x24 PUSH1 0x0 REVERT JUMPDEST PUSH4 0x12171D83 PUSH1 0xE3 SHL PUSH1 0x0 MSTORE PUSH1 0x4 PUSH1 0x0 REVERT JUMPDEST PUSH2 0x695 SWAP2 POP PUSH1 0x20 RETURNDATASIZE PUSH1 0x20 GT PUSH2 0x69B JUMPI JUMPDEST PUSH2 0x68D DUP2 DUP4 PUSH2 0x1023 JUMP JUMPDEST DUP2 ADD SWAP1 PUSH2 0x1045 JUMP JUMPDEST DUP3 PUSH2 0x525 JUMP JUMPDEST POP RETURNDATASIZE PUSH2 0x683 JUMP JUMPDEST PUSH1 0x40 MLOAD RETURNDATASIZE PUSH1 0x0 DUP3 RETURNDATACOPY RETURNDATASIZE SWAP1 REVERT JUMPDEST PUSH4 0x6BAE2ECF PUSH1 0xE0 SHL PUSH1 0x0 MSTORE PUSH1 0x4 PUSH1 0x0 REVERT JUMPDEST PUSH4 0x162908E3 PUSH1 0xE1 SHL PUSH1 0x0 MSTORE PUSH1 0x4 PUSH1 0x0 REVERT JUMPDEST PUSH2 0x6D9 CALLER PUSH2 0x1462 JUMP JUMPDEST PUSH2 0x4A6 JUMP JUMPDEST CALLVALUE PUSH2 0x1AB JUMPI PUSH1 0x40 CALLDATASIZE PUSH1 0x3 NOT ADD SLT PUSH2 0x1AB JUMPI PUSH2 0x6F7 PUSH2 0xF80 JUMP JUMPDEST PUSH32 0x0 SWAP1 CALLER PUSH1 0x1 PUSH1 0x1 PUSH1 0xA0 SHL SUB DUP4 AND EQ ISZERO DUP1 PUSH2 0x79D JUMPI JUMPDEST PUSH2 0x78C JUMPI PUSH1 0x40 MLOAD PUSH4 0xA9059CBB PUSH1 0xE0 SHL DUP2 MSTORE PUSH1 0x1 PUSH1 0x1 PUSH1 0xA0 SHL SUB SWAP3 DUP4 AND PUSH1 0x4 DUP3 ADD MSTORE PUSH1 0x24 DUP1 CALLDATALOAD SWAP1 DUP3 ADD MSTORE SWAP2 PUSH1 0x20 SWAP2 DUP4 SWAP2 PUSH1 0x44 SWAP2 DUP4 SWAP2 PUSH1 0x0 SWAP2 AND GAS CALL DUP1 ISZERO PUSH2 0x6A2 JUMPI PUSH2 0x772 JUMPI STOP JUMPDEST PUSH2 0x78A SWAP1 PUSH1 0x20 RETURNDATASIZE PUSH1 0x20 GT PUSH2 0x69B JUMPI PUSH2 0x68D DUP2 DUP4 PUSH2 0x1023 JUMP JUMPDEST STOP JUMPDEST PUSH4 0x47556579 PUSH1 0xE0 SHL PUSH1 0x0 MSTORE PUSH1 0x4 PUSH1 0x0 REVERT JUMPDEST POP PUSH1 0x1 SLOAD PUSH1 0x1 PUSH1 0x1 PUSH1 0xA0 SHL SUB AND CALLER EQ ISZERO PUSH2 0x72C JUMP JUMPDEST CALLVALUE PUSH2 0x1AB JUMPI PUSH1 0x0 CALLDATASIZE PUSH1 0x3 NOT ADD SLT PUSH2 0x1AB JUMPI PUSH1 0x1 SLOAD PUSH1 0x40 MLOAD PUSH1 0x1 PUSH1 0x1 PUSH1 0xA0 SHL SUB SWAP1 SWAP2 AND DUP2 MSTORE PUSH1 0x20 SWAP1 RETURN JUMPDEST CALLVALUE PUSH2 0x1AB JUMPI PUSH1 0x20 CALLDATASIZE PUSH1 0x3 NOT ADD SLT PUSH2 0x1AB JUMPI CALLER PUSH32 0x0 PUSH1 0x1 PUSH1 0x1 PUSH1 0xA0 SHL SUB AND EQ ISZERO DUP1 PUSH2 0x83D JUMPI JUMPDEST PUSH2 0x78C JUMPI PUSH2 0x82B PUSH2 0x1557 JUMP JUMPDEST PUSH1 0x9 SSTORE TIMESTAMP PUSH1 0x8 SSTORE PUSH2 0x78A PUSH1 0x4 CALLDATALOAD PUSH2 0x1213 JUMP JUMPDEST POP PUSH1 0x1 SLOAD PUSH1 0x1 PUSH1 0x1 PUSH1 0xA0 SHL SUB AND CALLER EQ ISZERO PUSH2 0x81F JUMP JUMPDEST CALLVALUE PUSH2 0x1AB JUMPI PUSH1 0x20 CALLDATASIZE PUSH1 0x3 NOT ADD SLT PUSH2 0x1AB JUMPI PUSH1 0x1 PUSH1 0x1 PUSH1 0xA0 SHL SUB PUSH2 0x873 PUSH2 0xF80 JUMP JUMPDEST AND PUSH1 0x0 MSTORE PUSH1 0x11 PUSH1 0x20 MSTORE PUSH1 0x20 PUSH1 0x40 PUSH1 0x0 KECCAK256 SLOAD PUSH1 0x40 MLOAD SWAP1 DUP2 MSTORE RETURN JUMPDEST CALLVALUE PUSH2 0x1AB JUMPI PUSH1 0x20 CALLDATASIZE PUSH1 0x3 NOT ADD SLT PUSH2 0x1AB JUMPI PUSH1 0x20 PUSH2 0x8AF PUSH2 0x8AA PUSH2 0xF80 JUMP JUMPDEST PUSH2 0x11B3 JUMP JUMPDEST PUSH1 0x40 MLOAD SWAP1 ISZERO ISZERO DUP2 MSTORE RETURN JUMPDEST CALLVALUE PUSH2 0x1AB JUMPI PUSH1 0x20 CALLDATASIZE PUSH1 0x3 NOT ADD SLT PUSH2 0x1AB JUMPI CALLER PUSH32 0x0 PUSH1 0x1 PUSH1 0x1 PUSH1 0xA0 SHL SUB AND EQ ISZERO DUP1 PUSH2 0x90C JUMPI JUMPDEST PUSH2 0x78C JUMPI PUSH2 0x78A PUSH1 0x4 CALLDATALOAD PUSH2 0x10E1 JUMP JUMPDEST POP PUSH1 0x1 SLOAD PUSH1 0x1 PUSH1 0x1 PUSH1 0xA0 SHL SUB AND CALLER EQ ISZERO PUSH2 0x8FD JUMP JUMPDEST CALLVALUE PUSH2 0x1AB JUMPI PUSH1 0x0 CALLDATASIZE PUSH1 0x3 NOT ADD SLT PUSH2 0x1AB JUMPI PUSH2 0x93A PUSH2 0x17BA JUMP JUMPDEST PUSH1 0x1 DUP1 SLOAD PUSH1 0x1 PUSH1 0x1 PUSH1 0xA0 SHL SUB NOT DUP2 AND SWAP1 SWAP2 SSTORE PUSH1 0x0 SWAP1 PUSH1 0x1 PUSH1 0x1 PUSH1 0xA0 SHL SUB AND PUSH32 0x8BE0079C531659141344CD1FD0A4F28419497F9722A3DAAFE3B4186F6B6457E0 DUP3 DUP1 LOG3 STOP JUMPDEST CALLVALUE PUSH2 0x1AB JUMPI PUSH1 0x0 CALLDATASIZE PUSH1 0x3 NOT ADD SLT PUSH2 0x1AB JUMPI PUSH1 0x20 PUSH1 0x2 SLOAD PUSH1 0x40 MLOAD SWAP1 DUP2 MSTORE RETURN JUMPDEST CALLVALUE PUSH2 0x1AB JUMPI PUSH1 0x20 CALLDATASIZE PUSH1 0x3 NOT ADD SLT PUSH2 0x1AB JUMPI PUSH1 0x1 PUSH1 0x1 PUSH1 0xA0 SHL SUB PUSH2 0x9BD PUSH2 0xF80 JUMP JUMPDEST AND PUSH1 0x0 MSTORE PUSH1 0x5 PUSH1 0x20 MSTORE PUSH1 0x20 PUSH1 0xFF PUSH1 0x40 PUSH1 0x0 KECCAK256 SLOAD AND PUSH1 0x40 MLOAD SWAP1 ISZERO ISZERO DUP2 MSTORE RETURN JUMPDEST CALLVALUE PUSH2 0x1AB JUMPI PUSH1 0x20 CALLDATASIZE PUSH1 0x3 NOT ADD SLT PUSH2 0x1AB JUMPI PUSH1 0x60 PUSH2 0x9FE PUSH2 0x9F9 PUSH2 0xF80 JUMP JUMPDEST PUSH2 0x105D JUMP JUMPDEST SWAP1 PUSH1 0x40 MLOAD SWAP3 ISZERO ISZERO DUP4 MSTORE PUSH1 0x20 DUP4 ADD MSTORE PUSH1 0x40 DUP3 ADD MSTORE RETURN JUMPDEST CALLVALUE PUSH2 0x1AB JUMPI PUSH1 0x0 CALLDATASIZE PUSH1 0x3 NOT ADD SLT PUSH2 0x1AB JUMPI PUSH2 0x100 PUSH1 0x6 SLOAD PUSH1 0x7 SLOAD PUSH1 0x8 SLOAD PUSH1 0x9 SLOAD PUSH1 0xA SLOAD PUSH1 0xB SLOAD SWAP2 PUSH1 0xC SLOAD SWAP4 PUSH1 0xD SLOAD SWAP6 PUSH1 0x40 MLOAD SWAP8 DUP9 MSTORE PUSH1 0x20 DUP9 ADD MSTORE PUSH1 0x40 DUP8 ADD MSTORE PUSH1 0x60 DUP7 ADD MSTORE PUSH1 0x80 DUP6 ADD MSTORE PUSH1 0xA0 DUP5 ADD MSTORE PUSH1 0xC0 DUP4 ADD MSTORE PUSH1 0xE0 DUP3 ADD MSTORE RETURN JUMPDEST CALLVALUE PUSH2 0x1AB JUMPI PUSH1 0x0 CALLDATASIZE PUSH1 0x3 NOT ADD SLT PUSH2 0x1AB JUMPI PUSH1 0x40 MLOAD PUSH32 0x0 PUSH1 0x1 PUSH1 0x1 PUSH1 0xA0 SHL SUB AND DUP2 MSTORE PUSH1 0x20 SWAP1 RETURN JUMPDEST CALLVALUE PUSH2 0x1AB JUMPI PUSH1 0x0 CALLDATASIZE PUSH1 0x3 NOT ADD SLT PUSH2 0x1AB JUMPI PUSH1 0x40 MLOAD PUSH32 0x0 PUSH1 0x1 PUSH1 0x1 PUSH1 0xA0 SHL SUB AND DUP2 MSTORE PUSH1 0x20 SWAP1 RETURN JUMPDEST CALLVALUE PUSH2 0x1AB JUMPI PUSH1 0x0 CALLDATASIZE PUSH1 0x3 NOT ADD SLT PUSH2 0x1AB JUMPI PUSH1 0x20 PUSH1 0x4 SLOAD PUSH1 0x40 MLOAD SWAP1 DUP2 MSTORE RETURN JUMPDEST CALLVALUE PUSH2 0x1AB JUMPI PUSH1 0x0 CALLDATASIZE PUSH1 0x3 NOT ADD SLT PUSH2 0x1AB JUMPI PUSH1 0x20 PUSH1 0x40 MLOAD PUSH3 0x15180 DUP2 MSTORE RETURN JUMPDEST CALLVALUE PUSH2 0x1AB JUMPI PUSH1 0x0 CALLDATASIZE PUSH1 0x3 NOT ADD SLT PUSH2 0x1AB JUMPI PUSH1 0x40 MLOAD PUSH32 0x0 PUSH1 0x1 PUSH1 0x1 PUSH1 0xA0 SHL SUB AND DUP2 MSTORE PUSH1 0x20 SWAP1 RETURN JUMPDEST CALLVALUE PUSH2 0x1AB JUMPI PUSH1 0x20 CALLDATASIZE PUSH1 0x3 NOT ADD SLT PUSH2 0x1AB JUMPI PUSH1 0x4 CALLDATALOAD PUSH2 0xB94 PUSH2 0x1440 JUMP JUMPDEST PUSH2 0xB9C PUSH2 0x1557 JUMP JUMPDEST PUSH1 0x9 SSTORE TIMESTAMP PUSH1 0x8 SSTORE CALLER PUSH2 0xE18 JUMPI JUMPDEST CALLER PUSH1 0x0 MSTORE PUSH1 0x3 PUSH1 0x20 MSTORE PUSH1 0x40 PUSH1 0x0 KECCAK256 DUP1 SLOAD DUP1 ISZERO PUSH2 0xE07 JUMPI DUP3 ISZERO SWAP1 DUP2 ISZERO PUSH2 0xDFD JUMPI JUMPDEST POP PUSH2 0x6BF JUMPI PUSH2 0xBDB PUSH1 0x1 DUP3 ADD SLOAD PUSH2 0xFC7 JUMP JUMPDEST TIMESTAMP LT PUSH2 0xDEC JUMPI PUSH2 0xBEA CALLER PUSH2 0x14C7 JUMP JUMPDEST SWAP1 DUP2 PUSH2 0xCEC JUMPI JUMPDEST PUSH2 0xBFC DUP4 DUP3 SLOAD PUSH2 0xFFA JUMP JUMPDEST DUP2 SSTORE PUSH2 0xC0A DUP4 PUSH1 0xA SLOAD PUSH2 0xFFA JUMP JUMPDEST PUSH1 0xA SSTORE SLOAD ISZERO PUSH2 0xCDE JUMPI JUMPDEST PUSH2 0xC1C PUSH2 0x183D JUMP JUMPDEST PUSH1 0xF SSTORE TIMESTAMP PUSH1 0x10 SSTORE PUSH1 0x40 MLOAD PUSH4 0xA9059CBB PUSH1 0xE0 SHL DUP2 MSTORE CALLER PUSH1 0x4 DUP3 ADD MSTORE PUSH1 0x24 DUP2 ADD DUP4 SWAP1 MSTORE PUSH1 0x20 DUP2 PUSH1 0x44 DUP2 PUSH1 0x0 PUSH1 0x1 PUSH1 0x1 PUSH1 0xA0 SHL SUB PUSH32 0x0 AND GAS CALL SWAP1 DUP2 ISZERO PUSH2 0x6A2 JUMPI PUSH1 0x0 SWAP2 PUSH2 0xCBF JUMPI JUMPDEST POP ISZERO PUSH2 0x662 JUMPI PUSH1 0x40 MLOAD SWAP2 DUP3 MSTORE PUSH1 0x20 DUP3 ADD MSTORE PUSH32 0x7FC4727E062E336010F2C282598EF5F14FACB3DE68CF8195C2F23E1454B2B74E PUSH1 0x40 CALLER SWAP3 LOG2 PUSH2 0x460 PUSH2 0x16BD JUMP JUMPDEST PUSH2 0xCD8 SWAP2 POP PUSH1 0x20 RETURNDATASIZE PUSH1 0x20 GT PUSH2 0x69B JUMPI PUSH2 0x68D DUP2 DUP4 PUSH2 0x1023 JUMP JUMPDEST DUP4 PUSH2 0xC80 JUMP JUMPDEST PUSH2 0xCE7 CALLER PUSH2 0x15AE JUMP JUMPDEST PUSH2 0xC14 JUMP JUMPDEST CALLER PUSH1 0x0 MSTORE PUSH1 0x12 PUSH1 0x20 MSTORE PUSH1 0x0 PUSH1 0x40 DUP2 KECCAK256 SSTORE PUSH2 0xD04 PUSH2 0x1557 JUMP JUMPDEST CALLER PUSH1 0x0 MSTORE PUSH1 0x11 PUSH1 0x20 MSTORE PUSH1 0x40 PUSH1 0x0 KECCAK256 SSTORE PUSH1 0x3 DUP2 ADD PUSH2 0xD22 DUP4 DUP3 SLOAD PUSH2 0xFED JUMP JUMPDEST SWAP1 SSTORE TIMESTAMP PUSH1 0x2 DUP3 ADD SSTORE PUSH2 0xD36 DUP3 PUSH1 0xC SLOAD PUSH2 0xFED JUMP JUMPDEST PUSH1 0xC SSTORE PUSH1 0xD SLOAD DUP3 DUP1 DUP3 GT ISZERO PUSH2 0xDE3 JUMPI PUSH2 0xD4E SWAP2 PUSH2 0xFFA JUMP JUMPDEST PUSH1 0xD SSTORE PUSH1 0x40 MLOAD PUSH4 0xA9059CBB PUSH1 0xE0 SHL DUP2 MSTORE CALLER PUSH1 0x4 DUP3 ADD MSTORE PUSH1 0x24 DUP2 ADD DUP4 SWAP1 MSTORE PUSH1 0x20 DUP2 PUSH1 0x44 DUP2 PUSH1 0x0 PUSH1 0x1 PUSH1 0x1 PUSH1 0xA0 SHL SUB PUSH32 0x0 AND GAS CALL SWAP1 DUP2 ISZERO PUSH2 0x6A2 JUMPI PUSH1 0x0 SWAP2 PUSH2 0xDC4 JUMPI JUMPDEST POP PUSH2 0xBF1 JUMPI PUSH4 0x12171D83 PUSH1 0xE3 SHL PUSH1 0x0 MSTORE PUSH1 0x4 PUSH1 0x0 REVERT JUMPDEST PUSH2 0xDDD SWAP2 POP PUSH1 0x20 RETURNDATASIZE PUSH1 0x20 GT PUSH2 0x69B JUMPI PUSH2 0x68D DUP2 DUP4 PUSH2 0x1023 JUMP JUMPDEST DUP5 PUSH2 0xDAE JUMP JUMPDEST POP POP PUSH1 0x0 PUSH2 0xD4E JUMP JUMPDEST PUSH4 0x8D9C2D7F PUSH1 0xE0 SHL PUSH1 0x0 MSTORE PUSH1 0x4 PUSH1 0x0 REVERT JUMPDEST SWAP1 POP DUP3 GT DUP4 PUSH2 0xBC9 JUMP JUMPDEST PUSH4 0x2CDF4781 PUSH1 0xE1 SHL PUSH1 0x0 MSTORE PUSH1 0x4 PUSH1 0x0 REVERT JUMPDEST PUSH2 0xE21 CALLER PUSH2 0x1462 JUMP JUMPDEST PUSH2 0xBA9 JUMP JUMPDEST CALLVALUE PUSH2 0x1AB JUMPI PUSH1 0x40 CALLDATASIZE PUSH1 0x3 NOT ADD SLT PUSH2 0x1AB JUMPI PUSH2 0xE3F PUSH2 0xF80 JUMP JUMPDEST PUSH1 0x24 CALLDATALOAD SWAP1 DUP2 ISZERO ISZERO DUP1 SWAP3 SUB PUSH2 0x1AB JUMPI CALLER PUSH32 0x0 PUSH1 0x1 PUSH1 0x1 PUSH1 0xA0 SHL SUB AND EQ ISZERO DUP1 PUSH2 0xED4 JUMPI JUMPDEST PUSH2 0x78C JUMPI PUSH1 0x20 PUSH32 0x41A696DFBDED725D7A02BF24DB905BC48040509581DD59098D66B9AA7416BB5E SWAP2 PUSH1 0x1 DUP1 PUSH1 0xA0 SHL SUB AND SWAP3 DUP4 PUSH1 0x0 MSTORE PUSH1 0xE DUP3 MSTORE PUSH1 0x40 PUSH1 0x0 KECCAK256 PUSH1 0xFF NOT DUP2 SLOAD AND PUSH1 0xFF DUP4 AND OR SWAP1 SSTORE PUSH1 0x40 MLOAD SWAP1 DUP2 MSTORE LOG2 STOP JUMPDEST POP PUSH1 0x1 SLOAD PUSH1 0x1 PUSH1 0x1 PUSH1 0xA0 SHL SUB AND CALLER EQ ISZERO PUSH2 0xE80 JUMP JUMPDEST CALLVALUE PUSH2 0x1AB JUMPI PUSH1 0x20 CALLDATASIZE PUSH1 0x3 NOT ADD SLT PUSH2 0x1AB JUMPI PUSH1 0x1 PUSH1 0x1 PUSH1 0xA0 SHL SUB PUSH2 0xF0A PUSH2 0xF80 JUMP JUMPDEST AND PUSH1 0x0 MSTORE PUSH1 0x3 PUSH1 0x20 MSTORE PUSH1 0x80 PUSH1 0x40 PUSH1 0x0 KECCAK256 DUP1 SLOAD SWAP1 PUSH1 0x1 DUP2 ADD SLOAD SWAP1 PUSH1 0x3 PUSH1 0x2 DUP3 ADD SLOAD SWAP2 ADD SLOAD SWAP2 PUSH1 0x40 MLOAD SWAP4 DUP5 MSTORE PUSH1 0x20 DUP5 ADD MSTORE PUSH1 0x40 DUP4 ADD MSTORE PUSH1 0x60 DUP3 ADD MSTORE RETURN JUMPDEST CALLVALUE PUSH2 0x1AB JUMPI PUSH1 0x20 CALLDATASIZE PUSH1 0x3 NOT ADD SLT PUSH2 0x1AB JUMPI PUSH1 0x20 SWAP1 PUSH1 0x1 PUSH1 0x1 PUSH1 0xA0 SHL SUB PUSH2 0xF69 PUSH2 0xF80 JUMP JUMPDEST AND PUSH1 0x0 MSTORE PUSH1 0xE DUP3 MSTORE PUSH1 0xFF PUSH1 0x40 PUSH1 0x0 KECCAK256 SLOAD AND ISZERO ISZERO DUP2 MSTORE RETURN JUMPDEST PUSH1 0x4 CALLDATALOAD SWAP1 PUSH1 0x1 PUSH1 0x1 PUSH1 0xA0 SHL SUB DUP3 AND DUP3 SUB PUSH2 0x1AB JUMPI JUMP JUMPDEST PUSH1 0x4 SLOAD DUP2 LT ISZERO PUSH2 0xFB1 JUMPI PUSH1 0x4 PUSH1 0x0 MSTORE PUSH1 0x20 PUSH1 0x0 KECCAK256 ADD SWAP1 PUSH1 0x0 SWAP1 JUMP JUMPDEST PUSH4 0x4E487B71 PUSH1 0xE0 SHL PUSH1 0x0 MSTORE PUSH1 0x32 PUSH1 0x4 MSTORE PUSH1 0x24 PUSH1 0x0 REVERT JUMPDEST SWAP1 PUSH3 0x15180 DUP3 ADD DUP1 SWAP3 GT PUSH2 0xFD7 JUMPI JUMP JUMPDEST PUSH4 0x4E487B71 PUSH1 0xE0 SHL PUSH1 0x0 MSTORE PUSH1 0x11 PUSH1 0x4 MSTORE PUSH1 0x24 PUSH1 0x0 REVERT JUMPDEST SWAP2 SWAP1 DUP3 ADD DUP1 SWAP3 GT PUSH2 0xFD7 JUMPI JUMP JUMPDEST SWAP2 SWAP1 DUP3 SUB SWAP2 DUP3 GT PUSH2 0xFD7 JUMPI JUMP JUMPDEST PUSH1 0x80 DUP2 ADD SWAP1 DUP2 LT PUSH8 0xFFFFFFFFFFFFFFFF DUP3 GT OR PUSH2 0x64C JUMPI PUSH1 0x40 MSTORE JUMP JUMPDEST SWAP1 PUSH1 0x1F DUP1 NOT SWAP2 ADD AND DUP2 ADD SWAP1 DUP2 LT PUSH8 0xFFFFFFFFFFFFFFFF DUP3 GT OR PUSH2 0x64C JUMPI PUSH1 0x40 MSTORE JUMP JUMPDEST SWAP1 DUP2 PUSH1 0x20 SWAP2 SUB SLT PUSH2 0x1AB JUMPI MLOAD DUP1 ISZERO ISZERO DUP2 SUB PUSH2 0x1AB JUMPI SWAP1 JUMP JUMPDEST PUSH1 0x1 DUP1 PUSH1 0xA0 SHL SUB AND PUSH1 0x0 MSTORE PUSH1 0x3 PUSH1 0x20 MSTORE PUSH1 0x40 PUSH1 0x0 KECCAK256 PUSH1 0x40 MLOAD SWAP1 PUSH2 0x107F DUP3 PUSH2 0x1007 JUMP JUMPDEST DUP1 SLOAD SWAP2 DUP3 DUP2 MSTORE PUSH1 0x60 PUSH1 0x3 PUSH1 0x1 DUP5 ADD SLOAD SWAP4 DUP5 PUSH1 0x20 DUP6 ADD MSTORE PUSH1 0x2 DUP2 ADD SLOAD PUSH1 0x40 DUP6 ADD MSTORE ADD SLOAD SWAP2 ADD MSTORE DUP2 DUP1 ISZERO PUSH2 0x10D6 JUMPI POP PUSH2 0x10B5 SWAP1 PUSH2 0xFC7 JUMP JUMPDEST TIMESTAMP DUP2 GT PUSH2 0x10C5 JUMPI POP PUSH1 0x1 SWAP2 PUSH1 0x0 SWAP1 JUMP JUMPDEST SWAP2 PUSH2 0x10D3 PUSH1 0x0 SWAP4 TIMESTAMP SWAP1 PUSH2 0xFFA JUMP JUMPDEST SWAP1 JUMP JUMPDEST PUSH1 0x0 SWAP4 SWAP1 SWAP3 POP DUP4 SWAP2 POP JUMP JUMPDEST DUP1 ISZERO PUSH2 0x11B0 JUMPI PUSH1 0x40 MLOAD PUSH4 0x23B872DD PUSH1 0xE0 SHL DUP2 MSTORE CALLER PUSH1 0x4 DUP3 ADD MSTORE ADDRESS PUSH1 0x24 DUP3 ADD MSTORE PUSH1 0x44 DUP2 ADD DUP3 SWAP1 MSTORE PUSH1 0x20 DUP2 PUSH1 0x64 DUP2 PUSH1 0x0 PUSH1 0x1 PUSH1 0x1 PUSH1 0xA0 SHL SUB PUSH32 0x0 AND GAS CALL SWAP1 DUP2 ISZERO PUSH2 0x6A2 JUMPI PUSH1 0x0 SWAP2 PUSH2 0x1191 JUMPI JUMPDEST POP ISZERO PUSH2 0x662 JUMPI PUSH1 0x40 DUP2 PUSH2 0x1180 PUSH32 0xCC262DF37E95BD0C34586A7F3CAD8B5F26A8DDDFEA761D63314F024F0FE3F0C1 SWAP4 PUSH1 0x2 SLOAD PUSH2 0xFED JUMP JUMPDEST DUP1 PUSH1 0x2 SSTORE DUP3 MLOAD SWAP2 DUP3 MSTORE PUSH1 0x20 DUP3 ADD MSTORE LOG1 JUMP JUMPDEST PUSH2 0x11AA SWAP2 POP PUSH1 0x20 RETURNDATASIZE PUSH1 0x20 GT PUSH2 0x69B JUMPI PUSH2 0x68D DUP2 DUP4 PUSH2 0x1023 JUMP JUMPDEST CODESIZE PUSH2 0x114A JUMP JUMPDEST POP JUMP JUMPDEST PUSH1 0x1 DUP1 PUSH1 0xA0 SHL SUB AND PUSH1 0x0 MSTORE PUSH1 0x3 PUSH1 0x20 MSTORE PUSH1 0x40 PUSH1 0x0 KECCAK256 PUSH1 0x40 MLOAD PUSH2 0x11D4 DUP2 PUSH2 0x1007 JUMP JUMPDEST DUP2 SLOAD SWAP1 DUP2 DUP2 MSTORE PUSH1 0x60 PUSH1 0x3 PUSH1 0x1 DUP6 ADD SLOAD SWAP5 DUP6 PUSH1 0x20 DUP6 ADD MSTORE PUSH1 0x2 DUP2 ADD SLOAD PUSH1 0x40 DUP6 ADD MSTORE ADD SLOAD SWAP2 ADD MSTORE ISZERO PUSH2 0x120D JUMPI PUSH2 0x1207 SWAP1 PUSH2 0xFC7 JUMP JUMPDEST TIMESTAMP LT ISZERO SWAP1 JUMP JUMPDEST POP PUSH1 0x0 SWAP1 JUMP JUMPDEST DUP1 ISZERO PUSH2 0x11B0 JUMPI PUSH1 0x40 MLOAD PUSH4 0x23B872DD PUSH1 0xE0 SHL DUP2 MSTORE CALLER PUSH1 0x4 DUP3 ADD MSTORE ADDRESS PUSH1 0x24 DUP3 ADD MSTORE PUSH1 0x44 DUP2 ADD DUP3 SWAP1 MSTORE PUSH1 0x20 DUP2 PUSH1 0x64 DUP2 PUSH1 0x0 PUSH1 0x1 PUSH1 0x1 PUSH1 0xA0 SHL SUB PUSH32 0x0 AND GAS CALL SWAP1 DUP2 ISZERO PUSH2 0x6A2 JUMPI PUSH1 0x0 SWAP2 PUSH2 0x12DB JUMPI JUMPDEST POP ISZERO PUSH2 0x662 JUMPI PUSH1 0x40 DUP2 PUSH2 0x12B2 PUSH32 0x8AD0C4905AA5603107E860E0C2B1A78E23EBA312C30F8114A70D94D9E187F5AF SWAP4 PUSH1 0x6 SLOAD PUSH2 0xFED JUMP JUMPDEST PUSH1 0x6 SSTORE PUSH3 0x93A80 PUSH2 0x12C5 DUP3 PUSH1 0xD SLOAD PUSH2 0xFED JUMP JUMPDEST DUP1 PUSH1 0xD SSTORE DIV DUP1 PUSH1 0x7 SSTORE DUP3 MLOAD SWAP2 DUP3 MSTORE PUSH1 0x20 DUP3 ADD MSTORE LOG1 JUMP JUMPDEST PUSH2 0x12F4 SWAP2 POP PUSH1 0x20 RETURNDATASIZE PUSH1 0x20 GT PUSH2 0x69B JUMPI PUSH2 0x68D DUP2 DUP4 PUSH2 0x1023 JUMP JUMPDEST CODESIZE PUSH2 0x127C JUMP JUMPDEST PUSH2 0x1303 CALLER PUSH2 0x14C7 JUMP JUMPDEST PUSH2 0x3E8 DUP2 LT PUSH2 0x11B0 JUMPI CALLER PUSH1 0x0 MSTORE PUSH1 0x3 PUSH1 0x20 MSTORE PUSH1 0x40 PUSH1 0x0 KECCAK256 CALLER PUSH1 0x0 MSTORE PUSH1 0x12 PUSH1 0x20 MSTORE PUSH1 0x0 PUSH1 0x40 DUP2 KECCAK256 SSTORE PUSH2 0x1332 PUSH2 0x1557 JUMP JUMPDEST CALLER PUSH1 0x0 MSTORE PUSH1 0x11 PUSH1 0x20 MSTORE PUSH1 0x40 PUSH1 0x0 KECCAK256 SSTORE PUSH1 0x3 DUP2 ADD PUSH2 0x1350 DUP4 DUP3 SLOAD PUSH2 0xFED JUMP JUMPDEST SWAP1 SSTORE PUSH1 0x2 TIMESTAMP SWAP2 ADD SSTORE PUSH2 0x1364 DUP2 PUSH1 0xC SLOAD PUSH2 0xFED JUMP JUMPDEST PUSH1 0xC SSTORE PUSH1 0xD SLOAD DUP2 DUP1 DUP3 GT ISZERO PUSH2 0x1437 JUMPI PUSH2 0x137C SWAP2 PUSH2 0xFFA JUMP JUMPDEST PUSH1 0xD SSTORE PUSH1 0x40 MLOAD PUSH4 0xA9059CBB PUSH1 0xE0 SHL DUP2 MSTORE CALLER PUSH1 0x4 DUP3 ADD MSTORE PUSH1 0x24 DUP2 ADD DUP3 SWAP1 MSTORE PUSH1 0x20 DUP2 PUSH1 0x44 DUP2 PUSH1 0x0 PUSH1 0x1 PUSH1 0x1 PUSH1 0xA0 SHL SUB PUSH32 0x0 AND GAS CALL SWAP1 DUP2 ISZERO PUSH2 0x6A2 JUMPI PUSH1 0x0 SWAP2 PUSH2 0x1418 JUMPI JUMPDEST POP ISZERO PUSH2 0x662 JUMPI PUSH1 0x40 MLOAD SWAP1 DUP2 MSTORE PUSH32 0x106F923F993C2149D49B4255FF723ACAFA1F2D94393F561D3EDA32AE348F7241 PUSH1 0x20 CALLER SWAP3 LOG2 PUSH2 0x1416 PUSH2 0x16BD JUMP JUMPDEST JUMP JUMPDEST PUSH2 0x1431 SWAP2 POP PUSH1 0x20 RETURNDATASIZE PUSH1 0x20 GT PUSH2 0x69B JUMPI PUSH2 0x68D DUP2 DUP4 PUSH2 0x1023 JUMP JUMPDEST CODESIZE PUSH2 0x13DC JUMP JUMPDEST POP POP PUSH1 0x0 PUSH2 0x137C JUMP JUMPDEST PUSH1 0x2 PUSH1 0x0 SLOAD EQ PUSH2 0x1451 JUMPI PUSH1 0x2 PUSH1 0x0 SSTORE JUMP JUMPDEST PUSH4 0x3EE5AEB5 PUSH1 0xE0 SHL PUSH1 0x0 MSTORE PUSH1 0x4 PUSH1 0x0 REVERT JUMPDEST PUSH1 0x1 PUSH1 0x1 PUSH1 0xA0 SHL SUB DUP2 AND DUP1 ISZERO PUSH2 0x14C3 JUMPI DUP1 PUSH1 0x0 MSTORE PUSH1 0x3 PUSH1 0x20 MSTORE PUSH1 0x40 PUSH1 0x0 KECCAK256 SLOAD ISZERO PUSH2 0x14C3 JUMPI PUSH2 0x1498 PUSH2 0x1491 PUSH2 0x1557 JUMP JUMPDEST DUP1 SWAP4 PUSH2 0x18F9 JUMP JUMPDEST DUP2 PUSH1 0x0 MSTORE PUSH1 0x12 PUSH1 0x20 MSTORE PUSH2 0x14B1 PUSH1 0x40 PUSH1 0x0 KECCAK256 SWAP2 DUP3 SLOAD PUSH2 0xFED JUMP JUMPDEST SWAP1 SSTORE PUSH1 0x0 MSTORE PUSH1 0x11 PUSH1 0x20 MSTORE PUSH1 0x40 PUSH1 0x0 KECCAK256 SSTORE JUMP JUMPDEST POP POP JUMP JUMPDEST PUSH1 0x1 PUSH1 0x1 PUSH1 0xA0 SHL SUB DUP2 AND PUSH1 0x0 DUP2 DUP2 MSTORE PUSH1 0x3 PUSH1 0x20 MSTORE PUSH1 0x40 SWAP1 DUP2 SWAP1 KECCAK256 SWAP1 MLOAD PUSH2 0x14EC DUP2 PUSH2 0x1007 JUMP JUMPDEST PUSH1 0x60 PUSH1 0x3 DUP4 SLOAD SWAP4 DUP5 DUP5 MSTORE PUSH1 0x1 DUP2 ADD SLOAD PUSH1 0x20 DUP6 ADD MSTORE PUSH1 0x2 DUP2 ADD SLOAD PUSH1 0x40 DUP6 ADD MSTORE ADD SLOAD SWAP2 ADD MSTORE ISZERO PUSH2 0x153D JUMPI PUSH2 0x1529 PUSH2 0x10D3 SWAP3 PUSH2 0x1523 PUSH2 0x1557 JUMP JUMPDEST SWAP1 PUSH2 0x18F9 JUMP JUMPDEST SWAP1 PUSH1 0x0 MSTORE PUSH1 0x12 PUSH1 0x20 MSTORE PUSH1 0x40 PUSH1 0x0 KECCAK256 SLOAD PUSH2 0xFED JUMP JUMPDEST POP POP PUSH1 0x0 SWAP1 JUMP JUMPDEST DUP2 DUP2 MUL SWAP3 SWAP2 DUP2 ISZERO SWAP2 DUP5 DIV EQ OR ISZERO PUSH2 0xFD7 JUMPI JUMP JUMPDEST PUSH1 0xA SLOAD DUP1 ISZERO PUSH2 0x15A7 JUMPI PUSH2 0x1578 PUSH2 0x156F PUSH1 0x8 SLOAD TIMESTAMP PUSH2 0xFFA JUMP JUMPDEST PUSH1 0x7 SLOAD SWAP1 PUSH2 0x1544 JUMP JUMPDEST SWAP1 PUSH8 0xDE0B6B3A7640000 DUP3 MUL SWAP2 DUP1 DUP4 DIV PUSH8 0xDE0B6B3A7640000 EQ SWAP1 ISZERO OR ISZERO PUSH2 0xFD7 JUMPI PUSH2 0x10D3 SWAP2 DIV PUSH1 0x9 SLOAD PUSH2 0xFED JUMP JUMPDEST POP PUSH1 0x9 SLOAD SWAP1 JUMP JUMPDEST PUSH1 0x1 PUSH1 0x1 PUSH1 0xA0 SHL SUB AND PUSH1 0x0 DUP2 DUP2 MSTORE PUSH1 0x5 PUSH1 0x20 MSTORE PUSH1 0x40 SWAP1 KECCAK256 SLOAD PUSH1 0xFF AND ISZERO PUSH2 0x11B0 JUMPI PUSH1 0x0 JUMPDEST PUSH1 0x4 SLOAD SWAP1 DUP2 DUP2 LT ISZERO PUSH2 0x16B8 JUMPI DUP3 PUSH2 0x15E7 DUP3 PUSH2 0xF96 JUMP JUMPDEST SWAP1 SLOAD PUSH1 0x3 SWAP2 SWAP1 SWAP2 SHL SHR PUSH1 0x1 PUSH1 0x1 PUSH1 0xA0 SHL SUB AND EQ PUSH2 0x1608 JUMPI PUSH1 0x1 SWAP2 POP ADD PUSH2 0x15D1 JUMP JUMPDEST PUSH1 0x0 NOT DUP3 ADD SWAP2 DUP3 GT PUSH2 0xFD7 JUMPI PUSH2 0x163B PUSH2 0x1623 PUSH2 0x165F SWAP4 PUSH2 0xF96 JUMP JUMPDEST SWAP1 SLOAD PUSH1 0x3 SWAP2 SWAP1 SWAP2 SHL SHR PUSH1 0x1 PUSH1 0x1 PUSH1 0xA0 SHL SUB AND SWAP2 PUSH2 0xF96 JUMP JUMPDEST DUP2 SLOAD PUSH1 0x1 PUSH1 0x1 PUSH1 0xA0 SHL SUB SWAP4 DUP5 AND PUSH1 0x3 SWAP3 SWAP1 SWAP3 SHL SWAP2 DUP3 SHL SWAP4 SWAP1 SWAP2 SHL NOT AND SWAP2 SWAP1 SWAP2 OR SWAP1 SSTORE JUMP JUMPDEST PUSH1 0x4 SLOAD DUP1 ISZERO PUSH2 0x16A2 JUMPI PUSH1 0x0 NOT ADD PUSH2 0x1675 DUP2 PUSH2 0xF96 JUMP JUMPDEST DUP2 SLOAD SWAP1 PUSH1 0x1 DUP1 PUSH1 0xA0 SHL SUB SWAP1 PUSH1 0x3 SHL SHL NOT AND SWAP1 SSTORE PUSH1 0x4 SSTORE PUSH1 0x0 MSTORE PUSH1 0x5 PUSH1 0x20 MSTORE PUSH1 0x40 PUSH1 0x0 KECCAK256 PUSH1 0xFF NOT DUP2 SLOAD AND SWAP1 SSTORE JUMP JUMPDEST PUSH4 0x4E487B71 PUSH1 0xE0 SHL PUSH1 0x0 MSTORE PUSH1 0x31 PUSH1 0x4 MSTORE PUSH1 0x24 PUSH1 0x0 REVERT JUMPDEST POP POP POP JUMP JUMPDEST PUSH32 0x0 PUSH1 0x1 PUSH1 0x1 PUSH1 0xA0 SHL SUB AND DUP1 EXTCODESIZE ISZERO PUSH2 0x1AB JUMPI PUSH1 0x4 SWAP1 PUSH1 0x40 MLOAD DUP1 SWAP2 PUSH4 0x52795E0B PUSH1 0xE0 SHL DUP3 MSTORE DUP2 PUSH1 0x0 SWAP5 DUP6 SWAP4 DUP5 DUP1 SWAP5 GAS CALL PUSH2 0x17AA JUMPI JUMPDEST POP POP PUSH1 0x2 SLOAD SWAP1 DUP2 ISZERO DUP1 ISZERO PUSH2 0x1799 JUMPI JUMPDEST PUSH2 0x14C3 JUMPI PUSH1 0x2 SSTORE PUSH2 0x172F DUP2 PUSH2 0x19D3 JUMP JUMPDEST DUP1 PUSH2 0x1738 JUMPI POP POP JUMP JUMPDEST PUSH32 0xA6378DD16102467B0770FF29E0FECCDC228FAF8CA76BF50B12BF0501BE2C4523 SWAP2 DUP2 PUSH2 0x1769 PUSH1 0x60 SWAP4 PUSH1 0x6 SLOAD PUSH2 0xFED JUMP JUMPDEST PUSH1 0x6 SSTORE PUSH3 0x93A80 PUSH2 0x177C DUP3 PUSH1 0xD SLOAD PUSH2 0xFED JUMP JUMPDEST DUP1 PUSH1 0xD SSTORE DIV SWAP1 DUP2 PUSH1 0x7 SSTORE PUSH1 0x40 MLOAD SWAP3 DUP4 MSTORE PUSH1 0x20 DUP4 ADD MSTORE PUSH1 0x40 DUP3 ADD MSTORE LOG1 JUMP JUMPDEST POP PUSH8 0x8AC7230489E80000 DUP3 LT PUSH2 0x171F JUMP JUMPDEST PUSH2 0x17B3 SWAP2 PUSH2 0x1023 JUMP JUMPDEST CODESIZE DUP2 PUSH2 0x1710 JUMP JUMPDEST PUSH1 0x1 SLOAD PUSH1 0x1 PUSH1 0x1 PUSH1 0xA0 SHL SUB AND CALLER SUB PUSH2 0x17CE JUMPI JUMP JUMPDEST PUSH4 0x118CDAA7 PUSH1 0xE0 SHL PUSH1 0x0 MSTORE CALLER PUSH1 0x4 MSTORE PUSH1 0x24 PUSH1 0x0 REVERT JUMPDEST SWAP1 PUSH8 0xDE0B6B3A7640000 DUP2 MUL SWAP1 DUP1 DUP3 DIV PUSH8 0xDE0B6B3A7640000 EQ SWAP1 ISZERO OR ISZERO PUSH2 0xFD7 JUMPI PUSH4 0x1E13380 SWAP1 DIV PUSH8 0xDE0B6B3A7640000 ADD SWAP1 DUP2 PUSH8 0xDE0B6B3A7640000 GT PUSH2 0xFD7 JUMPI PUSH8 0xDE0B6B3A7640000 SWAP2 PUSH2 0x1839 SWAP2 PUSH2 0x1544 JUMP JUMPDEST DIV SWAP1 JUMP JUMPDEST PUSH1 0x10 SLOAD TIMESTAMP EQ DUP1 PUSH2 0x18EE JUMPI JUMPDEST PUSH2 0x18E8 JUMPI PUSH1 0x0 DUP1 PUSH1 0x4 SLOAD SWAP1 JUMPDEST DUP2 DUP2 LT PUSH2 0x1860 JUMPI POP POP SWAP1 JUMP JUMPDEST PUSH2 0x1869 DUP2 PUSH2 0xF96 JUMP JUMPDEST PUSH1 0x1 DUP1 PUSH1 0xA0 SHL SUB SWAP2 SLOAD SWAP1 PUSH1 0x3 SHL SHR AND PUSH1 0x0 MSTORE PUSH1 0x3 PUSH1 0x20 MSTORE PUSH1 0x40 PUSH1 0x0 KECCAK256 PUSH1 0x40 MLOAD SWAP1 PUSH2 0x1892 DUP3 PUSH2 0x1007 JUMP JUMPDEST DUP1 SLOAD DUP1 DUP4 MSTORE PUSH1 0x3 PUSH1 0x1 DUP4 ADD SLOAD SWAP3 DUP4 PUSH1 0x20 DUP7 ADD MSTORE PUSH1 0x2 DUP2 ADD SLOAD PUSH1 0x40 DUP7 ADD MSTORE ADD SLOAD PUSH1 0x60 DUP5 ADD MSTORE PUSH2 0x18C5 JUMPI JUMPDEST POP POP PUSH1 0x1 ADD PUSH2 0x1854 JUMP JUMPDEST SWAP4 PUSH2 0x18DA PUSH2 0x18E0 SWAP3 PUSH2 0x41B PUSH1 0x1 SWAP6 SWAP8 TIMESTAMP PUSH2 0xFFA JUMP JUMPDEST SWAP1 PUSH2 0xFED JUMP JUMPDEST SWAP3 SWAP1 CODESIZE PUSH2 0x18BB JUMP JUMPDEST PUSH1 0xF SLOAD SWAP1 JUMP JUMPDEST POP PUSH1 0xF SLOAD ISZERO ISZERO PUSH2 0x1848 JUMP JUMPDEST PUSH1 0x1 DUP1 PUSH1 0xA0 SHL SUB AND DUP1 PUSH1 0x0 MSTORE PUSH1 0x3 PUSH1 0x20 MSTORE PUSH1 0x40 PUSH1 0x0 KECCAK256 SWAP2 PUSH1 0x40 MLOAD SWAP2 PUSH2 0x191D DUP4 PUSH2 0x1007 JUMP JUMPDEST DUP4 SLOAD DUP1 DUP5 MSTORE PUSH1 0x3 PUSH1 0x1 DUP7 ADD SLOAD SWAP6 PUSH1 0x20 DUP7 ADD SWAP7 DUP8 MSTORE PUSH1 0x2 DUP2 ADD SLOAD PUSH1 0x40 DUP8 ADD MSTORE ADD SLOAD PUSH1 0x60 DUP6 ADD MSTORE ISZERO PUSH2 0x19CA JUMPI PUSH2 0x196B SWAP2 PUSH2 0x1963 SWAP2 PUSH1 0x0 MSTORE PUSH1 0x11 PUSH1 0x20 MSTORE PUSH1 0x40 PUSH1 0x0 KECCAK256 SLOAD SWAP1 PUSH2 0xFFA JUMP JUMPDEST SWAP3 MLOAD TIMESTAMP PUSH2 0xFFA JUMP JUMPDEST PUSH8 0xDE0B6B3A7640000 DUP2 MUL SWAP1 DUP1 DUP3 DIV PUSH8 0xDE0B6B3A7640000 EQ SWAP1 ISZERO OR ISZERO PUSH2 0xFD7 JUMPI PUSH4 0x1E13380 SWAP1 DIV PUSH8 0xDE0B6B3A7640000 ADD DUP1 PUSH8 0xDE0B6B3A7640000 GT PUSH2 0xFD7 JUMPI PUSH8 0xDE0B6B3A7640000 PUSH2 0x19C4 DUP2 SWAP5 PUSH2 0x1839 SWAP5 MLOAD PUSH2 0x1544 JUMP JUMPDEST DIV PUSH2 0x1544 JUMP JUMPDEST POP POP POP POP PUSH1 0x0 SWAP1 JUMP JUMPDEST PUSH1 0x0 SWAP1 DUP1 ISZERO PUSH2 0x1CCC JUMPI PUSH1 0x40 MLOAD PUSH4 0x95EA7B3 PUSH1 0xE0 SHL DUP2 MSTORE PUSH1 0x1 PUSH1 0x1 PUSH1 0xA0 SHL SUB PUSH32 0x0 DUP2 AND PUSH1 0x4 DUP4 ADD DUP2 SWAP1 MSTORE PUSH1 0x24 DUP4 ADD DUP5 SWAP1 MSTORE PUSH32 0x0 SWAP1 SWAP2 AND SWAP2 PUSH1 0x20 DUP2 PUSH1 0x44 DUP2 DUP9 DUP8 GAS CALL DUP1 ISZERO PUSH2 0x1CC1 JUMPI PUSH2 0x1CA4 JUMPI JUMPDEST POP PUSH1 0x40 MLOAD SWAP1 PUSH2 0x1A6C PUSH1 0x60 DUP4 PUSH2 0x1023 JUMP JUMPDEST PUSH1 0x2 DUP3 MSTORE PUSH1 0x20 DUP3 ADD SWAP3 PUSH1 0x40 CALLDATASIZE DUP6 CALLDATACOPY DUP3 MLOAD ISZERO PUSH2 0x1C90 JUMPI DUP4 MSTORE DUP2 MLOAD PUSH1 0x1 LT ISZERO PUSH2 0x1C7C JUMPI PUSH32 0x0 PUSH1 0x1 PUSH1 0x1 PUSH1 0xA0 SHL SUB AND PUSH1 0x40 DUP4 DUP2 ADD DUP3 SWAP1 MSTORE MLOAD PUSH4 0x70A08231 PUSH1 0xE0 SHL DUP2 MSTORE ADDRESS PUSH1 0x4 DUP3 ADD MSTORE SWAP5 SWAP1 SWAP4 SWAP1 PUSH1 0x20 DUP7 PUSH1 0x24 DUP2 DUP9 GAS STATICCALL SWAP6 DUP7 ISZERO PUSH2 0x1C71 JUMPI DUP8 SWAP7 PUSH2 0x1C39 JUMPI JUMPDEST POP PUSH2 0x12C TIMESTAMP ADD SWAP1 DUP2 TIMESTAMP GT PUSH2 0x1C25 JUMPI DUP4 EXTCODESIZE ISZERO PUSH2 0x1C21 JUMPI SWAP4 SWAP2 DUP8 SWAP4 SWAP2 PUSH1 0x40 MLOAD SWAP6 DUP7 SWAP5 PUSH4 0x5C11D795 PUSH1 0xE0 SHL DUP7 MSTORE PUSH1 0xA4 DUP7 ADD SWAP2 PUSH1 0x4 DUP8 ADD MSTORE DUP7 PUSH1 0x24 DUP8 ADD MSTORE PUSH1 0xA0 PUSH1 0x44 DUP8 ADD MSTORE MLOAD DUP1 SWAP2 MSTORE PUSH1 0xC4 DUP6 ADD SWAP3 SWAP1 DUP7 JUMPDEST DUP2 DUP2 LT PUSH2 0x1BFC JUMPI POP POP POP DUP4 DUP1 SWAP3 DUP7 SWAP3 ADDRESS PUSH1 0x64 DUP5 ADD MSTORE PUSH1 0x84 DUP4 ADD MSTORE SUB SWAP3 GAS CALL SWAP1 DUP2 PUSH2 0x1BE8 JUMPI JUMPDEST POP PUSH2 0x1B67 JUMPI POP POP SWAP1 JUMP JUMPDEST PUSH1 0x20 PUSH1 0x24 SWAP2 PUSH1 0x40 MLOAD SWAP3 DUP4 DUP1 SWAP3 PUSH4 0x70A08231 PUSH1 0xE0 SHL DUP3 MSTORE ADDRESS PUSH1 0x4 DUP4 ADD MSTORE GAS STATICCALL SWAP1 DUP2 ISZERO PUSH2 0x1BDD JUMPI DUP4 SWAP2 PUSH2 0x1BAB JUMPI JUMPDEST POP DUP2 DUP2 GT ISZERO PUSH2 0x1BA6 JUMPI PUSH2 0x10D3 SWAP3 POP PUSH2 0xFFA JUMP JUMPDEST POP POP SWAP1 JUMP JUMPDEST SWAP1 POP PUSH1 0x20 DUP2 RETURNDATASIZE PUSH1 0x20 GT PUSH2 0x1BD5 JUMPI JUMPDEST DUP2 PUSH2 0x1BC6 PUSH1 0x20 SWAP4 DUP4 PUSH2 0x1023 JUMP JUMPDEST DUP2 ADD SUB SLT PUSH2 0x1AB JUMPI MLOAD CODESIZE PUSH2 0x1B93 JUMP JUMPDEST RETURNDATASIZE SWAP2 POP PUSH2 0x1BB9 JUMP JUMPDEST PUSH1 0x40 MLOAD RETURNDATASIZE DUP6 DUP3 RETURNDATACOPY RETURNDATASIZE SWAP1 REVERT JUMPDEST DUP5 PUSH2 0x1BF5 SWAP2 SWAP6 SWAP3 SWAP6 PUSH2 0x1023 JUMP JUMPDEST SWAP3 CODESIZE PUSH2 0x1B5D JUMP JUMPDEST DUP3 MLOAD PUSH1 0x1 PUSH1 0x1 PUSH1 0xA0 SHL SUB AND DUP6 MSTORE DUP12 SWAP8 POP DUP9 SWAP7 POP PUSH1 0x20 SWAP5 DUP6 ADD SWAP5 SWAP1 SWAP3 ADD SWAP2 PUSH1 0x1 ADD PUSH2 0x1B38 JUMP JUMPDEST DUP8 DUP1 REVERT JUMPDEST PUSH4 0x4E487B71 PUSH1 0xE0 SHL DUP9 MSTORE PUSH1 0x11 PUSH1 0x4 MSTORE PUSH1 0x24 DUP9 REVERT JUMPDEST SWAP1 SWAP6 POP PUSH1 0x20 DUP2 RETURNDATASIZE PUSH1 0x20 GT PUSH2 0x1C69 JUMPI JUMPDEST DUP2 PUSH2 0x1C55 PUSH1 0x20 SWAP4 DUP4 PUSH2 0x1023 JUMP JUMPDEST DUP2 ADD SUB SLT PUSH2 0x1C65 JUMPI MLOAD SWAP5 CODESIZE PUSH2 0x1AEB JUMP JUMPDEST DUP7 DUP1 REVERT JUMPDEST RETURNDATASIZE SWAP2 POP PUSH2 0x1C48 JUMP JUMPDEST PUSH1 0x40 MLOAD RETURNDATASIZE DUP10 DUP3 RETURNDATACOPY RETURNDATASIZE SWAP1 REVERT JUMPDEST PUSH4 0x4E487B71 PUSH1 0xE0 SHL DUP6 MSTORE PUSH1 0x32 PUSH1 0x4 MSTORE PUSH1 0x24 DUP6 REVERT JUMPDEST PUSH4 0x4E487B71 PUSH1 0xE0 SHL DUP7 MSTORE PUSH1 0x32 PUSH1 0x4 MSTORE PUSH1 0x24 DUP7 REVERT JUMPDEST PUSH2 0x1CBC SWAP1 PUSH1 0x20 RETURNDATASIZE PUSH1 0x20 GT PUSH2 0x69B JUMPI PUSH2 0x68D DUP2 DUP4 PUSH2 0x1023 JUMP JUMPDEST PUSH2 0x1A5C JUMP JUMPDEST PUSH1 0x40 MLOAD RETURNDATASIZE DUP8 DUP3 RETURNDATACOPY RETURNDATASIZE SWAP1 REVERT JUMPDEST POP SWAP1 JUMP INVALID LOG2 PUSH5 0x6970667358 0x22 SLT KECCAK256 0x4B SWAP8 0xA8 PUSH10 0x1718D8408ACDADC2B909 SWAP9 PUSH10 0x19CEA2E42F63D96FE0C8 SWAP16 DUP10 PUSH19 0xEE966664736F6C634300081C003341A696DFBD 0xED PUSH19 0x5D7A02BF24DB905BC48040509581DD59098D66 0xB9 0xAA PUSH21 0x16BB5E000000000000000000000000000000000000 "},"methodIdentifiers":{"MIN_REWARD_AMOUNT()":"f6ef85cd","accumulatedSYI()":"70f4edbf","canUnstake(address)":"85f4498b","canWithdrawStake(address)":"6ab9bba7","claimReward()":"b88a802f","depositRewards(uint256)":"8bdf67f2","depositSYIRewards(uint256)":"759f9de2","emergencyWithdraw(address,uint256)":"95ccea67","excludedFromStaking(address)":"0ccaa97e","getMinStakeDurationExternal()":"3911f68e","getRewardPoolInfo()":"c3e40a14","getStakersCount()":"48284789","getUserStakeInfo(address)":"c32d3ae2","isStaker(address)":"6f1e8533","lpToken()":"5fcbd285","owner()":"8da5cb5b","renounceOwnership()":"715018a6","rewardPool()":"66666aa9","router()":"f887ea40","setExcluded(address,bool)":"2836be24","stake(uint256)":"a694fc3a","stakers(uint256)":"fd5e6dd1","stakes(address)":"16934fc4","staking()":"4cf088d9","syiContract()":"df5f747c","transferOwnership(address)":"f2fde38b","unstake(uint256)":"2e17de78","usdt()":"2f48ab7d","userPendingRewards(address)":"fc9d7711","userRewardPerTokenPaid(address)":"8b876347"}}}}}