{"contracts/SYI/utils/FundRelay.sol":{"FundRelay":{"abi":[{"inputs":[{"internalType":"address","name":"_syiContract","type":"address"},{"internalType":"address","name":"_usdt","type":"address"},{"internalType":"address","name":"_emergencyRecipient","type":"address"}],"stateMutability":"nonpayable","type":"constructor"},{"inputs":[],"name":"InsufficientBalance","type":"error"},{"inputs":[],"name":"OnlyEmergencyRecipient","type":"error"},{"inputs":[],"name":"OnlySYIContract","type":"error"},{"inputs":[],"name":"TransferFailed","type":"error"},{"anonymous":false,"inputs":[{"indexed":false,"internalType":"uint256","name":"amount","type":"uint256"},{"indexed":true,"internalType":"address","name":"to","type":"address"}],"name":"EmergencyWithdraw","type":"event"},{"anonymous":false,"inputs":[{"indexed":false,"internalType":"uint256","name":"amount","type":"uint256"},{"indexed":true,"internalType":"address","name":"to","type":"address"}],"name":"USDTForwarded","type":"event"},{"anonymous":false,"inputs":[{"indexed":false,"internalType":"uint256","name":"amount","type":"uint256"},{"indexed":true,"internalType":"address","name":"from","type":"address"}],"name":"USDTReceived","type":"event"},{"inputs":[],"name":"EMERGENCY_RECIPIENT","outputs":[{"internalType":"address","name":"","type":"address"}],"stateMutability":"view","type":"function"},{"inputs":[],"name":"SYI_CONTRACT","outputs":[{"internalType":"address","name":"","type":"address"}],"stateMutability":"view","type":"function"},{"inputs":[],"name":"USDT","outputs":[{"internalType":"address","name":"","type":"address"}],"stateMutability":"view","type":"function"},{"inputs":[],"name":"emergencyWithdraw","outputs":[],"stateMutability":"nonpayable","type":"function"},{"inputs":[{"internalType":"address","name":"token","type":"address"},{"internalType":"uint256","name":"amount","type":"uint256"}],"name":"emergencyWithdrawToken","outputs":[],"stateMutability":"nonpayable","type":"function"},{"inputs":[],"name":"getUSDTBalance","outputs":[{"internalType":"uint256","name":"balance","type":"uint256"}],"stateMutability":"view","type":"function"},{"inputs":[],"name":"receiveAndForward","outputs":[{"internalType":"uint256","name":"usdtAmount","type":"uint256"}],"stateMutability":"nonpayable","type":"function"},{"inputs":[{"internalType":"uint256","name":"amount","type":"uint256"}],"name":"withdrawSYIToContract","outputs":[],"stateMutability":"nonpayable","type":"function"},{"inputs":[{"internalType":"uint256","name":"amount","type":"uint256"}],"name":"withdrawToSYI","outputs":[],"stateMutability":"nonpayable","type":"function"}],"evm":{"bytecode":{"linkReferences":{},"object":"60e0806040523461015157606081610b7e803803809161001f8285610228565b8339810103126101515761003281610261565b9061004b604061004460208401610261565b9201610261565b916001600160a01b0381169081156101e3576001600160a01b0383169182156101af576001600160a01b0385161561016a5760009460209460449360805260a05260c052604051948593849263095ea7b360e01b84526004840152811960248401525af1801561015e57610121575b604051610908908161027682396080518181816098015281816102d1015281816105a901526107ea015260a0518181816101270152818161028f015281816104b5015281816105eb0152610762015260c05181818160df0152818161042201526105410152f35b6020813d602011610156575b8161013a60209383610228565b8101031261015157518015150361015157386100ba565b600080fd5b3d915061012d565b6040513d6000823e3d90fd5b60405162461bcd60e51b815260206004820152601b60248201527f496e76616c696420656d657267656e637920726563697069656e7400000000006044820152606490fd5b60405162461bcd60e51b815260206004820152600c60248201526b125b9d985b1a59081554d11560a21b6044820152606490fd5b60405162461bcd60e51b815260206004820152601460248201527f496e76616c69642053594920636f6e74726163740000000000000000000000006044820152606490fd5b601f909101601f19168101906001600160401b0382119082101761024b57604052565b634e487b7160e01b600052604160045260246000fd5b51906001600160a01b03821682036101515756fe608080604052600436101561001357600080fd5b60003560e01c9081630e0b614614610593575080634fa2d9d2146105705780639621bb991461052b5780639785fac814610489578063a4c3b091146103fa578063b2d14c35146102be578063c54e44eb14610279578063db2e21bc146100cc5763fc8c7f9d1461008257600080fd5b346100c75760003660031901126100c7576040517f00000000000000000000000000000000000000000000000000000000000000006001600160a01b03168152602090f35b600080fd5b346100c75760003660031901126100c7577f00000000000000000000000000000000000000000000000000000000000000006001600160a01b0381169033829003610268576040516370a0823160e01b8152306004820152907f00000000000000000000000000000000000000000000000000000000000000006001600160a01b0316602083602481845afa92831561022557600093610231575b508261016f57005b60405163a9059cbb60e01b81526001600160a01b0392909216600483015260248201839052602090829060449082906000905af1908115610225576000916101f6575b50156101e55760207fbb43d2e6a13f52d71a3a836cf197fa240fb4ef40914b6e13cc966fd6dfb19b6891604051908152a2005b6312171d8360e31b60005260046000fd5b610218915060203d60201161021e575b61021081836106fd565b810190610735565b836101b2565b503d610206565b6040513d6000823e3d90fd5b90926020823d602011610260575b8161024c602093836106fd565b8101031261025d5750519184610167565b80fd5b3d915061023f565b631504bab560e01b60005260046000fd5b346100c75760003660031901126100c7576040517f00000000000000000000000000000000000000000000000000000000000000006001600160a01b03168152602090f35b346100c75760203660031901126100c7577f00000000000000000000000000000000000000000000000000000000000000006001600160a01b03811690600435338390036103e9576040516370a0823160e01b8152306004820152602081602481875afa80156102255782916000916103b4575b50106103a35760405163a9059cbb60e01b81526001600160a01b039092166004830152602482015290602090829081600081604481015b03925af190811561022557600091610384575b50156101e557005b61039d915060203d60201161021e5761021081836106fd565b8161037c565b631e9acf1760e31b60005260046000fd5b9150506020813d6020116103e1575b816103d0602093836106fd565b810103126100c75781905185610332565b3d91506103c3565b6339694bbf60e11b60005260046000fd5b346100c75760403660031901126100c7576004356001600160a01b038116908190036100c7577f0000000000000000000000000000000000000000000000000000000000000000906001600160a01b03821633036102685760405163a9059cbb60e01b81526001600160a01b039092166004830152602480359083015260209082908160008160448101610369565b346100c75760003660031901126100c7576040516370a0823160e01b81523060048201526020816024817f00000000000000000000000000000000000000000000000000000000000000006001600160a01b03165afa8015610225576000906104f8575b602090604051908152f35b506020813d602011610523575b81610512602093836106fd565b810103126100c757602090516104ed565b3d9150610505565b346100c75760003660031901126100c7576040517f00000000000000000000000000000000000000000000000000000000000000006001600160a01b03168152602090f35b346100c75760003660031901126100c757602061058b61074d565b604051908152f35b346100c75760203660031901126100c7576004357f000000000000000000000000000000000000000000000000000000000000000060018060a01b038116928333036103e9576370a0823160e01b81523060048201527f00000000000000000000000000000000000000000000000000000000000000006001600160a01b031690602081602481855afa80156102255784916000916106c8575b50106103a35760405163a9059cbb60e01b81526001600160a01b0392909216600483015260248201839052602090829060449082906000905af1908115610225576000916106a9575b50156101e55760207f0be6073db03b3a6c016732498a098235605104cab36ff9e54c6fce81b9871f4891604051908152a2005b6106c2915060203d60201161021e5761021081836106fd565b83610676565b9150506020813d6020116106f5575b816106e4602093836106fd565b810103126100c7578390518661062d565b3d91506106d7565b90601f8019910116810190811067ffffffffffffffff82111761071f57604052565b634e487b7160e01b600052604160045260246000fd5b908160209103126100c7575180151581036100c75790565b6040516370a0823160e01b81523060048201527f00000000000000000000000000000000000000000000000000000000000000006001600160a01b0316602082602481845afa9182156102255760009261089e575b50816107af575050600090565b6040518281527f225269aef2c88e0bae5264eb6d44b932a797b7d1fcb397512d9187ddcb47f6b460203392a260405163a9059cbb60e01b81527f00000000000000000000000000000000000000000000000000000000000000006001600160a01b03811660048301526024820184905291602090829060449082906000905af19081156102255760009161087f575b50156101e5576040518281526001600160a01b03909116907f0be6073db03b3a6c016732498a098235605104cab36ff9e54c6fce81b9871f4890602090a290565b610898915060203d60201161021e5761021081836106fd565b3861083e565b90916020823d6020116108ca575b816108b9602093836106fd565b8101031261025d57505190386107a2565b3d91506108ac56fea26469706673582212209b8c7e342caea30046817b66af8710b18e1562ab91387186889db447a1fb156864736f6c634300081c0033","opcodes":"PUSH1 0xE0 DUP1 PUSH1 0x40 MSTORE CALLVALUE PUSH2 0x151 JUMPI PUSH1 0x60 DUP2 PUSH2 0xB7E DUP1 CODESIZE SUB DUP1 SWAP2 PUSH2 0x1F DUP3 DUP6 PUSH2 0x228 JUMP JUMPDEST DUP4 CODECOPY DUP2 ADD SUB SLT PUSH2 0x151 JUMPI PUSH2 0x32 DUP2 PUSH2 0x261 JUMP JUMPDEST SWAP1 PUSH2 0x4B PUSH1 0x40 PUSH2 0x44 PUSH1 0x20 DUP5 ADD PUSH2 0x261 JUMP JUMPDEST SWAP3 ADD PUSH2 0x261 JUMP JUMPDEST SWAP2 PUSH1 0x1 PUSH1 0x1 PUSH1 0xA0 SHL SUB DUP2 AND SWAP1 DUP2 ISZERO PUSH2 0x1E3 JUMPI PUSH1 0x1 PUSH1 0x1 PUSH1 0xA0 SHL SUB DUP4 AND SWAP2 DUP3 ISZERO PUSH2 0x1AF JUMPI PUSH1 0x1 PUSH1 0x1 PUSH1 0xA0 SHL SUB DUP6 AND ISZERO PUSH2 0x16A JUMPI PUSH1 0x0 SWAP5 PUSH1 0x20 SWAP5 PUSH1 0x44 SWAP4 PUSH1 0x80 MSTORE PUSH1 0xA0 MSTORE PUSH1 0xC0 MSTORE PUSH1 0x40 MLOAD SWAP5 DUP6 SWAP4 DUP5 SWAP3 PUSH4 0x95EA7B3 PUSH1 0xE0 SHL DUP5 MSTORE PUSH1 0x4 DUP5 ADD MSTORE DUP2 NOT PUSH1 0x24 DUP5 ADD MSTORE GAS CALL DUP1 ISZERO PUSH2 0x15E JUMPI PUSH2 0x121 JUMPI JUMPDEST PUSH1 0x40 MLOAD PUSH2 0x908 SWAP1 DUP2 PUSH2 0x276 DUP3 CODECOPY PUSH1 0x80 MLOAD DUP2 DUP2 DUP2 PUSH1 0x98 ADD MSTORE DUP2 DUP2 PUSH2 0x2D1 ADD MSTORE DUP2 DUP2 PUSH2 0x5A9 ADD MSTORE PUSH2 0x7EA ADD MSTORE PUSH1 0xA0 MLOAD DUP2 DUP2 DUP2 PUSH2 0x127 ADD MSTORE DUP2 DUP2 PUSH2 0x28F ADD MSTORE DUP2 DUP2 PUSH2 0x4B5 ADD MSTORE DUP2 DUP2 PUSH2 0x5EB ADD MSTORE PUSH2 0x762 ADD MSTORE PUSH1 0xC0 MLOAD DUP2 DUP2 DUP2 PUSH1 0xDF ADD MSTORE DUP2 DUP2 PUSH2 0x422 ADD MSTORE PUSH2 0x541 ADD MSTORE RETURN JUMPDEST PUSH1 0x20 DUP2 RETURNDATASIZE PUSH1 0x20 GT PUSH2 0x156 JUMPI JUMPDEST DUP2 PUSH2 0x13A PUSH1 0x20 SWAP4 DUP4 PUSH2 0x228 JUMP JUMPDEST DUP2 ADD SUB SLT PUSH2 0x151 JUMPI MLOAD DUP1 ISZERO ISZERO SUB PUSH2 0x151 JUMPI CODESIZE PUSH2 0xBA JUMP JUMPDEST PUSH1 0x0 DUP1 REVERT JUMPDEST RETURNDATASIZE SWAP2 POP PUSH2 0x12D JUMP JUMPDEST PUSH1 0x40 MLOAD RETURNDATASIZE PUSH1 0x0 DUP3 RETURNDATACOPY RETURNDATASIZE SWAP1 REVERT JUMPDEST PUSH1 0x40 MLOAD PUSH3 0x461BCD PUSH1 0xE5 SHL DUP2 MSTORE PUSH1 0x20 PUSH1 0x4 DUP3 ADD MSTORE PUSH1 0x1B PUSH1 0x24 DUP3 ADD MSTORE PUSH32 0x496E76616C696420656D657267656E637920726563697069656E740000000000 PUSH1 0x44 DUP3 ADD MSTORE PUSH1 0x64 SWAP1 REVERT JUMPDEST PUSH1 0x40 MLOAD PUSH3 0x461BCD PUSH1 0xE5 SHL DUP2 MSTORE PUSH1 0x20 PUSH1 0x4 DUP3 ADD MSTORE PUSH1 0xC PUSH1 0x24 DUP3 ADD MSTORE PUSH12 0x125B9D985B1A59081554D115 PUSH1 0xA2 SHL PUSH1 0x44 DUP3 ADD MSTORE PUSH1 0x64 SWAP1 REVERT JUMPDEST PUSH1 0x40 MLOAD PUSH3 0x461BCD PUSH1 0xE5 SHL DUP2 MSTORE PUSH1 0x20 PUSH1 0x4 DUP3 ADD MSTORE PUSH1 0x14 PUSH1 0x24 DUP3 ADD MSTORE PUSH32 0x496E76616C69642053594920636F6E7472616374000000000000000000000000 PUSH1 0x44 DUP3 ADD MSTORE PUSH1 0x64 SWAP1 REVERT JUMPDEST PUSH1 0x1F SWAP1 SWAP2 ADD PUSH1 0x1F NOT AND DUP2 ADD SWAP1 PUSH1 0x1 PUSH1 0x1 PUSH1 0x40 SHL SUB DUP3 GT SWAP1 DUP3 LT OR PUSH2 0x24B JUMPI PUSH1 0x40 MSTORE JUMP JUMPDEST PUSH4 0x4E487B71 PUSH1 0xE0 SHL PUSH1 0x0 MSTORE PUSH1 0x41 PUSH1 0x4 MSTORE PUSH1 0x24 PUSH1 0x0 REVERT JUMPDEST MLOAD SWAP1 PUSH1 0x1 PUSH1 0x1 PUSH1 0xA0 SHL SUB DUP3 AND DUP3 SUB PUSH2 0x151 JUMPI JUMP INVALID PUSH1 0x80 DUP1 PUSH1 0x40 MSTORE PUSH1 0x4 CALLDATASIZE LT ISZERO PUSH2 0x13 JUMPI PUSH1 0x0 DUP1 REVERT JUMPDEST PUSH1 0x0 CALLDATALOAD PUSH1 0xE0 SHR SWAP1 DUP2 PUSH4 0xE0B6146 EQ PUSH2 0x593 JUMPI POP DUP1 PUSH4 0x4FA2D9D2 EQ PUSH2 0x570 JUMPI DUP1 PUSH4 0x9621BB99 EQ PUSH2 0x52B JUMPI DUP1 PUSH4 0x9785FAC8 EQ PUSH2 0x489 JUMPI DUP1 PUSH4 0xA4C3B091 EQ PUSH2 0x3FA JUMPI DUP1 PUSH4 0xB2D14C35 EQ PUSH2 0x2BE JUMPI DUP1 PUSH4 0xC54E44EB EQ PUSH2 0x279 JUMPI DUP1 PUSH4 0xDB2E21BC EQ PUSH2 0xCC JUMPI PUSH4 0xFC8C7F9D EQ PUSH2 0x82 JUMPI PUSH1 0x0 DUP1 REVERT JUMPDEST CALLVALUE PUSH2 0xC7 JUMPI PUSH1 0x0 CALLDATASIZE PUSH1 0x3 NOT ADD SLT PUSH2 0xC7 JUMPI PUSH1 0x40 MLOAD PUSH32 0x0 PUSH1 0x1 PUSH1 0x1 PUSH1 0xA0 SHL SUB AND DUP2 MSTORE PUSH1 0x20 SWAP1 RETURN JUMPDEST PUSH1 0x0 DUP1 REVERT JUMPDEST CALLVALUE PUSH2 0xC7 JUMPI PUSH1 0x0 CALLDATASIZE PUSH1 0x3 NOT ADD SLT PUSH2 0xC7 JUMPI PUSH32 0x0 PUSH1 0x1 PUSH1 0x1 PUSH1 0xA0 SHL SUB DUP2 AND SWAP1 CALLER DUP3 SWAP1 SUB PUSH2 0x268 JUMPI PUSH1 0x40 MLOAD PUSH4 0x70A08231 PUSH1 0xE0 SHL DUP2 MSTORE ADDRESS PUSH1 0x4 DUP3 ADD MSTORE SWAP1 PUSH32 0x0 PUSH1 0x1 PUSH1 0x1 PUSH1 0xA0 SHL SUB AND PUSH1 0x20 DUP4 PUSH1 0x24 DUP2 DUP5 GAS STATICCALL SWAP3 DUP4 ISZERO PUSH2 0x225 JUMPI PUSH1 0x0 SWAP4 PUSH2 0x231 JUMPI JUMPDEST POP DUP3 PUSH2 0x16F JUMPI STOP JUMPDEST PUSH1 0x40 MLOAD PUSH4 0xA9059CBB PUSH1 0xE0 SHL DUP2 MSTORE PUSH1 0x1 PUSH1 0x1 PUSH1 0xA0 SHL SUB SWAP3 SWAP1 SWAP3 AND PUSH1 0x4 DUP4 ADD MSTORE PUSH1 0x24 DUP3 ADD DUP4 SWAP1 MSTORE PUSH1 0x20 SWAP1 DUP3 SWAP1 PUSH1 0x44 SWAP1 DUP3 SWAP1 PUSH1 0x0 SWAP1 GAS CALL SWAP1 DUP2 ISZERO PUSH2 0x225 JUMPI PUSH1 0x0 SWAP2 PUSH2 0x1F6 JUMPI JUMPDEST POP ISZERO PUSH2 0x1E5 JUMPI PUSH1 0x20 PUSH32 0xBB43D2E6A13F52D71A3A836CF197FA240FB4EF40914B6E13CC966FD6DFB19B68 SWAP2 PUSH1 0x40 MLOAD SWAP1 DUP2 MSTORE LOG2 STOP JUMPDEST PUSH4 0x12171D83 PUSH1 0xE3 SHL PUSH1 0x0 MSTORE PUSH1 0x4 PUSH1 0x0 REVERT JUMPDEST PUSH2 0x218 SWAP2 POP PUSH1 0x20 RETURNDATASIZE PUSH1 0x20 GT PUSH2 0x21E JUMPI JUMPDEST PUSH2 0x210 DUP2 DUP4 PUSH2 0x6FD JUMP JUMPDEST DUP2 ADD SWAP1 PUSH2 0x735 JUMP JUMPDEST DUP4 PUSH2 0x1B2 JUMP JUMPDEST POP RETURNDATASIZE PUSH2 0x206 JUMP JUMPDEST PUSH1 0x40 MLOAD RETURNDATASIZE PUSH1 0x0 DUP3 RETURNDATACOPY RETURNDATASIZE SWAP1 REVERT JUMPDEST SWAP1 SWAP3 PUSH1 0x20 DUP3 RETURNDATASIZE PUSH1 0x20 GT PUSH2 0x260 JUMPI JUMPDEST DUP2 PUSH2 0x24C PUSH1 0x20 SWAP4 DUP4 PUSH2 0x6FD JUMP JUMPDEST DUP2 ADD SUB SLT PUSH2 0x25D JUMPI POP MLOAD SWAP2 DUP5 PUSH2 0x167 JUMP JUMPDEST DUP1 REVERT JUMPDEST RETURNDATASIZE SWAP2 POP PUSH2 0x23F JUMP JUMPDEST PUSH4 0x1504BAB5 PUSH1 0xE0 SHL PUSH1 0x0 MSTORE PUSH1 0x4 PUSH1 0x0 REVERT JUMPDEST CALLVALUE PUSH2 0xC7 JUMPI PUSH1 0x0 CALLDATASIZE PUSH1 0x3 NOT ADD SLT PUSH2 0xC7 JUMPI PUSH1 0x40 MLOAD PUSH32 0x0 PUSH1 0x1 PUSH1 0x1 PUSH1 0xA0 SHL SUB AND DUP2 MSTORE PUSH1 0x20 SWAP1 RETURN JUMPDEST CALLVALUE PUSH2 0xC7 JUMPI PUSH1 0x20 CALLDATASIZE PUSH1 0x3 NOT ADD SLT PUSH2 0xC7 JUMPI PUSH32 0x0 PUSH1 0x1 PUSH1 0x1 PUSH1 0xA0 SHL SUB DUP2 AND SWAP1 PUSH1 0x4 CALLDATALOAD CALLER DUP4 SWAP1 SUB PUSH2 0x3E9 JUMPI PUSH1 0x40 MLOAD PUSH4 0x70A08231 PUSH1 0xE0 SHL DUP2 MSTORE ADDRESS PUSH1 0x4 DUP3 ADD MSTORE PUSH1 0x20 DUP2 PUSH1 0x24 DUP2 DUP8 GAS STATICCALL DUP1 ISZERO PUSH2 0x225 JUMPI DUP3 SWAP2 PUSH1 0x0 SWAP2 PUSH2 0x3B4 JUMPI JUMPDEST POP LT PUSH2 0x3A3 JUMPI PUSH1 0x40 MLOAD PUSH4 0xA9059CBB PUSH1 0xE0 SHL DUP2 MSTORE PUSH1 0x1 PUSH1 0x1 PUSH1 0xA0 SHL SUB SWAP1 SWAP3 AND PUSH1 0x4 DUP4 ADD MSTORE PUSH1 0x24 DUP3 ADD MSTORE SWAP1 PUSH1 0x20 SWAP1 DUP3 SWAP1 DUP2 PUSH1 0x0 DUP2 PUSH1 0x44 DUP2 ADD JUMPDEST SUB SWAP3 GAS CALL SWAP1 DUP2 ISZERO PUSH2 0x225 JUMPI PUSH1 0x0 SWAP2 PUSH2 0x384 JUMPI JUMPDEST POP ISZERO PUSH2 0x1E5 JUMPI STOP JUMPDEST PUSH2 0x39D SWAP2 POP PUSH1 0x20 RETURNDATASIZE PUSH1 0x20 GT PUSH2 0x21E JUMPI PUSH2 0x210 DUP2 DUP4 PUSH2 0x6FD JUMP JUMPDEST DUP2 PUSH2 0x37C JUMP JUMPDEST PUSH4 0x1E9ACF17 PUSH1 0xE3 SHL PUSH1 0x0 MSTORE PUSH1 0x4 PUSH1 0x0 REVERT JUMPDEST SWAP2 POP POP PUSH1 0x20 DUP2 RETURNDATASIZE PUSH1 0x20 GT PUSH2 0x3E1 JUMPI JUMPDEST DUP2 PUSH2 0x3D0 PUSH1 0x20 SWAP4 DUP4 PUSH2 0x6FD JUMP JUMPDEST DUP2 ADD SUB SLT PUSH2 0xC7 JUMPI DUP2 SWAP1 MLOAD DUP6 PUSH2 0x332 JUMP JUMPDEST RETURNDATASIZE SWAP2 POP PUSH2 0x3C3 JUMP JUMPDEST PUSH4 0x39694BBF PUSH1 0xE1 SHL PUSH1 0x0 MSTORE PUSH1 0x4 PUSH1 0x0 REVERT JUMPDEST CALLVALUE PUSH2 0xC7 JUMPI PUSH1 0x40 CALLDATASIZE PUSH1 0x3 NOT ADD SLT PUSH2 0xC7 JUMPI PUSH1 0x4 CALLDATALOAD PUSH1 0x1 PUSH1 0x1 PUSH1 0xA0 SHL SUB DUP2 AND SWAP1 DUP2 SWAP1 SUB PUSH2 0xC7 JUMPI PUSH32 0x0 SWAP1 PUSH1 0x1 PUSH1 0x1 PUSH1 0xA0 SHL SUB DUP3 AND CALLER SUB PUSH2 0x268 JUMPI PUSH1 0x40 MLOAD PUSH4 0xA9059CBB PUSH1 0xE0 SHL DUP2 MSTORE PUSH1 0x1 PUSH1 0x1 PUSH1 0xA0 SHL SUB SWAP1 SWAP3 AND PUSH1 0x4 DUP4 ADD MSTORE PUSH1 0x24 DUP1 CALLDATALOAD SWAP1 DUP4 ADD MSTORE PUSH1 0x20 SWAP1 DUP3 SWAP1 DUP2 PUSH1 0x0 DUP2 PUSH1 0x44 DUP2 ADD PUSH2 0x369 JUMP JUMPDEST CALLVALUE PUSH2 0xC7 JUMPI PUSH1 0x0 CALLDATASIZE PUSH1 0x3 NOT ADD SLT PUSH2 0xC7 JUMPI PUSH1 0x40 MLOAD PUSH4 0x70A08231 PUSH1 0xE0 SHL DUP2 MSTORE ADDRESS PUSH1 0x4 DUP3 ADD MSTORE PUSH1 0x20 DUP2 PUSH1 0x24 DUP2 PUSH32 0x0 PUSH1 0x1 PUSH1 0x1 PUSH1 0xA0 SHL SUB AND GAS STATICCALL DUP1 ISZERO PUSH2 0x225 JUMPI PUSH1 0x0 SWAP1 PUSH2 0x4F8 JUMPI JUMPDEST PUSH1 0x20 SWAP1 PUSH1 0x40 MLOAD SWAP1 DUP2 MSTORE RETURN JUMPDEST POP PUSH1 0x20 DUP2 RETURNDATASIZE PUSH1 0x20 GT PUSH2 0x523 JUMPI JUMPDEST DUP2 PUSH2 0x512 PUSH1 0x20 SWAP4 DUP4 PUSH2 0x6FD JUMP JUMPDEST DUP2 ADD SUB SLT PUSH2 0xC7 JUMPI PUSH1 0x20 SWAP1 MLOAD PUSH2 0x4ED JUMP JUMPDEST RETURNDATASIZE SWAP2 POP PUSH2 0x505 JUMP JUMPDEST CALLVALUE PUSH2 0xC7 JUMPI PUSH1 0x0 CALLDATASIZE PUSH1 0x3 NOT ADD SLT PUSH2 0xC7 JUMPI PUSH1 0x40 MLOAD PUSH32 0x0 PUSH1 0x1 PUSH1 0x1 PUSH1 0xA0 SHL SUB AND DUP2 MSTORE PUSH1 0x20 SWAP1 RETURN JUMPDEST CALLVALUE PUSH2 0xC7 JUMPI PUSH1 0x0 CALLDATASIZE PUSH1 0x3 NOT ADD SLT PUSH2 0xC7 JUMPI PUSH1 0x20 PUSH2 0x58B PUSH2 0x74D JUMP JUMPDEST PUSH1 0x40 MLOAD SWAP1 DUP2 MSTORE RETURN JUMPDEST CALLVALUE PUSH2 0xC7 JUMPI PUSH1 0x20 CALLDATASIZE PUSH1 0x3 NOT ADD SLT PUSH2 0xC7 JUMPI PUSH1 0x4 CALLDATALOAD PUSH32 0x0 PUSH1 0x1 DUP1 PUSH1 0xA0 SHL SUB DUP2 AND SWAP3 DUP4 CALLER SUB PUSH2 0x3E9 JUMPI PUSH4 0x70A08231 PUSH1 0xE0 SHL DUP2 MSTORE ADDRESS PUSH1 0x4 DUP3 ADD MSTORE PUSH32 0x0 PUSH1 0x1 PUSH1 0x1 PUSH1 0xA0 SHL SUB AND SWAP1 PUSH1 0x20 DUP2 PUSH1 0x24 DUP2 DUP6 GAS STATICCALL DUP1 ISZERO PUSH2 0x225 JUMPI DUP5 SWAP2 PUSH1 0x0 SWAP2 PUSH2 0x6C8 JUMPI JUMPDEST POP LT PUSH2 0x3A3 JUMPI PUSH1 0x40 MLOAD PUSH4 0xA9059CBB PUSH1 0xE0 SHL DUP2 MSTORE PUSH1 0x1 PUSH1 0x1 PUSH1 0xA0 SHL SUB SWAP3 SWAP1 SWAP3 AND PUSH1 0x4 DUP4 ADD MSTORE PUSH1 0x24 DUP3 ADD DUP4 SWAP1 MSTORE PUSH1 0x20 SWAP1 DUP3 SWAP1 PUSH1 0x44 SWAP1 DUP3 SWAP1 PUSH1 0x0 SWAP1 GAS CALL SWAP1 DUP2 ISZERO PUSH2 0x225 JUMPI PUSH1 0x0 SWAP2 PUSH2 0x6A9 JUMPI JUMPDEST POP ISZERO PUSH2 0x1E5 JUMPI PUSH1 0x20 PUSH32 0xBE6073DB03B3A6C016732498A098235605104CAB36FF9E54C6FCE81B9871F48 SWAP2 PUSH1 0x40 MLOAD SWAP1 DUP2 MSTORE LOG2 STOP JUMPDEST PUSH2 0x6C2 SWAP2 POP PUSH1 0x20 RETURNDATASIZE PUSH1 0x20 GT PUSH2 0x21E JUMPI PUSH2 0x210 DUP2 DUP4 PUSH2 0x6FD JUMP JUMPDEST DUP4 PUSH2 0x676 JUMP JUMPDEST SWAP2 POP POP PUSH1 0x20 DUP2 RETURNDATASIZE PUSH1 0x20 GT PUSH2 0x6F5 JUMPI JUMPDEST DUP2 PUSH2 0x6E4 PUSH1 0x20 SWAP4 DUP4 PUSH2 0x6FD JUMP JUMPDEST DUP2 ADD SUB SLT PUSH2 0xC7 JUMPI DUP4 SWAP1 MLOAD DUP7 PUSH2 0x62D JUMP JUMPDEST RETURNDATASIZE SWAP2 POP PUSH2 0x6D7 JUMP JUMPDEST SWAP1 PUSH1 0x1F DUP1 NOT SWAP2 ADD AND DUP2 ADD SWAP1 DUP2 LT PUSH8 0xFFFFFFFFFFFFFFFF DUP3 GT OR PUSH2 0x71F JUMPI PUSH1 0x40 MSTORE JUMP JUMPDEST PUSH4 0x4E487B71 PUSH1 0xE0 SHL PUSH1 0x0 MSTORE PUSH1 0x41 PUSH1 0x4 MSTORE PUSH1 0x24 PUSH1 0x0 REVERT JUMPDEST SWAP1 DUP2 PUSH1 0x20 SWAP2 SUB SLT PUSH2 0xC7 JUMPI MLOAD DUP1 ISZERO ISZERO DUP2 SUB PUSH2 0xC7 JUMPI SWAP1 JUMP JUMPDEST PUSH1 0x40 MLOAD PUSH4 0x70A08231 PUSH1 0xE0 SHL DUP2 MSTORE ADDRESS PUSH1 0x4 DUP3 ADD MSTORE PUSH32 0x0 PUSH1 0x1 PUSH1 0x1 PUSH1 0xA0 SHL SUB AND PUSH1 0x20 DUP3 PUSH1 0x24 DUP2 DUP5 GAS STATICCALL SWAP2 DUP3 ISZERO PUSH2 0x225 JUMPI PUSH1 0x0 SWAP3 PUSH2 0x89E JUMPI JUMPDEST POP DUP2 PUSH2 0x7AF JUMPI POP POP PUSH1 0x0 SWAP1 JUMP JUMPDEST PUSH1 0x40 MLOAD DUP3 DUP2 MSTORE PUSH32 0x225269AEF2C88E0BAE5264EB6D44B932A797B7D1FCB397512D9187DDCB47F6B4 PUSH1 0x20 CALLER SWAP3 LOG2 PUSH1 0x40 MLOAD PUSH4 0xA9059CBB PUSH1 0xE0 SHL DUP2 MSTORE PUSH32 0x0 PUSH1 0x1 PUSH1 0x1 PUSH1 0xA0 SHL SUB DUP2 AND PUSH1 0x4 DUP4 ADD MSTORE PUSH1 0x24 DUP3 ADD DUP5 SWAP1 MSTORE SWAP2 PUSH1 0x20 SWAP1 DUP3 SWAP1 PUSH1 0x44 SWAP1 DUP3 SWAP1 PUSH1 0x0 SWAP1 GAS CALL SWAP1 DUP2 ISZERO PUSH2 0x225 JUMPI PUSH1 0x0 SWAP2 PUSH2 0x87F JUMPI JUMPDEST POP ISZERO PUSH2 0x1E5 JUMPI PUSH1 0x40 MLOAD DUP3 DUP2 MSTORE PUSH1 0x1 PUSH1 0x1 PUSH1 0xA0 SHL SUB SWAP1 SWAP2 AND SWAP1 PUSH32 0xBE6073DB03B3A6C016732498A098235605104CAB36FF9E54C6FCE81B9871F48 SWAP1 PUSH1 0x20 SWAP1 LOG2 SWAP1 JUMP JUMPDEST PUSH2 0x898 SWAP2 POP PUSH1 0x20 RETURNDATASIZE PUSH1 0x20 GT PUSH2 0x21E JUMPI PUSH2 0x210 DUP2 DUP4 PUSH2 0x6FD JUMP JUMPDEST CODESIZE PUSH2 0x83E JUMP JUMPDEST SWAP1 SWAP2 PUSH1 0x20 DUP3 RETURNDATASIZE PUSH1 0x20 GT PUSH2 0x8CA JUMPI JUMPDEST DUP2 PUSH2 0x8B9 PUSH1 0x20 SWAP4 DUP4 PUSH2 0x6FD JUMP JUMPDEST DUP2 ADD SUB SLT PUSH2 0x25D JUMPI POP MLOAD SWAP1 CODESIZE PUSH2 0x7A2 JUMP JUMPDEST RETURNDATASIZE SWAP2 POP PUSH2 0x8AC JUMP INVALID LOG2 PUSH5 0x6970667358 0x22 SLT KECCAK256 SWAP12 DUP13 PUSH31 0x342CAEA30046817B66AF8710B18E1562AB91387186889DB447A1FB15686473 PUSH16 0x6C634300081C00330000000000000000 "},"methodIdentifiers":{"EMERGENCY_RECIPIENT()":"9621bb99","SYI_CONTRACT()":"fc8c7f9d","USDT()":"c54e44eb","emergencyWithdraw()":"db2e21bc","emergencyWithdrawToken(address,uint256)":"a4c3b091","getUSDTBalance()":"9785fac8","receiveAndForward()":"4fa2d9d2","withdrawSYIToContract(uint256)":"b2d14c35","withdrawToSYI(uint256)":"0e0b6146"}}}}}