{"contracts/SYI/mainnet/SYI.sol":{"SYI":{"abi":[{"inputs":[{"internalType":"address","name":"_usdt","type":"address"},{"internalType":"address","name":"_router","type":"address"},{"internalType":"address","name":"_staking","type":"address"}],"stateMutability":"nonpayable","type":"constructor"},{"inputs":[],"name":"AlreadyInitialized","type":"error"},{"inputs":[],"name":"AlreadySet","type":"error"},{"inputs":[],"name":"Blacklisted","type":"error"},{"inputs":[],"name":"DelayedBuyPeriodNotMet","type":"error"},{"inputs":[{"internalType":"address","name":"spender","type":"address"},{"internalType":"uint256","name":"allowance","type":"uint256"},{"internalType":"uint256","name":"needed","type":"uint256"}],"name":"ERC20InsufficientAllowance","type":"error"},{"inputs":[{"internalType":"address","name":"sender","type":"address"},{"internalType":"uint256","name":"balance","type":"uint256"},{"internalType":"uint256","name":"needed","type":"uint256"}],"name":"ERC20InsufficientBalance","type":"error"},{"inputs":[{"internalType":"address","name":"approver","type":"address"}],"name":"ERC20InvalidApprover","type":"error"},{"inputs":[{"internalType":"address","name":"receiver","type":"address"}],"name":"ERC20InvalidReceiver","type":"error"},{"inputs":[{"internalType":"address","name":"sender","type":"address"}],"name":"ERC20InvalidSender","type":"error"},{"inputs":[{"internalType":"address","name":"spender","type":"address"}],"name":"ERC20InvalidSpender","type":"error"},{"inputs":[],"name":"InColdPeriod","type":"error"},{"inputs":[],"name":"InsufficientBalance","type":"error"},{"inputs":[],"name":"NotAllowedBuy","type":"error"},{"inputs":[{"internalType":"address","name":"owner","type":"address"}],"name":"OwnableInvalidOwner","type":"error"},{"inputs":[{"internalType":"address","name":"account","type":"address"}],"name":"OwnableUnauthorizedAccount","type":"error"},{"inputs":[],"name":"ZeroAddress","type":"error"},{"anonymous":false,"inputs":[{"indexed":true,"internalType":"address","name":"owner","type":"address"},{"indexed":true,"internalType":"address","name":"spender","type":"address"},{"indexed":false,"internalType":"uint256","name":"value","type":"uint256"}],"name":"Approval","type":"event"},{"anonymous":false,"inputs":[{"indexed":false,"internalType":"uint256","name":"marketingFee","type":"uint256"},{"indexed":false,"internalType":"uint256","name":"lpFee","type":"uint256"},{"indexed":false,"internalType":"string","name":"trigger","type":"string"}],"name":"AutoSwapTriggered","type":"event"},{"anonymous":false,"inputs":[{"indexed":false,"internalType":"bool","name":"enabled","type":"bool"}],"name":"DelayedBuyEnabled","type":"event"},{"anonymous":false,"inputs":[{"indexed":false,"internalType":"uint256","name":"newPeriod","type":"uint256"}],"name":"DelayedBuyPeriodUpdated","type":"event"},{"anonymous":false,"inputs":[{"indexed":true,"internalType":"address","name":"user","type":"address"},{"indexed":false,"internalType":"uint256","name":"amount","type":"uint256"},{"indexed":true,"internalType":"string","name":"category","type":"string"},{"indexed":true,"internalType":"address","name":"recipient","type":"address"}],"name":"FeeCollected","type":"event"},{"anonymous":false,"inputs":[{"indexed":false,"internalType":"uint256","name":"totalFees","type":"uint256"},{"indexed":false,"internalType":"string","name":"reason","type":"string"},{"indexed":false,"internalType":"uint256","name":"timestamp","type":"uint256"}],"name":"FeeProcessingSkipped","type":"event"},{"anonymous":false,"inputs":[{"indexed":false,"internalType":"uint256","name":"totalFees","type":"uint256"},{"indexed":true,"internalType":"address","name":"triggeredBy","type":"address"},{"indexed":false,"internalType":"string","name":"triggerType","type":"string"},{"indexed":false,"internalType":"uint256","name":"timestamp","type":"uint256"}],"name":"FeeProcessingTriggered","type":"event"},{"anonymous":false,"inputs":[{"indexed":false,"internalType":"string","name":"feeType","type":"string"},{"indexed":false,"internalType":"uint256","name":"amount","type":"uint256"},{"indexed":false,"internalType":"uint256","name":"totalAccumulated","type":"uint256"}],"name":"FeesAccumulated","type":"event"},{"anonymous":false,"inputs":[{"indexed":true,"internalType":"uint256","name":"timestamp","type":"uint256"},{"indexed":true,"internalType":"string","name":"processType","type":"string"},{"indexed":false,"internalType":"uint256","name":"totalFeesXF","type":"uint256"},{"indexed":false,"internalType":"uint256","name":"totalFeesUSDT","type":"uint256"},{"indexed":false,"internalType":"uint256","name":"lpAmount","type":"uint256"},{"indexed":false,"internalType":"uint256","name":"marketingAmount","type":"uint256"},{"indexed":false,"internalType":"uint256","name":"burnAmount","type":"uint256"},{"indexed":false,"internalType":"address","name":"lpRecipient","type":"address"},{"indexed":false,"internalType":"address","name":"marketingRecipient","type":"address"}],"name":"FeesProcessed","type":"event"},{"anonymous":false,"inputs":[{"indexed":false,"internalType":"uint256","name":"expectedAmount","type":"uint256"},{"indexed":false,"internalType":"uint256","name":"actualAmount","type":"uint256"},{"indexed":false,"internalType":"uint256","name":"timestamp","type":"uint256"}],"name":"FundRelayTransferFailed","type":"event"},{"anonymous":false,"inputs":[{"indexed":true,"internalType":"address","name":"user","type":"address"},{"indexed":true,"internalType":"uint256","name":"timestamp","type":"uint256"},{"indexed":false,"internalType":"uint256","name":"previousInvestment","type":"uint256"},{"indexed":false,"internalType":"uint256","name":"newInvestment","type":"uint256"},{"indexed":false,"internalType":"uint256","name":"changeAmount","type":"uint256"},{"indexed":false,"internalType":"string","name":"changeType","type":"string"}],"name":"InvestmentUpdated","type":"event"},{"anonymous":false,"inputs":[{"indexed":true,"internalType":"uint256","name":"timestamp","type":"uint256"},{"indexed":false,"internalType":"uint256","name":"regularFeesXF","type":"uint256"},{"indexed":false,"internalType":"uint256","name":"regularFeesUSDT","type":"uint256"},{"indexed":false,"internalType":"address","name":"liquidityStakingContract","type":"address"},{"indexed":false,"internalType":"string","name":"source","type":"string"}],"name":"LPDistribution","type":"event"},{"anonymous":false,"inputs":[{"indexed":false,"internalType":"uint256","name":"amount","type":"uint256"}],"name":"LPRewardDeposited","type":"event"},{"anonymous":false,"inputs":[{"indexed":false,"internalType":"uint256","name":"tokenAmount","type":"uint256"},{"indexed":false,"internalType":"uint256","name":"usdtAmount","type":"uint256"}],"name":"LiquidityAdded","type":"event"},{"anonymous":false,"inputs":[{"indexed":true,"internalType":"address","name":"from","type":"address"},{"indexed":true,"internalType":"address","name":"to","type":"address"},{"indexed":false,"internalType":"uint256","name":"feeAmount","type":"uint256"},{"indexed":false,"internalType":"uint256","name":"netAmount","type":"uint256"},{"indexed":false,"internalType":"string","name":"operationType","type":"string"}],"name":"LiquidityHandleFeeCollected","type":"event"},{"anonymous":false,"inputs":[{"indexed":true,"internalType":"address","name":"oldAddress","type":"address"},{"indexed":true,"internalType":"address","name":"newAddress","type":"address"}],"name":"MarketingAddressUpdated","type":"event"},{"anonymous":false,"inputs":[{"indexed":false,"internalType":"uint256","name":"timestamp","type":"uint256"},{"indexed":false,"internalType":"uint256","name":"tokenAmount","type":"uint256"},{"indexed":false,"internalType":"uint256","name":"usdtAmount","type":"uint256"},{"indexed":false,"internalType":"uint256","name":"rewardIndex","type":"uint256"},{"indexed":true,"internalType":"address","name":"recipient","type":"address"},{"indexed":false,"internalType":"string","name":"distributionType","type":"string"}],"name":"MarketingDistribution","type":"event"},{"anonymous":false,"inputs":[{"indexed":true,"internalType":"address","name":"seller","type":"address"},{"indexed":true,"internalType":"uint256","name":"timestamp","type":"uint256"},{"indexed":false,"internalType":"uint256","name":"feeAmountXF","type":"uint256"},{"indexed":false,"internalType":"uint256","name":"feeAmountUSDT","type":"uint256"},{"indexed":false,"internalType":"uint256","name":"saleValueUSDT","type":"uint256"},{"indexed":false,"internalType":"uint256","name":"userInvestmentUSDT","type":"uint256"}],"name":"NoProfitFeeCollected","type":"event"},{"anonymous":false,"inputs":[{"indexed":true,"internalType":"address","name":"previousOwner","type":"address"},{"indexed":true,"internalType":"address","name":"newOwner","type":"address"}],"name":"OwnershipTransferred","type":"event"},{"anonymous":false,"inputs":[{"indexed":false,"internalType":"uint256","name":"newDuration","type":"uint256"}],"name":"PresaleDurationUpdated","type":"event"},{"anonymous":false,"inputs":[{"indexed":false,"internalType":"bool","name":"active","type":"bool"}],"name":"PresaleStatusUpdated","type":"event"},{"anonymous":false,"inputs":[{"indexed":true,"internalType":"address","name":"seller","type":"address"},{"indexed":true,"internalType":"uint256","name":"timestamp","type":"uint256"},{"indexed":false,"internalType":"uint256","name":"originalXFAmount","type":"uint256"},{"indexed":false,"internalType":"uint256","name":"tradingFeeXF","type":"uint256"},{"indexed":false,"internalType":"uint256","name":"marketingFeeXF","type":"uint256"},{"indexed":false,"internalType":"uint256","name":"lpFeeXF","type":"uint256"},{"indexed":false,"internalType":"uint256","name":"netXFAfterTradingFees","type":"uint256"},{"indexed":false,"internalType":"uint256","name":"estimatedUSDTFromSale","type":"uint256"},{"indexed":false,"internalType":"uint256","name":"userHistoricalInvestment","type":"uint256"},{"indexed":false,"internalType":"uint256","name":"totalProfitAmount","type":"uint256"},{"indexed":false,"internalType":"uint256","name":"profitTaxUSDT","type":"uint256"},{"indexed":false,"internalType":"uint256","name":"noProfitFeeUSDT","type":"uint256"},{"indexed":false,"internalType":"uint256","name":"profitTaxToMarketing","type":"uint256"},{"indexed":false,"internalType":"uint256","name":"profitTaxToReferrer","type":"uint256"},{"indexed":false,"internalType":"uint256","name":"userNetProfitUSDT","type":"uint256"},{"indexed":false,"internalType":"uint256","name":"finalUSDTReceived","type":"uint256"},{"indexed":false,"internalType":"address","name":"referrer","type":"address"}],"name":"SellTransaction","type":"event"},{"anonymous":false,"inputs":[{"indexed":false,"internalType":"string","name":"reason","type":"string"},{"indexed":false,"internalType":"uint256","name":"tokenAmount","type":"uint256"},{"indexed":false,"internalType":"uint256","name":"timestamp","type":"uint256"}],"name":"SwapFailed","type":"event"},{"anonymous":false,"inputs":[{"indexed":false,"internalType":"uint256","name":"amount","type":"uint256"}],"name":"TokensBurned","type":"event"},{"anonymous":false,"inputs":[{"indexed":true,"internalType":"address","name":"user","type":"address"},{"indexed":true,"internalType":"uint256","name":"timestamp","type":"uint256"},{"indexed":true,"internalType":"string","name":"txType","type":"string"},{"indexed":false,"internalType":"uint256","name":"tokenAmount","type":"uint256"},{"indexed":false,"internalType":"uint256","name":"usdtAmount","type":"uint256"},{"indexed":false,"internalType":"uint256","name":"netUserReceived","type":"uint256"},{"indexed":false,"internalType":"uint256","name":"previousInvestment","type":"uint256"},{"indexed":false,"internalType":"uint256","name":"newInvestment","type":"uint256"},{"indexed":false,"internalType":"uint256","name":"burnFee","type":"uint256"},{"indexed":false,"internalType":"uint256","name":"lpFee","type":"uint256"},{"indexed":false,"internalType":"uint256","name":"marketingFee","type":"uint256"},{"indexed":false,"internalType":"uint256","name":"profitAmount","type":"uint256"},{"indexed":false,"internalType":"uint256","name":"profitTax","type":"uint256"},{"indexed":false,"internalType":"address","name":"referrer","type":"address"}],"name":"TransactionExecuted","type":"event"},{"anonymous":false,"inputs":[{"indexed":true,"internalType":"address","name":"from","type":"address"},{"indexed":true,"internalType":"address","name":"to","type":"address"},{"indexed":false,"internalType":"uint256","name":"value","type":"uint256"}],"name":"Transfer","type":"event"},{"anonymous":false,"inputs":[{"indexed":true,"internalType":"address","name":"from","type":"address"},{"indexed":true,"internalType":"address","name":"to","type":"address"},{"indexed":false,"internalType":"uint256","name":"feeAmount","type":"uint256"},{"indexed":false,"internalType":"uint256","name":"netAmount","type":"uint256"},{"indexed":false,"internalType":"string","name":"transferType","type":"string"}],"name":"TransferFeeCollected","type":"event"},{"anonymous":false,"inputs":[{"indexed":true,"internalType":"address","name":"user","type":"address"},{"indexed":true,"internalType":"uint256","name":"timestamp","type":"uint256"},{"indexed":false,"internalType":"string","name":"txType","type":"string"},{"indexed":false,"internalType":"uint256","name":"tokenAmount","type":"uint256"},{"indexed":false,"internalType":"uint256","name":"usdtAmount","type":"uint256"},{"indexed":false,"internalType":"uint256","name":"netReceived","type":"uint256"}],"name":"UserTransaction","type":"event"},{"inputs":[],"name":"DEAD_ADDRESS","outputs":[{"internalType":"address","name":"","type":"address"}],"stateMutability":"view","type":"function"},{"inputs":[],"name":"USDT","outputs":[{"internalType":"address","name":"","type":"address"}],"stateMutability":"view","type":"function"},{"inputs":[{"internalType":"address","name":"owner","type":"address"},{"internalType":"address","name":"spender","type":"address"}],"name":"allowance","outputs":[{"internalType":"uint256","name":"","type":"uint256"}],"stateMutability":"view","type":"function"},{"inputs":[],"name":"amountLPFee","outputs":[{"internalType":"uint256","name":"","type":"uint256"}],"stateMutability":"view","type":"function"},{"inputs":[],"name":"amountMarketingFee","outputs":[{"internalType":"uint256","name":"","type":"uint256"}],"stateMutability":"view","type":"function"},{"inputs":[{"internalType":"address","name":"spender","type":"address"},{"internalType":"uint256","name":"value","type":"uint256"}],"name":"approve","outputs":[{"internalType":"bool","name":"","type":"bool"}],"stateMutability":"nonpayable","type":"function"},{"inputs":[{"internalType":"address","name":"account","type":"address"}],"name":"balanceOf","outputs":[{"internalType":"uint256","name":"","type":"uint256"}],"stateMutability":"view","type":"function"},{"inputs":[{"internalType":"address","name":"","type":"address"}],"name":"blacklisted","outputs":[{"internalType":"bool","name":"","type":"bool"}],"stateMutability":"view","type":"function"},{"inputs":[],"name":"coldTime","outputs":[{"internalType":"uint256","name":"","type":"uint256"}],"stateMutability":"view","type":"function"},{"inputs":[],"name":"contractDeployTime","outputs":[{"internalType":"uint256","name":"","type":"uint256"}],"stateMutability":"view","type":"function"},{"inputs":[],"name":"decimals","outputs":[{"internalType":"uint8","name":"","type":"uint8"}],"stateMutability":"view","type":"function"},{"inputs":[],"name":"delayedBuyEnabled","outputs":[{"internalType":"bool","name":"","type":"bool"}],"stateMutability":"view","type":"function"},{"inputs":[],"name":"delayedBuyEnabledTime","outputs":[{"internalType":"uint256","name":"","type":"uint256"}],"stateMutability":"view","type":"function"},{"inputs":[{"internalType":"address","name":"","type":"address"}],"name":"feeWhitelisted","outputs":[{"internalType":"bool","name":"","type":"bool"}],"stateMutability":"view","type":"function"},{"inputs":[],"name":"fundRelay","outputs":[{"internalType":"contract FundRelay","name":"","type":"address"}],"stateMutability":"view","type":"function"},{"inputs":[],"name":"getAccumulatedFees","outputs":[{"internalType":"uint256","name":"marketing","type":"uint256"},{"internalType":"uint256","name":"lp","type":"uint256"},{"internalType":"uint256","name":"threshold","type":"uint256"}],"stateMutability":"view","type":"function"},{"inputs":[{"internalType":"uint256","name":"amountOut","type":"uint256"},{"internalType":"uint256","name":"reserveIn","type":"uint256"},{"internalType":"uint256","name":"reserveOut","type":"uint256"}],"name":"getAmountIn","outputs":[{"internalType":"uint256","name":"amountIn","type":"uint256"}],"stateMutability":"pure","type":"function"},{"inputs":[{"internalType":"uint256","name":"amountIn","type":"uint256"},{"internalType":"uint256","name":"reserveIn","type":"uint256"},{"internalType":"uint256","name":"reserveOut","type":"uint256"}],"name":"getAmountOut","outputs":[{"internalType":"uint256","name":"amountOut","type":"uint256"}],"stateMutability":"pure","type":"function"},{"inputs":[],"name":"getDelayedBuyInfo","outputs":[{"internalType":"bool","name":"enabled","type":"bool"},{"internalType":"bool","name":"testModeActive","type":"bool"},{"internalType":"uint256","name":"enabledTime","type":"uint256"},{"internalType":"uint256","name":"requiredDelay","type":"uint256"},{"internalType":"uint256","name":"remainingDelay","type":"uint256"}],"stateMutability":"view","type":"function"},{"inputs":[],"name":"getDelayedSwapStatus","outputs":[{"internalType":"bool","name":"pending","type":"bool"},{"internalType":"uint256","name":"totalFees","type":"uint256"}],"stateMutability":"view","type":"function"},{"inputs":[],"name":"getFundRelay","outputs":[{"internalType":"address","name":"","type":"address"}],"stateMutability":"view","type":"function"},{"inputs":[],"name":"getPresaleStatus","outputs":[{"internalType":"bool","name":"active","type":"bool"},{"internalType":"uint256","name":"startTime","type":"uint256"},{"internalType":"uint256","name":"duration","type":"uint256"},{"internalType":"uint256","name":"remainingTime","type":"uint256"},{"internalType":"bool","name":"isInPresale","type":"bool"}],"stateMutability":"view","type":"function"},{"inputs":[],"name":"getUSDTReserve","outputs":[{"internalType":"uint112","name":"usdtReserve","type":"uint112"}],"stateMutability":"view","type":"function"},{"inputs":[],"name":"getUniswapV2Pair","outputs":[{"internalType":"address","name":"","type":"address"}],"stateMutability":"view","type":"function"},{"inputs":[{"internalType":"address","name":"user","type":"address"}],"name":"getUserInvestment","outputs":[{"internalType":"uint256","name":"investment","type":"uint256"},{"internalType":"uint256","name":"lastBuy","type":"uint256"}],"stateMutability":"view","type":"function"},{"inputs":[],"name":"initializeWhitelist","outputs":[],"stateMutability":"nonpayable","type":"function"},{"inputs":[{"internalType":"address","name":"account","type":"address"}],"name":"isContract","outputs":[{"internalType":"bool","name":"","type":"bool"}],"stateMutability":"view","type":"function"},{"inputs":[{"internalType":"address","name":"buyer","type":"address"}],"name":"isDelayedBuyPeriodMet","outputs":[{"internalType":"bool","name":"","type":"bool"}],"stateMutability":"view","type":"function"},{"inputs":[{"internalType":"address","name":"","type":"address"}],"name":"lastBuyTime","outputs":[{"internalType":"uint256","name":"","type":"uint256"}],"stateMutability":"view","type":"function"},{"inputs":[],"name":"liquidityThreshold","outputs":[{"internalType":"uint256","name":"","type":"uint256"}],"stateMutability":"view","type":"function"},{"inputs":[],"name":"marketingAddress","outputs":[{"internalType":"address","name":"","type":"address"}],"stateMutability":"view","type":"function"},{"inputs":[],"name":"name","outputs":[{"internalType":"string","name":"","type":"string"}],"stateMutability":"view","type":"function"},{"inputs":[],"name":"nodeDividendAddress","outputs":[{"internalType":"address","name":"","type":"address"}],"stateMutability":"view","type":"function"},{"inputs":[],"name":"owner","outputs":[{"internalType":"address","name":"","type":"address"}],"stateMutability":"view","type":"function"},{"inputs":[],"name":"presaleActive","outputs":[{"internalType":"bool","name":"","type":"bool"}],"stateMutability":"view","type":"function"},{"inputs":[],"name":"presaleDuration","outputs":[{"internalType":"uint256","name":"","type":"uint256"}],"stateMutability":"view","type":"function"},{"inputs":[],"name":"presaleStartTime","outputs":[{"internalType":"uint256","name":"","type":"uint256"}],"stateMutability":"view","type":"function"},{"inputs":[{"internalType":"address","name":"token","type":"address"},{"internalType":"uint256","name":"amount","type":"uint256"}],"name":"recoverStuckTokens","outputs":[],"stateMutability":"nonpayable","type":"function"},{"inputs":[{"internalType":"uint256","name":"amount","type":"uint256"}],"name":"recycle","outputs":[],"stateMutability":"nonpayable","type":"function"},{"inputs":[],"name":"renounceOwnership","outputs":[],"stateMutability":"nonpayable","type":"function"},{"inputs":[],"name":"rootAddress","outputs":[{"internalType":"address","name":"","type":"address"}],"stateMutability":"view","type":"function"},{"inputs":[{"internalType":"address[]","name":"accounts","type":"address[]"},{"internalType":"bool","name":"_blacklisted","type":"bool"}],"name":"setBatchBlacklisted","outputs":[],"stateMutability":"nonpayable","type":"function"},{"inputs":[{"internalType":"address[]","name":"accounts","type":"address[]"},{"internalType":"bool","name":"_whitelisted","type":"bool"}],"name":"setBatchFeeWhitelisted","outputs":[],"stateMutability":"nonpayable","type":"function"},{"inputs":[{"internalType":"address","name":"account","type":"address"},{"internalType":"bool","name":"_blacklisted","type":"bool"}],"name":"setBlacklisted","outputs":[],"stateMutability":"nonpayable","type":"function"},{"inputs":[{"internalType":"uint256","name":"_coldTime","type":"uint256"}],"name":"setColdTime","outputs":[],"stateMutability":"nonpayable","type":"function"},{"inputs":[{"internalType":"bool","name":"_enabled","type":"bool"}],"name":"setDelayedBuyEnabled","outputs":[],"stateMutability":"nonpayable","type":"function"},{"inputs":[{"internalType":"address","name":"account","type":"address"},{"internalType":"bool","name":"whitelisted","type":"bool"}],"name":"setFeeWhitelisted","outputs":[],"stateMutability":"nonpayable","type":"function"},{"inputs":[{"internalType":"address","name":"_fundRelay","type":"address"}],"name":"setFundRelay","outputs":[],"stateMutability":"nonpayable","type":"function"},{"inputs":[{"internalType":"uint256","name":"newThreshold","type":"uint256"}],"name":"setLiquidityThreshold","outputs":[],"stateMutability":"nonpayable","type":"function"},{"inputs":[{"internalType":"address","name":"_newAddress","type":"address"}],"name":"setMarketingAddress","outputs":[],"stateMutability":"nonpayable","type":"function"},{"inputs":[{"internalType":"address","name":"_node","type":"address"}],"name":"setNodeDividendAddress","outputs":[],"stateMutability":"nonpayable","type":"function"},{"inputs":[{"internalType":"address","name":"_pair","type":"address"}],"name":"setPair","outputs":[],"stateMutability":"nonpayable","type":"function"},{"inputs":[{"internalType":"bool","name":"_active","type":"bool"}],"name":"setPresaleActive","outputs":[],"stateMutability":"nonpayable","type":"function"},{"inputs":[],"name":"setPresaleDuration","outputs":[],"stateMutability":"nonpayable","type":"function"},{"inputs":[{"internalType":"uint256","name":"_swapAtAmount","type":"uint256"}],"name":"setSwapAtAmount","outputs":[],"stateMutability":"nonpayable","type":"function"},{"inputs":[],"name":"staking","outputs":[{"internalType":"contract IStaking","name":"","type":"address"}],"stateMutability":"view","type":"function"},{"inputs":[],"name":"swapAtAmount","outputs":[{"internalType":"uint256","name":"","type":"uint256"}],"stateMutability":"view","type":"function"},{"inputs":[],"name":"symbol","outputs":[{"internalType":"string","name":"","type":"string"}],"stateMutability":"view","type":"function"},{"inputs":[],"name":"totalSupply","outputs":[{"internalType":"uint256","name":"","type":"uint256"}],"stateMutability":"view","type":"function"},{"inputs":[{"internalType":"address","name":"to","type":"address"},{"internalType":"uint256","name":"value","type":"uint256"}],"name":"transfer","outputs":[{"internalType":"bool","name":"","type":"bool"}],"stateMutability":"nonpayable","type":"function"},{"inputs":[{"internalType":"address","name":"from","type":"address"},{"internalType":"address","name":"to","type":"address"},{"internalType":"uint256","name":"value","type":"uint256"}],"name":"transferFrom","outputs":[{"internalType":"bool","name":"","type":"bool"}],"stateMutability":"nonpayable","type":"function"},{"inputs":[{"internalType":"address","name":"newOwner","type":"address"}],"name":"transferOwnership","outputs":[],"stateMutability":"nonpayable","type":"function"},{"inputs":[],"name":"triggerFeeProcessing","outputs":[],"stateMutability":"nonpayable","type":"function"},{"inputs":[],"name":"triggerFundRelayDistribution","outputs":[],"stateMutability":"nonpayable","type":"function"},{"inputs":[],"name":"uniswapV2Pair","outputs":[{"internalType":"contract IUniswapV2Pair","name":"","type":"address"}],"stateMutability":"view","type":"function"},{"inputs":[],"name":"uniswapV2Router","outputs":[{"internalType":"contract IUniswapV2Router02","name":"","type":"address"}],"stateMutability":"view","type":"function"},{"inputs":[{"internalType":"address","name":"","type":"address"}],"name":"userInvestment","outputs":[{"internalType":"uint256","name":"","type":"uint256"}],"stateMutability":"view","type":"function"}],"evm":{"bytecode":{"linkReferences":{},"object":"60e080604052346104d657606081613298803803809161001f82856104db565b8339810103126104d657610032816104fe565b9061004b6040610044602084016104fe565b92016104fe565b906040519261005b6040856104db565b600984526829aca4902a37b5b2b760b91b6020850152604051936100806040866104db565b600385526253594960e81b60208601528051906001600160401b0382116103d35760035490600182811c921680156104cc575b60208310146103b35781601f84931161045c575b50602090601f83116001146103f4576000926103e9575b50508160011b916000199060031b1c1916176003555b83516001600160401b0381116103d357600454600181811c911680156103c9575b60208210146103b357601f811161034e575b50602094601f82116001146102e7579481929394956000926102dc575b50508160011b916000199060031b1c1916176004555b33156102c65760058054336001600160a01b0319821681179092556001600160a01b03167f8be0079c531659141344cd1fd0a4f28419497f9722a3daafe3b4186f6b6457e0600080a3600a600b5569021e19e0c9bab2400000600e55633b9aca006019556001600160a01b0381161580156102b5575b80156102a4575b610293576080526001600160a01b0390811660a0521660c0526101f933610512565b4260125542600f5562278d00601055600160ff196011541617601155604051612cf190816105a7823960805181818161073901528181611acb01528181612463015281816126cf0152612802015260a05181818161137401528181611525015281816122df01528181612352015261282e015260c0518181816104a701528181610f90015281816110010152818161123401526113410152f35b63d92e233d60e01b60005260046000fd5b506001600160a01b038316156101d7565b506001600160a01b038216156101d0565b631e4fbdf760e01b600052600060045260246000fd5b015190503880610144565b601f198216956004600052806000209160005b8881106103365750836001959697981061031d575b505050811b0160045561015a565b015160001960f88460031b161c1916905538808061030f565b919260206001819286850151815501940192016102fa565b60046000527f8a35acfbc15ff81a39ae7d344fd709f28e8600b4aa8c65c6b64bfe7fe36bd19b601f830160051c810191602084106103a9575b601f0160051c01905b81811061039d5750610127565b60008155600101610390565b9091508190610387565b634e487b7160e01b600052602260045260246000fd5b90607f1690610115565b634e487b7160e01b600052604160045260246000fd5b0151905038806100de565b600360009081528281209350601f198516905b818110610444575090846001959493921061042b575b505050811b016003556100f4565b015160001960f88460031b161c1916905538808061041d565b92936020600181928786015181550195019301610407565b60036000529091507fc2575a0e9e593c00f959f8c92f12db2869c3395a3b0502d05e2516446f71f85b601f840160051c810191602085106104c2575b90601f859493920160051c01905b8181106104b357506100c7565b600081558493506001016104a6565b9091508190610498565b91607f16916100b3565b600080fd5b601f909101601f19168101906001600160401b038211908210176103d357604052565b51906001600160a01b03821682036104d657565b6a084595161401484a00000090600090600254838101809111610590577fddf252ad1be2c89b69c2b068fc378daa952ba7f163c4a11628f55a4df523b3ef916020916002556001600160a01b031693846105785780600254036002555b604051908152a3565b8460005260008252604060002081815401905561056f565b634e487b7160e01b600052601160045260246000fdfe6080604052600436101561001257600080fd5b6000803560e01c8063054d50d41461165f57806306fdde03146115a2578063095ea7b31461157b57806316279055146115545780631694505e1461150f57806318160ddd146114f15780631abfa6291461105357806321e2c9571461149557806323b872dd146113b45780632927bacd146112d9578063313ce567146112bd57806332f658811461128057806336543fb91461126257806338a674c5146111c95780633c19814e1461117d5780633f8121a2146110db5780633fecc2e2146110a257806343a066aa1461107c57806349bd5a5e146110535780634baf59f3146110305780634cf088d914610feb5780634e6fd6c414610fce57806352795e0b14610f7957806353135ca014610f56578063569ea10114610f17578063570475dc14610ee85780635868c32a14610eca5780635df45a3714610e9b578063615c440914610e72578063622e6ad814610e4f5780636402511e14610e2c57806366d57b9514610e0e57806370a0823114610dcc578063715018a614610d6f5780637464024c146108d95780638187f51614610d0857806385f8c25914610c5a578063861bd3c514610bfb5780638691752414610bdd5780638733cfd314610ba457806387894d0314610b765780638da5cb5b14610b4d578063906e9dd014610ab257806390e82f2414610a4f5780639315e56114610a3157806395d89b41146109205780639f54790d14610902578063a4823059146108d9578063a5ece941146108b0578063a82524b214610892578063a9059cbb14610860578063aaa2b8c814610837578063af24ccaa146107ba578063b99ce15e14610768578063c54e44eb14610723578063c596f3fe146106f5578063c9688086146106d7578063d01dd6d214610685578063d123de3114610659578063d4273cd61461063b578063d7517caa146105bc578063dbac26e91461057d578063dd1c35bc14610490578063dd62ed3e1461043b578063f2fde38b146103b2578063fdc0cdbf1461038e5763ff919151146102fe57600080fd5b3461038b578060031936011261038b5760115460135460a09260089290921c60ff16159190821561034c57815b604051931584526020840152604083015262278d0060608301526080820152f35b801561038357805b61035d81611889565b421061036a57508161032b565b61037d906103784291611889565b611b62565b9161032b565b601254610354565b80fd5b503461038b578060031936011261038b576103a7611ba2565b6103af612103565b80f35b503461038b57602036600319011261038b576103cc611719565b6103d4611ba2565b6001600160a01b0316801561042757600580546001600160a01b0319811683179091556001600160a01b03167f8be0079c531659141344cd1fd0a4f28419497f9722a3daafe3b4186f6b6457e08380a380f35b631e4fbdf760e01b82526004829052602482fd5b503461038b57604036600319011261038b576040610457611719565b9161046061172f565b9260018060a01b031681526001602052209060018060a01b03166000526020526020604060002054604051908152f35b503461038b57602036600319011261038b576004357f00000000000000000000000000000000000000000000000000000000000000006001600160a01b03166104da338214611845565b6006546001600160a01b031660008181526020819052604090205490929060039004908181106105755750905b81610510578380f35b61051992611bcb565b60065481906001600160a01b0316803b156105725781809160046040518095819363fff6cae960e01b83525af180156105655761055557818380f35b61055e91611763565b3881818380f35b50604051903d90823e3d90fd5b50fd5b905090610507565b503461038b57602036600319011261038b5760209060ff906040906001600160a01b036105a8611719565b168152601884522054166040519015158152f35b503461038b578060031936011261038b5760a090600f54906010546105e181846118af565b918242109283600014610634576105fa91504290611b62565b905b60115460ff169384938461062c575b50604051941515855260208501526040840152606083015215156080820152f35b93503861060b565b50906105fc565b503461038b578060031936011261038b576020601354604051908152f35b503461038b578060031936011261038b576020610674611a59565b6001600160701b0360405191168152f35b503461038b57604036600319011261038b576103af6106a2611719565b6106aa611754565b906106b3611ba2565b60018060a01b031683526018602052604083209060ff801983541691151516179055565b503461038b578060031936011261038b576020601954604051908152f35b503461038b57604036600319011261038b576103af610712611719565b61071a611ba2565b60243590611961565b503461038b578060031936011261038b576040517f00000000000000000000000000000000000000000000000000000000000000006001600160a01b03168152602090f35b503461038b57604036600319011261038b576103af610785611719565b61078d611754565b90610796611ba2565b60018060a01b031683526017602052604083209060ff801983541691151516179055565b503461038b57602036600319011261038b577f2c8ccbef4032016d78404afa804c622487ae3acab4caeff4b2dba121d7488c1860206107f7611745565b6107ff611ba2565b8015159060115461ff008360081b169061ff0019161760115560001461082e57426013555b604051908152a180f35b83601355610824565b503461038b578060031936011261038b576008546040516001600160a01b039091168152602090f35b503461038b57604036600319011261038b5761088761087d611719565b6024359033611bcb565b602060405160018152f35b503461038b578060031936011261038b576020600f54604051908152f35b503461038b578060031936011261038b576009546040516001600160a01b039091168152602090f35b503461038b578060031936011261038b576007546040516001600160a01b039091168152602090f35b503461038b578060031936011261038b576020601254604051908152f35b503461038b578060031936011261038b576040519080600454908160011c91600181168015610a27575b602084108114610a13578386529081156109ec575060011461098f575b61098b8461097781860382611763565b6040519182916020835260208301906116d8565b0390f35b600481527f8a35acfbc15ff81a39ae7d344fd709f28e8600b4aa8c65c6b64bfe7fe36bd19b939250905b8082106109d25750909150810160200161097782610967565b9192600181602092548385880101520191019092916109b9565b60ff191660208087019190915292151560051b850190920192506109779150839050610967565b634e487b7160e01b83526022600452602483fd5b92607f169261094a565b503461038b578060031936011261038b576020600d54604051908152f35b503461038b57610a5e3661179b565b610a66611ba2565b825b8251811015610aae576001906001600160a01b03610a8682866118bc565b511685526017602052610aa883604087209060ff801983541691151516179055565b01610a68565b8380f35b503461038b57602036600319011261038b57610acc611719565b610ad4611ba2565b6001600160a01b03168015610b3e57600980546001600160a01b031981168317909155818352601760205260408320805460ff191660011790556001600160a01b03167fa8efc72ed34f90017df79620d1972d42b8e3b17eb0077fc5fc46cbf1a19ed9a98380a380f35b63d92e233d60e01b8252600482fd5b503461038b578060031936011261038b576005546040516001600160a01b039091168152602090f35b503461038b57602036600319011261038b576020610b9a610b95611719565b6118e6565b6040519015158152f35b503461038b57602036600319011261038b576020906040906001600160a01b03610bcc611719565b168152601583522054604051908152f35b503461038b578060031936011261038b576020600e54604051908152f35b503461038b57610c0a3661179b565b610c12611ba2565b825b8251811015610aae576001906001600160a01b03610c3282866118bc565b511685526018602052610c5483604087209060ff801983541691151516179055565b01610c14565b503461038b57610c75610c6c366116b9565b92908290611b8f565b916127108302928084046127101490151715610cf45790610c9591611b62565b906126f78202918083046126f71490151715610ce05790610cb591611b6f565b9060018201809211610ccc57602082604051908152f35b634e487b7160e01b81526011600452602490fd5b634e487b7160e01b83526011600452602483fd5b634e487b7160e01b84526011600452602484fd5b503461038b57602036600319011261038b57610d22611719565b610d2a611ba2565b6001600160a01b03168015610b3e576006546001600160a01b038116610d60576001600160a01b031916176006556103af612103565b63a741a04560e01b8352600483fd5b503461038b578060031936011261038b57610d88611ba2565b600580546001600160a01b0319811690915581906001600160a01b03167f8be0079c531659141344cd1fd0a4f28419497f9722a3daafe3b4186f6b6457e08280a380f35b503461038b57602036600319011261038b576020610e06610deb611719565b6001600160a01b031660009081526020819052604090205490565b604051908152f35b503461038b578060031936011261038b576020600c54604051908152f35b503461038b57602036600319011261038b57610e46611ba2565b600435600e5580f35b503461038b57602036600319011261038b57610e69611ba2565b600435600b5580f35b503461038b578060031936011261038b57600a546040516001600160a01b039091168152602090f35b503461038b578060031936011261038b576060600c54600d54600e549060405192835260208301526040820152f35b503461038b578060031936011261038b576020601054604051908152f35b503461038b578060031936011261038b57604090610f0b600c54600d54906118af565b82519182526020820152f35b503461038b57602036600319011261038b5760209060ff906040906001600160a01b03610f42611719565b168152601784522054166040519015158152f35b503461038b578060031936011261038b57602060ff601154166040519015158152f35b503461038b578060031936011261038b57610fbe337f00000000000000000000000000000000000000000000000000000000000000006001600160a01b031614611845565b610fc6612031565b6103af611f29565b503461038b578060031936011261038b57602060405161dead8152f35b503461038b578060031936011261038b576040517f00000000000000000000000000000000000000000000000000000000000000006001600160a01b03168152602090f35b503461038b57602036600319011261038b5761104a611ba2565b60043560195580f35b503461038b578060031936011261038b576006546040516001600160a01b039091168152602090f35b503461038b578060031936011261038b57602060ff60115460081c166040519015158152f35b503461038b57602036600319011261038b576020906040906001600160a01b036110ca611719565b168152601683522054604051908152f35b503461038b57602036600319011261038b577ff19c3bdddf1b5ac58b32a05cc2bc72313b03a8e8ceb7621e8818651371e00e546020611118611745565b611120611ba2565b8015159060ff196011541660ff83161760115561114157604051908152a180f35b42600f5562278d006010557fdbeb6ec948f6eb874ecbd6117742652c35d57fbe578b778b77e677a06af90b968260405162278d008152a1610824565b503461038b57602036600319011261038b57611197611719565b61119f611ba2565b6001600160a01b03168015610b3e576bffffffffffffffffffffffff60a01b600a541617600a5580f35b503461038b578060031936011261038b576005546001600160a01b031633148015611230575b156111fc576103af611f29565b60405162461bcd60e51b815260206004820152600c60248201526b155b985d5d1a1bdc9a5e995960a21b6044820152606490fd5b50337f00000000000000000000000000000000000000000000000000000000000000006001600160a01b0316146111ef565b503461038b578060031936011261038b576020600b54604051908152f35b503461038b57602036600319011261038b576040906001600160a01b036112a5611719565b16815260166020528181205482519182526020820152f35b503461038b578060031936011261038b57602060405160128152f35b503461038b578060031936011261038b576112f2611ba2565b601a5460ff81166113a657600160ff199182168117601a556005546001600160a01b039081168452601760208181526040808720805487168617905530875282825280872080548716861790557f00000000000000000000000000000000000000000000000000000000000000008416875282825280872080548716861790557f00000000000000000000000000000000000000000000000000000000000000009093168652528320805490921617905580f35b62dc149f60e41b8252600482fd5b503461038b57606036600319011261038b576113ce611719565b6113d661172f565b6001600160a01b03821680845260016020908152604080862033875290915284205460443593916000198210611413575b50506108879350611bcb565b84821061147a5780156114665733156114525760408686926108879852600160205281812060018060a01b033316825260205220910390553880611407565b634a1406b160e11b86526004869052602486fd5b63e602df0560e01b86526004869052602486fd5b6064868684637dc7a0d960e11b835233600452602452604452fd5b503461038b57602036600319011261038b576114af611719565b6114b7611ba2565b6001600160a01b03168015610b3e57600780546001600160a01b031916821790558152601760205260408120805460ff1916600117905580f35b503461038b578060031936011261038b576020600254604051908152f35b503461038b578060031936011261038b576040517f00000000000000000000000000000000000000000000000000000000000000006001600160a01b03168152602090f35b503461038b57602036600319011261038b576020611570611719565b3b1515604051908152f35b503461038b57604036600319011261038b57610887611598611719565b6024359033612139565b503461038b578060031936011261038b576040519080600354908160011c91600181168015611655575b602084108114610a13578386529081156109ec57506001146115f85761098b8461097781860382611763565b600381527fc2575a0e9e593c00f959f8c92f12db2869c3395a3b0502d05e2516446f71f85b939250905b80821061163b5750909150810160200161097782610967565b919260018160209254838588010152019101909291611622565b92607f16926115cc565b503461038b5761166e366116b9565b6126f78302928084046126f71490151715610cf45761168d9083611b8f565b926127108202918083046127101490151715610ccc576020610e06856116b386866118af565b90611b6f565b60609060031901126116d357600435906024359060443590565b600080fd5b919082519283825260005b848110611704575050826000602080949584010152601f8019910116010190565b806020809284010151828286010152016116e3565b600435906001600160a01b03821682036116d357565b602435906001600160a01b03821682036116d357565b6004359081151582036116d357565b6024359081151582036116d357565b90601f8019910116810190811067ffffffffffffffff82111761178557604052565b634e487b7160e01b600052604160045260246000fd5b60406003198201126116d3576004359067ffffffffffffffff82116116d357806023830112156116d35781600401359067ffffffffffffffff82116117855760208260051b01926117ef6040519485611763565b8284526024602085019360051b8201019182116116d357602401915b818310611825575050509060243580151581036116d35790565b82356001600160a01b03811681036116d35781526020928301920161180b565b1561184c57565b60405162461bcd60e51b815260206004820152601560248201527413db9b1e481cdd185ada5b99c818dbdb9d1c9858dd605a1b6044820152606490fd5b9062278d00820180921161189957565b634e487b7160e01b600052601160045260246000fd5b9190820180921161189957565b80518210156118d05760209160051b010190565b634e487b7160e01b600052603260045260246000fd5b60ff60115460081c1615908115611926575b506119215760135480156119155761190f90611889565b42101590565b5061190f601254611889565b600190565b6001600160a01b031660009081526017602052604090205460ff169050386118f8565b908160209103126116d3575180151581036116d35790565b6001600160a01b03163081146119ec5760055460405163a9059cbb60e01b81526001600160a01b0390911660048201526024810192909252602090829060449082906000905af180156119e0576119b55750565b6119d69060203d6020116119d9575b6119ce8183611763565b810190611949565b50565b503d6119c4565b6040513d6000823e3d90fd5b5050565b51906001600160701b03821682036116d357565b908160609103126116d357611a18816119f0565b916040611a27602084016119f0565b92015163ffffffff811681036116d35790565b908160209103126116d357516001600160a01b03811681036116d35790565b600654604051630240bc6b60e21b8152906001600160a01b0316606082600481845afa9081600093600093611b2a575b50611a9657505050600090565b602060049160405192838092630dfe168160e01b82525afa9081156119e057600091611afb575b506001600160a01b039081167f000000000000000000000000000000000000000000000000000000000000000090911603611af6575090565b905090565b611b1d915060203d602011611b23575b611b158183611763565b810190611a3a565b38611abd565b503d611b0b565b909250611b5091935060603d606011611b5b575b611b488183611763565b810190611a04565b509290929138611a89565b503d611b3e565b9190820391821161189957565b8115611b79570490565b634e487b7160e01b600052601260045260246000fd5b8181029291811591840414171561189957565b6005546001600160a01b03163303611bb657565b63118cdaa760e01b6000523360045260246000fd5b906001600160a01b03821680158015611f18575b611eeb5780600052601760205260ff604060002054168015611ef6575b611eeb57611c0a82846122b5565b611c148385612329565b9015611da05750506001600160a01b03811660008181526018602052604090205490929060ff16611d8f5760115460ff8160081c1680611d76575b611d3e575b60ff1680611d27575b611d1757611c6c9184916121cc565b8060005260166020524260406000205560036040516242555960e81b815220604051827f681f1f0fb3679a87b3423967dfa2ec97150b706d392eada5b3617c7508afc765429280611cbe88808361238a565b0390a46040519160808352600360808401526242555960e81b60a08401528060208401526000604084015260608301527ffde30999d0ea66fcaf14400b79c9e771a1a87176335a8cc91382321a3d0a0c1f60c04293a35b565b624e610160e31b60005260046000fd5b50611d37600f54601054906118af565b4210611c5d565b6013548015611d6d575b62278d00810180911161189957421015611c54576320cf80f960e01b60005260046000fd5b50601254611d48565b5083600052601760205260ff6040600020541615611c4f565b6309550c7760e01b60005260046000fd5b9093929015611ed95783600052601860205260ff60406000205416611d8f57836000526016602052611dda604060002054600b54906118af565b4210611ec857611deb9183916121cc565b604051818152600060208201526000604082015260006060820152816080820152600060a0820152600060c0820152600060e08201526000610100820152600061012082015260006101408201526000610160820152600061018082015260006101a082015260006101c0820152827f14f1a00236d7bca73ddcf087e3d43ca785808697c6fde3616f17d02d6f2c68e36101e04293a360046040516314d1531360e21b815220917f681f1f0fb3679a87b3423967dfa2ec97150b706d392eada5b3617c7508afc76560405180611ec34295808361238a565b0390a4565b63465fd09160e01b60005260046000fd5b611ee393506121cc565b611d15612031565b50611d1592916121cc565b506001600160a01b03821660009081526017602052604090205460ff16611bfc565b506001600160a01b03821615611bdf565b600c54600e5481101580612024575b611f3f5750565b611f476123d6565b15611fc45760405190815260606020820152600e60608201526d10555513d7d512149154d213d31160921b60808201524260408201527f0d8296aa488bfcef418c563cfdccad96b64e0d82f06eda3fe90068d39c9fb85c60a03392a2600160ff196014541617601455611fb86125e2565b60ff1960145416601455565b60a07fe87b88b4c27d1729d389885f3f6648294b68791762d08e1bc96ece2f6dff0b1491604051908152606060208201526016606082015275494e53554646494349454e545f4c495155494449545960501b6080820152426040820152a1565b5060ff6014541615611f38565b6007546001600160a01b031680156119d65760206000916004604051809481936327d16ce960e11b83525af1600091816120cf575b5061206e5750565b806120765750565b60176040517f46554e445f52454c41595f444953545249425554494f4e00000000000000000081522060405191825230917fdc0542397de1d347eb80cba6dcba197e295e2516706ef1dd5a16d8ac5fb3eeda60203092a4565b90916020823d6020116120fb575b816120ea60209383611763565b8101031261038b5750519038612066565b3d91506120dd565b62278d006010557fdbeb6ec948f6eb874ecbd6117742652c35d57fbe578b778b77e677a06af90b96602060405162278d008152a1565b6001600160a01b03169081156121b6576001600160a01b03169182156121a05760207f8c5be1e5ebec7d5bd14f71427d1e84f3dd0314c0f7b2291e5b200ac8c7c3b925918360005260018252604060002085600052825280604060002055604051908152a3565b634a1406b160e11b600052600060045260246000fd5b63e602df0560e01b600052600060045260246000fd5b6001600160a01b031690816122485760207fddf252ad1be2c89b69c2b068fc378daa952ba7f163c4a11628f55a4df523b3ef9161220b856002546118af565b6002555b6001600160a01b031693846122305780600254036002555b604051908152a3565b84600052600082526040600020818154019055612227565b816000526000602052604060002054838110612298577fddf252ad1be2c89b69c2b068fc378daa952ba7f163c4a11628f55a4df523b3ef918460209285600052600084520360406000205561220f565b91905063391434e360e21b60005260045260245260445260646000fd5b6006546001600160a01b03908116929116829003612322576001600160a01b0316818114612322577f00000000000000000000000000000000000000000000000000000000000000006001600160a01b03161461231c57330361231757600190565b600090565b50600090565b5050600090565b6006546001600160a01b039081169216829003612322576001600160a01b0316818114612322577f00000000000000000000000000000000000000000000000000000000000000006001600160a01b03161461231c57331461231757600190565b610140906000929493610160820195825283602083015260408201528260608201528260808201528260a08201528260c08201528260e082015282610100820152826101208201520152565b600c54801561231c57306000526000602052806040600020541061231c57600654604051630240bc6b60e21b8152906001600160a01b0316606082600481845afa91826000916000946125be575b506124325750505050600090565b604051630dfe168160e01b815290602082600481865afa9182156119e05760009261259d575b506001600160a01b037f00000000000000000000000000000000000000000000000000000000000000008116921682036125975792905b6001600160a01b03831660009081526020818152604090912054936024604051809481936370a0823160e01b835260048301525afa9081156119e057600091612565575b506001600160701b03821693605f850293851594868104605f1486171561189957606490041161255a576001600160701b0316605f810290808204605f1490151715611899576064900411612551576e01fffffffffffffffffffffffffffe9060011b16918204600214171561189957606490041061231757600190565b50505050600090565b505050505050600090565b90506020813d60201161258f575b8161258060209383611763565b810103126116d35751386124d3565b3d9150612573565b9061248f565b6125b791925060203d602011611b2357611b158183611763565b9038612458565b9093506125da915060603d606011611b5b57611b488183611763565b509238612424565b600c5480156119d6576000600c55600160ff196014541617601455612606816127b5565b9060ff196014541660145581151580612729575b61269a575b60018060a01b036009541660106040516f414343554d554c415445445f4645455360801b8152209260405192835280602084015260006040840152606083015260006080830152600060a083015260c08201527f86e133fbf1e40a6a97b6c78d78538f95f9c3b84ec08e1a53eb43fb050d9acb9460e04292a3565b60095460405163a9059cbb60e01b81526001600160a01b039091166004820152602481018390526020818060448101038160007f00000000000000000000000000000000000000000000000000000000000000006001600160a01b03165af180156119e05761270a575b5061261f565b6127229060203d6020116119d9576119ce8183611763565b5038612704565b506009546001600160a01b0316151561261a565b600060443d106127a4576040513d600319016004823e8051913d602484011167ffffffffffffffff8411176127af578282019283519167ffffffffffffffff83116127a7573d840160031901858401602001116127a757506127a492910160200190611763565b90565b949350505050565b92915050565b60009080158015612ca7575b612ca35760606040516127d48282611763565b6002815260208101601f198301368237815115612c8f57308152815160011015612c8f576001600160a01b037f000000000000000000000000000000000000000000000000000000000000000081166040840181905292907f000000000000000000000000000000000000000000000000000000000000000016612859868230612139565b6007546001600160a01b03168015612c8757925b6040516370a0823160e01b815230600482015293602085602481895afa948515612c7c578995612c44575b5061012c420190814211612c3057833b15612c2c579391899391604051958694635c11d79560e01b865260a48601908c600488015287602488015260a060448801525180915260c486019390875b818110612c07575050506001600160a01b03166064850152608484015282900390829084905af19081612bf3575b506129d7575050907f23710c5e610526df3c632bc797fb4914964991cc07e128ee2af743aeed319e06918360033d116129c7575b6308c379a01461298c575b60a091601260405192808452830152712ab735b737bbb71039bbb0b81032b93937b960711b60808301526020820152426040820152a190565b61299461273d565b91826129a1579150612953565b6129b56040519383859485528401906116d8565b9060208301524260408301520390a190565b50600484803e835160e01c612948565b6007546001600160a01b0316918215612af4575050602084916004604051809781936327d16ce960e11b83525af1938415610565578194612ac0575b508315612a21575b50505090565b7f23710c5e610526df3c632bc797fb4914964991cc07e128ee2af743aeed319e0660a07f163a4024b77f02bfab6d1e18c917f413dc151008cf420bf1e0309f0cf8d7b1fa94604051908582526019868301527f46756e6452656c6179207472616e73666572206661696c65640000000000000060808301526020820152426040820152a1604051908082526020820152426040820152a1388080612a1b565b9093506020813d602011612aec575b81612adc60209383611763565b810103126116d357519238612a13565b3d9150612acf565b6040516370a0823160e01b815230600482015294959394919250602090829060249082905afa908115612be8578391612bb6575b5081811115612bae57612b3b9250611b62565b915b8215612b4857505090565b7f23710c5e610526df3c632bc797fb4914964991cc07e128ee2af743aeed319e069160a091601e604051928084528301527f44697265637420737761702072657475726e6564207a65726f2055534454000060808301526020820152426040820152a190565b505091612b3d565b90506020813d602011612be0575b81612bd160209383611763565b810103126116d3575138612b28565b3d9150612bc4565b6040513d85823e3d90fd5b86612c0091979297611763565b9438612914565b82516001600160a01b031686528e9850899750602095860195909201916001016128e6565b8980fd5b634e487b7160e01b8a52601160045260248afd5b9094506020813d602011612c74575b81612c6060209383611763565b81010312612c7057519338612898565b8880fd5b3d9150612c53565b6040513d8b823e3d90fd5b50309261286d565b634e487b7160e01b85526032600452602485fd5b5090565b5030825281602052806040832054106127c156fea2646970667358221220c064b13e46fd7093af59b722c60aae8d48f747680382bd930cb4bb2e11d9cf1d64736f6c634300081c0033","opcodes":"PUSH1 0xE0 DUP1 PUSH1 0x40 MSTORE CALLVALUE PUSH2 0x4D6 JUMPI PUSH1 0x60 DUP2 PUSH2 0x3298 DUP1 CODESIZE SUB DUP1 SWAP2 PUSH2 0x1F DUP3 DUP6 PUSH2 0x4DB JUMP JUMPDEST DUP4 CODECOPY DUP2 ADD SUB SLT PUSH2 0x4D6 JUMPI PUSH2 0x32 DUP2 PUSH2 0x4FE JUMP JUMPDEST SWAP1 PUSH2 0x4B PUSH1 0x40 PUSH2 0x44 PUSH1 0x20 DUP5 ADD PUSH2 0x4FE JUMP JUMPDEST SWAP3 ADD PUSH2 0x4FE JUMP JUMPDEST SWAP1 PUSH1 0x40 MLOAD SWAP3 PUSH2 0x5B PUSH1 0x40 DUP6 PUSH2 0x4DB JUMP JUMPDEST PUSH1 0x9 DUP5 MSTORE PUSH9 0x29ACA4902A37B5B2B7 PUSH1 0xB9 SHL PUSH1 0x20 DUP6 ADD MSTORE PUSH1 0x40 MLOAD SWAP4 PUSH2 0x80 PUSH1 0x40 DUP7 PUSH2 0x4DB JUMP JUMPDEST PUSH1 0x3 DUP6 MSTORE PUSH3 0x535949 PUSH1 0xE8 SHL PUSH1 0x20 DUP7 ADD MSTORE DUP1 MLOAD SWAP1 PUSH1 0x1 PUSH1 0x1 PUSH1 0x40 SHL SUB DUP3 GT PUSH2 0x3D3 JUMPI PUSH1 0x3 SLOAD SWAP1 PUSH1 0x1 DUP3 DUP2 SHR SWAP3 AND DUP1 ISZERO PUSH2 0x4CC JUMPI JUMPDEST PUSH1 0x20 DUP4 LT EQ PUSH2 0x3B3 JUMPI DUP2 PUSH1 0x1F DUP5 SWAP4 GT PUSH2 0x45C JUMPI JUMPDEST POP PUSH1 0x20 SWAP1 PUSH1 0x1F DUP4 GT PUSH1 0x1 EQ PUSH2 0x3F4 JUMPI PUSH1 0x0 SWAP3 PUSH2 0x3E9 JUMPI JUMPDEST POP POP DUP2 PUSH1 0x1 SHL SWAP2 PUSH1 0x0 NOT SWAP1 PUSH1 0x3 SHL SHR NOT AND OR PUSH1 0x3 SSTORE JUMPDEST DUP4 MLOAD PUSH1 0x1 PUSH1 0x1 PUSH1 0x40 SHL SUB DUP2 GT PUSH2 0x3D3 JUMPI PUSH1 0x4 SLOAD PUSH1 0x1 DUP2 DUP2 SHR SWAP2 AND DUP1 ISZERO PUSH2 0x3C9 JUMPI JUMPDEST PUSH1 0x20 DUP3 LT EQ PUSH2 0x3B3 JUMPI PUSH1 0x1F DUP2 GT PUSH2 0x34E JUMPI JUMPDEST POP PUSH1 0x20 SWAP5 PUSH1 0x1F DUP3 GT PUSH1 0x1 EQ PUSH2 0x2E7 JUMPI SWAP5 DUP2 SWAP3 SWAP4 SWAP5 SWAP6 PUSH1 0x0 SWAP3 PUSH2 0x2DC JUMPI JUMPDEST POP POP DUP2 PUSH1 0x1 SHL SWAP2 PUSH1 0x0 NOT SWAP1 PUSH1 0x3 SHL SHR NOT AND OR PUSH1 0x4 SSTORE JUMPDEST CALLER ISZERO PUSH2 0x2C6 JUMPI PUSH1 0x5 DUP1 SLOAD CALLER PUSH1 0x1 PUSH1 0x1 PUSH1 0xA0 SHL SUB NOT DUP3 AND DUP2 OR SWAP1 SWAP3 SSTORE PUSH1 0x1 PUSH1 0x1 PUSH1 0xA0 SHL SUB AND PUSH32 0x8BE0079C531659141344CD1FD0A4F28419497F9722A3DAAFE3B4186F6B6457E0 PUSH1 0x0 DUP1 LOG3 PUSH1 0xA PUSH1 0xB SSTORE PUSH10 0x21E19E0C9BAB2400000 PUSH1 0xE SSTORE PUSH4 0x3B9ACA00 PUSH1 0x19 SSTORE PUSH1 0x1 PUSH1 0x1 PUSH1 0xA0 SHL SUB DUP2 AND ISZERO DUP1 ISZERO PUSH2 0x2B5 JUMPI JUMPDEST DUP1 ISZERO PUSH2 0x2A4 JUMPI JUMPDEST PUSH2 0x293 JUMPI PUSH1 0x80 MSTORE PUSH1 0x1 PUSH1 0x1 PUSH1 0xA0 SHL SUB SWAP1 DUP2 AND PUSH1 0xA0 MSTORE AND PUSH1 0xC0 MSTORE PUSH2 0x1F9 CALLER PUSH2 0x512 JUMP JUMPDEST TIMESTAMP PUSH1 0x12 SSTORE TIMESTAMP PUSH1 0xF SSTORE PUSH3 0x278D00 PUSH1 0x10 SSTORE PUSH1 0x1 PUSH1 0xFF NOT PUSH1 0x11 SLOAD AND OR PUSH1 0x11 SSTORE PUSH1 0x40 MLOAD PUSH2 0x2CF1 SWAP1 DUP2 PUSH2 0x5A7 DUP3 CODECOPY PUSH1 0x80 MLOAD DUP2 DUP2 DUP2 PUSH2 0x739 ADD MSTORE DUP2 DUP2 PUSH2 0x1ACB ADD MSTORE DUP2 DUP2 PUSH2 0x2463 ADD MSTORE DUP2 DUP2 PUSH2 0x26CF ADD MSTORE PUSH2 0x2802 ADD MSTORE PUSH1 0xA0 MLOAD DUP2 DUP2 DUP2 PUSH2 0x1374 ADD MSTORE DUP2 DUP2 PUSH2 0x1525 ADD MSTORE DUP2 DUP2 PUSH2 0x22DF ADD MSTORE DUP2 DUP2 PUSH2 0x2352 ADD MSTORE PUSH2 0x282E ADD MSTORE PUSH1 0xC0 MLOAD DUP2 DUP2 DUP2 PUSH2 0x4A7 ADD MSTORE DUP2 DUP2 PUSH2 0xF90 ADD MSTORE DUP2 DUP2 PUSH2 0x1001 ADD MSTORE DUP2 DUP2 PUSH2 0x1234 ADD MSTORE PUSH2 0x1341 ADD MSTORE RETURN JUMPDEST PUSH4 0xD92E233D PUSH1 0xE0 SHL PUSH1 0x0 MSTORE PUSH1 0x4 PUSH1 0x0 REVERT JUMPDEST POP PUSH1 0x1 PUSH1 0x1 PUSH1 0xA0 SHL SUB DUP4 AND ISZERO PUSH2 0x1D7 JUMP JUMPDEST POP PUSH1 0x1 PUSH1 0x1 PUSH1 0xA0 SHL SUB DUP3 AND ISZERO PUSH2 0x1D0 JUMP JUMPDEST PUSH4 0x1E4FBDF7 PUSH1 0xE0 SHL PUSH1 0x0 MSTORE PUSH1 0x0 PUSH1 0x4 MSTORE PUSH1 0x24 PUSH1 0x0 REVERT JUMPDEST ADD MLOAD SWAP1 POP CODESIZE DUP1 PUSH2 0x144 JUMP JUMPDEST PUSH1 0x1F NOT DUP3 AND SWAP6 PUSH1 0x4 PUSH1 0x0 MSTORE DUP1 PUSH1 0x0 KECCAK256 SWAP2 PUSH1 0x0 JUMPDEST DUP9 DUP2 LT PUSH2 0x336 JUMPI POP DUP4 PUSH1 0x1 SWAP6 SWAP7 SWAP8 SWAP9 LT PUSH2 0x31D JUMPI JUMPDEST POP POP POP DUP2 SHL ADD PUSH1 0x4 SSTORE PUSH2 0x15A JUMP JUMPDEST ADD MLOAD PUSH1 0x0 NOT PUSH1 0xF8 DUP5 PUSH1 0x3 SHL AND SHR NOT AND SWAP1 SSTORE CODESIZE DUP1 DUP1 PUSH2 0x30F JUMP JUMPDEST SWAP2 SWAP3 PUSH1 0x20 PUSH1 0x1 DUP2 SWAP3 DUP7 DUP6 ADD MLOAD DUP2 SSTORE ADD SWAP5 ADD SWAP3 ADD PUSH2 0x2FA JUMP JUMPDEST PUSH1 0x4 PUSH1 0x0 MSTORE PUSH32 0x8A35ACFBC15FF81A39AE7D344FD709F28E8600B4AA8C65C6B64BFE7FE36BD19B PUSH1 0x1F DUP4 ADD PUSH1 0x5 SHR DUP2 ADD SWAP2 PUSH1 0x20 DUP5 LT PUSH2 0x3A9 JUMPI JUMPDEST PUSH1 0x1F ADD PUSH1 0x5 SHR ADD SWAP1 JUMPDEST DUP2 DUP2 LT PUSH2 0x39D JUMPI POP PUSH2 0x127 JUMP JUMPDEST PUSH1 0x0 DUP2 SSTORE PUSH1 0x1 ADD PUSH2 0x390 JUMP JUMPDEST SWAP1 SWAP2 POP DUP2 SWAP1 PUSH2 0x387 JUMP JUMPDEST PUSH4 0x4E487B71 PUSH1 0xE0 SHL PUSH1 0x0 MSTORE PUSH1 0x22 PUSH1 0x4 MSTORE PUSH1 0x24 PUSH1 0x0 REVERT JUMPDEST SWAP1 PUSH1 0x7F AND SWAP1 PUSH2 0x115 JUMP JUMPDEST PUSH4 0x4E487B71 PUSH1 0xE0 SHL PUSH1 0x0 MSTORE PUSH1 0x41 PUSH1 0x4 MSTORE PUSH1 0x24 PUSH1 0x0 REVERT JUMPDEST ADD MLOAD SWAP1 POP CODESIZE DUP1 PUSH2 0xDE JUMP JUMPDEST PUSH1 0x3 PUSH1 0x0 SWAP1 DUP2 MSTORE DUP3 DUP2 KECCAK256 SWAP4 POP PUSH1 0x1F NOT DUP6 AND SWAP1 JUMPDEST DUP2 DUP2 LT PUSH2 0x444 JUMPI POP SWAP1 DUP5 PUSH1 0x1 SWAP6 SWAP5 SWAP4 SWAP3 LT PUSH2 0x42B JUMPI JUMPDEST POP POP POP DUP2 SHL ADD PUSH1 0x3 SSTORE PUSH2 0xF4 JUMP JUMPDEST ADD MLOAD PUSH1 0x0 NOT PUSH1 0xF8 DUP5 PUSH1 0x3 SHL AND SHR NOT AND SWAP1 SSTORE CODESIZE DUP1 DUP1 PUSH2 0x41D JUMP JUMPDEST SWAP3 SWAP4 PUSH1 0x20 PUSH1 0x1 DUP2 SWAP3 DUP8 DUP7 ADD MLOAD DUP2 SSTORE ADD SWAP6 ADD SWAP4 ADD PUSH2 0x407 JUMP JUMPDEST PUSH1 0x3 PUSH1 0x0 MSTORE SWAP1 SWAP2 POP PUSH32 0xC2575A0E9E593C00F959F8C92F12DB2869C3395A3B0502D05E2516446F71F85B PUSH1 0x1F DUP5 ADD PUSH1 0x5 SHR DUP2 ADD SWAP2 PUSH1 0x20 DUP6 LT PUSH2 0x4C2 JUMPI JUMPDEST SWAP1 PUSH1 0x1F DUP6 SWAP5 SWAP4 SWAP3 ADD PUSH1 0x5 SHR ADD SWAP1 JUMPDEST DUP2 DUP2 LT PUSH2 0x4B3 JUMPI POP PUSH2 0xC7 JUMP JUMPDEST PUSH1 0x0 DUP2 SSTORE DUP5 SWAP4 POP PUSH1 0x1 ADD PUSH2 0x4A6 JUMP JUMPDEST SWAP1 SWAP2 POP DUP2 SWAP1 PUSH2 0x498 JUMP JUMPDEST SWAP2 PUSH1 0x7F AND SWAP2 PUSH2 0xB3 JUMP JUMPDEST PUSH1 0x0 DUP1 REVERT JUMPDEST PUSH1 0x1F SWAP1 SWAP2 ADD PUSH1 0x1F NOT AND DUP2 ADD SWAP1 PUSH1 0x1 PUSH1 0x1 PUSH1 0x40 SHL SUB DUP3 GT SWAP1 DUP3 LT OR PUSH2 0x3D3 JUMPI PUSH1 0x40 MSTORE JUMP JUMPDEST MLOAD SWAP1 PUSH1 0x1 PUSH1 0x1 PUSH1 0xA0 SHL SUB DUP3 AND DUP3 SUB PUSH2 0x4D6 JUMPI JUMP JUMPDEST PUSH11 0x84595161401484A000000 SWAP1 PUSH1 0x0 SWAP1 PUSH1 0x2 SLOAD DUP4 DUP2 ADD DUP1 SWAP2 GT PUSH2 0x590 JUMPI PUSH32 0xDDF252AD1BE2C89B69C2B068FC378DAA952BA7F163C4A11628F55A4DF523B3EF SWAP2 PUSH1 0x20 SWAP2 PUSH1 0x2 SSTORE PUSH1 0x1 PUSH1 0x1 PUSH1 0xA0 SHL SUB AND SWAP4 DUP5 PUSH2 0x578 JUMPI DUP1 PUSH1 0x2 SLOAD SUB PUSH1 0x2 SSTORE JUMPDEST PUSH1 0x40 MLOAD SWAP1 DUP2 MSTORE LOG3 JUMP JUMPDEST DUP5 PUSH1 0x0 MSTORE PUSH1 0x0 DUP3 MSTORE PUSH1 0x40 PUSH1 0x0 KECCAK256 DUP2 DUP2 SLOAD ADD SWAP1 SSTORE PUSH2 0x56F JUMP JUMPDEST PUSH4 0x4E487B71 PUSH1 0xE0 SHL PUSH1 0x0 MSTORE PUSH1 0x11 PUSH1 0x4 MSTORE PUSH1 0x24 PUSH1 0x0 REVERT INVALID PUSH1 0x80 PUSH1 0x40 MSTORE PUSH1 0x4 CALLDATASIZE LT ISZERO PUSH2 0x12 JUMPI PUSH1 0x0 DUP1 REVERT JUMPDEST PUSH1 0x0 DUP1 CALLDATALOAD PUSH1 0xE0 SHR DUP1 PUSH4 0x54D50D4 EQ PUSH2 0x165F JUMPI DUP1 PUSH4 0x6FDDE03 EQ PUSH2 0x15A2 JUMPI DUP1 PUSH4 0x95EA7B3 EQ PUSH2 0x157B JUMPI DUP1 PUSH4 0x16279055 EQ PUSH2 0x1554 JUMPI DUP1 PUSH4 0x1694505E EQ PUSH2 0x150F JUMPI DUP1 PUSH4 0x18160DDD EQ PUSH2 0x14F1 JUMPI DUP1 PUSH4 0x1ABFA629 EQ PUSH2 0x1053 JUMPI DUP1 PUSH4 0x21E2C957 EQ PUSH2 0x1495 JUMPI DUP1 PUSH4 0x23B872DD EQ PUSH2 0x13B4 JUMPI DUP1 PUSH4 0x2927BACD EQ PUSH2 0x12D9 JUMPI DUP1 PUSH4 0x313CE567 EQ PUSH2 0x12BD JUMPI DUP1 PUSH4 0x32F65881 EQ PUSH2 0x1280 JUMPI DUP1 PUSH4 0x36543FB9 EQ PUSH2 0x1262 JUMPI DUP1 PUSH4 0x38A674C5 EQ PUSH2 0x11C9 JUMPI DUP1 PUSH4 0x3C19814E EQ PUSH2 0x117D JUMPI DUP1 PUSH4 0x3F8121A2 EQ PUSH2 0x10DB JUMPI DUP1 PUSH4 0x3FECC2E2 EQ PUSH2 0x10A2 JUMPI DUP1 PUSH4 0x43A066AA EQ PUSH2 0x107C JUMPI DUP1 PUSH4 0x49BD5A5E EQ PUSH2 0x1053 JUMPI DUP1 PUSH4 0x4BAF59F3 EQ PUSH2 0x1030 JUMPI DUP1 PUSH4 0x4CF088D9 EQ PUSH2 0xFEB JUMPI DUP1 PUSH4 0x4E6FD6C4 EQ PUSH2 0xFCE JUMPI DUP1 PUSH4 0x52795E0B EQ PUSH2 0xF79 JUMPI DUP1 PUSH4 0x53135CA0 EQ PUSH2 0xF56 JUMPI DUP1 PUSH4 0x569EA101 EQ PUSH2 0xF17 JUMPI DUP1 PUSH4 0x570475DC EQ PUSH2 0xEE8 JUMPI DUP1 PUSH4 0x5868C32A EQ PUSH2 0xECA JUMPI DUP1 PUSH4 0x5DF45A37 EQ PUSH2 0xE9B JUMPI DUP1 PUSH4 0x615C4409 EQ PUSH2 0xE72 JUMPI DUP1 PUSH4 0x622E6AD8 EQ PUSH2 0xE4F JUMPI DUP1 PUSH4 0x6402511E EQ PUSH2 0xE2C JUMPI DUP1 PUSH4 0x66D57B95 EQ PUSH2 0xE0E JUMPI DUP1 PUSH4 0x70A08231 EQ PUSH2 0xDCC JUMPI DUP1 PUSH4 0x715018A6 EQ PUSH2 0xD6F JUMPI DUP1 PUSH4 0x7464024C EQ PUSH2 0x8D9 JUMPI DUP1 PUSH4 0x8187F516 EQ PUSH2 0xD08 JUMPI DUP1 PUSH4 0x85F8C259 EQ PUSH2 0xC5A JUMPI DUP1 PUSH4 0x861BD3C5 EQ PUSH2 0xBFB JUMPI DUP1 PUSH4 0x86917524 EQ PUSH2 0xBDD JUMPI DUP1 PUSH4 0x8733CFD3 EQ PUSH2 0xBA4 JUMPI DUP1 PUSH4 0x87894D03 EQ PUSH2 0xB76 JUMPI DUP1 PUSH4 0x8DA5CB5B EQ PUSH2 0xB4D JUMPI DUP1 PUSH4 0x906E9DD0 EQ PUSH2 0xAB2 JUMPI DUP1 PUSH4 0x90E82F24 EQ PUSH2 0xA4F JUMPI DUP1 PUSH4 0x9315E561 EQ PUSH2 0xA31 JUMPI DUP1 PUSH4 0x95D89B41 EQ PUSH2 0x920 JUMPI DUP1 PUSH4 0x9F54790D EQ PUSH2 0x902 JUMPI DUP1 PUSH4 0xA4823059 EQ PUSH2 0x8D9 JUMPI DUP1 PUSH4 0xA5ECE941 EQ PUSH2 0x8B0 JUMPI DUP1 PUSH4 0xA82524B2 EQ PUSH2 0x892 JUMPI DUP1 PUSH4 0xA9059CBB EQ PUSH2 0x860 JUMPI DUP1 PUSH4 0xAAA2B8C8 EQ PUSH2 0x837 JUMPI DUP1 PUSH4 0xAF24CCAA EQ PUSH2 0x7BA JUMPI DUP1 PUSH4 0xB99CE15E EQ PUSH2 0x768 JUMPI DUP1 PUSH4 0xC54E44EB EQ PUSH2 0x723 JUMPI DUP1 PUSH4 0xC596F3FE EQ PUSH2 0x6F5 JUMPI DUP1 PUSH4 0xC9688086 EQ PUSH2 0x6D7 JUMPI DUP1 PUSH4 0xD01DD6D2 EQ PUSH2 0x685 JUMPI DUP1 PUSH4 0xD123DE31 EQ PUSH2 0x659 JUMPI DUP1 PUSH4 0xD4273CD6 EQ PUSH2 0x63B JUMPI DUP1 PUSH4 0xD7517CAA EQ PUSH2 0x5BC JUMPI DUP1 PUSH4 0xDBAC26E9 EQ PUSH2 0x57D JUMPI DUP1 PUSH4 0xDD1C35BC EQ PUSH2 0x490 JUMPI DUP1 PUSH4 0xDD62ED3E EQ PUSH2 0x43B JUMPI DUP1 PUSH4 0xF2FDE38B EQ PUSH2 0x3B2 JUMPI DUP1 PUSH4 0xFDC0CDBF EQ PUSH2 0x38E JUMPI PUSH4 0xFF919151 EQ PUSH2 0x2FE JUMPI PUSH1 0x0 DUP1 REVERT JUMPDEST CALLVALUE PUSH2 0x38B JUMPI DUP1 PUSH1 0x3 NOT CALLDATASIZE ADD SLT PUSH2 0x38B JUMPI PUSH1 0x11 SLOAD PUSH1 0x13 SLOAD PUSH1 0xA0 SWAP3 PUSH1 0x8 SWAP3 SWAP1 SWAP3 SHR PUSH1 0xFF AND ISZERO SWAP2 SWAP1 DUP3 ISZERO PUSH2 0x34C JUMPI DUP2 JUMPDEST PUSH1 0x40 MLOAD SWAP4 ISZERO DUP5 MSTORE PUSH1 0x20 DUP5 ADD MSTORE PUSH1 0x40 DUP4 ADD MSTORE PUSH3 0x278D00 PUSH1 0x60 DUP4 ADD MSTORE PUSH1 0x80 DUP3 ADD MSTORE RETURN JUMPDEST DUP1 ISZERO PUSH2 0x383 JUMPI DUP1 JUMPDEST PUSH2 0x35D DUP2 PUSH2 0x1889 JUMP JUMPDEST TIMESTAMP LT PUSH2 0x36A JUMPI POP DUP2 PUSH2 0x32B JUMP JUMPDEST PUSH2 0x37D SWAP1 PUSH2 0x378 TIMESTAMP SWAP2 PUSH2 0x1889 JUMP JUMPDEST PUSH2 0x1B62 JUMP JUMPDEST SWAP2 PUSH2 0x32B JUMP JUMPDEST PUSH1 0x12 SLOAD PUSH2 0x354 JUMP JUMPDEST DUP1 REVERT JUMPDEST POP CALLVALUE PUSH2 0x38B JUMPI DUP1 PUSH1 0x3 NOT CALLDATASIZE ADD SLT PUSH2 0x38B JUMPI PUSH2 0x3A7 PUSH2 0x1BA2 JUMP JUMPDEST PUSH2 0x3AF PUSH2 0x2103 JUMP JUMPDEST DUP1 RETURN JUMPDEST POP CALLVALUE PUSH2 0x38B JUMPI PUSH1 0x20 CALLDATASIZE PUSH1 0x3 NOT ADD SLT PUSH2 0x38B JUMPI PUSH2 0x3CC PUSH2 0x1719 JUMP JUMPDEST PUSH2 0x3D4 PUSH2 0x1BA2 JUMP JUMPDEST PUSH1 0x1 PUSH1 0x1 PUSH1 0xA0 SHL SUB AND DUP1 ISZERO PUSH2 0x427 JUMPI PUSH1 0x5 DUP1 SLOAD PUSH1 0x1 PUSH1 0x1 PUSH1 0xA0 SHL SUB NOT DUP2 AND DUP4 OR SWAP1 SWAP2 SSTORE PUSH1 0x1 PUSH1 0x1 PUSH1 0xA0 SHL SUB AND PUSH32 0x8BE0079C531659141344CD1FD0A4F28419497F9722A3DAAFE3B4186F6B6457E0 DUP4 DUP1 LOG3 DUP1 RETURN JUMPDEST PUSH4 0x1E4FBDF7 PUSH1 0xE0 SHL DUP3 MSTORE PUSH1 0x4 DUP3 SWAP1 MSTORE PUSH1 0x24 DUP3 REVERT JUMPDEST POP CALLVALUE PUSH2 0x38B JUMPI PUSH1 0x40 CALLDATASIZE PUSH1 0x3 NOT ADD SLT PUSH2 0x38B JUMPI PUSH1 0x40 PUSH2 0x457 PUSH2 0x1719 JUMP JUMPDEST SWAP2 PUSH2 0x460 PUSH2 0x172F JUMP JUMPDEST SWAP3 PUSH1 0x1 DUP1 PUSH1 0xA0 SHL SUB AND DUP2 MSTORE PUSH1 0x1 PUSH1 0x20 MSTORE KECCAK256 SWAP1 PUSH1 0x1 DUP1 PUSH1 0xA0 SHL SUB AND PUSH1 0x0 MSTORE PUSH1 0x20 MSTORE PUSH1 0x20 PUSH1 0x40 PUSH1 0x0 KECCAK256 SLOAD PUSH1 0x40 MLOAD SWAP1 DUP2 MSTORE RETURN JUMPDEST POP CALLVALUE PUSH2 0x38B JUMPI PUSH1 0x20 CALLDATASIZE PUSH1 0x3 NOT ADD SLT PUSH2 0x38B JUMPI PUSH1 0x4 CALLDATALOAD PUSH32 0x0 PUSH1 0x1 PUSH1 0x1 PUSH1 0xA0 SHL SUB AND PUSH2 0x4DA CALLER DUP3 EQ PUSH2 0x1845 JUMP JUMPDEST PUSH1 0x6 SLOAD PUSH1 0x1 PUSH1 0x1 PUSH1 0xA0 SHL SUB AND PUSH1 0x0 DUP2 DUP2 MSTORE PUSH1 0x20 DUP2 SWAP1 MSTORE PUSH1 0x40 SWAP1 KECCAK256 SLOAD SWAP1 SWAP3 SWAP1 PUSH1 0x3 SWAP1 DIV SWAP1 DUP2 DUP2 LT PUSH2 0x575 JUMPI POP SWAP1 JUMPDEST DUP2 PUSH2 0x510 JUMPI DUP4 DUP1 RETURN JUMPDEST PUSH2 0x519 SWAP3 PUSH2 0x1BCB JUMP JUMPDEST PUSH1 0x6 SLOAD DUP2 SWAP1 PUSH1 0x1 PUSH1 0x1 PUSH1 0xA0 SHL SUB AND DUP1 EXTCODESIZE ISZERO PUSH2 0x572 JUMPI DUP2 DUP1 SWAP2 PUSH1 0x4 PUSH1 0x40 MLOAD DUP1 SWAP6 DUP2 SWAP4 PUSH4 0xFFF6CAE9 PUSH1 0xE0 SHL DUP4 MSTORE GAS CALL DUP1 ISZERO PUSH2 0x565 JUMPI PUSH2 0x555 JUMPI DUP2 DUP4 DUP1 RETURN JUMPDEST PUSH2 0x55E SWAP2 PUSH2 0x1763 JUMP JUMPDEST CODESIZE DUP2 DUP2 DUP4 DUP1 RETURN JUMPDEST POP PUSH1 0x40 MLOAD SWAP1 RETURNDATASIZE SWAP1 DUP3 RETURNDATACOPY RETURNDATASIZE SWAP1 REVERT JUMPDEST POP REVERT JUMPDEST SWAP1 POP SWAP1 PUSH2 0x507 JUMP JUMPDEST POP CALLVALUE PUSH2 0x38B JUMPI PUSH1 0x20 CALLDATASIZE PUSH1 0x3 NOT ADD SLT PUSH2 0x38B JUMPI PUSH1 0x20 SWAP1 PUSH1 0xFF SWAP1 PUSH1 0x40 SWAP1 PUSH1 0x1 PUSH1 0x1 PUSH1 0xA0 SHL SUB PUSH2 0x5A8 PUSH2 0x1719 JUMP JUMPDEST AND DUP2 MSTORE PUSH1 0x18 DUP5 MSTORE KECCAK256 SLOAD AND PUSH1 0x40 MLOAD SWAP1 ISZERO ISZERO DUP2 MSTORE RETURN JUMPDEST POP CALLVALUE PUSH2 0x38B JUMPI DUP1 PUSH1 0x3 NOT CALLDATASIZE ADD SLT PUSH2 0x38B JUMPI PUSH1 0xA0 SWAP1 PUSH1 0xF SLOAD SWAP1 PUSH1 0x10 SLOAD PUSH2 0x5E1 DUP2 DUP5 PUSH2 0x18AF JUMP JUMPDEST SWAP2 DUP3 TIMESTAMP LT SWAP3 DUP4 PUSH1 0x0 EQ PUSH2 0x634 JUMPI PUSH2 0x5FA SWAP2 POP TIMESTAMP SWAP1 PUSH2 0x1B62 JUMP JUMPDEST SWAP1 JUMPDEST PUSH1 0x11 SLOAD PUSH1 0xFF AND SWAP4 DUP5 SWAP4 DUP5 PUSH2 0x62C JUMPI JUMPDEST POP PUSH1 0x40 MLOAD SWAP5 ISZERO ISZERO DUP6 MSTORE PUSH1 0x20 DUP6 ADD MSTORE PUSH1 0x40 DUP5 ADD MSTORE PUSH1 0x60 DUP4 ADD MSTORE ISZERO ISZERO PUSH1 0x80 DUP3 ADD MSTORE RETURN JUMPDEST SWAP4 POP CODESIZE PUSH2 0x60B JUMP JUMPDEST POP SWAP1 PUSH2 0x5FC JUMP JUMPDEST POP CALLVALUE PUSH2 0x38B JUMPI DUP1 PUSH1 0x3 NOT CALLDATASIZE ADD SLT PUSH2 0x38B JUMPI PUSH1 0x20 PUSH1 0x13 SLOAD PUSH1 0x40 MLOAD SWAP1 DUP2 MSTORE RETURN JUMPDEST POP CALLVALUE PUSH2 0x38B JUMPI DUP1 PUSH1 0x3 NOT CALLDATASIZE ADD SLT PUSH2 0x38B JUMPI PUSH1 0x20 PUSH2 0x674 PUSH2 0x1A59 JUMP JUMPDEST PUSH1 0x1 PUSH1 0x1 PUSH1 0x70 SHL SUB PUSH1 0x40 MLOAD SWAP2 AND DUP2 MSTORE RETURN JUMPDEST POP CALLVALUE PUSH2 0x38B JUMPI PUSH1 0x40 CALLDATASIZE PUSH1 0x3 NOT ADD SLT PUSH2 0x38B JUMPI PUSH2 0x3AF PUSH2 0x6A2 PUSH2 0x1719 JUMP JUMPDEST PUSH2 0x6AA PUSH2 0x1754 JUMP JUMPDEST SWAP1 PUSH2 0x6B3 PUSH2 0x1BA2 JUMP JUMPDEST PUSH1 0x1 DUP1 PUSH1 0xA0 SHL SUB AND DUP4 MSTORE PUSH1 0x18 PUSH1 0x20 MSTORE PUSH1 0x40 DUP4 KECCAK256 SWAP1 PUSH1 0xFF DUP1 NOT DUP4 SLOAD AND SWAP2 ISZERO ISZERO AND OR SWAP1 SSTORE JUMP JUMPDEST POP CALLVALUE PUSH2 0x38B JUMPI DUP1 PUSH1 0x3 NOT CALLDATASIZE ADD SLT PUSH2 0x38B JUMPI PUSH1 0x20 PUSH1 0x19 SLOAD PUSH1 0x40 MLOAD SWAP1 DUP2 MSTORE RETURN JUMPDEST POP CALLVALUE PUSH2 0x38B JUMPI PUSH1 0x40 CALLDATASIZE PUSH1 0x3 NOT ADD SLT PUSH2 0x38B JUMPI PUSH2 0x3AF PUSH2 0x712 PUSH2 0x1719 JUMP JUMPDEST PUSH2 0x71A PUSH2 0x1BA2 JUMP JUMPDEST PUSH1 0x24 CALLDATALOAD SWAP1 PUSH2 0x1961 JUMP JUMPDEST POP CALLVALUE PUSH2 0x38B JUMPI DUP1 PUSH1 0x3 NOT CALLDATASIZE ADD SLT PUSH2 0x38B JUMPI PUSH1 0x40 MLOAD PUSH32 0x0 PUSH1 0x1 PUSH1 0x1 PUSH1 0xA0 SHL SUB AND DUP2 MSTORE PUSH1 0x20 SWAP1 RETURN JUMPDEST POP CALLVALUE PUSH2 0x38B JUMPI PUSH1 0x40 CALLDATASIZE PUSH1 0x3 NOT ADD SLT PUSH2 0x38B JUMPI PUSH2 0x3AF PUSH2 0x785 PUSH2 0x1719 JUMP JUMPDEST PUSH2 0x78D PUSH2 0x1754 JUMP JUMPDEST SWAP1 PUSH2 0x796 PUSH2 0x1BA2 JUMP JUMPDEST PUSH1 0x1 DUP1 PUSH1 0xA0 SHL SUB AND DUP4 MSTORE PUSH1 0x17 PUSH1 0x20 MSTORE PUSH1 0x40 DUP4 KECCAK256 SWAP1 PUSH1 0xFF DUP1 NOT DUP4 SLOAD AND SWAP2 ISZERO ISZERO AND OR SWAP1 SSTORE JUMP JUMPDEST POP CALLVALUE PUSH2 0x38B JUMPI PUSH1 0x20 CALLDATASIZE PUSH1 0x3 NOT ADD SLT PUSH2 0x38B JUMPI PUSH32 0x2C8CCBEF4032016D78404AFA804C622487AE3ACAB4CAEFF4B2DBA121D7488C18 PUSH1 0x20 PUSH2 0x7F7 PUSH2 0x1745 JUMP JUMPDEST PUSH2 0x7FF PUSH2 0x1BA2 JUMP JUMPDEST DUP1 ISZERO ISZERO SWAP1 PUSH1 0x11 SLOAD PUSH2 0xFF00 DUP4 PUSH1 0x8 SHL AND SWAP1 PUSH2 0xFF00 NOT AND OR PUSH1 0x11 SSTORE PUSH1 0x0 EQ PUSH2 0x82E JUMPI TIMESTAMP PUSH1 0x13 SSTORE JUMPDEST PUSH1 0x40 MLOAD SWAP1 DUP2 MSTORE LOG1 DUP1 RETURN JUMPDEST DUP4 PUSH1 0x13 SSTORE PUSH2 0x824 JUMP JUMPDEST POP CALLVALUE PUSH2 0x38B JUMPI DUP1 PUSH1 0x3 NOT CALLDATASIZE ADD SLT PUSH2 0x38B JUMPI PUSH1 0x8 SLOAD PUSH1 0x40 MLOAD PUSH1 0x1 PUSH1 0x1 PUSH1 0xA0 SHL SUB SWAP1 SWAP2 AND DUP2 MSTORE PUSH1 0x20 SWAP1 RETURN JUMPDEST POP CALLVALUE PUSH2 0x38B JUMPI PUSH1 0x40 CALLDATASIZE PUSH1 0x3 NOT ADD SLT PUSH2 0x38B JUMPI PUSH2 0x887 PUSH2 0x87D PUSH2 0x1719 JUMP JUMPDEST PUSH1 0x24 CALLDATALOAD SWAP1 CALLER PUSH2 0x1BCB JUMP JUMPDEST PUSH1 0x20 PUSH1 0x40 MLOAD PUSH1 0x1 DUP2 MSTORE RETURN JUMPDEST POP CALLVALUE PUSH2 0x38B JUMPI DUP1 PUSH1 0x3 NOT CALLDATASIZE ADD SLT PUSH2 0x38B JUMPI PUSH1 0x20 PUSH1 0xF SLOAD PUSH1 0x40 MLOAD SWAP1 DUP2 MSTORE RETURN JUMPDEST POP CALLVALUE PUSH2 0x38B JUMPI DUP1 PUSH1 0x3 NOT CALLDATASIZE ADD SLT PUSH2 0x38B JUMPI PUSH1 0x9 SLOAD PUSH1 0x40 MLOAD PUSH1 0x1 PUSH1 0x1 PUSH1 0xA0 SHL SUB SWAP1 SWAP2 AND DUP2 MSTORE PUSH1 0x20 SWAP1 RETURN JUMPDEST POP CALLVALUE PUSH2 0x38B JUMPI DUP1 PUSH1 0x3 NOT CALLDATASIZE ADD SLT PUSH2 0x38B JUMPI PUSH1 0x7 SLOAD PUSH1 0x40 MLOAD PUSH1 0x1 PUSH1 0x1 PUSH1 0xA0 SHL SUB SWAP1 SWAP2 AND DUP2 MSTORE PUSH1 0x20 SWAP1 RETURN JUMPDEST POP CALLVALUE PUSH2 0x38B JUMPI DUP1 PUSH1 0x3 NOT CALLDATASIZE ADD SLT PUSH2 0x38B JUMPI PUSH1 0x20 PUSH1 0x12 SLOAD PUSH1 0x40 MLOAD SWAP1 DUP2 MSTORE RETURN JUMPDEST POP CALLVALUE PUSH2 0x38B JUMPI DUP1 PUSH1 0x3 NOT CALLDATASIZE ADD SLT PUSH2 0x38B JUMPI PUSH1 0x40 MLOAD SWAP1 DUP1 PUSH1 0x4 SLOAD SWAP1 DUP2 PUSH1 0x1 SHR SWAP2 PUSH1 0x1 DUP2 AND DUP1 ISZERO PUSH2 0xA27 JUMPI JUMPDEST PUSH1 0x20 DUP5 LT DUP2 EQ PUSH2 0xA13 JUMPI DUP4 DUP7 MSTORE SWAP1 DUP2 ISZERO PUSH2 0x9EC JUMPI POP PUSH1 0x1 EQ PUSH2 0x98F JUMPI JUMPDEST PUSH2 0x98B DUP5 PUSH2 0x977 DUP2 DUP7 SUB DUP3 PUSH2 0x1763 JUMP JUMPDEST PUSH1 0x40 MLOAD SWAP2 DUP3 SWAP2 PUSH1 0x20 DUP4 MSTORE PUSH1 0x20 DUP4 ADD SWAP1 PUSH2 0x16D8 JUMP JUMPDEST SUB SWAP1 RETURN JUMPDEST PUSH1 0x4 DUP2 MSTORE PUSH32 0x8A35ACFBC15FF81A39AE7D344FD709F28E8600B4AA8C65C6B64BFE7FE36BD19B SWAP4 SWAP3 POP SWAP1 JUMPDEST DUP1 DUP3 LT PUSH2 0x9D2 JUMPI POP SWAP1 SWAP2 POP DUP2 ADD PUSH1 0x20 ADD PUSH2 0x977 DUP3 PUSH2 0x967 JUMP JUMPDEST SWAP2 SWAP3 PUSH1 0x1 DUP2 PUSH1 0x20 SWAP3 SLOAD DUP4 DUP6 DUP9 ADD ADD MSTORE ADD SWAP2 ADD SWAP1 SWAP3 SWAP2 PUSH2 0x9B9 JUMP JUMPDEST PUSH1 0xFF NOT AND PUSH1 0x20 DUP1 DUP8 ADD SWAP2 SWAP1 SWAP2 MSTORE SWAP3 ISZERO ISZERO PUSH1 0x5 SHL DUP6 ADD SWAP1 SWAP3 ADD SWAP3 POP PUSH2 0x977 SWAP2 POP DUP4 SWAP1 POP PUSH2 0x967 JUMP JUMPDEST PUSH4 0x4E487B71 PUSH1 0xE0 SHL DUP4 MSTORE PUSH1 0x22 PUSH1 0x4 MSTORE PUSH1 0x24 DUP4 REVERT JUMPDEST SWAP3 PUSH1 0x7F AND SWAP3 PUSH2 0x94A JUMP JUMPDEST POP CALLVALUE PUSH2 0x38B JUMPI DUP1 PUSH1 0x3 NOT CALLDATASIZE ADD SLT PUSH2 0x38B JUMPI PUSH1 0x20 PUSH1 0xD SLOAD PUSH1 0x40 MLOAD SWAP1 DUP2 MSTORE RETURN JUMPDEST POP CALLVALUE PUSH2 0x38B JUMPI PUSH2 0xA5E CALLDATASIZE PUSH2 0x179B JUMP JUMPDEST PUSH2 0xA66 PUSH2 0x1BA2 JUMP JUMPDEST DUP3 JUMPDEST DUP3 MLOAD DUP2 LT ISZERO PUSH2 0xAAE JUMPI PUSH1 0x1 SWAP1 PUSH1 0x1 PUSH1 0x1 PUSH1 0xA0 SHL SUB PUSH2 0xA86 DUP3 DUP7 PUSH2 0x18BC JUMP JUMPDEST MLOAD AND DUP6 MSTORE PUSH1 0x17 PUSH1 0x20 MSTORE PUSH2 0xAA8 DUP4 PUSH1 0x40 DUP8 KECCAK256 SWAP1 PUSH1 0xFF DUP1 NOT DUP4 SLOAD AND SWAP2 ISZERO ISZERO AND OR SWAP1 SSTORE JUMP JUMPDEST ADD PUSH2 0xA68 JUMP JUMPDEST DUP4 DUP1 RETURN JUMPDEST POP CALLVALUE PUSH2 0x38B JUMPI PUSH1 0x20 CALLDATASIZE PUSH1 0x3 NOT ADD SLT PUSH2 0x38B JUMPI PUSH2 0xACC PUSH2 0x1719 JUMP JUMPDEST PUSH2 0xAD4 PUSH2 0x1BA2 JUMP JUMPDEST PUSH1 0x1 PUSH1 0x1 PUSH1 0xA0 SHL SUB AND DUP1 ISZERO PUSH2 0xB3E JUMPI PUSH1 0x9 DUP1 SLOAD PUSH1 0x1 PUSH1 0x1 PUSH1 0xA0 SHL SUB NOT DUP2 AND DUP4 OR SWAP1 SWAP2 SSTORE DUP2 DUP4 MSTORE PUSH1 0x17 PUSH1 0x20 MSTORE PUSH1 0x40 DUP4 KECCAK256 DUP1 SLOAD PUSH1 0xFF NOT AND PUSH1 0x1 OR SWAP1 SSTORE PUSH1 0x1 PUSH1 0x1 PUSH1 0xA0 SHL SUB AND PUSH32 0xA8EFC72ED34F90017DF79620D1972D42B8E3B17EB0077FC5FC46CBF1A19ED9A9 DUP4 DUP1 LOG3 DUP1 RETURN JUMPDEST PUSH4 0xD92E233D PUSH1 0xE0 SHL DUP3 MSTORE PUSH1 0x4 DUP3 REVERT JUMPDEST POP CALLVALUE PUSH2 0x38B JUMPI DUP1 PUSH1 0x3 NOT CALLDATASIZE ADD SLT PUSH2 0x38B JUMPI PUSH1 0x5 SLOAD PUSH1 0x40 MLOAD PUSH1 0x1 PUSH1 0x1 PUSH1 0xA0 SHL SUB SWAP1 SWAP2 AND DUP2 MSTORE PUSH1 0x20 SWAP1 RETURN JUMPDEST POP CALLVALUE PUSH2 0x38B JUMPI PUSH1 0x20 CALLDATASIZE PUSH1 0x3 NOT ADD SLT PUSH2 0x38B JUMPI PUSH1 0x20 PUSH2 0xB9A PUSH2 0xB95 PUSH2 0x1719 JUMP JUMPDEST PUSH2 0x18E6 JUMP JUMPDEST PUSH1 0x40 MLOAD SWAP1 ISZERO ISZERO DUP2 MSTORE RETURN JUMPDEST POP CALLVALUE PUSH2 0x38B JUMPI PUSH1 0x20 CALLDATASIZE PUSH1 0x3 NOT ADD SLT PUSH2 0x38B JUMPI PUSH1 0x20 SWAP1 PUSH1 0x40 SWAP1 PUSH1 0x1 PUSH1 0x1 PUSH1 0xA0 SHL SUB PUSH2 0xBCC PUSH2 0x1719 JUMP JUMPDEST AND DUP2 MSTORE PUSH1 0x15 DUP4 MSTORE KECCAK256 SLOAD PUSH1 0x40 MLOAD SWAP1 DUP2 MSTORE RETURN JUMPDEST POP CALLVALUE PUSH2 0x38B JUMPI DUP1 PUSH1 0x3 NOT CALLDATASIZE ADD SLT PUSH2 0x38B JUMPI PUSH1 0x20 PUSH1 0xE SLOAD PUSH1 0x40 MLOAD SWAP1 DUP2 MSTORE RETURN JUMPDEST POP CALLVALUE PUSH2 0x38B JUMPI PUSH2 0xC0A CALLDATASIZE PUSH2 0x179B JUMP JUMPDEST PUSH2 0xC12 PUSH2 0x1BA2 JUMP JUMPDEST DUP3 JUMPDEST DUP3 MLOAD DUP2 LT ISZERO PUSH2 0xAAE JUMPI PUSH1 0x1 SWAP1 PUSH1 0x1 PUSH1 0x1 PUSH1 0xA0 SHL SUB PUSH2 0xC32 DUP3 DUP7 PUSH2 0x18BC JUMP JUMPDEST MLOAD AND DUP6 MSTORE PUSH1 0x18 PUSH1 0x20 MSTORE PUSH2 0xC54 DUP4 PUSH1 0x40 DUP8 KECCAK256 SWAP1 PUSH1 0xFF DUP1 NOT DUP4 SLOAD AND SWAP2 ISZERO ISZERO AND OR SWAP1 SSTORE JUMP JUMPDEST ADD PUSH2 0xC14 JUMP JUMPDEST POP CALLVALUE PUSH2 0x38B JUMPI PUSH2 0xC75 PUSH2 0xC6C CALLDATASIZE PUSH2 0x16B9 JUMP JUMPDEST SWAP3 SWAP1 DUP3 SWAP1 PUSH2 0x1B8F JUMP JUMPDEST SWAP2 PUSH2 0x2710 DUP4 MUL SWAP3 DUP1 DUP5 DIV PUSH2 0x2710 EQ SWAP1 ISZERO OR ISZERO PUSH2 0xCF4 JUMPI SWAP1 PUSH2 0xC95 SWAP2 PUSH2 0x1B62 JUMP JUMPDEST SWAP1 PUSH2 0x26F7 DUP3 MUL SWAP2 DUP1 DUP4 DIV PUSH2 0x26F7 EQ SWAP1 ISZERO OR ISZERO PUSH2 0xCE0 JUMPI SWAP1 PUSH2 0xCB5 SWAP2 PUSH2 0x1B6F JUMP JUMPDEST SWAP1 PUSH1 0x1 DUP3 ADD DUP1 SWAP3 GT PUSH2 0xCCC JUMPI PUSH1 0x20 DUP3 PUSH1 0x40 MLOAD SWAP1 DUP2 MSTORE RETURN JUMPDEST PUSH4 0x4E487B71 PUSH1 0xE0 SHL DUP2 MSTORE PUSH1 0x11 PUSH1 0x4 MSTORE PUSH1 0x24 SWAP1 REVERT JUMPDEST PUSH4 0x4E487B71 PUSH1 0xE0 SHL DUP4 MSTORE PUSH1 0x11 PUSH1 0x4 MSTORE PUSH1 0x24 DUP4 REVERT JUMPDEST PUSH4 0x4E487B71 PUSH1 0xE0 SHL DUP5 MSTORE PUSH1 0x11 PUSH1 0x4 MSTORE PUSH1 0x24 DUP5 REVERT JUMPDEST POP CALLVALUE PUSH2 0x38B JUMPI PUSH1 0x20 CALLDATASIZE PUSH1 0x3 NOT ADD SLT PUSH2 0x38B JUMPI PUSH2 0xD22 PUSH2 0x1719 JUMP JUMPDEST PUSH2 0xD2A PUSH2 0x1BA2 JUMP JUMPDEST PUSH1 0x1 PUSH1 0x1 PUSH1 0xA0 SHL SUB AND DUP1 ISZERO PUSH2 0xB3E JUMPI PUSH1 0x6 SLOAD PUSH1 0x1 PUSH1 0x1 PUSH1 0xA0 SHL SUB DUP2 AND PUSH2 0xD60 JUMPI PUSH1 0x1 PUSH1 0x1 PUSH1 0xA0 SHL SUB NOT AND OR PUSH1 0x6 SSTORE PUSH2 0x3AF PUSH2 0x2103 JUMP JUMPDEST PUSH4 0xA741A045 PUSH1 0xE0 SHL DUP4 MSTORE PUSH1 0x4 DUP4 REVERT JUMPDEST POP CALLVALUE PUSH2 0x38B JUMPI DUP1 PUSH1 0x3 NOT CALLDATASIZE ADD SLT PUSH2 0x38B JUMPI PUSH2 0xD88 PUSH2 0x1BA2 JUMP JUMPDEST PUSH1 0x5 DUP1 SLOAD PUSH1 0x1 PUSH1 0x1 PUSH1 0xA0 SHL SUB NOT DUP2 AND SWAP1 SWAP2 SSTORE DUP2 SWAP1 PUSH1 0x1 PUSH1 0x1 PUSH1 0xA0 SHL SUB AND PUSH32 0x8BE0079C531659141344CD1FD0A4F28419497F9722A3DAAFE3B4186F6B6457E0 DUP3 DUP1 LOG3 DUP1 RETURN JUMPDEST POP CALLVALUE PUSH2 0x38B JUMPI PUSH1 0x20 CALLDATASIZE PUSH1 0x3 NOT ADD SLT PUSH2 0x38B JUMPI PUSH1 0x20 PUSH2 0xE06 PUSH2 0xDEB PUSH2 0x1719 JUMP JUMPDEST PUSH1 0x1 PUSH1 0x1 PUSH1 0xA0 SHL SUB AND PUSH1 0x0 SWAP1 DUP2 MSTORE PUSH1 0x20 DUP2 SWAP1 MSTORE PUSH1 0x40 SWAP1 KECCAK256 SLOAD SWAP1 JUMP JUMPDEST PUSH1 0x40 MLOAD SWAP1 DUP2 MSTORE RETURN JUMPDEST POP CALLVALUE PUSH2 0x38B JUMPI DUP1 PUSH1 0x3 NOT CALLDATASIZE ADD SLT PUSH2 0x38B JUMPI PUSH1 0x20 PUSH1 0xC SLOAD PUSH1 0x40 MLOAD SWAP1 DUP2 MSTORE RETURN JUMPDEST POP CALLVALUE PUSH2 0x38B JUMPI PUSH1 0x20 CALLDATASIZE PUSH1 0x3 NOT ADD SLT PUSH2 0x38B JUMPI PUSH2 0xE46 PUSH2 0x1BA2 JUMP JUMPDEST PUSH1 0x4 CALLDATALOAD PUSH1 0xE SSTORE DUP1 RETURN JUMPDEST POP CALLVALUE PUSH2 0x38B JUMPI PUSH1 0x20 CALLDATASIZE PUSH1 0x3 NOT ADD SLT PUSH2 0x38B JUMPI PUSH2 0xE69 PUSH2 0x1BA2 JUMP JUMPDEST PUSH1 0x4 CALLDATALOAD PUSH1 0xB SSTORE DUP1 RETURN JUMPDEST POP CALLVALUE PUSH2 0x38B JUMPI DUP1 PUSH1 0x3 NOT CALLDATASIZE ADD SLT PUSH2 0x38B JUMPI PUSH1 0xA SLOAD PUSH1 0x40 MLOAD PUSH1 0x1 PUSH1 0x1 PUSH1 0xA0 SHL SUB SWAP1 SWAP2 AND DUP2 MSTORE PUSH1 0x20 SWAP1 RETURN JUMPDEST POP CALLVALUE PUSH2 0x38B JUMPI DUP1 PUSH1 0x3 NOT CALLDATASIZE ADD SLT PUSH2 0x38B JUMPI PUSH1 0x60 PUSH1 0xC SLOAD PUSH1 0xD SLOAD PUSH1 0xE SLOAD SWAP1 PUSH1 0x40 MLOAD SWAP3 DUP4 MSTORE PUSH1 0x20 DUP4 ADD MSTORE PUSH1 0x40 DUP3 ADD MSTORE RETURN JUMPDEST POP CALLVALUE PUSH2 0x38B JUMPI DUP1 PUSH1 0x3 NOT CALLDATASIZE ADD SLT PUSH2 0x38B JUMPI PUSH1 0x20 PUSH1 0x10 SLOAD PUSH1 0x40 MLOAD SWAP1 DUP2 MSTORE RETURN JUMPDEST POP CALLVALUE PUSH2 0x38B JUMPI DUP1 PUSH1 0x3 NOT CALLDATASIZE ADD SLT PUSH2 0x38B JUMPI PUSH1 0x40 SWAP1 PUSH2 0xF0B PUSH1 0xC SLOAD PUSH1 0xD SLOAD SWAP1 PUSH2 0x18AF JUMP JUMPDEST DUP3 MLOAD SWAP2 DUP3 MSTORE PUSH1 0x20 DUP3 ADD MSTORE RETURN JUMPDEST POP CALLVALUE PUSH2 0x38B JUMPI PUSH1 0x20 CALLDATASIZE PUSH1 0x3 NOT ADD SLT PUSH2 0x38B JUMPI PUSH1 0x20 SWAP1 PUSH1 0xFF SWAP1 PUSH1 0x40 SWAP1 PUSH1 0x1 PUSH1 0x1 PUSH1 0xA0 SHL SUB PUSH2 0xF42 PUSH2 0x1719 JUMP JUMPDEST AND DUP2 MSTORE PUSH1 0x17 DUP5 MSTORE KECCAK256 SLOAD AND PUSH1 0x40 MLOAD SWAP1 ISZERO ISZERO DUP2 MSTORE RETURN JUMPDEST POP CALLVALUE PUSH2 0x38B JUMPI DUP1 PUSH1 0x3 NOT CALLDATASIZE ADD SLT PUSH2 0x38B JUMPI PUSH1 0x20 PUSH1 0xFF PUSH1 0x11 SLOAD AND PUSH1 0x40 MLOAD SWAP1 ISZERO ISZERO DUP2 MSTORE RETURN JUMPDEST POP CALLVALUE PUSH2 0x38B JUMPI DUP1 PUSH1 0x3 NOT CALLDATASIZE ADD SLT PUSH2 0x38B JUMPI PUSH2 0xFBE CALLER PUSH32 0x0 PUSH1 0x1 PUSH1 0x1 PUSH1 0xA0 SHL SUB AND EQ PUSH2 0x1845 JUMP JUMPDEST PUSH2 0xFC6 PUSH2 0x2031 JUMP JUMPDEST PUSH2 0x3AF PUSH2 0x1F29 JUMP JUMPDEST POP CALLVALUE PUSH2 0x38B JUMPI DUP1 PUSH1 0x3 NOT CALLDATASIZE ADD SLT PUSH2 0x38B JUMPI PUSH1 0x20 PUSH1 0x40 MLOAD PUSH2 0xDEAD DUP2 MSTORE RETURN JUMPDEST POP CALLVALUE PUSH2 0x38B JUMPI DUP1 PUSH1 0x3 NOT CALLDATASIZE ADD SLT PUSH2 0x38B JUMPI PUSH1 0x40 MLOAD PUSH32 0x0 PUSH1 0x1 PUSH1 0x1 PUSH1 0xA0 SHL SUB AND DUP2 MSTORE PUSH1 0x20 SWAP1 RETURN JUMPDEST POP CALLVALUE PUSH2 0x38B JUMPI PUSH1 0x20 CALLDATASIZE PUSH1 0x3 NOT ADD SLT PUSH2 0x38B JUMPI PUSH2 0x104A PUSH2 0x1BA2 JUMP JUMPDEST PUSH1 0x4 CALLDATALOAD PUSH1 0x19 SSTORE DUP1 RETURN JUMPDEST POP CALLVALUE PUSH2 0x38B JUMPI DUP1 PUSH1 0x3 NOT CALLDATASIZE ADD SLT PUSH2 0x38B JUMPI PUSH1 0x6 SLOAD PUSH1 0x40 MLOAD PUSH1 0x1 PUSH1 0x1 PUSH1 0xA0 SHL SUB SWAP1 SWAP2 AND DUP2 MSTORE PUSH1 0x20 SWAP1 RETURN JUMPDEST POP CALLVALUE PUSH2 0x38B JUMPI DUP1 PUSH1 0x3 NOT CALLDATASIZE ADD SLT PUSH2 0x38B JUMPI PUSH1 0x20 PUSH1 0xFF PUSH1 0x11 SLOAD PUSH1 0x8 SHR AND PUSH1 0x40 MLOAD SWAP1 ISZERO ISZERO DUP2 MSTORE RETURN JUMPDEST POP CALLVALUE PUSH2 0x38B JUMPI PUSH1 0x20 CALLDATASIZE PUSH1 0x3 NOT ADD SLT PUSH2 0x38B JUMPI PUSH1 0x20 SWAP1 PUSH1 0x40 SWAP1 PUSH1 0x1 PUSH1 0x1 PUSH1 0xA0 SHL SUB PUSH2 0x10CA PUSH2 0x1719 JUMP JUMPDEST AND DUP2 MSTORE PUSH1 0x16 DUP4 MSTORE KECCAK256 SLOAD PUSH1 0x40 MLOAD SWAP1 DUP2 MSTORE RETURN JUMPDEST POP CALLVALUE PUSH2 0x38B JUMPI PUSH1 0x20 CALLDATASIZE PUSH1 0x3 NOT ADD SLT PUSH2 0x38B JUMPI PUSH32 0xF19C3BDDDF1B5AC58B32A05CC2BC72313B03A8E8CEB7621E8818651371E00E54 PUSH1 0x20 PUSH2 0x1118 PUSH2 0x1745 JUMP JUMPDEST PUSH2 0x1120 PUSH2 0x1BA2 JUMP JUMPDEST DUP1 ISZERO ISZERO SWAP1 PUSH1 0xFF NOT PUSH1 0x11 SLOAD AND PUSH1 0xFF DUP4 AND OR PUSH1 0x11 SSTORE PUSH2 0x1141 JUMPI PUSH1 0x40 MLOAD SWAP1 DUP2 MSTORE LOG1 DUP1 RETURN JUMPDEST TIMESTAMP PUSH1 0xF SSTORE PUSH3 0x278D00 PUSH1 0x10 SSTORE PUSH32 0xDBEB6EC948F6EB874ECBD6117742652C35D57FBE578B778B77E677A06AF90B96 DUP3 PUSH1 0x40 MLOAD PUSH3 0x278D00 DUP2 MSTORE LOG1 PUSH2 0x824 JUMP JUMPDEST POP CALLVALUE PUSH2 0x38B JUMPI PUSH1 0x20 CALLDATASIZE PUSH1 0x3 NOT ADD SLT PUSH2 0x38B JUMPI PUSH2 0x1197 PUSH2 0x1719 JUMP JUMPDEST PUSH2 0x119F PUSH2 0x1BA2 JUMP JUMPDEST PUSH1 0x1 PUSH1 0x1 PUSH1 0xA0 SHL SUB AND DUP1 ISZERO PUSH2 0xB3E JUMPI PUSH12 0xFFFFFFFFFFFFFFFFFFFFFFFF PUSH1 0xA0 SHL PUSH1 0xA SLOAD AND OR PUSH1 0xA SSTORE DUP1 RETURN JUMPDEST POP CALLVALUE PUSH2 0x38B JUMPI DUP1 PUSH1 0x3 NOT CALLDATASIZE ADD SLT PUSH2 0x38B JUMPI PUSH1 0x5 SLOAD PUSH1 0x1 PUSH1 0x1 PUSH1 0xA0 SHL SUB AND CALLER EQ DUP1 ISZERO PUSH2 0x1230 JUMPI JUMPDEST ISZERO PUSH2 0x11FC JUMPI PUSH2 0x3AF PUSH2 0x1F29 JUMP JUMPDEST PUSH1 0x40 MLOAD PUSH3 0x461BCD PUSH1 0xE5 SHL DUP2 MSTORE PUSH1 0x20 PUSH1 0x4 DUP3 ADD MSTORE PUSH1 0xC PUSH1 0x24 DUP3 ADD MSTORE PUSH12 0x155B985D5D1A1BDC9A5E9959 PUSH1 0xA2 SHL PUSH1 0x44 DUP3 ADD MSTORE PUSH1 0x64 SWAP1 REVERT JUMPDEST POP CALLER PUSH32 0x0 PUSH1 0x1 PUSH1 0x1 PUSH1 0xA0 SHL SUB AND EQ PUSH2 0x11EF JUMP JUMPDEST POP CALLVALUE PUSH2 0x38B JUMPI DUP1 PUSH1 0x3 NOT CALLDATASIZE ADD SLT PUSH2 0x38B JUMPI PUSH1 0x20 PUSH1 0xB SLOAD PUSH1 0x40 MLOAD SWAP1 DUP2 MSTORE RETURN JUMPDEST POP CALLVALUE PUSH2 0x38B JUMPI PUSH1 0x20 CALLDATASIZE PUSH1 0x3 NOT ADD SLT PUSH2 0x38B JUMPI PUSH1 0x40 SWAP1 PUSH1 0x1 PUSH1 0x1 PUSH1 0xA0 SHL SUB PUSH2 0x12A5 PUSH2 0x1719 JUMP JUMPDEST AND DUP2 MSTORE PUSH1 0x16 PUSH1 0x20 MSTORE DUP2 DUP2 KECCAK256 SLOAD DUP3 MLOAD SWAP2 DUP3 MSTORE PUSH1 0x20 DUP3 ADD MSTORE RETURN JUMPDEST POP CALLVALUE PUSH2 0x38B JUMPI DUP1 PUSH1 0x3 NOT CALLDATASIZE ADD SLT PUSH2 0x38B JUMPI PUSH1 0x20 PUSH1 0x40 MLOAD PUSH1 0x12 DUP2 MSTORE RETURN JUMPDEST POP CALLVALUE PUSH2 0x38B JUMPI DUP1 PUSH1 0x3 NOT CALLDATASIZE ADD SLT PUSH2 0x38B JUMPI PUSH2 0x12F2 PUSH2 0x1BA2 JUMP JUMPDEST PUSH1 0x1A SLOAD PUSH1 0xFF DUP2 AND PUSH2 0x13A6 JUMPI PUSH1 0x1 PUSH1 0xFF NOT SWAP2 DUP3 AND DUP2 OR PUSH1 0x1A SSTORE PUSH1 0x5 SLOAD PUSH1 0x1 PUSH1 0x1 PUSH1 0xA0 SHL SUB SWAP1 DUP2 AND DUP5 MSTORE PUSH1 0x17 PUSH1 0x20 DUP2 DUP2 MSTORE PUSH1 0x40 DUP1 DUP8 KECCAK256 DUP1 SLOAD DUP8 AND DUP7 OR SWAP1 SSTORE ADDRESS DUP8 MSTORE DUP3 DUP3 MSTORE DUP1 DUP8 KECCAK256 DUP1 SLOAD DUP8 AND DUP7 OR SWAP1 SSTORE PUSH32 0x0 DUP5 AND DUP8 MSTORE DUP3 DUP3 MSTORE DUP1 DUP8 KECCAK256 DUP1 SLOAD DUP8 AND DUP7 OR SWAP1 SSTORE PUSH32 0x0 SWAP1 SWAP4 AND DUP7 MSTORE MSTORE DUP4 KECCAK256 DUP1 SLOAD SWAP1 SWAP3 AND OR SWAP1 SSTORE DUP1 RETURN JUMPDEST PUSH3 0xDC149F PUSH1 0xE4 SHL DUP3 MSTORE PUSH1 0x4 DUP3 REVERT JUMPDEST POP CALLVALUE PUSH2 0x38B JUMPI PUSH1 0x60 CALLDATASIZE PUSH1 0x3 NOT ADD SLT PUSH2 0x38B JUMPI PUSH2 0x13CE PUSH2 0x1719 JUMP JUMPDEST PUSH2 0x13D6 PUSH2 0x172F JUMP JUMPDEST PUSH1 0x1 PUSH1 0x1 PUSH1 0xA0 SHL SUB DUP3 AND DUP1 DUP5 MSTORE PUSH1 0x1 PUSH1 0x20 SWAP1 DUP2 MSTORE PUSH1 0x40 DUP1 DUP7 KECCAK256 CALLER DUP8 MSTORE SWAP1 SWAP2 MSTORE DUP5 KECCAK256 SLOAD PUSH1 0x44 CALLDATALOAD SWAP4 SWAP2 PUSH1 0x0 NOT DUP3 LT PUSH2 0x1413 JUMPI JUMPDEST POP POP PUSH2 0x887 SWAP4 POP PUSH2 0x1BCB JUMP JUMPDEST DUP5 DUP3 LT PUSH2 0x147A JUMPI DUP1 ISZERO PUSH2 0x1466 JUMPI CALLER ISZERO PUSH2 0x1452 JUMPI PUSH1 0x40 DUP7 DUP7 SWAP3 PUSH2 0x887 SWAP9 MSTORE PUSH1 0x1 PUSH1 0x20 MSTORE DUP2 DUP2 KECCAK256 PUSH1 0x1 DUP1 PUSH1 0xA0 SHL SUB CALLER AND DUP3 MSTORE PUSH1 0x20 MSTORE KECCAK256 SWAP2 SUB SWAP1 SSTORE CODESIZE DUP1 PUSH2 0x1407 JUMP JUMPDEST PUSH4 0x4A1406B1 PUSH1 0xE1 SHL DUP7 MSTORE PUSH1 0x4 DUP7 SWAP1 MSTORE PUSH1 0x24 DUP7 REVERT JUMPDEST PUSH4 0xE602DF05 PUSH1 0xE0 SHL DUP7 MSTORE PUSH1 0x4 DUP7 SWAP1 MSTORE PUSH1 0x24 DUP7 REVERT JUMPDEST PUSH1 0x64 DUP7 DUP7 DUP5 PUSH4 0x7DC7A0D9 PUSH1 0xE1 SHL DUP4 MSTORE CALLER PUSH1 0x4 MSTORE PUSH1 0x24 MSTORE PUSH1 0x44 MSTORE REVERT JUMPDEST POP CALLVALUE PUSH2 0x38B JUMPI PUSH1 0x20 CALLDATASIZE PUSH1 0x3 NOT ADD SLT PUSH2 0x38B JUMPI PUSH2 0x14AF PUSH2 0x1719 JUMP JUMPDEST PUSH2 0x14B7 PUSH2 0x1BA2 JUMP JUMPDEST PUSH1 0x1 PUSH1 0x1 PUSH1 0xA0 SHL SUB AND DUP1 ISZERO PUSH2 0xB3E JUMPI PUSH1 0x7 DUP1 SLOAD PUSH1 0x1 PUSH1 0x1 PUSH1 0xA0 SHL SUB NOT AND DUP3 OR SWAP1 SSTORE DUP2 MSTORE PUSH1 0x17 PUSH1 0x20 MSTORE PUSH1 0x40 DUP2 KECCAK256 DUP1 SLOAD PUSH1 0xFF NOT AND PUSH1 0x1 OR SWAP1 SSTORE DUP1 RETURN JUMPDEST POP CALLVALUE PUSH2 0x38B JUMPI DUP1 PUSH1 0x3 NOT CALLDATASIZE ADD SLT PUSH2 0x38B JUMPI PUSH1 0x20 PUSH1 0x2 SLOAD PUSH1 0x40 MLOAD SWAP1 DUP2 MSTORE RETURN JUMPDEST POP CALLVALUE PUSH2 0x38B JUMPI DUP1 PUSH1 0x3 NOT CALLDATASIZE ADD SLT PUSH2 0x38B JUMPI PUSH1 0x40 MLOAD PUSH32 0x0 PUSH1 0x1 PUSH1 0x1 PUSH1 0xA0 SHL SUB AND DUP2 MSTORE PUSH1 0x20 SWAP1 RETURN JUMPDEST POP CALLVALUE PUSH2 0x38B JUMPI PUSH1 0x20 CALLDATASIZE PUSH1 0x3 NOT ADD SLT PUSH2 0x38B JUMPI PUSH1 0x20 PUSH2 0x1570 PUSH2 0x1719 JUMP JUMPDEST EXTCODESIZE ISZERO ISZERO PUSH1 0x40 MLOAD SWAP1 DUP2 MSTORE RETURN JUMPDEST POP CALLVALUE PUSH2 0x38B JUMPI PUSH1 0x40 CALLDATASIZE PUSH1 0x3 NOT ADD SLT PUSH2 0x38B JUMPI PUSH2 0x887 PUSH2 0x1598 PUSH2 0x1719 JUMP JUMPDEST PUSH1 0x24 CALLDATALOAD SWAP1 CALLER PUSH2 0x2139 JUMP JUMPDEST POP CALLVALUE PUSH2 0x38B JUMPI DUP1 PUSH1 0x3 NOT CALLDATASIZE ADD SLT PUSH2 0x38B JUMPI PUSH1 0x40 MLOAD SWAP1 DUP1 PUSH1 0x3 SLOAD SWAP1 DUP2 PUSH1 0x1 SHR SWAP2 PUSH1 0x1 DUP2 AND DUP1 ISZERO PUSH2 0x1655 JUMPI JUMPDEST PUSH1 0x20 DUP5 LT DUP2 EQ PUSH2 0xA13 JUMPI DUP4 DUP7 MSTORE SWAP1 DUP2 ISZERO PUSH2 0x9EC JUMPI POP PUSH1 0x1 EQ PUSH2 0x15F8 JUMPI PUSH2 0x98B DUP5 PUSH2 0x977 DUP2 DUP7 SUB DUP3 PUSH2 0x1763 JUMP JUMPDEST PUSH1 0x3 DUP2 MSTORE PUSH32 0xC2575A0E9E593C00F959F8C92F12DB2869C3395A3B0502D05E2516446F71F85B SWAP4 SWAP3 POP SWAP1 JUMPDEST DUP1 DUP3 LT PUSH2 0x163B JUMPI POP SWAP1 SWAP2 POP DUP2 ADD PUSH1 0x20 ADD PUSH2 0x977 DUP3 PUSH2 0x967 JUMP JUMPDEST SWAP2 SWAP3 PUSH1 0x1 DUP2 PUSH1 0x20 SWAP3 SLOAD DUP4 DUP6 DUP9 ADD ADD MSTORE ADD SWAP2 ADD SWAP1 SWAP3 SWAP2 PUSH2 0x1622 JUMP JUMPDEST SWAP3 PUSH1 0x7F AND SWAP3 PUSH2 0x15CC JUMP JUMPDEST POP CALLVALUE PUSH2 0x38B JUMPI PUSH2 0x166E CALLDATASIZE PUSH2 0x16B9 JUMP JUMPDEST PUSH2 0x26F7 DUP4 MUL SWAP3 DUP1 DUP5 DIV PUSH2 0x26F7 EQ SWAP1 ISZERO OR ISZERO PUSH2 0xCF4 JUMPI PUSH2 0x168D SWAP1 DUP4 PUSH2 0x1B8F JUMP JUMPDEST SWAP3 PUSH2 0x2710 DUP3 MUL SWAP2 DUP1 DUP4 DIV PUSH2 0x2710 EQ SWAP1 ISZERO OR ISZERO PUSH2 0xCCC JUMPI PUSH1 0x20 PUSH2 0xE06 DUP6 PUSH2 0x16B3 DUP7 DUP7 PUSH2 0x18AF JUMP JUMPDEST SWAP1 PUSH2 0x1B6F JUMP JUMPDEST PUSH1 0x60 SWAP1 PUSH1 0x3 NOT ADD SLT PUSH2 0x16D3 JUMPI PUSH1 0x4 CALLDATALOAD SWAP1 PUSH1 0x24 CALLDATALOAD SWAP1 PUSH1 0x44 CALLDATALOAD SWAP1 JUMP JUMPDEST PUSH1 0x0 DUP1 REVERT JUMPDEST SWAP2 SWAP1 DUP3 MLOAD SWAP3 DUP4 DUP3 MSTORE PUSH1 0x0 JUMPDEST DUP5 DUP2 LT PUSH2 0x1704 JUMPI POP POP DUP3 PUSH1 0x0 PUSH1 0x20 DUP1 SWAP5 SWAP6 DUP5 ADD ADD MSTORE PUSH1 0x1F DUP1 NOT SWAP2 ADD AND ADD ADD SWAP1 JUMP JUMPDEST DUP1 PUSH1 0x20 DUP1 SWAP3 DUP5 ADD ADD MLOAD DUP3 DUP3 DUP7 ADD ADD MSTORE ADD PUSH2 0x16E3 JUMP JUMPDEST PUSH1 0x4 CALLDATALOAD SWAP1 PUSH1 0x1 PUSH1 0x1 PUSH1 0xA0 SHL SUB DUP3 AND DUP3 SUB PUSH2 0x16D3 JUMPI JUMP JUMPDEST PUSH1 0x24 CALLDATALOAD SWAP1 PUSH1 0x1 PUSH1 0x1 PUSH1 0xA0 SHL SUB DUP3 AND DUP3 SUB PUSH2 0x16D3 JUMPI JUMP JUMPDEST PUSH1 0x4 CALLDATALOAD SWAP1 DUP2 ISZERO ISZERO DUP3 SUB PUSH2 0x16D3 JUMPI JUMP JUMPDEST PUSH1 0x24 CALLDATALOAD SWAP1 DUP2 ISZERO ISZERO DUP3 SUB PUSH2 0x16D3 JUMPI JUMP JUMPDEST SWAP1 PUSH1 0x1F DUP1 NOT SWAP2 ADD AND DUP2 ADD SWAP1 DUP2 LT PUSH8 0xFFFFFFFFFFFFFFFF DUP3 GT OR PUSH2 0x1785 JUMPI PUSH1 0x40 MSTORE JUMP JUMPDEST PUSH4 0x4E487B71 PUSH1 0xE0 SHL PUSH1 0x0 MSTORE PUSH1 0x41 PUSH1 0x4 MSTORE PUSH1 0x24 PUSH1 0x0 REVERT JUMPDEST PUSH1 0x40 PUSH1 0x3 NOT DUP3 ADD SLT PUSH2 0x16D3 JUMPI PUSH1 0x4 CALLDATALOAD SWAP1 PUSH8 0xFFFFFFFFFFFFFFFF DUP3 GT PUSH2 0x16D3 JUMPI DUP1 PUSH1 0x23 DUP4 ADD SLT ISZERO PUSH2 0x16D3 JUMPI DUP2 PUSH1 0x4 ADD CALLDATALOAD SWAP1 PUSH8 0xFFFFFFFFFFFFFFFF DUP3 GT PUSH2 0x1785 JUMPI PUSH1 0x20 DUP3 PUSH1 0x5 SHL ADD SWAP3 PUSH2 0x17EF PUSH1 0x40 MLOAD SWAP5 DUP6 PUSH2 0x1763 JUMP JUMPDEST DUP3 DUP5 MSTORE PUSH1 0x24 PUSH1 0x20 DUP6 ADD SWAP4 PUSH1 0x5 SHL DUP3 ADD ADD SWAP2 DUP3 GT PUSH2 0x16D3 JUMPI PUSH1 0x24 ADD SWAP2 JUMPDEST DUP2 DUP4 LT PUSH2 0x1825 JUMPI POP POP POP SWAP1 PUSH1 0x24 CALLDATALOAD DUP1 ISZERO ISZERO DUP2 SUB PUSH2 0x16D3 JUMPI SWAP1 JUMP JUMPDEST DUP3 CALLDATALOAD PUSH1 0x1 PUSH1 0x1 PUSH1 0xA0 SHL SUB DUP2 AND DUP2 SUB PUSH2 0x16D3 JUMPI DUP2 MSTORE PUSH1 0x20 SWAP3 DUP4 ADD SWAP3 ADD PUSH2 0x180B JUMP JUMPDEST ISZERO PUSH2 0x184C JUMPI JUMP JUMPDEST PUSH1 0x40 MLOAD PUSH3 0x461BCD PUSH1 0xE5 SHL DUP2 MSTORE PUSH1 0x20 PUSH1 0x4 DUP3 ADD MSTORE PUSH1 0x15 PUSH1 0x24 DUP3 ADD MSTORE PUSH21 0x13DB9B1E481CDD185ADA5B99C818DBDB9D1C9858DD PUSH1 0x5A SHL PUSH1 0x44 DUP3 ADD MSTORE PUSH1 0x64 SWAP1 REVERT JUMPDEST SWAP1 PUSH3 0x278D00 DUP3 ADD DUP1 SWAP3 GT PUSH2 0x1899 JUMPI JUMP JUMPDEST PUSH4 0x4E487B71 PUSH1 0xE0 SHL PUSH1 0x0 MSTORE PUSH1 0x11 PUSH1 0x4 MSTORE PUSH1 0x24 PUSH1 0x0 REVERT JUMPDEST SWAP2 SWAP1 DUP3 ADD DUP1 SWAP3 GT PUSH2 0x1899 JUMPI JUMP JUMPDEST DUP1 MLOAD DUP3 LT ISZERO PUSH2 0x18D0 JUMPI PUSH1 0x20 SWAP2 PUSH1 0x5 SHL ADD ADD SWAP1 JUMP JUMPDEST PUSH4 0x4E487B71 PUSH1 0xE0 SHL PUSH1 0x0 MSTORE PUSH1 0x32 PUSH1 0x4 MSTORE PUSH1 0x24 PUSH1 0x0 REVERT JUMPDEST PUSH1 0xFF PUSH1 0x11 SLOAD PUSH1 0x8 SHR AND ISZERO SWAP1 DUP2 ISZERO PUSH2 0x1926 JUMPI JUMPDEST POP PUSH2 0x1921 JUMPI PUSH1 0x13 SLOAD DUP1 ISZERO PUSH2 0x1915 JUMPI PUSH2 0x190F SWAP1 PUSH2 0x1889 JUMP JUMPDEST TIMESTAMP LT ISZERO SWAP1 JUMP JUMPDEST POP PUSH2 0x190F PUSH1 0x12 SLOAD PUSH2 0x1889 JUMP JUMPDEST PUSH1 0x1 SWAP1 JUMP JUMPDEST PUSH1 0x1 PUSH1 0x1 PUSH1 0xA0 SHL SUB AND PUSH1 0x0 SWAP1 DUP2 MSTORE PUSH1 0x17 PUSH1 0x20 MSTORE PUSH1 0x40 SWAP1 KECCAK256 SLOAD PUSH1 0xFF AND SWAP1 POP CODESIZE PUSH2 0x18F8 JUMP JUMPDEST SWAP1 DUP2 PUSH1 0x20 SWAP2 SUB SLT PUSH2 0x16D3 JUMPI MLOAD DUP1 ISZERO ISZERO DUP2 SUB PUSH2 0x16D3 JUMPI SWAP1 JUMP JUMPDEST PUSH1 0x1 PUSH1 0x1 PUSH1 0xA0 SHL SUB AND ADDRESS DUP2 EQ PUSH2 0x19EC JUMPI PUSH1 0x5 SLOAD PUSH1 0x40 MLOAD PUSH4 0xA9059CBB PUSH1 0xE0 SHL DUP2 MSTORE PUSH1 0x1 PUSH1 0x1 PUSH1 0xA0 SHL SUB SWAP1 SWAP2 AND PUSH1 0x4 DUP3 ADD MSTORE PUSH1 0x24 DUP2 ADD SWAP3 SWAP1 SWAP3 MSTORE PUSH1 0x20 SWAP1 DUP3 SWAP1 PUSH1 0x44 SWAP1 DUP3 SWAP1 PUSH1 0x0 SWAP1 GAS CALL DUP1 ISZERO PUSH2 0x19E0 JUMPI PUSH2 0x19B5 JUMPI POP JUMP JUMPDEST PUSH2 0x19D6 SWAP1 PUSH1 0x20 RETURNDATASIZE PUSH1 0x20 GT PUSH2 0x19D9 JUMPI JUMPDEST PUSH2 0x19CE DUP2 DUP4 PUSH2 0x1763 JUMP JUMPDEST DUP2 ADD SWAP1 PUSH2 0x1949 JUMP JUMPDEST POP JUMP JUMPDEST POP RETURNDATASIZE PUSH2 0x19C4 JUMP JUMPDEST PUSH1 0x40 MLOAD RETURNDATASIZE PUSH1 0x0 DUP3 RETURNDATACOPY RETURNDATASIZE SWAP1 REVERT JUMPDEST POP POP JUMP JUMPDEST MLOAD SWAP1 PUSH1 0x1 PUSH1 0x1 PUSH1 0x70 SHL SUB DUP3 AND DUP3 SUB PUSH2 0x16D3 JUMPI JUMP JUMPDEST SWAP1 DUP2 PUSH1 0x60 SWAP2 SUB SLT PUSH2 0x16D3 JUMPI PUSH2 0x1A18 DUP2 PUSH2 0x19F0 JUMP JUMPDEST SWAP2 PUSH1 0x40 PUSH2 0x1A27 PUSH1 0x20 DUP5 ADD PUSH2 0x19F0 JUMP JUMPDEST SWAP3 ADD MLOAD PUSH4 0xFFFFFFFF DUP2 AND DUP2 SUB PUSH2 0x16D3 JUMPI SWAP1 JUMP JUMPDEST SWAP1 DUP2 PUSH1 0x20 SWAP2 SUB SLT PUSH2 0x16D3 JUMPI MLOAD PUSH1 0x1 PUSH1 0x1 PUSH1 0xA0 SHL SUB DUP2 AND DUP2 SUB PUSH2 0x16D3 JUMPI SWAP1 JUMP JUMPDEST PUSH1 0x6 SLOAD PUSH1 0x40 MLOAD PUSH4 0x240BC6B PUSH1 0xE2 SHL DUP2 MSTORE SWAP1 PUSH1 0x1 PUSH1 0x1 PUSH1 0xA0 SHL SUB AND PUSH1 0x60 DUP3 PUSH1 0x4 DUP2 DUP5 GAS STATICCALL SWAP1 DUP2 PUSH1 0x0 SWAP4 PUSH1 0x0 SWAP4 PUSH2 0x1B2A JUMPI JUMPDEST POP PUSH2 0x1A96 JUMPI POP POP POP PUSH1 0x0 SWAP1 JUMP JUMPDEST PUSH1 0x20 PUSH1 0x4 SWAP2 PUSH1 0x40 MLOAD SWAP3 DUP4 DUP1 SWAP3 PUSH4 0xDFE1681 PUSH1 0xE0 SHL DUP3 MSTORE GAS STATICCALL SWAP1 DUP2 ISZERO PUSH2 0x19E0 JUMPI PUSH1 0x0 SWAP2 PUSH2 0x1AFB JUMPI JUMPDEST POP PUSH1 0x1 PUSH1 0x1 PUSH1 0xA0 SHL SUB SWAP1 DUP2 AND PUSH32 0x0 SWAP1 SWAP2 AND SUB PUSH2 0x1AF6 JUMPI POP SWAP1 JUMP JUMPDEST SWAP1 POP SWAP1 JUMP JUMPDEST PUSH2 0x1B1D SWAP2 POP PUSH1 0x20 RETURNDATASIZE PUSH1 0x20 GT PUSH2 0x1B23 JUMPI JUMPDEST PUSH2 0x1B15 DUP2 DUP4 PUSH2 0x1763 JUMP JUMPDEST DUP2 ADD SWAP1 PUSH2 0x1A3A JUMP JUMPDEST CODESIZE PUSH2 0x1ABD JUMP JUMPDEST POP RETURNDATASIZE PUSH2 0x1B0B JUMP JUMPDEST SWAP1 SWAP3 POP PUSH2 0x1B50 SWAP2 SWAP4 POP PUSH1 0x60 RETURNDATASIZE PUSH1 0x60 GT PUSH2 0x1B5B JUMPI JUMPDEST PUSH2 0x1B48 DUP2 DUP4 PUSH2 0x1763 JUMP JUMPDEST DUP2 ADD SWAP1 PUSH2 0x1A04 JUMP JUMPDEST POP SWAP3 SWAP1 SWAP3 SWAP2 CODESIZE PUSH2 0x1A89 JUMP JUMPDEST POP RETURNDATASIZE PUSH2 0x1B3E JUMP JUMPDEST SWAP2 SWAP1 DUP3 SUB SWAP2 DUP3 GT PUSH2 0x1899 JUMPI JUMP JUMPDEST DUP2 ISZERO PUSH2 0x1B79 JUMPI DIV SWAP1 JUMP JUMPDEST PUSH4 0x4E487B71 PUSH1 0xE0 SHL PUSH1 0x0 MSTORE PUSH1 0x12 PUSH1 0x4 MSTORE PUSH1 0x24 PUSH1 0x0 REVERT JUMPDEST DUP2 DUP2 MUL SWAP3 SWAP2 DUP2 ISZERO SWAP2 DUP5 DIV EQ OR ISZERO PUSH2 0x1899 JUMPI JUMP JUMPDEST PUSH1 0x5 SLOAD PUSH1 0x1 PUSH1 0x1 PUSH1 0xA0 SHL SUB AND CALLER SUB PUSH2 0x1BB6 JUMPI JUMP JUMPDEST PUSH4 0x118CDAA7 PUSH1 0xE0 SHL PUSH1 0x0 MSTORE CALLER PUSH1 0x4 MSTORE PUSH1 0x24 PUSH1 0x0 REVERT JUMPDEST SWAP1 PUSH1 0x1 PUSH1 0x1 PUSH1 0xA0 SHL SUB DUP3 AND DUP1 ISZERO DUP1 ISZERO PUSH2 0x1F18 JUMPI JUMPDEST PUSH2 0x1EEB JUMPI DUP1 PUSH1 0x0 MSTORE PUSH1 0x17 PUSH1 0x20 MSTORE PUSH1 0xFF PUSH1 0x40 PUSH1 0x0 KECCAK256 SLOAD AND DUP1 ISZERO PUSH2 0x1EF6 JUMPI JUMPDEST PUSH2 0x1EEB JUMPI PUSH2 0x1C0A DUP3 DUP5 PUSH2 0x22B5 JUMP JUMPDEST PUSH2 0x1C14 DUP4 DUP6 PUSH2 0x2329 JUMP JUMPDEST SWAP1 ISZERO PUSH2 0x1DA0 JUMPI POP POP PUSH1 0x1 PUSH1 0x1 PUSH1 0xA0 SHL SUB DUP2 AND PUSH1 0x0 DUP2 DUP2 MSTORE PUSH1 0x18 PUSH1 0x20 MSTORE PUSH1 0x40 SWAP1 KECCAK256 SLOAD SWAP1 SWAP3 SWAP1 PUSH1 0xFF AND PUSH2 0x1D8F JUMPI PUSH1 0x11 SLOAD PUSH1 0xFF DUP2 PUSH1 0x8 SHR AND DUP1 PUSH2 0x1D76 JUMPI JUMPDEST PUSH2 0x1D3E JUMPI JUMPDEST PUSH1 0xFF AND DUP1 PUSH2 0x1D27 JUMPI JUMPDEST PUSH2 0x1D17 JUMPI PUSH2 0x1C6C SWAP2 DUP5 SWAP2 PUSH2 0x21CC JUMP JUMPDEST DUP1 PUSH1 0x0 MSTORE PUSH1 0x16 PUSH1 0x20 MSTORE TIMESTAMP PUSH1 0x40 PUSH1 0x0 KECCAK256 SSTORE PUSH1 0x3 PUSH1 0x40 MLOAD PUSH3 0x425559 PUSH1 0xE8 SHL DUP2 MSTORE KECCAK256 PUSH1 0x40 MLOAD DUP3 PUSH32 0x681F1F0FB3679A87B3423967DFA2EC97150B706D392EADA5B3617C7508AFC765 TIMESTAMP SWAP3 DUP1 PUSH2 0x1CBE DUP9 DUP1 DUP4 PUSH2 0x238A JUMP JUMPDEST SUB SWAP1 LOG4 PUSH1 0x40 MLOAD SWAP2 PUSH1 0x80 DUP4 MSTORE PUSH1 0x3 PUSH1 0x80 DUP5 ADD MSTORE PUSH3 0x425559 PUSH1 0xE8 SHL PUSH1 0xA0 DUP5 ADD MSTORE DUP1 PUSH1 0x20 DUP5 ADD MSTORE PUSH1 0x0 PUSH1 0x40 DUP5 ADD MSTORE PUSH1 0x60 DUP4 ADD MSTORE PUSH32 0xFDE30999D0EA66FCAF14400B79C9E771A1A87176335A8CC91382321A3D0A0C1F PUSH1 0xC0 TIMESTAMP SWAP4 LOG3 JUMPDEST JUMP JUMPDEST PUSH3 0x4E6101 PUSH1 0xE3 SHL PUSH1 0x0 MSTORE PUSH1 0x4 PUSH1 0x0 REVERT JUMPDEST POP PUSH2 0x1D37 PUSH1 0xF SLOAD PUSH1 0x10 SLOAD SWAP1 PUSH2 0x18AF JUMP JUMPDEST TIMESTAMP LT PUSH2 0x1C5D JUMP JUMPDEST PUSH1 0x13 SLOAD DUP1 ISZERO PUSH2 0x1D6D JUMPI JUMPDEST PUSH3 0x278D00 DUP2 ADD DUP1 SWAP2 GT PUSH2 0x1899 JUMPI TIMESTAMP LT ISZERO PUSH2 0x1C54 JUMPI PUSH4 0x20CF80F9 PUSH1 0xE0 SHL PUSH1 0x0 MSTORE PUSH1 0x4 PUSH1 0x0 REVERT JUMPDEST POP PUSH1 0x12 SLOAD PUSH2 0x1D48 JUMP JUMPDEST POP DUP4 PUSH1 0x0 MSTORE PUSH1 0x17 PUSH1 0x20 MSTORE PUSH1 0xFF PUSH1 0x40 PUSH1 0x0 KECCAK256 SLOAD AND ISZERO PUSH2 0x1C4F JUMP JUMPDEST PUSH4 0x9550C77 PUSH1 0xE0 SHL PUSH1 0x0 MSTORE PUSH1 0x4 PUSH1 0x0 REVERT JUMPDEST SWAP1 SWAP4 SWAP3 SWAP1 ISZERO PUSH2 0x1ED9 JUMPI DUP4 PUSH1 0x0 MSTORE PUSH1 0x18 PUSH1 0x20 MSTORE PUSH1 0xFF PUSH1 0x40 PUSH1 0x0 KECCAK256 SLOAD AND PUSH2 0x1D8F JUMPI DUP4 PUSH1 0x0 MSTORE PUSH1 0x16 PUSH1 0x20 MSTORE PUSH2 0x1DDA PUSH1 0x40 PUSH1 0x0 KECCAK256 SLOAD PUSH1 0xB SLOAD SWAP1 PUSH2 0x18AF JUMP JUMPDEST TIMESTAMP LT PUSH2 0x1EC8 JUMPI PUSH2 0x1DEB SWAP2 DUP4 SWAP2 PUSH2 0x21CC JUMP JUMPDEST PUSH1 0x40 MLOAD DUP2 DUP2 MSTORE PUSH1 0x0 PUSH1 0x20 DUP3 ADD MSTORE PUSH1 0x0 PUSH1 0x40 DUP3 ADD MSTORE PUSH1 0x0 PUSH1 0x60 DUP3 ADD MSTORE DUP2 PUSH1 0x80 DUP3 ADD MSTORE PUSH1 0x0 PUSH1 0xA0 DUP3 ADD MSTORE PUSH1 0x0 PUSH1 0xC0 DUP3 ADD MSTORE PUSH1 0x0 PUSH1 0xE0 DUP3 ADD MSTORE PUSH1 0x0 PUSH2 0x100 DUP3 ADD MSTORE PUSH1 0x0 PUSH2 0x120 DUP3 ADD MSTORE PUSH1 0x0 PUSH2 0x140 DUP3 ADD MSTORE PUSH1 0x0 PUSH2 0x160 DUP3 ADD MSTORE PUSH1 0x0 PUSH2 0x180 DUP3 ADD MSTORE PUSH1 0x0 PUSH2 0x1A0 DUP3 ADD MSTORE PUSH1 0x0 PUSH2 0x1C0 DUP3 ADD MSTORE DUP3 PUSH32 0x14F1A00236D7BCA73DDCF087E3D43CA785808697C6FDE3616F17D02D6F2C68E3 PUSH2 0x1E0 TIMESTAMP SWAP4 LOG3 PUSH1 0x4 PUSH1 0x40 MLOAD PUSH4 0x14D15313 PUSH1 0xE2 SHL DUP2 MSTORE KECCAK256 SWAP2 PUSH32 0x681F1F0FB3679A87B3423967DFA2EC97150B706D392EADA5B3617C7508AFC765 PUSH1 0x40 MLOAD DUP1 PUSH2 0x1EC3 TIMESTAMP SWAP6 DUP1 DUP4 PUSH2 0x238A JUMP JUMPDEST SUB SWAP1 LOG4 JUMP JUMPDEST PUSH4 0x465FD091 PUSH1 0xE0 SHL PUSH1 0x0 MSTORE PUSH1 0x4 PUSH1 0x0 REVERT JUMPDEST PUSH2 0x1EE3 SWAP4 POP PUSH2 0x21CC JUMP JUMPDEST PUSH2 0x1D15 PUSH2 0x2031 JUMP JUMPDEST POP PUSH2 0x1D15 SWAP3 SWAP2 PUSH2 0x21CC JUMP JUMPDEST POP PUSH1 0x1 PUSH1 0x1 PUSH1 0xA0 SHL SUB DUP3 AND PUSH1 0x0 SWAP1 DUP2 MSTORE PUSH1 0x17 PUSH1 0x20 MSTORE PUSH1 0x40 SWAP1 KECCAK256 SLOAD PUSH1 0xFF AND PUSH2 0x1BFC JUMP JUMPDEST POP PUSH1 0x1 PUSH1 0x1 PUSH1 0xA0 SHL SUB DUP3 AND ISZERO PUSH2 0x1BDF JUMP JUMPDEST PUSH1 0xC SLOAD PUSH1 0xE SLOAD DUP2 LT ISZERO DUP1 PUSH2 0x2024 JUMPI JUMPDEST PUSH2 0x1F3F JUMPI POP JUMP JUMPDEST PUSH2 0x1F47 PUSH2 0x23D6 JUMP JUMPDEST ISZERO PUSH2 0x1FC4 JUMPI PUSH1 0x40 MLOAD SWAP1 DUP2 MSTORE PUSH1 0x60 PUSH1 0x20 DUP3 ADD MSTORE PUSH1 0xE PUSH1 0x60 DUP3 ADD MSTORE PUSH14 0x10555513D7D512149154D213D311 PUSH1 0x92 SHL PUSH1 0x80 DUP3 ADD MSTORE TIMESTAMP PUSH1 0x40 DUP3 ADD MSTORE PUSH32 0xD8296AA488BFCEF418C563CFDCCAD96B64E0D82F06EDA3FE90068D39C9FB85C PUSH1 0xA0 CALLER SWAP3 LOG2 PUSH1 0x1 PUSH1 0xFF NOT PUSH1 0x14 SLOAD AND OR PUSH1 0x14 SSTORE PUSH2 0x1FB8 PUSH2 0x25E2 JUMP JUMPDEST PUSH1 0xFF NOT PUSH1 0x14 SLOAD AND PUSH1 0x14 SSTORE JUMP JUMPDEST PUSH1 0xA0 PUSH32 0xE87B88B4C27D1729D389885F3F6648294B68791762D08E1BC96ECE2F6DFF0B14 SWAP2 PUSH1 0x40 MLOAD SWAP1 DUP2 MSTORE PUSH1 0x60 PUSH1 0x20 DUP3 ADD MSTORE PUSH1 0x16 PUSH1 0x60 DUP3 ADD MSTORE PUSH22 0x494E53554646494349454E545F4C4951554944495459 PUSH1 0x50 SHL PUSH1 0x80 DUP3 ADD MSTORE TIMESTAMP PUSH1 0x40 DUP3 ADD MSTORE LOG1 JUMP JUMPDEST POP PUSH1 0xFF PUSH1 0x14 SLOAD AND ISZERO PUSH2 0x1F38 JUMP JUMPDEST PUSH1 0x7 SLOAD PUSH1 0x1 PUSH1 0x1 PUSH1 0xA0 SHL SUB AND DUP1 ISZERO PUSH2 0x19D6 JUMPI PUSH1 0x20 PUSH1 0x0 SWAP2 PUSH1 0x4 PUSH1 0x40 MLOAD DUP1 SWAP5 DUP2 SWAP4 PUSH4 0x27D16CE9 PUSH1 0xE1 SHL DUP4 MSTORE GAS CALL PUSH1 0x0 SWAP2 DUP2 PUSH2 0x20CF JUMPI JUMPDEST POP PUSH2 0x206E JUMPI POP JUMP JUMPDEST DUP1 PUSH2 0x2076 JUMPI POP JUMP JUMPDEST PUSH1 0x17 PUSH1 0x40 MLOAD PUSH32 0x46554E445F52454C41595F444953545249425554494F4E000000000000000000 DUP2 MSTORE KECCAK256 PUSH1 0x40 MLOAD SWAP2 DUP3 MSTORE ADDRESS SWAP2 PUSH32 0xDC0542397DE1D347EB80CBA6DCBA197E295E2516706EF1DD5A16D8AC5FB3EEDA PUSH1 0x20 ADDRESS SWAP3 LOG4 JUMP JUMPDEST SWAP1 SWAP2 PUSH1 0x20 DUP3 RETURNDATASIZE PUSH1 0x20 GT PUSH2 0x20FB JUMPI JUMPDEST DUP2 PUSH2 0x20EA PUSH1 0x20 SWAP4 DUP4 PUSH2 0x1763 JUMP JUMPDEST DUP2 ADD SUB SLT PUSH2 0x38B JUMPI POP MLOAD SWAP1 CODESIZE PUSH2 0x2066 JUMP JUMPDEST RETURNDATASIZE SWAP2 POP PUSH2 0x20DD JUMP JUMPDEST PUSH3 0x278D00 PUSH1 0x10 SSTORE PUSH32 0xDBEB6EC948F6EB874ECBD6117742652C35D57FBE578B778B77E677A06AF90B96 PUSH1 0x20 PUSH1 0x40 MLOAD PUSH3 0x278D00 DUP2 MSTORE LOG1 JUMP JUMPDEST PUSH1 0x1 PUSH1 0x1 PUSH1 0xA0 SHL SUB AND SWAP1 DUP2 ISZERO PUSH2 0x21B6 JUMPI PUSH1 0x1 PUSH1 0x1 PUSH1 0xA0 SHL SUB AND SWAP2 DUP3 ISZERO PUSH2 0x21A0 JUMPI PUSH1 0x20 PUSH32 0x8C5BE1E5EBEC7D5BD14F71427D1E84F3DD0314C0F7B2291E5B200AC8C7C3B925 SWAP2 DUP4 PUSH1 0x0 MSTORE PUSH1 0x1 DUP3 MSTORE PUSH1 0x40 PUSH1 0x0 KECCAK256 DUP6 PUSH1 0x0 MSTORE DUP3 MSTORE DUP1 PUSH1 0x40 PUSH1 0x0 KECCAK256 SSTORE PUSH1 0x40 MLOAD SWAP1 DUP2 MSTORE LOG3 JUMP JUMPDEST PUSH4 0x4A1406B1 PUSH1 0xE1 SHL PUSH1 0x0 MSTORE PUSH1 0x0 PUSH1 0x4 MSTORE PUSH1 0x24 PUSH1 0x0 REVERT JUMPDEST PUSH4 0xE602DF05 PUSH1 0xE0 SHL PUSH1 0x0 MSTORE PUSH1 0x0 PUSH1 0x4 MSTORE PUSH1 0x24 PUSH1 0x0 REVERT JUMPDEST PUSH1 0x1 PUSH1 0x1 PUSH1 0xA0 SHL SUB AND SWAP1 DUP2 PUSH2 0x2248 JUMPI PUSH1 0x20 PUSH32 0xDDF252AD1BE2C89B69C2B068FC378DAA952BA7F163C4A11628F55A4DF523B3EF SWAP2 PUSH2 0x220B DUP6 PUSH1 0x2 SLOAD PUSH2 0x18AF JUMP JUMPDEST PUSH1 0x2 SSTORE JUMPDEST PUSH1 0x1 PUSH1 0x1 PUSH1 0xA0 SHL SUB AND SWAP4 DUP5 PUSH2 0x2230 JUMPI DUP1 PUSH1 0x2 SLOAD SUB PUSH1 0x2 SSTORE JUMPDEST PUSH1 0x40 MLOAD SWAP1 DUP2 MSTORE LOG3 JUMP JUMPDEST DUP5 PUSH1 0x0 MSTORE PUSH1 0x0 DUP3 MSTORE PUSH1 0x40 PUSH1 0x0 KECCAK256 DUP2 DUP2 SLOAD ADD SWAP1 SSTORE PUSH2 0x2227 JUMP JUMPDEST DUP2 PUSH1 0x0 MSTORE PUSH1 0x0 PUSH1 0x20 MSTORE PUSH1 0x40 PUSH1 0x0 KECCAK256 SLOAD DUP4 DUP2 LT PUSH2 0x2298 JUMPI PUSH32 0xDDF252AD1BE2C89B69C2B068FC378DAA952BA7F163C4A11628F55A4DF523B3EF SWAP2 DUP5 PUSH1 0x20 SWAP3 DUP6 PUSH1 0x0 MSTORE PUSH1 0x0 DUP5 MSTORE SUB PUSH1 0x40 PUSH1 0x0 KECCAK256 SSTORE PUSH2 0x220F JUMP JUMPDEST SWAP2 SWAP1 POP PUSH4 0x391434E3 PUSH1 0xE2 SHL PUSH1 0x0 MSTORE PUSH1 0x4 MSTORE PUSH1 0x24 MSTORE PUSH1 0x44 MSTORE PUSH1 0x64 PUSH1 0x0 REVERT JUMPDEST PUSH1 0x6 SLOAD PUSH1 0x1 PUSH1 0x1 PUSH1 0xA0 SHL SUB SWAP1 DUP2 AND SWAP3 SWAP2 AND DUP3 SWAP1 SUB PUSH2 0x2322 JUMPI PUSH1 0x1 PUSH1 0x1 PUSH1 0xA0 SHL SUB AND DUP2 DUP2 EQ PUSH2 0x2322 JUMPI PUSH32 0x0 PUSH1 0x1 PUSH1 0x1 PUSH1 0xA0 SHL SUB AND EQ PUSH2 0x231C JUMPI CALLER SUB PUSH2 0x2317 JUMPI PUSH1 0x1 SWAP1 JUMP JUMPDEST PUSH1 0x0 SWAP1 JUMP JUMPDEST POP PUSH1 0x0 SWAP1 JUMP JUMPDEST POP POP PUSH1 0x0 SWAP1 JUMP JUMPDEST PUSH1 0x6 SLOAD PUSH1 0x1 PUSH1 0x1 PUSH1 0xA0 SHL SUB SWAP1 DUP2 AND SWAP3 AND DUP3 SWAP1 SUB PUSH2 0x2322 JUMPI PUSH1 0x1 PUSH1 0x1 PUSH1 0xA0 SHL SUB AND DUP2 DUP2 EQ PUSH2 0x2322 JUMPI PUSH32 0x0 PUSH1 0x1 PUSH1 0x1 PUSH1 0xA0 SHL SUB AND EQ PUSH2 0x231C JUMPI CALLER EQ PUSH2 0x2317 JUMPI PUSH1 0x1 SWAP1 JUMP JUMPDEST PUSH2 0x140 SWAP1 PUSH1 0x0 SWAP3 SWAP5 SWAP4 PUSH2 0x160 DUP3 ADD SWAP6 DUP3 MSTORE DUP4 PUSH1 0x20 DUP4 ADD MSTORE PUSH1 0x40 DUP3 ADD MSTORE DUP3 PUSH1 0x60 DUP3 ADD MSTORE DUP3 PUSH1 0x80 DUP3 ADD MSTORE DUP3 PUSH1 0xA0 DUP3 ADD MSTORE DUP3 PUSH1 0xC0 DUP3 ADD MSTORE DUP3 PUSH1 0xE0 DUP3 ADD MSTORE DUP3 PUSH2 0x100 DUP3 ADD MSTORE DUP3 PUSH2 0x120 DUP3 ADD MSTORE ADD MSTORE JUMP JUMPDEST PUSH1 0xC SLOAD DUP1 ISZERO PUSH2 0x231C JUMPI ADDRESS PUSH1 0x0 MSTORE PUSH1 0x0 PUSH1 0x20 MSTORE DUP1 PUSH1 0x40 PUSH1 0x0 KECCAK256 SLOAD LT PUSH2 0x231C JUMPI PUSH1 0x6 SLOAD PUSH1 0x40 MLOAD PUSH4 0x240BC6B PUSH1 0xE2 SHL DUP2 MSTORE SWAP1 PUSH1 0x1 PUSH1 0x1 PUSH1 0xA0 SHL SUB AND PUSH1 0x60 DUP3 PUSH1 0x4 DUP2 DUP5 GAS STATICCALL SWAP2 DUP3 PUSH1 0x0 SWAP2 PUSH1 0x0 SWAP5 PUSH2 0x25BE JUMPI JUMPDEST POP PUSH2 0x2432 JUMPI POP POP POP POP PUSH1 0x0 SWAP1 JUMP JUMPDEST PUSH1 0x40 MLOAD PUSH4 0xDFE1681 PUSH1 0xE0 SHL DUP2 MSTORE SWAP1 PUSH1 0x20 DUP3 PUSH1 0x4 DUP2 DUP7 GAS STATICCALL SWAP2 DUP3 ISZERO PUSH2 0x19E0 JUMPI PUSH1 0x0 SWAP3 PUSH2 0x259D JUMPI JUMPDEST POP PUSH1 0x1 PUSH1 0x1 PUSH1 0xA0 SHL SUB PUSH32 0x0 DUP2 AND SWAP3 AND DUP3 SUB PUSH2 0x2597 JUMPI SWAP3 SWAP1 JUMPDEST PUSH1 0x1 PUSH1 0x1 PUSH1 0xA0 SHL SUB DUP4 AND PUSH1 0x0 SWAP1 DUP2 MSTORE PUSH1 0x20 DUP2 DUP2 MSTORE PUSH1 0x40 SWAP1 SWAP2 KECCAK256 SLOAD SWAP4 PUSH1 0x24 PUSH1 0x40 MLOAD DUP1 SWAP5 DUP2 SWAP4 PUSH4 0x70A08231 PUSH1 0xE0 SHL DUP4 MSTORE PUSH1 0x4 DUP4 ADD MSTORE GAS STATICCALL SWAP1 DUP2 ISZERO PUSH2 0x19E0 JUMPI PUSH1 0x0 SWAP2 PUSH2 0x2565 JUMPI JUMPDEST POP PUSH1 0x1 PUSH1 0x1 PUSH1 0x70 SHL SUB DUP3 AND SWAP4 PUSH1 0x5F DUP6 MUL SWAP4 DUP6 ISZERO SWAP5 DUP7 DUP2 DIV PUSH1 0x5F EQ DUP7 OR ISZERO PUSH2 0x1899 JUMPI PUSH1 0x64 SWAP1 DIV GT PUSH2 0x255A JUMPI PUSH1 0x1 PUSH1 0x1 PUSH1 0x70 SHL SUB AND PUSH1 0x5F DUP2 MUL SWAP1 DUP1 DUP3 DIV PUSH1 0x5F EQ SWAP1 ISZERO OR ISZERO PUSH2 0x1899 JUMPI PUSH1 0x64 SWAP1 DIV GT PUSH2 0x2551 JUMPI PUSH15 0x1FFFFFFFFFFFFFFFFFFFFFFFFFFFE SWAP1 PUSH1 0x1 SHL AND SWAP2 DUP3 DIV PUSH1 0x2 EQ OR ISZERO PUSH2 0x1899 JUMPI PUSH1 0x64 SWAP1 DIV LT PUSH2 0x2317 JUMPI PUSH1 0x1 SWAP1 JUMP JUMPDEST POP POP POP POP PUSH1 0x0 SWAP1 JUMP JUMPDEST POP POP POP POP POP POP PUSH1 0x0 SWAP1 JUMP JUMPDEST SWAP1 POP PUSH1 0x20 DUP2 RETURNDATASIZE PUSH1 0x20 GT PUSH2 0x258F JUMPI JUMPDEST DUP2 PUSH2 0x2580 PUSH1 0x20 SWAP4 DUP4 PUSH2 0x1763 JUMP JUMPDEST DUP2 ADD SUB SLT PUSH2 0x16D3 JUMPI MLOAD CODESIZE PUSH2 0x24D3 JUMP JUMPDEST RETURNDATASIZE SWAP2 POP PUSH2 0x2573 JUMP JUMPDEST SWAP1 PUSH2 0x248F JUMP JUMPDEST PUSH2 0x25B7 SWAP2 SWAP3 POP PUSH1 0x20 RETURNDATASIZE PUSH1 0x20 GT PUSH2 0x1B23 JUMPI PUSH2 0x1B15 DUP2 DUP4 PUSH2 0x1763 JUMP JUMPDEST SWAP1 CODESIZE PUSH2 0x2458 JUMP JUMPDEST SWAP1 SWAP4 POP PUSH2 0x25DA SWAP2 POP PUSH1 0x60 RETURNDATASIZE PUSH1 0x60 GT PUSH2 0x1B5B JUMPI PUSH2 0x1B48 DUP2 DUP4 PUSH2 0x1763 JUMP JUMPDEST POP SWAP3 CODESIZE PUSH2 0x2424 JUMP JUMPDEST PUSH1 0xC SLOAD DUP1 ISZERO PUSH2 0x19D6 JUMPI PUSH1 0x0 PUSH1 0xC SSTORE PUSH1 0x1 PUSH1 0xFF NOT PUSH1 0x14 SLOAD AND OR PUSH1 0x14 SSTORE PUSH2 0x2606 DUP2 PUSH2 0x27B5 JUMP JUMPDEST SWAP1 PUSH1 0xFF NOT PUSH1 0x14 SLOAD AND PUSH1 0x14 SSTORE DUP2 ISZERO ISZERO DUP1 PUSH2 0x2729 JUMPI JUMPDEST PUSH2 0x269A JUMPI JUMPDEST PUSH1 0x1 DUP1 PUSH1 0xA0 SHL SUB PUSH1 0x9 SLOAD AND PUSH1 0x10 PUSH1 0x40 MLOAD PUSH16 0x414343554D554C415445445F46454553 PUSH1 0x80 SHL DUP2 MSTORE KECCAK256 SWAP3 PUSH1 0x40 MLOAD SWAP3 DUP4 MSTORE DUP1 PUSH1 0x20 DUP5 ADD MSTORE PUSH1 0x0 PUSH1 0x40 DUP5 ADD MSTORE PUSH1 0x60 DUP4 ADD MSTORE PUSH1 0x0 PUSH1 0x80 DUP4 ADD MSTORE PUSH1 0x0 PUSH1 0xA0 DUP4 ADD MSTORE PUSH1 0xC0 DUP3 ADD MSTORE PUSH32 0x86E133FBF1E40A6A97B6C78D78538F95F9C3B84EC08E1A53EB43FB050D9ACB94 PUSH1 0xE0 TIMESTAMP SWAP3 LOG3 JUMP JUMPDEST PUSH1 0x9 SLOAD PUSH1 0x40 MLOAD PUSH4 0xA9059CBB PUSH1 0xE0 SHL DUP2 MSTORE PUSH1 0x1 PUSH1 0x1 PUSH1 0xA0 SHL SUB SWAP1 SWAP2 AND PUSH1 0x4 DUP3 ADD MSTORE PUSH1 0x24 DUP2 ADD DUP4 SWAP1 MSTORE PUSH1 0x20 DUP2 DUP1 PUSH1 0x44 DUP2 ADD SUB DUP2 PUSH1 0x0 PUSH32 0x0 PUSH1 0x1 PUSH1 0x1 PUSH1 0xA0 SHL SUB AND GAS CALL DUP1 ISZERO PUSH2 0x19E0 JUMPI PUSH2 0x270A JUMPI JUMPDEST POP PUSH2 0x261F JUMP JUMPDEST PUSH2 0x2722 SWAP1 PUSH1 0x20 RETURNDATASIZE PUSH1 0x20 GT PUSH2 0x19D9 JUMPI PUSH2 0x19CE DUP2 DUP4 PUSH2 0x1763 JUMP JUMPDEST POP CODESIZE PUSH2 0x2704 JUMP JUMPDEST POP PUSH1 0x9 SLOAD PUSH1 0x1 PUSH1 0x1 PUSH1 0xA0 SHL SUB AND ISZERO ISZERO PUSH2 0x261A JUMP JUMPDEST PUSH1 0x0 PUSH1 0x44 RETURNDATASIZE LT PUSH2 0x27A4 JUMPI PUSH1 0x40 MLOAD RETURNDATASIZE PUSH1 0x3 NOT ADD PUSH1 0x4 DUP3 RETURNDATACOPY DUP1 MLOAD SWAP2 RETURNDATASIZE PUSH1 0x24 DUP5 ADD GT PUSH8 0xFFFFFFFFFFFFFFFF DUP5 GT OR PUSH2 0x27AF JUMPI DUP3 DUP3 ADD SWAP3 DUP4 MLOAD SWAP2 PUSH8 0xFFFFFFFFFFFFFFFF DUP4 GT PUSH2 0x27A7 JUMPI RETURNDATASIZE DUP5 ADD PUSH1 0x3 NOT ADD DUP6 DUP5 ADD PUSH1 0x20 ADD GT PUSH2 0x27A7 JUMPI POP PUSH2 0x27A4 SWAP3 SWAP2 ADD PUSH1 0x20 ADD SWAP1 PUSH2 0x1763 JUMP JUMPDEST SWAP1 JUMP JUMPDEST SWAP5 SWAP4 POP POP POP POP JUMP JUMPDEST SWAP3 SWAP2 POP POP JUMP JUMPDEST PUSH1 0x0 SWAP1 DUP1 ISZERO DUP1 ISZERO PUSH2 0x2CA7 JUMPI JUMPDEST PUSH2 0x2CA3 JUMPI PUSH1 0x60 PUSH1 0x40 MLOAD PUSH2 0x27D4 DUP3 DUP3 PUSH2 0x1763 JUMP JUMPDEST PUSH1 0x2 DUP2 MSTORE PUSH1 0x20 DUP2 ADD PUSH1 0x1F NOT DUP4 ADD CALLDATASIZE DUP3 CALLDATACOPY DUP2 MLOAD ISZERO PUSH2 0x2C8F JUMPI ADDRESS DUP2 MSTORE DUP2 MLOAD PUSH1 0x1 LT ISZERO PUSH2 0x2C8F JUMPI PUSH1 0x1 PUSH1 0x1 PUSH1 0xA0 SHL SUB PUSH32 0x0 DUP2 AND PUSH1 0x40 DUP5 ADD DUP2 SWAP1 MSTORE SWAP3 SWAP1 PUSH32 0x0 AND PUSH2 0x2859 DUP7 DUP3 ADDRESS PUSH2 0x2139 JUMP JUMPDEST PUSH1 0x7 SLOAD PUSH1 0x1 PUSH1 0x1 PUSH1 0xA0 SHL SUB AND DUP1 ISZERO PUSH2 0x2C87 JUMPI SWAP3 JUMPDEST PUSH1 0x40 MLOAD PUSH4 0x70A08231 PUSH1 0xE0 SHL DUP2 MSTORE ADDRESS PUSH1 0x4 DUP3 ADD MSTORE SWAP4 PUSH1 0x20 DUP6 PUSH1 0x24 DUP2 DUP10 GAS STATICCALL SWAP5 DUP6 ISZERO PUSH2 0x2C7C JUMPI DUP10 SWAP6 PUSH2 0x2C44 JUMPI JUMPDEST POP PUSH2 0x12C TIMESTAMP ADD SWAP1 DUP2 TIMESTAMP GT PUSH2 0x2C30 JUMPI DUP4 EXTCODESIZE ISZERO PUSH2 0x2C2C JUMPI SWAP4 SWAP2 DUP10 SWAP4 SWAP2 PUSH1 0x40 MLOAD SWAP6 DUP7 SWAP5 PUSH4 0x5C11D795 PUSH1 0xE0 SHL DUP7 MSTORE PUSH1 0xA4 DUP7 ADD SWAP1 DUP13 PUSH1 0x4 DUP9 ADD MSTORE DUP8 PUSH1 0x24 DUP9 ADD MSTORE PUSH1 0xA0 PUSH1 0x44 DUP9 ADD MSTORE MLOAD DUP1 SWAP2 MSTORE PUSH1 0xC4 DUP7 ADD SWAP4 SWAP1 DUP8 JUMPDEST DUP2 DUP2 LT PUSH2 0x2C07 JUMPI POP POP POP PUSH1 0x1 PUSH1 0x1 PUSH1 0xA0 SHL SUB AND PUSH1 0x64 DUP6 ADD MSTORE PUSH1 0x84 DUP5 ADD MSTORE DUP3 SWAP1 SUB SWAP1 DUP3 SWAP1 DUP5 SWAP1 GAS CALL SWAP1 DUP2 PUSH2 0x2BF3 JUMPI JUMPDEST POP PUSH2 0x29D7 JUMPI POP POP SWAP1 PUSH32 0x23710C5E610526DF3C632BC797FB4914964991CC07E128EE2AF743AEED319E06 SWAP2 DUP4 PUSH1 0x3 RETURNDATASIZE GT PUSH2 0x29C7 JUMPI JUMPDEST PUSH4 0x8C379A0 EQ PUSH2 0x298C JUMPI JUMPDEST PUSH1 0xA0 SWAP2 PUSH1 0x12 PUSH1 0x40 MLOAD SWAP3 DUP1 DUP5 MSTORE DUP4 ADD MSTORE PUSH18 0x2AB735B737BBB71039BBB0B81032B93937B9 PUSH1 0x71 SHL PUSH1 0x80 DUP4 ADD MSTORE PUSH1 0x20 DUP3 ADD MSTORE TIMESTAMP PUSH1 0x40 DUP3 ADD MSTORE LOG1 SWAP1 JUMP JUMPDEST PUSH2 0x2994 PUSH2 0x273D JUMP JUMPDEST SWAP2 DUP3 PUSH2 0x29A1 JUMPI SWAP2 POP PUSH2 0x2953 JUMP JUMPDEST PUSH2 0x29B5 PUSH1 0x40 MLOAD SWAP4 DUP4 DUP6 SWAP5 DUP6 MSTORE DUP5 ADD SWAP1 PUSH2 0x16D8 JUMP JUMPDEST SWAP1 PUSH1 0x20 DUP4 ADD MSTORE TIMESTAMP PUSH1 0x40 DUP4 ADD MSTORE SUB SWAP1 LOG1 SWAP1 JUMP JUMPDEST POP PUSH1 0x4 DUP5 DUP1 RETURNDATACOPY DUP4 MLOAD PUSH1 0xE0 SHR PUSH2 0x2948 JUMP JUMPDEST PUSH1 0x7 SLOAD PUSH1 0x1 PUSH1 0x1 PUSH1 0xA0 SHL SUB AND SWAP2 DUP3 ISZERO PUSH2 0x2AF4 JUMPI POP POP PUSH1 0x20 DUP5 SWAP2 PUSH1 0x4 PUSH1 0x40 MLOAD DUP1 SWAP8 DUP2 SWAP4 PUSH4 0x27D16CE9 PUSH1 0xE1 SHL DUP4 MSTORE GAS CALL SWAP4 DUP5 ISZERO PUSH2 0x565 JUMPI DUP2 SWAP5 PUSH2 0x2AC0 JUMPI JUMPDEST POP DUP4 ISZERO PUSH2 0x2A21 JUMPI JUMPDEST POP POP POP SWAP1 JUMP JUMPDEST PUSH32 0x23710C5E610526DF3C632BC797FB4914964991CC07E128EE2AF743AEED319E06 PUSH1 0xA0 PUSH32 0x163A4024B77F02BFAB6D1E18C917F413DC151008CF420BF1E0309F0CF8D7B1FA SWAP5 PUSH1 0x40 MLOAD SWAP1 DUP6 DUP3 MSTORE PUSH1 0x19 DUP7 DUP4 ADD MSTORE PUSH32 0x46756E6452656C6179207472616E73666572206661696C656400000000000000 PUSH1 0x80 DUP4 ADD MSTORE PUSH1 0x20 DUP3 ADD MSTORE TIMESTAMP PUSH1 0x40 DUP3 ADD MSTORE LOG1 PUSH1 0x40 MLOAD SWAP1 DUP1 DUP3 MSTORE PUSH1 0x20 DUP3 ADD MSTORE TIMESTAMP PUSH1 0x40 DUP3 ADD MSTORE LOG1 CODESIZE DUP1 DUP1 PUSH2 0x2A1B JUMP JUMPDEST SWAP1 SWAP4 POP PUSH1 0x20 DUP2 RETURNDATASIZE PUSH1 0x20 GT PUSH2 0x2AEC JUMPI JUMPDEST DUP2 PUSH2 0x2ADC PUSH1 0x20 SWAP4 DUP4 PUSH2 0x1763 JUMP JUMPDEST DUP2 ADD SUB SLT PUSH2 0x16D3 JUMPI MLOAD SWAP3 CODESIZE PUSH2 0x2A13 JUMP JUMPDEST RETURNDATASIZE SWAP2 POP PUSH2 0x2ACF JUMP JUMPDEST PUSH1 0x40 MLOAD PUSH4 0x70A08231 PUSH1 0xE0 SHL DUP2 MSTORE ADDRESS PUSH1 0x4 DUP3 ADD MSTORE SWAP5 SWAP6 SWAP4 SWAP5 SWAP2 SWAP3 POP PUSH1 0x20 SWAP1 DUP3 SWAP1 PUSH1 0x24 SWAP1 DUP3 SWAP1 GAS STATICCALL SWAP1 DUP2 ISZERO PUSH2 0x2BE8 JUMPI DUP4 SWAP2 PUSH2 0x2BB6 JUMPI JUMPDEST POP DUP2 DUP2 GT ISZERO PUSH2 0x2BAE JUMPI PUSH2 0x2B3B SWAP3 POP PUSH2 0x1B62 JUMP JUMPDEST SWAP2 JUMPDEST DUP3 ISZERO PUSH2 0x2B48 JUMPI POP POP SWAP1 JUMP JUMPDEST PUSH32 0x23710C5E610526DF3C632BC797FB4914964991CC07E128EE2AF743AEED319E06 SWAP2 PUSH1 0xA0 SWAP2 PUSH1 0x1E PUSH1 0x40 MLOAD SWAP3 DUP1 DUP5 MSTORE DUP4 ADD MSTORE PUSH32 0x44697265637420737761702072657475726E6564207A65726F20555344540000 PUSH1 0x80 DUP4 ADD MSTORE PUSH1 0x20 DUP3 ADD MSTORE TIMESTAMP PUSH1 0x40 DUP3 ADD MSTORE LOG1 SWAP1 JUMP JUMPDEST POP POP SWAP2 PUSH2 0x2B3D JUMP JUMPDEST SWAP1 POP PUSH1 0x20 DUP2 RETURNDATASIZE PUSH1 0x20 GT PUSH2 0x2BE0 JUMPI JUMPDEST DUP2 PUSH2 0x2BD1 PUSH1 0x20 SWAP4 DUP4 PUSH2 0x1763 JUMP JUMPDEST DUP2 ADD SUB SLT PUSH2 0x16D3 JUMPI MLOAD CODESIZE PUSH2 0x2B28 JUMP JUMPDEST RETURNDATASIZE SWAP2 POP PUSH2 0x2BC4 JUMP JUMPDEST PUSH1 0x40 MLOAD RETURNDATASIZE DUP6 DUP3 RETURNDATACOPY RETURNDATASIZE SWAP1 REVERT JUMPDEST DUP7 PUSH2 0x2C00 SWAP2 SWAP8 SWAP3 SWAP8 PUSH2 0x1763 JUMP JUMPDEST SWAP5 CODESIZE PUSH2 0x2914 JUMP JUMPDEST DUP3 MLOAD PUSH1 0x1 PUSH1 0x1 PUSH1 0xA0 SHL SUB AND DUP7 MSTORE DUP15 SWAP9 POP DUP10 SWAP8 POP PUSH1 0x20 SWAP6 DUP7 ADD SWAP6 SWAP1 SWAP3 ADD SWAP2 PUSH1 0x1 ADD PUSH2 0x28E6 JUMP JUMPDEST DUP10 DUP1 REVERT JUMPDEST PUSH4 0x4E487B71 PUSH1 0xE0 SHL DUP11 MSTORE PUSH1 0x11 PUSH1 0x4 MSTORE PUSH1 0x24 DUP11 REVERT JUMPDEST SWAP1 SWAP5 POP PUSH1 0x20 DUP2 RETURNDATASIZE PUSH1 0x20 GT PUSH2 0x2C74 JUMPI JUMPDEST DUP2 PUSH2 0x2C60 PUSH1 0x20 SWAP4 DUP4 PUSH2 0x1763 JUMP JUMPDEST DUP2 ADD SUB SLT PUSH2 0x2C70 JUMPI MLOAD SWAP4 CODESIZE PUSH2 0x2898 JUMP JUMPDEST DUP9 DUP1 REVERT JUMPDEST RETURNDATASIZE SWAP2 POP PUSH2 0x2C53 JUMP JUMPDEST PUSH1 0x40 MLOAD RETURNDATASIZE DUP12 DUP3 RETURNDATACOPY RETURNDATASIZE SWAP1 REVERT JUMPDEST POP ADDRESS SWAP3 PUSH2 0x286D JUMP JUMPDEST PUSH4 0x4E487B71 PUSH1 0xE0 SHL DUP6 MSTORE PUSH1 0x32 PUSH1 0x4 MSTORE PUSH1 0x24 DUP6 REVERT JUMPDEST POP SWAP1 JUMP JUMPDEST POP ADDRESS DUP3 MSTORE DUP2 PUSH1 0x20 MSTORE DUP1 PUSH1 0x40 DUP4 KECCAK256 SLOAD LT PUSH2 0x27C1 JUMP INVALID LOG2 PUSH5 0x6970667358 0x22 SLT KECCAK256 0xC0 PUSH5 0xB13E46FD70 SWAP4 0xAF MSIZE 0xB7 0x22 0xC6 EXP 0xAE DUP14 BASEFEE 0xF7 SELFBALANCE PUSH9 0x382BD930CB4BB2E11 0xD9 0xCF SAR PUSH5 0x736F6C6343 STOP ADDMOD SHR STOP CALLER "},"methodIdentifiers":{"DEAD_ADDRESS()":"4e6fd6c4","USDT()":"c54e44eb","allowance(address,address)":"dd62ed3e","amountLPFee()":"9315e561","amountMarketingFee()":"66d57b95","approve(address,uint256)":"095ea7b3","balanceOf(address)":"70a08231","blacklisted(address)":"dbac26e9","coldTime()":"36543fb9","contractDeployTime()":"9f54790d","decimals()":"313ce567","delayedBuyEnabled()":"43a066aa","delayedBuyEnabledTime()":"d4273cd6","feeWhitelisted(address)":"569ea101","fundRelay()":"7464024c","getAccumulatedFees()":"5df45a37","getAmountIn(uint256,uint256,uint256)":"85f8c259","getAmountOut(uint256,uint256,uint256)":"054d50d4","getDelayedBuyInfo()":"ff919151","getDelayedSwapStatus()":"570475dc","getFundRelay()":"a4823059","getPresaleStatus()":"d7517caa","getUSDTReserve()":"d123de31","getUniswapV2Pair()":"1abfa629","getUserInvestment(address)":"32f65881","initializeWhitelist()":"2927bacd","isContract(address)":"16279055","isDelayedBuyPeriodMet(address)":"87894d03","lastBuyTime(address)":"3fecc2e2","liquidityThreshold()":"c9688086","marketingAddress()":"a5ece941","name()":"06fdde03","nodeDividendAddress()":"615c4409","owner()":"8da5cb5b","presaleActive()":"53135ca0","presaleDuration()":"5868c32a","presaleStartTime()":"a82524b2","recoverStuckTokens(address,uint256)":"c596f3fe","recycle(uint256)":"dd1c35bc","renounceOwnership()":"715018a6","rootAddress()":"aaa2b8c8","setBatchBlacklisted(address[],bool)":"861bd3c5","setBatchFeeWhitelisted(address[],bool)":"90e82f24","setBlacklisted(address,bool)":"d01dd6d2","setColdTime(uint256)":"622e6ad8","setDelayedBuyEnabled(bool)":"af24ccaa","setFeeWhitelisted(address,bool)":"b99ce15e","setFundRelay(address)":"21e2c957","setLiquidityThreshold(uint256)":"4baf59f3","setMarketingAddress(address)":"906e9dd0","setNodeDividendAddress(address)":"3c19814e","setPair(address)":"8187f516","setPresaleActive(bool)":"3f8121a2","setPresaleDuration()":"fdc0cdbf","setSwapAtAmount(uint256)":"6402511e","staking()":"4cf088d9","swapAtAmount()":"86917524","symbol()":"95d89b41","totalSupply()":"18160ddd","transfer(address,uint256)":"a9059cbb","transferFrom(address,address,uint256)":"23b872dd","transferOwnership(address)":"f2fde38b","triggerFeeProcessing()":"38a674c5","triggerFundRelayDistribution()":"52795e0b","uniswapV2Pair()":"49bd5a5e","uniswapV2Router()":"1694505e","userInvestment(address)":"8733cfd3"}}}}}