{
  "_format": "hh-sol-artifact-1",
  "contractName": "OLA",
  "sourceName": "contracts/OLA.sol",
  "abi": [
    {
      "inputs": [
        {
          "internalType": "address",
          "name": "_usdt",
          "type": "address"
        },
        {
          "internalType": "address",
          "name": "_router",
          "type": "address"
        },
        {
          "internalType": "address",
          "name": "_staking",
          "type": "address"
        },
        {
          "internalType": "address",
          "name": "_marketingAddress",
          "type": "address"
        }
      ],
      "stateMutability": "nonpayable",
      "type": "constructor"
    },
    {
      "inputs": [],
      "name": "AlreadyInitialized",
      "type": "error"
    },
    {
      "inputs": [],
      "name": "AlreadySet",
      "type": "error"
    },
    {
      "inputs": [],
      "name": "Blacklisted",
      "type": "error"
    },
    {
      "inputs": [],
      "name": "DelayedBuyPeriodNotMet",
      "type": "error"
    },
    {
      "inputs": [
        {
          "internalType": "address",
          "name": "spender",
          "type": "address"
        },
        {
          "internalType": "uint256",
          "name": "allowance",
          "type": "uint256"
        },
        {
          "internalType": "uint256",
          "name": "needed",
          "type": "uint256"
        }
      ],
      "name": "ERC20InsufficientAllowance",
      "type": "error"
    },
    {
      "inputs": [
        {
          "internalType": "address",
          "name": "sender",
          "type": "address"
        },
        {
          "internalType": "uint256",
          "name": "balance",
          "type": "uint256"
        },
        {
          "internalType": "uint256",
          "name": "needed",
          "type": "uint256"
        }
      ],
      "name": "ERC20InsufficientBalance",
      "type": "error"
    },
    {
      "inputs": [
        {
          "internalType": "address",
          "name": "approver",
          "type": "address"
        }
      ],
      "name": "ERC20InvalidApprover",
      "type": "error"
    },
    {
      "inputs": [
        {
          "internalType": "address",
          "name": "receiver",
          "type": "address"
        }
      ],
      "name": "ERC20InvalidReceiver",
      "type": "error"
    },
    {
      "inputs": [
        {
          "internalType": "address",
          "name": "sender",
          "type": "address"
        }
      ],
      "name": "ERC20InvalidSender",
      "type": "error"
    },
    {
      "inputs": [
        {
          "internalType": "address",
          "name": "spender",
          "type": "address"
        }
      ],
      "name": "ERC20InvalidSpender",
      "type": "error"
    },
    {
      "inputs": [],
      "name": "InColdPeriod",
      "type": "error"
    },
    {
      "inputs": [],
      "name": "InsufficientBalance",
      "type": "error"
    },
    {
      "inputs": [],
      "name": "NotAllowedBuy",
      "type": "error"
    },
    {
      "inputs": [
        {
          "internalType": "address",
          "name": "owner",
          "type": "address"
        }
      ],
      "name": "OwnableInvalidOwner",
      "type": "error"
    },
    {
      "inputs": [
        {
          "internalType": "address",
          "name": "account",
          "type": "address"
        }
      ],
      "name": "OwnableUnauthorizedAccount",
      "type": "error"
    },
    {
      "inputs": [],
      "name": "ZeroAddress",
      "type": "error"
    },
    {
      "anonymous": false,
      "inputs": [
        {
          "indexed": true,
          "internalType": "address",
          "name": "owner",
          "type": "address"
        },
        {
          "indexed": true,
          "internalType": "address",
          "name": "spender",
          "type": "address"
        },
        {
          "indexed": false,
          "internalType": "uint256",
          "name": "value",
          "type": "uint256"
        }
      ],
      "name": "Approval",
      "type": "event"
    },
    {
      "anonymous": false,
      "inputs": [
        {
          "indexed": false,
          "internalType": "uint256",
          "name": "marketingFee",
          "type": "uint256"
        },
        {
          "indexed": false,
          "internalType": "uint256",
          "name": "lpFee",
          "type": "uint256"
        },
        {
          "indexed": false,
          "internalType": "string",
          "name": "trigger",
          "type": "string"
        }
      ],
      "name": "AutoSwapTriggered",
      "type": "event"
    },
    {
      "anonymous": false,
      "inputs": [
        {
          "indexed": false,
          "internalType": "bool",
          "name": "enabled",
          "type": "bool"
        }
      ],
      "name": "DelayedBuyEnabled",
      "type": "event"
    },
    {
      "anonymous": false,
      "inputs": [
        {
          "indexed": false,
          "internalType": "uint256",
          "name": "newPeriod",
          "type": "uint256"
        }
      ],
      "name": "DelayedBuyPeriodUpdated",
      "type": "event"
    },
    {
      "anonymous": false,
      "inputs": [
        {
          "indexed": true,
          "internalType": "address",
          "name": "user",
          "type": "address"
        },
        {
          "indexed": false,
          "internalType": "uint256",
          "name": "amount",
          "type": "uint256"
        },
        {
          "indexed": true,
          "internalType": "string",
          "name": "category",
          "type": "string"
        },
        {
          "indexed": true,
          "internalType": "address",
          "name": "recipient",
          "type": "address"
        }
      ],
      "name": "FeeCollected",
      "type": "event"
    },
    {
      "anonymous": false,
      "inputs": [
        {
          "indexed": false,
          "internalType": "uint256",
          "name": "totalFees",
          "type": "uint256"
        },
        {
          "indexed": false,
          "internalType": "string",
          "name": "reason",
          "type": "string"
        },
        {
          "indexed": false,
          "internalType": "uint256",
          "name": "timestamp",
          "type": "uint256"
        }
      ],
      "name": "FeeProcessingSkipped",
      "type": "event"
    },
    {
      "anonymous": false,
      "inputs": [
        {
          "indexed": false,
          "internalType": "uint256",
          "name": "totalFees",
          "type": "uint256"
        },
        {
          "indexed": true,
          "internalType": "address",
          "name": "triggeredBy",
          "type": "address"
        },
        {
          "indexed": false,
          "internalType": "string",
          "name": "triggerType",
          "type": "string"
        },
        {
          "indexed": false,
          "internalType": "uint256",
          "name": "timestamp",
          "type": "uint256"
        }
      ],
      "name": "FeeProcessingTriggered",
      "type": "event"
    },
    {
      "anonymous": false,
      "inputs": [
        {
          "indexed": false,
          "internalType": "string",
          "name": "feeType",
          "type": "string"
        },
        {
          "indexed": false,
          "internalType": "uint256",
          "name": "amount",
          "type": "uint256"
        },
        {
          "indexed": false,
          "internalType": "uint256",
          "name": "totalAccumulated",
          "type": "uint256"
        }
      ],
      "name": "FeesAccumulated",
      "type": "event"
    },
    {
      "anonymous": false,
      "inputs": [
        {
          "indexed": true,
          "internalType": "uint256",
          "name": "timestamp",
          "type": "uint256"
        },
        {
          "indexed": true,
          "internalType": "string",
          "name": "processType",
          "type": "string"
        },
        {
          "indexed": false,
          "internalType": "uint256",
          "name": "totalFeesXF",
          "type": "uint256"
        },
        {
          "indexed": false,
          "internalType": "uint256",
          "name": "totalFeesUSDT",
          "type": "uint256"
        },
        {
          "indexed": false,
          "internalType": "uint256",
          "name": "lpAmount",
          "type": "uint256"
        },
        {
          "indexed": false,
          "internalType": "uint256",
          "name": "marketingAmount",
          "type": "uint256"
        },
        {
          "indexed": false,
          "internalType": "uint256",
          "name": "burnAmount",
          "type": "uint256"
        },
        {
          "indexed": false,
          "internalType": "address",
          "name": "lpRecipient",
          "type": "address"
        },
        {
          "indexed": false,
          "internalType": "address",
          "name": "marketingRecipient",
          "type": "address"
        }
      ],
      "name": "FeesProcessed",
      "type": "event"
    },
    {
      "anonymous": false,
      "inputs": [
        {
          "indexed": false,
          "internalType": "uint256",
          "name": "expectedAmount",
          "type": "uint256"
        },
        {
          "indexed": false,
          "internalType": "uint256",
          "name": "actualAmount",
          "type": "uint256"
        },
        {
          "indexed": false,
          "internalType": "uint256",
          "name": "timestamp",
          "type": "uint256"
        }
      ],
      "name": "FundRelayTransferFailed",
      "type": "event"
    },
    {
      "anonymous": false,
      "inputs": [
        {
          "indexed": true,
          "internalType": "address",
          "name": "user",
          "type": "address"
        },
        {
          "indexed": true,
          "internalType": "uint256",
          "name": "timestamp",
          "type": "uint256"
        },
        {
          "indexed": false,
          "internalType": "uint256",
          "name": "previousInvestment",
          "type": "uint256"
        },
        {
          "indexed": false,
          "internalType": "uint256",
          "name": "newInvestment",
          "type": "uint256"
        },
        {
          "indexed": false,
          "internalType": "uint256",
          "name": "changeAmount",
          "type": "uint256"
        },
        {
          "indexed": false,
          "internalType": "string",
          "name": "changeType",
          "type": "string"
        }
      ],
      "name": "InvestmentUpdated",
      "type": "event"
    },
    {
      "anonymous": false,
      "inputs": [
        {
          "indexed": true,
          "internalType": "uint256",
          "name": "timestamp",
          "type": "uint256"
        },
        {
          "indexed": false,
          "internalType": "uint256",
          "name": "regularFeesXF",
          "type": "uint256"
        },
        {
          "indexed": false,
          "internalType": "uint256",
          "name": "regularFeesUSDT",
          "type": "uint256"
        },
        {
          "indexed": false,
          "internalType": "address",
          "name": "liquidityStakingContract",
          "type": "address"
        },
        {
          "indexed": false,
          "internalType": "string",
          "name": "source",
          "type": "string"
        }
      ],
      "name": "LPDistribution",
      "type": "event"
    },
    {
      "anonymous": false,
      "inputs": [
        {
          "indexed": false,
          "internalType": "uint256",
          "name": "amount",
          "type": "uint256"
        }
      ],
      "name": "LPRewardDeposited",
      "type": "event"
    },
    {
      "anonymous": false,
      "inputs": [
        {
          "indexed": false,
          "internalType": "uint256",
          "name": "tokenAmount",
          "type": "uint256"
        },
        {
          "indexed": false,
          "internalType": "uint256",
          "name": "usdtAmount",
          "type": "uint256"
        }
      ],
      "name": "LiquidityAdded",
      "type": "event"
    },
    {
      "anonymous": false,
      "inputs": [
        {
          "indexed": true,
          "internalType": "address",
          "name": "from",
          "type": "address"
        },
        {
          "indexed": true,
          "internalType": "address",
          "name": "to",
          "type": "address"
        },
        {
          "indexed": false,
          "internalType": "uint256",
          "name": "feeAmount",
          "type": "uint256"
        },
        {
          "indexed": false,
          "internalType": "uint256",
          "name": "netAmount",
          "type": "uint256"
        },
        {
          "indexed": false,
          "internalType": "string",
          "name": "operationType",
          "type": "string"
        }
      ],
      "name": "LiquidityHandleFeeCollected",
      "type": "event"
    },
    {
      "anonymous": false,
      "inputs": [
        {
          "indexed": true,
          "internalType": "address",
          "name": "oldAddress",
          "type": "address"
        },
        {
          "indexed": true,
          "internalType": "address",
          "name": "newAddress",
          "type": "address"
        }
      ],
      "name": "MarketingAddressUpdated",
      "type": "event"
    },
    {
      "anonymous": false,
      "inputs": [
        {
          "indexed": false,
          "internalType": "uint256",
          "name": "timestamp",
          "type": "uint256"
        },
        {
          "indexed": false,
          "internalType": "uint256",
          "name": "tokenAmount",
          "type": "uint256"
        },
        {
          "indexed": false,
          "internalType": "uint256",
          "name": "usdtAmount",
          "type": "uint256"
        },
        {
          "indexed": false,
          "internalType": "uint256",
          "name": "rewardIndex",
          "type": "uint256"
        },
        {
          "indexed": true,
          "internalType": "address",
          "name": "recipient",
          "type": "address"
        },
        {
          "indexed": false,
          "internalType": "string",
          "name": "distributionType",
          "type": "string"
        }
      ],
      "name": "MarketingDistribution",
      "type": "event"
    },
    {
      "anonymous": false,
      "inputs": [
        {
          "indexed": true,
          "internalType": "address",
          "name": "seller",
          "type": "address"
        },
        {
          "indexed": true,
          "internalType": "uint256",
          "name": "timestamp",
          "type": "uint256"
        },
        {
          "indexed": false,
          "internalType": "uint256",
          "name": "feeAmountXF",
          "type": "uint256"
        },
        {
          "indexed": false,
          "internalType": "uint256",
          "name": "feeAmountUSDT",
          "type": "uint256"
        },
        {
          "indexed": false,
          "internalType": "uint256",
          "name": "saleValueUSDT",
          "type": "uint256"
        },
        {
          "indexed": false,
          "internalType": "uint256",
          "name": "userInvestmentUSDT",
          "type": "uint256"
        }
      ],
      "name": "NoProfitFeeCollected",
      "type": "event"
    },
    {
      "anonymous": false,
      "inputs": [
        {
          "indexed": true,
          "internalType": "address",
          "name": "previousOwner",
          "type": "address"
        },
        {
          "indexed": true,
          "internalType": "address",
          "name": "newOwner",
          "type": "address"
        }
      ],
      "name": "OwnershipTransferred",
      "type": "event"
    },
    {
      "anonymous": false,
      "inputs": [
        {
          "indexed": false,
          "internalType": "uint256",
          "name": "newDuration",
          "type": "uint256"
        }
      ],
      "name": "PresaleDurationUpdated",
      "type": "event"
    },
    {
      "anonymous": false,
      "inputs": [
        {
          "indexed": false,
          "internalType": "bool",
          "name": "active",
          "type": "bool"
        }
      ],
      "name": "PresaleStatusUpdated",
      "type": "event"
    },
    {
      "anonymous": false,
      "inputs": [
        {
          "indexed": true,
          "internalType": "address",
          "name": "seller",
          "type": "address"
        },
        {
          "indexed": true,
          "internalType": "uint256",
          "name": "timestamp",
          "type": "uint256"
        },
        {
          "indexed": false,
          "internalType": "uint256",
          "name": "originalXFAmount",
          "type": "uint256"
        },
        {
          "indexed": false,
          "internalType": "uint256",
          "name": "tradingFeeXF",
          "type": "uint256"
        },
        {
          "indexed": false,
          "internalType": "uint256",
          "name": "marketingFeeXF",
          "type": "uint256"
        },
        {
          "indexed": false,
          "internalType": "uint256",
          "name": "lpFeeXF",
          "type": "uint256"
        },
        {
          "indexed": false,
          "internalType": "uint256",
          "name": "netXFAfterTradingFees",
          "type": "uint256"
        },
        {
          "indexed": false,
          "internalType": "uint256",
          "name": "estimatedUSDTFromSale",
          "type": "uint256"
        },
        {
          "indexed": false,
          "internalType": "uint256",
          "name": "userHistoricalInvestment",
          "type": "uint256"
        },
        {
          "indexed": false,
          "internalType": "uint256",
          "name": "totalProfitAmount",
          "type": "uint256"
        },
        {
          "indexed": false,
          "internalType": "uint256",
          "name": "profitTaxUSDT",
          "type": "uint256"
        },
        {
          "indexed": false,
          "internalType": "uint256",
          "name": "noProfitFeeUSDT",
          "type": "uint256"
        },
        {
          "indexed": false,
          "internalType": "uint256",
          "name": "profitTaxToMarketing",
          "type": "uint256"
        },
        {
          "indexed": false,
          "internalType": "uint256",
          "name": "profitTaxToReferrer",
          "type": "uint256"
        },
        {
          "indexed": false,
          "internalType": "uint256",
          "name": "userNetProfitUSDT",
          "type": "uint256"
        },
        {
          "indexed": false,
          "internalType": "uint256",
          "name": "finalUSDTReceived",
          "type": "uint256"
        },
        {
          "indexed": false,
          "internalType": "address",
          "name": "referrer",
          "type": "address"
        }
      ],
      "name": "SellTransaction",
      "type": "event"
    },
    {
      "anonymous": false,
      "inputs": [
        {
          "indexed": false,
          "internalType": "string",
          "name": "reason",
          "type": "string"
        },
        {
          "indexed": false,
          "internalType": "uint256",
          "name": "tokenAmount",
          "type": "uint256"
        },
        {
          "indexed": false,
          "internalType": "uint256",
          "name": "timestamp",
          "type": "uint256"
        }
      ],
      "name": "SwapFailed",
      "type": "event"
    },
    {
      "anonymous": false,
      "inputs": [
        {
          "indexed": false,
          "internalType": "uint256",
          "name": "amount",
          "type": "uint256"
        }
      ],
      "name": "TokensBurned",
      "type": "event"
    },
    {
      "anonymous": false,
      "inputs": [
        {
          "indexed": true,
          "internalType": "address",
          "name": "user",
          "type": "address"
        },
        {
          "indexed": true,
          "internalType": "uint256",
          "name": "timestamp",
          "type": "uint256"
        },
        {
          "indexed": true,
          "internalType": "string",
          "name": "txType",
          "type": "string"
        },
        {
          "indexed": false,
          "internalType": "uint256",
          "name": "tokenAmount",
          "type": "uint256"
        },
        {
          "indexed": false,
          "internalType": "uint256",
          "name": "usdtAmount",
          "type": "uint256"
        },
        {
          "indexed": false,
          "internalType": "uint256",
          "name": "netUserReceived",
          "type": "uint256"
        },
        {
          "indexed": false,
          "internalType": "uint256",
          "name": "previousInvestment",
          "type": "uint256"
        },
        {
          "indexed": false,
          "internalType": "uint256",
          "name": "newInvestment",
          "type": "uint256"
        },
        {
          "indexed": false,
          "internalType": "uint256",
          "name": "burnFee",
          "type": "uint256"
        },
        {
          "indexed": false,
          "internalType": "uint256",
          "name": "lpFee",
          "type": "uint256"
        },
        {
          "indexed": false,
          "internalType": "uint256",
          "name": "marketingFee",
          "type": "uint256"
        },
        {
          "indexed": false,
          "internalType": "uint256",
          "name": "profitAmount",
          "type": "uint256"
        },
        {
          "indexed": false,
          "internalType": "uint256",
          "name": "profitTax",
          "type": "uint256"
        },
        {
          "indexed": false,
          "internalType": "address",
          "name": "referrer",
          "type": "address"
        }
      ],
      "name": "TransactionExecuted",
      "type": "event"
    },
    {
      "anonymous": false,
      "inputs": [
        {
          "indexed": true,
          "internalType": "address",
          "name": "from",
          "type": "address"
        },
        {
          "indexed": true,
          "internalType": "address",
          "name": "to",
          "type": "address"
        },
        {
          "indexed": false,
          "internalType": "uint256",
          "name": "value",
          "type": "uint256"
        }
      ],
      "name": "Transfer",
      "type": "event"
    },
    {
      "anonymous": false,
      "inputs": [
        {
          "indexed": true,
          "internalType": "address",
          "name": "from",
          "type": "address"
        },
        {
          "indexed": true,
          "internalType": "address",
          "name": "to",
          "type": "address"
        },
        {
          "indexed": false,
          "internalType": "uint256",
          "name": "feeAmount",
          "type": "uint256"
        },
        {
          "indexed": false,
          "internalType": "uint256",
          "name": "netAmount",
          "type": "uint256"
        },
        {
          "indexed": false,
          "internalType": "string",
          "name": "transferType",
          "type": "string"
        }
      ],
      "name": "TransferFeeCollected",
      "type": "event"
    },
    {
      "anonymous": false,
      "inputs": [
        {
          "indexed": true,
          "internalType": "address",
          "name": "user",
          "type": "address"
        },
        {
          "indexed": true,
          "internalType": "uint256",
          "name": "timestamp",
          "type": "uint256"
        },
        {
          "indexed": false,
          "internalType": "string",
          "name": "txType",
          "type": "string"
        },
        {
          "indexed": false,
          "internalType": "uint256",
          "name": "tokenAmount",
          "type": "uint256"
        },
        {
          "indexed": false,
          "internalType": "uint256",
          "name": "usdtAmount",
          "type": "uint256"
        },
        {
          "indexed": false,
          "internalType": "uint256",
          "name": "netReceived",
          "type": "uint256"
        }
      ],
      "name": "UserTransaction",
      "type": "event"
    },
    {
      "inputs": [],
      "name": "DEAD_ADDRESS",
      "outputs": [
        {
          "internalType": "address",
          "name": "",
          "type": "address"
        }
      ],
      "stateMutability": "view",
      "type": "function"
    },
    {
      "inputs": [],
      "name": "USDT",
      "outputs": [
        {
          "internalType": "address",
          "name": "",
          "type": "address"
        }
      ],
      "stateMutability": "view",
      "type": "function"
    },
    {
      "inputs": [
        {
          "internalType": "address",
          "name": "owner",
          "type": "address"
        },
        {
          "internalType": "address",
          "name": "spender",
          "type": "address"
        }
      ],
      "name": "allowance",
      "outputs": [
        {
          "internalType": "uint256",
          "name": "",
          "type": "uint256"
        }
      ],
      "stateMutability": "view",
      "type": "function"
    },
    {
      "inputs": [],
      "name": "amountLPFee",
      "outputs": [
        {
          "internalType": "uint256",
          "name": "",
          "type": "uint256"
        }
      ],
      "stateMutability": "view",
      "type": "function"
    },
    {
      "inputs": [],
      "name": "amountMarketingFee",
      "outputs": [
        {
          "internalType": "uint256",
          "name": "",
          "type": "uint256"
        }
      ],
      "stateMutability": "view",
      "type": "function"
    },
    {
      "inputs": [
        {
          "internalType": "address",
          "name": "spender",
          "type": "address"
        },
        {
          "internalType": "uint256",
          "name": "value",
          "type": "uint256"
        }
      ],
      "name": "approve",
      "outputs": [
        {
          "internalType": "bool",
          "name": "",
          "type": "bool"
        }
      ],
      "stateMutability": "nonpayable",
      "type": "function"
    },
    {
      "inputs": [
        {
          "internalType": "address",
          "name": "account",
          "type": "address"
        }
      ],
      "name": "balanceOf",
      "outputs": [
        {
          "internalType": "uint256",
          "name": "",
          "type": "uint256"
        }
      ],
      "stateMutability": "view",
      "type": "function"
    },
    {
      "inputs": [
        {
          "internalType": "address",
          "name": "",
          "type": "address"
        }
      ],
      "name": "blacklisted",
      "outputs": [
        {
          "internalType": "bool",
          "name": "",
          "type": "bool"
        }
      ],
      "stateMutability": "view",
      "type": "function"
    },
    {
      "inputs": [],
      "name": "coldTime",
      "outputs": [
        {
          "internalType": "uint256",
          "name": "",
          "type": "uint256"
        }
      ],
      "stateMutability": "view",
      "type": "function"
    },
    {
      "inputs": [],
      "name": "contractDeployTime",
      "outputs": [
        {
          "internalType": "uint256",
          "name": "",
          "type": "uint256"
        }
      ],
      "stateMutability": "view",
      "type": "function"
    },
    {
      "inputs": [],
      "name": "decimals",
      "outputs": [
        {
          "internalType": "uint8",
          "name": "",
          "type": "uint8"
        }
      ],
      "stateMutability": "view",
      "type": "function"
    },
    {
      "inputs": [],
      "name": "delayedBuyEnabled",
      "outputs": [
        {
          "internalType": "bool",
          "name": "",
          "type": "bool"
        }
      ],
      "stateMutability": "view",
      "type": "function"
    },
    {
      "inputs": [],
      "name": "delayedBuyEnabledTime",
      "outputs": [
        {
          "internalType": "uint256",
          "name": "",
          "type": "uint256"
        }
      ],
      "stateMutability": "view",
      "type": "function"
    },
    {
      "inputs": [
        {
          "internalType": "address",
          "name": "",
          "type": "address"
        }
      ],
      "name": "feeWhitelisted",
      "outputs": [
        {
          "internalType": "bool",
          "name": "",
          "type": "bool"
        }
      ],
      "stateMutability": "view",
      "type": "function"
    },
    {
      "inputs": [],
      "name": "fundRelay",
      "outputs": [
        {
          "internalType": "contract FundRelay",
          "name": "",
          "type": "address"
        }
      ],
      "stateMutability": "view",
      "type": "function"
    },
    {
      "inputs": [],
      "name": "getAccumulatedFees",
      "outputs": [
        {
          "internalType": "uint256",
          "name": "marketing",
          "type": "uint256"
        },
        {
          "internalType": "uint256",
          "name": "lp",
          "type": "uint256"
        },
        {
          "internalType": "uint256",
          "name": "threshold",
          "type": "uint256"
        }
      ],
      "stateMutability": "view",
      "type": "function"
    },
    {
      "inputs": [
        {
          "internalType": "uint256",
          "name": "amountOut",
          "type": "uint256"
        },
        {
          "internalType": "uint256",
          "name": "reserveIn",
          "type": "uint256"
        },
        {
          "internalType": "uint256",
          "name": "reserveOut",
          "type": "uint256"
        }
      ],
      "name": "getAmountIn",
      "outputs": [
        {
          "internalType": "uint256",
          "name": "amountIn",
          "type": "uint256"
        }
      ],
      "stateMutability": "pure",
      "type": "function"
    },
    {
      "inputs": [
        {
          "internalType": "uint256",
          "name": "amountIn",
          "type": "uint256"
        },
        {
          "internalType": "uint256",
          "name": "reserveIn",
          "type": "uint256"
        },
        {
          "internalType": "uint256",
          "name": "reserveOut",
          "type": "uint256"
        }
      ],
      "name": "getAmountOut",
      "outputs": [
        {
          "internalType": "uint256",
          "name": "amountOut",
          "type": "uint256"
        }
      ],
      "stateMutability": "pure",
      "type": "function"
    },
    {
      "inputs": [],
      "name": "getDelayedBuyInfo",
      "outputs": [
        {
          "internalType": "bool",
          "name": "enabled",
          "type": "bool"
        },
        {
          "internalType": "bool",
          "name": "testModeActive",
          "type": "bool"
        },
        {
          "internalType": "uint256",
          "name": "enabledTime",
          "type": "uint256"
        },
        {
          "internalType": "uint256",
          "name": "requiredDelay",
          "type": "uint256"
        },
        {
          "internalType": "uint256",
          "name": "remainingDelay",
          "type": "uint256"
        }
      ],
      "stateMutability": "view",
      "type": "function"
    },
    {
      "inputs": [],
      "name": "getDelayedSwapStatus",
      "outputs": [
        {
          "internalType": "bool",
          "name": "pending",
          "type": "bool"
        },
        {
          "internalType": "uint256",
          "name": "totalFees",
          "type": "uint256"
        }
      ],
      "stateMutability": "view",
      "type": "function"
    },
    {
      "inputs": [],
      "name": "getFundRelay",
      "outputs": [
        {
          "internalType": "address",
          "name": "",
          "type": "address"
        }
      ],
      "stateMutability": "view",
      "type": "function"
    },
    {
      "inputs": [],
      "name": "getLiquidityStaking",
      "outputs": [
        {
          "internalType": "address",
          "name": "",
          "type": "address"
        }
      ],
      "stateMutability": "view",
      "type": "function"
    },
    {
      "inputs": [],
      "name": "getPresaleStatus",
      "outputs": [
        {
          "internalType": "bool",
          "name": "active",
          "type": "bool"
        },
        {
          "internalType": "uint256",
          "name": "startTime",
          "type": "uint256"
        },
        {
          "internalType": "uint256",
          "name": "duration",
          "type": "uint256"
        },
        {
          "internalType": "uint256",
          "name": "remainingTime",
          "type": "uint256"
        },
        {
          "internalType": "bool",
          "name": "isInPresale",
          "type": "bool"
        }
      ],
      "stateMutability": "view",
      "type": "function"
    },
    {
      "inputs": [],
      "name": "getUSDTReserve",
      "outputs": [
        {
          "internalType": "uint112",
          "name": "usdtReserve",
          "type": "uint112"
        }
      ],
      "stateMutability": "view",
      "type": "function"
    },
    {
      "inputs": [],
      "name": "getUniswapV2Pair",
      "outputs": [
        {
          "internalType": "address",
          "name": "",
          "type": "address"
        }
      ],
      "stateMutability": "view",
      "type": "function"
    },
    {
      "inputs": [
        {
          "internalType": "address",
          "name": "user",
          "type": "address"
        }
      ],
      "name": "getUserInvestment",
      "outputs": [
        {
          "internalType": "uint256",
          "name": "investment",
          "type": "uint256"
        },
        {
          "internalType": "uint256",
          "name": "lastBuy",
          "type": "uint256"
        }
      ],
      "stateMutability": "view",
      "type": "function"
    },
    {
      "inputs": [],
      "name": "initializeWhitelist",
      "outputs": [],
      "stateMutability": "nonpayable",
      "type": "function"
    },
    {
      "inputs": [
        {
          "internalType": "address",
          "name": "account",
          "type": "address"
        }
      ],
      "name": "isContract",
      "outputs": [
        {
          "internalType": "bool",
          "name": "",
          "type": "bool"
        }
      ],
      "stateMutability": "view",
      "type": "function"
    },
    {
      "inputs": [
        {
          "internalType": "address",
          "name": "buyer",
          "type": "address"
        }
      ],
      "name": "isDelayedBuyPeriodMet",
      "outputs": [
        {
          "internalType": "bool",
          "name": "",
          "type": "bool"
        }
      ],
      "stateMutability": "view",
      "type": "function"
    },
    {
      "inputs": [
        {
          "internalType": "address",
          "name": "",
          "type": "address"
        }
      ],
      "name": "lastBuyTime",
      "outputs": [
        {
          "internalType": "uint256",
          "name": "",
          "type": "uint256"
        }
      ],
      "stateMutability": "view",
      "type": "function"
    },
    {
      "inputs": [],
      "name": "liquidityStaking",
      "outputs": [
        {
          "internalType": "contract ILiquidityStaking",
          "name": "",
          "type": "address"
        }
      ],
      "stateMutability": "view",
      "type": "function"
    },
    {
      "inputs": [],
      "name": "liquidityThreshold",
      "outputs": [
        {
          "internalType": "uint256",
          "name": "",
          "type": "uint256"
        }
      ],
      "stateMutability": "view",
      "type": "function"
    },
    {
      "inputs": [],
      "name": "marketingAddress",
      "outputs": [
        {
          "internalType": "address",
          "name": "",
          "type": "address"
        }
      ],
      "stateMutability": "view",
      "type": "function"
    },
    {
      "inputs": [],
      "name": "name",
      "outputs": [
        {
          "internalType": "string",
          "name": "",
          "type": "string"
        }
      ],
      "stateMutability": "view",
      "type": "function"
    },
    {
      "inputs": [],
      "name": "nodeDividendAddress",
      "outputs": [
        {
          "internalType": "address",
          "name": "",
          "type": "address"
        }
      ],
      "stateMutability": "view",
      "type": "function"
    },
    {
      "inputs": [],
      "name": "owner",
      "outputs": [
        {
          "internalType": "address",
          "name": "",
          "type": "address"
        }
      ],
      "stateMutability": "view",
      "type": "function"
    },
    {
      "inputs": [],
      "name": "presaleActive",
      "outputs": [
        {
          "internalType": "bool",
          "name": "",
          "type": "bool"
        }
      ],
      "stateMutability": "view",
      "type": "function"
    },
    {
      "inputs": [],
      "name": "presaleDuration",
      "outputs": [
        {
          "internalType": "uint256",
          "name": "",
          "type": "uint256"
        }
      ],
      "stateMutability": "view",
      "type": "function"
    },
    {
      "inputs": [],
      "name": "presaleStartTime",
      "outputs": [
        {
          "internalType": "uint256",
          "name": "",
          "type": "uint256"
        }
      ],
      "stateMutability": "view",
      "type": "function"
    },
    {
      "inputs": [
        {
          "internalType": "address",
          "name": "token",
          "type": "address"
        },
        {
          "internalType": "uint256",
          "name": "amount",
          "type": "uint256"
        }
      ],
      "name": "recoverStuckTokens",
      "outputs": [],
      "stateMutability": "nonpayable",
      "type": "function"
    },
    {
      "inputs": [
        {
          "internalType": "uint256",
          "name": "amount",
          "type": "uint256"
        }
      ],
      "name": "recycle",
      "outputs": [],
      "stateMutability": "nonpayable",
      "type": "function"
    },
    {
      "inputs": [],
      "name": "renounceOwnership",
      "outputs": [],
      "stateMutability": "nonpayable",
      "type": "function"
    },
    {
      "inputs": [],
      "name": "rootAddress",
      "outputs": [
        {
          "internalType": "address",
          "name": "",
          "type": "address"
        }
      ],
      "stateMutability": "view",
      "type": "function"
    },
    {
      "inputs": [
        {
          "internalType": "address[]",
          "name": "accounts",
          "type": "address[]"
        },
        {
          "internalType": "bool",
          "name": "_blacklisted",
          "type": "bool"
        }
      ],
      "name": "setBatchBlacklisted",
      "outputs": [],
      "stateMutability": "nonpayable",
      "type": "function"
    },
    {
      "inputs": [
        {
          "internalType": "address[]",
          "name": "accounts",
          "type": "address[]"
        },
        {
          "internalType": "bool",
          "name": "_whitelisted",
          "type": "bool"
        }
      ],
      "name": "setBatchFeeWhitelisted",
      "outputs": [],
      "stateMutability": "nonpayable",
      "type": "function"
    },
    {
      "inputs": [
        {
          "internalType": "address",
          "name": "account",
          "type": "address"
        },
        {
          "internalType": "bool",
          "name": "_blacklisted",
          "type": "bool"
        }
      ],
      "name": "setBlacklisted",
      "outputs": [],
      "stateMutability": "nonpayable",
      "type": "function"
    },
    {
      "inputs": [
        {
          "internalType": "uint256",
          "name": "_coldTime",
          "type": "uint256"
        }
      ],
      "name": "setColdTime",
      "outputs": [],
      "stateMutability": "nonpayable",
      "type": "function"
    },
    {
      "inputs": [
        {
          "internalType": "bool",
          "name": "_enabled",
          "type": "bool"
        }
      ],
      "name": "setDelayedBuyEnabled",
      "outputs": [],
      "stateMutability": "nonpayable",
      "type": "function"
    },
    {
      "inputs": [
        {
          "internalType": "address",
          "name": "account",
          "type": "address"
        },
        {
          "internalType": "bool",
          "name": "whitelisted",
          "type": "bool"
        }
      ],
      "name": "setFeeWhitelisted",
      "outputs": [],
      "stateMutability": "nonpayable",
      "type": "function"
    },
    {
      "inputs": [
        {
          "internalType": "address",
          "name": "_fundRelay",
          "type": "address"
        }
      ],
      "name": "setFundRelay",
      "outputs": [],
      "stateMutability": "nonpayable",
      "type": "function"
    },
    {
      "inputs": [
        {
          "internalType": "address",
          "name": "_liquidityStaking",
          "type": "address"
        }
      ],
      "name": "setLiquidityStaking",
      "outputs": [],
      "stateMutability": "nonpayable",
      "type": "function"
    },
    {
      "inputs": [
        {
          "internalType": "uint256",
          "name": "newThreshold",
          "type": "uint256"
        }
      ],
      "name": "setLiquidityThreshold",
      "outputs": [],
      "stateMutability": "nonpayable",
      "type": "function"
    },
    {
      "inputs": [
        {
          "internalType": "address",
          "name": "_newAddress",
          "type": "address"
        }
      ],
      "name": "setMarketingAddress",
      "outputs": [],
      "stateMutability": "nonpayable",
      "type": "function"
    },
    {
      "inputs": [
        {
          "internalType": "address",
          "name": "_node",
          "type": "address"
        }
      ],
      "name": "setNodeDividendAddress",
      "outputs": [],
      "stateMutability": "nonpayable",
      "type": "function"
    },
    {
      "inputs": [
        {
          "internalType": "address",
          "name": "_pair",
          "type": "address"
        }
      ],
      "name": "setPair",
      "outputs": [],
      "stateMutability": "nonpayable",
      "type": "function"
    },
    {
      "inputs": [
        {
          "internalType": "bool",
          "name": "_active",
          "type": "bool"
        }
      ],
      "name": "setPresaleActive",
      "outputs": [],
      "stateMutability": "nonpayable",
      "type": "function"
    },
    {
      "inputs": [],
      "name": "setPresaleDuration",
      "outputs": [],
      "stateMutability": "nonpayable",
      "type": "function"
    },
    {
      "inputs": [
        {
          "internalType": "uint256",
          "name": "_swapAtAmount",
          "type": "uint256"
        }
      ],
      "name": "setSwapAtAmount",
      "outputs": [],
      "stateMutability": "nonpayable",
      "type": "function"
    },
    {
      "inputs": [],
      "name": "staking",
      "outputs": [
        {
          "internalType": "contract IStaking",
          "name": "",
          "type": "address"
        }
      ],
      "stateMutability": "view",
      "type": "function"
    },
    {
      "inputs": [],
      "name": "swapAtAmount",
      "outputs": [
        {
          "internalType": "uint256",
          "name": "",
          "type": "uint256"
        }
      ],
      "stateMutability": "view",
      "type": "function"
    },
    {
      "inputs": [],
      "name": "symbol",
      "outputs": [
        {
          "internalType": "string",
          "name": "",
          "type": "string"
        }
      ],
      "stateMutability": "view",
      "type": "function"
    },
    {
      "inputs": [],
      "name": "totalSupply",
      "outputs": [
        {
          "internalType": "uint256",
          "name": "",
          "type": "uint256"
        }
      ],
      "stateMutability": "view",
      "type": "function"
    },
    {
      "inputs": [
        {
          "internalType": "address",
          "name": "to",
          "type": "address"
        },
        {
          "internalType": "uint256",
          "name": "value",
          "type": "uint256"
        }
      ],
      "name": "transfer",
      "outputs": [
        {
          "internalType": "bool",
          "name": "",
          "type": "bool"
        }
      ],
      "stateMutability": "nonpayable",
      "type": "function"
    },
    {
      "inputs": [
        {
          "internalType": "address",
          "name": "from",
          "type": "address"
        },
        {
          "internalType": "address",
          "name": "to",
          "type": "address"
        },
        {
          "internalType": "uint256",
          "name": "value",
          "type": "uint256"
        }
      ],
      "name": "transferFrom",
      "outputs": [
        {
          "internalType": "bool",
          "name": "",
          "type": "bool"
        }
      ],
      "stateMutability": "nonpayable",
      "type": "function"
    },
    {
      "inputs": [
        {
          "internalType": "address",
          "name": "newOwner",
          "type": "address"
        }
      ],
      "name": "transferOwnership",
      "outputs": [],
      "stateMutability": "nonpayable",
      "type": "function"
    },
    {
      "inputs": [],
      "name": "triggerFeeProcessing",
      "outputs": [],
      "stateMutability": "nonpayable",
      "type": "function"
    },
    {
      "inputs": [],
      "name": "triggerFundRelayDistribution",
      "outputs": [],
      "stateMutability": "nonpayable",
      "type": "function"
    },
    {
      "inputs": [],
      "name": "uniswapV2Pair",
      "outputs": [
        {
          "internalType": "contract IPancakePair",
          "name": "",
          "type": "address"
        }
      ],
      "stateMutability": "view",
      "type": "function"
    },
    {
      "inputs": [],
      "name": "uniswapV2Router",
      "outputs": [
        {
          "internalType": "contract IPancakeRouter",
          "name": "",
          "type": "address"
        }
      ],
      "stateMutability": "view",
      "type": "function"
    },
    {
      "inputs": [
        {
          "internalType": "address",
          "name": "",
          "type": "address"
        }
      ],
      "name": "userInvestment",
      "outputs": [
        {
          "internalType": "uint256",
          "name": "",
          "type": "uint256"
        }
      ],
      "stateMutability": "view",
      "type": "function"
    }
  ],
  "bytecode": "0x60e0806040523461053957608081614115803803809161001f828561053e565b8339810103126105395761003281610561565b9061003f60208201610561565b610057606061005060408501610561565b9301610561565b9260405161006660408261053e565b600981526827a620902a37b5b2b760b91b60208201526040519061008b60408361053e565b60038252624f4c4160e81b60208301528051906001600160401b0382116104365760035490600182811c9216801561052f575b60208310146104165781601f8493116104bf575b50602090601f83116001146104575760009261044c575b50508160011b916000199060031b1c1916176003555b8051906001600160401b0382116104365760045490600182811c9216801561042c575b60208310146104165781601f8493116103a6575b50602090601f831160011461033e57600092610333575b50508160011b916000199060031b1c1916176004555b331561031d5760058054336001600160a01b0319821681179092556001600160a01b03167f8be0079c531659141344cd1fd0a4f28419497f9722a3daafe3b4186f6b6457e0600080a3600a600c5569021e19e0c9bab2400000600f55633b9aca00601a556001600160a01b03811615801561030c575b80156102fb575b80156102ea575b6102d9576080526001600160a01b0390811660a05290811660c052600a80546001600160a01b0319169290911691909117905561022333610575565b426013554260105562278d00601155600160ff196012541617601255604051613b0b908161060a82396080518181816107bd01528181611b4001528181612642015281816126f501528181612ea20152818161323301528181613327015281816134cf01526139fa015260a051818181611411015281816115c201528181612d5e01528181612dd101526134fb015260c0518181816104c801528181610f7d01528181611061015281816112af01526113c90152f35b63d92e233d60e01b60005260046000fd5b506001600160a01b038416156101e7565b506001600160a01b038316156101e0565b506001600160a01b038216156101d9565b631e4fbdf760e01b600052600060045260246000fd5b01519050388061014d565b600460009081528281209350601f198516905b81811061038e5750908460019594939210610375575b505050811b01600455610163565b015160001960f88460031b161c19169055388080610367565b92936020600181928786015181550195019301610351565b60046000529091507f8a35acfbc15ff81a39ae7d344fd709f28e8600b4aa8c65c6b64bfe7fe36bd19b601f840160051c8101916020851061040c575b90601f859493920160051c01905b8181106103fd5750610136565b600081558493506001016103f0565b90915081906103e2565b634e487b7160e01b600052602260045260246000fd5b91607f1691610122565b634e487b7160e01b600052604160045260246000fd5b0151905038806100e9565b600360009081528281209350601f198516905b8181106104a7575090846001959493921061048e575b505050811b016003556100ff565b015160001960f88460031b161c19169055388080610480565b9293602060018192878601518155019501930161046a565b60036000529091507fc2575a0e9e593c00f959f8c92f12db2869c3395a3b0502d05e2516446f71f85b601f840160051c81019160208510610525575b90601f859493920160051c01905b81811061051657506100d2565b60008155849350600101610509565b90915081906104fb565b91607f16916100be565b600080fd5b601f909101601f19168101906001600160401b0382119082101761043657604052565b51906001600160a01b038216820361053957565b6a084595161401484a000000906000906002548381018091116105f3577fddf252ad1be2c89b69c2b068fc378daa952ba7f163c4a11628f55a4df523b3ef916020916002556001600160a01b031693846105db5780600254036002555b604051908152a3565b846000526000825260406000208181540190556105d2565b634e487b7160e01b600052601160045260246000fdfe6080604052600436101561001257600080fd5b6000803560e01c8063054d50d41461175857806306fdde031461169b578063095ea7b314611674578063140bdcba1461161857806316279055146115f15780631694505e146115ac57806318160ddd1461158e5780631abfa629146110b357806321e2c9571461153257806323b872dd146114515780632927bacd14611361578063313ce5671461134557806332f65881146112fb57806336543fb9146112dd57806338a674c5146112295780633c19814e146111dd5780633f8121a21461113b5780633fecc2e21461110257806343a066aa146110dc57806349bd5a5e146110b35780634baf59f3146110905780634cf088d91461104b5780634e6fd6c41461102e57806352795e0b14610f6957806353135ca014610f46578063569ea10114610f07578063570475dc14610ed85780635868c32a14610eba5780635df45a3714610e8b578063615c440914610e62578063622e6ad814610e3f5780636402511e14610e1c57806366d57b9514610dfe57806370a0823114610dc4578063715018a614610d675780637464024c1461095d5780638187f51614610d0057806385f8c25914610cde578063861bd3c514610c7f5780638691752414610c615780638733cfd314610c2857806387894d0314610bfa5780638da5cb5b14610bd1578063906e9dd014610b3657806390e82f2414610ad35780639315e56114610ab557806395d89b41146109a45780639f54790d14610986578063a33bce2814610617578063a48230591461095d578063a5ece94114610934578063a82524b214610916578063a9059cbb146108e4578063aaa2b8c8146108bb578063af24ccaa1461083e578063b99ce15e146107ec578063c54e44eb146107a7578063c596f3fe14610779578063c96880861461075b578063d01dd6d214610709578063d123de31146106dd578063d4273cd6146106bf578063d7517caa14610640578063d9c821f314610617578063dbac26e9146105d8578063dd1c35bc146104b1578063dd62ed3e1461045c578063f2fde38b146103d3578063fdc0cdbf146103af5763ff9191511461031f57600080fd5b346103ac57806003193601126103ac5760125460145460a09260089290921c60ff16159190821561036d57815b604051931584526020840152604083015262278d0060608301526080820152f35b80156103a457805b61037e816118fe565b421061038b57508161034c565b61039e9061039942916118fe565b611bd7565b9161034c565b601354610375565b80fd5b50346103ac57806003193601126103ac576103c8611d09565b6103d0612ac5565b80f35b50346103ac5760203660031901126103ac576103ed6117d2565b6103f5611d09565b6001600160a01b0316801561044857600580546001600160a01b0319811683179091556001600160a01b03167f8be0079c531659141344cd1fd0a4f28419497f9722a3daafe3b4186f6b6457e08380a380f35b631e4fbdf760e01b82526004829052602482fd5b50346103ac5760403660031901126103ac5760406104786117d2565b916104816117e8565b9260018060a01b031681526001602052209060018060a01b03166000526020526020604060002054604051908152f35b50346103ac5760203660031901126103ac576004357f00000000000000000000000000000000000000000000000000000000000000006001600160a01b03163381900361059b576006546001600160a01b031660008181526020819052604090205490929060039004908181106105935750905b8161052e578380f35b61053792611d32565b60065481906001600160a01b0316803b156105905781809160046040518095819363fff6cae960e01b83525af180156105835761057357818380f35b61057c9161181c565b3881818380f35b50604051903d90823e3d90fd5b50fd5b905090610525565b60405162461bcd60e51b815260206004820152601560248201527413db9b1e481cdd185ada5b99c818dbdb9d1c9858dd605a1b6044820152606490fd5b50346103ac5760203660031901126103ac5760209060ff906040906001600160a01b036106036117d2565b168152601984522054166040519015158152f35b50346103ac57806003193601126103ac576007546040516001600160a01b039091168152602090f35b50346103ac57806003193601126103ac5760a090601054906011546106658184611924565b9182421092836000146106b85761067e91504290611bd7565b905b60125460ff16938493846106b0575b50604051941515855260208501526040840152606083015215156080820152f35b93503861068f565b5090610680565b50346103ac57806003193601126103ac576020601454604051908152f35b50346103ac57806003193601126103ac5760206106f8611ace565b6001600160701b0360405191168152f35b50346103ac5760403660031901126103ac576103d06107266117d2565b61072e61180d565b90610737611d09565b60018060a01b031683526019602052604083209060ff801983541691151516179055565b50346103ac57806003193601126103ac576020601a54604051908152f35b50346103ac5760403660031901126103ac576103d06107966117d2565b61079e611d09565b602435906119d6565b50346103ac57806003193601126103ac576040517f00000000000000000000000000000000000000000000000000000000000000006001600160a01b03168152602090f35b50346103ac5760403660031901126103ac576103d06108096117d2565b61081161180d565b9061081a611d09565b60018060a01b031683526018602052604083209060ff801983541691151516179055565b50346103ac5760203660031901126103ac577f2c8ccbef4032016d78404afa804c622487ae3acab4caeff4b2dba121d7488c18602061087b6117fe565b610883611d09565b8015159060125461ff008360081b169061ff001916176012556000146108b257426014555b604051908152a180f35b836014556108a8565b50346103ac57806003193601126103ac576009546040516001600160a01b039091168152602090f35b50346103ac5760403660031901126103ac5761090b6109016117d2565b6024359033611d32565b602060405160018152f35b50346103ac57806003193601126103ac576020601054604051908152f35b50346103ac57806003193601126103ac57600a546040516001600160a01b039091168152602090f35b50346103ac57806003193601126103ac576008546040516001600160a01b039091168152602090f35b50346103ac57806003193601126103ac576020601354604051908152f35b50346103ac57806003193601126103ac576040519080600454908160011c91600181168015610aab575b602084108114610a9757838652908115610a705750600114610a13575b610a0f846109fb8186038261181c565b604051918291602083526020830190611791565b0390f35b600481527f8a35acfbc15ff81a39ae7d344fd709f28e8600b4aa8c65c6b64bfe7fe36bd19b939250905b808210610a56575090915081016020016109fb826109eb565b919260018160209254838588010152019101909291610a3d565b60ff191660208087019190915292151560051b850190920192506109fb91508390506109eb565b634e487b7160e01b83526022600452602483fd5b92607f16926109ce565b50346103ac57806003193601126103ac576020600e54604051908152f35b50346103ac57610ae236611854565b610aea611d09565b825b8251811015610b32576001906001600160a01b03610b0a8286611931565b511685526018602052610b2c83604087209060ff801983541691151516179055565b01610aec565b8380f35b50346103ac5760203660031901126103ac57610b506117d2565b610b58611d09565b6001600160a01b03168015610bc257600a80546001600160a01b031981168317909155818352601860205260408320805460ff191660011790556001600160a01b03167fa8efc72ed34f90017df79620d1972d42b8e3b17eb0077fc5fc46cbf1a19ed9a98380a380f35b63d92e233d60e01b8252600482fd5b50346103ac57806003193601126103ac576005546040516001600160a01b039091168152602090f35b50346103ac5760203660031901126103ac576020610c1e610c196117d2565b61195b565b6040519015158152f35b50346103ac5760203660031901126103ac576020906040906001600160a01b03610c506117d2565b168152601683522054604051908152f35b50346103ac57806003193601126103ac576020600f54604051908152f35b50346103ac57610c8e36611854565b610c96611d09565b825b8251811015610b32576001906001600160a01b03610cb68286611931565b511685526019602052610cd883604087209060ff801983541691151516179055565b01610c98565b50346103ac576020610cf8610cf236611772565b91612afb565b604051908152f35b50346103ac5760203660031901126103ac57610d1a6117d2565b610d22611d09565b6001600160a01b03168015610bc2576006546001600160a01b038116610d58576001600160a01b031916176006556103d0612ac5565b63a741a04560e01b8352600483fd5b50346103ac57806003193601126103ac57610d80611d09565b600580546001600160a01b0319811690915581906001600160a01b03167f8be0079c531659141344cd1fd0a4f28419497f9722a3daafe3b4186f6b6457e08280a380f35b50346103ac5760203660031901126103ac576020610cf8610de36117d2565b6001600160a01b031660009081526020819052604090205490565b50346103ac57806003193601126103ac576020600d54604051908152f35b50346103ac5760203660031901126103ac57610e36611d09565b600435600f5580f35b50346103ac5760203660031901126103ac57610e59611d09565b600435600c5580f35b50346103ac57806003193601126103ac57600b546040516001600160a01b039091168152602090f35b50346103ac57806003193601126103ac576060600d54600e54600f549060405192835260208301526040820152f35b50346103ac57806003193601126103ac576020601154604051908152f35b50346103ac57806003193601126103ac57604090610efb600d54600e5490611924565b82519182526020820152f35b50346103ac5760203660031901126103ac5760209060ff906040906001600160a01b03610f326117d2565b168152601884522054166040519015158152f35b50346103ac57806003193601126103ac57602060ff601254166040519015158152f35b50346103ac57806003193601126103ac57337f00000000000000000000000000000000000000000000000000000000000000006001600160a01b031614801561101a575b15610fc257610fba6129f3565b6103d06128df565b60405162461bcd60e51b815260206004820152602a60248201527f4f6e6c79207374616b696e67206f72206c6971756964697479207374616b696e60448201526919c818dbdb9d1c9858dd60b21b6064820152608490fd5b506007546001600160a01b03163314610fad565b50346103ac57806003193601126103ac57602060405161dead8152f35b50346103ac57806003193601126103ac576040517f00000000000000000000000000000000000000000000000000000000000000006001600160a01b03168152602090f35b50346103ac5760203660031901126103ac576110aa611d09565b600435601a5580f35b50346103ac57806003193601126103ac576006546040516001600160a01b039091168152602090f35b50346103ac57806003193601126103ac57602060ff60125460081c166040519015158152f35b50346103ac5760203660031901126103ac576020906040906001600160a01b0361112a6117d2565b168152601783522054604051908152f35b50346103ac5760203660031901126103ac577ff19c3bdddf1b5ac58b32a05cc2bc72313b03a8e8ceb7621e8818651371e00e5460206111786117fe565b611180611d09565b8015159060ff196012541660ff8316176012556111a157604051908152a180f35b4260105562278d006011557fdbeb6ec948f6eb874ecbd6117742652c35d57fbe578b778b77e677a06af90b968260405162278d008152a16108a8565b50346103ac5760203660031901126103ac576111f76117d2565b6111ff611d09565b6001600160a01b03168015610bc2576bffffffffffffffffffffffff60a01b600b541617600b5580f35b50346103ac57806003193601126103ac576005546001600160a01b0316331480156112ab575b8015611297575b15611263576103d06128df565b60405162461bcd60e51b815260206004820152600c60248201526b155b985d5d1a1bdc9a5e995960a21b6044820152606490fd5b506007546001600160a01b03163314611256565b50337f00000000000000000000000000000000000000000000000000000000000000006001600160a01b03161461124f565b50346103ac57806003193601126103ac576020600c54604051908152f35b50346103ac5760203660031901126103ac57604090816001600160a01b036113216117d2565b16918281526016602052818120549281526017602052205482519182526020820152f35b50346103ac57806003193601126103ac57602060405160128152f35b50346103ac57806003193601126103ac5761137a611d09565b601b5460ff811661144357600160ff199182168117601b556005546001600160a01b039081168452601860208181526040808720805487168617905530875282825280872080548716861790557f0000000000000000000000000000000000000000000000000000000000000000841687528282528087208054871686179055600a548416875282825280872080548716861790557f00000000000000000000000000000000000000000000000000000000000000009093168652528320805490921617905580f35b62dc149f60e41b8252600482fd5b50346103ac5760603660031901126103ac5761146b6117d2565b6114736117e8565b6001600160a01b038216808452600160209081526040808620338752909152842054604435939160001982106114b0575b505061090b9350611d32565b8482106115175780156115035733156114ef57604086869261090b9852600160205281812060018060a01b0333168252602052209103905538806114a4565b634a1406b160e11b86526004869052602486fd5b63e602df0560e01b86526004869052602486fd5b6064868684637dc7a0d960e11b835233600452602452604452fd5b50346103ac5760203660031901126103ac5761154c6117d2565b611554611d09565b6001600160a01b03168015610bc257600880546001600160a01b031916821790558152601860205260408120805460ff1916600117905580f35b50346103ac57806003193601126103ac576020600254604051908152f35b50346103ac57806003193601126103ac576040517f00000000000000000000000000000000000000000000000000000000000000006001600160a01b03168152602090f35b50346103ac5760203660031901126103ac57602061160d6117d2565b3b1515604051908152f35b50346103ac5760203660031901126103ac576116326117d2565b61163a611d09565b6001600160a01b03168015610bc257600780546001600160a01b031916821790558152601860205260408120805460ff1916600117905580f35b50346103ac5760403660031901126103ac5761090b6116916117d2565b6024359033612bb8565b50346103ac57806003193601126103ac576040519080600354908160011c9160018116801561174e575b602084108114610a9757838652908115610a7057506001146116f157610a0f846109fb8186038261181c565b600381527fc2575a0e9e593c00f959f8c92f12db2869c3395a3b0502d05e2516446f71f85b939250905b808210611734575090915081016020016109fb826109eb565b91926001816020925483858801015201910190929161171b565b92607f16926116c5565b50346103ac576020610cf861176c36611772565b91611c5c565b606090600319011261178c57600435906024359060443590565b600080fd5b919082519283825260005b8481106117bd575050826000602080949584010152601f8019910116010190565b8060208092840101518282860101520161179c565b600435906001600160a01b038216820361178c57565b602435906001600160a01b038216820361178c57565b60043590811515820361178c57565b60243590811515820361178c57565b90601f8019910116810190811067ffffffffffffffff82111761183e57604052565b634e487b7160e01b600052604160045260246000fd5b604060031982011261178c576004359067ffffffffffffffff821161178c578060238301121561178c5781600401359067ffffffffffffffff821161183e5760208260051b01926118a8604051948561181c565b8284526024602085019360051b82010191821161178c57602401915b8183106118de5750505090602435801515810361178c5790565b82356001600160a01b038116810361178c578152602092830192016118c4565b9062278d00820180921161190e57565b634e487b7160e01b600052601160045260246000fd5b9190820180921161190e57565b80518210156119455760209160051b010190565b634e487b7160e01b600052603260045260246000fd5b60ff60125460081c161590811561199b575b5061199657601454801561198a57611984906118fe565b42101590565b506119846013546118fe565b600190565b6001600160a01b031660009081526018602052604090205460ff1690503861196d565b9081602091031261178c5751801515810361178c5790565b6001600160a01b0316308114611a615760055460405163a9059cbb60e01b81526001600160a01b0390911660048201526024810192909252602090829060449082906000905af18015611a5557611a2a5750565b611a4b9060203d602011611a4e575b611a43818361181c565b8101906119be565b50565b503d611a39565b6040513d6000823e3d90fd5b5050565b51906001600160701b038216820361178c57565b9081606091031261178c57611a8d81611a65565b916040611a9c60208401611a65565b92015163ffffffff8116810361178c5790565b9081602091031261178c57516001600160a01b038116810361178c5790565b600654604051630240bc6b60e21b8152906001600160a01b0316606082600481845afa9081600093600093611b9f575b50611b0b57505050600090565b602060049160405192838092630dfe168160e01b82525afa908115611a5557600091611b70575b506001600160a01b039081167f000000000000000000000000000000000000000000000000000000000000000090911603611b6b575090565b905090565b611b92915060203d602011611b98575b611b8a818361181c565b810190611aaf565b38611b32565b503d611b80565b909250611bc591935060603d606011611bd0575b611bbd818361181c565b810190611a79565b509290929138611afe565b503d611bb3565b9190820391821161190e57565b8115611bee570490565b634e487b7160e01b600052601260045260246000fd5b15611c0b57565b60405162461bcd60e51b8152602060048201526016602482015275496e73756666696369656e74206c697175696469747960501b6044820152606490fd5b8181029291811591840414171561190e57565b91908215611cc457801591821580611cbb575b611c7890611c04565b6103e584029384046103e50361190e57611c929084611c49565b916103e882029182046103e814171561190e57611cb892611cb291611924565b90611be4565b90565b50801515611c6f565b60405162461bcd60e51b815260206004820152601960248201527f496e73756666696369656e7420696e70757420616d6f756e74000000000000006044820152606490fd5b6005546001600160a01b03163303611d1d57565b63118cdaa760e01b6000523360045260246000fd5b909291906001600160a01b038116906000908215908180156128ce575b6128a057838352601860205260ff60408420541680156128af575b6128a057611d788782612d34565b611d828883612da8565b90156122a157506001600160a01b0387168084526019602052604084205490949060ff166122925760125460ff8160081c168061227b575b612245575b60ff168061222e575b61222057606486029186159287810460641484171561220c5761271090049260c888029088820460c814171561220c57612710900491611e11611e0b8486611924565b89611bd7565b9484612139575b505081611fb7575b837ffde30999d0ea66fcaf14400b79c9e771a1a87176335a8cc91382321a3d0a0c1f96979899611e4f92612c4b565b611e5883613988565b938681526016602052604081205491611e718684611924565b8883526016602052604083205587825260176020524260408320558782526016602052604082205460405190848252602082015286604082015260806060820152887ffa935fe56c7e4dc5d59a584d81aa99b9714c92d3b1cb2e7e329969203c3fd226429280611ef560808201604090600381526242555960e81b60208201520190565b0390a3878252601660205260408220549360036040516242555960e81b81522094604051948b86528860208701528760408701526060860152608085015260a084015260c08301528060e08301528061010083015280610120830152610140820152857f681f1f0fb3679a87b3423967dfa2ec97150b706d392eada5b3617c7508afc7656101604293a460405160808082526003908201526242555960e81b60a08201529160c08301956020840152604083015260608201528042940390a35b565b611fc2823083612c4b565b60075460405163095ea7b360e01b81526001600160a01b0390911660048201526024810183905260208160448189305af1801561210d5761211c575b506007546001600160a01b0316803b1561211857858091602460405180948193634038e05360e01b83528860048401525af1801561210d576120f1575b50837ffde30999d0ea66fcaf14400b79c9e771a1a87176335a8cc91382321a3d0a0c1f96979899611e4f927f14164d84b45b7c78b262f5a0a6e5ce9db145a21b0c02951209c371bdece6c7e56020604051878152a160018060a01b03600754166011604051704255595f4c505f5245574152445f424c4160781b8152206040518781527fdc0542397de1d347eb80cba6dcba197e295e2516706ef1dd5a16d8ac5fb3eeda60203092a49250999897965050611e20565b856120fb9161181c565b84600012612109573861203b565b8480fd5b6040513d88823e3d90fd5b8580fd5b6121349060203d602011611a4e57611a43818361181c565b611ffe565b600090156121c6579061dead9161215286600254611924565b6002555b5081600052600060205260406000208581540190557fddf252ad1be2c89b69c2b068fc378daa952ba7f163c4a11628f55a4df523b3ef6020604051878152a37f6ef4855b666dcc7884561072e4358b28dfe01feb1b7f4dcebc00e62d50394ac76020604051858152a13880611e18565b8181528060205260408120548581106121f2579085839261dead94835282602052036040822055612156565b859060649363391434e360e21b8452600452602452604452fd5b634e487b7160e01b86526011600452602486fd5b624e610160e31b8452600484fd5b5061223e60105460115490611924565b4210611dc8565b6014548015612272575b62278d00810180911161220c57421015611dbf576320cf80f960e01b8552600485fd5b5060135461224f565b50858552601860205260ff60408620541615611dba565b6309550c7760e01b8452600484fd5b9596959091501561288b57828252601960205260ff60408320541661287c5782825260176020526122d96040832054600c5490611924565b421061286d57609684028481046096148515171561256657612710900491612305836103998188611bd7565b9261230f846132b1565b968294839187855260166020526040852054928984151580612864575b61281a575b81610399876103998161234395611bd7565b61234d898d611bd7565b9650851515806127fb575b6127dc575b6000928398849380612591575b50906123769291612c4b565b8882526016602052604082205486811161258257825b8a84526016602052604084205589835260166020526040832054604051918252602082015286604082015260806060820152600460808201526314d1531360e21b60a0820152897ffa935fe56c7e4dc5d59a584d81aa99b9714c92d3b1cb2e7e329969203c3fd22660c04293a387158061257a57612710890290898204612710141715612566576109c49004965b6124248680611924565b9361242f8a89611bd7565b93806125525750604051948c8652602086015286604086015286606086015260808501528b60a08501528460c08501528760e0850152886101008501526000610120850152610140840152610160830152610180820152836101a082015260006101c0820152867f14f1a00236d7bca73ddcf087e3d43ca785808697c6fde3616f17d02d6f2c68e36101e04293a38560005260166020526124d66040600020549280611924565b9260046040516314d1531360e21b815220986040519889526020890152604088015260608701526080860152600060a0860152600060c086015260e085015261010084015261012083015260006101408301527f681f1f0fb3679a87b3423967dfa2ec97150b706d392eada5b3617c7508afc7656101604293a4565b634e487b7160e01b81526011600452602490fd5b634e487b7160e01b83526011600452602483fd5b50819661241a565b61258c8782611bd7565b61238c565b806125a06125a5923085612c4b565b6133e7565b801580156125b4575b5061236a565b919a509350600a840290848204600a1417156127c85760196125d891048094611bd7565b92806126c1575b836125f0575b9298612376386125ae565b600b5484906001600160a01b031680156126a85761263d916020915b60405163a9059cbb60e01b81526001600160a01b039091166004820152602481019190915291829081906044820190565b0381897f00000000000000000000000000000000000000000000000000000000000000006001600160a01b03165af1801561210d579061237694939291612689575b50909192506125e5565b6126a19060203d602011611a4e57611a43818361181c565b503861267f565b50600a5461263d916020916001600160a01b031661260c565b60075460405163095ea7b360e01b81526001600160a01b0390911660048201526024810182905260208180604481010381897f00000000000000000000000000000000000000000000000000000000000000006001600160a01b03165af1801561210d576127ab575b506007546001600160a01b0316803b15612118578580916024604051809481936345efb3f960e11b83528760048401525af1801561210d57612797575b507f14164d84b45b7c78b262f5a0a6e5ce9db145a21b0c02951209c371bdece6c7e56020604051838152a16125df565b856127a49196929661181c565b9338612767565b6127c39060203d602011611a4e57611a43818361181c565b61272a565b634e487b7160e01b85526011600452602485fd5b6127e786308a612c4b565b6127f386600e54611924565b600e5561235d565b61280687308b612c4b565b61281287600d54611924565b600d55612358565b50509550612828828a611bd7565b6109c48102908082046109c414901517156127c8576127109004958884808c612851868c611c49565b9061285b91611be4565b92915050612331565b50848c1161232c565b63465fd09160e01b8252600482fd5b6309550c7760e01b8252600482fd5b9050612898939150612c4b565b611fb56129f3565b915050611fb593949150612c4b565b506001600160a01b03871683526018602052604083205460ff16611d6a565b506001600160a01b03871615611d4f565b6128ee600d54600e5490611924565b600f54811015806129e6575b6129015750565b612909612e09565b156129865760405190815260606020820152600e60608201526d10555513d7d512149154d213d31160921b60808201524260408201527f0d8296aa488bfcef418c563cfdccad96b64e0d82f06eda3fe90068d39c9fb85c60a03392a2600160ff19601554161760155561297a613021565b60ff1960155416601555565b60a07fe87b88b4c27d1729d389885f3f6648294b68791762d08e1bc96ece2f6dff0b1491604051908152606060208201526016606082015275494e53554646494349454e545f4c495155494449545960501b6080820152426040820152a1565b5060ff60155416156128fa565b6008546001600160a01b03168015611a4b5760206000916004604051809481936327d16ce960e11b83525af160009181612a91575b50612a305750565b80612a385750565b60176040517f46554e445f52454c41595f444953545249425554494f4e00000000000000000081522060405191825230917fdc0542397de1d347eb80cba6dcba197e295e2516706ef1dd5a16d8ac5fb3eeda60203092a4565b90916020823d602011612abd575b81612aac6020938361181c565b810103126103ac5750519038612a28565b3d9150612a9f565b62278d006011557fdbeb6ec948f6eb874ecbd6117742652c35d57fbe578b778b77e677a06af90b96602060405162278d008152a1565b91908215612b73578281612b1f92151580612b6a575b612b1a90611c04565b611c49565b916103e88302928084046103e8149015171561190e57612b3e91611bd7565b6103e58102908082046103e5149015171561190e57612b5c91611be4565b6001810180911161190e5790565b50831515612b11565b60405162461bcd60e51b815260206004820152601a60248201527f496e73756666696369656e74206f757470757420616d6f756e740000000000006044820152606490fd5b6001600160a01b0316908115612c35576001600160a01b0316918215612c1f5760207f8c5be1e5ebec7d5bd14f71427d1e84f3dd0314c0f7b2291e5b200ac8c7c3b925918360005260018252604060002085600052825280604060002055604051908152a3565b634a1406b160e11b600052600060045260246000fd5b63e602df0560e01b600052600060045260246000fd5b6001600160a01b03169081612cc75760207fddf252ad1be2c89b69c2b068fc378daa952ba7f163c4a11628f55a4df523b3ef91612c8a85600254611924565b6002555b6001600160a01b03169384612caf5780600254036002555b604051908152a3565b84600052600082526040600020818154019055612ca6565b816000526000602052604060002054838110612d17577fddf252ad1be2c89b69c2b068fc378daa952ba7f163c4a11628f55a4df523b3ef9184602092856000526000845203604060002055612c8e565b91905063391434e360e21b60005260045260245260445260646000fd5b6006546001600160a01b03908116929116829003612da1576001600160a01b0316818114612da1577f00000000000000000000000000000000000000000000000000000000000000006001600160a01b031614612d9b573303612d9657600190565b600090565b50600090565b5050600090565b6006546001600160a01b039081169216829003612da1576001600160a01b0316818114612da1577f00000000000000000000000000000000000000000000000000000000000000006001600160a01b031614612d9b573314612d9657600190565b612e18600d54600e5490611924565b8015612d9b573060005260006020528060406000205410612d9b57600654604051630240bc6b60e21b8152906001600160a01b0316606082600481845afa9182600091600094612ffd575b50612e715750505050600090565b604051630dfe168160e01b815290602082600481865afa918215611a5557600092612fdc575b506001600160a01b037f0000000000000000000000000000000000000000000000000000000000000000811692168203612fd65792905b6001600160a01b03831660009081526020818152604090912054936024604051809481936370a0823160e01b835260048301525afa908115611a5557600091612fa4575b506001600160701b03821693605f850293851594868104605f1486171561190e576064900411612f99576001600160701b0316605f810290808204605f149015171561190e576064900411612f90576e01fffffffffffffffffffffffffffe9060011b16918204600214171561190e576064900410612d9657600190565b50505050600090565b505050505050600090565b90506020813d602011612fce575b81612fbf6020938361181c565b8101031261178c575138612f12565b3d9150612fb2565b90612ece565b612ff691925060203d602011611b9857611b8a818361181c565b9038612e97565b909350613019915060603d606011611bd057611bbd818361181c565b509238612e63565b600d546000600e54916130348382611924565b156132ac5781600d5581600e5581928291806131e2575b816130de575b9061305b91611924565b9160018060a01b03600754169060018060a01b03600a54169260106040516f414343554d554c415445445f4645455360801b8152209560405195865260208601528160408601526060850152608084015260a083015260c08201527f86e133fbf1e40a6a97b6c78d78538f95f9c3b84ec08e1a53eb43fb050d9acb9460e04292a3565b60075460405163095ea7b360e01b81526001600160a01b0390911660048201526024810183905290949060208160448188305af180156131ba576131c5575b506007546001600160a01b0316803b1561210957848091602460405180948193634038e05360e01b83528860048401525af180156131ba5761319c575b50906131938161305b937f14164d84b45b7c78b262f5a0a6e5ce9db145a21b0c02951209c371bdece6c7e56020604051848152a1611924565b94909150613051565b82856131b061305b9594976131939461181c565b959250925061315a565b6040513d87823e3d90fd5b6131dd9060203d602011611a4e57611a43818361181c565b61311d565b91506131ed826133e7565b9182151580613298575b1561304b57600a5460405163a9059cbb60e01b81526001600160a01b0390911660048201526024810184905290945060208180604481010381877f00000000000000000000000000000000000000000000000000000000000000006001600160a01b03165af1801561328d57613270575b50819361304b565b6132889060203d602011611a4e57611a43818361181c565b613268565b6040513d86823e3d90fd5b50600a546001600160a01b031615156131f7565b505050565b600654604051630240bc6b60e21b81526001600160a01b039091169190606081600481865afa92836000926000956133bf575b506132f25750505050600090565b602060049160405192838092630dfe168160e01b82525afa908115611a55576000916133a0575b506001600160a01b039081167f000000000000000000000000000000000000000000000000000000000000000090911603613392576001600160701b0390925b1680151580613380575b61336d5780612f90565b6001600160701b03611cb8931691611c5c565b506001600160701b0383161515613363565b6001600160701b0390613359565b6133b9915060203d602011611b9857611b8a818361181c565b38613319565b9094506133dc91925060603d606011611bd057611bbd818361181c565b5091909193386132e4565b6133ff90600160ff1960155416176015556000613481565b9060ff1960155416601555565b600060443d10611cb8576040513d600319016004823e8051913d602484011167ffffffffffffffff84111761347b578282019283519167ffffffffffffffff8311613473573d840160031901858401602001116134735750611cb89291016020019061181c565b949350505050565b92915050565b5060009080158015613974575b6139705760606040516134a1828261181c565b6002815260208101601f19830136823781511561395c5730815281516001101561395c576001600160a01b037f000000000000000000000000000000000000000000000000000000000000000081166040840181905292907f000000000000000000000000000000000000000000000000000000000000000016613526868230612bb8565b6008546001600160a01b0316801561395457925b6040516370a0823160e01b815230600482015293602085602481895afa948515613949578995613911575b5061012c4201908142116138fd57833b156138f9579391899391604051958694635c11d79560e01b865260a48601908c600488015287602488015260a060448801525180915260c486019390875b8181106138d4575050506001600160a01b03166064850152608484015282900390829084905af190816138c0575b506136a4575050907f23710c5e610526df3c632bc797fb4914964991cc07e128ee2af743aeed319e06918360033d11613694575b6308c379a014613659575b60a091601260405192808452830152712ab735b737bbb71039bbb0b81032b93937b960711b60808301526020820152426040820152a190565b61366161340c565b918261366e579150613620565b613682604051938385948552840190611791565b9060208301524260408301520390a190565b50600484803e835160e01c613615565b6008546001600160a01b03169182156137c1575050602084916004604051809781936327d16ce960e11b83525af193841561058357819461378d575b5083156136ee575b50505090565b7f23710c5e610526df3c632bc797fb4914964991cc07e128ee2af743aeed319e0660a07f163a4024b77f02bfab6d1e18c917f413dc151008cf420bf1e0309f0cf8d7b1fa94604051908582526019868301527f46756e6452656c6179207472616e73666572206661696c65640000000000000060808301526020820152426040820152a1604051908082526020820152426040820152a13880806136e8565b9093506020813d6020116137b9575b816137a96020938361181c565b8101031261178c575192386136e0565b3d915061379c565b6040516370a0823160e01b815230600482015294959394919250602090829060249082905afa9081156138b5578391613883575b508181111561387b576138089250611bd7565b915b821561381557505090565b7f23710c5e610526df3c632bc797fb4914964991cc07e128ee2af743aeed319e069160a091601e604051928084528301527f44697265637420737761702072657475726e6564207a65726f2055534454000060808301526020820152426040820152a190565b50509161380a565b90506020813d6020116138ad575b8161389e6020938361181c565b8101031261178c5751386137f5565b3d9150613891565b6040513d85823e3d90fd5b866138cd9197929761181c565b94386135e1565b82516001600160a01b031686528e9850899750602095860195909201916001016135b3565b8980fd5b634e487b7160e01b8a52601160045260248afd5b9094506020813d602011613941575b8161392d6020938361181c565b8101031261393d57519338613565565b8880fd5b3d9150613920565b6040513d8b823e3d90fd5b50309261353a565b634e487b7160e01b85526032600452602485fd5b5090565b50308252816020528060408320541061348e565b600654604051630240bc6b60e21b81526001600160a01b0390911690606081600481855afa9182600092600094613aad575b506139c55750505090565b602060049160405192838092630dfe168160e01b82525afa908115611a5557600091613a8e575b506001600160a01b039081167f000000000000000000000000000000000000000000000000000000000000000090911603613a80576001600160701b0390915b169081151580613a6e575b613a4157806136e8565b612710830292808404612710149015171561190e576001600160701b036125e4611cb89404911690612afb565b506001600160701b0381161515613a37565b6001600160701b0390613a2c565b613aa7915060203d602011611b9857611b8a818361181c565b386139ec565b909350613aca91925060603d606011611bd057611bbd818361181c565b5091909192386139ba56fea264697066735822122060f95a083e50f72f6157c5734f465f8c8fda95925927ed119f5122d2360e81fd64736f6c634300081c0033",
  "linkReferences": {},
  "deployedLinkReferences": {}
}