{
  "_format": "hh-sol-artifact-1",
  "contractName": "FundRelay",
  "sourceName": "contracts/utils/FundRelay.sol",
  "abi": [
    {
      "inputs": [
        {
          "internalType": "address",
          "name": "_usdt",
          "type": "address"
        },
        {
          "internalType": "address",
          "name": "_ola",
          "type": "address"
        }
      ],
      "stateMutability": "nonpayable",
      "type": "constructor"
    },
    {
      "inputs": [
        {
          "internalType": "address",
          "name": "owner",
          "type": "address"
        }
      ],
      "name": "OwnableInvalidOwner",
      "type": "error"
    },
    {
      "inputs": [
        {
          "internalType": "address",
          "name": "account",
          "type": "address"
        }
      ],
      "name": "OwnableUnauthorizedAccount",
      "type": "error"
    },
    {
      "anonymous": false,
      "inputs": [
        {
          "indexed": true,
          "internalType": "address",
          "name": "previousOwner",
          "type": "address"
        },
        {
          "indexed": true,
          "internalType": "address",
          "name": "newOwner",
          "type": "address"
        }
      ],
      "name": "OwnershipTransferred",
      "type": "event"
    },
    {
      "inputs": [],
      "name": "OLA",
      "outputs": [
        {
          "internalType": "contract IERC20",
          "name": "",
          "type": "address"
        }
      ],
      "stateMutability": "view",
      "type": "function"
    },
    {
      "inputs": [],
      "name": "USDT",
      "outputs": [
        {
          "internalType": "contract IERC20",
          "name": "",
          "type": "address"
        }
      ],
      "stateMutability": "view",
      "type": "function"
    },
    {
      "inputs": [
        {
          "internalType": "address",
          "name": "token",
          "type": "address"
        },
        {
          "internalType": "uint256",
          "name": "amount",
          "type": "uint256"
        }
      ],
      "name": "emergencyWithdraw",
      "outputs": [],
      "stateMutability": "nonpayable",
      "type": "function"
    },
    {
      "inputs": [],
      "name": "owner",
      "outputs": [
        {
          "internalType": "address",
          "name": "",
          "type": "address"
        }
      ],
      "stateMutability": "view",
      "type": "function"
    },
    {
      "inputs": [],
      "name": "receiveAndForward",
      "outputs": [
        {
          "internalType": "uint256",
          "name": "amount",
          "type": "uint256"
        }
      ],
      "stateMutability": "nonpayable",
      "type": "function"
    },
    {
      "inputs": [],
      "name": "renounceOwnership",
      "outputs": [],
      "stateMutability": "nonpayable",
      "type": "function"
    },
    {
      "inputs": [
        {
          "internalType": "address",
          "name": "newOwner",
          "type": "address"
        }
      ],
      "name": "transferOwnership",
      "outputs": [],
      "stateMutability": "nonpayable",
      "type": "function"
    },
    {
      "inputs": [
        {
          "internalType": "uint256",
          "name": "amount",
          "type": "uint256"
        }
      ],
      "name": "withdrawOLAToContract",
      "outputs": [],
      "stateMutability": "nonpayable",
      "type": "function"
    },
    {
      "inputs": [
        {
          "internalType": "uint256",
          "name": "amount",
          "type": "uint256"
        }
      ],
      "name": "withdrawToOLA",
      "outputs": [],
      "stateMutability": "nonpayable",
      "type": "function"
    }
  ],
  "bytecode": "0x60c0346100fb57601f6106ac38819003918201601f19168301916001600160401b038311848410176101005780849260409485528339810103126100fb57610052602061004b83610116565b9201610116565b33156100e55760008054336001600160a01b0319821681178355604051949290916001600160a01b0316907f8be0079c531659141344cd1fd0a4f28419497f9722a3daafe3b4186f6b6457e09080a36001600160a01b039081166080521660a052610581908161012b823960805181818161021401528181610362015261048e015260a0518181816095015261019a0152f35b631e4fbdf760e01b600052600060045260246000fd5b600080fd5b634e487b7160e01b600052604160045260246000fd5b51906001600160a01b03821682036100fb5756fe6080604052600436101561001257600080fd5b60003560e01c8063492a1305146104465780634fa2d9d21461033c578063715018a6146102e35780638da5cb5b146102ba57806395ccea6714610243578063c54e44eb146101fe578063ee752efe14610152578063f2fde38b146100c95763ff0e3ccb1461007f57600080fd5b346100c45760003660031901126100c4576040517f00000000000000000000000000000000000000000000000000000000000000006001600160a01b03168152602090f35b600080fd5b346100c45760203660031901126100c4576100e26104bc565b6100ea610522565b6001600160a01b0316801561013c57600080546001600160a01b03198116831782556001600160a01b0316907f8be0079c531659141344cd1fd0a4f28419497f9722a3daafe3b4186f6b6457e09080a3005b631e4fbdf760e01b600052600060045260246000fd5b346100c45760203660031901126100c45761016b610522565b60405163a9059cbb60e01b81523360048083019190915235602482015260208160448160006001600160a01b037f0000000000000000000000000000000000000000000000000000000000000000165af180156101f2576101c857005b6101e99060203d6020116101eb575b6101e181836104d2565b81019061050a565b005b503d6101d7565b6040513d6000823e3d90fd5b346100c45760003660031901126100c4576040517f00000000000000000000000000000000000000000000000000000000000000006001600160a01b03168152602090f35b346100c45760403660031901126100c457600060206102a16102636104bc565b61026b610522565b835460405163a9059cbb60e01b81526001600160a01b039091166004820152602480359082015293849283919082906044820190565b03926001600160a01b03165af180156101f2576101c857005b346100c45760003660031901126100c4576000546040516001600160a01b039091168152602090f35b346100c45760003660031901126100c4576102fc610522565b600080546001600160a01b0319811682556001600160a01b03167f8be0079c531659141344cd1fd0a4f28419497f9722a3daafe3b4186f6b6457e08280a3005b346100c45760003660031901126100c4576040516370a0823160e01b81523060048201527f00000000000000000000000000000000000000000000000000000000000000006001600160a01b031690602081602481855afa9081156101f257600091610411575b50806103b5575b602090604051908152f35b60405163a9059cbb60e01b81523360048201526024810182905291602090839060449082906000905af19182156101f2576020926103f4575b506103aa565b61040a90833d85116101eb576101e181836104d2565b50826103ee565b906020823d60201161043e575b8161042b602093836104d2565b8101031261043b575051826103a3565b80fd5b3d915061041e565b346100c45760203660031901126100c45761045f610522565b60405163a9059cbb60e01b81523360048083019190915235602482015260208160448160006001600160a01b037f0000000000000000000000000000000000000000000000000000000000000000165af180156101f2576101c857005b600435906001600160a01b03821682036100c457565b90601f8019910116810190811067ffffffffffffffff8211176104f457604052565b634e487b7160e01b600052604160045260246000fd5b908160209103126100c4575180151581036100c45790565b6000546001600160a01b0316330361053657565b63118cdaa760e01b6000523360045260246000fdfea264697066735822122011cfa759f59f6875431e7e8046a9e26dd15726b6d505aad149eb66da91f0a2b564736f6c634300081c0033",
  "linkReferences": {},
  "deployedLinkReferences": {}
}