{
  "_format": "hh-sol-artifact-1",
  "contractName": "PancakePair",
  "sourceName": "contracts/PancakeFactory.sol",
  "abi": [
    {
      "inputs": [],
      "stateMutability": "nonpayable",
      "type": "constructor"
    },
    {
      "anonymous": false,
      "inputs": [
        {
          "indexed": true,
          "internalType": "address",
          "name": "owner",
          "type": "address"
        },
        {
          "indexed": true,
          "internalType": "address",
          "name": "spender",
          "type": "address"
        },
        {
          "indexed": false,
          "internalType": "uint256",
          "name": "value",
          "type": "uint256"
        }
      ],
      "name": "Approval",
      "type": "event"
    },
    {
      "anonymous": false,
      "inputs": [
        {
          "indexed": true,
          "internalType": "address",
          "name": "sender",
          "type": "address"
        },
        {
          "indexed": false,
          "internalType": "uint256",
          "name": "amount0",
          "type": "uint256"
        },
        {
          "indexed": false,
          "internalType": "uint256",
          "name": "amount1",
          "type": "uint256"
        },
        {
          "indexed": true,
          "internalType": "address",
          "name": "to",
          "type": "address"
        }
      ],
      "name": "Burn",
      "type": "event"
    },
    {
      "anonymous": false,
      "inputs": [
        {
          "indexed": true,
          "internalType": "address",
          "name": "sender",
          "type": "address"
        },
        {
          "indexed": false,
          "internalType": "uint256",
          "name": "amount0",
          "type": "uint256"
        },
        {
          "indexed": false,
          "internalType": "uint256",
          "name": "amount1",
          "type": "uint256"
        }
      ],
      "name": "Mint",
      "type": "event"
    },
    {
      "anonymous": false,
      "inputs": [
        {
          "indexed": true,
          "internalType": "address",
          "name": "sender",
          "type": "address"
        },
        {
          "indexed": false,
          "internalType": "uint256",
          "name": "amount0In",
          "type": "uint256"
        },
        {
          "indexed": false,
          "internalType": "uint256",
          "name": "amount1In",
          "type": "uint256"
        },
        {
          "indexed": false,
          "internalType": "uint256",
          "name": "amount0Out",
          "type": "uint256"
        },
        {
          "indexed": false,
          "internalType": "uint256",
          "name": "amount1Out",
          "type": "uint256"
        },
        {
          "indexed": true,
          "internalType": "address",
          "name": "to",
          "type": "address"
        }
      ],
      "name": "Swap",
      "type": "event"
    },
    {
      "anonymous": false,
      "inputs": [
        {
          "indexed": false,
          "internalType": "uint112",
          "name": "reserve0",
          "type": "uint112"
        },
        {
          "indexed": false,
          "internalType": "uint112",
          "name": "reserve1",
          "type": "uint112"
        }
      ],
      "name": "Sync",
      "type": "event"
    },
    {
      "anonymous": false,
      "inputs": [
        {
          "indexed": true,
          "internalType": "address",
          "name": "from",
          "type": "address"
        },
        {
          "indexed": true,
          "internalType": "address",
          "name": "to",
          "type": "address"
        },
        {
          "indexed": false,
          "internalType": "uint256",
          "name": "value",
          "type": "uint256"
        }
      ],
      "name": "Transfer",
      "type": "event"
    },
    {
      "inputs": [],
      "name": "DOMAIN_SEPARATOR",
      "outputs": [
        {
          "internalType": "bytes32",
          "name": "",
          "type": "bytes32"
        }
      ],
      "stateMutability": "view",
      "type": "function"
    },
    {
      "inputs": [],
      "name": "PERMIT_TYPEHASH",
      "outputs": [
        {
          "internalType": "bytes32",
          "name": "",
          "type": "bytes32"
        }
      ],
      "stateMutability": "view",
      "type": "function"
    },
    {
      "inputs": [
        {
          "internalType": "address",
          "name": "",
          "type": "address"
        },
        {
          "internalType": "address",
          "name": "",
          "type": "address"
        }
      ],
      "name": "allowance",
      "outputs": [
        {
          "internalType": "uint256",
          "name": "",
          "type": "uint256"
        }
      ],
      "stateMutability": "view",
      "type": "function"
    },
    {
      "inputs": [
        {
          "internalType": "address",
          "name": "spender",
          "type": "address"
        },
        {
          "internalType": "uint256",
          "name": "value",
          "type": "uint256"
        }
      ],
      "name": "approve",
      "outputs": [
        {
          "internalType": "bool",
          "name": "",
          "type": "bool"
        }
      ],
      "stateMutability": "nonpayable",
      "type": "function"
    },
    {
      "inputs": [
        {
          "internalType": "address",
          "name": "",
          "type": "address"
        }
      ],
      "name": "balanceOf",
      "outputs": [
        {
          "internalType": "uint256",
          "name": "",
          "type": "uint256"
        }
      ],
      "stateMutability": "view",
      "type": "function"
    },
    {
      "inputs": [
        {
          "internalType": "address",
          "name": "to",
          "type": "address"
        }
      ],
      "name": "burn",
      "outputs": [
        {
          "internalType": "uint256",
          "name": "amount0",
          "type": "uint256"
        },
        {
          "internalType": "uint256",
          "name": "amount1",
          "type": "uint256"
        }
      ],
      "stateMutability": "nonpayable",
      "type": "function"
    },
    {
      "inputs": [],
      "name": "decimals",
      "outputs": [
        {
          "internalType": "uint8",
          "name": "",
          "type": "uint8"
        }
      ],
      "stateMutability": "view",
      "type": "function"
    },
    {
      "inputs": [],
      "name": "factory",
      "outputs": [
        {
          "internalType": "address",
          "name": "",
          "type": "address"
        }
      ],
      "stateMutability": "view",
      "type": "function"
    },
    {
      "inputs": [],
      "name": "getReserves",
      "outputs": [
        {
          "internalType": "uint112",
          "name": "_reserve0",
          "type": "uint112"
        },
        {
          "internalType": "uint112",
          "name": "_reserve1",
          "type": "uint112"
        },
        {
          "internalType": "uint32",
          "name": "_blockTimestampLast",
          "type": "uint32"
        }
      ],
      "stateMutability": "view",
      "type": "function"
    },
    {
      "inputs": [
        {
          "internalType": "address",
          "name": "_token0",
          "type": "address"
        },
        {
          "internalType": "address",
          "name": "_token1",
          "type": "address"
        }
      ],
      "name": "initialize",
      "outputs": [],
      "stateMutability": "nonpayable",
      "type": "function"
    },
    {
      "inputs": [],
      "name": "kLast",
      "outputs": [
        {
          "internalType": "uint256",
          "name": "",
          "type": "uint256"
        }
      ],
      "stateMutability": "view",
      "type": "function"
    },
    {
      "inputs": [
        {
          "internalType": "address",
          "name": "to",
          "type": "address"
        }
      ],
      "name": "mint",
      "outputs": [
        {
          "internalType": "uint256",
          "name": "liquidity",
          "type": "uint256"
        }
      ],
      "stateMutability": "nonpayable",
      "type": "function"
    },
    {
      "inputs": [],
      "name": "name",
      "outputs": [
        {
          "internalType": "string",
          "name": "",
          "type": "string"
        }
      ],
      "stateMutability": "view",
      "type": "function"
    },
    {
      "inputs": [
        {
          "internalType": "address",
          "name": "",
          "type": "address"
        }
      ],
      "name": "nonces",
      "outputs": [
        {
          "internalType": "uint256",
          "name": "",
          "type": "uint256"
        }
      ],
      "stateMutability": "view",
      "type": "function"
    },
    {
      "inputs": [],
      "name": "price0CumulativeLast",
      "outputs": [
        {
          "internalType": "uint256",
          "name": "",
          "type": "uint256"
        }
      ],
      "stateMutability": "view",
      "type": "function"
    },
    {
      "inputs": [],
      "name": "price1CumulativeLast",
      "outputs": [
        {
          "internalType": "uint256",
          "name": "",
          "type": "uint256"
        }
      ],
      "stateMutability": "view",
      "type": "function"
    },
    {
      "inputs": [
        {
          "internalType": "address",
          "name": "to",
          "type": "address"
        }
      ],
      "name": "skim",
      "outputs": [],
      "stateMutability": "nonpayable",
      "type": "function"
    },
    {
      "inputs": [
        {
          "internalType": "uint256",
          "name": "amount0Out",
          "type": "uint256"
        },
        {
          "internalType": "uint256",
          "name": "amount1Out",
          "type": "uint256"
        },
        {
          "internalType": "address",
          "name": "to",
          "type": "address"
        },
        {
          "internalType": "bytes",
          "name": "data",
          "type": "bytes"
        }
      ],
      "name": "swap",
      "outputs": [],
      "stateMutability": "nonpayable",
      "type": "function"
    },
    {
      "inputs": [],
      "name": "symbol",
      "outputs": [
        {
          "internalType": "string",
          "name": "",
          "type": "string"
        }
      ],
      "stateMutability": "view",
      "type": "function"
    },
    {
      "inputs": [],
      "name": "sync",
      "outputs": [],
      "stateMutability": "nonpayable",
      "type": "function"
    },
    {
      "inputs": [],
      "name": "token0",
      "outputs": [
        {
          "internalType": "address",
          "name": "",
          "type": "address"
        }
      ],
      "stateMutability": "view",
      "type": "function"
    },
    {
      "inputs": [],
      "name": "token1",
      "outputs": [
        {
          "internalType": "address",
          "name": "",
          "type": "address"
        }
      ],
      "stateMutability": "view",
      "type": "function"
    },
    {
      "inputs": [],
      "name": "totalSupply",
      "outputs": [
        {
          "internalType": "uint256",
          "name": "",
          "type": "uint256"
        }
      ],
      "stateMutability": "view",
      "type": "function"
    },
    {
      "inputs": [
        {
          "internalType": "address",
          "name": "to",
          "type": "address"
        },
        {
          "internalType": "uint256",
          "name": "value",
          "type": "uint256"
        }
      ],
      "name": "transfer",
      "outputs": [
        {
          "internalType": "bool",
          "name": "",
          "type": "bool"
        }
      ],
      "stateMutability": "nonpayable",
      "type": "function"
    },
    {
      "inputs": [
        {
          "internalType": "address",
          "name": "from",
          "type": "address"
        },
        {
          "internalType": "address",
          "name": "to",
          "type": "address"
        },
        {
          "internalType": "uint256",
          "name": "value",
          "type": "uint256"
        }
      ],
      "name": "transferFrom",
      "outputs": [
        {
          "internalType": "bool",
          "name": "",
          "type": "bool"
        }
      ],
      "stateMutability": "nonpayable",
      "type": "function"
    }
  ],
  "bytecode": "0x60808060405234602c576001600955600a80546001600160a01b03191633179055611a0490816100328239f35b600080fdfe6080604052600436101561001257600080fd5b60003560e01c8063022c0d9f14610f0057806306fdde0314610eb75780630902f1ac14610e76578063095ea7b314610dfc5780630dfe168114610dd357806318160ddd14610db557806323b872dd14610d2557806330adf81f14610cea578063313ce56714610cce5780633644e51514610cb0578063485cc95514610c0b5780635909c0d514610bed5780635a3d549314610bcf5780636a627842146108bd57806370a08231146108835780637464fc3d146108655780637ecebe001461082b57806389afcb44146104c757806395d89b4114610482578063a9059cbb14610451578063bc25cf771461030c578063c45a0155146102e3578063d21220a7146102ba578063dd62ed3e146102695763fff6cae91461012f57600080fd5b3461021d57600036600319011261021d5761014e600160095414611473565b6000600955600b546040516370a0823160e01b815230600482015290602090829060249082906001600160a01b03165afa801561022a57600090610236575b600c546040516370a0823160e01b81523060048201529250602090839060249082906001600160a01b03165afa90811561022a576000916101ef575b6101e89250600554916001600160701b03808460701c16931691611621565b6001600955005b90506020823d602011610222575b8161020a602093836113f2565b8101031261021d576101e89151906101c9565b600080fd5b3d91506101fd565b6040513d6000823e3d90fd5b506020813d602011610261575b81610250602093836113f2565b8101031261021d576024905161018d565b3d9150610243565b3461021d57604036600319011261021d576102826113c6565b61028a6113dc565b6001600160a01b039182166000908152600260209081526040808320949093168252928352819020549051908152f35b3461021d57600036600319011261021d57600c546040516001600160a01b039091168152602090f35b3461021d57600036600319011261021d57600a546040516001600160a01b039091168152602090f35b3461021d57602036600319011261021d576103256113c6565b610333600160095414611473565b6000600955600b54600c546040516370a0823160e01b81523060048201526001600160a01b0391821692909116602082602481845afa91821561022a578490600093610419575b5061039461039a936001600160701b0360055416906114b5565b91611517565b6040516370a0823160e01b815230600482015291602083602481855afa92831561022a576000936103e3575b506103946101e8936001600160701b0360055460701c16906114b5565b92506020833d602011610411575b816103fe602093836113f2565b8101031261021d579151916103946103c6565b3d91506103f1565b9250506020823d602011610449575b81610435602093836113f2565b8101031261021d579051908361039461037a565b3d9150610428565b3461021d57604036600319011261021d5761047761046d6113c6565b6024359033611781565b602060405160018152f35b3461021d57600036600319011261021d576104c360408051906104a581836113f2565b6007825266043616b652d4c560cc1b6020830152519182918261142a565b0390f35b3461021d57602036600319011261021d576104e06113c6565b6104ee600160095414611473565b60006009556104fb6114d5565b50600b54600c546040516370a0823160e01b815230600482015293946001600160a01b03928316949190921692602082602481885afa91821561022a576000926107f7575b506040516370a0823160e01b815230600482015294602086602481885afa95861561022a576000966107c3575b50306000526001602052604060002054946105ad6105a16105a16105a6610594878d6117e2565b976000549384918c6114c2565b6114f7565b99896114c2565b95871515806107ba575b1561076257602492600060209230825260018452604082206105da8282546114b5565b90556105e78183546114b5565b82556040519081526000805160206119af833981519152843092a361060d898883611517565b610618888885611517565b6040516370a0823160e01b815230600482015293849182905afa91821561022a5760009261072d575b50906020602492604051938480926370a0823160e01b82523060048301525afa91821561022a576000926106f2575b509661067f9291604098611621565b6106cf575b83519083825282602083015260018060a01b0316907fdccd412f0b1252819cb1fd330b93224ca42612892bb3f4f789976e6d81936496853392a3600160095582519182526020820152f35b6106ea6005546001600160701b03808260701c1691166114c2565b600855610684565b929150966020833d602011610725575b8161070f602093836113f2565b8101031261021d57915191969091906040610670565b3d9150610702565b91506020823d60201161075a575b81610748602093836113f2565b8101031261021d579051906020610641565b3d915061073b565b60405162461bcd60e51b815260206004820152602a60248201527f50616e63616b65537761703a20494e53554646494349454e545f4c495155494460448201526912551657d0955493915160b21b6064820152608490fd5b508615156105b7565b9095506020813d6020116107ef575b816107df602093836113f2565b8101031261021d5751948761056d565b3d91506107d2565b9091506020813d602011610823575b81610813602093836113f2565b8101031261021d57519086610540565b3d9150610806565b3461021d57602036600319011261021d576001600160a01b0361084c6113c6565b1660005260046020526020604060002054604051908152f35b3461021d57600036600319011261021d576020600854604051908152f35b3461021d57602036600319011261021d576001600160a01b036108a46113c6565b1660005260016020526020604060002054604051908152f35b3461021d57602036600319011261021d5760246108d86113c6565b6108e6600160095414611473565b600060095560006108f56114d5565b50600b546040516370a0823160e01b81523060048201529592939260209187919082906001600160a01b03165afa938415610bc4578294610b8b575b600c546040516370a0823160e01b8152306004820152959650602090869060249082906001600160a01b03165afa948515610b80578395610b48575b506001600160701b0384169161098383886114b5565b946001600160701b0382169361099985896114b5565b95876109a585856117e2565b968254938415600014610b145750506109ca92506109c5915087906114c2565b611918565b6103e7198101908111610afe57966000546103e88101809111610afe5760005560008052600160205260406000208054906103e88201809211610afe57556000806000805160206119af83398151915260206040516103e88152a35b8715610aa657602098610a3c89610a419661196e565b611621565b610a83575b604051918252838201527f4c209b5fc8ad50758f13e2e1088ba56a560dff690a1c6fef26394f4c03821c4f60403392a26001600955604051908152f35b610a9e6005546001600160701b03808260701c1691166114c2565b600855610a46565b60405162461bcd60e51b815260206004820152602a60248201527f50616e63616b65537761703a20494e53554646494349454e545f4c495155494460448201526912551657d3525395115160b21b6064820152608490fd5b634e487b7160e01b600052601160045260246000fd5b610b286105a1916105a187610b2f966114c2565b948a6114c2565b905080821015610b4157505b96610a26565b9050610b3b565b9094506020813d602011610b78575b81610b64602093836113f2565b81010312610b745751938661096d565b8280fd5b3d9150610b57565b6040513d85823e3d90fd5b93506020853d602011610bbc575b81610ba6602093836113f2565b81010312610bb8579351929384610931565b5080fd5b3d9150610b99565b6040513d84823e3d90fd5b3461021d57600036600319011261021d576020600754604051908152f35b3461021d57600036600319011261021d576020600654604051908152f35b3461021d57604036600319011261021d57610c246113c6565b610c2c6113dc565b600a549091906001600160a01b03163303610c7257600b80546001600160a01b039283166001600160a01b031991821617909155600c8054939092169216919091179055005b60405162461bcd60e51b81526020600482015260166024820152752830b731b0b5b2a9bbb0b81d102327a92124a22222a760511b6044820152606490fd5b3461021d57600036600319011261021d576020600354604051908152f35b3461021d57600036600319011261021d57602060405160128152f35b3461021d57600036600319011261021d5760206040517f6e71edae12b1b97f4d1f60370fef10105fa2faae0126114a169c64845d6126c98152f35b3461021d57606036600319011261021d57610477610d416113c6565b610d496113dc565b6001600160a01b0382166000818152600260209081526040808320338452909152902054604435939190600101610d81575b50611781565b6000526002602052604060002060018060a01b0333166000526020526040600020610dad8482546114b5565b905584610d7b565b3461021d57600036600319011261021d576020600054604051908152f35b3461021d57600036600319011261021d57600b546040516001600160a01b039091168152602090f35b3461021d57604036600319011261021d57610e156113c6565b3360008181526002602090815260408083206001600160a01b03909516808452948252918290206024359081905591519182527f8c5be1e5ebec7d5bd14f71427d1e84f3dd0314c0f7b2291e5b200ac8c7c3b92591a3602060405160018152f35b3461021d57600036600319011261021d5760606001600160701b0363ffffffff610e9e6114d5565b9193908160405195168552166020840152166040820152f35b3461021d57600036600319011261021d576104c36040805190610eda81836113f2565b600f82526e50616e63616b6553776170204c507360881b6020830152519182918261142a565b3461021d57608036600319011261021d576044356001600160a01b03811660243560043582840361021d5760643567ffffffffffffffff811161021d573660238201121561021d57806004013567ffffffffffffffff811161021d573691016024011161021d57610f75600160095414611473565b6000600955801593841580956113bd575b1561136857610f936114d5565b506001600160701b038216929183851080611356575b1561130557600b54600c546001600160a01b0390811699911688811415806112fb575b156112b6576024946020926112a6575b8880611295575b50506040516370a0823160e01b815230600482015294859182905afa92831561022a5760009361125e575b50602060249798604051988980926370a0823160e01b82523060048301525afa96871561022a57600097611227575b5061104885856114b5565b600090841115611221575061106661106086866114b5565b846114b5565b965b6001600160701b0383169461107d88876114b5565b60009083111561121b575061109b61109589886114b5565b836114b5565b955b8915801581611212575b156111be576103e88702908782046103e81488151715610afe5760038c02908c82046003141715610afe576110db916114b5565b906103e88402918483046103e81485151715610afe5760038902908982046003148a151715610afe5761111461111a92611120956114b5565b906114c2565b926114c2565b90620f4240820291808304620f42401490151715610afe57106111885761114693611621565b6040519384526020840152604083015260608201527fd78ad95fa46c994b6551d0da85fc275fe613ce37657fb8d5e3d130840159d82260803392a36001600955005b60405162461bcd60e51b815260206004820152600e60248201526d50616e63616b65537761703a204b60901b6044820152606490fd5b60405162461bcd60e51b815260206004820152602660248201527f50616e63616b65537761703a20494e53554646494349454e545f494e5055545f604482015265105353d5539560d21b6064820152608490fd5b508715156110a7565b9561109d565b96611068565b90966020823d602011611256575b81611242602093836113f2565b81010312611253575051958861103d565b80fd5b3d9150611235565b97926020893d60201161128d575b81611279602093836113f2565b81010312611253575096519196602061100e565b3d915061126c565b61129f918c611517565b8a88610fe3565b6112b1888284611517565b610fdc565b60405162461bcd60e51b815260206004820152601760248201527f50616e63616b65537761703a20494e56414c49445f544f0000000000000000006044820152606490fd5b5089891415610fcc565b60405162461bcd60e51b815260206004820152602360248201527f50616e63616b65537761703a20494e53554646494349454e545f4c495155494460448201526249545960e81b6064820152608490fd5b506001600160701b0382168610610fa9565b60405162461bcd60e51b815260206004820152602760248201527f50616e63616b65537761703a20494e53554646494349454e545f4f555450555460448201526617d05353d5539560ca1b6064820152608490fd5b50821515610f86565b600435906001600160a01b038216820361021d57565b602435906001600160a01b038216820361021d57565b90601f8019910116810190811067ffffffffffffffff82111761141457604052565b634e487b7160e01b600052604160045260246000fd5b91909160208152825180602083015260005b81811061145d575060409293506000838284010152601f8019910116010190565b806020809287010151604082860101520161143c565b1561147a57565b60405162461bcd60e51b815260206004820152601360248201527214185b98d85ad954ddd85c0e881313d0d2d151606a1b6044820152606490fd5b91908203918211610afe57565b81810292918115918404141715610afe57565b6005546001600160701b038116916001600160701b038260701c169160e01c90565b8115611501570490565b634e487b7160e01b600052601260045260246000fd5b6000929183809360405190602082019363a9059cbb60e01b855260018060a01b031660248301526044820152604481526115526064826113f2565b51925af13d1561161a573d67ffffffffffffffff81116114145760405190611584601f8201601f1916602001836113f2565b81523d6000602083013e5b816115e2575b501561159d57565b60405162461bcd60e51b815260206004820152601c60248201527f50616e63616b65537761703a205452414e534645525f4641494c4544000000006044820152606490fd5b80518015925082156115f7575b505038611595565b819250906020918101031261021d5760200151801515810361021d5738806115ef565b606061158f565b926001600160701b0384111580611763575b156117265760055460e01c63ffffffff42160363ffffffff8111610afe577f1c411e9a96e071241c2f21f7726b17ae89e3cab4c78be50e062b03a9fffbbad1946040946001600160701b039363ffffffff859416918215158061171b575b80611710575b6116d0575b50505016918263ffffffff60e01b4260e01b16918360701b9060701b16171780600555835192835260701c166020820152a1565b611700918590846116e884841683851660701b6114f7565b026006540160065516908560701b9060701b166114f7565b026007540160075538808061169c565b508482161515611697565b508481161515611691565b60405162461bcd60e51b815260206004820152601560248201527450616e63616b65537761703a204f564552464c4f5760581b6044820152606490fd5b506001600160701b03821115611633565b91908201809211610afe57565b60206000805160206119af8339815191529160018060a01b031692836000526001825260406000206117b48682546114b5565b905560018060a01b031693846000526001825260406000206117d7828254611774565b9055604051908152a3565b600a54604051622fcfcb60e31b815292939290602090829060049082906001600160a01b03165afa90811561022a576000916118d6575b506008546001600160a01b038216158015959293919291906118c55782611841575b50505050565b6109c561185d916001600160701b0380611863951691166114c2565b91611918565b90818111611872575b8061183b565b61188260005461111484846114b5565b90600581029080820460051490151715610afe576118a9926118a391611774565b906114f7565b806118b5575b8061186c565b6118be9161196e565b38806118af565b505090506118cf57565b6000600855565b6020813d602011611910575b816118ef602093836113f2565b81010312610bb85751906001600160a01b0382168203611253575038611819565b3d91506118e2565b90600060038311156119615750818060011c60018101809111610afe57905b838210611942575050565b9092506119588361195381846114f7565b611774565b60011c90611937565b9161196857565b60019150565b6000805160206119af833981519152602060009261198d858554611774565b845560018060a01b03169384845260018252604084206117d782825461177456feddf252ad1be2c89b69c2b068fc378daa952ba7f163c4a11628f55a4df523b3efa2646970667358221220518251f776a99fe03bb15269b54d49ab0f93b8cfdfd4dcf9f569eff8b2aa923e64736f6c634300081c0033",
  "linkReferences": {},
  "deployedLinkReferences": {}
}