{
  "_format": "hh-sol-artifact-1",
  "contractName": "PancakeSwapDemo",
  "sourceName": "contracts/test-pancake/PancakeSwapDemo.sol",
  "abi": [
    {
      "inputs": [],
      "stateMutability": "nonpayable",
      "type": "constructor"
    },
    {
      "anonymous": false,
      "inputs": [
        {
          "indexed": false,
          "internalType": "address",
          "name": "tokenIn",
          "type": "address"
        },
        {
          "indexed": false,
          "internalType": "address",
          "name": "tokenOut",
          "type": "address"
        },
        {
          "indexed": false,
          "internalType": "uint256",
          "name": "amountIn",
          "type": "uint256"
        },
        {
          "indexed": false,
          "internalType": "uint256",
          "name": "amountOut",
          "type": "uint256"
        }
      ],
      "name": "PriceQueried",
      "type": "event"
    },
    {
      "anonymous": false,
      "inputs": [
        {
          "indexed": false,
          "internalType": "address",
          "name": "tokenIn",
          "type": "address"
        },
        {
          "indexed": false,
          "internalType": "address",
          "name": "tokenOut",
          "type": "address"
        },
        {
          "indexed": false,
          "internalType": "uint256",
          "name": "amountIn",
          "type": "uint256"
        },
        {
          "indexed": false,
          "internalType": "uint256",
          "name": "amountOut",
          "type": "uint256"
        }
      ],
      "name": "SwapExecuted",
      "type": "event"
    },
    {
      "inputs": [],
      "name": "BUSD",
      "outputs": [
        {
          "internalType": "address",
          "name": "",
          "type": "address"
        }
      ],
      "stateMutability": "view",
      "type": "function"
    },
    {
      "inputs": [],
      "name": "PANCAKE_FACTORY",
      "outputs": [
        {
          "internalType": "address",
          "name": "",
          "type": "address"
        }
      ],
      "stateMutability": "view",
      "type": "function"
    },
    {
      "inputs": [],
      "name": "PANCAKE_ROUTER",
      "outputs": [
        {
          "internalType": "address",
          "name": "",
          "type": "address"
        }
      ],
      "stateMutability": "view",
      "type": "function"
    },
    {
      "inputs": [],
      "name": "USDT",
      "outputs": [
        {
          "internalType": "address",
          "name": "",
          "type": "address"
        }
      ],
      "stateMutability": "view",
      "type": "function"
    },
    {
      "inputs": [],
      "name": "WBNB",
      "outputs": [
        {
          "internalType": "address",
          "name": "",
          "type": "address"
        }
      ],
      "stateMutability": "view",
      "type": "function"
    },
    {
      "inputs": [],
      "name": "factory",
      "outputs": [
        {
          "internalType": "contract IPancakeFactory",
          "name": "",
          "type": "address"
        }
      ],
      "stateMutability": "view",
      "type": "function"
    },
    {
      "inputs": [
        {
          "internalType": "uint256",
          "name": "amountBNB",
          "type": "uint256"
        }
      ],
      "name": "getBNBPrice",
      "outputs": [
        {
          "internalType": "uint256",
          "name": "amountBUSD",
          "type": "uint256"
        }
      ],
      "stateMutability": "view",
      "type": "function"
    },
    {
      "inputs": [
        {
          "internalType": "address",
          "name": "tokenA",
          "type": "address"
        },
        {
          "internalType": "address",
          "name": "tokenB",
          "type": "address"
        }
      ],
      "name": "getPairAddress",
      "outputs": [
        {
          "internalType": "address",
          "name": "pair",
          "type": "address"
        }
      ],
      "stateMutability": "view",
      "type": "function"
    },
    {
      "inputs": [
        {
          "internalType": "address",
          "name": "tokenA",
          "type": "address"
        },
        {
          "internalType": "address",
          "name": "tokenB",
          "type": "address"
        }
      ],
      "name": "getPairReserves",
      "outputs": [
        {
          "internalType": "uint112",
          "name": "reserve0",
          "type": "uint112"
        },
        {
          "internalType": "uint112",
          "name": "reserve1",
          "type": "uint112"
        },
        {
          "internalType": "address",
          "name": "token0",
          "type": "address"
        },
        {
          "internalType": "address",
          "name": "token1",
          "type": "address"
        }
      ],
      "stateMutability": "view",
      "type": "function"
    },
    {
      "inputs": [
        {
          "internalType": "uint256",
          "name": "amountIn",
          "type": "uint256"
        },
        {
          "internalType": "address",
          "name": "tokenIn",
          "type": "address"
        },
        {
          "internalType": "address",
          "name": "tokenOut",
          "type": "address"
        }
      ],
      "name": "getPrice",
      "outputs": [
        {
          "internalType": "uint256",
          "name": "amountOut",
          "type": "uint256"
        }
      ],
      "stateMutability": "view",
      "type": "function"
    },
    {
      "inputs": [
        {
          "internalType": "uint256",
          "name": "amountIn",
          "type": "uint256"
        },
        {
          "internalType": "address",
          "name": "tokenIn",
          "type": "address"
        },
        {
          "internalType": "address",
          "name": "tokenMid",
          "type": "address"
        },
        {
          "internalType": "address",
          "name": "tokenOut",
          "type": "address"
        }
      ],
      "name": "getPriceWithHop",
      "outputs": [
        {
          "internalType": "uint256",
          "name": "amountOut",
          "type": "uint256"
        }
      ],
      "stateMutability": "view",
      "type": "function"
    },
    {
      "inputs": [],
      "name": "getWBNBBUSDPairInfo",
      "outputs": [
        {
          "internalType": "address",
          "name": "pairAddress",
          "type": "address"
        },
        {
          "internalType": "uint256",
          "name": "reserveWBNB",
          "type": "uint256"
        },
        {
          "internalType": "uint256",
          "name": "reserveBUSD",
          "type": "uint256"
        }
      ],
      "stateMutability": "view",
      "type": "function"
    },
    {
      "inputs": [],
      "name": "router",
      "outputs": [
        {
          "internalType": "contract IPancakeRouter02",
          "name": "",
          "type": "address"
        }
      ],
      "stateMutability": "view",
      "type": "function"
    },
    {
      "inputs": [
        {
          "internalType": "uint256",
          "name": "amountIn",
          "type": "uint256"
        },
        {
          "internalType": "uint256",
          "name": "amountOutMin",
          "type": "uint256"
        },
        {
          "internalType": "address",
          "name": "tokenIn",
          "type": "address"
        },
        {
          "internalType": "address",
          "name": "tokenOut",
          "type": "address"
        }
      ],
      "name": "swap",
      "outputs": [
        {
          "internalType": "uint256",
          "name": "amountOut",
          "type": "uint256"
        }
      ],
      "stateMutability": "nonpayable",
      "type": "function"
    }
  ],
  "bytecode": "0x60808060405234605d57600080546001600160a01b03199081167310ed43c718714eb63d5aa57b78b54704e256024e179091556001805490911673ca143ce32fe78f1f7019d7d551a6402fc5350c73179055610d4790816100638239f35b600080fdfe6080604052600436101561001257600080fd5b60003560e01c80631af92bcb14610a08578063484f4ea9146109d95780634f9fe4161461093f57806369a11133146107885780637f6f2178146105f65780638b985795146105c75780638dd950021461059857806393ae88091461032d578063b4f69a2f14610277578063c45a01551461024e578063c54e44eb1461021f578063d29eedc614610113578063e08836dd146100e45763f887ea40146100b657600080fd5b346100df5760003660031901126100df576000546040516001600160a01b039091168152602090f35b600080fd5b346100df5760003660031901126100df5760206040517310ed43c718714eb63d5aa57b78b54704e256024e8152f35b346100df5760803660031901126100df576101c76000610131610a9e565b610139610ab4565b610141610ae0565b9060405192610151608085610af6565b60038452606036602086013761016684610b2e565b6001600160a01b03909116905261017c83610b51565b6001600160a01b03909116905261019282610b61565b6001600160a01b039182169052825460405163d06ca61f60e01b81529485939190921691839182919060048035908401610c34565b03915afa908115610213576020916101e7916000916101f0575b50610b61565b51604051908152f35b61020d91503d806000833e6102058183610af6565b810190610b71565b836101e1565b6040513d6000823e3d90fd5b346100df5760003660031901126100df5760206040517355d398326f99059ff775485246999027b31979558152f35b346100df5760003660031901126100df576001546040516001600160a01b039091168152602090f35b346100df5760403660031901126100df576102d86020610295610aca565b61029d610a9e565b60015460405163e6a4390560e01b81526001600160a01b03938416600482015291831660248301529093849290911690829081906044820190565b03915afa801561021357602091600091610300575b506040516001600160a01b039091168152f35b6103209150823d8411610326575b6103188183610af6565b810190610c4e565b826102ed565b503d61030e565b346100df5760803660031901126100df57600435610349610ab4565b90610352610ae0565b6040516323b872dd60e01b81523360048201523060248201526044810183905290926001600160a01b0316906020816064816000865af190811561021357600091610579575b50156105425760405163095ea7b360e01b81527310ed43c718714eb63d5aa57b78b54704e256024e6004820152602481018390526020816044816000865af1801561021357610515575b50606092604051916103f48584610af6565b60028352601f1985013660208501378061040d84610b2e565b5261041783610b51565b9160018060a01b031680925260018060a01b036000541661012c4201938442116104ff5760009161047591836040518098819582946338ed173960e01b84528c6004850152602435602485015260a0604485015260a4840190610bf7565b90336064840152608483015203925af1918215610213576020956104c56080947fdd36740e2a012d93061a0d99eaa9107860955de4e90027d3cf465a055026c407966000916104e4575b50610b51565b51958692604051948552888501526040840152820152a1604051908152f35b6104f991503d806000833e6102058183610af6565b896104bf565b634e487b7160e01b600052601160045260246000fd5b6105369060203d60201161053b575b61052e8183610af6565b810190610cf9565b6103e2565b503d610524565b60405162461bcd60e51b815260206004820152600f60248201526e151c985b9cd9995c8819985a5b1959608a1b6044820152606490fd5b610592915060203d60201161053b5761052e8183610af6565b84610398565b346100df5760003660031901126100df57602060405173bb4cdb9cbd36b01bd1cbaebf2de08d9173bc095c8152f35b346100df5760003660031901126100df57602060405173ca143ce32fe78f1f7019d7d551a6402fc5350c738152f35b346100df5760403660031901126100df576106146020610295610aca565b03915afa90811561021357600091610769575b506001600160a01b031661063c811515610c6d565b604051630240bc6b60e21b8152606081600481855afa801561021357600091600091610737575b50604051630dfe168160e01b815292602084600481845afa90811561021357600494600092610715575b506020906040519586809263d21220a760e01b82525afa918215610213576080946000936106eb575b50604080516001600160701b0395861681529190941660208201526001600160a01b0391821693810193909352166060820152f35b6001600160701b0391935061070e9060203d602011610326576103188183610af6565b92906106b6565b602091925061073090823d8411610326576103188183610af6565b919061068d565b905061075b915060603d606011610762575b6107538183610af6565b810190610cc3565b5083610663565b503d610749565b610782915060203d602011610326576103188183610af6565b81610627565b346100df5760003660031901126100df5760015460405163e6a4390560e01b815273bb4cdb9cbd36b01bd1cbaebf2de08d9173bc095c600482015273e9e7cea3dedca5984780bafc599bd69add087d566024820152600091602090829060449082906001600160a01b03165afa908115610934578291610915575b506001600160a01b0316610818811515610c6d565b604051630240bc6b60e21b8152606081600481855afa90811561090a57839084926108e7575b50604051630dfe168160e01b8152602081600481875afa9081156108dc579073bb4cdb9cbd36b01bd1cbaebf2de08d9173bc095c91606096916108bd575b506001600160a01b0316036108ab576001600160701b0391821691165b60405192835260208301526040820152f35b6001600160701b039081169116610899565b6108d6915060203d602011610326576103188183610af6565b8661087c565b6040513d87823e3d90fd5b9050610902915060603d606011610762576107538183610af6565b50908461083e565b6040513d85823e3d90fd5b61092e915060203d602011610326576103188183610af6565b82610803565b6040513d84823e3d90fd5b346100df5760603660031901126100df5761099f600061095d610a9e565b610965610ab4565b60405191610974606084610af6565b60028352604036602085013761098983610b2e565b6001600160a01b03909116905261019282610b51565b03915afa908115610213576020916101e7916000916109be5750610b51565b6109d391503d806000833e6102058183610af6565b836104bf565b346100df5760003660031901126100df57602060405173e9e7cea3dedca5984780bafc599bd69add087d568152f35b346100df5760203660031901126100df5761099f6000604051610a2c606082610af6565b60028152604036602083013773bb4cdb9cbd36b01bd1cbaebf2de08d9173bc095c610a5682610b2e565b5273e9e7cea3dedca5984780bafc599bd69add087d56610a7582610b51565b5260018060a01b03825416604051808095819463d06ca61f60e01b835260043560048401610c34565b602435906001600160a01b03821682036100df57565b604435906001600160a01b03821682036100df57565b600435906001600160a01b03821682036100df57565b606435906001600160a01b03821682036100df57565b90601f8019910116810190811067ffffffffffffffff821117610b1857604052565b634e487b7160e01b600052604160045260246000fd5b805115610b3b5760200190565b634e487b7160e01b600052603260045260246000fd5b805160011015610b3b5760400190565b805160021015610b3b5760600190565b6020818303126100df5780519067ffffffffffffffff82116100df57019080601f830112156100df5781519167ffffffffffffffff8311610b18578260051b906020820193610bc36040519586610af6565b84526020808501928201019283116100df57602001905b828210610be75750505090565b8151815260209182019101610bda565b906020808351928381520192019060005b818110610c155750505090565b82516001600160a01b0316845260209384019390920191600101610c08565b604090610c4b939281528160208201520190610bf7565b90565b908160209103126100df57516001600160a01b03811681036100df5790565b15610c7457565b60405162461bcd60e51b815260206004820152601360248201527214185a5c88191bd95cc81b9bdd08195e1a5cdd606a1b6044820152606490fd5b51906001600160701b03821682036100df57565b908160609103126100df57610cd781610caf565b916040610ce660208401610caf565b92015163ffffffff811681036100df5790565b908160209103126100df575180151581036100df579056fea26469706673582212207123b1e62edc5eb827957fe2037ffaad074e05a4d6fbc07894a5e1c2d6fbf4e664736f6c634300081c0033",
  "linkReferences": {},
  "deployedLinkReferences": {}
}