{
  "_format": "hh-sol-artifact-1",
  "contractName": "FundRelay",
  "sourceName": "contracts/SYI/utils/FundRelay.sol",
  "abi": [
    {
      "inputs": [
        {
          "internalType": "address",
          "name": "_syiContract",
          "type": "address"
        },
        {
          "internalType": "address",
          "name": "_usdt",
          "type": "address"
        },
        {
          "internalType": "address",
          "name": "_emergencyRecipient",
          "type": "address"
        }
      ],
      "stateMutability": "nonpayable",
      "type": "constructor"
    },
    {
      "inputs": [],
      "name": "InsufficientBalance",
      "type": "error"
    },
    {
      "inputs": [],
      "name": "OnlyEmergencyRecipient",
      "type": "error"
    },
    {
      "inputs": [],
      "name": "OnlySYIContract",
      "type": "error"
    },
    {
      "inputs": [],
      "name": "TransferFailed",
      "type": "error"
    },
    {
      "anonymous": false,
      "inputs": [
        {
          "indexed": false,
          "internalType": "uint256",
          "name": "amount",
          "type": "uint256"
        },
        {
          "indexed": true,
          "internalType": "address",
          "name": "to",
          "type": "address"
        }
      ],
      "name": "EmergencyWithdraw",
      "type": "event"
    },
    {
      "anonymous": false,
      "inputs": [
        {
          "indexed": false,
          "internalType": "uint256",
          "name": "amount",
          "type": "uint256"
        },
        {
          "indexed": true,
          "internalType": "address",
          "name": "to",
          "type": "address"
        }
      ],
      "name": "USDTForwarded",
      "type": "event"
    },
    {
      "anonymous": false,
      "inputs": [
        {
          "indexed": false,
          "internalType": "uint256",
          "name": "amount",
          "type": "uint256"
        },
        {
          "indexed": true,
          "internalType": "address",
          "name": "from",
          "type": "address"
        }
      ],
      "name": "USDTReceived",
      "type": "event"
    },
    {
      "inputs": [],
      "name": "EMERGENCY_RECIPIENT",
      "outputs": [
        {
          "internalType": "address",
          "name": "",
          "type": "address"
        }
      ],
      "stateMutability": "view",
      "type": "function"
    },
    {
      "inputs": [],
      "name": "SYI_CONTRACT",
      "outputs": [
        {
          "internalType": "address",
          "name": "",
          "type": "address"
        }
      ],
      "stateMutability": "view",
      "type": "function"
    },
    {
      "inputs": [],
      "name": "USDT",
      "outputs": [
        {
          "internalType": "address",
          "name": "",
          "type": "address"
        }
      ],
      "stateMutability": "view",
      "type": "function"
    },
    {
      "inputs": [],
      "name": "emergencyWithdraw",
      "outputs": [],
      "stateMutability": "nonpayable",
      "type": "function"
    },
    {
      "inputs": [
        {
          "internalType": "address",
          "name": "token",
          "type": "address"
        },
        {
          "internalType": "uint256",
          "name": "amount",
          "type": "uint256"
        }
      ],
      "name": "emergencyWithdrawToken",
      "outputs": [],
      "stateMutability": "nonpayable",
      "type": "function"
    },
    {
      "inputs": [],
      "name": "getUSDTBalance",
      "outputs": [
        {
          "internalType": "uint256",
          "name": "balance",
          "type": "uint256"
        }
      ],
      "stateMutability": "view",
      "type": "function"
    },
    {
      "inputs": [],
      "name": "receiveAndForward",
      "outputs": [
        {
          "internalType": "uint256",
          "name": "usdtAmount",
          "type": "uint256"
        }
      ],
      "stateMutability": "nonpayable",
      "type": "function"
    },
    {
      "inputs": [
        {
          "internalType": "uint256",
          "name": "amount",
          "type": "uint256"
        }
      ],
      "name": "withdrawSYIToContract",
      "outputs": [],
      "stateMutability": "nonpayable",
      "type": "function"
    },
    {
      "inputs": [
        {
          "internalType": "uint256",
          "name": "amount",
          "type": "uint256"
        }
      ],
      "name": "withdrawToSYI",
      "outputs": [],
      "stateMutability": "nonpayable",
      "type": "function"
    }
  ],
  "bytecode": "0x60e0806040523461015157606081610b7e803803809161001f8285610228565b8339810103126101515761003281610261565b9061004b604061004460208401610261565b9201610261565b916001600160a01b0381169081156101e3576001600160a01b0383169182156101af576001600160a01b0385161561016a5760009460209460449360805260a05260c052604051948593849263095ea7b360e01b84526004840152811960248401525af1801561015e57610121575b604051610908908161027682396080518181816098015281816102d1015281816105a901526107ea015260a0518181816101270152818161028f015281816104b5015281816105eb0152610762015260c05181818160df0152818161042201526105410152f35b6020813d602011610156575b8161013a60209383610228565b8101031261015157518015150361015157386100ba565b600080fd5b3d915061012d565b6040513d6000823e3d90fd5b60405162461bcd60e51b815260206004820152601b60248201527f496e76616c696420656d657267656e637920726563697069656e7400000000006044820152606490fd5b60405162461bcd60e51b815260206004820152600c60248201526b125b9d985b1a59081554d11560a21b6044820152606490fd5b60405162461bcd60e51b815260206004820152601460248201527f496e76616c69642053594920636f6e74726163740000000000000000000000006044820152606490fd5b601f909101601f19168101906001600160401b0382119082101761024b57604052565b634e487b7160e01b600052604160045260246000fd5b51906001600160a01b03821682036101515756fe608080604052600436101561001357600080fd5b60003560e01c9081630e0b614614610593575080634fa2d9d2146105705780639621bb991461052b5780639785fac814610489578063a4c3b091146103fa578063b2d14c35146102be578063c54e44eb14610279578063db2e21bc146100cc5763fc8c7f9d1461008257600080fd5b346100c75760003660031901126100c7576040517f00000000000000000000000000000000000000000000000000000000000000006001600160a01b03168152602090f35b600080fd5b346100c75760003660031901126100c7577f00000000000000000000000000000000000000000000000000000000000000006001600160a01b0381169033829003610268576040516370a0823160e01b8152306004820152907f00000000000000000000000000000000000000000000000000000000000000006001600160a01b0316602083602481845afa92831561022557600093610231575b508261016f57005b60405163a9059cbb60e01b81526001600160a01b0392909216600483015260248201839052602090829060449082906000905af1908115610225576000916101f6575b50156101e55760207fbb43d2e6a13f52d71a3a836cf197fa240fb4ef40914b6e13cc966fd6dfb19b6891604051908152a2005b6312171d8360e31b60005260046000fd5b610218915060203d60201161021e575b61021081836106fd565b810190610735565b836101b2565b503d610206565b6040513d6000823e3d90fd5b90926020823d602011610260575b8161024c602093836106fd565b8101031261025d5750519184610167565b80fd5b3d915061023f565b631504bab560e01b60005260046000fd5b346100c75760003660031901126100c7576040517f00000000000000000000000000000000000000000000000000000000000000006001600160a01b03168152602090f35b346100c75760203660031901126100c7577f00000000000000000000000000000000000000000000000000000000000000006001600160a01b03811690600435338390036103e9576040516370a0823160e01b8152306004820152602081602481875afa80156102255782916000916103b4575b50106103a35760405163a9059cbb60e01b81526001600160a01b039092166004830152602482015290602090829081600081604481015b03925af190811561022557600091610384575b50156101e557005b61039d915060203d60201161021e5761021081836106fd565b8161037c565b631e9acf1760e31b60005260046000fd5b9150506020813d6020116103e1575b816103d0602093836106fd565b810103126100c75781905185610332565b3d91506103c3565b6339694bbf60e11b60005260046000fd5b346100c75760403660031901126100c7576004356001600160a01b038116908190036100c7577f0000000000000000000000000000000000000000000000000000000000000000906001600160a01b03821633036102685760405163a9059cbb60e01b81526001600160a01b039092166004830152602480359083015260209082908160008160448101610369565b346100c75760003660031901126100c7576040516370a0823160e01b81523060048201526020816024817f00000000000000000000000000000000000000000000000000000000000000006001600160a01b03165afa8015610225576000906104f8575b602090604051908152f35b506020813d602011610523575b81610512602093836106fd565b810103126100c757602090516104ed565b3d9150610505565b346100c75760003660031901126100c7576040517f00000000000000000000000000000000000000000000000000000000000000006001600160a01b03168152602090f35b346100c75760003660031901126100c757602061058b61074d565b604051908152f35b346100c75760203660031901126100c7576004357f000000000000000000000000000000000000000000000000000000000000000060018060a01b038116928333036103e9576370a0823160e01b81523060048201527f00000000000000000000000000000000000000000000000000000000000000006001600160a01b031690602081602481855afa80156102255784916000916106c8575b50106103a35760405163a9059cbb60e01b81526001600160a01b0392909216600483015260248201839052602090829060449082906000905af1908115610225576000916106a9575b50156101e55760207f0be6073db03b3a6c016732498a098235605104cab36ff9e54c6fce81b9871f4891604051908152a2005b6106c2915060203d60201161021e5761021081836106fd565b83610676565b9150506020813d6020116106f5575b816106e4602093836106fd565b810103126100c7578390518661062d565b3d91506106d7565b90601f8019910116810190811067ffffffffffffffff82111761071f57604052565b634e487b7160e01b600052604160045260246000fd5b908160209103126100c7575180151581036100c75790565b6040516370a0823160e01b81523060048201527f00000000000000000000000000000000000000000000000000000000000000006001600160a01b0316602082602481845afa9182156102255760009261089e575b50816107af575050600090565b6040518281527f225269aef2c88e0bae5264eb6d44b932a797b7d1fcb397512d9187ddcb47f6b460203392a260405163a9059cbb60e01b81527f00000000000000000000000000000000000000000000000000000000000000006001600160a01b03811660048301526024820184905291602090829060449082906000905af19081156102255760009161087f575b50156101e5576040518281526001600160a01b03909116907f0be6073db03b3a6c016732498a098235605104cab36ff9e54c6fce81b9871f4890602090a290565b610898915060203d60201161021e5761021081836106fd565b3861083e565b90916020823d6020116108ca575b816108b9602093836106fd565b8101031261025d57505190386107a2565b3d91506108ac56fea26469706673582212209b8c7e342caea30046817b66af8710b18e1562ab91387186889db447a1fb156864736f6c634300081c0033",
  "linkReferences": {},
  "deployedLinkReferences": {}
}