{
  "_format": "hh-sol-artifact-1",
  "contractName": "PancakeRouter",
  "sourceName": "contracts/PancakeRouter.sol",
  "abi": [
    {
      "inputs": [
        {
          "internalType": "address",
          "name": "_factory",
          "type": "address"
        },
        {
          "internalType": "address",
          "name": "_WBNB",
          "type": "address"
        }
      ],
      "stateMutability": "nonpayable",
      "type": "constructor"
    },
    {
      "inputs": [],
      "name": "WBNB",
      "outputs": [
        {
          "internalType": "address",
          "name": "",
          "type": "address"
        }
      ],
      "stateMutability": "view",
      "type": "function"
    },
    {
      "inputs": [
        {
          "internalType": "address",
          "name": "tokenA",
          "type": "address"
        },
        {
          "internalType": "address",
          "name": "tokenB",
          "type": "address"
        },
        {
          "internalType": "uint256",
          "name": "amountADesired",
          "type": "uint256"
        },
        {
          "internalType": "uint256",
          "name": "amountBDesired",
          "type": "uint256"
        },
        {
          "internalType": "uint256",
          "name": "amountAMin",
          "type": "uint256"
        },
        {
          "internalType": "uint256",
          "name": "amountBMin",
          "type": "uint256"
        },
        {
          "internalType": "address",
          "name": "to",
          "type": "address"
        },
        {
          "internalType": "uint256",
          "name": "deadline",
          "type": "uint256"
        }
      ],
      "name": "addLiquidity",
      "outputs": [
        {
          "internalType": "uint256",
          "name": "amountA",
          "type": "uint256"
        },
        {
          "internalType": "uint256",
          "name": "amountB",
          "type": "uint256"
        },
        {
          "internalType": "uint256",
          "name": "liquidity",
          "type": "uint256"
        }
      ],
      "stateMutability": "nonpayable",
      "type": "function"
    },
    {
      "inputs": [
        {
          "internalType": "address",
          "name": "token",
          "type": "address"
        },
        {
          "internalType": "uint256",
          "name": "amountTokenDesired",
          "type": "uint256"
        },
        {
          "internalType": "uint256",
          "name": "amountTokenMin",
          "type": "uint256"
        },
        {
          "internalType": "uint256",
          "name": "amountETHMin",
          "type": "uint256"
        },
        {
          "internalType": "address",
          "name": "to",
          "type": "address"
        },
        {
          "internalType": "uint256",
          "name": "deadline",
          "type": "uint256"
        }
      ],
      "name": "addLiquidityETH",
      "outputs": [
        {
          "internalType": "uint256",
          "name": "amountToken",
          "type": "uint256"
        },
        {
          "internalType": "uint256",
          "name": "amountETH",
          "type": "uint256"
        },
        {
          "internalType": "uint256",
          "name": "liquidity",
          "type": "uint256"
        }
      ],
      "stateMutability": "payable",
      "type": "function"
    },
    {
      "inputs": [],
      "name": "factory",
      "outputs": [
        {
          "internalType": "address",
          "name": "",
          "type": "address"
        }
      ],
      "stateMutability": "view",
      "type": "function"
    },
    {
      "inputs": [
        {
          "internalType": "uint256",
          "name": "amountOut",
          "type": "uint256"
        },
        {
          "internalType": "uint256",
          "name": "reserveIn",
          "type": "uint256"
        },
        {
          "internalType": "uint256",
          "name": "reserveOut",
          "type": "uint256"
        }
      ],
      "name": "getAmountIn",
      "outputs": [
        {
          "internalType": "uint256",
          "name": "amountIn",
          "type": "uint256"
        }
      ],
      "stateMutability": "pure",
      "type": "function"
    },
    {
      "inputs": [
        {
          "internalType": "uint256",
          "name": "amountIn",
          "type": "uint256"
        },
        {
          "internalType": "uint256",
          "name": "reserveIn",
          "type": "uint256"
        },
        {
          "internalType": "uint256",
          "name": "reserveOut",
          "type": "uint256"
        }
      ],
      "name": "getAmountOut",
      "outputs": [
        {
          "internalType": "uint256",
          "name": "amountOut",
          "type": "uint256"
        }
      ],
      "stateMutability": "pure",
      "type": "function"
    },
    {
      "inputs": [
        {
          "internalType": "uint256",
          "name": "amountOut",
          "type": "uint256"
        },
        {
          "internalType": "address[]",
          "name": "path",
          "type": "address[]"
        }
      ],
      "name": "getAmountsIn",
      "outputs": [
        {
          "internalType": "uint256[]",
          "name": "amounts",
          "type": "uint256[]"
        }
      ],
      "stateMutability": "view",
      "type": "function"
    },
    {
      "inputs": [
        {
          "internalType": "uint256",
          "name": "amountIn",
          "type": "uint256"
        },
        {
          "internalType": "address[]",
          "name": "path",
          "type": "address[]"
        }
      ],
      "name": "getAmountsOut",
      "outputs": [
        {
          "internalType": "uint256[]",
          "name": "amounts",
          "type": "uint256[]"
        }
      ],
      "stateMutability": "view",
      "type": "function"
    },
    {
      "inputs": [
        {
          "internalType": "uint256",
          "name": "amountOutMin",
          "type": "uint256"
        },
        {
          "internalType": "address[]",
          "name": "path",
          "type": "address[]"
        },
        {
          "internalType": "address",
          "name": "to",
          "type": "address"
        },
        {
          "internalType": "uint256",
          "name": "deadline",
          "type": "uint256"
        }
      ],
      "name": "swapExactETHForTokens",
      "outputs": [
        {
          "internalType": "uint256[]",
          "name": "amounts",
          "type": "uint256[]"
        }
      ],
      "stateMutability": "payable",
      "type": "function"
    },
    {
      "inputs": [
        {
          "internalType": "uint256",
          "name": "amountIn",
          "type": "uint256"
        },
        {
          "internalType": "uint256",
          "name": "amountOutMin",
          "type": "uint256"
        },
        {
          "internalType": "address[]",
          "name": "path",
          "type": "address[]"
        },
        {
          "internalType": "address",
          "name": "to",
          "type": "address"
        },
        {
          "internalType": "uint256",
          "name": "deadline",
          "type": "uint256"
        }
      ],
      "name": "swapExactTokensForTokens",
      "outputs": [
        {
          "internalType": "uint256[]",
          "name": "amounts",
          "type": "uint256[]"
        }
      ],
      "stateMutability": "nonpayable",
      "type": "function"
    },
    {
      "stateMutability": "payable",
      "type": "receive"
    }
  ],
  "bytecode": "0x60c0346100c657601f611b1938819003918201601f19168301916001600160401b038311848410176100cb5780849260409485528339810103126100c657610052602061004b836100e1565b92016100e1565b9060805260a052604051611a2390816100f68239608051818181610145015281816104120152818161050a015281816105500152818161067c015281816108cd015281816109cf015281816111f90152611510015260a051818181601f0152818161010301528181610595015261064f0152f35b600080fd5b634e487b7160e01b600052604160045260246000fd5b51906001600160a01b03821682036100c65756fe6080604052600436101561004f575b361561001957600080fd5b61004d337f00000000000000000000000000000000000000000000000000000000000000006001600160a01b031614610d88565b005b6000803560e01c8063054d50d414610acb5780631f00ca74146109b757806338ed1739146108755780637ff36ab5146105e657806385f8c259146105c45780638dd950021461057f578063c45a01551461053a578063d06ca61f146104e5578063e8e337001461038f5763f305d719146100c9575061000e565b60c036600319011261038c576100dd610b9e565b6084356001600160a01b038116929083900361038c576101014260a4351015610c5f565b7f0000000000000000000000000000000000000000000000000000000000000000916101376064356044353460243587866114e3565b9490936101728561016983867f0000000000000000000000000000000000000000000000000000000000000000611053565b8095339061110c565b6001600160a01b0316803b1561037d57604051630d0e30db60e41b815284816004818a865af1801561038157908591610368575b505060405163a9059cbb60e01b81526001600160a01b038416600482015260248101879052906020908290604490829088905af190811561035d576020926101fa8695936024938791610330575b50610d88565b6040516335313c2160e11b815260048101919091529485928391906001600160a01b03165af19182156103235781926102ea575b5083341161025d575b5061025990604051938493846040919493926060820195825260208201520152565b0390f35b6102678434610ca4565b90806020926040516102798582610bb4565b82815284810190601f1986013683375191335af16102956110cc565b50610237576084906040519062461bcd60e51b82526004820152602360248201527f5472616e7366657248656c7065723a204554485f5452414e534645525f46414960448201526213115160ea1b6064820152fd5b9091506020813d60201161031b575b8161030660209383610bb4565b810103126103165751903861022e565b600080fd5b3d91506102f9565b50604051903d90823e3d90fd5b6103509150863d8811610356575b6103488183610bb4565b810190610d70565b386101f4565b503d61033e565b6040513d86823e3d90fd5b8161037291610bb4565b61037d5783386101a6565b8380fd5b6040513d87823e3d90fd5b80fd5b503461038c5761010036600319011261038c576103aa610b9e565b906024356001600160a01b03811681036104e15760c4356001600160a01b038116908190036104dd5791602081926024610448956103ec4260e4351015610c5f565b61040260a435608435606435604435878d6114e3565b8985610441610436859c9598859e7f0000000000000000000000000000000000000000000000000000000000000000611053565b97888094339061110c565b339061110c565b6040516335313c2160e11b815260048101919091529485928391906001600160a01b03165af19081156104d1579061049d575b6102599150604051938493846040919493926060820195825260208201520152565b506020813d6020116104c9575b816104b760209383610bb4565b8101031261031657610259905161047b565b3d91506104aa565b604051903d90823e3d90fd5b8280fd5b5080fd5b503461038c5761025961052e6105076104fd36610b30565b9291923691610c04565b907f0000000000000000000000000000000000000000000000000000000000000000610f8e565b60405191829182610b64565b503461038c578060031936011261038c576040517f00000000000000000000000000000000000000000000000000000000000000006001600160a01b03168152602090f35b503461038c578060031936011261038c576040517f00000000000000000000000000000000000000000000000000000000000000006001600160a01b03168152602090f35b503461038c5760206105de6105d836610ae5565b916113e2565b604051908152f35b50608036600319011261038c5760243567ffffffffffffffff81116104e157610613903690600401610aff565b90604435906001600160a01b038216820361037d57610636426064351015610c5f565b82156108615761064581610d5c565b6001600160a01b037f0000000000000000000000000000000000000000000000000000000000000000811694911684900361081c577f0000000000000000000000000000000000000000000000000000000000000000936106b16106aa368486610c04565b3487610f8e565b9485516000198101908111610808576106d9906106d16004359189610cea565b511015610cfe565b6106e286610cc7565b5187833b1561038c57604051630d0e30db60e41b81529182906004908290875af180156107fd576107e9575b5061071884610d5c565b83600110156107d5579161073d60209261077c94610737858901610d5c565b91611053565b9061074788610cc7565b5160405163a9059cbb60e01b81526001600160a01b0390931660048401526024830152909283919082908a9082906044820190565b03925af19081156107ca57916107a461052e9594926107ab9461025999916107b15750610d88565b3691610c04565b836111f1565b610350915060203d602011610356576103488183610bb4565b6040513d88823e3d90fd5b634e487b7160e01b88526032600452602488fd5b876107f691989298610bb4565b953861070e565b6040513d8a823e3d90fd5b634e487b7160e01b88526011600452602488fd5b60405162461bcd60e51b815260206004820152601b60248201527f50616e63616b65526f757465723a20494e56414c49445f5041544800000000006044820152606490fd5b634e487b7160e01b84526032600452602484fd5b503461038c5760a036600319011261038c5760443567ffffffffffffffff81116104e1576108a7903690600401610aff565b6064359291906001600160a01b03841684036104dd576108cb426084351015610c5f565b7f0000000000000000000000000000000000000000000000000000000000000000926109046108fb368486610c04565b60043586610f8e565b93845160001981019081116109a357610924906106d16024359188610cea565b821561098f5761093384610d5c565b9161093d85610d5c565b90846001101561097b5750926107a46107ab9361096987946102599a97610737602061052e9b01610d5c565b61097289610cc7565b5191339061110c565b634e487b7160e01b81526032600452602490fd5b634e487b7160e01b82526032600452602482fd5b634e487b7160e01b83526011600452602483fd5b503461038c576109f66109c936610b30565b939192907f0000000000000000000000000000000000000000000000000000000000000000943691610c04565b610a04600282511015610f10565b610a0e8151610f5c565b9283516000198101908111610ab757610a279085610cea565b52805160001981019081116109a357805b610a4a57604051806102598682610b64565b6000198101818111610ab757610aa6610a9f610a8e6001600160a01b03610a718588610cea565b51166001600160a01b03610a858789610cea565b5116908a6117d3565b90610a99868a610cea565b516113e2565b9186610cea565b5280156109a3576000190180610a38565b634e487b7160e01b84526011600452602484fd5b503461038c5760206105de610adf36610ae5565b91610e20565b606090600319011261031657600435906024359060443590565b9181601f840112156103165782359167ffffffffffffffff8311610316576020808501948460051b01011161031657565b90604060031983011261031657600435916024359067ffffffffffffffff821161031657610b6091600401610aff565b9091565b602060408183019282815284518094520192019060005b818110610b885750505090565b8251845260209384019390920191600101610b7b565b600435906001600160a01b038216820361031657565b90601f8019910116810190811067ffffffffffffffff821117610bd657604052565b634e487b7160e01b600052604160045260246000fd5b67ffffffffffffffff8111610bd65760051b60200190565b9291610c0f82610bec565b93610c1d6040519586610bb4565b602085848152019260051b810191821161031657915b818310610c3f57505050565b82356001600160a01b038116810361031657815260209283019201610c33565b15610c6657565b60405162461bcd60e51b815260206004820152601660248201527514185b98d85ad9549bdd5d195c8e881156141254915160521b6044820152606490fd5b91908203918211610cb157565b634e487b7160e01b600052601160045260246000fd5b805115610cd45760200190565b634e487b7160e01b600052603260045260246000fd5b8051821015610cd45760209160051b010190565b15610d0557565b60405162461bcd60e51b815260206004820152602960248201527f50616e63616b65526f757465723a20494e53554646494349454e545f4f555450604482015268155517d05353d5539560ba1b6064820152608490fd5b356001600160a01b03811681036103165790565b90816020910312610316575180151581036103165790565b15610d8f57565b634e487b7160e01b600052600160045260246000fd5b15610dac57565b60405162461bcd60e51b815260206004820152602660248201527f50616e63616b654c6962726172793a20494e53554646494349454e545f4c495160448201526555494449545960d01b6064820152608490fd5b8115610e0a570490565b634e487b7160e01b600052601260045260246000fd5b9190918015610eb957610e51610e4a610e579285151580610eb0575b610e4590610da5565b6116fa565b9283611782565b9261175c565b90810190818111610cb1578110610e7457610e7191610e00565b90565b60405162461bcd60e51b815260206004820152601460248201527364732d6d6174682d6164642d6f766572666c6f7760601b6044820152606490fd5b50841515610e3c565b60405162461bcd60e51b815260206004820152602960248201527f50616e63616b654c6962726172793a20494e53554646494349454e545f494e50604482015268155517d05353d5539560ba1b6064820152608490fd5b15610f1757565b60405162461bcd60e51b815260206004820152601c60248201527f50616e63616b654c6962726172793a20494e56414c49445f50415448000000006044820152606490fd5b90610f6682610bec565b610f736040519182610bb4565b8281528092610f84601f1991610bec565b0190602036910137565b929192610f9f600285511015610f10565b610fa98451610f5c565b91610fb383610cc7565b5260005b84516000198101908111610cb15781101561102e576001600160a01b03610fde8287610cea565b51169060018101808211610cb15760019261102790610a9f90611016906001600160a01b0361100d868d610cea565b511690886117d3565b90611021868a610cea565b51610e20565b5201610fb7565b50509150565b9081602091031261031657516001600160a01b03811681036103165790565b60405163e6a4390560e01b81526001600160a01b039283166004820152928216602484015260209183916044918391165afa9081156110c057600091611097575090565b610e71915060203d6020116110b9575b6110b18183610bb4565b810190611034565b503d6110a7565b6040513d6000823e3d90fd5b3d15611107573d9067ffffffffffffffff8211610bd657604051916110fb601f8201601f191660200184610bb4565b82523d6000602084013e565b606090565b6040516323b872dd60e01b602082019081526001600160a01b039384166024830152939092166044830152606480830194909452928152600092839290918390611157608482610bb4565b51925af16111636110cc565b816111c2575b501561117157565b60405162461bcd60e51b8152602060048201526024808201527f5472616e7366657248656c7065723a205452414e534645525f46524f4d5f46416044820152631253115160e21b6064820152608490fd5b80518015925082156111d7575b505038611169565b6111ea9250602080918301019101610d70565b38806111cf565b9291600060207f0000000000000000000000000000000000000000000000000000000000000000825b85516000198101908111610cb1578110156113d8576001600160a01b036112418288610cea565b511660018201808311610cb1576001600160a01b03611260828a610cea565b511661126c81846118a2565b509261127a6000938d610cea565b51936001600160a01b031681036113d1578293905b8a5160011981019081116113b3578610156113c757600286018087116113b3576112e4906112d3906001600160a01b03906112ca908f610cea565b5116858a611053565b935b6001600160a01b039289611053565b1691604051916112f48984610bb4565b84835289368a850137833b156113af5760405163022c0d9f60e01b8152600481019690965260248601526001600160a01b03166044850152608060648501528051608485018190528392859290919089855b838110611394575050508360a484838383839684010152601f801991011681010301925af1801561032357906001939291611384575b50500161121a565b61138d91610bb4565b388061137c565b80830182015189820160a401528796508895508b9101611346565b8480fd5b634e487b7160e01b85526011600452602485fd5b6112e48a936112d5565b829061128f565b5050505050509050565b90811561148b5761141061140b838361141794151580611482575b61140690610da5565b611782565b61175c565b9183610ca4565b9182116114455761142a611430926116fa565b90610e00565b6001810190818111610cb1578110610e745790565b60405162461bcd60e51b815260206004820152601560248201527464732d6d6174682d7375622d756e646572666c6f7760581b6044820152606490fd5b508615156113fd565b60405162461bcd60e51b815260206004820152602a60248201527f50616e63616b654c6962726172793a20494e53554646494349454e545f4f555460448201526914155517d05353d5539560b21b6064820152608490fd5b60405163e6a4390560e01b81526001600160a01b03828116600483015283811660248301529396949594937f0000000000000000000000000000000000000000000000000000000000000000908116939291602081604481885afa9081156110c0576000916116db575b506001600160a01b031615611672575b61156793506117d3565b929080158061166a575b1561157e57505050509091565b61158d8482889795969761196f565b948386116115f4575050505081106115a3579091565b60405162461bcd60e51b8152602060048201526024808201527f50616e63616b65526f757465723a20494e53554646494349454e545f425f414d60448201526313d5539560e21b6064820152608490fd5b8361160f94965061160693955061196f565b93841115610d88565b8210611619579091565b60405162461bcd60e51b8152602060048201526024808201527f50616e63616b65526f757465723a20494e53554646494349454e545f415f414d60448201526313d5539560e21b6064820152608490fd5b508315611571565b6040516364e329cb60e11b81526001600160a01b0383811660048301528416602482015293602090859060449082906000905af19384156110c057611567946116bc575b5061155d565b6116d49060203d6020116110b9576110b18183610bb4565b50386116b6565b6116f4915060203d6020116110b9576110b18183610bb4565b3861154d565b906000916103e581028181046103e51482151715610ab75792506103e583040361172057565b60405162461bcd60e51b815260206004820152601460248201527364732d6d6174682d6d756c2d6f766572666c6f7760601b6044820152606490fd5b906000916103e881028181046103e81482151715610ab75792506103e883040361172057565b600092918015918215611799575b50501561172057565b80820294509150811582850482141715610cb1576117b79084610e00565b143880611790565b51906001600160701b038216820361031657565b9060606004926117f86117e686856118a2565b50956001600160a01b03928590611053565b1660405193848092630240bc6b60e21b82525afa9182156110c0576000908193611842575b506001600160701b03928316939216916001600160a01b03918216911603610b605791565b92506060833d60601161189a575b8161185d60609383610bb4565b8101031261038c5761186e836117bf565b90604061187d602086016117bf565b94015163ffffffff81160361038c57506001600160701b0361181d565b3d9150611850565b9091906001600160a01b0380841690821680821461191e57101561191957915b906001600160a01b038316156118d457565b60405162461bcd60e51b815260206004820152601c60248201527f50616e63616b654c6962726172793a205a45524f5f41444452455353000000006044820152606490fd5b6118c2565b60405162461bcd60e51b815260206004820152602360248201527f50616e63616b654c6962726172793a204944454e544943414c5f41444452455360448201526253455360e81b6064820152608490fd5b801561199c57610e719261198e91831515806119935761140690610da5565b610e00565b508115156113fd565b60405162461bcd60e51b815260206004820152602360248201527f50616e63616b654c6962726172793a20494e53554646494349454e545f414d4f60448201526215539560ea1b6064820152608490fdfea26469706673582212203c8239ee9e6655d82095d0e6da6f7ee05289ca44f2550f9e177bacc9f8ed75d864736f6c634300081c0033",
  "linkReferences": {},
  "deployedLinkReferences": {}
}