{
  "_format": "hh-sol-artifact-1",
  "contractName": "HelloWorld",
  "sourceName": "contracts/HelloWorld.sol",
  "abi": [
    {
      "inputs": [
        {
          "internalType": "string",
          "name": "_initialMessage",
          "type": "string"
        }
      ],
      "stateMutability": "nonpayable",
      "type": "constructor"
    },
    {
      "anonymous": false,
      "inputs": [
        {
          "indexed": false,
          "internalType": "string",
          "name": "newMessage",
          "type": "string"
        },
        {
          "indexed": false,
          "internalType": "address",
          "name": "changedBy",
          "type": "address"
        }
      ],
      "name": "MessageChanged",
      "type": "event"
    },
    {
      "inputs": [],
      "name": "getMessage",
      "outputs": [
        {
          "internalType": "string",
          "name": "",
          "type": "string"
        }
      ],
      "stateMutability": "view",
      "type": "function"
    },
    {
      "inputs": [],
      "name": "getOwner",
      "outputs": [
        {
          "internalType": "address",
          "name": "",
          "type": "address"
        }
      ],
      "stateMutability": "view",
      "type": "function"
    },
    {
      "inputs": [],
      "name": "owner",
      "outputs": [
        {
          "internalType": "address",
          "name": "",
          "type": "address"
        }
      ],
      "stateMutability": "view",
      "type": "function"
    },
    {
      "inputs": [
        {
          "internalType": "string",
          "name": "_newMessage",
          "type": "string"
        }
      ],
      "name": "setMessage",
      "outputs": [],
      "stateMutability": "nonpayable",
      "type": "function"
    }
  ],
  "bytecode": "0x60806040523461022f576106c78038038061001981610234565b92833981019060208183031261022f578051906001600160401b03821161022f570181601f8201121561022f578051906001600160401b0382116102045761006a601f8301601f1916602001610234565b928284526020838301011161022f5760005b82811061021a57600083850160200152835184906001600160401b03811161020457600054600181811c911680156101fa575b60208210146101e457601f8111610180575b50602091601f821160011461011d57918192600092610112575b50508160011b916000199060031b1c1916176000555b600180546001600160a01b0319163317905560405161046d908161025a8239f35b0151905082806100db565b601f1982169260008052806000209160005b8581106101685750836001951061014f575b505050811b016000556100f1565b015160001960f88460031b161c19169055828080610141565b9192602060018192868501518155019401920161012f565b600080527f290decd9548b62a8d60345a988386fc84ba6bc95484008f6362f93160ef3e563601f830160051c810191602084106101da575b601f0160051c01905b8181106101ce57506100c1565b600081556001016101c1565b90915081906101b8565b634e487b7160e01b600052602260045260246000fd5b90607f16906100af565b634e487b7160e01b600052604160045260246000fd5b8060208092840101518282870101520161007c565b600080fd5b6040519190601f01601f191682016001600160401b038111838210176102045760405256fe608080604052600436101561001357600080fd5b60003560e01c908163368b87721461014957508063893d20e8146101205780638da5cb5b146101205763ce6d41de1461004b57600080fd5b3461011b57600036600319011261011b576040516000805461006c816103dd565b80845290600181169081156100f757506001146100ac575b6100a8836100948185038261037a565b60405191829160208352602083019061039c565b0390f35b6000808052600080516020610418833981519152939250905b8082106100dd57509091508101602001610094610084565b9192600181602092548385880101520191019092916100c5565b60ff191660208086019190915291151560051b840190910191506100949050610084565b600080fd5b3461011b57600036600319011261011b576001546040516001600160a01b039091168152602090f35b3461011b57602036600319011261011b5760043567ffffffffffffffff811161011b573660238201121561011b5780600401359067ffffffffffffffff8211610364576101a0601f8301601f19166020018461037a565b818352366024838301011161011b57816000926024602093018386013783010152805167ffffffffffffffff8111610364576101dd6000546103dd565b601f81116102f8575b506020601f821160011461026357918161024d927ffe805c34be9e63a416b9aba99c6c62782dafb9620895945675bbbe5131aeb1a194600091610258575b508160011b916000199060031b1c1916176000555b60405191829160408352604083019061039c565b3360208301520390a1005b905082015185610224565b601f19821690600080526000805160206104188339815191529160005b8181106102e05750927ffe805c34be9e63a416b9aba99c6c62782dafb9620895945675bbbe5131aeb1a194926001928261024d96106102c7575b5050811b01600055610239565b84015160001960f88460031b161c1916905585806102ba565b91926020600181928689015181550194019201610280565b60008052601f820160051c60008051602061041883398151915201906020831061034e575b601f0160051c60008051602061041883398151915201905b81811061034257506101e6565b60008155600101610335565b600080516020610418833981519152915061031d565b634e487b7160e01b600052604160045260246000fd5b90601f8019910116810190811067ffffffffffffffff82111761036457604052565b919082519283825260005b8481106103c8575050826000602080949584010152601f8019910116010190565b806020809284010151828286010152016103a7565b90600182811c9216801561040d575b60208310146103f757565b634e487b7160e01b600052602260045260246000fd5b91607f16916103ec56fe290decd9548b62a8d60345a988386fc84ba6bc95484008f6362f93160ef3e563a26469706673582212206cbf4cf793c68b028238da56c2ae18aa0a0b90c5460cf12d1df141de56f642e664736f6c634300081c0033",
  "linkReferences": {},
  "deployedLinkReferences": {}
}