{
  "_format": "hh-sol-artifact-1",
  "contractName": "Staking",
  "sourceName": "contracts/SYI-Staking/mainnet/Staking.sol",
  "abi": [
    {
      "inputs": [
        {
          "internalType": "address",
          "name": "_usdt",
          "type": "address"
        },
        {
          "internalType": "address",
          "name": "_router",
          "type": "address"
        },
        {
          "internalType": "address",
          "name": "_rootAddress",
          "type": "address"
        },
        {
          "internalType": "address",
          "name": "_feeRecipient",
          "type": "address"
        }
      ],
      "stateMutability": "nonpayable",
      "type": "constructor"
    },
    {
      "inputs": [],
      "name": "AlreadyBound",
      "type": "error"
    },
    {
      "inputs": [],
      "name": "AlreadyLocked",
      "type": "error"
    },
    {
      "inputs": [],
      "name": "AlreadyWithdrawn",
      "type": "error"
    },
    {
      "inputs": [],
      "name": "CannotReferSelf",
      "type": "error"
    },
    {
      "inputs": [],
      "name": "ExceedsMaxStakeAmount",
      "type": "error"
    },
    {
      "inputs": [],
      "name": "ExceedsUserTotalStakeLimit",
      "type": "error"
    },
    {
      "inputs": [],
      "name": "InvalidReferral",
      "type": "error"
    },
    {
      "inputs": [],
      "name": "InvalidReferrer",
      "type": "error"
    },
    {
      "inputs": [],
      "name": "InvalidStakeIndex",
      "type": "error"
    },
    {
      "inputs": [],
      "name": "MustBindReferral",
      "type": "error"
    },
    {
      "inputs": [],
      "name": "NotAuthorized",
      "type": "error"
    },
    {
      "inputs": [],
      "name": "OnlyEOAAllowed",
      "type": "error"
    },
    {
      "inputs": [
        {
          "internalType": "address",
          "name": "owner",
          "type": "address"
        }
      ],
      "name": "OwnableInvalidOwner",
      "type": "error"
    },
    {
      "inputs": [
        {
          "internalType": "address",
          "name": "account",
          "type": "address"
        }
      ],
      "name": "OwnableUnauthorizedAccount",
      "type": "error"
    },
    {
      "inputs": [
        {
          "internalType": "uint256",
          "name": "x",
          "type": "uint256"
        },
        {
          "internalType": "uint256",
          "name": "y",
          "type": "uint256"
        }
      ],
      "name": "PRBMath_MulDiv18_Overflow",
      "type": "error"
    },
    {
      "inputs": [],
      "name": "StakingPeriodNotMet",
      "type": "error"
    },
    {
      "anonymous": false,
      "inputs": [
        {
          "indexed": true,
          "internalType": "address",
          "name": "user",
          "type": "address"
        },
        {
          "indexed": true,
          "internalType": "address",
          "name": "friend",
          "type": "address"
        }
      ],
      "name": "BindFriend",
      "type": "event"
    },
    {
      "anonymous": false,
      "inputs": [
        {
          "indexed": true,
          "internalType": "address",
          "name": "user",
          "type": "address"
        },
        {
          "indexed": true,
          "internalType": "address",
          "name": "parent",
          "type": "address"
        }
      ],
      "name": "BindReferral",
      "type": "event"
    },
    {
      "anonymous": false,
      "inputs": [
        {
          "indexed": true,
          "internalType": "address",
          "name": "oldRecipient",
          "type": "address"
        },
        {
          "indexed": true,
          "internalType": "address",
          "name": "newRecipient",
          "type": "address"
        }
      ],
      "name": "FeeRecipientUpdated",
      "type": "event"
    },
    {
      "anonymous": false,
      "inputs": [
        {
          "indexed": true,
          "internalType": "address",
          "name": "oldAddress",
          "type": "address"
        },
        {
          "indexed": true,
          "internalType": "address",
          "name": "newAddress",
          "type": "address"
        }
      ],
      "name": "MarketingAddressUpdated",
      "type": "event"
    },
    {
      "anonymous": false,
      "inputs": [
        {
          "indexed": true,
          "internalType": "address",
          "name": "previousOwner",
          "type": "address"
        },
        {
          "indexed": true,
          "internalType": "address",
          "name": "newOwner",
          "type": "address"
        }
      ],
      "name": "OwnershipTransferred",
      "type": "event"
    },
    {
      "anonymous": false,
      "inputs": [
        {
          "indexed": true,
          "internalType": "address",
          "name": "user",
          "type": "address"
        },
        {
          "indexed": true,
          "internalType": "uint8",
          "name": "tier",
          "type": "uint8"
        },
        {
          "indexed": false,
          "internalType": "string",
          "name": "reason",
          "type": "string"
        }
      ],
      "name": "PreacherCheckFailed",
      "type": "event"
    },
    {
      "anonymous": false,
      "inputs": [
        {
          "indexed": false,
          "internalType": "uint256",
          "name": "duration",
          "type": "uint256"
        }
      ],
      "name": "PresaleDurationUpdated",
      "type": "event"
    },
    {
      "anonymous": false,
      "inputs": [
        {
          "indexed": true,
          "internalType": "address",
          "name": "user",
          "type": "address"
        },
        {
          "indexed": false,
          "internalType": "uint256",
          "name": "stakeIndex",
          "type": "uint256"
        },
        {
          "indexed": false,
          "internalType": "uint256",
          "name": "syiAmount",
          "type": "uint256"
        },
        {
          "indexed": false,
          "internalType": "uint256",
          "name": "usdtAmount",
          "type": "uint256"
        },
        {
          "indexed": true,
          "internalType": "address",
          "name": "feeRecipient",
          "type": "address"
        },
        {
          "indexed": false,
          "internalType": "uint256",
          "name": "timestamp",
          "type": "uint256"
        }
      ],
      "name": "RedemptionFeeCollected",
      "type": "event"
    },
    {
      "anonymous": false,
      "inputs": [
        {
          "indexed": true,
          "internalType": "address",
          "name": "user",
          "type": "address"
        },
        {
          "indexed": false,
          "internalType": "uint256",
          "name": "reward",
          "type": "uint256"
        },
        {
          "indexed": false,
          "internalType": "uint40",
          "name": "timestamp",
          "type": "uint40"
        },
        {
          "indexed": false,
          "internalType": "uint256",
          "name": "index",
          "type": "uint256"
        }
      ],
      "name": "RewardPaid",
      "type": "event"
    },
    {
      "anonymous": false,
      "inputs": [
        {
          "indexed": true,
          "internalType": "address",
          "name": "syiAddress",
          "type": "address"
        }
      ],
      "name": "SYIContractSet",
      "type": "event"
    },
    {
      "anonymous": false,
      "inputs": [
        {
          "indexed": true,
          "internalType": "address",
          "name": "user",
          "type": "address"
        },
        {
          "indexed": false,
          "internalType": "uint256",
          "name": "amount",
          "type": "uint256"
        },
        {
          "indexed": false,
          "internalType": "uint256",
          "name": "timestamp",
          "type": "uint256"
        },
        {
          "indexed": false,
          "internalType": "uint256",
          "name": "index",
          "type": "uint256"
        },
        {
          "indexed": false,
          "internalType": "uint256",
          "name": "stakeTime",
          "type": "uint256"
        }
      ],
      "name": "Staked",
      "type": "event"
    },
    {
      "anonymous": false,
      "inputs": [
        {
          "indexed": false,
          "internalType": "uint256[4]",
          "name": "newRates",
          "type": "uint256[4]"
        }
      ],
      "name": "StakingRatesUpdated",
      "type": "event"
    },
    {
      "anonymous": false,
      "inputs": [
        {
          "indexed": true,
          "internalType": "address",
          "name": "recipient",
          "type": "address"
        },
        {
          "indexed": true,
          "internalType": "uint8",
          "name": "tier",
          "type": "uint8"
        },
        {
          "indexed": false,
          "internalType": "uint256",
          "name": "actualRewardRate",
          "type": "uint256"
        },
        {
          "indexed": false,
          "internalType": "uint256",
          "name": "rewardAmount",
          "type": "uint256"
        },
        {
          "indexed": false,
          "internalType": "uint256",
          "name": "previousCumulativeRate",
          "type": "uint256"
        },
        {
          "indexed": false,
          "internalType": "uint256",
          "name": "currentTierRate",
          "type": "uint256"
        }
      ],
      "name": "StrictDifferentialRewardPaid",
      "type": "event"
    },
    {
      "anonymous": false,
      "inputs": [
        {
          "indexed": false,
          "internalType": "uint256",
          "name": "interestAmount",
          "type": "uint256"
        },
        {
          "indexed": false,
          "internalType": "uint256",
          "name": "totalTeamRewardPool",
          "type": "uint256"
        },
        {
          "indexed": false,
          "internalType": "uint256",
          "name": "totalDistributed",
          "type": "uint256"
        },
        {
          "indexed": false,
          "internalType": "uint256",
          "name": "marketingAmount",
          "type": "uint256"
        },
        {
          "indexed": false,
          "internalType": "address[7]",
          "name": "tierRecipients",
          "type": "address[7]"
        },
        {
          "indexed": false,
          "internalType": "uint256[7]",
          "name": "tierAmounts",
          "type": "uint256[7]"
        },
        {
          "indexed": false,
          "internalType": "uint8",
          "name": "activeTiers",
          "type": "uint8"
        }
      ],
      "name": "TeamRewardDistributionCompleted",
      "type": "event"
    },
    {
      "anonymous": false,
      "inputs": [
        {
          "indexed": false,
          "internalType": "bool",
          "name": "enabled",
          "type": "bool"
        }
      ],
      "name": "TestModeSet",
      "type": "event"
    },
    {
      "anonymous": false,
      "inputs": [
        {
          "indexed": true,
          "internalType": "address",
          "name": "from",
          "type": "address"
        },
        {
          "indexed": true,
          "internalType": "address",
          "name": "to",
          "type": "address"
        },
        {
          "indexed": false,
          "internalType": "uint256",
          "name": "amount",
          "type": "uint256"
        }
      ],
      "name": "Transfer",
      "type": "event"
    },
    {
      "anonymous": false,
      "inputs": [
        {
          "indexed": true,
          "internalType": "address",
          "name": "user",
          "type": "address"
        },
        {
          "indexed": true,
          "internalType": "uint256",
          "name": "stakeIndex",
          "type": "uint256"
        },
        {
          "indexed": false,
          "internalType": "uint256",
          "name": "principalAmount",
          "type": "uint256"
        },
        {
          "indexed": false,
          "internalType": "uint256",
          "name": "calculatedReward",
          "type": "uint256"
        },
        {
          "indexed": false,
          "internalType": "uint256",
          "name": "usdtReceived",
          "type": "uint256"
        },
        {
          "indexed": false,
          "internalType": "uint256",
          "name": "olaTokensUsed",
          "type": "uint256"
        },
        {
          "indexed": false,
          "internalType": "uint256",
          "name": "referralFee",
          "type": "uint256"
        },
        {
          "indexed": false,
          "internalType": "uint256",
          "name": "teamFee",
          "type": "uint256"
        },
        {
          "indexed": false,
          "internalType": "uint256",
          "name": "userPayout",
          "type": "uint256"
        },
        {
          "indexed": false,
          "internalType": "uint256",
          "name": "interestEarned",
          "type": "uint256"
        },
        {
          "indexed": false,
          "internalType": "uint40",
          "name": "withdrawalTime",
          "type": "uint40"
        }
      ],
      "name": "WithdrawalCompleted",
      "type": "event"
    },
    {
      "inputs": [],
      "name": "REDEMPTION_FEE_RATE",
      "outputs": [
        {
          "internalType": "uint256",
          "name": "",
          "type": "uint256"
        }
      ],
      "stateMutability": "view",
      "type": "function"
    },
    {
      "inputs": [],
      "name": "ROUTER",
      "outputs": [
        {
          "internalType": "contract IUniswapV2Router02",
          "name": "",
          "type": "address"
        }
      ],
      "stateMutability": "view",
      "type": "function"
    },
    {
      "inputs": [],
      "name": "SYI",
      "outputs": [
        {
          "internalType": "contract ISYI",
          "name": "",
          "type": "address"
        }
      ],
      "stateMutability": "view",
      "type": "function"
    },
    {
      "inputs": [
        {
          "internalType": "address",
          "name": "",
          "type": "address"
        },
        {
          "internalType": "address",
          "name": "",
          "type": "address"
        }
      ],
      "name": "allowance",
      "outputs": [
        {
          "internalType": "uint256",
          "name": "",
          "type": "uint256"
        }
      ],
      "stateMutability": "pure",
      "type": "function"
    },
    {
      "inputs": [
        {
          "internalType": "address",
          "name": "",
          "type": "address"
        },
        {
          "internalType": "uint256",
          "name": "",
          "type": "uint256"
        }
      ],
      "name": "approve",
      "outputs": [
        {
          "internalType": "bool",
          "name": "",
          "type": "bool"
        }
      ],
      "stateMutability": "pure",
      "type": "function"
    },
    {
      "inputs": [
        {
          "internalType": "address",
          "name": "account",
          "type": "address"
        }
      ],
      "name": "balanceOf",
      "outputs": [
        {
          "internalType": "uint256",
          "name": "balance",
          "type": "uint256"
        }
      ],
      "stateMutability": "view",
      "type": "function"
    },
    {
      "inputs": [
        {
          "internalType": "address",
          "name": "",
          "type": "address"
        }
      ],
      "name": "balances",
      "outputs": [
        {
          "internalType": "uint256",
          "name": "",
          "type": "uint256"
        }
      ],
      "stateMutability": "view",
      "type": "function"
    },
    {
      "inputs": [
        {
          "internalType": "address",
          "name": "user",
          "type": "address"
        },
        {
          "internalType": "uint256",
          "name": "stakeIndex",
          "type": "uint256"
        }
      ],
      "name": "canWithdrawStake",
      "outputs": [
        {
          "internalType": "bool",
          "name": "canWithdraw",
          "type": "bool"
        }
      ],
      "stateMutability": "view",
      "type": "function"
    },
    {
      "inputs": [
        {
          "internalType": "address",
          "name": "account",
          "type": "address"
        }
      ],
      "name": "currentStakeValue",
      "outputs": [
        {
          "internalType": "uint256",
          "name": "currentValue",
          "type": "uint256"
        }
      ],
      "stateMutability": "view",
      "type": "function"
    },
    {
      "inputs": [],
      "name": "decimals",
      "outputs": [
        {
          "internalType": "uint8",
          "name": "",
          "type": "uint8"
        }
      ],
      "stateMutability": "view",
      "type": "function"
    },
    {
      "inputs": [
        {
          "internalType": "address",
          "name": "account",
          "type": "address"
        }
      ],
      "name": "earnedInterest",
      "outputs": [
        {
          "internalType": "uint256",
          "name": "interest",
          "type": "uint256"
        }
      ],
      "stateMutability": "view",
      "type": "function"
    },
    {
      "inputs": [
        {
          "internalType": "address",
          "name": "to",
          "type": "address"
        },
        {
          "internalType": "uint256",
          "name": "_amount",
          "type": "uint256"
        }
      ],
      "name": "emergencyWithdrawSYI",
      "outputs": [],
      "stateMutability": "nonpayable",
      "type": "function"
    },
    {
      "inputs": [
        {
          "internalType": "address",
          "name": "to",
          "type": "address"
        },
        {
          "internalType": "uint256",
          "name": "_amount",
          "type": "uint256"
        }
      ],
      "name": "emergencyWithdrawUSDT",
      "outputs": [],
      "stateMutability": "nonpayable",
      "type": "function"
    },
    {
      "inputs": [],
      "name": "feeRecipient",
      "outputs": [
        {
          "internalType": "address",
          "name": "",
          "type": "address"
        }
      ],
      "stateMutability": "view",
      "type": "function"
    },
    {
      "inputs": [
        {
          "internalType": "address",
          "name": "user",
          "type": "address"
        }
      ],
      "name": "getFriend",
      "outputs": [
        {
          "internalType": "address",
          "name": "",
          "type": "address"
        }
      ],
      "stateMutability": "view",
      "type": "function"
    },
    {
      "inputs": [],
      "name": "getMaxStakeAmount",
      "outputs": [
        {
          "internalType": "uint256",
          "name": "maxAmount",
          "type": "uint256"
        }
      ],
      "stateMutability": "view",
      "type": "function"
    },
    {
      "inputs": [],
      "name": "getMaxUserTotalStake",
      "outputs": [
        {
          "internalType": "uint256",
          "name": "limit",
          "type": "uint256"
        }
      ],
      "stateMutability": "pure",
      "type": "function"
    },
    {
      "inputs": [],
      "name": "getNetworkInflow",
      "outputs": [
        {
          "internalType": "uint256",
          "name": "value",
          "type": "uint256"
        }
      ],
      "stateMutability": "view",
      "type": "function"
    },
    {
      "inputs": [],
      "name": "getRecentNetworkInflow",
      "outputs": [
        {
          "internalType": "uint256",
          "name": "recentInflow",
          "type": "uint256"
        }
      ],
      "stateMutability": "view",
      "type": "function"
    },
    {
      "inputs": [
        {
          "internalType": "address",
          "name": "_user",
          "type": "address"
        }
      ],
      "name": "getReferral",
      "outputs": [
        {
          "internalType": "address",
          "name": "",
          "type": "address"
        }
      ],
      "stateMutability": "view",
      "type": "function"
    },
    {
      "inputs": [
        {
          "internalType": "address",
          "name": "_user",
          "type": "address"
        }
      ],
      "name": "getReferralCount",
      "outputs": [
        {
          "internalType": "uint256",
          "name": "",
          "type": "uint256"
        }
      ],
      "stateMutability": "view",
      "type": "function"
    },
    {
      "inputs": [
        {
          "internalType": "address",
          "name": "_user",
          "type": "address"
        },
        {
          "internalType": "uint256",
          "name": "_maxDepth",
          "type": "uint256"
        }
      ],
      "name": "getReferrals",
      "outputs": [
        {
          "internalType": "address[]",
          "name": "",
          "type": "address[]"
        }
      ],
      "stateMutability": "view",
      "type": "function"
    },
    {
      "inputs": [
        {
          "internalType": "address",
          "name": "_user",
          "type": "address"
        },
        {
          "internalType": "uint8",
          "name": "_maxDepth",
          "type": "uint8"
        }
      ],
      "name": "getReferrals",
      "outputs": [
        {
          "internalType": "address[]",
          "name": "",
          "type": "address[]"
        }
      ],
      "stateMutability": "view",
      "type": "function"
    },
    {
      "inputs": [
        {
          "internalType": "address",
          "name": "user",
          "type": "address"
        }
      ],
      "name": "getRemainingStakeCapacity",
      "outputs": [
        {
          "internalType": "uint256",
          "name": "remaining",
          "type": "uint256"
        }
      ],
      "stateMutability": "view",
      "type": "function"
    },
    {
      "inputs": [],
      "name": "getRootAddress",
      "outputs": [
        {
          "internalType": "address",
          "name": "",
          "type": "address"
        }
      ],
      "stateMutability": "view",
      "type": "function"
    },
    {
      "inputs": [],
      "name": "getSlippageConfig",
      "outputs": [
        {
          "internalType": "uint256",
          "name": "baseSlippage",
          "type": "uint256"
        },
        {
          "internalType": "uint256",
          "name": "maxSlippage",
          "type": "uint256"
        },
        {
          "internalType": "uint256",
          "name": "priceImpactThreshold",
          "type": "uint256"
        }
      ],
      "stateMutability": "pure",
      "type": "function"
    },
    {
      "inputs": [
        {
          "internalType": "uint8",
          "name": "stakeIndex",
          "type": "uint8"
        }
      ],
      "name": "getStakePeriod",
      "outputs": [
        {
          "internalType": "uint256",
          "name": "period",
          "type": "uint256"
        }
      ],
      "stateMutability": "pure",
      "type": "function"
    },
    {
      "inputs": [],
      "name": "getStakePeriods",
      "outputs": [
        {
          "internalType": "uint256[4]",
          "name": "periods",
          "type": "uint256[4]"
        }
      ],
      "stateMutability": "pure",
      "type": "function"
    },
    {
      "inputs": [
        {
          "internalType": "address",
          "name": "_user",
          "type": "address"
        }
      ],
      "name": "getTeamKpi",
      "outputs": [
        {
          "internalType": "uint256",
          "name": "",
          "type": "uint256"
        }
      ],
      "stateMutability": "view",
      "type": "function"
    },
    {
      "inputs": [
        {
          "internalType": "address",
          "name": "_user",
          "type": "address"
        }
      ],
      "name": "getTeamPerformanceDetails",
      "outputs": [
        {
          "internalType": "uint256",
          "name": "totalTeamInvestment",
          "type": "uint256"
        },
        {
          "internalType": "uint256",
          "name": "teamMemberCount",
          "type": "uint256"
        },
        {
          "internalType": "uint8",
          "name": "currentTier",
          "type": "uint8"
        },
        {
          "internalType": "uint256",
          "name": "nextTierThreshold",
          "type": "uint256"
        },
        {
          "internalType": "uint256",
          "name": "progressToNextTier",
          "type": "uint256"
        }
      ],
      "stateMutability": "view",
      "type": "function"
    },
    {
      "inputs": [],
      "name": "getTeamRewardRates",
      "outputs": [
        {
          "internalType": "uint256[7]",
          "name": "rewardRates",
          "type": "uint256[7]"
        }
      ],
      "stateMutability": "pure",
      "type": "function"
    },
    {
      "inputs": [],
      "name": "getTeamRewardThresholds",
      "outputs": [
        {
          "internalType": "uint256[7]",
          "name": "thresholds",
          "type": "uint256[7]"
        }
      ],
      "stateMutability": "pure",
      "type": "function"
    },
    {
      "inputs": [
        {
          "internalType": "address",
          "name": "user",
          "type": "address"
        }
      ],
      "name": "getUserInfo",
      "outputs": [
        {
          "internalType": "uint128",
          "name": "totalStaked",
          "type": "uint128"
        },
        {
          "internalType": "uint128",
          "name": "teamKPI",
          "type": "uint128"
        },
        {
          "internalType": "address",
          "name": "referrer",
          "type": "address"
        },
        {
          "internalType": "bool",
          "name": "hasLockedReferral",
          "type": "bool"
        },
        {
          "internalType": "bool",
          "name": "isPreacherStatus",
          "type": "bool"
        }
      ],
      "stateMutability": "view",
      "type": "function"
    },
    {
      "inputs": [
        {
          "internalType": "address",
          "name": "user",
          "type": "address"
        }
      ],
      "name": "getUserStakeWithdrawalStatus",
      "outputs": [
        {
          "internalType": "uint256[]",
          "name": "stakeIndices",
          "type": "uint256[]"
        },
        {
          "internalType": "bool[]",
          "name": "canWithdrawArray",
          "type": "bool[]"
        },
        {
          "internalType": "uint256[]",
          "name": "timeRemaining",
          "type": "uint256[]"
        }
      ],
      "stateMutability": "view",
      "type": "function"
    },
    {
      "inputs": [
        {
          "internalType": "address",
          "name": "user",
          "type": "address"
        }
      ],
      "name": "getWithdrawalCount",
      "outputs": [
        {
          "internalType": "uint256",
          "name": "",
          "type": "uint256"
        }
      ],
      "stateMutability": "view",
      "type": "function"
    },
    {
      "inputs": [
        {
          "internalType": "address",
          "name": "user",
          "type": "address"
        }
      ],
      "name": "getWithdrawalHistory",
      "outputs": [
        {
          "components": [
            {
              "internalType": "uint40",
              "name": "withdrawalTime",
              "type": "uint40"
            },
            {
              "internalType": "uint256",
              "name": "stakeIndex",
              "type": "uint256"
            },
            {
              "internalType": "uint256",
              "name": "principalAmount",
              "type": "uint256"
            },
            {
              "internalType": "uint256",
              "name": "calculatedReward",
              "type": "uint256"
            },
            {
              "internalType": "uint256",
              "name": "usdtReceived",
              "type": "uint256"
            },
            {
              "internalType": "uint256",
              "name": "syiTokensUsed",
              "type": "uint256"
            },
            {
              "internalType": "uint256",
              "name": "referralFee",
              "type": "uint256"
            },
            {
              "internalType": "uint256",
              "name": "teamFee",
              "type": "uint256"
            },
            {
              "internalType": "uint256",
              "name": "userPayout",
              "type": "uint256"
            },
            {
              "internalType": "uint256",
              "name": "interestEarned",
              "type": "uint256"
            }
          ],
          "internalType": "struct IStaking.WithdrawalRecord[]",
          "name": "",
          "type": "tuple[]"
        }
      ],
      "stateMutability": "view",
      "type": "function"
    },
    {
      "inputs": [
        {
          "internalType": "address",
          "name": "user",
          "type": "address"
        },
        {
          "internalType": "uint256",
          "name": "index",
          "type": "uint256"
        }
      ],
      "name": "getWithdrawalRecord",
      "outputs": [
        {
          "components": [
            {
              "internalType": "uint40",
              "name": "withdrawalTime",
              "type": "uint40"
            },
            {
              "internalType": "uint256",
              "name": "stakeIndex",
              "type": "uint256"
            },
            {
              "internalType": "uint256",
              "name": "principalAmount",
              "type": "uint256"
            },
            {
              "internalType": "uint256",
              "name": "calculatedReward",
              "type": "uint256"
            },
            {
              "internalType": "uint256",
              "name": "usdtReceived",
              "type": "uint256"
            },
            {
              "internalType": "uint256",
              "name": "syiTokensUsed",
              "type": "uint256"
            },
            {
              "internalType": "uint256",
              "name": "referralFee",
              "type": "uint256"
            },
            {
              "internalType": "uint256",
              "name": "teamFee",
              "type": "uint256"
            },
            {
              "internalType": "uint256",
              "name": "userPayout",
              "type": "uint256"
            },
            {
              "internalType": "uint256",
              "name": "interestEarned",
              "type": "uint256"
            }
          ],
          "internalType": "struct IStaking.WithdrawalRecord",
          "name": "",
          "type": "tuple"
        }
      ],
      "stateMutability": "view",
      "type": "function"
    },
    {
      "inputs": [
        {
          "internalType": "address",
          "name": "_user",
          "type": "address"
        }
      ],
      "name": "isBindReferral",
      "outputs": [
        {
          "internalType": "bool",
          "name": "",
          "type": "bool"
        }
      ],
      "stateMutability": "view",
      "type": "function"
    },
    {
      "inputs": [
        {
          "internalType": "address",
          "name": "user",
          "type": "address"
        }
      ],
      "name": "isPreacher",
      "outputs": [
        {
          "internalType": "bool",
          "name": "",
          "type": "bool"
        }
      ],
      "stateMutability": "view",
      "type": "function"
    },
    {
      "inputs": [
        {
          "internalType": "address",
          "name": "_friend",
          "type": "address"
        }
      ],
      "name": "lockFriend",
      "outputs": [],
      "stateMutability": "nonpayable",
      "type": "function"
    },
    {
      "inputs": [
        {
          "internalType": "address",
          "name": "_referrer",
          "type": "address"
        }
      ],
      "name": "lockReferral",
      "outputs": [],
      "stateMutability": "nonpayable",
      "type": "function"
    },
    {
      "inputs": [],
      "name": "maxStakeAmount",
      "outputs": [
        {
          "internalType": "uint256",
          "name": "maxAmount",
          "type": "uint256"
        }
      ],
      "stateMutability": "view",
      "type": "function"
    },
    {
      "inputs": [],
      "name": "name",
      "outputs": [
        {
          "internalType": "string",
          "name": "",
          "type": "string"
        }
      ],
      "stateMutability": "view",
      "type": "function"
    },
    {
      "inputs": [],
      "name": "network1In",
      "outputs": [
        {
          "internalType": "uint256",
          "name": "value",
          "type": "uint256"
        }
      ],
      "stateMutability": "view",
      "type": "function"
    },
    {
      "inputs": [],
      "name": "owner",
      "outputs": [
        {
          "internalType": "address",
          "name": "",
          "type": "address"
        }
      ],
      "stateMutability": "view",
      "type": "function"
    },
    {
      "inputs": [
        {
          "internalType": "uint256",
          "name": "usdtAmount",
          "type": "uint256"
        }
      ],
      "name": "previewStakeOutput",
      "outputs": [
        {
          "internalType": "uint256",
          "name": "halfUsdtAmount",
          "type": "uint256"
        },
        {
          "internalType": "uint256",
          "name": "expectedSYI",
          "type": "uint256"
        },
        {
          "internalType": "uint256",
          "name": "minSYIOut",
          "type": "uint256"
        }
      ],
      "stateMutability": "view",
      "type": "function"
    },
    {
      "inputs": [
        {
          "internalType": "address",
          "name": "account",
          "type": "address"
        }
      ],
      "name": "principalBalance",
      "outputs": [
        {
          "internalType": "uint256",
          "name": "balance",
          "type": "uint256"
        }
      ],
      "stateMutability": "view",
      "type": "function"
    },
    {
      "inputs": [
        {
          "internalType": "uint256",
          "name": "",
          "type": "uint256"
        }
      ],
      "name": "rates",
      "outputs": [
        {
          "internalType": "uint256",
          "name": "",
          "type": "uint256"
        }
      ],
      "stateMutability": "view",
      "type": "function"
    },
    {
      "inputs": [],
      "name": "renounceOwnership",
      "outputs": [],
      "stateMutability": "nonpayable",
      "type": "function"
    },
    {
      "inputs": [
        {
          "internalType": "address",
          "name": "user",
          "type": "address"
        },
        {
          "internalType": "uint8",
          "name": "index",
          "type": "uint8"
        }
      ],
      "name": "rewardOfSlot",
      "outputs": [
        {
          "internalType": "uint256",
          "name": "reward",
          "type": "uint256"
        }
      ],
      "stateMutability": "view",
      "type": "function"
    },
    {
      "inputs": [
        {
          "internalType": "address",
          "name": "_feeRecipient",
          "type": "address"
        }
      ],
      "name": "setFeeRecipient",
      "outputs": [],
      "stateMutability": "nonpayable",
      "type": "function"
    },
    {
      "inputs": [
        {
          "internalType": "address",
          "name": "_rootAddress",
          "type": "address"
        }
      ],
      "name": "setRootAddress",
      "outputs": [],
      "stateMutability": "nonpayable",
      "type": "function"
    },
    {
      "inputs": [
        {
          "internalType": "address",
          "name": "_syi",
          "type": "address"
        }
      ],
      "name": "setSYI",
      "outputs": [],
      "stateMutability": "nonpayable",
      "type": "function"
    },
    {
      "inputs": [
        {
          "internalType": "uint160",
          "name": "_amount",
          "type": "uint160"
        },
        {
          "internalType": "uint8",
          "name": "_stakeIndex",
          "type": "uint8"
        }
      ],
      "name": "stake",
      "outputs": [],
      "stateMutability": "nonpayable",
      "type": "function"
    },
    {
      "inputs": [
        {
          "internalType": "address",
          "name": "user",
          "type": "address"
        }
      ],
      "name": "stakeCount",
      "outputs": [
        {
          "internalType": "uint256",
          "name": "count",
          "type": "uint256"
        }
      ],
      "stateMutability": "view",
      "type": "function"
    },
    {
      "inputs": [],
      "name": "symbol",
      "outputs": [
        {
          "internalType": "string",
          "name": "",
          "type": "string"
        }
      ],
      "stateMutability": "view",
      "type": "function"
    },
    {
      "inputs": [],
      "name": "sync",
      "outputs": [],
      "stateMutability": "nonpayable",
      "type": "function"
    },
    {
      "inputs": [
        {
          "internalType": "uint256",
          "name": "",
          "type": "uint256"
        }
      ],
      "name": "t_supply",
      "outputs": [
        {
          "internalType": "uint40",
          "name": "stakeTime",
          "type": "uint40"
        },
        {
          "internalType": "uint160",
          "name": "tamount",
          "type": "uint160"
        }
      ],
      "stateMutability": "view",
      "type": "function"
    },
    {
      "inputs": [
        {
          "internalType": "address",
          "name": "",
          "type": "address"
        }
      ],
      "name": "teamTotalInvestValue",
      "outputs": [
        {
          "internalType": "uint256",
          "name": "",
          "type": "uint256"
        }
      ],
      "stateMutability": "view",
      "type": "function"
    },
    {
      "inputs": [],
      "name": "totalSupply",
      "outputs": [
        {
          "internalType": "uint256",
          "name": "",
          "type": "uint256"
        }
      ],
      "stateMutability": "view",
      "type": "function"
    },
    {
      "inputs": [
        {
          "internalType": "address",
          "name": "",
          "type": "address"
        },
        {
          "internalType": "uint256",
          "name": "",
          "type": "uint256"
        }
      ],
      "name": "transfer",
      "outputs": [
        {
          "internalType": "bool",
          "name": "",
          "type": "bool"
        }
      ],
      "stateMutability": "pure",
      "type": "function"
    },
    {
      "inputs": [
        {
          "internalType": "address",
          "name": "",
          "type": "address"
        },
        {
          "internalType": "address",
          "name": "",
          "type": "address"
        },
        {
          "internalType": "uint256",
          "name": "",
          "type": "uint256"
        }
      ],
      "name": "transferFrom",
      "outputs": [
        {
          "internalType": "bool",
          "name": "",
          "type": "bool"
        }
      ],
      "stateMutability": "pure",
      "type": "function"
    },
    {
      "inputs": [
        {
          "internalType": "address",
          "name": "newOwner",
          "type": "address"
        }
      ],
      "name": "transferOwnership",
      "outputs": [],
      "stateMutability": "nonpayable",
      "type": "function"
    },
    {
      "inputs": [
        {
          "internalType": "uint256",
          "name": "stakeIndex",
          "type": "uint256"
        }
      ],
      "name": "unstake",
      "outputs": [
        {
          "internalType": "uint256",
          "name": "totalReward",
          "type": "uint256"
        }
      ],
      "stateMutability": "nonpayable",
      "type": "function"
    },
    {
      "inputs": [
        {
          "internalType": "address",
          "name": "",
          "type": "address"
        }
      ],
      "name": "userIndex",
      "outputs": [
        {
          "internalType": "uint256",
          "name": "",
          "type": "uint256"
        }
      ],
      "stateMutability": "view",
      "type": "function"
    },
    {
      "inputs": [
        {
          "internalType": "address",
          "name": "",
          "type": "address"
        },
        {
          "internalType": "uint256",
          "name": "",
          "type": "uint256"
        }
      ],
      "name": "userStakeRecord",
      "outputs": [
        {
          "internalType": "uint40",
          "name": "stakeTime",
          "type": "uint40"
        },
        {
          "internalType": "uint160",
          "name": "amount",
          "type": "uint160"
        },
        {
          "internalType": "bool",
          "name": "status",
          "type": "bool"
        },
        {
          "internalType": "uint8",
          "name": "stakeIndex",
          "type": "uint8"
        }
      ],
      "stateMutability": "view",
      "type": "function"
    }
  ],
  "bytecode": "0x60e08060405234610284576080816148b8803803809161001f828561033a565b8339810103126102845761003281610373565b9061003f60208201610373565b610057606061005060408501610373565b9301610373565b9233156103245760008054336001600160a01b0319821681178355604051949290916001600160a01b0316907f8be0079c531659141344cd1fd0a4f28419497f9722a3daafe3b4186f6b6457e09080a3601e60c0526001600160a01b0382169283156102e257506001600160a01b0316801561029d576000946020946044936080528260a05260018060a01b031660018060a01b0319600254161760025560018060a01b031660018060a01b03196012541617601255604051948593849263095ea7b360e01b84526004840152811960248401525af1801561029157610258575b50670deb5f2f95b78000600555670df607ab840b0000600655670e00b027725e8000600755670e16011f4f058000600855604051806005906000905b60048210610242577f91878134c373fd304a6480d969bf581cca2e4044be07a4d5ab42425ffcfc55d8608085a160405161453090816103888239608051818181610318015281816110560152818161114f01528181611cf801528181612100015281816123d30152818161339f01528181613a9501528181613d9501528181613e640152614031015260a051818181610dd10152818161121801528181611bce01528181611d5b015281816134bd0152614099015260c05181818161082a015281816114a5015261207f0152f35b6001602081928554815201930191019091610174565b6020813d602011610289575b816102716020938361033a565b8101031261028457518015158114610138575b600080fd5b3d9150610264565b6040513d6000823e3d90fd5b60405162461bcd60e51b815260206004820152601660248201527f496e76616c696420726f757465722061646472657373000000000000000000006044820152606490fd5b62461bcd60e51b815260206004820152601460248201527f496e76616c6964205553445420616464726573730000000000000000000000006044820152606490fd5b631e4fbdf760e01b600052600060045260246000fd5b601f909101601f19168101906001600160401b0382119082101761035d57604052565b634e487b7160e01b600052604160045260246000fd5b51906001600160a01b03821682036102845756fe6080604052600436101561001257600080fd5b60003560e01c8063069a8f2d146127c857806306fdde031461278357806308a2ab4b1461271d57806308adb4be14612698578063095ea7b3146126395780631451952b146125f657806318160ddd146125d8578063195112671461176f57806323b872dd146125b657806324acbd691461257c57806327e235e3146109bc5780632e17de7814611f9857806330ead46914611f565780633114740e14611e82578063313ce56714611e6657806331516ab814611c3957806332a00d8e14611bfd57806332fe7b2614611bb857806333060d9014611b7e5780633b0f0f2f14611b3c57806341edf8481461176f578063451309ed146119205780634690484014611b13578063488eaf3d14611aea578063532193231461195757806359f0c0e7146119255780635d80ca32146119205780635d948c35146118c65780635e61da08146118795780636386c1c7146117cd57806370a0823114610ab5578063715018a61461177457806372fbab3b1461176f5780637c61655f146116965780638b9909b4146110b55780638da5cb5b1461108c57806394f3b11814610ff957806395d89b4114610fba57806396d391bf14610f8e578063a2daf14e14610f2f578063a681093d14610f13578063a7f189b514610eea578063a9059cbb14610ecb578063b108b4cb1461052d578063b16da00f14610ea6578063b7be124e14610d80578063b9cc477b14610c96578063bfbc304814610b82578063c96679fe14610b48578063ca74de9b14610ad8578063d9dd0fdf14610ab5578063dd418ae214610a89578063dd62ed3e14610a5b578063e4fae6da14610a21578063e566d74d146109f6578063e68fc0ee146109bc578063e74b981b1461090b578063ea73a841146106ea578063eba73d981461065f578063eec76e0414610621578063f2fde38b14610598578063f34642a014610567578063f4fdf7321461052d578063f5a94215146104e8578063f6d5660f146104bf5763fff6cae9146102f257600080fd5b3461041f57600036600319011261041f576040516370a0823160e01b81523060048201527f00000000000000000000000000000000000000000000000000000000000000006001600160a01b0316602082602481845afa80156104135760009061048c575b600154604051631abfa62960e01b81529350602090849060049082906001600160a01b03165afa92831561041357600093610451575b5060405163a9059cbb60e01b81526001600160a01b0384166004820152602481019190915290602090829081600081604481015b03925af1801561041357610424575b506001600160a01b0316803b1561041f576000809160046040518094819363fff6cae960e01b83525af180156104135761040657005b600061041191612889565b005b6040513d6000823e3d90fd5b600080fd5b6104459060203d60201161044a575b61043d8183612889565b810190612b0b565b6103d0565b503d610433565b602091935060009261047b6103c192843d8611610485575b6104738183612889565b810190612bb2565b949250925061038d565b503d610469565b506020823d6020116104b7575b816104a660209383612889565b8101031261041f5760049151610357565b3d9150610499565b3461041f57600036600319011261041f576002546040516001600160a01b039091168152602090f35b3461041f57604036600319011261041f57610529610515610507612814565b61050f612840565b90612fe5565b6040519182916020835260208301906129e9565b0390f35b3461041f57602036600319011261041f576001600160a01b0361054e612814565b16600052600c6020526020604060002054604051908152f35b3461041f57604036600319011261041f57602061058e610585612814565b60243590612f4f565b6040519015158152f35b3461041f57602036600319011261041f576105b1612814565b6105b96132ec565b6001600160a01b0316801561060b57600080546001600160a01b03198116831782556001600160a01b0316907f8be0079c531659141344cd1fd0a4f28419497f9722a3daafe3b4186f6b6457e09080a3005b631e4fbdf760e01b600052600060045260246000fd5b3461041f57602036600319011261041f57602061058e61063f612814565b6001600160a01b039081166000908152600d602052604090205416151590565b3461041f57604036600319011261041f57600060206106c261067f612814565b6106876132ec565b60015460405163a9059cbb60e01b81526001600160a01b03928316600482015260248035908201529485939190921691839182906044820190565b03925af18015610413576106d257005b6104119060203d60201161044a5761043d8183612889565b3461041f57602036600319011261041f57610703612814565b336000908152600d60205260409020546001600160a01b03166108fa576002546001600160a01b0316903382146108e2576001600160a01b038116156108f3575b6001600160a01b038116913383146108e25782141590816108c6575b506108b55733600052600d6020526040600020816bffffffffffffffffffffffff60a01b82541617905580600052600e60205260406000208054600160401b81101561089f576107b59160018201815561294d565b81549060031b9033821b9160018060a01b03901b191617905533600052600f6020526040600020600160ff1982541617905533600052600460205260406000205480610825575b50337fcb282389824b9ba09f76f40ee522be8104006b13f0a7a8d78c2198a1cd1da468600080a3005b61084f7f000000000000000000000000000000000000000000000000000000000000000033612fe5565b60005b815160ff8216908110156108955760ff916001916001600160a01b03906108799086612d79565b5116600052600c60205260406000208581540190550116610852565b50505050816107fc565b634e487b7160e01b600052604160045260246000fd5b630c22084560e31b60005260046000fd5b670de0b6b3a764000091506108da90612e89565b111582610760565b63dc33424560e01b60005260046000fd5b5080610744565b63682a906560e01b60005260046000fd5b3461041f57602036600319011261041f57610924612814565b61092c6132ec565b6001600160a01b0316801561097f57601280546001600160a01b0319811683179091556001600160a01b03167faaebcf1bfa00580e41d966056b48521fa9f202645c86d4ddf28113e617c1b1d3600080a3005b60405162461bcd60e51b8152602060048201526015602482015274125b9d985b1a5908199959481c9958da5c1a595b9d605a1b6044820152606490fd5b3461041f57602036600319011261041f576001600160a01b036109dd612814565b1660005260046020526020604060002054604051908152f35b3461041f57602036600319011261041f576020610a19610a14612814565b612eff565b604051908152f35b3461041f57602036600319011261041f576001600160a01b03610a42612814565b1660005260116020526020604060002054604051908152f35b3461041f57604036600319011261041f57610a74612814565b50610a7d61282a565b50602060405160008152f35b3461041f57602036600319011261041f57600435600481101561041f5760209060050154604051908152f35b3461041f57602036600319011261041f576020610a19610ad3612814565b612e89565b3461041f57600036600319011261041f576080604051610af88282612889565b8136823762015180815262278d0060208201526276a700604082015262ed4e006060820152604051906000825b60048210610b3257505050f35b6020806001928551815201930191019091610b25565b3461041f57602036600319011261041f576001600160a01b03610b69612814565b16600052600b6020526020604060002054604051908152f35b3461041f57602036600319011261041f57610b9b612814565b336000908152601060205260409020546001600160a01b03166108fa576001600160a01b03168015610c5857338114610c135733600081815260106020526040812080546001600160a01b031916841790557f49143b55f926e514375927d6abffe4bc105a5832b9ae50fc457ab36620cacaa99080a3005b60405162461bcd60e51b815260206004820152601960248201527f43616e6e6f74207365742073656c6620617320667269656e64000000000000006044820152606490fd5b60405162461bcd60e51b8152602060048201526016602482015275496e76616c696420667269656e64206164647265737360501b6044820152606490fd5b3461041f57604036600319011261041f57610caf612814565b602435906000610120604051610cc481612850565b8281528260208201528260408201528260608201528260808201528260a08201528260c08201528260e082015282610100820152015260018060a01b031690816000526011602052604060002054811015610d4b57610d36610d3c916101409360005260116020526040600020612e6d565b50612b3b565b610d496040518092612980565bf35b60405162461bcd60e51b815260206004820152600d60248201526c092dcecc2d8d2c840d2dcc8caf609b1b6044820152606490fd5b3461041f57602036600319011261041f57610d99612814565b610da16132ec565b6001600160a01b03168015610e6157600180546001600160a01b0319168217905560405163095ea7b360e01b81527f00000000000000000000000000000000000000000000000000000000000000006001600160a01b0316600482015260001960248201526020816044816000865af1801561041357610e44575b507f685a736322f4a782f69eb455f2394d6ead581625259a45e38d78168683db6700600080a2005b610e5c9060203d60201161044a5761043d8183612889565b610e1c565b60405162461bcd60e51b815260206004820152601a60248201527f53594920616464726573732063616e6e6f74206265207a65726f0000000000006044820152606490fd5b3461041f57600036600319011261041f57602060405169021e19e0c9bab24000008152f35b3461041f57604036600319011261041f57610ee4612814565b50612a86565b3461041f57600036600319011261041f576001546040516001600160a01b039091168152602090f35b3461041f57600036600319011261041f57602060405160648152f35b3461041f57600036600319011261041f5760e0604051610f4f8282612889565b8136823760058152600a6020820152600f60408201526014606082015260196080820152601e60a0820152602360c0820152610d4960405180926128f4565b3461041f57600036600319011261041f5760606040516105dc81526107d0602082015260c86040820152f35b3461041f57600036600319011261041f57610529604051610fdc604082612889565b60048152637353594960e01b6020820152604051918291826128ab565b3461041f57604036600319011261041f576110506020611017612814565b61101f6132ec565b60405163a9059cbb60e01b81526001600160a01b039091166004820152602480359082015291829081906044820190565b038160007f00000000000000000000000000000000000000000000000000000000000000006001600160a01b03165af18015610413576106d257005b3461041f57600036600319011261041f576000546040516001600160a01b039091168152602090f35b3461041f57604036600319011261041f576004356001600160a01b0381169081810361041f576110e3612840565b333203611685576110f2612d8d565b83116116745760ff811690600382116116635733600052600460205269021e19e0c9bab240000061112885604060002054613f7b565b11611653576040516323b872dd60e01b8152336004820152306024820152604481018590527f00000000000000000000000000000000000000000000000000000000000000006001600160a01b0316906020816064816000865af1801561041357611636575b506024606094604051906111a28783612889565b60028252601f198701366020840137836111bb83612d5c565b526001546020906001600160a01b0316806111d585612d69565b526040516370a0823160e01b815230600482015294859182905afa92831561041357600093611602575b5060011c60016001609f1b03169261121684613f88565b7f00000000000000000000000000000000000000000000000000000000000000006001600160a01b03169290833b1561041f57604051635c11d79560e01b815291600091839182916112719142913091908c60048701613315565b038183875af18015610413576115f1575b506001546040516370a0823160e01b8152306004820152936001600160a01b039091169290602085602481875afa80156104135789956000916115b4575b50916112dc6112d56000936101049695612acb565b978c612acb565b96604051978896879562e8e33760e81b875260048701526024860152604485015260648401528160848401528160a48401528160c48401524260e48401525af190811561041357849161158b575b5050336000908152600d60205260409020546001600160a01b03161561157a57604051916113578361286d565b4264ffffffffff168084526003546001600160a01b031660208501908152600954919491600160401b81101561089f57806001611397920160095561291c565b919091611564579151815492516001600160c81b031990931664ffffffffff919091161760289290921b65010000000000600160c81b0316919091179055604051926080840184811067ffffffffffffffff82111761089f576040526020840191604085019086860192865287845260008252825233600052600a602052604060002094855495600160401b87101561089f578661143a9160018201815561294d565b949094611564579051845491516001600160c81b031990921664ffffffffff919091161760289190911b65010000000000600160c81b0316178355518254915161ffff60c81b1990921690151560c81b60ff60c81b161760d09190911b60ff60d01b161790556114ca7f000000000000000000000000000000000000000000000000000000000000000033612fe5565b9160005b835160ff8216908110156115115760ff916001916001600160a01b03906114f59088612d79565b5116600052600c602052604060002088815401905501166114ce565b8683876115278761152285336143a4565b612c9e565b9160405193845242602085015260408401528201527f9cfd25589d1eb8ad71e342a86a8524e83522e3936c0803048c08f6d9ad974f4060803392a2005b634e487b7160e01b600052600060045260246000fd5b637b7140f560e11b60005260046000fd5b813d83116115ad575b61159e8183612889565b8101031261041f57828561132a565b503d611594565b9193929550506020813d6020116115e9575b816115d360209383612889565b8101031261041f575188949192906112dc6112c0565b3d91506115c6565b60006115fc91612889565b88611282565b9092506020813d60201161162e575b8161161e60209383612889565b8101031261041f575191886111ff565b3d9150611611565b61164e9060203d60201161044a5761043d8183612889565b61118e565b620da58960e41b60005260046000fd5b63cf468e4360e01b60005260046000fd5b63ba1e17c160e01b60005260046000fd5b6303cc142b60e41b60005260046000fd5b3461041f57602036600319011261041f576116af612814565b60009060018060a01b03811690818352600c6020526040832054918352600e60205260ff6116e160408520549261425b565b1692600784101561176457506116f561318d565b836006039060ff821161174e5760ff61170f921690612a75565b515160648302938385046064148415171561174e576117308260a096612aeb565b925b6040519485526020850152604084015260608301526080820152f35b634e487b7160e01b600052601160045260246000fd5b60a093606492611732565b612965565b3461041f57600036600319011261041f5761178d6132ec565b600080546001600160a01b0319811682556001600160a01b03167f8be0079c531659141344cd1fd0a4f28419497f9722a3daafe3b4186f6b6457e08280a3005b3461041f57602036600319011261041f5760a06117e8612814565b6001600160801b036117f982612e89565b1690600180841b0381169081600052600c6020526001600160801b03604060002054169180600052600d602052600180861b036040600020541690600052600f602052680ad78ebc5ac620000061185860ff6040600020541693612e89565b10159260405194855260208501526040840152151560608301526080820152f35b3461041f57602036600319011261041f5760043560095481101561041f576118a260409161291c565b5054815164ffffffffff8216815260289190911c6001600160a01b03166020820152f35b3461041f57602036600319011261041f5760206118e1612814565b6001600160a01b0381166000908152600483526040812054909161190490612e89565b818111611916575b5050604051908152f35b039050828061190c565b612a26565b3461041f57602036600319011261041f576020680ad78ebc5ac620000061194d610ad3612814565b1015604051908152f35b3461041f57602036600319011261041f57611970612814565b6001600160a01b0381166000818152600a6020526040902054909161199482612d2a565b9161199e81612b23565b906119ac6040519283612889565b8082526119b881612b23565b602083019590601f19013687376119ce82612d2a565b9360005b838110611a3a575050505060206119f460405194606086526060860190612a41565b9184830382860152519182815201939060005b818110611a2257848061052988878382036040850152612a41565b82511515865260209586019590920191600101611a07565b8080611a486001938a612d79565b52611a538184612f4f565b611a5d8288612d79565b901515905283600052600a602052611a7981604060002061294d565b505460ff8160c81c1615600014611ad757611aaa60ff611aa064ffffffffff841642612acb565b9260d01c16612c9e565b90818110611ac957505060005b611ac18289612d79565b525b016119d2565b611ad291612acb565b611ab7565b506000611ae48289612d79565b52611ac3565b3461041f57602036600319011261041f5760043560ff8116810361041f57610a19602091612c9e565b3461041f57600036600319011261041f576012546040516001600160a01b039091168152602090f35b3461041f57602036600319011261041f576001600160a01b03611b5d612814565b16600052600d602052602060018060a01b0360406000205416604051908152f35b3461041f57602036600319011261041f576001600160a01b03611b9f612814565b16600052600a6020526020604060002054604051908152f35b3461041f57600036600319011261041f576040517f00000000000000000000000000000000000000000000000000000000000000006001600160a01b03168152602090f35b3461041f57604036600319011261041f57610529610515611c1c612814565b60243560ff8111611c31575b60ff1690612fe5565b5060ff611c28565b3461041f57602036600319011261041f5760043560011c6004602060018060a01b036001541660405192838092631abfa62960e01b82525afa90811561041357600091611e47575b50604051630240bc6b60e21b81526001600160a01b03919091169190606081600481865afa90811561041357600090600092611e14575b506004602060009560405192838092630dfe168160e01b82525afa908115611e0957906020939291611d579691611dec575b506001600160a01b039081167f000000000000000000000000000000000000000000000000000000000000000090911603611de6575b604051630153543560e21b8152600481018590526001600160701b0391821660248201529116604482015292839081906064820190565b03817f00000000000000000000000000000000000000000000000000000000000000006001600160a01b03165afa801561041357600090611db3575b60609250611da082613f88565b9060405192835260208301526040820152f35b506020823d602011611dde575b81611dcd60209383612889565b8101031261041f5760609151611d93565b3d9150611dc0565b90611d20565b611e039150843d8611610485576104738183612889565b86611cea565b6040513d87823e3d90fd5b9050611e38915060603d606011611e40575b611e308183612889565b810190612be5565b509084611cb8565b503d611e26565b611e60915060203d602011610485576104738183612889565b82611c81565b3461041f57600036600319011261041f57602060405160128152f35b3461041f57602036600319011261041f576001600160a01b03611ea3612814565b1660005260116020526040600020805490611ebd82612b23565b91611ecb6040519384612889565b80835260208301809260005260206000206000915b838310611f385784866040519182916020830190602084525180915260408301919060005b818110611f13575050500390f35b91935091602061014082611f2a6001948851612980565b019401910191849392611f05565b600a6020600192611f4885612b3b565b815201920192019190611ee0565b3461041f57602036600319011261041f576001600160a01b03611f77612814565b166000526010602052602060018060a01b0360406000205416604051908152f35b3461041f57602036600319011261041f573332036116855733600052600a602052611fc9600435604060002061294d565b508054611fdd64ffffffffff821642612acb565b611fec60ff8360d01c16612c9e565b1161256b5760ff8160c81c1661255a57612005826130c7565b60ff60c81b198216600160c81b1790925561202d602882901c6001600160a01b0316336142f0565b336000908152600b602052604090208054600101905561204c8261334e565b6000602884901c6001600160a01b0316831115612554575061207b602884901c6001600160a01b031683612acb565b905b7f0000000000000000000000000000000000000000000000000000000000000000946120a98633612fe5565b336000908152601060205260409020546001600160a01b0316801561251a5760405163a9059cbb60e01b81526001600160a01b03909116600482015260646005860204602482015260208180604481015b038160007f00000000000000000000000000000000000000000000000000000000000000006001600160a01b03165af180156104135761214c926121459287926124fb575b506138a6565b9633612fe5565b9360005b855160ff82169081101561219d5760ff916001916001600160a01b0390612177908a612d79565b5116600052600c6020526040600020828060a01b038a60281c1681540390550116612150565b50508684876121bb836121b66064600586020487612acb565b612acb565b91606483028381046064148415171561174e576127109004801515806124e7575b612483575b50604051936121ef85612850565b64ffffffffff42168552600435602086015260018060a01b038360281c1660408601528660608601528560808601528760a08601526064600583020460c08601528060e0860152836101008601528161012086015233600052601160205260406000208054600160401b81101561089f5761226f91600182018155612e6d565b969096611564576123cd9660096101208864ffffffffff8060209b51161664ffffffffff1985541617845589810151600185015560408101516002850155606081015160038501556080810151600485015560a0810151600585015560c0810151600685015560e081015160078501556101008101516008850155015191015560405188815264ffffffffff42168782015260043560408201527f48711929c842404f1d698f9525c36a831e8224d0bac22977e91904b3fe9f656460603392a26040519360018060a01b039060281c1684528786850152604084015287606084015260646005830204608084015260a08301528260c083015260e082015264ffffffffff4216610100820152600435907fab399e9275f69c267fe8b281747707bbd6b5b7dc2afb59ac345ae3e7ee24338d6101203392a360405163a9059cbb60e01b8152336004820152602481019190915291829081906044820190565b038160007f00000000000000000000000000000000000000000000000000000000000000006001600160a01b03165af1801561041357612466575b506001546001600160a01b031691823b1561041f576000926024849260405195869384926337470d6f60e21b845260048401525af191821561041357602092612455575b50604051908152f35b600061246091612889565b8261244c565b61247e9060203d60201161044a5761043d8183612889565b612408565b61248c8161334e565b60125460408051600435815260208101939093528201939093524260608201526001600160a01b03909216913391507f91a9f62031be84840eb01532b7f49aac5edbd1cf88134c55fecb102753216b2c90608090a3876121e1565b506012546001600160a01b031615156121dc565b6125139060203d60201161044a5761043d8183612889565b508a61213f565b5060025460405163a9059cbb60e01b81526001600160a01b03909116600482015260646005860204602482015260208180604481016120fa565b9061207d565b636507689f60e01b60005260046000fd5b63508bb1f560e01b60005260046000fd5b3461041f57602036600319011261041f576001600160a01b0361259d612814565b16600052600e6020526020604060002054604051908152f35b3461041f57606036600319011261041f576125cf612814565b50610ee461282a565b3461041f57600036600319011261041f576020600354604051908152f35b3461041f57602036600319011261041f5761260f612814565b6126176132ec565b600280546001600160a01b0319166001600160a01b0392909216919091179055005b3461041f57604036600319011261041f57612652612814565b5060405162461bcd60e51b815260206004820152601760248201527f417070726f76616c73206e6f7420737570706f727465640000000000000000006044820152606490fd5b3461041f57604036600319011261041f576126b1612814565b6001600160a01b03166000908152600a602052604090208054602435919082101561041f576080916126e29161294d565b505460ff6040519164ffffffffff8116835260018060a01b038160281c166020840152818160c81c161515604084015260d01c166060820152f35b3461041f57600036600319011261041f5760405160e061273d8183612889565b8036833761274961318d565b9160005b600781106127635750610d4960405180926128f4565b8061277060019286612a75565b515161277c8285612a75565b520161274d565b3461041f57600036600319011261041f576105296040516127a5604082612889565b600a8152695374616b65642053594960b01b6020820152604051918291826128ab565b3461041f57604036600319011261041f576020610a1961280e6127e9612814565b6127f1612840565b6001600160a01b039091166000908152600a85526040902061294d565b506130c7565b600435906001600160a01b038216820361041f57565b602435906001600160a01b038216820361041f57565b6024359060ff8216820361041f57565b610140810190811067ffffffffffffffff82111761089f57604052565b6040810190811067ffffffffffffffff82111761089f57604052565b90601f8019910116810190811067ffffffffffffffff82111761089f57604052565b91909160208152825180602083015260005b8181106128de575060409293506000838284010152601f8019910116010190565b80602080928701015160408286010152016128bd565b906000905b6007821061290657505050565b60208060019285518152019301910190916128f9565b60095481101561293757600960005260206000200190600090565b634e487b7160e01b600052603260045260246000fd5b80548210156129375760005260206000200190600090565b3461041f57600036600319011261041f576020610a19612c1b565b610120809164ffffffffff81511684526020810151602085015260408101516040850152606081015160608501526080810151608085015260a081015160a085015260c081015160c085015260e081015160e08501526101008101516101008501520151910152565b906020808351928381520192019060005b818110612a075750505090565b82516001600160a01b03168452602093840193909201916001016129fa565b3461041f57600036600319011261041f576020610a19612d8d565b906020808351928381520192019060005b818110612a5f5750505090565b8251845260209384019390920191600101612a52565b9060078110156129375760051b0190565b60405162461bcd60e51b815260206004820152601760248201527f5472616e7366657273206e6f7420737570706f727465640000000000000000006044820152606490fd5b9190820391821161174e57565b8181029291811591840414171561174e57565b8115612af5570490565b634e487b7160e01b600052601260045260246000fd5b9081602091031261041f5751801515810361041f5790565b67ffffffffffffffff811161089f5760051b60200190565b90604051612b4881612850565b6101206009829464ffffffffff815416845260018101546020850152600281015460408501526003810154606085015260048101546080850152600581015460a0850152600681015460c0850152600781015460e085015260088101546101008501520154910152565b9081602091031261041f57516001600160a01b038116810361041f5790565b51906001600160701b038216820361041f57565b9081606091031261041f57612bf981612bd1565b916040612c0860208401612bd1565b92015163ffffffff8116810361041f5790565b600954908115612c9857603b1942019142831161174e57600354908190600019810190811161174e575b612c4e8161291c565b505464ffffffffff8116861115612c6f575050612c6c929350612acb565b90565b60281c6001600160a01b031692508015612c8c5760001901612c45565b50612c6c929350612acb565b60009150565b9060ff6000921660038111612cef578015612ce65760018114612cdd5760028114612cd457600314612ccc57565b62ed4e009150565b506276a7009150565b5062278d009150565b50620151809150565b60405162461bcd60e51b8152602060048201526013602482015272092dcecc2d8d2c840e6e8c2d6ca40d2dcc8caf606b1b6044820152606490fd5b90612d3482612b23565b612d416040519182612889565b8281528092612d52601f1991612b23565b0190602036910137565b8051156129375760200190565b8051600110156129375760400190565b80518210156129375760209160051b010190565b612d95612c1b565b60015460405163d123de3160e01b815290602090829060049082906001600160a01b03165afa90811561041357600091612e15575b506001600160701b03606491160490818111600014612dea575050600090565b612df391612acb565b683635c9adc5dea00000811015612e075790565b50683635c9adc5dea0000090565b90506020813d602011612e52575b81612e3060209383612889565b8101031261041f576001600160701b03612e4b606492612bd1565b9150612dca565b3d9150612e23565b60ff6000199116019060ff821161174e57565b805482101561293757600052600a602060002091020190600090565b6001600160a01b03166000908152600a60205260408120805491929180612eae575050565b909290600019810190811161174e57905b612ec9828561294d565b5060ff815460c81c1615612eef575b50908015612eea576000190190612ebf565b509150565b612ef8906130c7565b0138612ed8565b6001600160a01b031660009081526004602052604090205469021e19e0c9bab2400000811015612f495769021e19e0c9bab24000000369021e19e0c9bab2400000811161174e5790565b50600090565b6001600160a01b03166000818152600a602052604090205490919015612fcd5781600052600a602052604060002054811015612fcd57612f9b91600052600a602052604060002061294d565b505460ff8160c81c16612f4957612fc864ffffffffff612fc060ff8460d01c16612c9e565b921642612acb565b101590565b5050600090565b60ff1660ff811461174e5760010190565b9060ff1690612ff382612d2a565b906000906000905b8460ff831610806130b5575b15613061576001600160a01b039081166000908152600d602052604090205416908161303d575b61303790612fd4565b90612ffb565b91613059818361305360ff613037951688612d79565b52612fd4565b92905061302e565b505060ff9192501661307281612d2a565b9160005b60ff8116838110156130ae5760ff916001916130a66001600160a01b0361309d8388612d79565b51169188612d79565b520116613076565b5050505090565b506001600160a01b0381161515613007565b5460d081901c60ff1690602881901c6001600160a01b03169064ffffffffff908116428216038116816130f985612c9e565b168082101561318657505b1691826131115750905090565b600481101561293757600501546201518090920491806001841615613177575b9260011c90815b61314857505090612c6c916143fa565b80613152916143fa565b9060018116613166575b60011c9081613138565b9281613171916143fa565b9261315c565b50670de0b6b3a7640000613131565b9050613104565b60e060405161319c8282612889565b60005b8281106132c957505060405190810181811067ffffffffffffffff82111761089f576040526040516131d08161286d565b6a0422ca8b0a00a42500000081526023602082015281526040516131f38161286d565b6a02116545850052128000008152601e602082015260208201526040516132198161286d565b69d3c21bcecceda1000000815260196020820152604082015260405161323e8161286d565b6969e10de76676d080000081526014602082015260608201526040516132638161286d565b692a5a058fc295ed0000008152600f602082015260808201526040516132888161286d565b690a968163f0a57b4000008152600a602082015260a08201526040516132ad8161286d565b69021e19e0c9bab240000081526005602082015260c082015290565b6020906040516132d88161286d565b60008152600083820152818401520161319f565b6000546001600160a01b0316330361330057565b63118cdaa760e01b6000523360045260246000fd5b919260809361333a92979695978452602084015260a0604084015260a08301906129e9565b6001600160a01b0390951660608201520152565b6001546040516370a0823160e01b81523060048201529291906001600160a01b0316602084602481845afa93841561041357600094613840575b506040516370a0823160e01b8152306004820152917f00000000000000000000000000000000000000000000000000000000000000006001600160a01b03169190602084602481865afa9384156104135760009461380c575b506040519160606133f28185612889565b60028452601f1981013660208601378161340b85612d5c565b528461341685612d69565b52604051631abfa62960e01b8152602081600481865afa908115610413576000916137ed575b50604051630240bc6b60e21b815292906001600160a01b03168284600481845afa6000948594826137c5575b505061369a57505050508560011c905b811580613691575b613686575b8660011c80831161367d575b50600091926134b86040519485938493634401edf760e11b85524292309260048701613315565b0381837f00000000000000000000000000000000000000000000000000000000000000006001600160a01b03165af1908115610413576000916135df575b50506001546040516370a0823160e01b81523060048201529190602090839060249082906001600160a01b03165afa918215610413576000926135aa575b506020602491604051928380926370a0823160e01b82523060048301525afa90811561041357600091613576575b50612c6c9261357091612acb565b93612acb565b90506020813d6020116135a2575b8161359160209383612889565b8101031261041f5751612c6c613562565b3d9150613584565b9091506020813d6020116135d7575b816135c660209383612889565b8101031261041f5751906020613534565b3d91506135b9565b3d8083833e6135ee8183612889565b8101906020818303126136755780519067ffffffffffffffff8211613679570181601f820112156136755780519061362582612b23565b936136336040519586612889565b82855260208086019360051b8301019384116136725750602001905b8282106136625750839291506134f69050565b815181526020918201910161364f565b80fd5b8280fd5b8380fd5b91506000613491565b600a87049150613485565b50861515613480565b602060049160405192838092630dfe168160e01b82525afa908115610413576000916137a6575b506001600160a01b031603613797576001600160701b03905b169081151580613785575b15613779576001600160701b0381169060011c6d7fffffffffffffffffffffffffff168084111561377157915b81831015613764578261372b6137319261373795612ad8565b92612acb565b90612aeb565b60968102908082046096149015171561174e57606490048681101561375d575b90613478565b5085613757565b5050508560021c90613478565b508291613712565b50508560011c90613478565b506001600160701b03811615156136e5565b906001600160701b03906136da565b6137bf915060203d602011610485576104738183612889565b386136c1565b80919296506137e1939550903d10611e4057611e308183612889565b50929092933880613468565b613806915060203d602011610485576104738183612889565b3861343c565b9093506020813d602011613838575b8161382860209383612889565b8101031261041f575192386133e1565b3d915061381b565b90936020823d60201161386c575b8161385b60209383612889565b810103126136725750519238613388565b3d915061384e565b906000905b6007821061388657505050565b82516001600160a01b031681526020928301926001929092019101613879565b80516064602384020493929015613e2b578151926138c384612b23565b936138d16040519586612889565b8085526138e0601f1991612b23565b0136602086013760005b8351811015613928576001906139126001600160a01b0361390b8388612d79565b511661425b565b60ff61391e8389612d79565b91169052016138ea565b50909360009060e0956040519261393f8885612889565b8736853760405197613951818a612889565b36893795600095865b60ff81168a600782101561398c5791896139848360ff958361397e6001978e612a75565b52612a75565b52011661395a565b5050509296919590939461010094604051956139a88188612889565b3687378291825b8651841015613cc65760ff6139c48585612d79565b51168015158080613cb4575b80613c8d575b15613bc257508c6139e682614492565b92600081851115613bbc57506139fc8185612acb565b905b8d82613a21575b50505050906001613a1781938b6143e9565b52935b01926139af565b613a2d83606492612ad8565b04928b84613a3f575b5092508d613a05565b90602085613a8f969c93613a5d8d60018060a09d9c9d1b0392612d79565b5160405163a9059cbb60e01b815291166001600160a01b03166004820152602481019190915295869081906044820190565b038160007f00000000000000000000000000000000000000000000000000000000000000006001600160a01b03165af1908115610413578f8b8f9e8e613ade918c9a8297613ba0575b50613f7b565b9e6001600160a01b0391613af191612d79565b511690613afd88612e5a565b60ff16613b0991612a75565b52613b1386612e5a565b60ff16613b1f91612a75565b52613b2984612e5a565b600160ff9182161b1617986001600160a01b03613b468a8e612d79565b51169285604051938493613b7193859094939260609260808301968352602083015260408201520152565b037f01a734153c0601a74f1dc5664552f5332bdbff9d65f915aa93203670b315f2bc91a3903880808f8b613a36565b613bb79060203d811161044a5761043d8183612889565b613ad8565b906139fe565b9081600193969290613c7b575b80613c50575b613be0575b50613a1a565b828060a01b03613bf0838b612d79565b51167f7a3d04064bf52fd85b24e9b77ff67ea0509733b9d322a1e5db9015b88a5777f0606060405160208152601c60208201527f494e53554646494349454e545f50524541434845525f535441545553000000006040820152a338613bda565b50680ad78ebc5ac6200000613c75848060a01b03613c6e858d612d79565b5116612e89565b10613bd5565b50613c86818b6143e9565b5115613bcf565b50680ad78ebc5ac6200000613cad6001600160a01b03613c6e898d612d79565b10156139d6565b50613cbf828b6143e9565b51156139d0565b5099945050509250939293600090868110613d44575b60ff92613d2e7f20c7869a18417805c9820e55e867d39f97ad72dac389ee573ebe84a9c4e0a76097610260979694613d39946040519889528b60208a0152604089015260608801526080870190613874565b6101608501906128f4565b16610240820152a190565b9193929050613d8f613d568388612acb565b60025460405163a9059cbb60e01b81526001600160a01b0390911660048201526024810182905290959091602090839081906044820190565b038160007f00000000000000000000000000000000000000000000000000000000000000006001600160a01b03165af18015610413577f20c7869a18417805c9820e55e867d39f97ad72dac389ee573ebe84a9c4e0a760976102609760ff96613d3995613d2e94613e0c575b509450949697509750509250613cdc565b613e249060203d60201161044a5761043d8183612889565b5038613dfb565b60025460405163a9059cbb60e01b81526001600160a01b03909116600482015260248101859052909291506020818060448101038160007f00000000000000000000000000000000000000000000000000000000000000006001600160a01b03165af1801561041357613f5e575b5060405160e091613eaa8383612889565b8236833760405192613ebc8185612889565b36843760005b60ff81166007811015613ef45760ff916000613eec8382613ee56001968a612a75565b5288612a75565b520116613ec2565b50509392613f527f20c7869a18417805c9820e55e867d39f97ad72dac389ee573ebe84a9c4e0a76093613f4761026094604051948552876020860152600060408601528760608601526080850190613874565b6101608301906128f4565b6000610240820152a190565b613f769060203d60201161044a5761043d8183612889565b613e99565b9190820180921161174e57565b600154604051631abfa62960e01b815291929190602090829060049082906001600160a01b03165afa9081156104135760009161423c575b50604051630240bc6b60e21b81526001600160a01b039190911692606082600481875afa91821561041357600090600093614217575b506004602060009660405192838092630dfe168160e01b82525afa90811561420c576140959596916141ed575b506001600160a01b039081167f0000000000000000000000000000000000000000000000000000000000000000909116036141e557602090925b604051630153543560e21b8152600481018490526001600160701b038086166024830152909116604482015293849081906064820190565b03817f00000000000000000000000000000000000000000000000000000000000000006001600160a01b03165afa928315610413576000936141b1575b50612710810290808204612710149015171561174e576001600160701b036140fb921690612aeb565b60009060c8811161414e5750506105dc5b6125e48202918083046125e4149015171561174e576127100390612710821161174e57612710918261413e9204612ad8565b0490811561414857565b60019150565b6105dc8102908082046105dc149015171561419d5760c890046105dc0190816105dc1161418957506107d081111561410c57506107d061410c565b634e487b7160e01b81526011600452602490fd5b634e487b7160e01b82526011600452602482fd5b90926020823d6020116141dd575b816141cc60209383612889565b8101031261367257505191386140d2565b3d91506141bf565b60209061405d565b614206915060203d602011610485576104738183612889565b38614023565b6040513d88823e3d90fd5b905061423391925060603d606011611e4057611e308183612889565b50919038613ff6565b614255915060203d602011610485576104738183612889565b38613fc0565b6002546001600160a01b0382811692911682149081156142d4575b50612f4957600052600c60205260406000205461429161318d565b9060005b600781106142a557505050600090565b6142af8184612a75565b51518210156142c057600101614295565b9150506007036007811161174e5760ff1690565b680ad78ebc5ac620000091506142e990612e89565b1038614276565b6000916001600160a01b039091169081156143595760207fddf252ad1be2c89b69c2b068fc378daa952ba7f163c4a11628f55a4df523b3ef91838552600482526040852061433f828254612acb565b905561434d81600354612acb565b600355604051908152a3565b82915060207fddf252ad1be2c89b69c2b068fc378daa952ba7f163c4a11628f55a4df523b3ef918380526004825260408420614396828254613f7b565b905561434d81600354613f7b565b7fddf252ad1be2c89b69c2b068fc378daa952ba7f163c4a11628f55a4df523b3ef602060009260018060a01b0316938484526004825260408420614396828254613f7b565b9060088110156129375760051b0190565b9091906000198382098382029182808310920391808303921461448157670de0b6b3a7640000821015614468577faccb18165bd6fe31ae1cf318dc5b51eee0e1ba569b88cd74c1773b91fac106699394670de0b6b3a7640000910990828211900360ee1b910360121c170290565b8490635173648d60e01b60005260045260245260446000fd5b5050670de0b6b3a764000090049150565b60ff16600181146144f457600281146144ee57600381146144e857600481146144e257600581146144dc57600681146144d6576007146144d157600090565b602390565b50601e90565b50601990565b50601490565b50600f90565b50600a90565b5060059056fea26469706673582212206b4345127b817a45748870e694775f1d559c18f65adb91bbe1c9931546adc95664736f6c634300081c0033",
  "linkReferences": {},
  "deployedLinkReferences": {}
}