{
  "_format": "hh-sol-artifact-1",
  "contractName": "Staking",
  "sourceName": "contracts/SYI-Staking/mainnet/Staking.sol",
  "abi": [
    {
      "inputs": [
        {
          "internalType": "address",
          "name": "_usdt",
          "type": "address"
        },
        {
          "internalType": "address",
          "name": "_router",
          "type": "address"
        },
        {
          "internalType": "address",
          "name": "_rootAddress",
          "type": "address"
        },
        {
          "internalType": "address",
          "name": "_feeRecipient",
          "type": "address"
        }
      ],
      "stateMutability": "nonpayable",
      "type": "constructor"
    },
    {
      "inputs": [],
      "name": "AlreadyBound",
      "type": "error"
    },
    {
      "inputs": [],
      "name": "AlreadyLocked",
      "type": "error"
    },
    {
      "inputs": [],
      "name": "AlreadyWithdrawn",
      "type": "error"
    },
    {
      "inputs": [],
      "name": "CannotReferSelf",
      "type": "error"
    },
    {
      "inputs": [],
      "name": "ExceedsMaxStakeAmount",
      "type": "error"
    },
    {
      "inputs": [],
      "name": "ExceedsUserTotalStakeLimit",
      "type": "error"
    },
    {
      "inputs": [],
      "name": "InvalidReferral",
      "type": "error"
    },
    {
      "inputs": [],
      "name": "InvalidReferrer",
      "type": "error"
    },
    {
      "inputs": [],
      "name": "InvalidStakeIndex",
      "type": "error"
    },
    {
      "inputs": [],
      "name": "MustBindReferral",
      "type": "error"
    },
    {
      "inputs": [],
      "name": "NotAuthorized",
      "type": "error"
    },
    {
      "inputs": [],
      "name": "OnlyEOAAllowed",
      "type": "error"
    },
    {
      "inputs": [
        {
          "internalType": "address",
          "name": "owner",
          "type": "address"
        }
      ],
      "name": "OwnableInvalidOwner",
      "type": "error"
    },
    {
      "inputs": [
        {
          "internalType": "address",
          "name": "account",
          "type": "address"
        }
      ],
      "name": "OwnableUnauthorizedAccount",
      "type": "error"
    },
    {
      "inputs": [
        {
          "internalType": "uint256",
          "name": "x",
          "type": "uint256"
        },
        {
          "internalType": "uint256",
          "name": "y",
          "type": "uint256"
        }
      ],
      "name": "PRBMath_MulDiv18_Overflow",
      "type": "error"
    },
    {
      "inputs": [],
      "name": "StakingPeriodNotMet",
      "type": "error"
    },
    {
      "anonymous": false,
      "inputs": [
        {
          "indexed": true,
          "internalType": "address",
          "name": "user",
          "type": "address"
        },
        {
          "indexed": true,
          "internalType": "address",
          "name": "friend",
          "type": "address"
        }
      ],
      "name": "BindFriend",
      "type": "event"
    },
    {
      "anonymous": false,
      "inputs": [
        {
          "indexed": true,
          "internalType": "address",
          "name": "user",
          "type": "address"
        },
        {
          "indexed": true,
          "internalType": "address",
          "name": "parent",
          "type": "address"
        }
      ],
      "name": "BindReferral",
      "type": "event"
    },
    {
      "anonymous": false,
      "inputs": [
        {
          "indexed": true,
          "internalType": "address",
          "name": "user",
          "type": "address"
        },
        {
          "indexed": true,
          "internalType": "uint256",
          "name": "stakeIndex",
          "type": "uint256"
        },
        {
          "indexed": false,
          "internalType": "uint256",
          "name": "oldValue",
          "type": "uint256"
        },
        {
          "indexed": false,
          "internalType": "uint256",
          "name": "newPrincipal",
          "type": "uint256"
        },
        {
          "indexed": false,
          "internalType": "uint40",
          "name": "oldStakeTime",
          "type": "uint40"
        },
        {
          "indexed": false,
          "internalType": "uint40",
          "name": "newStakeTime",
          "type": "uint40"
        },
        {
          "indexed": false,
          "internalType": "uint40",
          "name": "unchangedEndTime",
          "type": "uint40"
        },
        {
          "indexed": false,
          "internalType": "uint256",
          "name": "timestamp",
          "type": "uint256"
        }
      ],
      "name": "CompoundInterestReset",
      "type": "event"
    },
    {
      "anonymous": false,
      "inputs": [
        {
          "indexed": true,
          "internalType": "address",
          "name": "oldRecipient",
          "type": "address"
        },
        {
          "indexed": true,
          "internalType": "address",
          "name": "newRecipient",
          "type": "address"
        }
      ],
      "name": "FeeRecipientUpdated",
      "type": "event"
    },
    {
      "anonymous": false,
      "inputs": [
        {
          "indexed": true,
          "internalType": "address",
          "name": "user",
          "type": "address"
        },
        {
          "indexed": true,
          "internalType": "uint256",
          "name": "stakeIndex",
          "type": "uint256"
        },
        {
          "indexed": false,
          "internalType": "uint256",
          "name": "profitAmount",
          "type": "uint256"
        },
        {
          "indexed": false,
          "internalType": "uint256",
          "name": "usdtReceived",
          "type": "uint256"
        },
        {
          "indexed": false,
          "internalType": "uint256",
          "name": "userPayout",
          "type": "uint256"
        },
        {
          "indexed": false,
          "internalType": "uint256",
          "name": "friendReward",
          "type": "uint256"
        },
        {
          "indexed": false,
          "internalType": "uint256",
          "name": "teamReward",
          "type": "uint256"
        },
        {
          "indexed": false,
          "internalType": "uint256",
          "name": "redemptionFee",
          "type": "uint256"
        },
        {
          "indexed": false,
          "internalType": "uint40",
          "name": "resetTime",
          "type": "uint40"
        },
        {
          "indexed": false,
          "internalType": "uint40",
          "name": "originalEndTime",
          "type": "uint40"
        },
        {
          "indexed": false,
          "internalType": "uint256",
          "name": "timestamp",
          "type": "uint256"
        }
      ],
      "name": "InterestWithdrawn",
      "type": "event"
    },
    {
      "anonymous": false,
      "inputs": [
        {
          "indexed": true,
          "internalType": "address",
          "name": "oldAddress",
          "type": "address"
        },
        {
          "indexed": true,
          "internalType": "address",
          "name": "newAddress",
          "type": "address"
        }
      ],
      "name": "MarketingAddressUpdated",
      "type": "event"
    },
    {
      "anonymous": false,
      "inputs": [
        {
          "indexed": true,
          "internalType": "address",
          "name": "previousOwner",
          "type": "address"
        },
        {
          "indexed": true,
          "internalType": "address",
          "name": "newOwner",
          "type": "address"
        }
      ],
      "name": "OwnershipTransferred",
      "type": "event"
    },
    {
      "anonymous": false,
      "inputs": [
        {
          "indexed": true,
          "internalType": "address",
          "name": "user",
          "type": "address"
        },
        {
          "indexed": true,
          "internalType": "uint8",
          "name": "tier",
          "type": "uint8"
        },
        {
          "indexed": false,
          "internalType": "string",
          "name": "reason",
          "type": "string"
        }
      ],
      "name": "PreacherCheckFailed",
      "type": "event"
    },
    {
      "anonymous": false,
      "inputs": [
        {
          "indexed": false,
          "internalType": "uint256",
          "name": "duration",
          "type": "uint256"
        }
      ],
      "name": "PresaleDurationUpdated",
      "type": "event"
    },
    {
      "anonymous": false,
      "inputs": [
        {
          "indexed": true,
          "internalType": "address",
          "name": "user",
          "type": "address"
        },
        {
          "indexed": false,
          "internalType": "uint256",
          "name": "stakeIndex",
          "type": "uint256"
        },
        {
          "indexed": false,
          "internalType": "uint256",
          "name": "syiAmount",
          "type": "uint256"
        },
        {
          "indexed": false,
          "internalType": "uint256",
          "name": "usdtAmount",
          "type": "uint256"
        },
        {
          "indexed": true,
          "internalType": "address",
          "name": "feeRecipient",
          "type": "address"
        },
        {
          "indexed": false,
          "internalType": "uint256",
          "name": "timestamp",
          "type": "uint256"
        }
      ],
      "name": "RedemptionFeeCollected",
      "type": "event"
    },
    {
      "anonymous": false,
      "inputs": [
        {
          "indexed": true,
          "internalType": "address",
          "name": "user",
          "type": "address"
        },
        {
          "indexed": false,
          "internalType": "uint256",
          "name": "reward",
          "type": "uint256"
        },
        {
          "indexed": false,
          "internalType": "uint40",
          "name": "timestamp",
          "type": "uint40"
        },
        {
          "indexed": false,
          "internalType": "uint256",
          "name": "index",
          "type": "uint256"
        }
      ],
      "name": "RewardPaid",
      "type": "event"
    },
    {
      "anonymous": false,
      "inputs": [
        {
          "indexed": true,
          "internalType": "address",
          "name": "syiAddress",
          "type": "address"
        }
      ],
      "name": "SYIContractSet",
      "type": "event"
    },
    {
      "anonymous": false,
      "inputs": [
        {
          "indexed": true,
          "internalType": "address",
          "name": "user",
          "type": "address"
        },
        {
          "indexed": false,
          "internalType": "uint256",
          "name": "amount",
          "type": "uint256"
        },
        {
          "indexed": false,
          "internalType": "uint256",
          "name": "timestamp",
          "type": "uint256"
        },
        {
          "indexed": false,
          "internalType": "uint256",
          "name": "index",
          "type": "uint256"
        },
        {
          "indexed": false,
          "internalType": "uint256",
          "name": "stakeTime",
          "type": "uint256"
        }
      ],
      "name": "Staked",
      "type": "event"
    },
    {
      "anonymous": false,
      "inputs": [
        {
          "indexed": false,
          "internalType": "uint256[4]",
          "name": "newRates",
          "type": "uint256[4]"
        }
      ],
      "name": "StakingRatesUpdated",
      "type": "event"
    },
    {
      "anonymous": false,
      "inputs": [
        {
          "indexed": true,
          "internalType": "address",
          "name": "recipient",
          "type": "address"
        },
        {
          "indexed": true,
          "internalType": "uint8",
          "name": "tier",
          "type": "uint8"
        },
        {
          "indexed": false,
          "internalType": "uint256",
          "name": "actualRewardRate",
          "type": "uint256"
        },
        {
          "indexed": false,
          "internalType": "uint256",
          "name": "rewardAmount",
          "type": "uint256"
        },
        {
          "indexed": false,
          "internalType": "uint256",
          "name": "previousCumulativeRate",
          "type": "uint256"
        },
        {
          "indexed": false,
          "internalType": "uint256",
          "name": "currentTierRate",
          "type": "uint256"
        }
      ],
      "name": "StrictDifferentialRewardPaid",
      "type": "event"
    },
    {
      "anonymous": false,
      "inputs": [
        {
          "indexed": false,
          "internalType": "uint256",
          "name": "interestAmount",
          "type": "uint256"
        },
        {
          "indexed": false,
          "internalType": "uint256",
          "name": "totalTeamRewardPool",
          "type": "uint256"
        },
        {
          "indexed": false,
          "internalType": "uint256",
          "name": "totalDistributed",
          "type": "uint256"
        },
        {
          "indexed": false,
          "internalType": "uint256",
          "name": "marketingAmount",
          "type": "uint256"
        },
        {
          "indexed": false,
          "internalType": "address[7]",
          "name": "tierRecipients",
          "type": "address[7]"
        },
        {
          "indexed": false,
          "internalType": "uint256[7]",
          "name": "tierAmounts",
          "type": "uint256[7]"
        },
        {
          "indexed": false,
          "internalType": "uint8",
          "name": "activeTiers",
          "type": "uint8"
        }
      ],
      "name": "TeamRewardDistributionCompleted",
      "type": "event"
    },
    {
      "anonymous": false,
      "inputs": [
        {
          "indexed": false,
          "internalType": "bool",
          "name": "enabled",
          "type": "bool"
        }
      ],
      "name": "TestModeSet",
      "type": "event"
    },
    {
      "anonymous": false,
      "inputs": [
        {
          "indexed": true,
          "internalType": "address",
          "name": "from",
          "type": "address"
        },
        {
          "indexed": true,
          "internalType": "address",
          "name": "to",
          "type": "address"
        },
        {
          "indexed": false,
          "internalType": "uint256",
          "name": "amount",
          "type": "uint256"
        }
      ],
      "name": "Transfer",
      "type": "event"
    },
    {
      "anonymous": false,
      "inputs": [
        {
          "indexed": true,
          "internalType": "address",
          "name": "user",
          "type": "address"
        },
        {
          "indexed": true,
          "internalType": "uint256",
          "name": "stakeIndex",
          "type": "uint256"
        },
        {
          "indexed": false,
          "internalType": "uint256",
          "name": "principalAmount",
          "type": "uint256"
        },
        {
          "indexed": false,
          "internalType": "uint256",
          "name": "calculatedReward",
          "type": "uint256"
        },
        {
          "indexed": false,
          "internalType": "uint256",
          "name": "usdtReceived",
          "type": "uint256"
        },
        {
          "indexed": false,
          "internalType": "uint256",
          "name": "olaTokensUsed",
          "type": "uint256"
        },
        {
          "indexed": false,
          "internalType": "uint256",
          "name": "referralFee",
          "type": "uint256"
        },
        {
          "indexed": false,
          "internalType": "uint256",
          "name": "teamFee",
          "type": "uint256"
        },
        {
          "indexed": false,
          "internalType": "uint256",
          "name": "userPayout",
          "type": "uint256"
        },
        {
          "indexed": false,
          "internalType": "uint256",
          "name": "interestEarned",
          "type": "uint256"
        },
        {
          "indexed": false,
          "internalType": "uint40",
          "name": "withdrawalTime",
          "type": "uint40"
        }
      ],
      "name": "WithdrawalCompleted",
      "type": "event"
    },
    {
      "inputs": [],
      "name": "REDEMPTION_FEE_RATE",
      "outputs": [
        {
          "internalType": "uint256",
          "name": "",
          "type": "uint256"
        }
      ],
      "stateMutability": "view",
      "type": "function"
    },
    {
      "inputs": [],
      "name": "ROUTER",
      "outputs": [
        {
          "internalType": "contract IUniswapV2Router02",
          "name": "",
          "type": "address"
        }
      ],
      "stateMutability": "view",
      "type": "function"
    },
    {
      "inputs": [],
      "name": "SYI",
      "outputs": [
        {
          "internalType": "contract ISYI",
          "name": "",
          "type": "address"
        }
      ],
      "stateMutability": "view",
      "type": "function"
    },
    {
      "inputs": [
        {
          "internalType": "address",
          "name": "",
          "type": "address"
        },
        {
          "internalType": "address",
          "name": "",
          "type": "address"
        }
      ],
      "name": "allowance",
      "outputs": [
        {
          "internalType": "uint256",
          "name": "",
          "type": "uint256"
        }
      ],
      "stateMutability": "pure",
      "type": "function"
    },
    {
      "inputs": [
        {
          "internalType": "address",
          "name": "",
          "type": "address"
        },
        {
          "internalType": "uint256",
          "name": "",
          "type": "uint256"
        }
      ],
      "name": "approve",
      "outputs": [
        {
          "internalType": "bool",
          "name": "",
          "type": "bool"
        }
      ],
      "stateMutability": "pure",
      "type": "function"
    },
    {
      "inputs": [
        {
          "internalType": "address",
          "name": "account",
          "type": "address"
        }
      ],
      "name": "balanceOf",
      "outputs": [
        {
          "internalType": "uint256",
          "name": "balance",
          "type": "uint256"
        }
      ],
      "stateMutability": "view",
      "type": "function"
    },
    {
      "inputs": [
        {
          "internalType": "address",
          "name": "",
          "type": "address"
        }
      ],
      "name": "balances",
      "outputs": [
        {
          "internalType": "uint256",
          "name": "",
          "type": "uint256"
        }
      ],
      "stateMutability": "view",
      "type": "function"
    },
    {
      "inputs": [
        {
          "internalType": "address",
          "name": "user",
          "type": "address"
        },
        {
          "internalType": "uint256",
          "name": "stakeIndex",
          "type": "uint256"
        }
      ],
      "name": "canWithdrawInterest",
      "outputs": [
        {
          "internalType": "bool",
          "name": "canWithdraw",
          "type": "bool"
        },
        {
          "internalType": "uint256",
          "name": "withdrawableProfit",
          "type": "uint256"
        },
        {
          "internalType": "string",
          "name": "reason",
          "type": "string"
        }
      ],
      "stateMutability": "view",
      "type": "function"
    },
    {
      "inputs": [
        {
          "internalType": "address",
          "name": "user",
          "type": "address"
        },
        {
          "internalType": "uint256",
          "name": "stakeIndex",
          "type": "uint256"
        }
      ],
      "name": "canWithdrawStake",
      "outputs": [
        {
          "internalType": "bool",
          "name": "canWithdraw",
          "type": "bool"
        }
      ],
      "stateMutability": "view",
      "type": "function"
    },
    {
      "inputs": [
        {
          "internalType": "address",
          "name": "account",
          "type": "address"
        }
      ],
      "name": "currentStakeValue",
      "outputs": [
        {
          "internalType": "uint256",
          "name": "currentValue",
          "type": "uint256"
        }
      ],
      "stateMutability": "view",
      "type": "function"
    },
    {
      "inputs": [],
      "name": "decimals",
      "outputs": [
        {
          "internalType": "uint8",
          "name": "",
          "type": "uint8"
        }
      ],
      "stateMutability": "view",
      "type": "function"
    },
    {
      "inputs": [
        {
          "internalType": "address",
          "name": "account",
          "type": "address"
        }
      ],
      "name": "earnedInterest",
      "outputs": [
        {
          "internalType": "uint256",
          "name": "interest",
          "type": "uint256"
        }
      ],
      "stateMutability": "view",
      "type": "function"
    },
    {
      "inputs": [
        {
          "internalType": "address",
          "name": "to",
          "type": "address"
        },
        {
          "internalType": "uint256",
          "name": "_amount",
          "type": "uint256"
        }
      ],
      "name": "emergencyWithdrawSYI",
      "outputs": [],
      "stateMutability": "nonpayable",
      "type": "function"
    },
    {
      "inputs": [
        {
          "internalType": "address",
          "name": "to",
          "type": "address"
        },
        {
          "internalType": "uint256",
          "name": "_amount",
          "type": "uint256"
        }
      ],
      "name": "emergencyWithdrawUSDT",
      "outputs": [],
      "stateMutability": "nonpayable",
      "type": "function"
    },
    {
      "inputs": [],
      "name": "feeRecipient",
      "outputs": [
        {
          "internalType": "address",
          "name": "",
          "type": "address"
        }
      ],
      "stateMutability": "view",
      "type": "function"
    },
    {
      "inputs": [
        {
          "internalType": "address",
          "name": "user",
          "type": "address"
        }
      ],
      "name": "getFriend",
      "outputs": [
        {
          "internalType": "address",
          "name": "",
          "type": "address"
        }
      ],
      "stateMutability": "view",
      "type": "function"
    },
    {
      "inputs": [],
      "name": "getMaxStakeAmount",
      "outputs": [
        {
          "internalType": "uint256",
          "name": "maxAmount",
          "type": "uint256"
        }
      ],
      "stateMutability": "view",
      "type": "function"
    },
    {
      "inputs": [],
      "name": "getMaxUserTotalStake",
      "outputs": [
        {
          "internalType": "uint256",
          "name": "limit",
          "type": "uint256"
        }
      ],
      "stateMutability": "pure",
      "type": "function"
    },
    {
      "inputs": [],
      "name": "getNetworkInflow",
      "outputs": [
        {
          "internalType": "uint256",
          "name": "value",
          "type": "uint256"
        }
      ],
      "stateMutability": "view",
      "type": "function"
    },
    {
      "inputs": [],
      "name": "getRecentNetworkInflow",
      "outputs": [
        {
          "internalType": "uint256",
          "name": "recentInflow",
          "type": "uint256"
        }
      ],
      "stateMutability": "view",
      "type": "function"
    },
    {
      "inputs": [
        {
          "internalType": "address",
          "name": "_user",
          "type": "address"
        }
      ],
      "name": "getReferral",
      "outputs": [
        {
          "internalType": "address",
          "name": "",
          "type": "address"
        }
      ],
      "stateMutability": "view",
      "type": "function"
    },
    {
      "inputs": [
        {
          "internalType": "address",
          "name": "_user",
          "type": "address"
        }
      ],
      "name": "getReferralCount",
      "outputs": [
        {
          "internalType": "uint256",
          "name": "",
          "type": "uint256"
        }
      ],
      "stateMutability": "view",
      "type": "function"
    },
    {
      "inputs": [
        {
          "internalType": "address",
          "name": "_user",
          "type": "address"
        },
        {
          "internalType": "uint256",
          "name": "_maxDepth",
          "type": "uint256"
        }
      ],
      "name": "getReferrals",
      "outputs": [
        {
          "internalType": "address[]",
          "name": "",
          "type": "address[]"
        }
      ],
      "stateMutability": "view",
      "type": "function"
    },
    {
      "inputs": [
        {
          "internalType": "address",
          "name": "_user",
          "type": "address"
        },
        {
          "internalType": "uint8",
          "name": "_maxDepth",
          "type": "uint8"
        }
      ],
      "name": "getReferrals",
      "outputs": [
        {
          "internalType": "address[]",
          "name": "",
          "type": "address[]"
        }
      ],
      "stateMutability": "view",
      "type": "function"
    },
    {
      "inputs": [
        {
          "internalType": "address",
          "name": "user",
          "type": "address"
        }
      ],
      "name": "getRemainingStakeCapacity",
      "outputs": [
        {
          "internalType": "uint256",
          "name": "remaining",
          "type": "uint256"
        }
      ],
      "stateMutability": "view",
      "type": "function"
    },
    {
      "inputs": [],
      "name": "getRootAddress",
      "outputs": [
        {
          "internalType": "address",
          "name": "",
          "type": "address"
        }
      ],
      "stateMutability": "view",
      "type": "function"
    },
    {
      "inputs": [],
      "name": "getSlippageConfig",
      "outputs": [
        {
          "internalType": "uint256",
          "name": "baseSlippage",
          "type": "uint256"
        },
        {
          "internalType": "uint256",
          "name": "maxSlippage",
          "type": "uint256"
        },
        {
          "internalType": "uint256",
          "name": "priceImpactThreshold",
          "type": "uint256"
        }
      ],
      "stateMutability": "pure",
      "type": "function"
    },
    {
      "inputs": [
        {
          "internalType": "uint8",
          "name": "stakeIndex",
          "type": "uint8"
        }
      ],
      "name": "getStakePeriod",
      "outputs": [
        {
          "internalType": "uint256",
          "name": "period",
          "type": "uint256"
        }
      ],
      "stateMutability": "pure",
      "type": "function"
    },
    {
      "inputs": [],
      "name": "getStakePeriods",
      "outputs": [
        {
          "internalType": "uint256[4]",
          "name": "periods",
          "type": "uint256[4]"
        }
      ],
      "stateMutability": "pure",
      "type": "function"
    },
    {
      "inputs": [
        {
          "internalType": "address",
          "name": "_user",
          "type": "address"
        }
      ],
      "name": "getTeamKpi",
      "outputs": [
        {
          "internalType": "uint256",
          "name": "",
          "type": "uint256"
        }
      ],
      "stateMutability": "view",
      "type": "function"
    },
    {
      "inputs": [
        {
          "internalType": "address",
          "name": "_user",
          "type": "address"
        }
      ],
      "name": "getTeamPerformanceDetails",
      "outputs": [
        {
          "internalType": "uint256",
          "name": "totalTeamInvestment",
          "type": "uint256"
        },
        {
          "internalType": "uint256",
          "name": "teamMemberCount",
          "type": "uint256"
        },
        {
          "internalType": "uint8",
          "name": "currentTier",
          "type": "uint8"
        },
        {
          "internalType": "uint256",
          "name": "nextTierThreshold",
          "type": "uint256"
        },
        {
          "internalType": "uint256",
          "name": "progressToNextTier",
          "type": "uint256"
        }
      ],
      "stateMutability": "view",
      "type": "function"
    },
    {
      "inputs": [],
      "name": "getTeamRewardRates",
      "outputs": [
        {
          "internalType": "uint256[7]",
          "name": "rewardRates",
          "type": "uint256[7]"
        }
      ],
      "stateMutability": "pure",
      "type": "function"
    },
    {
      "inputs": [],
      "name": "getTeamRewardThresholds",
      "outputs": [
        {
          "internalType": "uint256[7]",
          "name": "thresholds",
          "type": "uint256[7]"
        }
      ],
      "stateMutability": "pure",
      "type": "function"
    },
    {
      "inputs": [
        {
          "internalType": "address",
          "name": "user",
          "type": "address"
        }
      ],
      "name": "getUserInfo",
      "outputs": [
        {
          "internalType": "uint128",
          "name": "totalStaked",
          "type": "uint128"
        },
        {
          "internalType": "uint128",
          "name": "teamKPI",
          "type": "uint128"
        },
        {
          "internalType": "address",
          "name": "referrer",
          "type": "address"
        },
        {
          "internalType": "bool",
          "name": "hasLockedReferral",
          "type": "bool"
        },
        {
          "internalType": "bool",
          "name": "isPreacherStatus",
          "type": "bool"
        }
      ],
      "stateMutability": "view",
      "type": "function"
    },
    {
      "inputs": [
        {
          "internalType": "address",
          "name": "user",
          "type": "address"
        },
        {
          "internalType": "uint256",
          "name": "stakeIndex",
          "type": "uint256"
        }
      ],
      "name": "getUserStakeDetails",
      "outputs": [
        {
          "internalType": "uint256",
          "name": "principal",
          "type": "uint256"
        },
        {
          "internalType": "uint256",
          "name": "currentValue",
          "type": "uint256"
        },
        {
          "internalType": "uint256",
          "name": "newProfit",
          "type": "uint256"
        },
        {
          "internalType": "uint256",
          "name": "totalWithdrawn",
          "type": "uint256"
        },
        {
          "internalType": "uint40",
          "name": "startTime",
          "type": "uint40"
        },
        {
          "internalType": "uint40",
          "name": "lastResetTime",
          "type": "uint40"
        },
        {
          "internalType": "uint40",
          "name": "originalEndTime",
          "type": "uint40"
        },
        {
          "internalType": "bool",
          "name": "canWithdraw",
          "type": "bool"
        },
        {
          "internalType": "uint256",
          "name": "timeRemaining",
          "type": "uint256"
        }
      ],
      "stateMutability": "view",
      "type": "function"
    },
    {
      "inputs": [
        {
          "internalType": "address",
          "name": "user",
          "type": "address"
        }
      ],
      "name": "getUserStakeWithdrawalStatus",
      "outputs": [
        {
          "internalType": "uint256[]",
          "name": "stakeIndices",
          "type": "uint256[]"
        },
        {
          "internalType": "bool[]",
          "name": "canWithdrawArray",
          "type": "bool[]"
        },
        {
          "internalType": "uint256[]",
          "name": "timeRemaining",
          "type": "uint256[]"
        }
      ],
      "stateMutability": "view",
      "type": "function"
    },
    {
      "inputs": [
        {
          "internalType": "address",
          "name": "user",
          "type": "address"
        }
      ],
      "name": "getWithdrawalCount",
      "outputs": [
        {
          "internalType": "uint256",
          "name": "",
          "type": "uint256"
        }
      ],
      "stateMutability": "view",
      "type": "function"
    },
    {
      "inputs": [
        {
          "internalType": "address",
          "name": "user",
          "type": "address"
        }
      ],
      "name": "getWithdrawalHistory",
      "outputs": [
        {
          "components": [
            {
              "internalType": "uint40",
              "name": "withdrawalTime",
              "type": "uint40"
            },
            {
              "internalType": "uint256",
              "name": "stakeIndex",
              "type": "uint256"
            },
            {
              "internalType": "uint256",
              "name": "principalAmount",
              "type": "uint256"
            },
            {
              "internalType": "uint256",
              "name": "calculatedReward",
              "type": "uint256"
            },
            {
              "internalType": "uint256",
              "name": "usdtReceived",
              "type": "uint256"
            },
            {
              "internalType": "uint256",
              "name": "syiTokensUsed",
              "type": "uint256"
            },
            {
              "internalType": "uint256",
              "name": "referralFee",
              "type": "uint256"
            },
            {
              "internalType": "uint256",
              "name": "teamFee",
              "type": "uint256"
            },
            {
              "internalType": "uint256",
              "name": "userPayout",
              "type": "uint256"
            },
            {
              "internalType": "uint256",
              "name": "interestEarned",
              "type": "uint256"
            }
          ],
          "internalType": "struct IStaking.WithdrawalRecord[]",
          "name": "",
          "type": "tuple[]"
        }
      ],
      "stateMutability": "view",
      "type": "function"
    },
    {
      "inputs": [
        {
          "internalType": "address",
          "name": "user",
          "type": "address"
        },
        {
          "internalType": "uint256",
          "name": "index",
          "type": "uint256"
        }
      ],
      "name": "getWithdrawalRecord",
      "outputs": [
        {
          "components": [
            {
              "internalType": "uint40",
              "name": "withdrawalTime",
              "type": "uint40"
            },
            {
              "internalType": "uint256",
              "name": "stakeIndex",
              "type": "uint256"
            },
            {
              "internalType": "uint256",
              "name": "principalAmount",
              "type": "uint256"
            },
            {
              "internalType": "uint256",
              "name": "calculatedReward",
              "type": "uint256"
            },
            {
              "internalType": "uint256",
              "name": "usdtReceived",
              "type": "uint256"
            },
            {
              "internalType": "uint256",
              "name": "syiTokensUsed",
              "type": "uint256"
            },
            {
              "internalType": "uint256",
              "name": "referralFee",
              "type": "uint256"
            },
            {
              "internalType": "uint256",
              "name": "teamFee",
              "type": "uint256"
            },
            {
              "internalType": "uint256",
              "name": "userPayout",
              "type": "uint256"
            },
            {
              "internalType": "uint256",
              "name": "interestEarned",
              "type": "uint256"
            }
          ],
          "internalType": "struct IStaking.WithdrawalRecord",
          "name": "",
          "type": "tuple"
        }
      ],
      "stateMutability": "view",
      "type": "function"
    },
    {
      "inputs": [
        {
          "internalType": "address",
          "name": "_user",
          "type": "address"
        }
      ],
      "name": "isBindReferral",
      "outputs": [
        {
          "internalType": "bool",
          "name": "",
          "type": "bool"
        }
      ],
      "stateMutability": "view",
      "type": "function"
    },
    {
      "inputs": [
        {
          "internalType": "address",
          "name": "user",
          "type": "address"
        }
      ],
      "name": "isPreacher",
      "outputs": [
        {
          "internalType": "bool",
          "name": "",
          "type": "bool"
        }
      ],
      "stateMutability": "view",
      "type": "function"
    },
    {
      "inputs": [
        {
          "internalType": "address",
          "name": "_friend",
          "type": "address"
        }
      ],
      "name": "lockFriend",
      "outputs": [],
      "stateMutability": "nonpayable",
      "type": "function"
    },
    {
      "inputs": [
        {
          "internalType": "address",
          "name": "_referrer",
          "type": "address"
        }
      ],
      "name": "lockReferral",
      "outputs": [],
      "stateMutability": "nonpayable",
      "type": "function"
    },
    {
      "inputs": [],
      "name": "maxStakeAmount",
      "outputs": [
        {
          "internalType": "uint256",
          "name": "maxAmount",
          "type": "uint256"
        }
      ],
      "stateMutability": "view",
      "type": "function"
    },
    {
      "inputs": [],
      "name": "name",
      "outputs": [
        {
          "internalType": "string",
          "name": "",
          "type": "string"
        }
      ],
      "stateMutability": "view",
      "type": "function"
    },
    {
      "inputs": [],
      "name": "network1In",
      "outputs": [
        {
          "internalType": "uint256",
          "name": "value",
          "type": "uint256"
        }
      ],
      "stateMutability": "view",
      "type": "function"
    },
    {
      "inputs": [],
      "name": "owner",
      "outputs": [
        {
          "internalType": "address",
          "name": "",
          "type": "address"
        }
      ],
      "stateMutability": "view",
      "type": "function"
    },
    {
      "inputs": [
        {
          "internalType": "uint256",
          "name": "usdtAmount",
          "type": "uint256"
        }
      ],
      "name": "previewStakeOutput",
      "outputs": [
        {
          "internalType": "uint256",
          "name": "halfUsdtAmount",
          "type": "uint256"
        },
        {
          "internalType": "uint256",
          "name": "expectedSYI",
          "type": "uint256"
        },
        {
          "internalType": "uint256",
          "name": "minSYIOut",
          "type": "uint256"
        }
      ],
      "stateMutability": "view",
      "type": "function"
    },
    {
      "inputs": [
        {
          "internalType": "address",
          "name": "account",
          "type": "address"
        }
      ],
      "name": "principalBalance",
      "outputs": [
        {
          "internalType": "uint256",
          "name": "balance",
          "type": "uint256"
        }
      ],
      "stateMutability": "view",
      "type": "function"
    },
    {
      "inputs": [
        {
          "internalType": "uint256",
          "name": "",
          "type": "uint256"
        }
      ],
      "name": "rates",
      "outputs": [
        {
          "internalType": "uint256",
          "name": "",
          "type": "uint256"
        }
      ],
      "stateMutability": "view",
      "type": "function"
    },
    {
      "inputs": [],
      "name": "renounceOwnership",
      "outputs": [],
      "stateMutability": "nonpayable",
      "type": "function"
    },
    {
      "inputs": [
        {
          "internalType": "address",
          "name": "user",
          "type": "address"
        },
        {
          "internalType": "uint8",
          "name": "index",
          "type": "uint8"
        }
      ],
      "name": "rewardOfSlot",
      "outputs": [
        {
          "internalType": "uint256",
          "name": "reward",
          "type": "uint256"
        }
      ],
      "stateMutability": "view",
      "type": "function"
    },
    {
      "inputs": [
        {
          "internalType": "address",
          "name": "_feeRecipient",
          "type": "address"
        }
      ],
      "name": "setFeeRecipient",
      "outputs": [],
      "stateMutability": "nonpayable",
      "type": "function"
    },
    {
      "inputs": [
        {
          "internalType": "address",
          "name": "_rootAddress",
          "type": "address"
        }
      ],
      "name": "setRootAddress",
      "outputs": [],
      "stateMutability": "nonpayable",
      "type": "function"
    },
    {
      "inputs": [
        {
          "internalType": "address",
          "name": "_syi",
          "type": "address"
        }
      ],
      "name": "setSYI",
      "outputs": [],
      "stateMutability": "nonpayable",
      "type": "function"
    },
    {
      "inputs": [
        {
          "internalType": "uint160",
          "name": "_amount",
          "type": "uint160"
        },
        {
          "internalType": "uint8",
          "name": "_stakeIndex",
          "type": "uint8"
        }
      ],
      "name": "stake",
      "outputs": [],
      "stateMutability": "nonpayable",
      "type": "function"
    },
    {
      "inputs": [
        {
          "internalType": "address",
          "name": "user",
          "type": "address"
        }
      ],
      "name": "stakeCount",
      "outputs": [
        {
          "internalType": "uint256",
          "name": "count",
          "type": "uint256"
        }
      ],
      "stateMutability": "view",
      "type": "function"
    },
    {
      "inputs": [],
      "name": "symbol",
      "outputs": [
        {
          "internalType": "string",
          "name": "",
          "type": "string"
        }
      ],
      "stateMutability": "view",
      "type": "function"
    },
    {
      "inputs": [],
      "name": "sync",
      "outputs": [],
      "stateMutability": "nonpayable",
      "type": "function"
    },
    {
      "inputs": [
        {
          "internalType": "uint256",
          "name": "",
          "type": "uint256"
        }
      ],
      "name": "t_supply",
      "outputs": [
        {
          "internalType": "uint40",
          "name": "stakeTime",
          "type": "uint40"
        },
        {
          "internalType": "uint160",
          "name": "tamount",
          "type": "uint160"
        }
      ],
      "stateMutability": "view",
      "type": "function"
    },
    {
      "inputs": [
        {
          "internalType": "address",
          "name": "",
          "type": "address"
        }
      ],
      "name": "teamTotalInvestValue",
      "outputs": [
        {
          "internalType": "uint256",
          "name": "",
          "type": "uint256"
        }
      ],
      "stateMutability": "view",
      "type": "function"
    },
    {
      "inputs": [],
      "name": "totalSupply",
      "outputs": [
        {
          "internalType": "uint256",
          "name": "",
          "type": "uint256"
        }
      ],
      "stateMutability": "view",
      "type": "function"
    },
    {
      "inputs": [
        {
          "internalType": "address",
          "name": "",
          "type": "address"
        },
        {
          "internalType": "uint256",
          "name": "",
          "type": "uint256"
        }
      ],
      "name": "transfer",
      "outputs": [
        {
          "internalType": "bool",
          "name": "",
          "type": "bool"
        }
      ],
      "stateMutability": "pure",
      "type": "function"
    },
    {
      "inputs": [
        {
          "internalType": "address",
          "name": "",
          "type": "address"
        },
        {
          "internalType": "address",
          "name": "",
          "type": "address"
        },
        {
          "internalType": "uint256",
          "name": "",
          "type": "uint256"
        }
      ],
      "name": "transferFrom",
      "outputs": [
        {
          "internalType": "bool",
          "name": "",
          "type": "bool"
        }
      ],
      "stateMutability": "pure",
      "type": "function"
    },
    {
      "inputs": [
        {
          "internalType": "address",
          "name": "newOwner",
          "type": "address"
        }
      ],
      "name": "transferOwnership",
      "outputs": [],
      "stateMutability": "nonpayable",
      "type": "function"
    },
    {
      "inputs": [
        {
          "internalType": "uint256",
          "name": "stakeIndex",
          "type": "uint256"
        }
      ],
      "name": "unstake",
      "outputs": [
        {
          "internalType": "uint256",
          "name": "totalReward",
          "type": "uint256"
        }
      ],
      "stateMutability": "nonpayable",
      "type": "function"
    },
    {
      "inputs": [
        {
          "internalType": "address",
          "name": "",
          "type": "address"
        }
      ],
      "name": "userIndex",
      "outputs": [
        {
          "internalType": "uint256",
          "name": "",
          "type": "uint256"
        }
      ],
      "stateMutability": "view",
      "type": "function"
    },
    {
      "inputs": [
        {
          "internalType": "address",
          "name": "",
          "type": "address"
        },
        {
          "internalType": "uint256",
          "name": "",
          "type": "uint256"
        }
      ],
      "name": "userStakeRecord",
      "outputs": [
        {
          "internalType": "uint40",
          "name": "startTime",
          "type": "uint40"
        },
        {
          "internalType": "uint40",
          "name": "stakeTime",
          "type": "uint40"
        },
        {
          "internalType": "uint40",
          "name": "originalEndTime",
          "type": "uint40"
        },
        {
          "internalType": "uint160",
          "name": "amount",
          "type": "uint160"
        },
        {
          "internalType": "uint160",
          "name": "totalWithdrawn",
          "type": "uint160"
        },
        {
          "internalType": "bool",
          "name": "status",
          "type": "bool"
        },
        {
          "internalType": "uint8",
          "name": "stakeIndex",
          "type": "uint8"
        }
      ],
      "stateMutability": "view",
      "type": "function"
    },
    {
      "inputs": [
        {
          "internalType": "uint256",
          "name": "stakeIndex",
          "type": "uint256"
        }
      ],
      "name": "withdrawInterest",
      "outputs": [
        {
          "internalType": "uint256",
          "name": "profitWithdrawn",
          "type": "uint256"
        }
      ],
      "stateMutability": "nonpayable",
      "type": "function"
    }
  ],
  "bytecode": "0x60e0806040523461029257608081615244803803809161001f8285610348565b8339810103126102925761003281610381565b9061003f60208201610381565b610057606061005060408501610381565b9301610381565b9233156103325760008054336001600160a01b0319821681178355604051949290916001600160a01b0316907f8be0079c531659141344cd1fd0a4f28419497f9722a3daafe3b4186f6b6457e09080a3601e60c0526001600160a01b0382169283156102f057506001600160a01b031680156102ab576000946020946044936080528260a05260018060a01b031660018060a01b0319600254161760025560018060a01b031660018060a01b03196012541617601255604051948593849263095ea7b360e01b84526004840152811960248401525af1801561029f57610266575b50670deb5f2f95b78000600555670df607ab840b0000600655670e00b027725e8000600755670e16011f4f058000600855604051806005906000905b60048210610250577f91878134c373fd304a6480d969bf581cca2e4044be07a4d5ab42425ffcfc55d8608085a1604051614eae9081610396823960805181818161033b015281816111eb015281816112e401528181611f78015281816125a601528181612b3201528181613ad301528181614005015281816142ae015281816145ae0152818161467d01526149c3015260a051818181610f58015281816113ab01528181611e5001528181611fdb01528181613bf10152614a2b015260c051818181610871015281816116b3015281816122d70152612a3c0152f35b6001602081928554815201930191019091610174565b6020813d602011610297575b8161027f60209383610348565b8101031261029257518015158114610138575b600080fd5b3d9150610272565b6040513d6000823e3d90fd5b60405162461bcd60e51b815260206004820152601660248201527f496e76616c696420726f757465722061646472657373000000000000000000006044820152606490fd5b62461bcd60e51b815260206004820152601460248201527f496e76616c6964205553445420616464726573730000000000000000000000006044820152606490fd5b631e4fbdf760e01b600052600060045260246000fd5b601f909101601f19168101906001600160401b0382119082101761036b57604052565b634e487b7160e01b600052604160045260246000fd5b51906001600160a01b03821682036102925756fe6080604052600436101561001257600080fd5b6000803560e01c8063069a8f2d14612e6857806306fdde0314612e1a57806308669aab146129a957806308a2ab4b1461294257806308adb4be14612893578063095ea7b3146128335780630eb390eb146127e75780631451952b146127a257806318160ddd146127845780631951126714611a0d57806323b872dd1461276157806324acbd691461272857806327e235e314610a1c5780632e17de781461221057806330ead469146121cf5780633114740e14612101578063313ce567146120e557806331516ab814611ebc57806332a00d8e14611e7f57806332fe7b2614611e3a57806333060d9014611e015780633b0f0f2f14611dc057806341edf84814611a0d578063451309ed14611bb85780634690484014611d97578063488eaf3d14611d6c5780635321932314611bf057806359f0c0e714611bbd5780635d80ca3214611bb85780635d948c3514611b605780635e61da0814611b115780636386c1c714611a6c57806370a0823114610c31578063715018a614611a1257806372fbab3b14611a0d5780637c61655f146119235780638b9909b41461124a5780638da5cb5b1461122357806394f3b1181461118e57806395d89b411461114657806396d391bf14611117578063a2daf14e146110b6578063a681093d1461109a578063a7f189b514611071578063a9059cbb14611051578063b108b4cb14610573578063b16da00f1461102c578063b7be124e14610f06578063b9cc477b14610e1f578063bfbc304814610d0e578063c96679fe14610cd5578063ca74de9b14610c55578063d9dd0fdf14610c31578063dd418ae214610bff578063dd62ed3e14610bd0578063e4ba0d7b14610aba578063e4fae6da14610a81578063e566d74d14610a55578063e68fc0ee14610a1c578063e74b981b1461096a578063ea73a84114610734578063eba73d98146106a3578063eec76e0414610664578063f2fde38b146105de578063f34642a0146105ac578063f4fdf73214610573578063f5a942151461052d578063f6d5660f146105045763fff6cae91461031457600080fd5b3461043b578060031936011261043b576040516370a0823160e01b815230600482015281907f00000000000000000000000000000000000000000000000000000000000000006001600160a01b0316602082602481845afa9182156104795783926104c7575b50600154604051631abfa62960e01b81529190602090839060049082906001600160a01b03165afa9283156104bc5784928394610484575b5060405163a9059cbb60e01b81526001600160a01b03851660048201526024810191909152916020918391829081604481015b03925af180156104795761044c575b506001600160a01b0316803b156104495781809160046040518094819363fff6cae960e01b83525af1801561043e5761042a5750f35b8161043491612f5a565b61043b5780f35b80fd5b6040513d84823e3d90fd5b50fd5b61046d9060203d602011610472575b6104658183612f5a565b810190613198565b6103f4565b503d61045b565b6040513d85823e3d90fd5b6103e5919450916104ac602093843d86116104b5575b6104a48183612f5a565b81019061341d565b949150916103b2565b503d61049a565b6040513d86823e3d90fd5b925090506020823d6020116104fc575b816104e460209383612f5a565b810103126104f75790518291600461037a565b600080fd5b3d91506104d7565b503461043b578060031936011261043b576002546040516001600160a01b039091168152602090f35b503461043b57604036600319011261043b5761056f61055b61054d612eb3565b610555612edf565b90613891565b60405191829160208352602083019061309b565b0390f35b503461043b57602036600319011261043b576020906040906001600160a01b0361059b612eb3565b168152600c83522054604051908152f35b503461043b57604036600319011261043b5760206105d46105cb612eb3565b6024359061380c565b6040519015158152f35b503461043b57602036600319011261043b576105f8612eb3565b6106006148e4565b6001600160a01b031680156106505781546001600160a01b03198116821783556001600160a01b03167f8be0079c531659141344cd1fd0a4f28419497f9722a3daafe3b4186f6b6457e08380a380f35b631e4fbdf760e01b82526004829052602482fd5b503461043b57602036600319011261043b5760206105d4610683612eb3565b6001600160a01b039081166000908152600d602052604090205416151590565b503461043b57604036600319011261043b578060206107066106c3612eb3565b6106cb6148e4565b60015460405163a9059cbb60e01b81526001600160a01b03928316600482015260248035908201529485939190921691839182906044820190565b03925af1801561043e57610718575080f35b6107309060203d602011610472576104658183612f5a565b5080f35b503461043b57602036600319011261043b5761074e612eb3565b338252600d60205260408220546001600160a01b031661095b576002546001600160a01b03169033821461094c576001600160a01b03811615610945575b6001600160a01b0381169133831461093657821415908161091a575b5061090b57338252600d60205260408220816bffffffffffffffffffffffff60a01b825416179055808252600e60205260408220805490600160401b8210156108f757600182018082558210156108e3578352602083200180548360031b9033821b9160018060a01b03901b1916179055338252600f60205260408220600160ff19825416179055338252600460205260408220548061086c575b50337fcb282389824b9ba09f76f40ee522be8104006b13f0a7a8d78c2198a1cd1da4688380a380f35b6108967f000000000000000000000000000000000000000000000000000000000000000033613891565b835b815160ff8216908110156108d95760ff916001916001600160a01b03906108bf9086613627565b51168752600c602052604087208581540190550116610898565b5050505038610843565b634e487b7160e01b84526032600452602484fd5b634e487b7160e01b84526041600452602484fd5b630c22084560e31b8252600482fd5b670de0b6b3a7640000915061092e90613743565b1115386107a8565b63dc33424560e01b8452600484fd5b508061078c565b63dc33424560e01b8352600483fd5b63682a906560e01b8252600482fd5b503461043b57602036600319011261043b57610984612eb3565b61098c6148e4565b6001600160a01b031680156109df57601280546001600160a01b0319811683179091556001600160a01b03167faaebcf1bfa00580e41d966056b48521fa9f202645c86d4ddf28113e617c1b1d38380a380f35b60405162461bcd60e51b8152602060048201526015602482015274125b9d985b1a5908199959481c9958da5c1a595b9d605a1b6044820152606490fd5b503461043b57602036600319011261043b576020906040906001600160a01b03610a44612eb3565b168152600483522054604051908152f35b503461043b57602036600319011261043b576020610a79610a74612eb3565b6137bc565b604051908152f35b503461043b57602036600319011261043b576020906040906001600160a01b03610aa9612eb3565b168152601183522054604051908152f35b503461043b57604036600319011261043b5761012090610b11610adb612eb3565b6001600160a01b0316808352600a60205260408320546024359190610b01908310613509565b8352600a60205260408320612fe5565b5060018101546001600160a01b03169190610b2b81613973565b91610b368484613142565b916002810154905464ffffffffff8160501c1691824210159485948596610bc0575b64ffffffffff949596600014610baf57965b60408051998a5260208a01919091528801526001600160a01b03166060870152808216608087015260281c1660a085015260c0840152151560e0830152610100820152f35b50610bba4286613142565b96610b6a565b60a083901c60ff16159550610b58565b503461043b57604036600319011261043b57602090610bed612eb3565b50610bf6612ec9565b50604051908152f35b503461043b57602036600319011261043b576004356004811015610c2d576020915060050154604051908152f35b5080fd5b503461043b57602036600319011261043b576020610a79610c50612eb3565b613743565b503461043b578060031936011261043b5760405190610c75608083612f5a565b6080368337610c8261354b565b8252610c8c61355a565b6020830152610c99613569565b6040830152610ca6613578565b60608301526040519190825b60048210610cbf57608084f35b6020806001928551815201930191019091610cb2565b503461043b57602036600319011261043b576020906040906001600160a01b03610cfd612eb3565b168152600b83522054604051908152f35b503461043b57602036600319011261043b57610d28612eb3565b338252601060205260408220546001600160a01b031661095b576001600160a01b03168015610de157338114610d9c573380835260106020526040832080546001600160a01b031916831790557f49143b55f926e514375927d6abffe4bc105a5832b9ae50fc457ab36620cacaa98380a380f35b60405162461bcd60e51b815260206004820152601960248201527f43616e6e6f74207365742073656c6620617320667269656e64000000000000006044820152606490fd5b60405162461bcd60e51b8152602060048201526016602482015275496e76616c696420667269656e64206164647265737360501b6044820152606490fd5b503461043b57604036600319011261043b57610e39612eb3565b906024359181610120604051610e4e81612eef565b8281528260208201528260408201528260608201528260808201528260a08201528260c08201528260e082015282610100820152015260018060a01b03169081815260116020526040812054831015610ed15761014092604082610ec294610ebc9452601160205220613727565b506133a6565b610ecf6040518092613032565bf35b60405162461bcd60e51b815260206004820152600d60248201526c092dcecc2d8d2c840d2dcc8caf609b1b6044820152606490fd5b503461043b57602036600319011261043b57610f20612eb3565b610f286148e4565b6001600160a01b03168015610fe757600180546001600160a01b0319168217905560405163095ea7b360e01b81527f00000000000000000000000000000000000000000000000000000000000000006001600160a01b03166004820152600019602482015260208160448186865af1801561047957610fca575b507f685a736322f4a782f69eb455f2394d6ead581625259a45e38d78168683db67008280a280f35b610fe29060203d602011610472576104658183612f5a565b610fa2565b60405162461bcd60e51b815260206004820152601a60248201527f53594920616464726573732063616e6e6f74206265207a65726f0000000000006044820152606490fd5b503461043b578060031936011261043b57602060405169021e19e0c9bab24000008152f35b503461043b57604036600319011261043b5761106b612eb3565b50613349565b503461043b578060031936011261043b576001546040516001600160a01b039091168152602090f35b503461043b578060031936011261043b57602060405160648152f35b503461043b578060031936011261043b5760405160e0916110d78383612f5a565b508136823760058152600a6020820152600f60408201526014606082015260196080820152601e60a0820152602360c0820152610ecf6040518092612fbd565b503461043b578060031936011261043b5760609060405190506105dc81526107d0602082015260c86040820152f35b503461043b578060031936011261043b575061056f604051611169604082612f5a565b60048152637353594960e01b6020820152604051918291602083526020830190612f7c565b503461043b57604036600319011261043b576111e660206111ad612eb3565b6111b56148e4565b60405163a9059cbb60e01b81526001600160a01b039091166004820152602480359082015291829081906044820190565b0381857f00000000000000000000000000000000000000000000000000000000000000006001600160a01b03165af1801561043e57610718575080f35b503461043b578060031936011261043b57546040516001600160a01b039091168152602090f35b503461043b57604036600319011261043b57600435906001600160a01b0382169081830361043b5761127a612edf565b3332036119145761128961363b565b83116119055760ff811690600382116118f657338352600460205269021e19e0c9bab24000006112bd85604086205461490d565b116118e8576040516323b872dd60e01b8152336004820152306024820152604481018590527f00000000000000000000000000000000000000000000000000000000000000006001600160a01b03169060208160648188865af180156118dd576118c0575b506060956024604051916113368984612f5a565b60028352601f1989013660208501378361134f8461360a565b526001546020906001600160a01b03168061136986613617565b526040516370a0823160e01b815230600482015293849182905afa9182156118b5578792611881575b5060011c60016001609f1b0316926113a98461491a565b7f00000000000000000000000000000000000000000000000000000000000000006001600160a01b03169390843b1561187d57604051635c11d79560e01b8152918991839182916114039142913091908c60048701613a49565b038183885af1801561187257908891611859575b50506001546040516370a0823160e01b81523060048201526001600160a01b039091169290602081602481875afa90811561184e579189918c9594938391611811575b5061146e6101049596979261147592613142565b978c613142565b96604051978896879562e8e33760e81b875260048701526024860152604485015260648401528160848401528160a48401528160c48401524260e48401525af180156104bc579086916117e4575b5050336000908152600d60205260409020546001600160a01b0316156117d557604051916114f083612f3e565b4264ffffffffff168084526003546001600160a01b031660208501908152600954919491600160401b8110156117c1578060016115309201600955613127565b9290926117ad5751825491516001600160c81b031990921664ffffffffff9182161760289290921b65010000000000600160c81b0316919091179091556115768361358a565b1683019264ffffffffff8411611799576040519361159385612f22565b60208501946040810189820190608083019564ffffffffff60a085019560c08601978087528b521682528a83528987528985528552338952600a6020526040892097885498600160401b8a101561178557896115f491600182018155612fe5565b94909461177157518454915169ffffffffffffffffffff1990921664ffffffffff919091161760289190911b69ffffffffff000000000016178355600292919051825464ffffffffff60501b191660509190911b64ffffffffff60501b16178255516001820180546001600160a01b0319166001600160a01b03928316179055945191018054925193516001600160b01b0319909316919094161791151560a01b60ff60a01b169190911760a89190911b60ff60a81b161790556116d87f000000000000000000000000000000000000000000000000000000000000000033613891565b91835b835160ff82169081101561171c5760ff916001916001600160a01b03906117029088613627565b51168752600c6020526040872088815401905501166116db565b8587848a6117338861172e8533614d33565b61358a565b9160405193845242602085015260408401528201527f9cfd25589d1eb8ad71e342a86a8524e83522e3936c0803048c08f6d9ad974f4060803392a280f35b634e487b7160e01b8b5260048b905260248bfd5b634e487b7160e01b8b52604160045260248bfd5b634e487b7160e01b85526011600452602485fd5b634e487b7160e01b87526004879052602487fd5b634e487b7160e01b87526041600452602487fd5b637b7140f560e11b8352600483fd5b813d831161180a575b6117f78183612f5a565b810103126118065784386114c3565b8280fd5b503d6117ed565b9250509293506020813d602011611846575b8161183060209383612f5a565b810103126104f757518a9392899161146e61145a565b3d9150611823565b6040513d8b823e3d90fd5b8161186391612f5a565b61186e578638611417565b8680fd5b6040513d8a823e3d90fd5b8880fd5b9091506020813d6020116118ad575b8161189d60209383612f5a565b810103126104f757519038611392565b3d9150611890565b6040513d89823e3d90fd5b6118d89060203d602011610472576104658183612f5a565b611322565b6040513d87823e3d90fd5b620da58960e41b8352600483fd5b63cf468e4360e01b8352600483fd5b63ba1e17c160e01b8252600482fd5b6303cc142b60e41b8252600482fd5b503461043b57602036600319011261043b5761193d612eb3565b60018060a01b03811690818352600c6020526040832054918352600e60205260ff61196c604085205492614bd9565b166007811015611a015761197e614794565b8160060360ff81116119ed579060ff6119989216906131b0565b5151906064840294848604606414851517156119d957506119bb8260a096613178565b925b6040519485526020850152604084015260608301526080820152f35b634e487b7160e01b81526011600452602490fd5b634e487b7160e01b86526011600452602486fd5b60a093906064926119bd565b613017565b503461043b578060031936011261043b57611a2b6148e4565b80546001600160a01b03198116825581906001600160a01b03167f8be0079c531659141344cd1fd0a4f28419497f9722a3daafe3b4186f6b6457e08280a380f35b503461043b57602036600319011261043b5760a090611a89612eb3565b906001600160801b03611a9b83613743565b1691600180851b038116808352600c602052680ad78ebc5ac6200000611af060ff60406001600160801b03818820541696858152600d6020526001808b1b038282205416958152600f60205220541693613743565b10159260405194855260208501526040840152151560608301526080820152f35b503461043b57602036600319011261043b576004359060095482101561043b576040611b3c83613127565b5054815164ffffffffff8216815260289190911c6001600160a01b03166020820152f35b503461043b57602036600319011261043b57602090611b7d612eb3565b6001600160a01b038116825260048352604082205490611b9c90613743565b818111611bae575b5050604051908152f35b0390503880611ba4565b6130d8565b503461043b57602036600319011261043b576020680ad78ebc5ac6200000611be6610c50612eb3565b1015604051908152f35b503461043b57602036600319011261043b57611c0a612eb3565b6001600160a01b038116808352600a602052604083205490929190611c2e816135d8565b92611c388261338e565b91611c466040519384612f5a565b808352611c528161338e565b602084019690601f1901368837611c68826135d8565b94835b838110611cd25750505050906020611c8e604051956060875260608701906130f3565b918583038287015251918281520194915b818110611cba57848061056f888783820360408501526130f3565b82511515865260209586019590920191600101611c9f565b8080611ce06001938b613627565b52611ceb818461380c565b611cf58289613627565b9015159052838652600a602052611d0f8160408820612fe5565b50600281015460a01c60ff16611d60575460501c64ffffffffff16428111611d45575085611d3d828a613627565b525b01611c6b565b611d50904290613142565b611d5a828a613627565b52611d3f565b5085611d5a828a613627565b503461043b57602036600319011261043b576004359060ff8216820361043b576020610a798361358a565b503461043b578060031936011261043b576012546040516001600160a01b039091168152602090f35b503461043b57602036600319011261043b576020906001600160a01b03611de5612eb3565b168152600d8252604060018060a01b0391205416604051908152f35b503461043b57602036600319011261043b576020906040906001600160a01b03611e29612eb3565b168152600a83522054604051908152f35b503461043b578060031936011261043b576040517f00000000000000000000000000000000000000000000000000000000000000006001600160a01b03168152602090f35b503461043b57604036600319011261043b5761056f61055b611e9f612eb3565b60243560ff8111611eb4575b60ff1690613891565b5060ff611eab565b503461043b57602036600319011261043b5760043560011c906004602060018060a01b036001541660405192838092631abfa62960e01b82525afa90811561043e5782916120c6575b50604051630240bc6b60e21b81526001600160a01b03919091169290606081600481875afa9384156104795783918495612089575b50602060049160405192838092630dfe168160e01b82525afa9081156104bc5791611fd79591602093869161206c575b506001600160a01b039081167f000000000000000000000000000000000000000000000000000000000000000090911603612066575b604051630153543560e21b8152600481018590526001600160701b0391821660248201529116604482015293849081906064820190565b03817f00000000000000000000000000000000000000000000000000000000000000006001600160a01b03165afa801561043e578290612033575b6060935061201f8261491a565b916040519350835260208301526040820152f35b506020833d60201161205e575b8161204d60209383612f5a565b810103126104f75760609251612012565b3d9150612040565b90611fa0565b6120839150843d86116104b5576104a48183612f5a565b38611f6a565b6004919550602092506120b39060603d6060116120bf575b6120ab8183612f5a565b810190613450565b50929092959150611f3a565b503d6120a1565b6120df915060203d6020116104b5576104a48183612f5a565b38611f05565b503461043b578060031936011261043b57602060405160128152f35b503461043b57602036600319011261043b576001600160a01b03612123612eb3565b168152601160205260408120805461213a8161338e565b906121486040519283612f5a565b80825260208201809385526020852085915b8383106121b157868587604051928392602084019060208552518091526040840192915b81811061218c575050500390f35b919350916020610140826121a36001948851613032565b01940191019184939261217e565b600a60206001926121c1856133a6565b81520192019201919061215a565b503461043b57602036600319011261043b576020906001600160a01b036121f4612eb3565b16815260108252604060018060a01b0391205416604051908152f35b503461043b57602036600319011261043b5733320361271957338152600a60205261224060043560408320612fe5565b5064ffffffffff815460501c16421061270a57600281019081549160ff8360a01c166126fb5760018201546001600160a01b03169161227e90613973565b60ff60a01b19909316600160a01b1790556122998133614c7f565b338352600b6020526001604084205401338452600b60205260408420556122bf82613a82565b9290828111156126f4576122d38382613142565b915b7f0000000000000000000000000000000000000000000000000000000000000000946123018633613891565b92612320612319866123138133613fa1565b966140bf565b9733613891565b94885b865160ff8216908110156123925760ff916001918c156123685761234d838060a01b03918b613627565b51168c52600c60205260408c208a81540190555b0116612323565b612378838060a01b03918b613627565b5116600052600c60205260406000208a8154039055612361565b50508690888a966123ac826123a78388613142565b613142565b9460648602868104606414871517156126e0576127109004801515806126cc575b612668575b506040516123df81612eef565b64ffffffffff4216815260043560208201528560408201528860608201528160808201528760a08201528260c08201528360e08201528661010082015284610120820152338a52601160205260408a20805490600160401b821015612654579061244e91600182018155613727565b9190916117715792602095928b9998959260096101208764ffffffffff806125a19d9a51161664ffffffffff198554161784558a810151600185015560408101516002850155606081015160038501556080810151600485015560a0810151600585015560c0810151600685015560e08101516007850155610100810151600885015501519101556040518b815264ffffffffff42168882015260043560408201527f48711929c842404f1d698f9525c36a831e8224d0bac22977e91904b3fe9f656460603392a26040519485528a878601526040850152876060850152608084015260a08301528260c083015260e082015264ffffffffff4216610100820152600435907fab399e9275f69c267fe8b281747707bbd6b5b7dc2afb59ac345ae3e7ee24338d6101203392a360405163a9059cbb60e01b8152336004820152602481019190915291829081906044820190565b0381867f00000000000000000000000000000000000000000000000000000000000000006001600160a01b03165af1801561047957612637575b506001546001600160a01b0316803b15611806576024839260405194859384926337470d6f60e21b845260048401525af1801561047957612622575b602082604051908152f35b61262d838092612f5a565b610c2d5781612617565b61264f9060203d602011610472576104658183612f5a565b6125db565b634e487b7160e01b8c52604160045260248cfd5b61267181613a82565b60125460408051600435815260208101939093528201939093524260608201526001600160a01b03909216913391507f91a9f62031be84840eb01532b7f49aac5edbd1cf88134c55fecb102753216b2c90608090a3896123d2565b506012546001600160a01b031615156123cd565b634e487b7160e01b8a52601160045260248afd5b84916122d5565b636507689f60e01b8452600484fd5b63508bb1f560e01b8252600482fd5b6303cc142b60e41b8152600490fd5b503461043b57602036600319011261043b576020906040906001600160a01b03612750612eb3565b168152600e83522054604051908152f35b503461043b57606036600319011261043b5761277b612eb3565b5061106b612ec9565b503461043b578060031936011261043b576020600354604051908152f35b503461043b57602036600319011261043b576127bc612eb3565b6127c46148e4565b60018060a01b03166bffffffffffffffffffffffff60a01b600254161760025580f35b503461043b57604036600319011261043b5761056f612810612807612eb3565b602435906131c1565b604093919351938493151584526020840152606060408401526060830190612f7c565b503461043b57604036600319011261043b5761284d612eb3565b5060405162461bcd60e51b815260206004820152601760248201527f417070726f76616c73206e6f7420737570706f727465640000000000000000006044820152606490fd5b503461043b57604036600319011261043b576128ad612eb3565b6001600160a01b03168152600a602052604081208054602435929083101561043b5760e06128db8484612fe5565b5060ff815491600260018060a01b036001830154169101549064ffffffffff604051948181168652818160281c16602087015260501c166040850152606084015260018060a01b0381166080840152818160a01c16151560a084015260a81c1660c0820152f35b503461043b578060031936011261043b576040519061296260e083612f5a565b60e036833761296f614794565b905b600781106129895760e083610ecf6040518092612fbd565b80612996600192846131b0565b51516129a282866131b0565b5201612971565b503461043b57602036600319011261043b5760043533320361191457338252600a6020526129da8160408420612fe5565b5090600282019160ff835460a01c16612de15764ffffffffff815460501c16421015612d8c57612a0981613973565b600182018054919291612a25906001600160a01b031684613142565b948515612d4757612a3586613a82565b9290612a617f000000000000000000000000000000000000000000000000000000000000000033613891565b93612a70826123138133613fa1565b612a7e816123a78886613142565b966064880288810460641489151715612d335761271090049283151580612d1f575b612cbf575b815469ffffffffff000000000019811642602890811b69ffffffffff0000000000169190911784551c64ffffffffff169680546001600160a01b0390811687821601908111612cab5781546001600160a01b0319166001600160a01b0390911617905560405163a9059cbb60e01b8152336004820152602481018a90528d919060208180604481010381867f00000000000000000000000000000000000000000000000000000000000000006001600160a01b03165af1801561047957612c8e575b506001546001600160a01b0316803b15611806576024839260405194859384926337470d6f60e21b845260048401525af18015612c83579c8b959493929160209e612c73575b5050549664ffffffffff808960281c169860501c1698604051948d86528e86015260408501526060840152608083015260a08201528460c08201528560e0820152426101008201527f04dd1f9cc2fa76127517b4d5b45f84d57627aa92f2b6f572855580531e5250236101203392a360018060a01b03905416604051948552878501526040840152606083015260808201524260a08201527fb462a71232828309a49da4f7c83e27947b2dff4d8d5cb9433d07b9f88555495c60c03392a3604051908152f35b81612c7d91612f5a565b38612bad565b6040513d8f823e3d90fd5b612ca69060203d602011610472576104658183612f5a565b612b67565b634e487b7160e01b8f52601160045260248ffd5b8a612cc985613a82565b6012546040805194855260208501929092529083018790524260608401526001600160a01b0316913391507f91a9f62031be84840eb01532b7f49aac5edbd1cf88134c55fecb102753216b2c90608090a3612aa5565b506012546001600160a01b03161515612aa0565b634e487b7160e01b8d52601160045260248dfd5b60405162461bcd60e51b815260206004820152601960248201527f4e6f206e65772070726f66697420746f207769746864726177000000000000006044820152606490fd5b60405162461bcd60e51b815260206004820152602760248201527f5374616b6520706572696f6420656e6465642c2075736520756e7374616b65206044820152661a5b9cdd19585960ca1b6064820152608490fd5b60405162461bcd60e51b815260206004820152601160248201527020b63932b0b23c903bb4ba34323930bbb760791b6044820152606490fd5b503461043b578060031936011261043b575061056f604051612e3d604082612f5a565b600a8152695374616b65642053594960b01b6020820152604051918291602083526020830190612f7c565b503461043b57604036600319011261043b57610a79612ead6020926040612e8d612eb3565b91612e96612edf565b6001600160a01b039093168152600a865220612fe5565b50613973565b600435906001600160a01b03821682036104f757565b602435906001600160a01b03821682036104f757565b6024359060ff821682036104f757565b610140810190811067ffffffffffffffff821117612f0c57604052565b634e487b7160e01b600052604160045260246000fd5b60e0810190811067ffffffffffffffff821117612f0c57604052565b6040810190811067ffffffffffffffff821117612f0c57604052565b90601f8019910116810190811067ffffffffffffffff821117612f0c57604052565b919082519283825260005b848110612fa8575050826000602080949584010152601f8019910116010190565b80602080928401015182828601015201612f87565b906000905b60078210612fcf57505050565b6020806001928551815201930191019091612fc2565b8054821015613001576000526003602060002091020190600090565b634e487b7160e01b600052603260045260246000fd5b346104f75760003660031901126104f7576020610a79613486565b610120809164ffffffffff81511684526020810151602085015260408101516040850152606081015160608501526080810151608085015260a081015160a085015260c081015160c085015260e081015160e08501526101008101516101008501520151910152565b906020808351928381520192019060005b8181106130b95750505090565b82516001600160a01b03168452602093840193909201916001016130ac565b346104f75760003660031901126104f7576020610a7961363b565b906020808351928381520192019060005b8181106131115750505090565b8251845260209384019390920191600101613104565b60095481101561300157600960005260206000200190600090565b9190820391821161314f57565b634e487b7160e01b600052601160045260246000fd5b8181029291811591840414171561314f57565b8115613182570490565b634e487b7160e01b600052601260045260246000fd5b908160209103126104f7575180151581036104f75790565b9060078110156130015760051b0190565b60018060a01b03169081600052600a602052806040600020541115613310576131f691600052600a6020526040600020612fe5565b5060ff600282015460a01c166132da5764ffffffffff815460501c1642101561328e578061322661323b92613973565b6001909101546001600160a01b031690613142565b90811561325b5760019190604051613254602082612f5a565b6000815290565b9050600090600090604051613271604082612f5a565b600d81526c139bc81b995dc81c1c9bd99a5d609a1b602082015290565b506000906000906040516132a3606082612f5a565b602181527f5374616b6520706572696f6420656e6465642c2075736520756e7374616b65286020820152602960f81b604082015290565b506000906000906040516132ef604082612f5a565b601181527020b63932b0b23c903bb4ba34323930bbb760791b602082015290565b5050600090600090604051613326604082612f5a565b6013815272092dcecc2d8d2c840e6e8c2d6ca40d2dcc8caf606b1b602082015290565b60405162461bcd60e51b815260206004820152601760248201527f5472616e7366657273206e6f7420737570706f727465640000000000000000006044820152606490fd5b67ffffffffffffffff8111612f0c5760051b60200190565b906040516133b381612eef565b6101206009829464ffffffffff815416845260018101546020850152600281015460408501526003810154606085015260048101546080850152600581015460a0850152600681015460c0850152600781015460e085015260088101546101008501520154910152565b908160209103126104f757516001600160a01b03811681036104f75790565b51906001600160701b03821682036104f757565b908160609103126104f7576134648161343c565b9160406134736020840161343c565b92015163ffffffff811681036104f75790565b60095490811561350357603b1942019142831161314f57600354908190600019810190811161314f575b6134b981613127565b505464ffffffffff81168611156134da5750506134d7929350613142565b90565b60281c6001600160a01b0316925080156134f757600019016134b0565b506134d7929350613142565b60009150565b1561351057565b60405162461bcd60e51b8152602060048201526013602482015272092dcecc2d8d2c840e6e8c2d6ca40d2dcc8caf606b1b6044820152606490fd5b6135556001613509565b600190565b6135646001613509565b601e90565b6135736001613509565b605a90565b60006135846001613509565b5060b490565b9060ff6000921661359e6003821115613509565b80156135d157600181146135ca57600281146135c3576003146135bd57565b60b49150565b50605a9150565b50601e9150565b5060019150565b906135e28261338e565b6135ef6040519182612f5a565b8281528092613600601f199161338e565b0190602036910137565b8051156130015760200190565b8051600110156130015760400190565b80518210156130015760209160051b010190565b613643613486565b60015460405163d123de3160e01b815290602090829060049082906001600160a01b03165afa908115613708576000916136c3575b506001600160701b03606491160490818111600014613698575050600090565b6136a191613142565b683635c9adc5dea000008110156136b55790565b50683635c9adc5dea0000090565b90506020813d602011613700575b816136de60209383612f5a565b810103126104f7576001600160701b036136f960649261343c565b9150613678565b3d91506136d1565b6040513d6000823e3d90fd5b60ff6000199116019060ff821161314f57565b805482101561300157600052600a602060002091020190600090565b6001600160a01b03166000908152600a60205260408120805491929180613768575050565b909290600019810190811161314f57905b6137838285612fe5565b5060ff600282015460a01c16156137ac575b509080156137a7576000190190613779565b509150565b6137b590613973565b0138613795565b6001600160a01b031660009081526004602052604090205469021e19e0c9bab24000008110156138065769021e19e0c9bab24000000369021e19e0c9bab2400000811161314f5790565b50600090565b6001600160a01b03166000818152600a6020526040902054909190156138795781600052600a6020526040600020548110156138795761385891600052600a6020526040600020612fe5565b5060ff600282015460a01c16613806575460501c64ffffffffff1642101590565b5050600090565b60ff1660ff811461314f5760010190565b9060ff169061389f826135d8565b906000906000905b8460ff83161080613961575b1561390d576001600160a01b039081166000908152600d60205260409020541690816138e9575b6138e390613880565b906138a7565b9161390581836138ff60ff6138e3951688613627565b52613880565b9290506138da565b505060ff9192501661391e816135d8565b9160005b60ff81168381101561395a5760ff916001916139526001600160a01b036139498388613627565b51169188613627565b520116613922565b5050505090565b506001600160a01b03811615156138b3565b60018060a01b03600182015416815464ffffffffff804216818360501c16808210600014613a415750915b60281c1690039164ffffffffff831690816139ba575050905090565b6002015460a81c60ff16600481101561300157600501549050806001841615613a2c57647fffffffff905b9360011c1690815b6139fd575050906134d791614d78565b80613a0791614d78565b9060018116613a1b575b60011c90816139ed565b9281613a2691614d78565b92613a11565b50647fffffffff670de0b6b3a76400006139e5565b90509161399e565b9192608093613a6e92979695978452602084015260a0604084015260a083019061309b565b6001600160a01b0390951660608201520152565b6001546040516370a0823160e01b81523060048201529291906001600160a01b0316602084602481845afa93841561370857600094613f6d575b506040516370a0823160e01b8152306004820152917f00000000000000000000000000000000000000000000000000000000000000006001600160a01b03169190602084602481865afa93841561370857600094613f39575b50604051916060613b268185612f5a565b60028452601f19810136602086013781613b3f8561360a565b5284613b4a85613617565b52604051631abfa62960e01b8152602081600481865afa90811561370857600091613f1a575b50604051630240bc6b60e21b815292906001600160a01b03168284600481845afa600094859482613ef2575b5050613dc757505050508560011c905b811580613dbe575b613db3575b8660011c808311613daa575b5060009192613bec6040519485938493634401edf760e11b85524292309260048701613a49565b0381837f00000000000000000000000000000000000000000000000000000000000000006001600160a01b03165af190811561370857600091613d13575b50506001546040516370a0823160e01b81523060048201529190602090839060249082906001600160a01b03165afa91821561370857600092613cde575b506020602491604051928380926370a0823160e01b82523060048301525afa90811561370857600091613caa575b506134d792613ca491613142565b93613142565b90506020813d602011613cd6575b81613cc560209383612f5a565b810103126104f757516134d7613c96565b3d9150613cb8565b9091506020813d602011613d0b575b81613cfa60209383612f5a565b810103126104f75751906020613c68565b3d9150613ced565b3d8083833e613d228183612f5a565b8101906020818303126118065780519067ffffffffffffffff8211613da6570181601f8201121561180657805190613d598261338e565b93613d676040519586612f5a565b82855260208086019360051b83010193841161043b5750602001905b828210613d96575083929150613c2a9050565b8151815260209182019101613d83565b8380fd5b91506000613bc5565b600a87049150613bb9565b50861515613bb4565b602060049160405192838092630dfe168160e01b82525afa90811561370857600091613ed3575b506001600160a01b031603613ec4576001600160701b03905b169081151580613eb2575b15613ea6576001600160701b0381169060011c6d7fffffffffffffffffffffffffff1680841115613e9e57915b81831015613e915782613e58613e5e92613e6495613165565b92613142565b90613178565b60968102908082046096149015171561314f576064900486811015613e8a575b90613bac565b5085613e84565b5050508560021c90613bac565b508291613e3f565b50508560011c90613bac565b506001600160701b0381161515613e12565b906001600160701b0390613e07565b613eec915060203d6020116104b5576104a48183612f5a565b38613dee565b8091929650613f0e939550903d106120bf576120ab8183612f5a565b50929092933880613b9c565b613f33915060203d6020116104b5576104a48183612f5a565b38613b70565b9093506020813d602011613f65575b81613f5560209383612f5a565b810103126104f757519238613b15565b3d9150613f48565b90936020823d602011613f99575b81613f8860209383612f5a565b8101031261043b5750519238613abc565b3d9150613f7b565b6001600160a01b039081166000908152601060205260409020546064600590930292909204929183911680156140575760405163a9059cbb60e01b81526001600160a01b039091166004820152602481019190915260208180604481015b038160007f00000000000000000000000000000000000000000000000000000000000000006001600160a01b03165af180156137085761403c5750565b6140549060203d602011610472576104658183612f5a565b50565b5060025460405163a9059cbb60e01b81526001600160a01b03909116600482015260248101919091526020818060448101613fff565b906000905b6007821061409f57505050565b82516001600160a01b031681526020928301926001929092019101614092565b80516064602384020493929015614644578151926140dc8461338e565b936140ea6040519586612f5a565b8085526140f9601f199161338e565b0136602086013760005b83518110156141415760019061412b6001600160a01b036141248388613627565b5116614bd9565b60ff6141378389613627565b9116905201614103565b50909360009060e095604051926141588885612f5a565b873685376040519761416a818a612f5a565b36893795600095865b60ff81168a60078210156141a557918961419d8360ff95836141976001978e6131b0565b526131b0565b520116614173565b5050509296919590939461010094604051956141c18188612f5a565b3687378291825b86518410156144df5760ff6141dd8585613627565b511680151580806144cd575b806144a6575b156143db57508c6141ff82614e10565b926000818511156143d557506142158185613142565b905b8d8261423a575b5050505090600161423081938b614c6e565b52935b01926141c8565b61424683606492613165565b04928b84614258575b5092508d61421e565b906020856142a8969c936142768d60018060a09d9c9d1b0392613627565b5160405163a9059cbb60e01b815291166001600160a01b03166004820152602481019190915295869081906044820190565b038160007f00000000000000000000000000000000000000000000000000000000000000006001600160a01b03165af1908115613708578f8b8f9e8e6142f7918c9a82976143b9575b5061490d565b9e6001600160a01b039161430a91613627565b51169061431688613714565b60ff16614322916131b0565b5261432c86613714565b60ff16614338916131b0565b5261434284613714565b600160ff9182161b1617986001600160a01b0361435f8a8e613627565b5116928560405193849361438a93859094939260609260808301968352602083015260408201520152565b037f01a734153c0601a74f1dc5664552f5332bdbff9d65f915aa93203670b315f2bc91a3903880808f8b61424f565b6143d09060203d8111610472576104658183612f5a565b6142f1565b90614217565b9081600193969290614494575b80614469575b6143f9575b50614233565b828060a01b03614409838b613627565b51167f7a3d04064bf52fd85b24e9b77ff67ea0509733b9d322a1e5db9015b88a5777f0606060405160208152601c60208201527f494e53554646494349454e545f50524541434845525f535441545553000000006040820152a3386143f3565b50680ad78ebc5ac620000061448e848060a01b03614487858d613627565b5116613743565b106143ee565b5061449f818b614c6e565b51156143e8565b50680ad78ebc5ac62000006144c66001600160a01b03614487898d613627565b10156141ef565b506144d8828b614c6e565b51156141e9565b509994505050925093929360009086811061455d575b60ff926145477f20c7869a18417805c9820e55e867d39f97ad72dac389ee573ebe84a9c4e0a76097610260979694614552946040519889528b60208a015260408901526060880152608087019061408d565b610160850190612fbd565b16610240820152a190565b91939290506145a861456f8388613142565b60025460405163a9059cbb60e01b81526001600160a01b0390911660048201526024810182905290959091602090839081906044820190565b038160007f00000000000000000000000000000000000000000000000000000000000000006001600160a01b03165af18015613708577f20c7869a18417805c9820e55e867d39f97ad72dac389ee573ebe84a9c4e0a760976102609760ff966145529561454794614625575b5094509496975097505092506144f5565b61463d9060203d602011610472576104658183612f5a565b5038614614565b60025460405163a9059cbb60e01b81526001600160a01b03909116600482015260248101859052909291506020818060448101038160007f00000000000000000000000000000000000000000000000000000000000000006001600160a01b03165af1801561370857614777575b5060405160e0916146c38383612f5a565b82368337604051926146d58185612f5a565b36843760005b60ff8116600781101561470d5760ff91600061470583826146fe6001968a6131b0565b52886131b0565b5201166146db565b5050939261476b7f20c7869a18417805c9820e55e867d39f97ad72dac389ee573ebe84a9c4e0a760936147606102609460405194855287602086015260006040860152876060860152608085019061408d565b610160830190612fbd565b6000610240820152a190565b61478f9060203d602011610472576104658183612f5a565b6146b2565b60e06040516147a38282612f5a565b60005b8281106148c1575050506040516147bc81612f22565b6040516147c881612f3e565b6a0422ca8b0a00a42500000081526023602082015281526040516147eb81612f3e565b6a02116545850052128000008152601e6020820152602082015260405161481181612f3e565b69d3c21bcecceda1000000815260196020820152604082015260405161483681612f3e565b6969e10de76676d0800000815260146020820152606082015260405161485b81612f3e565b692a5a058fc295ed0000008152600f6020820152608082015260405161488081612f3e565b690a968163f0a57b4000008152600a602082015260a08201526040516148a581612f3e565b69021e19e0c9bab240000081526005602082015260c082015290565b6020906040516148d081612f3e565b6000815260008382015281840152016147a6565b6000546001600160a01b031633036148f857565b63118cdaa760e01b6000523360045260246000fd5b9190820180921161314f57565b600154604051631abfa62960e01b815291929190602090829060049082906001600160a01b03165afa90811561370857600091614bba575b50604051630240bc6b60e21b81526001600160a01b039190911692606082600481875afa91821561370857600090600093614b95575b506004602060009660405192838092630dfe168160e01b82525afa908115614b8a57614a27959691614b6b575b506001600160a01b039081167f000000000000000000000000000000000000000000000000000000000000000090911603614b6357602090925b604051630153543560e21b8152600481018490526001600160701b038086166024830152909116604482015293849081906064820190565b03817f00000000000000000000000000000000000000000000000000000000000000006001600160a01b03165afa92831561370857600093614b2f575b50612710810290808204612710149015171561314f576001600160701b03614a8d921690613178565b60009060c88111614ae05750506105dc5b6125e48202918083046125e4149015171561314f576127100390612710821161314f576127109182614ad09204613165565b04908115614ada57565b60019150565b6105dc8102908082046105dc1490151715614b1b5760c890046105dc0190816105dc116119d957506107d0811115614a9e57506107d0614a9e565b634e487b7160e01b82526011600452602482fd5b90926020823d602011614b5b575b81614b4a60209383612f5a565b8101031261043b5750519138614a64565b3d9150614b3d565b6020906149ef565b614b84915060203d6020116104b5576104a48183612f5a565b386149b5565b6040513d88823e3d90fd5b9050614bb191925060603d6060116120bf576120ab8183612f5a565b50919038614988565b614bd3915060203d6020116104b5576104a48183612f5a565b38614952565b6002546001600160a01b038281169291168214908115614c52575b5061380657600052600c602052604060002054614c0f614794565b9060005b60078110614c2357505050600090565b614c2d81846131b0565b5151821015614c3e57600101614c13565b9150506007036007811161314f5760ff1690565b680ad78ebc5ac62000009150614c6790613743565b1038614bf4565b9060088110156130015760051b0190565b6000916001600160a01b03909116908115614ce85760207fddf252ad1be2c89b69c2b068fc378daa952ba7f163c4a11628f55a4df523b3ef918385526004825260408520614cce828254613142565b9055614cdc81600354613142565b600355604051908152a3565b82915060207fddf252ad1be2c89b69c2b068fc378daa952ba7f163c4a11628f55a4df523b3ef918380526004825260408420614d2582825461490d565b9055614cdc8160035461490d565b7fddf252ad1be2c89b69c2b068fc378daa952ba7f163c4a11628f55a4df523b3ef602060009260018060a01b0316938484526004825260408420614d2582825461490d565b90919060001983820983820291828083109203918083039214614dff57670de0b6b3a7640000821015614de6577faccb18165bd6fe31ae1cf318dc5b51eee0e1ba569b88cd74c1773b91fac106699394670de0b6b3a7640000910990828211900360ee1b910360121c170290565b8490635173648d60e01b60005260045260245260446000fd5b5050670de0b6b3a764000090049150565b60ff1660018114614e725760028114614e6c5760038114614e665760048114614e605760058114614e5a5760068114614e5457600714614e4f57600090565b602390565b50601e90565b50601990565b50601490565b50600f90565b50600a90565b5060059056fea264697066735822122016841a413bd9693dac0c546695536ab7c41cc6d32ac06c082e50a94a5c5b9c1d64736f6c634300081c0033",
  "linkReferences": {},
  "deployedLinkReferences": {}
}