{
  "_format": "hh-sol-artifact-1",
  "contractName": "Staking",
  "sourceName": "contracts/SYI-Staking/mainnet/Staking.sol",
  "abi": [
    {
      "inputs": [
        {
          "internalType": "address",
          "name": "_usdt",
          "type": "address"
        },
        {
          "internalType": "address",
          "name": "_router",
          "type": "address"
        },
        {
          "internalType": "address",
          "name": "_rootAddress",
          "type": "address"
        },
        {
          "internalType": "address",
          "name": "_feeRecipient",
          "type": "address"
        }
      ],
      "stateMutability": "nonpayable",
      "type": "constructor"
    },
    {
      "inputs": [],
      "name": "AlreadyBound",
      "type": "error"
    },
    {
      "inputs": [],
      "name": "AlreadyLocked",
      "type": "error"
    },
    {
      "inputs": [],
      "name": "AlreadyWithdrawn",
      "type": "error"
    },
    {
      "inputs": [],
      "name": "CannotReferSelf",
      "type": "error"
    },
    {
      "inputs": [],
      "name": "ExceedsMaxStakeAmount",
      "type": "error"
    },
    {
      "inputs": [],
      "name": "ExceedsUserTotalStakeLimit",
      "type": "error"
    },
    {
      "inputs": [],
      "name": "InvalidReferral",
      "type": "error"
    },
    {
      "inputs": [],
      "name": "InvalidReferrer",
      "type": "error"
    },
    {
      "inputs": [],
      "name": "InvalidStakeIndex",
      "type": "error"
    },
    {
      "inputs": [],
      "name": "MustBindReferral",
      "type": "error"
    },
    {
      "inputs": [],
      "name": "NotAuthorized",
      "type": "error"
    },
    {
      "inputs": [],
      "name": "OnlyEOAAllowed",
      "type": "error"
    },
    {
      "inputs": [
        {
          "internalType": "address",
          "name": "owner",
          "type": "address"
        }
      ],
      "name": "OwnableInvalidOwner",
      "type": "error"
    },
    {
      "inputs": [
        {
          "internalType": "address",
          "name": "account",
          "type": "address"
        }
      ],
      "name": "OwnableUnauthorizedAccount",
      "type": "error"
    },
    {
      "inputs": [
        {
          "internalType": "uint256",
          "name": "x",
          "type": "uint256"
        },
        {
          "internalType": "uint256",
          "name": "y",
          "type": "uint256"
        }
      ],
      "name": "PRBMath_MulDiv18_Overflow",
      "type": "error"
    },
    {
      "inputs": [],
      "name": "StakingPeriodNotMet",
      "type": "error"
    },
    {
      "anonymous": false,
      "inputs": [
        {
          "indexed": true,
          "internalType": "address",
          "name": "user",
          "type": "address"
        },
        {
          "indexed": true,
          "internalType": "address",
          "name": "friend",
          "type": "address"
        }
      ],
      "name": "BindFriend",
      "type": "event"
    },
    {
      "anonymous": false,
      "inputs": [
        {
          "indexed": true,
          "internalType": "address",
          "name": "user",
          "type": "address"
        },
        {
          "indexed": true,
          "internalType": "address",
          "name": "parent",
          "type": "address"
        }
      ],
      "name": "BindReferral",
      "type": "event"
    },
    {
      "anonymous": false,
      "inputs": [
        {
          "indexed": true,
          "internalType": "address",
          "name": "oldRecipient",
          "type": "address"
        },
        {
          "indexed": true,
          "internalType": "address",
          "name": "newRecipient",
          "type": "address"
        }
      ],
      "name": "FeeRecipientUpdated",
      "type": "event"
    },
    {
      "anonymous": false,
      "inputs": [
        {
          "indexed": true,
          "internalType": "address",
          "name": "oldAddress",
          "type": "address"
        },
        {
          "indexed": true,
          "internalType": "address",
          "name": "newAddress",
          "type": "address"
        }
      ],
      "name": "MarketingAddressUpdated",
      "type": "event"
    },
    {
      "anonymous": false,
      "inputs": [
        {
          "indexed": true,
          "internalType": "address",
          "name": "previousOwner",
          "type": "address"
        },
        {
          "indexed": true,
          "internalType": "address",
          "name": "newOwner",
          "type": "address"
        }
      ],
      "name": "OwnershipTransferred",
      "type": "event"
    },
    {
      "anonymous": false,
      "inputs": [
        {
          "indexed": true,
          "internalType": "address",
          "name": "user",
          "type": "address"
        },
        {
          "indexed": true,
          "internalType": "uint8",
          "name": "tier",
          "type": "uint8"
        },
        {
          "indexed": false,
          "internalType": "string",
          "name": "reason",
          "type": "string"
        }
      ],
      "name": "PreacherCheckFailed",
      "type": "event"
    },
    {
      "anonymous": false,
      "inputs": [
        {
          "indexed": false,
          "internalType": "uint256",
          "name": "duration",
          "type": "uint256"
        }
      ],
      "name": "PresaleDurationUpdated",
      "type": "event"
    },
    {
      "anonymous": false,
      "inputs": [
        {
          "indexed": true,
          "internalType": "address",
          "name": "user",
          "type": "address"
        },
        {
          "indexed": false,
          "internalType": "uint256",
          "name": "stakeIndex",
          "type": "uint256"
        },
        {
          "indexed": false,
          "internalType": "uint256",
          "name": "syiAmount",
          "type": "uint256"
        },
        {
          "indexed": false,
          "internalType": "uint256",
          "name": "usdtAmount",
          "type": "uint256"
        },
        {
          "indexed": true,
          "internalType": "address",
          "name": "feeRecipient",
          "type": "address"
        },
        {
          "indexed": false,
          "internalType": "uint256",
          "name": "timestamp",
          "type": "uint256"
        }
      ],
      "name": "RedemptionFeeCollected",
      "type": "event"
    },
    {
      "anonymous": false,
      "inputs": [
        {
          "indexed": true,
          "internalType": "address",
          "name": "user",
          "type": "address"
        },
        {
          "indexed": false,
          "internalType": "uint256",
          "name": "reward",
          "type": "uint256"
        },
        {
          "indexed": false,
          "internalType": "uint40",
          "name": "timestamp",
          "type": "uint40"
        },
        {
          "indexed": false,
          "internalType": "uint256",
          "name": "index",
          "type": "uint256"
        }
      ],
      "name": "RewardPaid",
      "type": "event"
    },
    {
      "anonymous": false,
      "inputs": [
        {
          "indexed": true,
          "internalType": "address",
          "name": "syiAddress",
          "type": "address"
        }
      ],
      "name": "SYIContractSet",
      "type": "event"
    },
    {
      "anonymous": false,
      "inputs": [
        {
          "indexed": true,
          "internalType": "address",
          "name": "user",
          "type": "address"
        },
        {
          "indexed": false,
          "internalType": "uint256",
          "name": "amount",
          "type": "uint256"
        },
        {
          "indexed": false,
          "internalType": "uint256",
          "name": "timestamp",
          "type": "uint256"
        },
        {
          "indexed": false,
          "internalType": "uint256",
          "name": "index",
          "type": "uint256"
        },
        {
          "indexed": false,
          "internalType": "uint256",
          "name": "stakeTime",
          "type": "uint256"
        }
      ],
      "name": "Staked",
      "type": "event"
    },
    {
      "anonymous": false,
      "inputs": [
        {
          "indexed": false,
          "internalType": "uint256[4]",
          "name": "newRates",
          "type": "uint256[4]"
        }
      ],
      "name": "StakingRatesUpdated",
      "type": "event"
    },
    {
      "anonymous": false,
      "inputs": [
        {
          "indexed": true,
          "internalType": "address",
          "name": "recipient",
          "type": "address"
        },
        {
          "indexed": true,
          "internalType": "uint8",
          "name": "tier",
          "type": "uint8"
        },
        {
          "indexed": false,
          "internalType": "uint256",
          "name": "actualRewardRate",
          "type": "uint256"
        },
        {
          "indexed": false,
          "internalType": "uint256",
          "name": "rewardAmount",
          "type": "uint256"
        },
        {
          "indexed": false,
          "internalType": "uint256",
          "name": "previousCumulativeRate",
          "type": "uint256"
        },
        {
          "indexed": false,
          "internalType": "uint256",
          "name": "currentTierRate",
          "type": "uint256"
        }
      ],
      "name": "StrictDifferentialRewardPaid",
      "type": "event"
    },
    {
      "anonymous": false,
      "inputs": [
        {
          "indexed": false,
          "internalType": "uint256",
          "name": "interestAmount",
          "type": "uint256"
        },
        {
          "indexed": false,
          "internalType": "uint256",
          "name": "totalTeamRewardPool",
          "type": "uint256"
        },
        {
          "indexed": false,
          "internalType": "uint256",
          "name": "totalDistributed",
          "type": "uint256"
        },
        {
          "indexed": false,
          "internalType": "uint256",
          "name": "marketingAmount",
          "type": "uint256"
        },
        {
          "indexed": false,
          "internalType": "address[7]",
          "name": "tierRecipients",
          "type": "address[7]"
        },
        {
          "indexed": false,
          "internalType": "uint256[7]",
          "name": "tierAmounts",
          "type": "uint256[7]"
        },
        {
          "indexed": false,
          "internalType": "uint8",
          "name": "activeTiers",
          "type": "uint8"
        }
      ],
      "name": "TeamRewardDistributionCompleted",
      "type": "event"
    },
    {
      "anonymous": false,
      "inputs": [
        {
          "indexed": false,
          "internalType": "bool",
          "name": "enabled",
          "type": "bool"
        }
      ],
      "name": "TestModeSet",
      "type": "event"
    },
    {
      "anonymous": false,
      "inputs": [
        {
          "indexed": true,
          "internalType": "address",
          "name": "from",
          "type": "address"
        },
        {
          "indexed": true,
          "internalType": "address",
          "name": "to",
          "type": "address"
        },
        {
          "indexed": false,
          "internalType": "uint256",
          "name": "amount",
          "type": "uint256"
        }
      ],
      "name": "Transfer",
      "type": "event"
    },
    {
      "anonymous": false,
      "inputs": [
        {
          "indexed": true,
          "internalType": "address",
          "name": "user",
          "type": "address"
        },
        {
          "indexed": true,
          "internalType": "uint256",
          "name": "stakeIndex",
          "type": "uint256"
        },
        {
          "indexed": false,
          "internalType": "uint256",
          "name": "principalAmount",
          "type": "uint256"
        },
        {
          "indexed": false,
          "internalType": "uint256",
          "name": "calculatedReward",
          "type": "uint256"
        },
        {
          "indexed": false,
          "internalType": "uint256",
          "name": "usdtReceived",
          "type": "uint256"
        },
        {
          "indexed": false,
          "internalType": "uint256",
          "name": "olaTokensUsed",
          "type": "uint256"
        },
        {
          "indexed": false,
          "internalType": "uint256",
          "name": "referralFee",
          "type": "uint256"
        },
        {
          "indexed": false,
          "internalType": "uint256",
          "name": "teamFee",
          "type": "uint256"
        },
        {
          "indexed": false,
          "internalType": "uint256",
          "name": "userPayout",
          "type": "uint256"
        },
        {
          "indexed": false,
          "internalType": "uint256",
          "name": "interestEarned",
          "type": "uint256"
        },
        {
          "indexed": false,
          "internalType": "uint40",
          "name": "withdrawalTime",
          "type": "uint40"
        }
      ],
      "name": "WithdrawalCompleted",
      "type": "event"
    },
    {
      "inputs": [],
      "name": "REDEMPTION_FEE_RATE",
      "outputs": [
        {
          "internalType": "uint256",
          "name": "",
          "type": "uint256"
        }
      ],
      "stateMutability": "view",
      "type": "function"
    },
    {
      "inputs": [],
      "name": "ROUTER",
      "outputs": [
        {
          "internalType": "contract IUniswapV2Router02",
          "name": "",
          "type": "address"
        }
      ],
      "stateMutability": "view",
      "type": "function"
    },
    {
      "inputs": [],
      "name": "SYI",
      "outputs": [
        {
          "internalType": "contract ISYI",
          "name": "",
          "type": "address"
        }
      ],
      "stateMutability": "view",
      "type": "function"
    },
    {
      "inputs": [
        {
          "internalType": "address",
          "name": "",
          "type": "address"
        },
        {
          "internalType": "address",
          "name": "",
          "type": "address"
        }
      ],
      "name": "allowance",
      "outputs": [
        {
          "internalType": "uint256",
          "name": "",
          "type": "uint256"
        }
      ],
      "stateMutability": "pure",
      "type": "function"
    },
    {
      "inputs": [
        {
          "internalType": "address",
          "name": "",
          "type": "address"
        },
        {
          "internalType": "uint256",
          "name": "",
          "type": "uint256"
        }
      ],
      "name": "approve",
      "outputs": [
        {
          "internalType": "bool",
          "name": "",
          "type": "bool"
        }
      ],
      "stateMutability": "pure",
      "type": "function"
    },
    {
      "inputs": [
        {
          "internalType": "address",
          "name": "account",
          "type": "address"
        }
      ],
      "name": "balanceOf",
      "outputs": [
        {
          "internalType": "uint256",
          "name": "balance",
          "type": "uint256"
        }
      ],
      "stateMutability": "view",
      "type": "function"
    },
    {
      "inputs": [
        {
          "internalType": "address",
          "name": "",
          "type": "address"
        }
      ],
      "name": "balances",
      "outputs": [
        {
          "internalType": "uint256",
          "name": "",
          "type": "uint256"
        }
      ],
      "stateMutability": "view",
      "type": "function"
    },
    {
      "inputs": [
        {
          "internalType": "address",
          "name": "user",
          "type": "address"
        },
        {
          "internalType": "uint256",
          "name": "stakeIndex",
          "type": "uint256"
        }
      ],
      "name": "canWithdrawStake",
      "outputs": [
        {
          "internalType": "bool",
          "name": "canWithdraw",
          "type": "bool"
        }
      ],
      "stateMutability": "view",
      "type": "function"
    },
    {
      "inputs": [
        {
          "internalType": "address",
          "name": "account",
          "type": "address"
        }
      ],
      "name": "currentStakeValue",
      "outputs": [
        {
          "internalType": "uint256",
          "name": "currentValue",
          "type": "uint256"
        }
      ],
      "stateMutability": "view",
      "type": "function"
    },
    {
      "inputs": [],
      "name": "decimals",
      "outputs": [
        {
          "internalType": "uint8",
          "name": "",
          "type": "uint8"
        }
      ],
      "stateMutability": "view",
      "type": "function"
    },
    {
      "inputs": [
        {
          "internalType": "address",
          "name": "account",
          "type": "address"
        }
      ],
      "name": "earnedInterest",
      "outputs": [
        {
          "internalType": "uint256",
          "name": "interest",
          "type": "uint256"
        }
      ],
      "stateMutability": "view",
      "type": "function"
    },
    {
      "inputs": [
        {
          "internalType": "address",
          "name": "to",
          "type": "address"
        },
        {
          "internalType": "uint256",
          "name": "_amount",
          "type": "uint256"
        }
      ],
      "name": "emergencyWithdrawSYI",
      "outputs": [],
      "stateMutability": "nonpayable",
      "type": "function"
    },
    {
      "inputs": [
        {
          "internalType": "address",
          "name": "to",
          "type": "address"
        },
        {
          "internalType": "uint256",
          "name": "_amount",
          "type": "uint256"
        }
      ],
      "name": "emergencyWithdrawUSDT",
      "outputs": [],
      "stateMutability": "nonpayable",
      "type": "function"
    },
    {
      "inputs": [],
      "name": "feeRecipient",
      "outputs": [
        {
          "internalType": "address",
          "name": "",
          "type": "address"
        }
      ],
      "stateMutability": "view",
      "type": "function"
    },
    {
      "inputs": [
        {
          "internalType": "address",
          "name": "user",
          "type": "address"
        }
      ],
      "name": "getFriend",
      "outputs": [
        {
          "internalType": "address",
          "name": "",
          "type": "address"
        }
      ],
      "stateMutability": "view",
      "type": "function"
    },
    {
      "inputs": [],
      "name": "getMaxStakeAmount",
      "outputs": [
        {
          "internalType": "uint256",
          "name": "maxAmount",
          "type": "uint256"
        }
      ],
      "stateMutability": "view",
      "type": "function"
    },
    {
      "inputs": [],
      "name": "getMaxUserTotalStake",
      "outputs": [
        {
          "internalType": "uint256",
          "name": "limit",
          "type": "uint256"
        }
      ],
      "stateMutability": "pure",
      "type": "function"
    },
    {
      "inputs": [],
      "name": "getNetworkInflow",
      "outputs": [
        {
          "internalType": "uint256",
          "name": "value",
          "type": "uint256"
        }
      ],
      "stateMutability": "view",
      "type": "function"
    },
    {
      "inputs": [],
      "name": "getRecentNetworkInflow",
      "outputs": [
        {
          "internalType": "uint256",
          "name": "recentInflow",
          "type": "uint256"
        }
      ],
      "stateMutability": "view",
      "type": "function"
    },
    {
      "inputs": [
        {
          "internalType": "address",
          "name": "_user",
          "type": "address"
        }
      ],
      "name": "getReferral",
      "outputs": [
        {
          "internalType": "address",
          "name": "",
          "type": "address"
        }
      ],
      "stateMutability": "view",
      "type": "function"
    },
    {
      "inputs": [
        {
          "internalType": "address",
          "name": "_user",
          "type": "address"
        }
      ],
      "name": "getReferralCount",
      "outputs": [
        {
          "internalType": "uint256",
          "name": "",
          "type": "uint256"
        }
      ],
      "stateMutability": "view",
      "type": "function"
    },
    {
      "inputs": [
        {
          "internalType": "address",
          "name": "_user",
          "type": "address"
        },
        {
          "internalType": "uint256",
          "name": "_maxDepth",
          "type": "uint256"
        }
      ],
      "name": "getReferrals",
      "outputs": [
        {
          "internalType": "address[]",
          "name": "",
          "type": "address[]"
        }
      ],
      "stateMutability": "view",
      "type": "function"
    },
    {
      "inputs": [
        {
          "internalType": "address",
          "name": "_user",
          "type": "address"
        },
        {
          "internalType": "uint8",
          "name": "_maxDepth",
          "type": "uint8"
        }
      ],
      "name": "getReferrals",
      "outputs": [
        {
          "internalType": "address[]",
          "name": "",
          "type": "address[]"
        }
      ],
      "stateMutability": "view",
      "type": "function"
    },
    {
      "inputs": [
        {
          "internalType": "address",
          "name": "user",
          "type": "address"
        }
      ],
      "name": "getRemainingStakeCapacity",
      "outputs": [
        {
          "internalType": "uint256",
          "name": "remaining",
          "type": "uint256"
        }
      ],
      "stateMutability": "view",
      "type": "function"
    },
    {
      "inputs": [],
      "name": "getRootAddress",
      "outputs": [
        {
          "internalType": "address",
          "name": "",
          "type": "address"
        }
      ],
      "stateMutability": "view",
      "type": "function"
    },
    {
      "inputs": [],
      "name": "getSlippageConfig",
      "outputs": [
        {
          "internalType": "uint256",
          "name": "baseSlippage",
          "type": "uint256"
        },
        {
          "internalType": "uint256",
          "name": "maxSlippage",
          "type": "uint256"
        },
        {
          "internalType": "uint256",
          "name": "priceImpactThreshold",
          "type": "uint256"
        }
      ],
      "stateMutability": "pure",
      "type": "function"
    },
    {
      "inputs": [
        {
          "internalType": "uint8",
          "name": "stakeIndex",
          "type": "uint8"
        }
      ],
      "name": "getStakePeriod",
      "outputs": [
        {
          "internalType": "uint256",
          "name": "period",
          "type": "uint256"
        }
      ],
      "stateMutability": "pure",
      "type": "function"
    },
    {
      "inputs": [],
      "name": "getStakePeriods",
      "outputs": [
        {
          "internalType": "uint256[4]",
          "name": "periods",
          "type": "uint256[4]"
        }
      ],
      "stateMutability": "pure",
      "type": "function"
    },
    {
      "inputs": [
        {
          "internalType": "address",
          "name": "_user",
          "type": "address"
        }
      ],
      "name": "getTeamKpi",
      "outputs": [
        {
          "internalType": "uint256",
          "name": "",
          "type": "uint256"
        }
      ],
      "stateMutability": "view",
      "type": "function"
    },
    {
      "inputs": [
        {
          "internalType": "address",
          "name": "_user",
          "type": "address"
        }
      ],
      "name": "getTeamPerformanceDetails",
      "outputs": [
        {
          "internalType": "uint256",
          "name": "totalTeamInvestment",
          "type": "uint256"
        },
        {
          "internalType": "uint256",
          "name": "teamMemberCount",
          "type": "uint256"
        },
        {
          "internalType": "uint8",
          "name": "currentTier",
          "type": "uint8"
        },
        {
          "internalType": "uint256",
          "name": "nextTierThreshold",
          "type": "uint256"
        },
        {
          "internalType": "uint256",
          "name": "progressToNextTier",
          "type": "uint256"
        }
      ],
      "stateMutability": "view",
      "type": "function"
    },
    {
      "inputs": [],
      "name": "getTeamRewardRates",
      "outputs": [
        {
          "internalType": "uint256[7]",
          "name": "rewardRates",
          "type": "uint256[7]"
        }
      ],
      "stateMutability": "pure",
      "type": "function"
    },
    {
      "inputs": [],
      "name": "getTeamRewardThresholds",
      "outputs": [
        {
          "internalType": "uint256[7]",
          "name": "thresholds",
          "type": "uint256[7]"
        }
      ],
      "stateMutability": "pure",
      "type": "function"
    },
    {
      "inputs": [
        {
          "internalType": "address",
          "name": "user",
          "type": "address"
        }
      ],
      "name": "getUserInfo",
      "outputs": [
        {
          "internalType": "uint128",
          "name": "totalStaked",
          "type": "uint128"
        },
        {
          "internalType": "uint128",
          "name": "teamKPI",
          "type": "uint128"
        },
        {
          "internalType": "address",
          "name": "referrer",
          "type": "address"
        },
        {
          "internalType": "bool",
          "name": "hasLockedReferral",
          "type": "bool"
        },
        {
          "internalType": "bool",
          "name": "isPreacherStatus",
          "type": "bool"
        }
      ],
      "stateMutability": "view",
      "type": "function"
    },
    {
      "inputs": [
        {
          "internalType": "address",
          "name": "user",
          "type": "address"
        }
      ],
      "name": "getUserStakeWithdrawalStatus",
      "outputs": [
        {
          "internalType": "uint256[]",
          "name": "stakeIndices",
          "type": "uint256[]"
        },
        {
          "internalType": "bool[]",
          "name": "canWithdrawArray",
          "type": "bool[]"
        },
        {
          "internalType": "uint256[]",
          "name": "timeRemaining",
          "type": "uint256[]"
        }
      ],
      "stateMutability": "view",
      "type": "function"
    },
    {
      "inputs": [
        {
          "internalType": "address",
          "name": "user",
          "type": "address"
        }
      ],
      "name": "getWithdrawalCount",
      "outputs": [
        {
          "internalType": "uint256",
          "name": "",
          "type": "uint256"
        }
      ],
      "stateMutability": "view",
      "type": "function"
    },
    {
      "inputs": [
        {
          "internalType": "address",
          "name": "user",
          "type": "address"
        }
      ],
      "name": "getWithdrawalHistory",
      "outputs": [
        {
          "components": [
            {
              "internalType": "uint40",
              "name": "withdrawalTime",
              "type": "uint40"
            },
            {
              "internalType": "uint256",
              "name": "stakeIndex",
              "type": "uint256"
            },
            {
              "internalType": "uint256",
              "name": "principalAmount",
              "type": "uint256"
            },
            {
              "internalType": "uint256",
              "name": "calculatedReward",
              "type": "uint256"
            },
            {
              "internalType": "uint256",
              "name": "usdtReceived",
              "type": "uint256"
            },
            {
              "internalType": "uint256",
              "name": "syiTokensUsed",
              "type": "uint256"
            },
            {
              "internalType": "uint256",
              "name": "referralFee",
              "type": "uint256"
            },
            {
              "internalType": "uint256",
              "name": "teamFee",
              "type": "uint256"
            },
            {
              "internalType": "uint256",
              "name": "userPayout",
              "type": "uint256"
            },
            {
              "internalType": "uint256",
              "name": "interestEarned",
              "type": "uint256"
            }
          ],
          "internalType": "struct IStaking.WithdrawalRecord[]",
          "name": "",
          "type": "tuple[]"
        }
      ],
      "stateMutability": "view",
      "type": "function"
    },
    {
      "inputs": [
        {
          "internalType": "address",
          "name": "user",
          "type": "address"
        },
        {
          "internalType": "uint256",
          "name": "index",
          "type": "uint256"
        }
      ],
      "name": "getWithdrawalRecord",
      "outputs": [
        {
          "components": [
            {
              "internalType": "uint40",
              "name": "withdrawalTime",
              "type": "uint40"
            },
            {
              "internalType": "uint256",
              "name": "stakeIndex",
              "type": "uint256"
            },
            {
              "internalType": "uint256",
              "name": "principalAmount",
              "type": "uint256"
            },
            {
              "internalType": "uint256",
              "name": "calculatedReward",
              "type": "uint256"
            },
            {
              "internalType": "uint256",
              "name": "usdtReceived",
              "type": "uint256"
            },
            {
              "internalType": "uint256",
              "name": "syiTokensUsed",
              "type": "uint256"
            },
            {
              "internalType": "uint256",
              "name": "referralFee",
              "type": "uint256"
            },
            {
              "internalType": "uint256",
              "name": "teamFee",
              "type": "uint256"
            },
            {
              "internalType": "uint256",
              "name": "userPayout",
              "type": "uint256"
            },
            {
              "internalType": "uint256",
              "name": "interestEarned",
              "type": "uint256"
            }
          ],
          "internalType": "struct IStaking.WithdrawalRecord",
          "name": "",
          "type": "tuple"
        }
      ],
      "stateMutability": "view",
      "type": "function"
    },
    {
      "inputs": [
        {
          "internalType": "address",
          "name": "_user",
          "type": "address"
        }
      ],
      "name": "isBindReferral",
      "outputs": [
        {
          "internalType": "bool",
          "name": "",
          "type": "bool"
        }
      ],
      "stateMutability": "view",
      "type": "function"
    },
    {
      "inputs": [
        {
          "internalType": "address",
          "name": "user",
          "type": "address"
        }
      ],
      "name": "isPreacher",
      "outputs": [
        {
          "internalType": "bool",
          "name": "",
          "type": "bool"
        }
      ],
      "stateMutability": "view",
      "type": "function"
    },
    {
      "inputs": [
        {
          "internalType": "address",
          "name": "_friend",
          "type": "address"
        }
      ],
      "name": "lockFriend",
      "outputs": [],
      "stateMutability": "nonpayable",
      "type": "function"
    },
    {
      "inputs": [
        {
          "internalType": "address",
          "name": "_referrer",
          "type": "address"
        }
      ],
      "name": "lockReferral",
      "outputs": [],
      "stateMutability": "nonpayable",
      "type": "function"
    },
    {
      "inputs": [],
      "name": "maxStakeAmount",
      "outputs": [
        {
          "internalType": "uint256",
          "name": "maxAmount",
          "type": "uint256"
        }
      ],
      "stateMutability": "view",
      "type": "function"
    },
    {
      "inputs": [],
      "name": "name",
      "outputs": [
        {
          "internalType": "string",
          "name": "",
          "type": "string"
        }
      ],
      "stateMutability": "view",
      "type": "function"
    },
    {
      "inputs": [],
      "name": "network1In",
      "outputs": [
        {
          "internalType": "uint256",
          "name": "value",
          "type": "uint256"
        }
      ],
      "stateMutability": "view",
      "type": "function"
    },
    {
      "inputs": [],
      "name": "owner",
      "outputs": [
        {
          "internalType": "address",
          "name": "",
          "type": "address"
        }
      ],
      "stateMutability": "view",
      "type": "function"
    },
    {
      "inputs": [
        {
          "internalType": "uint256",
          "name": "usdtAmount",
          "type": "uint256"
        }
      ],
      "name": "previewStakeOutput",
      "outputs": [
        {
          "internalType": "uint256",
          "name": "halfUsdtAmount",
          "type": "uint256"
        },
        {
          "internalType": "uint256",
          "name": "expectedSYI",
          "type": "uint256"
        },
        {
          "internalType": "uint256",
          "name": "minSYIOut",
          "type": "uint256"
        }
      ],
      "stateMutability": "view",
      "type": "function"
    },
    {
      "inputs": [
        {
          "internalType": "address",
          "name": "account",
          "type": "address"
        }
      ],
      "name": "principalBalance",
      "outputs": [
        {
          "internalType": "uint256",
          "name": "balance",
          "type": "uint256"
        }
      ],
      "stateMutability": "view",
      "type": "function"
    },
    {
      "inputs": [
        {
          "internalType": "uint256",
          "name": "",
          "type": "uint256"
        }
      ],
      "name": "rates",
      "outputs": [
        {
          "internalType": "uint256",
          "name": "",
          "type": "uint256"
        }
      ],
      "stateMutability": "view",
      "type": "function"
    },
    {
      "inputs": [],
      "name": "renounceOwnership",
      "outputs": [],
      "stateMutability": "nonpayable",
      "type": "function"
    },
    {
      "inputs": [
        {
          "internalType": "address",
          "name": "user",
          "type": "address"
        },
        {
          "internalType": "uint8",
          "name": "index",
          "type": "uint8"
        }
      ],
      "name": "rewardOfSlot",
      "outputs": [
        {
          "internalType": "uint256",
          "name": "reward",
          "type": "uint256"
        }
      ],
      "stateMutability": "view",
      "type": "function"
    },
    {
      "inputs": [
        {
          "internalType": "address",
          "name": "_feeRecipient",
          "type": "address"
        }
      ],
      "name": "setFeeRecipient",
      "outputs": [],
      "stateMutability": "nonpayable",
      "type": "function"
    },
    {
      "inputs": [
        {
          "internalType": "address",
          "name": "_rootAddress",
          "type": "address"
        }
      ],
      "name": "setRootAddress",
      "outputs": [],
      "stateMutability": "nonpayable",
      "type": "function"
    },
    {
      "inputs": [
        {
          "internalType": "address",
          "name": "_syi",
          "type": "address"
        }
      ],
      "name": "setSYI",
      "outputs": [],
      "stateMutability": "nonpayable",
      "type": "function"
    },
    {
      "inputs": [
        {
          "internalType": "uint160",
          "name": "_amount",
          "type": "uint160"
        },
        {
          "internalType": "uint8",
          "name": "_stakeIndex",
          "type": "uint8"
        }
      ],
      "name": "stake",
      "outputs": [],
      "stateMutability": "nonpayable",
      "type": "function"
    },
    {
      "inputs": [
        {
          "internalType": "address",
          "name": "user",
          "type": "address"
        }
      ],
      "name": "stakeCount",
      "outputs": [
        {
          "internalType": "uint256",
          "name": "count",
          "type": "uint256"
        }
      ],
      "stateMutability": "view",
      "type": "function"
    },
    {
      "inputs": [],
      "name": "symbol",
      "outputs": [
        {
          "internalType": "string",
          "name": "",
          "type": "string"
        }
      ],
      "stateMutability": "view",
      "type": "function"
    },
    {
      "inputs": [],
      "name": "sync",
      "outputs": [],
      "stateMutability": "nonpayable",
      "type": "function"
    },
    {
      "inputs": [
        {
          "internalType": "uint256",
          "name": "",
          "type": "uint256"
        }
      ],
      "name": "t_supply",
      "outputs": [
        {
          "internalType": "uint40",
          "name": "stakeTime",
          "type": "uint40"
        },
        {
          "internalType": "uint160",
          "name": "tamount",
          "type": "uint160"
        }
      ],
      "stateMutability": "view",
      "type": "function"
    },
    {
      "inputs": [
        {
          "internalType": "address",
          "name": "",
          "type": "address"
        }
      ],
      "name": "teamTotalInvestValue",
      "outputs": [
        {
          "internalType": "uint256",
          "name": "",
          "type": "uint256"
        }
      ],
      "stateMutability": "view",
      "type": "function"
    },
    {
      "inputs": [],
      "name": "totalSupply",
      "outputs": [
        {
          "internalType": "uint256",
          "name": "",
          "type": "uint256"
        }
      ],
      "stateMutability": "view",
      "type": "function"
    },
    {
      "inputs": [
        {
          "internalType": "address",
          "name": "",
          "type": "address"
        },
        {
          "internalType": "uint256",
          "name": "",
          "type": "uint256"
        }
      ],
      "name": "transfer",
      "outputs": [
        {
          "internalType": "bool",
          "name": "",
          "type": "bool"
        }
      ],
      "stateMutability": "pure",
      "type": "function"
    },
    {
      "inputs": [
        {
          "internalType": "address",
          "name": "",
          "type": "address"
        },
        {
          "internalType": "address",
          "name": "",
          "type": "address"
        },
        {
          "internalType": "uint256",
          "name": "",
          "type": "uint256"
        }
      ],
      "name": "transferFrom",
      "outputs": [
        {
          "internalType": "bool",
          "name": "",
          "type": "bool"
        }
      ],
      "stateMutability": "pure",
      "type": "function"
    },
    {
      "inputs": [
        {
          "internalType": "address",
          "name": "newOwner",
          "type": "address"
        }
      ],
      "name": "transferOwnership",
      "outputs": [],
      "stateMutability": "nonpayable",
      "type": "function"
    },
    {
      "inputs": [
        {
          "internalType": "uint256",
          "name": "stakeIndex",
          "type": "uint256"
        }
      ],
      "name": "unstake",
      "outputs": [
        {
          "internalType": "uint256",
          "name": "totalReward",
          "type": "uint256"
        }
      ],
      "stateMutability": "nonpayable",
      "type": "function"
    },
    {
      "inputs": [
        {
          "internalType": "address",
          "name": "",
          "type": "address"
        }
      ],
      "name": "userIndex",
      "outputs": [
        {
          "internalType": "uint256",
          "name": "",
          "type": "uint256"
        }
      ],
      "stateMutability": "view",
      "type": "function"
    },
    {
      "inputs": [
        {
          "internalType": "address",
          "name": "",
          "type": "address"
        },
        {
          "internalType": "uint256",
          "name": "",
          "type": "uint256"
        }
      ],
      "name": "userStakeRecord",
      "outputs": [
        {
          "internalType": "uint40",
          "name": "stakeTime",
          "type": "uint40"
        },
        {
          "internalType": "uint160",
          "name": "amount",
          "type": "uint160"
        },
        {
          "internalType": "bool",
          "name": "status",
          "type": "bool"
        },
        {
          "internalType": "uint8",
          "name": "stakeIndex",
          "type": "uint8"
        }
      ],
      "stateMutability": "view",
      "type": "function"
    }
  ],
  "bytecode": "0x60e08060405234610284576080816148ba803803809161001f828561033a565b8339810103126102845761003281610373565b9061003f60208201610373565b610057606061005060408501610373565b9301610373565b9233156103245760008054336001600160a01b0319821681178355604051949290916001600160a01b0316907f8be0079c531659141344cd1fd0a4f28419497f9722a3daafe3b4186f6b6457e09080a3601e60c0526001600160a01b0382169283156102e257506001600160a01b0316801561029d576000946020946044936080528260a05260018060a01b031660018060a01b0319600254161760025560018060a01b031660018060a01b03196012541617601255604051948593849263095ea7b360e01b84526004840152811960248401525af1801561029157610258575b50670deb5f2f95b78000600555670df607ab840b0000600655670e00b027725e8000600755670e16011f4f058000600855604051806005906000905b60048210610242577f91878134c373fd304a6480d969bf581cca2e4044be07a4d5ab42425ffcfc55d8608085a1604051614532908161038882396080518181816103180152818161104e0152818161114701528181611cf0015281816120f8015281816123cb015281816133a101528181613a9701528181613d9701528181613e660152614033015260a051818181610dc90152818161121001528181611bc601528181611d53015281816134bf015261409b015260c05181818161082a0152818161149d01526120770152f35b6001602081928554815201930191019091610174565b6020813d602011610289575b816102716020938361033a565b8101031261028457518015158114610138575b600080fd5b3d9150610264565b6040513d6000823e3d90fd5b60405162461bcd60e51b815260206004820152601660248201527f496e76616c696420726f757465722061646472657373000000000000000000006044820152606490fd5b62461bcd60e51b815260206004820152601460248201527f496e76616c6964205553445420616464726573730000000000000000000000006044820152606490fd5b631e4fbdf760e01b600052600060045260246000fd5b601f909101601f19168101906001600160401b0382119082101761035d57604052565b634e487b7160e01b600052604160045260246000fd5b51906001600160a01b03821682036102845756fe6080604052600436101561001257600080fd5b60003560e01c8063069a8f2d146127c057806306fdde031461277b57806308a2ab4b1461271557806308adb4be14612690578063095ea7b3146126315780631451952b146125ee57806318160ddd146125d0578063195112671461176757806323b872dd146125ae57806324acbd691461257457806327e235e3146109bc5780632e17de7814611f9057806330ead46914611f4e5780633114740e14611e7a578063313ce56714611e5e57806331516ab814611c3157806332a00d8e14611bf557806332fe7b2614611bb057806333060d9014611b765780633b0f0f2f14611b3457806341edf84814611767578063451309ed146119185780634690484014611b0b578063488eaf3d14611ae2578063532193231461194f57806359f0c0e71461191d5780635d80ca32146119185780635d948c35146118be5780635e61da08146118715780636386c1c7146117c557806370a0823114610ab5578063715018a61461176c57806372fbab3b146117675780637c61655f1461168e5780638b9909b4146110ad5780638da5cb5b1461108457806394f3b11814610ff157806395d89b4114610fb257806396d391bf14610f86578063a2daf14e14610f27578063a681093d14610f0b578063a7f189b514610ee2578063a9059cbb14610ec3578063b108b4cb1461052d578063b16da00f14610e9e578063b7be124e14610d78578063b9cc477b14610c8e578063bfbc304814610b7a578063c96679fe14610b40578063ca74de9b14610ad8578063d9dd0fdf14610ab5578063dd418ae214610a89578063dd62ed3e14610a5b578063e4fae6da14610a21578063e566d74d146109f6578063e68fc0ee146109bc578063e74b981b1461090b578063ea73a841146106ea578063eba73d981461065f578063eec76e0414610621578063f2fde38b14610598578063f34642a014610567578063f4fdf7321461052d578063f5a94215146104e8578063f6d5660f146104bf5763fff6cae9146102f257600080fd5b3461041f57600036600319011261041f576040516370a0823160e01b81523060048201527f00000000000000000000000000000000000000000000000000000000000000006001600160a01b0316602082602481845afa80156104135760009061048c575b600154604051631abfa62960e01b81529350602090849060049082906001600160a01b03165afa92831561041357600093610451575b5060405163a9059cbb60e01b81526001600160a01b0384166004820152602481019190915290602090829081600081604481015b03925af1801561041357610424575b506001600160a01b0316803b1561041f576000809160046040518094819363fff6cae960e01b83525af180156104135761040657005b600061041191612881565b005b6040513d6000823e3d90fd5b600080fd5b6104459060203d60201161044a575b61043d8183612881565b810190612b03565b6103d0565b503d610433565b602091935060009261047b6103c192843d8611610485575b6104738183612881565b810190612baa565b949250925061038d565b503d610469565b506020823d6020116104b7575b816104a660209383612881565b8101031261041f5760049151610357565b3d9150610499565b3461041f57600036600319011261041f576002546040516001600160a01b039091168152602090f35b3461041f57604036600319011261041f5761052961051561050761280c565b61050f612838565b90612fd5565b6040519182916020835260208301906129e1565b0390f35b3461041f57602036600319011261041f576001600160a01b0361054e61280c565b16600052600c6020526020604060002054604051908152f35b3461041f57604036600319011261041f57602061058e61058561280c565b60243590612f3f565b6040519015158152f35b3461041f57602036600319011261041f576105b161280c565b6105b96132ee565b6001600160a01b0316801561060b57600080546001600160a01b03198116831782556001600160a01b0316907f8be0079c531659141344cd1fd0a4f28419497f9722a3daafe3b4186f6b6457e09080a3005b631e4fbdf760e01b600052600060045260246000fd5b3461041f57602036600319011261041f57602061058e61063f61280c565b6001600160a01b039081166000908152600d602052604090205416151590565b3461041f57604036600319011261041f57600060206106c261067f61280c565b6106876132ee565b60015460405163a9059cbb60e01b81526001600160a01b03928316600482015260248035908201529485939190921691839182906044820190565b03925af18015610413576106d257005b6104119060203d60201161044a5761043d8183612881565b3461041f57602036600319011261041f5761070361280c565b336000908152600d60205260409020546001600160a01b03166108fa576002546001600160a01b0316903382146108e2576001600160a01b038116156108f3575b6001600160a01b038116913383146108e25782141590816108c6575b506108b55733600052600d6020526040600020816bffffffffffffffffffffffff60a01b82541617905580600052600e60205260406000208054600160401b81101561089f576107b591600182018155612945565b81549060031b9033821b9160018060a01b03901b191617905533600052600f6020526040600020600160ff1982541617905533600052600460205260406000205480610825575b50337fcb282389824b9ba09f76f40ee522be8104006b13f0a7a8d78c2198a1cd1da468600080a3005b61084f7f000000000000000000000000000000000000000000000000000000000000000033612fd5565b60005b815160ff8216908110156108955760ff916001916001600160a01b03906108799086612d69565b5116600052600c60205260406000208581540190550116610852565b50505050816107fc565b634e487b7160e01b600052604160045260246000fd5b630c22084560e31b60005260046000fd5b670de0b6b3a764000091506108da90612e79565b111582610760565b63dc33424560e01b60005260046000fd5b5080610744565b63682a906560e01b60005260046000fd5b3461041f57602036600319011261041f5761092461280c565b61092c6132ee565b6001600160a01b0316801561097f57601280546001600160a01b0319811683179091556001600160a01b03167faaebcf1bfa00580e41d966056b48521fa9f202645c86d4ddf28113e617c1b1d3600080a3005b60405162461bcd60e51b8152602060048201526015602482015274125b9d985b1a5908199959481c9958da5c1a595b9d605a1b6044820152606490fd5b3461041f57602036600319011261041f576001600160a01b036109dd61280c565b1660005260046020526020604060002054604051908152f35b3461041f57602036600319011261041f576020610a19610a1461280c565b612eef565b604051908152f35b3461041f57602036600319011261041f576001600160a01b03610a4261280c565b1660005260116020526020604060002054604051908152f35b3461041f57604036600319011261041f57610a7461280c565b50610a7d612822565b50602060405160008152f35b3461041f57602036600319011261041f57600435600481101561041f5760209060050154604051908152f35b3461041f57602036600319011261041f576020610a19610ad361280c565b612e79565b3461041f57600036600319011261041f576080604051610af88282612881565b8136823760018152601e6020820152605a604082015260b46060820152604051906000825b60048210610b2a57505050f35b6020806001928551815201930191019091610b1d565b3461041f57602036600319011261041f576001600160a01b03610b6161280c565b16600052600b6020526020604060002054604051908152f35b3461041f57602036600319011261041f57610b9361280c565b336000908152601060205260409020546001600160a01b03166108fa576001600160a01b03168015610c5057338114610c0b5733600081815260106020526040812080546001600160a01b031916841790557f49143b55f926e514375927d6abffe4bc105a5832b9ae50fc457ab36620cacaa99080a3005b60405162461bcd60e51b815260206004820152601960248201527f43616e6e6f74207365742073656c6620617320667269656e64000000000000006044820152606490fd5b60405162461bcd60e51b8152602060048201526016602482015275496e76616c696420667269656e64206164647265737360501b6044820152606490fd5b3461041f57604036600319011261041f57610ca761280c565b602435906000610120604051610cbc81612848565b8281528260208201528260408201528260608201528260808201528260a08201528260c08201528260e082015282610100820152015260018060a01b031690816000526011602052604060002054811015610d4357610d2e610d34916101409360005260116020526040600020612e5d565b50612b33565b610d416040518092612978565bf35b60405162461bcd60e51b815260206004820152600d60248201526c092dcecc2d8d2c840d2dcc8caf609b1b6044820152606490fd5b3461041f57602036600319011261041f57610d9161280c565b610d996132ee565b6001600160a01b03168015610e5957600180546001600160a01b0319168217905560405163095ea7b360e01b81527f00000000000000000000000000000000000000000000000000000000000000006001600160a01b0316600482015260001960248201526020816044816000865af1801561041357610e3c575b507f685a736322f4a782f69eb455f2394d6ead581625259a45e38d78168683db6700600080a2005b610e549060203d60201161044a5761043d8183612881565b610e14565b60405162461bcd60e51b815260206004820152601a60248201527f53594920616464726573732063616e6e6f74206265207a65726f0000000000006044820152606490fd5b3461041f57600036600319011261041f57602060405169021e19e0c9bab24000008152f35b3461041f57604036600319011261041f57610edc61280c565b50612a7e565b3461041f57600036600319011261041f576001546040516001600160a01b039091168152602090f35b3461041f57600036600319011261041f57602060405160648152f35b3461041f57600036600319011261041f5760e0604051610f478282612881565b8136823760058152600a6020820152600f60408201526014606082015260196080820152601e60a0820152602360c0820152610d4160405180926128ec565b3461041f57600036600319011261041f5760606040516105dc81526107d0602082015260c86040820152f35b3461041f57600036600319011261041f57610529604051610fd4604082612881565b60048152637353594960e01b6020820152604051918291826128a3565b3461041f57604036600319011261041f57611048602061100f61280c565b6110176132ee565b60405163a9059cbb60e01b81526001600160a01b039091166004820152602480359082015291829081906044820190565b038160007f00000000000000000000000000000000000000000000000000000000000000006001600160a01b03165af18015610413576106d257005b3461041f57600036600319011261041f576000546040516001600160a01b039091168152602090f35b3461041f57604036600319011261041f576004356001600160a01b0381169081810361041f576110db612838565b33320361167d576110ea612d7d565b831161166c5760ff8116906003821161165b5733600052600460205269021e19e0c9bab240000061112085604060002054613f7d565b1161164b576040516323b872dd60e01b8152336004820152306024820152604481018590527f00000000000000000000000000000000000000000000000000000000000000006001600160a01b0316906020816064816000865af180156104135761162e575b5060246060946040519061119a8783612881565b60028252601f198701366020840137836111b383612d4c565b526001546020906001600160a01b0316806111cd85612d59565b526040516370a0823160e01b815230600482015294859182905afa928315610413576000936115fa575b5060011c60016001609f1b03169261120e84613f8a565b7f00000000000000000000000000000000000000000000000000000000000000006001600160a01b03169290833b1561041f57604051635c11d79560e01b815291600091839182916112699142913091908c60048701613317565b038183875af18015610413576115e9575b506001546040516370a0823160e01b8152306004820152936001600160a01b039091169290602085602481875afa80156104135789956000916115ac575b50916112d46112cd6000936101049695612ac3565b978c612ac3565b96604051978896879562e8e33760e81b875260048701526024860152604485015260648401528160848401528160a48401528160c48401524260e48401525af1908115610413578491611583575b5050336000908152600d60205260409020546001600160a01b031615611572576040519161134f83612865565b4264ffffffffff168084526003546001600160a01b031660208501908152600954919491600160401b81101561089f5780600161138f9201600955612914565b91909161155c579151815492516001600160c81b031990931664ffffffffff919091161760289290921b65010000000000600160c81b0316919091179055604051926080840184811067ffffffffffffffff82111761089f576040526020840191604085019086860192865287845260008252825233600052600a602052604060002094855495600160401b87101561089f578661143291600182018155612945565b94909461155c579051845491516001600160c81b031990921664ffffffffff919091161760289190911b65010000000000600160c81b0316178355518254915161ffff60c81b1990921690151560c81b60ff60c81b161760d09190911b60ff60d01b161790556114c27f000000000000000000000000000000000000000000000000000000000000000033612fd5565b9160005b835160ff8216908110156115095760ff916001916001600160a01b03906114ed9088612d69565b5116600052600c602052604060002088815401905501166114c6565b86838761151f8761151a85336143a6565b612c96565b9160405193845242602085015260408401528201527f9cfd25589d1eb8ad71e342a86a8524e83522e3936c0803048c08f6d9ad974f4060803392a2005b634e487b7160e01b600052600060045260246000fd5b637b7140f560e11b60005260046000fd5b813d83116115a5575b6115968183612881565b8101031261041f578285611322565b503d61158c565b9193929550506020813d6020116115e1575b816115cb60209383612881565b8101031261041f575188949192906112d46112b8565b3d91506115be565b60006115f491612881565b8861127a565b9092506020813d602011611626575b8161161660209383612881565b8101031261041f575191886111f7565b3d9150611609565b6116469060203d60201161044a5761043d8183612881565b611186565b620da58960e41b60005260046000fd5b63cf468e4360e01b60005260046000fd5b63ba1e17c160e01b60005260046000fd5b6303cc142b60e41b60005260046000fd5b3461041f57602036600319011261041f576116a761280c565b60009060018060a01b03811690818352600c6020526040832054918352600e60205260ff6116d960408520549261425d565b1692600784101561175c57506116ed61318f565b836006039060ff82116117465760ff611707921690612a6d565b5151606483029383850460641484151715611746576117288260a096612ae3565b925b6040519485526020850152604084015260608301526080820152f35b634e487b7160e01b600052601160045260246000fd5b60a09360649261172a565b61295d565b3461041f57600036600319011261041f576117856132ee565b600080546001600160a01b0319811682556001600160a01b03167f8be0079c531659141344cd1fd0a4f28419497f9722a3daafe3b4186f6b6457e08280a3005b3461041f57602036600319011261041f5760a06117e061280c565b6001600160801b036117f182612e79565b1690600180841b0381169081600052600c6020526001600160801b03604060002054169180600052600d602052600180861b036040600020541690600052600f602052680ad78ebc5ac620000061185060ff6040600020541693612e79565b10159260405194855260208501526040840152151560608301526080820152f35b3461041f57602036600319011261041f5760043560095481101561041f5761189a604091612914565b5054815164ffffffffff8216815260289190911c6001600160a01b03166020820152f35b3461041f57602036600319011261041f5760206118d961280c565b6001600160a01b038116600090815260048352604081205490916118fc90612e79565b81811161190e575b5050604051908152f35b0390508280611904565b612a1e565b3461041f57602036600319011261041f576020680ad78ebc5ac6200000611945610ad361280c565b1015604051908152f35b3461041f57602036600319011261041f5761196861280c565b6001600160a01b0381166000818152600a6020526040902054909161198c82612d1a565b9161199681612b1b565b906119a46040519283612881565b8082526119b081612b1b565b602083019590601f19013687376119c682612d1a565b9360005b838110611a32575050505060206119ec60405194606086526060860190612a39565b9184830382860152519182815201939060005b818110611a1a57848061052988878382036040850152612a39565b825115158652602095860195909201916001016119ff565b8080611a406001938a612d69565b52611a4b8184612f3f565b611a558288612d69565b901515905283600052600a602052611a71816040600020612945565b505460ff8160c81c1615600014611acf57611aa260ff611a9864ffffffffff841642612ac3565b9260d01c16612c96565b90818110611ac157505060005b611ab98289612d69565b525b016119ca565b611aca91612ac3565b611aaf565b506000611adc8289612d69565b52611abb565b3461041f57602036600319011261041f5760043560ff8116810361041f57610a19602091612c96565b3461041f57600036600319011261041f576012546040516001600160a01b039091168152602090f35b3461041f57602036600319011261041f576001600160a01b03611b5561280c565b16600052600d602052602060018060a01b0360406000205416604051908152f35b3461041f57602036600319011261041f576001600160a01b03611b9761280c565b16600052600a6020526020604060002054604051908152f35b3461041f57600036600319011261041f576040517f00000000000000000000000000000000000000000000000000000000000000006001600160a01b03168152602090f35b3461041f57604036600319011261041f57610529610515611c1461280c565b60243560ff8111611c29575b60ff1690612fd5565b5060ff611c20565b3461041f57602036600319011261041f5760043560011c6004602060018060a01b036001541660405192838092631abfa62960e01b82525afa90811561041357600091611e3f575b50604051630240bc6b60e21b81526001600160a01b03919091169190606081600481865afa90811561041357600090600092611e0c575b506004602060009560405192838092630dfe168160e01b82525afa908115611e0157906020939291611d4f9691611de4575b506001600160a01b039081167f000000000000000000000000000000000000000000000000000000000000000090911603611dde575b604051630153543560e21b8152600481018590526001600160701b0391821660248201529116604482015292839081906064820190565b03817f00000000000000000000000000000000000000000000000000000000000000006001600160a01b03165afa801561041357600090611dab575b60609250611d9882613f8a565b9060405192835260208301526040820152f35b506020823d602011611dd6575b81611dc560209383612881565b8101031261041f5760609151611d8b565b3d9150611db8565b90611d18565b611dfb9150843d8611610485576104738183612881565b86611ce2565b6040513d87823e3d90fd5b9050611e30915060603d606011611e38575b611e288183612881565b810190612bdd565b509084611cb0565b503d611e1e565b611e58915060203d602011610485576104738183612881565b82611c79565b3461041f57600036600319011261041f57602060405160128152f35b3461041f57602036600319011261041f576001600160a01b03611e9b61280c565b1660005260116020526040600020805490611eb582612b1b565b91611ec36040519384612881565b80835260208301809260005260206000206000915b838310611f305784866040519182916020830190602084525180915260408301919060005b818110611f0b575050500390f35b91935091602061014082611f226001948851612978565b019401910191849392611efd565b600a6020600192611f4085612b33565b815201920192019190611ed8565b3461041f57602036600319011261041f576001600160a01b03611f6f61280c565b166000526010602052602060018060a01b0360406000205416604051908152f35b3461041f57602036600319011261041f5733320361167d5733600052600a602052611fc16004356040600020612945565b508054611fd564ffffffffff821642612ac3565b611fe460ff8360d01c16612c96565b116125635760ff8160c81c1661255257611ffd826130b7565b60ff60c81b198216600160c81b17909255612025602882901c6001600160a01b0316336142f2565b336000908152600b602052604090208054600101905561204482613350565b6000602884901c6001600160a01b031683111561254c5750612073602884901c6001600160a01b031683612ac3565b905b7f0000000000000000000000000000000000000000000000000000000000000000946120a18633612fd5565b336000908152601060205260409020546001600160a01b031680156125125760405163a9059cbb60e01b81526001600160a01b03909116600482015260646005860204602482015260208180604481015b038160007f00000000000000000000000000000000000000000000000000000000000000006001600160a01b03165af18015610413576121449261213d9287926124f3575b506138a8565b9633612fd5565b9360005b855160ff8216908110156121955760ff916001916001600160a01b039061216f908a612d69565b5116600052600c6020526040600020828060a01b038a60281c1681540390550116612148565b50508684876121b3836121ae6064600586020487612ac3565b612ac3565b916064830283810460641484151715611746576127109004801515806124df575b61247b575b50604051936121e785612848565b64ffffffffff42168552600435602086015260018060a01b038360281c1660408601528660608601528560808601528760a08601526064600583020460c08601528060e0860152836101008601528161012086015233600052601160205260406000208054600160401b81101561089f5761226791600182018155612e5d565b96909661155c576123c59660096101208864ffffffffff8060209b51161664ffffffffff1985541617845589810151600185015560408101516002850155606081015160038501556080810151600485015560a0810151600585015560c0810151600685015560e081015160078501556101008101516008850155015191015560405188815264ffffffffff42168782015260043560408201527f48711929c842404f1d698f9525c36a831e8224d0bac22977e91904b3fe9f656460603392a26040519360018060a01b039060281c1684528786850152604084015287606084015260646005830204608084015260a08301528260c083015260e082015264ffffffffff4216610100820152600435907fab399e9275f69c267fe8b281747707bbd6b5b7dc2afb59ac345ae3e7ee24338d6101203392a360405163a9059cbb60e01b8152336004820152602481019190915291829081906044820190565b038160007f00000000000000000000000000000000000000000000000000000000000000006001600160a01b03165af180156104135761245e575b506001546001600160a01b031691823b1561041f576000926024849260405195869384926337470d6f60e21b845260048401525af19182156104135760209261244d575b50604051908152f35b600061245891612881565b82612444565b6124769060203d60201161044a5761043d8183612881565b612400565b61248481613350565b60125460408051600435815260208101939093528201939093524260608201526001600160a01b03909216913391507f91a9f62031be84840eb01532b7f49aac5edbd1cf88134c55fecb102753216b2c90608090a3876121d9565b506012546001600160a01b031615156121d4565b61250b9060203d60201161044a5761043d8183612881565b508a612137565b5060025460405163a9059cbb60e01b81526001600160a01b03909116600482015260646005860204602482015260208180604481016120f2565b90612075565b636507689f60e01b60005260046000fd5b63508bb1f560e01b60005260046000fd5b3461041f57602036600319011261041f576001600160a01b0361259561280c565b16600052600e6020526020604060002054604051908152f35b3461041f57606036600319011261041f576125c761280c565b50610edc612822565b3461041f57600036600319011261041f576020600354604051908152f35b3461041f57602036600319011261041f5761260761280c565b61260f6132ee565b600280546001600160a01b0319166001600160a01b0392909216919091179055005b3461041f57604036600319011261041f5761264a61280c565b5060405162461bcd60e51b815260206004820152601760248201527f417070726f76616c73206e6f7420737570706f727465640000000000000000006044820152606490fd5b3461041f57604036600319011261041f576126a961280c565b6001600160a01b03166000908152600a602052604090208054602435919082101561041f576080916126da91612945565b505460ff6040519164ffffffffff8116835260018060a01b038160281c166020840152818160c81c161515604084015260d01c166060820152f35b3461041f57600036600319011261041f5760405160e06127358183612881565b8036833761274161318f565b9160005b6007811061275b5750610d4160405180926128ec565b8061276860019286612a6d565b51516127748285612a6d565b5201612745565b3461041f57600036600319011261041f5761052960405161279d604082612881565b600a8152695374616b65642053594960b01b6020820152604051918291826128a3565b3461041f57604036600319011261041f576020610a196128066127e161280c565b6127e9612838565b6001600160a01b039091166000908152600a855260409020612945565b506130b7565b600435906001600160a01b038216820361041f57565b602435906001600160a01b038216820361041f57565b6024359060ff8216820361041f57565b610140810190811067ffffffffffffffff82111761089f57604052565b6040810190811067ffffffffffffffff82111761089f57604052565b90601f8019910116810190811067ffffffffffffffff82111761089f57604052565b91909160208152825180602083015260005b8181106128d6575060409293506000838284010152601f8019910116010190565b80602080928701015160408286010152016128b5565b906000905b600782106128fe57505050565b60208060019285518152019301910190916128f1565b60095481101561292f57600960005260206000200190600090565b634e487b7160e01b600052603260045260246000fd5b805482101561292f5760005260206000200190600090565b3461041f57600036600319011261041f576020610a19612c13565b610120809164ffffffffff81511684526020810151602085015260408101516040850152606081015160608501526080810151608085015260a081015160a085015260c081015160c085015260e081015160e08501526101008101516101008501520151910152565b906020808351928381520192019060005b8181106129ff5750505090565b82516001600160a01b03168452602093840193909201916001016129f2565b3461041f57600036600319011261041f576020610a19612d7d565b906020808351928381520192019060005b818110612a575750505090565b8251845260209384019390920191600101612a4a565b90600781101561292f5760051b0190565b60405162461bcd60e51b815260206004820152601760248201527f5472616e7366657273206e6f7420737570706f727465640000000000000000006044820152606490fd5b9190820391821161174657565b8181029291811591840414171561174657565b8115612aed570490565b634e487b7160e01b600052601260045260246000fd5b9081602091031261041f5751801515810361041f5790565b67ffffffffffffffff811161089f5760051b60200190565b90604051612b4081612848565b6101206009829464ffffffffff815416845260018101546020850152600281015460408501526003810154606085015260048101546080850152600581015460a0850152600681015460c0850152600781015460e085015260088101546101008501520154910152565b9081602091031261041f57516001600160a01b038116810361041f5790565b51906001600160701b038216820361041f57565b9081606091031261041f57612bf181612bc9565b916040612c0060208401612bc9565b92015163ffffffff8116810361041f5790565b600954908115612c9057603b19420191428311611746576003549081906000198101908111611746575b612c4681612914565b505464ffffffffff8116861115612c67575050612c64929350612ac3565b90565b60281c6001600160a01b031692508015612c845760001901612c3d565b50612c64929350612ac3565b60009150565b9060ff6000921660038111612cdf578015612cd85760018114612cd15760028114612cca57600314612cc457565b60b49150565b50605a9150565b50601e9150565b5060019150565b60405162461bcd60e51b8152602060048201526013602482015272092dcecc2d8d2c840e6e8c2d6ca40d2dcc8caf606b1b6044820152606490fd5b90612d2482612b1b565b612d316040519182612881565b8281528092612d42601f1991612b1b565b0190602036910137565b80511561292f5760200190565b80516001101561292f5760400190565b805182101561292f5760209160051b010190565b612d85612c13565b60015460405163d123de3160e01b815290602090829060049082906001600160a01b03165afa90811561041357600091612e05575b506001600160701b03606491160490818111600014612dda575050600090565b612de391612ac3565b683635c9adc5dea00000811015612df75790565b50683635c9adc5dea0000090565b90506020813d602011612e42575b81612e2060209383612881565b8101031261041f576001600160701b03612e3b606492612bc9565b9150612dba565b3d9150612e13565b60ff6000199116019060ff821161174657565b805482101561292f57600052600a602060002091020190600090565b6001600160a01b03166000908152600a60205260408120805491929180612e9e575050565b909290600019810190811161174657905b612eb98285612945565b5060ff815460c81c1615612edf575b50908015612eda576000190190612eaf565b509150565b612ee8906130b7565b0138612ec8565b6001600160a01b031660009081526004602052604090205469021e19e0c9bab2400000811015612f395769021e19e0c9bab24000000369021e19e0c9bab240000081116117465790565b50600090565b6001600160a01b03166000818152600a602052604090205490919015612fbd5781600052600a602052604060002054811015612fbd57612f8b91600052600a6020526040600020612945565b505460ff8160c81c16612f3957612fb864ffffffffff612fb060ff8460d01c16612c96565b921642612ac3565b101590565b5050600090565b60ff1660ff81146117465760010190565b9060ff1690612fe382612d1a565b906000906000905b8460ff831610806130a5575b15613051576001600160a01b039081166000908152600d602052604090205416908161302d575b61302790612fc4565b90612feb565b91613049818361304360ff613027951688612d69565b52612fc4565b92905061301e565b505060ff9192501661306281612d1a565b9160005b60ff81168381101561309e5760ff916001916130966001600160a01b0361308d8388612d69565b51169188612d69565b520116613066565b5050505090565b506001600160a01b0381161515612ff7565b5460018060a01b038160281c1660ff64ffffffffff80841681421603169260d01c169164ffffffffff6130e984612c96565b16808210156131875750915b64ffffffffff8316908161310a575050905090565b600481101561292f5760050154905080600184161561317257647fffffffff905b9360011c1690815b61314357505090612c64916143fc565b8061314d916143fc565b9060018116613161575b60011c9081613133565b928161316c916143fc565b92613157565b50647fffffffff670de0b6b3a764000061312b565b9050916130f5565b60e060405161319e8282612881565b60005b8281106132cb57505060405190810181811067ffffffffffffffff82111761089f576040526040516131d281612865565b6a0422ca8b0a00a42500000081526023602082015281526040516131f581612865565b6a02116545850052128000008152601e6020820152602082015260405161321b81612865565b69d3c21bcecceda1000000815260196020820152604082015260405161324081612865565b6969e10de76676d0800000815260146020820152606082015260405161326581612865565b692a5a058fc295ed0000008152600f6020820152608082015260405161328a81612865565b690a968163f0a57b4000008152600a602082015260a08201526040516132af81612865565b69021e19e0c9bab240000081526005602082015260c082015290565b6020906040516132da81612865565b6000815260008382015281840152016131a1565b6000546001600160a01b0316330361330257565b63118cdaa760e01b6000523360045260246000fd5b919260809361333c92979695978452602084015260a0604084015260a08301906129e1565b6001600160a01b0390951660608201520152565b6001546040516370a0823160e01b81523060048201529291906001600160a01b0316602084602481845afa93841561041357600094613842575b506040516370a0823160e01b8152306004820152917f00000000000000000000000000000000000000000000000000000000000000006001600160a01b03169190602084602481865afa9384156104135760009461380e575b506040519160606133f48185612881565b60028452601f1981013660208601378161340d85612d4c565b528461341885612d59565b52604051631abfa62960e01b8152602081600481865afa908115610413576000916137ef575b50604051630240bc6b60e21b815292906001600160a01b03168284600481845afa6000948594826137c7575b505061369c57505050508560011c905b811580613693575b613688575b8660011c80831161367f575b50600091926134ba6040519485938493634401edf760e11b85524292309260048701613317565b0381837f00000000000000000000000000000000000000000000000000000000000000006001600160a01b03165af1908115610413576000916135e1575b50506001546040516370a0823160e01b81523060048201529190602090839060249082906001600160a01b03165afa918215610413576000926135ac575b506020602491604051928380926370a0823160e01b82523060048301525afa90811561041357600091613578575b50612c649261357291612ac3565b93612ac3565b90506020813d6020116135a4575b8161359360209383612881565b8101031261041f5751612c64613564565b3d9150613586565b9091506020813d6020116135d9575b816135c860209383612881565b8101031261041f5751906020613536565b3d91506135bb565b3d8083833e6135f08183612881565b8101906020818303126136775780519067ffffffffffffffff821161367b570181601f820112156136775780519061362782612b1b565b936136356040519586612881565b82855260208086019360051b8301019384116136745750602001905b8282106136645750839291506134f89050565b8151815260209182019101613651565b80fd5b8280fd5b8380fd5b91506000613493565b600a87049150613487565b50861515613482565b602060049160405192838092630dfe168160e01b82525afa908115610413576000916137a8575b506001600160a01b031603613799576001600160701b03905b169081151580613787575b1561377b576001600160701b0381169060011c6d7fffffffffffffffffffffffffff168084111561377357915b81831015613766578261372d6137339261373995612ad0565b92612ac3565b90612ae3565b60968102908082046096149015171561174657606490048681101561375f575b9061347a565b5085613759565b5050508560021c9061347a565b508291613714565b50508560011c9061347a565b506001600160701b03811615156136e7565b906001600160701b03906136dc565b6137c1915060203d602011610485576104738183612881565b386136c3565b80919296506137e3939550903d10611e3857611e288183612881565b5092909293388061346a565b613808915060203d602011610485576104738183612881565b3861343e565b9093506020813d60201161383a575b8161382a60209383612881565b8101031261041f575192386133e3565b3d915061381d565b90936020823d60201161386e575b8161385d60209383612881565b81010312613674575051923861338a565b3d9150613850565b906000905b6007821061388857505050565b82516001600160a01b03168152602092830192600192909201910161387b565b80516064602384020493929015613e2d578151926138c584612b1b565b936138d36040519586612881565b8085526138e2601f1991612b1b565b0136602086013760005b835181101561392a576001906139146001600160a01b0361390d8388612d69565b511661425d565b60ff6139208389612d69565b91169052016138ec565b50909360009060e095604051926139418885612881565b8736853760405197613953818a612881565b36893795600095865b60ff81168a600782101561398e5791896139868360ff95836139806001978e612a6d565b52612a6d565b52011661395c565b5050509296919590939461010094604051956139aa8188612881565b3687378291825b8651841015613cc85760ff6139c68585612d69565b51168015158080613cb6575b80613c8f575b15613bc457508c6139e882614494565b92600081851115613bbe57506139fe8185612ac3565b905b8d82613a23575b50505050906001613a1981938b6143eb565b52935b01926139b1565b613a2f83606492612ad0565b04928b84613a41575b5092508d613a07565b90602085613a91969c93613a5f8d60018060a09d9c9d1b0392612d69565b5160405163a9059cbb60e01b815291166001600160a01b03166004820152602481019190915295869081906044820190565b038160007f00000000000000000000000000000000000000000000000000000000000000006001600160a01b03165af1908115610413578f8b8f9e8e613ae0918c9a8297613ba2575b50613f7d565b9e6001600160a01b0391613af391612d69565b511690613aff88612e4a565b60ff16613b0b91612a6d565b52613b1586612e4a565b60ff16613b2191612a6d565b52613b2b84612e4a565b600160ff9182161b1617986001600160a01b03613b488a8e612d69565b51169285604051938493613b7393859094939260609260808301968352602083015260408201520152565b037f01a734153c0601a74f1dc5664552f5332bdbff9d65f915aa93203670b315f2bc91a3903880808f8b613a38565b613bb99060203d811161044a5761043d8183612881565b613ada565b90613a00565b9081600193969290613c7d575b80613c52575b613be2575b50613a1c565b828060a01b03613bf2838b612d69565b51167f7a3d04064bf52fd85b24e9b77ff67ea0509733b9d322a1e5db9015b88a5777f0606060405160208152601c60208201527f494e53554646494349454e545f50524541434845525f535441545553000000006040820152a338613bdc565b50680ad78ebc5ac6200000613c77848060a01b03613c70858d612d69565b5116612e79565b10613bd7565b50613c88818b6143eb565b5115613bd1565b50680ad78ebc5ac6200000613caf6001600160a01b03613c70898d612d69565b10156139d8565b50613cc1828b6143eb565b51156139d2565b5099945050509250939293600090868110613d46575b60ff92613d307f20c7869a18417805c9820e55e867d39f97ad72dac389ee573ebe84a9c4e0a76097610260979694613d3b946040519889528b60208a0152604089015260608801526080870190613876565b6101608501906128ec565b16610240820152a190565b9193929050613d91613d588388612ac3565b60025460405163a9059cbb60e01b81526001600160a01b0390911660048201526024810182905290959091602090839081906044820190565b038160007f00000000000000000000000000000000000000000000000000000000000000006001600160a01b03165af18015610413577f20c7869a18417805c9820e55e867d39f97ad72dac389ee573ebe84a9c4e0a760976102609760ff96613d3b95613d3094613e0e575b509450949697509750509250613cde565b613e269060203d60201161044a5761043d8183612881565b5038613dfd565b60025460405163a9059cbb60e01b81526001600160a01b03909116600482015260248101859052909291506020818060448101038160007f00000000000000000000000000000000000000000000000000000000000000006001600160a01b03165af1801561041357613f60575b5060405160e091613eac8383612881565b8236833760405192613ebe8185612881565b36843760005b60ff81166007811015613ef65760ff916000613eee8382613ee76001968a612a6d565b5288612a6d565b520116613ec4565b50509392613f547f20c7869a18417805c9820e55e867d39f97ad72dac389ee573ebe84a9c4e0a76093613f4961026094604051948552876020860152600060408601528760608601526080850190613876565b6101608301906128ec565b6000610240820152a190565b613f789060203d60201161044a5761043d8183612881565b613e9b565b9190820180921161174657565b600154604051631abfa62960e01b815291929190602090829060049082906001600160a01b03165afa9081156104135760009161423e575b50604051630240bc6b60e21b81526001600160a01b039190911692606082600481875afa91821561041357600090600093614219575b506004602060009660405192838092630dfe168160e01b82525afa90811561420e576140979596916141ef575b506001600160a01b039081167f0000000000000000000000000000000000000000000000000000000000000000909116036141e757602090925b604051630153543560e21b8152600481018490526001600160701b038086166024830152909116604482015293849081906064820190565b03817f00000000000000000000000000000000000000000000000000000000000000006001600160a01b03165afa928315610413576000936141b3575b506127108102908082046127101490151715611746576001600160701b036140fd921690612ae3565b60009060c881116141505750506105dc5b6125e48202918083046125e4149015171561174657612710039061271082116117465761271091826141409204612ad0565b0490811561414a57565b60019150565b6105dc8102908082046105dc149015171561419f5760c890046105dc0190816105dc1161418b57506107d081111561410e57506107d061410e565b634e487b7160e01b81526011600452602490fd5b634e487b7160e01b82526011600452602482fd5b90926020823d6020116141df575b816141ce60209383612881565b8101031261367457505191386140d4565b3d91506141c1565b60209061405f565b614208915060203d602011610485576104738183612881565b38614025565b6040513d88823e3d90fd5b905061423591925060603d606011611e3857611e288183612881565b50919038613ff8565b614257915060203d602011610485576104738183612881565b38613fc2565b6002546001600160a01b0382811692911682149081156142d6575b50612f3957600052600c60205260406000205461429361318f565b9060005b600781106142a757505050600090565b6142b18184612a6d565b51518210156142c257600101614297565b915050600703600781116117465760ff1690565b680ad78ebc5ac620000091506142eb90612e79565b1038614278565b6000916001600160a01b0390911690811561435b5760207fddf252ad1be2c89b69c2b068fc378daa952ba7f163c4a11628f55a4df523b3ef918385526004825260408520614341828254612ac3565b905561434f81600354612ac3565b600355604051908152a3565b82915060207fddf252ad1be2c89b69c2b068fc378daa952ba7f163c4a11628f55a4df523b3ef918380526004825260408420614398828254613f7d565b905561434f81600354613f7d565b7fddf252ad1be2c89b69c2b068fc378daa952ba7f163c4a11628f55a4df523b3ef602060009260018060a01b0316938484526004825260408420614398828254613f7d565b90600881101561292f5760051b0190565b9091906000198382098382029182808310920391808303921461448357670de0b6b3a764000082101561446a577faccb18165bd6fe31ae1cf318dc5b51eee0e1ba569b88cd74c1773b91fac106699394670de0b6b3a7640000910990828211900360ee1b910360121c170290565b8490635173648d60e01b60005260045260245260446000fd5b5050670de0b6b3a764000090049150565b60ff16600181146144f657600281146144f057600381146144ea57600481146144e457600581146144de57600681146144d8576007146144d357600090565b602390565b50601e90565b50601990565b50601490565b50600f90565b50600a90565b5060059056fea2646970667358221220fe32fb514775b068db6be154e05fd0cccf4bb437a1026082469c01e092804ddf64736f6c634300081c0033",
  "linkReferences": {},
  "deployedLinkReferences": {}
}