{
  "_format": "hh-sol-artifact-1",
  "contractName": "LiquidityStaking",
  "sourceName": "contracts/LiquidityStaking/mainnet/LiquidityStaking.sol",
  "abi": [
    {
      "inputs": [
        {
          "internalType": "address",
          "name": "_usdt",
          "type": "address"
        },
        {
          "internalType": "address",
          "name": "_syiContract",
          "type": "address"
        },
        {
          "internalType": "address",
          "name": "_lpToken",
          "type": "address"
        },
        {
          "internalType": "address",
          "name": "_staking",
          "type": "address"
        },
        {
          "internalType": "address",
          "name": "_marketingAddress",
          "type": "address"
        },
        {
          "internalType": "address",
          "name": "_admin",
          "type": "address"
        },
        {
          "internalType": "address",
          "name": "_router",
          "type": "address"
        }
      ],
      "stateMutability": "nonpayable",
      "type": "constructor"
    },
    {
      "inputs": [],
      "name": "ExcludedFromStaking",
      "type": "error"
    },
    {
      "inputs": [],
      "name": "InsufficientStakeTime",
      "type": "error"
    },
    {
      "inputs": [],
      "name": "InvalidAddress",
      "type": "error"
    },
    {
      "inputs": [],
      "name": "InvalidAmount",
      "type": "error"
    },
    {
      "inputs": [],
      "name": "NoStakeFound",
      "type": "error"
    },
    {
      "inputs": [],
      "name": "OnlyAdmin",
      "type": "error"
    },
    {
      "inputs": [
        {
          "internalType": "address",
          "name": "owner",
          "type": "address"
        }
      ],
      "name": "OwnableInvalidOwner",
      "type": "error"
    },
    {
      "inputs": [
        {
          "internalType": "address",
          "name": "account",
          "type": "address"
        }
      ],
      "name": "OwnableUnauthorizedAccount",
      "type": "error"
    },
    {
      "inputs": [],
      "name": "ReentrancyGuardReentrantCall",
      "type": "error"
    },
    {
      "inputs": [],
      "name": "TransferFailed",
      "type": "error"
    },
    {
      "anonymous": false,
      "inputs": [
        {
          "indexed": true,
          "internalType": "address",
          "name": "account",
          "type": "address"
        },
        {
          "indexed": false,
          "internalType": "bool",
          "name": "excluded",
          "type": "bool"
        }
      ],
      "name": "AddressExcluded",
      "type": "event"
    },
    {
      "anonymous": false,
      "inputs": [
        {
          "indexed": true,
          "internalType": "address",
          "name": "previousOwner",
          "type": "address"
        },
        {
          "indexed": true,
          "internalType": "address",
          "name": "newOwner",
          "type": "address"
        }
      ],
      "name": "OwnershipTransferred",
      "type": "event"
    },
    {
      "anonymous": false,
      "inputs": [
        {
          "indexed": true,
          "internalType": "address",
          "name": "user",
          "type": "address"
        },
        {
          "indexed": false,
          "internalType": "uint256",
          "name": "reward",
          "type": "uint256"
        }
      ],
      "name": "RewardClaimed",
      "type": "event"
    },
    {
      "anonymous": false,
      "inputs": [
        {
          "indexed": false,
          "internalType": "uint256",
          "name": "amount",
          "type": "uint256"
        },
        {
          "indexed": false,
          "internalType": "uint256",
          "name": "newRewardRate",
          "type": "uint256"
        }
      ],
      "name": "RewardsDeposited",
      "type": "event"
    },
    {
      "anonymous": false,
      "inputs": [
        {
          "indexed": false,
          "internalType": "uint256",
          "name": "syiAmount",
          "type": "uint256"
        },
        {
          "indexed": false,
          "internalType": "uint256",
          "name": "totalAccumulated",
          "type": "uint256"
        }
      ],
      "name": "SYIRewardsAccumulated",
      "type": "event"
    },
    {
      "anonymous": false,
      "inputs": [
        {
          "indexed": false,
          "internalType": "uint256",
          "name": "syiAmount",
          "type": "uint256"
        },
        {
          "indexed": false,
          "internalType": "uint256",
          "name": "usdtAmount",
          "type": "uint256"
        },
        {
          "indexed": false,
          "internalType": "uint256",
          "name": "newRewardRate",
          "type": "uint256"
        }
      ],
      "name": "SYISwappedToRewards",
      "type": "event"
    },
    {
      "anonymous": false,
      "inputs": [
        {
          "indexed": true,
          "internalType": "address",
          "name": "user",
          "type": "address"
        },
        {
          "indexed": false,
          "internalType": "uint256",
          "name": "amount",
          "type": "uint256"
        },
        {
          "indexed": false,
          "internalType": "uint256",
          "name": "timestamp",
          "type": "uint256"
        }
      ],
      "name": "Staked",
      "type": "event"
    },
    {
      "anonymous": false,
      "inputs": [
        {
          "indexed": true,
          "internalType": "address",
          "name": "user",
          "type": "address"
        },
        {
          "indexed": false,
          "internalType": "uint256",
          "name": "amount",
          "type": "uint256"
        },
        {
          "indexed": false,
          "internalType": "uint256",
          "name": "reward",
          "type": "uint256"
        }
      ],
      "name": "Unstaked",
      "type": "event"
    },
    {
      "inputs": [],
      "name": "MIN_REWARD_AMOUNT",
      "outputs": [
        {
          "internalType": "uint256",
          "name": "",
          "type": "uint256"
        }
      ],
      "stateMutability": "view",
      "type": "function"
    },
    {
      "inputs": [],
      "name": "accumulatedSYI",
      "outputs": [
        {
          "internalType": "uint256",
          "name": "",
          "type": "uint256"
        }
      ],
      "stateMutability": "view",
      "type": "function"
    },
    {
      "inputs": [
        {
          "internalType": "address",
          "name": "account",
          "type": "address"
        }
      ],
      "name": "canUnstake",
      "outputs": [
        {
          "internalType": "bool",
          "name": "",
          "type": "bool"
        }
      ],
      "stateMutability": "view",
      "type": "function"
    },
    {
      "inputs": [
        {
          "internalType": "address",
          "name": "account",
          "type": "address"
        }
      ],
      "name": "canWithdrawStake",
      "outputs": [
        {
          "internalType": "bool",
          "name": "canWithdraw",
          "type": "bool"
        },
        {
          "internalType": "uint256",
          "name": "stakedAmount",
          "type": "uint256"
        },
        {
          "internalType": "uint256",
          "name": "timeRemaining",
          "type": "uint256"
        }
      ],
      "stateMutability": "view",
      "type": "function"
    },
    {
      "inputs": [],
      "name": "claimReward",
      "outputs": [],
      "stateMutability": "nonpayable",
      "type": "function"
    },
    {
      "inputs": [
        {
          "internalType": "uint256",
          "name": "amount",
          "type": "uint256"
        }
      ],
      "name": "depositRewards",
      "outputs": [],
      "stateMutability": "nonpayable",
      "type": "function"
    },
    {
      "inputs": [
        {
          "internalType": "uint256",
          "name": "syiAmount",
          "type": "uint256"
        }
      ],
      "name": "depositSYIRewards",
      "outputs": [],
      "stateMutability": "nonpayable",
      "type": "function"
    },
    {
      "inputs": [
        {
          "internalType": "address",
          "name": "token",
          "type": "address"
        },
        {
          "internalType": "uint256",
          "name": "amount",
          "type": "uint256"
        }
      ],
      "name": "emergencyWithdraw",
      "outputs": [],
      "stateMutability": "nonpayable",
      "type": "function"
    },
    {
      "inputs": [
        {
          "internalType": "address",
          "name": "",
          "type": "address"
        }
      ],
      "name": "excludedFromStaking",
      "outputs": [
        {
          "internalType": "bool",
          "name": "",
          "type": "bool"
        }
      ],
      "stateMutability": "view",
      "type": "function"
    },
    {
      "inputs": [],
      "name": "getMinStakeDurationExternal",
      "outputs": [
        {
          "internalType": "uint256",
          "name": "duration",
          "type": "uint256"
        }
      ],
      "stateMutability": "pure",
      "type": "function"
    },
    {
      "inputs": [],
      "name": "getRewardPoolInfo",
      "outputs": [
        {
          "internalType": "uint256",
          "name": "totalRewards",
          "type": "uint256"
        },
        {
          "internalType": "uint256",
          "name": "rewardPerSecond",
          "type": "uint256"
        },
        {
          "internalType": "uint256",
          "name": "totalStaked",
          "type": "uint256"
        },
        {
          "internalType": "uint256",
          "name": "totalWeight",
          "type": "uint256"
        },
        {
          "internalType": "uint256",
          "name": "stakersCount",
          "type": "uint256"
        },
        {
          "internalType": "uint256",
          "name": "distributedRewards",
          "type": "uint256"
        },
        {
          "internalType": "uint256",
          "name": "pendingRewards",
          "type": "uint256"
        }
      ],
      "stateMutability": "view",
      "type": "function"
    },
    {
      "inputs": [],
      "name": "getStakersCount",
      "outputs": [
        {
          "internalType": "uint256",
          "name": "",
          "type": "uint256"
        }
      ],
      "stateMutability": "view",
      "type": "function"
    },
    {
      "inputs": [
        {
          "internalType": "address",
          "name": "account",
          "type": "address"
        }
      ],
      "name": "getUserStakeInfo",
      "outputs": [
        {
          "internalType": "uint256",
          "name": "stakedAmount",
          "type": "uint256"
        },
        {
          "internalType": "uint256",
          "name": "stakeTime",
          "type": "uint256"
        },
        {
          "internalType": "uint256",
          "name": "pendingReward",
          "type": "uint256"
        },
        {
          "internalType": "uint256",
          "name": "accumulatedReward",
          "type": "uint256"
        },
        {
          "internalType": "uint256",
          "name": "weight",
          "type": "uint256"
        }
      ],
      "stateMutability": "view",
      "type": "function"
    },
    {
      "inputs": [
        {
          "internalType": "address",
          "name": "",
          "type": "address"
        }
      ],
      "name": "isStaker",
      "outputs": [
        {
          "internalType": "bool",
          "name": "",
          "type": "bool"
        }
      ],
      "stateMutability": "view",
      "type": "function"
    },
    {
      "inputs": [],
      "name": "lpToken",
      "outputs": [
        {
          "internalType": "address",
          "name": "",
          "type": "address"
        }
      ],
      "stateMutability": "view",
      "type": "function"
    },
    {
      "inputs": [],
      "name": "owner",
      "outputs": [
        {
          "internalType": "address",
          "name": "",
          "type": "address"
        }
      ],
      "stateMutability": "view",
      "type": "function"
    },
    {
      "inputs": [],
      "name": "renounceOwnership",
      "outputs": [],
      "stateMutability": "nonpayable",
      "type": "function"
    },
    {
      "inputs": [],
      "name": "rewardPool",
      "outputs": [
        {
          "internalType": "uint256",
          "name": "totalRewards",
          "type": "uint256"
        },
        {
          "internalType": "uint256",
          "name": "rewardPerSecond",
          "type": "uint256"
        },
        {
          "internalType": "uint256",
          "name": "lastUpdateTime",
          "type": "uint256"
        },
        {
          "internalType": "uint256",
          "name": "rewardPerTokenStored",
          "type": "uint256"
        },
        {
          "internalType": "uint256",
          "name": "totalStaked",
          "type": "uint256"
        },
        {
          "internalType": "uint256",
          "name": "totalWeight",
          "type": "uint256"
        },
        {
          "internalType": "uint256",
          "name": "distributedRewards",
          "type": "uint256"
        },
        {
          "internalType": "uint256",
          "name": "pendingRewards",
          "type": "uint256"
        }
      ],
      "stateMutability": "view",
      "type": "function"
    },
    {
      "inputs": [],
      "name": "router",
      "outputs": [
        {
          "internalType": "contract IUniswapV2Router02",
          "name": "",
          "type": "address"
        }
      ],
      "stateMutability": "view",
      "type": "function"
    },
    {
      "inputs": [
        {
          "internalType": "address",
          "name": "account",
          "type": "address"
        },
        {
          "internalType": "bool",
          "name": "excluded",
          "type": "bool"
        }
      ],
      "name": "setExcluded",
      "outputs": [],
      "stateMutability": "nonpayable",
      "type": "function"
    },
    {
      "inputs": [
        {
          "internalType": "uint256",
          "name": "amount",
          "type": "uint256"
        }
      ],
      "name": "stake",
      "outputs": [],
      "stateMutability": "nonpayable",
      "type": "function"
    },
    {
      "inputs": [
        {
          "internalType": "uint256",
          "name": "",
          "type": "uint256"
        }
      ],
      "name": "stakers",
      "outputs": [
        {
          "internalType": "address",
          "name": "",
          "type": "address"
        }
      ],
      "stateMutability": "view",
      "type": "function"
    },
    {
      "inputs": [
        {
          "internalType": "address",
          "name": "",
          "type": "address"
        }
      ],
      "name": "stakes",
      "outputs": [
        {
          "internalType": "uint256",
          "name": "amount",
          "type": "uint256"
        },
        {
          "internalType": "uint256",
          "name": "stakeTime",
          "type": "uint256"
        },
        {
          "internalType": "uint256",
          "name": "lastRewardTime",
          "type": "uint256"
        },
        {
          "internalType": "uint256",
          "name": "accumulatedReward",
          "type": "uint256"
        }
      ],
      "stateMutability": "view",
      "type": "function"
    },
    {
      "inputs": [],
      "name": "staking",
      "outputs": [
        {
          "internalType": "contract IStaking",
          "name": "",
          "type": "address"
        }
      ],
      "stateMutability": "view",
      "type": "function"
    },
    {
      "inputs": [],
      "name": "syiContract",
      "outputs": [
        {
          "internalType": "address",
          "name": "",
          "type": "address"
        }
      ],
      "stateMutability": "view",
      "type": "function"
    },
    {
      "inputs": [
        {
          "internalType": "address",
          "name": "newOwner",
          "type": "address"
        }
      ],
      "name": "transferOwnership",
      "outputs": [],
      "stateMutability": "nonpayable",
      "type": "function"
    },
    {
      "inputs": [
        {
          "internalType": "uint256",
          "name": "amount",
          "type": "uint256"
        }
      ],
      "name": "unstake",
      "outputs": [],
      "stateMutability": "nonpayable",
      "type": "function"
    },
    {
      "inputs": [],
      "name": "usdt",
      "outputs": [
        {
          "internalType": "address",
          "name": "",
          "type": "address"
        }
      ],
      "stateMutability": "view",
      "type": "function"
    },
    {
      "inputs": [
        {
          "internalType": "address",
          "name": "",
          "type": "address"
        }
      ],
      "name": "userPendingRewards",
      "outputs": [
        {
          "internalType": "uint256",
          "name": "",
          "type": "uint256"
        }
      ],
      "stateMutability": "view",
      "type": "function"
    },
    {
      "inputs": [
        {
          "internalType": "address",
          "name": "",
          "type": "address"
        }
      ],
      "name": "userRewardPerTokenPaid",
      "outputs": [
        {
          "internalType": "uint256",
          "name": "",
          "type": "uint256"
        }
      ],
      "stateMutability": "view",
      "type": "function"
    }
  ],
  "bytecode": "0x610120346102f757601f61204d38819003918201601f19168301916001600160401b038311848410176102fc5780849260e0946040528339810103126102f75761004881610312565b61005460208301610312565b9161006160408201610312565b9061006e60608201610312565b61007a60808301610312565b9261009360c061008c60a08601610312565b9401610312565b60016000556001600160a01b039093169485156102e157600180546001600160a01b03198116881790915560405196906001600160a01b03167f8be0079c531659141344cd1fd0a4f28419497f9722a3daafe3b4186f6b6457e0600080a36001600160a01b0381161580156102d0575b80156102bf575b80156102ae575b801561029d575b61028c5760a052608086905260c0526001600160a01b0390811660e0529081166101005242600855169081610256575b8230600052600e6020526040600020600160ff1982541617905560018060a01b031680600052600e6020526040600020600160ff198254161790556040516001815260008051602061202d83398151915260203092a260008051602061202d833981519152602060405160018152a2604051611d06908161032782396080518181816102ec015281816106f9015281816107ef015281816108cd01528181610e5001528181611119015281816116bf0152611a24015260a051818181610b4901528181610d7d0152818161124b015281816113ab0152611a8f015260c0518181816104f401528181610a830152610c4f015260e05181610ac801526101005181818161020001526119f30152f35b602060008051602061202d8339815191529183600052600e82526040600020600160ff1982541617905560018152a23880610148565b63e6c4247b60e01b60005260046000fd5b506001600160a01b03841615610118565b506001600160a01b03831615610111565b506001600160a01b0382161561010a565b506001600160a01b03871615610103565b631e4fbdf760e01b600052600060045260246000fd5b600080fd5b634e487b7160e01b600052604160045260246000fd5b51906001600160a01b03821682036102f75756fe608080604052600436101561001357600080fd5b60003560e01c9081630ccaa97e14610f455750806316934fc414610ee95780632836be2414610e265780632e17de7814610b785780632f48ab7d14610b335780633911f68e14610b155780634828478914610af75780634cf088d914610ab25780635fcbd28514610a6d57806366666aa914610a135780636ab9bba7146109db5780636f1e85331461099c57806370f4edbf1461097e578063715018a614610921578063759f9de2146108b957806385f4498b1461088c5780638b876347146108525780638bdf67f2146107db5780638da5cb5b146107b257806395ccea67146106de578063a694fc3a14610475578063b88a802f1461042a578063c32d3ae214610371578063c3e40a141461031b578063df5f747c146102d6578063f2fde38b1461024c578063f6ef85cd1461022f578063f887ea40146101ea578063fc9d7711146101b05763fd5e6dd11461016957600080fd5b346101ab5760203660031901126101ab576004356004548110156101ab57610192602091610f96565b905460405160039290921b1c6001600160a01b03168152f35b600080fd5b346101ab5760203660031901126101ab576001600160a01b036101d1610f80565b1660005260126020526020604060002054604051908152f35b346101ab5760003660031901126101ab576040517f00000000000000000000000000000000000000000000000000000000000000006001600160a01b03168152602090f35b346101ab5760003660031901126101ab5760206040516103e88152f35b346101ab5760203660031901126101ab57610265610f80565b61026d6117ba565b6001600160a01b031680156102c057600180546001600160a01b0319811683179091556001600160a01b03167f8be0079c531659141344cd1fd0a4f28419497f9722a3daafe3b4186f6b6457e0600080a3005b631e4fbdf760e01b600052600060045260246000fd5b346101ab5760003660031901126101ab576040517f00000000000000000000000000000000000000000000000000000000000000006001600160a01b03168152602090f35b346101ab5760003660031901126101ab5760e0600654600754600a5461033f61183d565b60045490600c5492600d5494604051968752602087015260408601526060850152608084015260a083015260c0820152f35b346101ab5760203660031901126101ab5760a061038c610f80565b6000600180841b03821660005260036020526040600020604051926103b084611007565b8154938481526001830154906103e26003602083019584875260028101546040850152015493606083019485526114c7565b925193815161040a575b50506040519485526020850152604084015260608301526080820152f35b61042292955061041b905142610ffa565b90516117e3565b9286806103ec565b346101ab5760003660031901126101ab57610443611440565b61044b611557565b6009554260085533610467575b6104606112fa565b6001600055005b61047033611462565b610458565b346101ab5760203660031901126101ab57600435610491611440565b610499611557565b60095542600855336106d0575b80156106bf5733600052600e60205260ff604060002054166106ae576040516323b872dd60e01b81523360048201523060248201526044810182905260208160648160006001600160a01b037f0000000000000000000000000000000000000000000000000000000000000000165af19081156106a257600091610673575b501561066257336000526003602052604060002033600052600560205260ff60406000205416156105b6575b61055c828254610fed565b905561056a81600a54610fed565b600a5561057561183d565b600f55426010556040519081524260208201527f1449c6dd7851abc30abf37f57715f492010519147cc2652fbc38202c18a6ee9060403392a26104606116bd565b6004546801000000000000000081101561064c576105dd8160016105fb9301600455610f96565b81546001600160a01b0360039290921b91821b19163390911b179055565b3360005260056020526040600020600160ff19825416179055426001820155426002820155610628611557565b33600052601160205260406000205533600052601260205260006040812055610551565b634e487b7160e01b600052604160045260246000fd5b6312171d8360e31b60005260046000fd5b610695915060203d60201161069b575b61068d8183611023565b810190611045565b82610525565b503d610683565b6040513d6000823e3d90fd5b636bae2ecf60e01b60005260046000fd5b63162908e360e11b60005260046000fd5b6106d933611462565b6104a6565b346101ab5760403660031901126101ab576106f7610f80565b7f000000000000000000000000000000000000000000000000000000000000000090336001600160a01b03831614158061079d575b61078c5760405163a9059cbb60e01b81526001600160a01b03928316600482015260248035908201529160209183916044918391600091165af180156106a25761077257005b61078a9060203d60201161069b5761068d8183611023565b005b634755657960e01b60005260046000fd5b506001546001600160a01b031633141561072c565b346101ab5760003660031901126101ab576001546040516001600160a01b039091168152602090f35b346101ab5760203660031901126101ab57337f00000000000000000000000000000000000000000000000000000000000000006001600160a01b031614158061083d575b61078c5761082b611557565b6009554260085561078a600435611213565b506001546001600160a01b031633141561081f565b346101ab5760203660031901126101ab576001600160a01b03610873610f80565b1660005260116020526020604060002054604051908152f35b346101ab5760203660031901126101ab5760206108af6108aa610f80565b6111b3565b6040519015158152f35b346101ab5760203660031901126101ab57337f00000000000000000000000000000000000000000000000000000000000000006001600160a01b031614158061090c575b61078c5761078a6004356110e1565b506001546001600160a01b03163314156108fd565b346101ab5760003660031901126101ab5761093a6117ba565b600180546001600160a01b031981169091556000906001600160a01b03167f8be0079c531659141344cd1fd0a4f28419497f9722a3daafe3b4186f6b6457e08280a3005b346101ab5760003660031901126101ab576020600254604051908152f35b346101ab5760203660031901126101ab576001600160a01b036109bd610f80565b166000526005602052602060ff604060002054166040519015158152f35b346101ab5760203660031901126101ab5760606109fe6109f9610f80565b61105d565b90604051921515835260208301526040820152f35b346101ab5760003660031901126101ab57610100600654600754600854600954600a54600b5491600c5493600d5495604051978852602088015260408701526060860152608085015260a084015260c083015260e0820152f35b346101ab5760003660031901126101ab576040517f00000000000000000000000000000000000000000000000000000000000000006001600160a01b03168152602090f35b346101ab5760003660031901126101ab576040517f00000000000000000000000000000000000000000000000000000000000000006001600160a01b03168152602090f35b346101ab5760003660031901126101ab576020600454604051908152f35b346101ab5760003660031901126101ab576020604051620151808152f35b346101ab5760003660031901126101ab576040517f00000000000000000000000000000000000000000000000000000000000000006001600160a01b03168152602090f35b346101ab5760203660031901126101ab57600435610b94611440565b610b9c611557565b6009554260085533610e18575b336000526003602052604060002080548015610e07578215908115610dfd575b506106bf57610bdb6001820154610fc7565b4210610dec57610bea336114c7565b9081610cec575b610bfc838254610ffa565b8155610c0a83600a54610ffa565b600a555415610cde575b610c1c61183d565b600f554260105560405163a9059cbb60e01b81523360048201526024810183905260208160448160006001600160a01b037f0000000000000000000000000000000000000000000000000000000000000000165af19081156106a257600091610cbf575b50156106625760405191825260208201527f7fc4727e062e336010f2c282598ef5f14facb3de68cf8195c2f23e1454b2b74e60403392a26104606116bd565b610cd8915060203d60201161069b5761068d8183611023565b83610c80565b610ce7336115ae565b610c14565b33600052601260205260006040812055610d04611557565b33600052601160205260406000205560038101610d22838254610fed565b9055426002820155610d3682600c54610fed565b600c55600d548280821115610de357610d4e91610ffa565b600d5560405163a9059cbb60e01b81523360048201526024810183905260208160448160006001600160a01b037f0000000000000000000000000000000000000000000000000000000000000000165af19081156106a257600091610dc4575b50610bf1576312171d8360e31b60005260046000fd5b610ddd915060203d60201161069b5761068d8183611023565b84610dae565b50506000610d4e565b638d9c2d7f60e01b60005260046000fd5b9050821183610bc9565b632cdf478160e11b60005260046000fd5b610e2133611462565b610ba9565b346101ab5760403660031901126101ab57610e3f610f80565b602435908115158092036101ab57337f00000000000000000000000000000000000000000000000000000000000000006001600160a01b0316141580610ed4575b61078c5760207f41a696dfbded725d7a02bf24db905bc48040509581dd59098d66b9aa7416bb5e9160018060a01b03169283600052600e8252604060002060ff1981541660ff8316179055604051908152a2005b506001546001600160a01b0316331415610e80565b346101ab5760203660031901126101ab576001600160a01b03610f0a610f80565b166000526003602052608060406000208054906001810154906003600282015491015491604051938452602084015260408301526060820152f35b346101ab5760203660031901126101ab576020906001600160a01b03610f69610f80565b16600052600e825260ff6040600020541615158152f35b600435906001600160a01b03821682036101ab57565b600454811015610fb157600460005260206000200190600090565b634e487b7160e01b600052603260045260246000fd5b90620151808201809211610fd757565b634e487b7160e01b600052601160045260246000fd5b91908201809211610fd757565b91908203918211610fd757565b6080810190811067ffffffffffffffff82111761064c57604052565b90601f8019910116810190811067ffffffffffffffff82111761064c57604052565b908160209103126101ab575180151581036101ab5790565b60018060a01b0316600052600360205260406000206040519061107f82611007565b805491828152606060036001840154938460208501526002810154604085015201549101528180156110d657506110b590610fc7565b4281116110c55750600191600090565b916110d36000934290610ffa565b90565b600093909250839150565b80156111b0576040516323b872dd60e01b81523360048201523060248201526044810182905260208160648160006001600160a01b037f0000000000000000000000000000000000000000000000000000000000000000165af19081156106a257600091611191575b5015610662576040816111807fcc262df37e95bd0c34586a7f3cad8b5f26a8dddfea761d63314f024f0fe3f0c193600254610fed565b8060025582519182526020820152a1565b6111aa915060203d60201161069b5761068d8183611023565b3861114a565b50565b60018060a01b0316600052600360205260406000206040516111d481611007565b815490818152606060036001850154948560208501526002810154604085015201549101521561120d5761120790610fc7565b42101590565b50600090565b80156111b0576040516323b872dd60e01b81523360048201523060248201526044810182905260208160648160006001600160a01b037f0000000000000000000000000000000000000000000000000000000000000000165af19081156106a2576000916112db575b5015610662576040816112b27f8ad0c4905aa5603107e860e0c2b1a78e23eba312c30f8114a70d94d9e187f5af93600654610fed565b60065562093a806112c582600d54610fed565b80600d55048060075582519182526020820152a1565b6112f4915060203d60201161069b5761068d8183611023565b3861127c565b611303336114c7565b6103e881106111b057336000526003602052604060002033600052601260205260006040812055611332611557565b33600052601160205260406000205560038101611350838254610fed565b905560024291015561136481600c54610fed565b600c55600d5481808211156114375761137c91610ffa565b600d5560405163a9059cbb60e01b81523360048201526024810182905260208160448160006001600160a01b037f0000000000000000000000000000000000000000000000000000000000000000165af19081156106a257600091611418575b5015610662576040519081527f106f923f993c2149d49b4255ff723acafa1f2d94393f561d3eda32ae348f724160203392a26114166116bd565b565b611431915060203d60201161069b5761068d8183611023565b386113dc565b5050600061137c565b600260005414611451576002600055565b633ee5aeb560e01b60005260046000fd5b6001600160a01b03811680156114c357806000526003602052604060002054156114c357611498611491611557565b80936118f9565b8160005260126020526114b16040600020918254610fed565b90556000526011602052604060002055565b5050565b6001600160a01b0381166000818152600360205260409081902090516114ec81611007565b60606003835493848452600181015460208501526002810154604085015201549101521561153d576115296110d392611523611557565b906118f9565b906000526012602052604060002054610fed565b5050600090565b81810292918115918404141715610fd757565b600a5480156115a75761157861156f60085442610ffa565b60075490611544565b90670de0b6b3a7640000820291808304670de0b6b3a76400001490151715610fd7576110d39104600954610fed565b5060095490565b6001600160a01b031660008181526005602052604090205460ff16156111b05760005b60045490818110156116b857826115e782610f96565b905460039190911b1c6001600160a01b0316146116085760019150016115d1565b6000198201918211610fd75761163b61162361165f93610f96565b905460039190911b1c6001600160a01b031691610f96565b81546001600160a01b0393841660039290921b91821b9390911b1916919091179055565b60045480156116a2576000190161167581610f96565b81549060018060a01b039060031b1b191690556004556000526005602052604060002060ff198154169055565b634e487b7160e01b600052603160045260246000fd5b505050565b7f00000000000000000000000000000000000000000000000000000000000000006001600160a01b0316803b156101ab5760049060405180916352795e0b60e01b82528160009485938480945af16117aa575b50506002549081158015611799575b6114c35760025561172f816119d3565b80611738575050565b7fa6378dd16102467b0770ff29e0feccdc228faf8ca76bf50b12bf0501be2c45239181611769606093600654610fed565b60065562093a8061177c82600d54610fed565b80600d5504908160075560405192835260208301526040820152a1565b50678ac7230489e80000821061171f565b6117b391611023565b3881611710565b6001546001600160a01b031633036117ce57565b63118cdaa760e01b6000523360045260246000fd5b90670de0b6b3a7640000810290808204670de0b6b3a76400001490151715610fd7576301e133809004670de0b6b3a7640000019081670de0b6b3a764000011610fd757670de0b6b3a76400009161183991611544565b0490565b6010544214806118ee575b6118e857600080600454905b81811061186057505090565b61186981610f96565b60018060a01b0391549060031b1c16600052600360205260406000206040519061189282611007565b8054808352600360018301549283602086015260028101546040860152015460608401526118c5575b5050600101611854565b936118da6118e09261041b6001959742610ffa565b90610fed565b9290386118bb565b600f5490565b50600f541515611848565b60018060a01b03168060005260036020526040600020916040519161191d83611007565b83548084526003600186015495602086019687526002810154604087015201546060850152156119ca5761196b9161196391600052601160205260406000205490610ffa565b925142610ffa565b670de0b6b3a7640000810290808204670de0b6b3a76400001490151715610fd7576301e133809004670de0b6b3a76400000180670de0b6b3a764000011610fd757670de0b6b3a76400006119c481946118399451611544565b04611544565b50505050600090565b6000908015611ccc5760405163095ea7b360e01b81526001600160a01b037f0000000000000000000000000000000000000000000000000000000000000000811660048301819052602483018490527f00000000000000000000000000000000000000000000000000000000000000009091169160208160448188875af18015611cc157611ca4575b5060405190611a6c606083611023565b6002825260208201926040368537825115611c90578352815160011015611c7c577f00000000000000000000000000000000000000000000000000000000000000006001600160a01b03166040838101829052516370a0823160e01b815230600482015294909390602086602481885afa958615611c71578796611c39575b5061012c420190814211611c2557833b15611c21579391879391604051958694635c11d79560e01b865260a4860191600487015286602487015260a060448701525180915260c485019290865b818110611bfc575050508380928692306064840152608483015203925af19081611be8575b50611b6757505090565b6020602491604051928380926370a0823160e01b82523060048301525afa908115611bdd578391611bab575b5081811115611ba6576110d39250610ffa565b505090565b90506020813d602011611bd5575b81611bc660209383611023565b810103126101ab575138611b93565b3d9150611bb9565b6040513d85823e3d90fd5b84611bf591959295611023565b9238611b5d565b82516001600160a01b031685528b975088965060209485019490920191600101611b38565b8780fd5b634e487b7160e01b88526011600452602488fd5b9095506020813d602011611c69575b81611c5560209383611023565b81010312611c6557519438611aeb565b8680fd5b3d9150611c48565b6040513d89823e3d90fd5b634e487b7160e01b85526032600452602485fd5b634e487b7160e01b86526032600452602486fd5b611cbc9060203d60201161069b5761068d8183611023565b611a5c565b6040513d87823e3d90fd5b509056fea26469706673582212204b97a8691718d8408acdadc2b909986919cea2e42f63d96fe0c89f8972ee966664736f6c634300081c003341a696dfbded725d7a02bf24db905bc48040509581dd59098d66b9aa7416bb5e",
  "linkReferences": {},
  "deployedLinkReferences": {}
}