{
  "_format": "hh-sol-artifact-1",
  "contractName": "SYI",
  "sourceName": "contracts/SYI/mainnet/SYI.sol",
  "abi": [
    {
      "inputs": [
        {
          "internalType": "address",
          "name": "_usdt",
          "type": "address"
        },
        {
          "internalType": "address",
          "name": "_router",
          "type": "address"
        },
        {
          "internalType": "address",
          "name": "_staking",
          "type": "address"
        },
        {
          "internalType": "address",
          "name": "_marketingAddress",
          "type": "address"
        }
      ],
      "stateMutability": "nonpayable",
      "type": "constructor"
    },
    {
      "inputs": [],
      "name": "AlreadyInitialized",
      "type": "error"
    },
    {
      "inputs": [],
      "name": "AlreadySet",
      "type": "error"
    },
    {
      "inputs": [],
      "name": "Blacklisted",
      "type": "error"
    },
    {
      "inputs": [],
      "name": "DelayedBuyPeriodNotMet",
      "type": "error"
    },
    {
      "inputs": [
        {
          "internalType": "address",
          "name": "spender",
          "type": "address"
        },
        {
          "internalType": "uint256",
          "name": "allowance",
          "type": "uint256"
        },
        {
          "internalType": "uint256",
          "name": "needed",
          "type": "uint256"
        }
      ],
      "name": "ERC20InsufficientAllowance",
      "type": "error"
    },
    {
      "inputs": [
        {
          "internalType": "address",
          "name": "sender",
          "type": "address"
        },
        {
          "internalType": "uint256",
          "name": "balance",
          "type": "uint256"
        },
        {
          "internalType": "uint256",
          "name": "needed",
          "type": "uint256"
        }
      ],
      "name": "ERC20InsufficientBalance",
      "type": "error"
    },
    {
      "inputs": [
        {
          "internalType": "address",
          "name": "approver",
          "type": "address"
        }
      ],
      "name": "ERC20InvalidApprover",
      "type": "error"
    },
    {
      "inputs": [
        {
          "internalType": "address",
          "name": "receiver",
          "type": "address"
        }
      ],
      "name": "ERC20InvalidReceiver",
      "type": "error"
    },
    {
      "inputs": [
        {
          "internalType": "address",
          "name": "sender",
          "type": "address"
        }
      ],
      "name": "ERC20InvalidSender",
      "type": "error"
    },
    {
      "inputs": [
        {
          "internalType": "address",
          "name": "spender",
          "type": "address"
        }
      ],
      "name": "ERC20InvalidSpender",
      "type": "error"
    },
    {
      "inputs": [],
      "name": "InColdPeriod",
      "type": "error"
    },
    {
      "inputs": [],
      "name": "InsufficientBalance",
      "type": "error"
    },
    {
      "inputs": [],
      "name": "NotAllowedBuy",
      "type": "error"
    },
    {
      "inputs": [
        {
          "internalType": "address",
          "name": "owner",
          "type": "address"
        }
      ],
      "name": "OwnableInvalidOwner",
      "type": "error"
    },
    {
      "inputs": [
        {
          "internalType": "address",
          "name": "account",
          "type": "address"
        }
      ],
      "name": "OwnableUnauthorizedAccount",
      "type": "error"
    },
    {
      "inputs": [],
      "name": "ZeroAddress",
      "type": "error"
    },
    {
      "anonymous": false,
      "inputs": [
        {
          "indexed": true,
          "internalType": "address",
          "name": "owner",
          "type": "address"
        },
        {
          "indexed": true,
          "internalType": "address",
          "name": "spender",
          "type": "address"
        },
        {
          "indexed": false,
          "internalType": "uint256",
          "name": "value",
          "type": "uint256"
        }
      ],
      "name": "Approval",
      "type": "event"
    },
    {
      "anonymous": false,
      "inputs": [
        {
          "indexed": false,
          "internalType": "uint256",
          "name": "marketingFee",
          "type": "uint256"
        },
        {
          "indexed": false,
          "internalType": "uint256",
          "name": "lpFee",
          "type": "uint256"
        },
        {
          "indexed": false,
          "internalType": "string",
          "name": "trigger",
          "type": "string"
        }
      ],
      "name": "AutoSwapTriggered",
      "type": "event"
    },
    {
      "anonymous": false,
      "inputs": [
        {
          "indexed": false,
          "internalType": "bool",
          "name": "enabled",
          "type": "bool"
        }
      ],
      "name": "DelayedBuyEnabled",
      "type": "event"
    },
    {
      "anonymous": false,
      "inputs": [
        {
          "indexed": false,
          "internalType": "uint256",
          "name": "newPeriod",
          "type": "uint256"
        }
      ],
      "name": "DelayedBuyPeriodUpdated",
      "type": "event"
    },
    {
      "anonymous": false,
      "inputs": [
        {
          "indexed": true,
          "internalType": "address",
          "name": "user",
          "type": "address"
        },
        {
          "indexed": false,
          "internalType": "uint256",
          "name": "amount",
          "type": "uint256"
        },
        {
          "indexed": true,
          "internalType": "string",
          "name": "category",
          "type": "string"
        },
        {
          "indexed": true,
          "internalType": "address",
          "name": "recipient",
          "type": "address"
        }
      ],
      "name": "FeeCollected",
      "type": "event"
    },
    {
      "anonymous": false,
      "inputs": [
        {
          "indexed": false,
          "internalType": "uint256",
          "name": "totalFees",
          "type": "uint256"
        },
        {
          "indexed": false,
          "internalType": "string",
          "name": "reason",
          "type": "string"
        },
        {
          "indexed": false,
          "internalType": "uint256",
          "name": "timestamp",
          "type": "uint256"
        }
      ],
      "name": "FeeProcessingSkipped",
      "type": "event"
    },
    {
      "anonymous": false,
      "inputs": [
        {
          "indexed": false,
          "internalType": "uint256",
          "name": "totalFees",
          "type": "uint256"
        },
        {
          "indexed": true,
          "internalType": "address",
          "name": "triggeredBy",
          "type": "address"
        },
        {
          "indexed": false,
          "internalType": "string",
          "name": "triggerType",
          "type": "string"
        },
        {
          "indexed": false,
          "internalType": "uint256",
          "name": "timestamp",
          "type": "uint256"
        }
      ],
      "name": "FeeProcessingTriggered",
      "type": "event"
    },
    {
      "anonymous": false,
      "inputs": [
        {
          "indexed": false,
          "internalType": "string",
          "name": "feeType",
          "type": "string"
        },
        {
          "indexed": false,
          "internalType": "uint256",
          "name": "amount",
          "type": "uint256"
        },
        {
          "indexed": false,
          "internalType": "uint256",
          "name": "totalAccumulated",
          "type": "uint256"
        }
      ],
      "name": "FeesAccumulated",
      "type": "event"
    },
    {
      "anonymous": false,
      "inputs": [
        {
          "indexed": true,
          "internalType": "uint256",
          "name": "timestamp",
          "type": "uint256"
        },
        {
          "indexed": true,
          "internalType": "string",
          "name": "processType",
          "type": "string"
        },
        {
          "indexed": false,
          "internalType": "uint256",
          "name": "totalFeesXF",
          "type": "uint256"
        },
        {
          "indexed": false,
          "internalType": "uint256",
          "name": "totalFeesUSDT",
          "type": "uint256"
        },
        {
          "indexed": false,
          "internalType": "uint256",
          "name": "lpAmount",
          "type": "uint256"
        },
        {
          "indexed": false,
          "internalType": "uint256",
          "name": "marketingAmount",
          "type": "uint256"
        },
        {
          "indexed": false,
          "internalType": "uint256",
          "name": "burnAmount",
          "type": "uint256"
        },
        {
          "indexed": false,
          "internalType": "address",
          "name": "lpRecipient",
          "type": "address"
        },
        {
          "indexed": false,
          "internalType": "address",
          "name": "marketingRecipient",
          "type": "address"
        }
      ],
      "name": "FeesProcessed",
      "type": "event"
    },
    {
      "anonymous": false,
      "inputs": [
        {
          "indexed": false,
          "internalType": "uint256",
          "name": "expectedAmount",
          "type": "uint256"
        },
        {
          "indexed": false,
          "internalType": "uint256",
          "name": "actualAmount",
          "type": "uint256"
        },
        {
          "indexed": false,
          "internalType": "uint256",
          "name": "timestamp",
          "type": "uint256"
        }
      ],
      "name": "FundRelayTransferFailed",
      "type": "event"
    },
    {
      "anonymous": false,
      "inputs": [
        {
          "indexed": true,
          "internalType": "address",
          "name": "user",
          "type": "address"
        },
        {
          "indexed": true,
          "internalType": "uint256",
          "name": "timestamp",
          "type": "uint256"
        },
        {
          "indexed": false,
          "internalType": "uint256",
          "name": "previousInvestment",
          "type": "uint256"
        },
        {
          "indexed": false,
          "internalType": "uint256",
          "name": "newInvestment",
          "type": "uint256"
        },
        {
          "indexed": false,
          "internalType": "uint256",
          "name": "changeAmount",
          "type": "uint256"
        },
        {
          "indexed": false,
          "internalType": "string",
          "name": "changeType",
          "type": "string"
        }
      ],
      "name": "InvestmentUpdated",
      "type": "event"
    },
    {
      "anonymous": false,
      "inputs": [
        {
          "indexed": true,
          "internalType": "uint256",
          "name": "timestamp",
          "type": "uint256"
        },
        {
          "indexed": false,
          "internalType": "uint256",
          "name": "regularFeesXF",
          "type": "uint256"
        },
        {
          "indexed": false,
          "internalType": "uint256",
          "name": "regularFeesUSDT",
          "type": "uint256"
        },
        {
          "indexed": false,
          "internalType": "address",
          "name": "liquidityStakingContract",
          "type": "address"
        },
        {
          "indexed": false,
          "internalType": "string",
          "name": "source",
          "type": "string"
        }
      ],
      "name": "LPDistribution",
      "type": "event"
    },
    {
      "anonymous": false,
      "inputs": [
        {
          "indexed": false,
          "internalType": "uint256",
          "name": "amount",
          "type": "uint256"
        }
      ],
      "name": "LPRewardDeposited",
      "type": "event"
    },
    {
      "anonymous": false,
      "inputs": [
        {
          "indexed": false,
          "internalType": "uint256",
          "name": "tokenAmount",
          "type": "uint256"
        },
        {
          "indexed": false,
          "internalType": "uint256",
          "name": "usdtAmount",
          "type": "uint256"
        }
      ],
      "name": "LiquidityAdded",
      "type": "event"
    },
    {
      "anonymous": false,
      "inputs": [
        {
          "indexed": true,
          "internalType": "address",
          "name": "from",
          "type": "address"
        },
        {
          "indexed": true,
          "internalType": "address",
          "name": "to",
          "type": "address"
        },
        {
          "indexed": false,
          "internalType": "uint256",
          "name": "feeAmount",
          "type": "uint256"
        },
        {
          "indexed": false,
          "internalType": "uint256",
          "name": "netAmount",
          "type": "uint256"
        },
        {
          "indexed": false,
          "internalType": "string",
          "name": "operationType",
          "type": "string"
        }
      ],
      "name": "LiquidityHandleFeeCollected",
      "type": "event"
    },
    {
      "anonymous": false,
      "inputs": [
        {
          "indexed": true,
          "internalType": "address",
          "name": "oldAddress",
          "type": "address"
        },
        {
          "indexed": true,
          "internalType": "address",
          "name": "newAddress",
          "type": "address"
        }
      ],
      "name": "MarketingAddressUpdated",
      "type": "event"
    },
    {
      "anonymous": false,
      "inputs": [
        {
          "indexed": false,
          "internalType": "uint256",
          "name": "timestamp",
          "type": "uint256"
        },
        {
          "indexed": false,
          "internalType": "uint256",
          "name": "tokenAmount",
          "type": "uint256"
        },
        {
          "indexed": false,
          "internalType": "uint256",
          "name": "usdtAmount",
          "type": "uint256"
        },
        {
          "indexed": false,
          "internalType": "uint256",
          "name": "rewardIndex",
          "type": "uint256"
        },
        {
          "indexed": true,
          "internalType": "address",
          "name": "recipient",
          "type": "address"
        },
        {
          "indexed": false,
          "internalType": "string",
          "name": "distributionType",
          "type": "string"
        }
      ],
      "name": "MarketingDistribution",
      "type": "event"
    },
    {
      "anonymous": false,
      "inputs": [
        {
          "indexed": true,
          "internalType": "address",
          "name": "seller",
          "type": "address"
        },
        {
          "indexed": true,
          "internalType": "uint256",
          "name": "timestamp",
          "type": "uint256"
        },
        {
          "indexed": false,
          "internalType": "uint256",
          "name": "feeAmountXF",
          "type": "uint256"
        },
        {
          "indexed": false,
          "internalType": "uint256",
          "name": "feeAmountUSDT",
          "type": "uint256"
        },
        {
          "indexed": false,
          "internalType": "uint256",
          "name": "saleValueUSDT",
          "type": "uint256"
        },
        {
          "indexed": false,
          "internalType": "uint256",
          "name": "userInvestmentUSDT",
          "type": "uint256"
        }
      ],
      "name": "NoProfitFeeCollected",
      "type": "event"
    },
    {
      "anonymous": false,
      "inputs": [
        {
          "indexed": true,
          "internalType": "address",
          "name": "previousOwner",
          "type": "address"
        },
        {
          "indexed": true,
          "internalType": "address",
          "name": "newOwner",
          "type": "address"
        }
      ],
      "name": "OwnershipTransferred",
      "type": "event"
    },
    {
      "anonymous": false,
      "inputs": [
        {
          "indexed": false,
          "internalType": "uint256",
          "name": "newDuration",
          "type": "uint256"
        }
      ],
      "name": "PresaleDurationUpdated",
      "type": "event"
    },
    {
      "anonymous": false,
      "inputs": [
        {
          "indexed": false,
          "internalType": "bool",
          "name": "active",
          "type": "bool"
        }
      ],
      "name": "PresaleStatusUpdated",
      "type": "event"
    },
    {
      "anonymous": false,
      "inputs": [
        {
          "indexed": true,
          "internalType": "address",
          "name": "seller",
          "type": "address"
        },
        {
          "indexed": true,
          "internalType": "uint256",
          "name": "timestamp",
          "type": "uint256"
        },
        {
          "indexed": false,
          "internalType": "uint256",
          "name": "originalXFAmount",
          "type": "uint256"
        },
        {
          "indexed": false,
          "internalType": "uint256",
          "name": "tradingFeeXF",
          "type": "uint256"
        },
        {
          "indexed": false,
          "internalType": "uint256",
          "name": "marketingFeeXF",
          "type": "uint256"
        },
        {
          "indexed": false,
          "internalType": "uint256",
          "name": "lpFeeXF",
          "type": "uint256"
        },
        {
          "indexed": false,
          "internalType": "uint256",
          "name": "netXFAfterTradingFees",
          "type": "uint256"
        },
        {
          "indexed": false,
          "internalType": "uint256",
          "name": "estimatedUSDTFromSale",
          "type": "uint256"
        },
        {
          "indexed": false,
          "internalType": "uint256",
          "name": "userHistoricalInvestment",
          "type": "uint256"
        },
        {
          "indexed": false,
          "internalType": "uint256",
          "name": "totalProfitAmount",
          "type": "uint256"
        },
        {
          "indexed": false,
          "internalType": "uint256",
          "name": "profitTaxUSDT",
          "type": "uint256"
        },
        {
          "indexed": false,
          "internalType": "uint256",
          "name": "noProfitFeeUSDT",
          "type": "uint256"
        },
        {
          "indexed": false,
          "internalType": "uint256",
          "name": "profitTaxToMarketing",
          "type": "uint256"
        },
        {
          "indexed": false,
          "internalType": "uint256",
          "name": "profitTaxToReferrer",
          "type": "uint256"
        },
        {
          "indexed": false,
          "internalType": "uint256",
          "name": "userNetProfitUSDT",
          "type": "uint256"
        },
        {
          "indexed": false,
          "internalType": "uint256",
          "name": "finalUSDTReceived",
          "type": "uint256"
        },
        {
          "indexed": false,
          "internalType": "address",
          "name": "referrer",
          "type": "address"
        }
      ],
      "name": "SellTransaction",
      "type": "event"
    },
    {
      "anonymous": false,
      "inputs": [
        {
          "indexed": false,
          "internalType": "string",
          "name": "reason",
          "type": "string"
        },
        {
          "indexed": false,
          "internalType": "uint256",
          "name": "tokenAmount",
          "type": "uint256"
        },
        {
          "indexed": false,
          "internalType": "uint256",
          "name": "timestamp",
          "type": "uint256"
        }
      ],
      "name": "SwapFailed",
      "type": "event"
    },
    {
      "anonymous": false,
      "inputs": [
        {
          "indexed": false,
          "internalType": "uint256",
          "name": "amount",
          "type": "uint256"
        }
      ],
      "name": "TokensBurned",
      "type": "event"
    },
    {
      "anonymous": false,
      "inputs": [
        {
          "indexed": true,
          "internalType": "address",
          "name": "user",
          "type": "address"
        },
        {
          "indexed": true,
          "internalType": "uint256",
          "name": "timestamp",
          "type": "uint256"
        },
        {
          "indexed": true,
          "internalType": "string",
          "name": "txType",
          "type": "string"
        },
        {
          "indexed": false,
          "internalType": "uint256",
          "name": "tokenAmount",
          "type": "uint256"
        },
        {
          "indexed": false,
          "internalType": "uint256",
          "name": "usdtAmount",
          "type": "uint256"
        },
        {
          "indexed": false,
          "internalType": "uint256",
          "name": "netUserReceived",
          "type": "uint256"
        },
        {
          "indexed": false,
          "internalType": "uint256",
          "name": "previousInvestment",
          "type": "uint256"
        },
        {
          "indexed": false,
          "internalType": "uint256",
          "name": "newInvestment",
          "type": "uint256"
        },
        {
          "indexed": false,
          "internalType": "uint256",
          "name": "burnFee",
          "type": "uint256"
        },
        {
          "indexed": false,
          "internalType": "uint256",
          "name": "lpFee",
          "type": "uint256"
        },
        {
          "indexed": false,
          "internalType": "uint256",
          "name": "marketingFee",
          "type": "uint256"
        },
        {
          "indexed": false,
          "internalType": "uint256",
          "name": "profitAmount",
          "type": "uint256"
        },
        {
          "indexed": false,
          "internalType": "uint256",
          "name": "profitTax",
          "type": "uint256"
        },
        {
          "indexed": false,
          "internalType": "address",
          "name": "referrer",
          "type": "address"
        }
      ],
      "name": "TransactionExecuted",
      "type": "event"
    },
    {
      "anonymous": false,
      "inputs": [
        {
          "indexed": true,
          "internalType": "address",
          "name": "from",
          "type": "address"
        },
        {
          "indexed": true,
          "internalType": "address",
          "name": "to",
          "type": "address"
        },
        {
          "indexed": false,
          "internalType": "uint256",
          "name": "value",
          "type": "uint256"
        }
      ],
      "name": "Transfer",
      "type": "event"
    },
    {
      "anonymous": false,
      "inputs": [
        {
          "indexed": true,
          "internalType": "address",
          "name": "from",
          "type": "address"
        },
        {
          "indexed": true,
          "internalType": "address",
          "name": "to",
          "type": "address"
        },
        {
          "indexed": false,
          "internalType": "uint256",
          "name": "feeAmount",
          "type": "uint256"
        },
        {
          "indexed": false,
          "internalType": "uint256",
          "name": "netAmount",
          "type": "uint256"
        },
        {
          "indexed": false,
          "internalType": "string",
          "name": "transferType",
          "type": "string"
        }
      ],
      "name": "TransferFeeCollected",
      "type": "event"
    },
    {
      "anonymous": false,
      "inputs": [
        {
          "indexed": true,
          "internalType": "address",
          "name": "user",
          "type": "address"
        },
        {
          "indexed": true,
          "internalType": "uint256",
          "name": "timestamp",
          "type": "uint256"
        },
        {
          "indexed": false,
          "internalType": "string",
          "name": "txType",
          "type": "string"
        },
        {
          "indexed": false,
          "internalType": "uint256",
          "name": "tokenAmount",
          "type": "uint256"
        },
        {
          "indexed": false,
          "internalType": "uint256",
          "name": "usdtAmount",
          "type": "uint256"
        },
        {
          "indexed": false,
          "internalType": "uint256",
          "name": "netReceived",
          "type": "uint256"
        }
      ],
      "name": "UserTransaction",
      "type": "event"
    },
    {
      "inputs": [],
      "name": "DEAD_ADDRESS",
      "outputs": [
        {
          "internalType": "address",
          "name": "",
          "type": "address"
        }
      ],
      "stateMutability": "view",
      "type": "function"
    },
    {
      "inputs": [],
      "name": "USDT",
      "outputs": [
        {
          "internalType": "address",
          "name": "",
          "type": "address"
        }
      ],
      "stateMutability": "view",
      "type": "function"
    },
    {
      "inputs": [
        {
          "internalType": "address",
          "name": "owner",
          "type": "address"
        },
        {
          "internalType": "address",
          "name": "spender",
          "type": "address"
        }
      ],
      "name": "allowance",
      "outputs": [
        {
          "internalType": "uint256",
          "name": "",
          "type": "uint256"
        }
      ],
      "stateMutability": "view",
      "type": "function"
    },
    {
      "inputs": [],
      "name": "amountLPFee",
      "outputs": [
        {
          "internalType": "uint256",
          "name": "",
          "type": "uint256"
        }
      ],
      "stateMutability": "view",
      "type": "function"
    },
    {
      "inputs": [],
      "name": "amountMarketingFee",
      "outputs": [
        {
          "internalType": "uint256",
          "name": "",
          "type": "uint256"
        }
      ],
      "stateMutability": "view",
      "type": "function"
    },
    {
      "inputs": [
        {
          "internalType": "address",
          "name": "spender",
          "type": "address"
        },
        {
          "internalType": "uint256",
          "name": "value",
          "type": "uint256"
        }
      ],
      "name": "approve",
      "outputs": [
        {
          "internalType": "bool",
          "name": "",
          "type": "bool"
        }
      ],
      "stateMutability": "nonpayable",
      "type": "function"
    },
    {
      "inputs": [
        {
          "internalType": "address",
          "name": "account",
          "type": "address"
        }
      ],
      "name": "balanceOf",
      "outputs": [
        {
          "internalType": "uint256",
          "name": "",
          "type": "uint256"
        }
      ],
      "stateMutability": "view",
      "type": "function"
    },
    {
      "inputs": [
        {
          "internalType": "address",
          "name": "",
          "type": "address"
        }
      ],
      "name": "blacklisted",
      "outputs": [
        {
          "internalType": "bool",
          "name": "",
          "type": "bool"
        }
      ],
      "stateMutability": "view",
      "type": "function"
    },
    {
      "inputs": [],
      "name": "coldTime",
      "outputs": [
        {
          "internalType": "uint256",
          "name": "",
          "type": "uint256"
        }
      ],
      "stateMutability": "view",
      "type": "function"
    },
    {
      "inputs": [],
      "name": "contractDeployTime",
      "outputs": [
        {
          "internalType": "uint256",
          "name": "",
          "type": "uint256"
        }
      ],
      "stateMutability": "view",
      "type": "function"
    },
    {
      "inputs": [],
      "name": "decimals",
      "outputs": [
        {
          "internalType": "uint8",
          "name": "",
          "type": "uint8"
        }
      ],
      "stateMutability": "view",
      "type": "function"
    },
    {
      "inputs": [],
      "name": "delayedBuyEnabled",
      "outputs": [
        {
          "internalType": "bool",
          "name": "",
          "type": "bool"
        }
      ],
      "stateMutability": "view",
      "type": "function"
    },
    {
      "inputs": [],
      "name": "delayedBuyEnabledTime",
      "outputs": [
        {
          "internalType": "uint256",
          "name": "",
          "type": "uint256"
        }
      ],
      "stateMutability": "view",
      "type": "function"
    },
    {
      "inputs": [
        {
          "internalType": "address",
          "name": "",
          "type": "address"
        }
      ],
      "name": "feeWhitelisted",
      "outputs": [
        {
          "internalType": "bool",
          "name": "",
          "type": "bool"
        }
      ],
      "stateMutability": "view",
      "type": "function"
    },
    {
      "inputs": [],
      "name": "fundRelay",
      "outputs": [
        {
          "internalType": "contract FundRelay",
          "name": "",
          "type": "address"
        }
      ],
      "stateMutability": "view",
      "type": "function"
    },
    {
      "inputs": [],
      "name": "getAccumulatedFees",
      "outputs": [
        {
          "internalType": "uint256",
          "name": "marketing",
          "type": "uint256"
        },
        {
          "internalType": "uint256",
          "name": "lp",
          "type": "uint256"
        },
        {
          "internalType": "uint256",
          "name": "threshold",
          "type": "uint256"
        }
      ],
      "stateMutability": "view",
      "type": "function"
    },
    {
      "inputs": [
        {
          "internalType": "uint256",
          "name": "amountOut",
          "type": "uint256"
        },
        {
          "internalType": "uint256",
          "name": "reserveIn",
          "type": "uint256"
        },
        {
          "internalType": "uint256",
          "name": "reserveOut",
          "type": "uint256"
        }
      ],
      "name": "getAmountIn",
      "outputs": [
        {
          "internalType": "uint256",
          "name": "amountIn",
          "type": "uint256"
        }
      ],
      "stateMutability": "pure",
      "type": "function"
    },
    {
      "inputs": [
        {
          "internalType": "uint256",
          "name": "amountIn",
          "type": "uint256"
        },
        {
          "internalType": "uint256",
          "name": "reserveIn",
          "type": "uint256"
        },
        {
          "internalType": "uint256",
          "name": "reserveOut",
          "type": "uint256"
        }
      ],
      "name": "getAmountOut",
      "outputs": [
        {
          "internalType": "uint256",
          "name": "amountOut",
          "type": "uint256"
        }
      ],
      "stateMutability": "pure",
      "type": "function"
    },
    {
      "inputs": [],
      "name": "getDelayedBuyInfo",
      "outputs": [
        {
          "internalType": "bool",
          "name": "enabled",
          "type": "bool"
        },
        {
          "internalType": "bool",
          "name": "testModeActive",
          "type": "bool"
        },
        {
          "internalType": "uint256",
          "name": "enabledTime",
          "type": "uint256"
        },
        {
          "internalType": "uint256",
          "name": "requiredDelay",
          "type": "uint256"
        },
        {
          "internalType": "uint256",
          "name": "remainingDelay",
          "type": "uint256"
        }
      ],
      "stateMutability": "view",
      "type": "function"
    },
    {
      "inputs": [],
      "name": "getDelayedSwapStatus",
      "outputs": [
        {
          "internalType": "bool",
          "name": "pending",
          "type": "bool"
        },
        {
          "internalType": "uint256",
          "name": "totalFees",
          "type": "uint256"
        }
      ],
      "stateMutability": "view",
      "type": "function"
    },
    {
      "inputs": [],
      "name": "getFundRelay",
      "outputs": [
        {
          "internalType": "address",
          "name": "",
          "type": "address"
        }
      ],
      "stateMutability": "view",
      "type": "function"
    },
    {
      "inputs": [],
      "name": "getPresaleStatus",
      "outputs": [
        {
          "internalType": "bool",
          "name": "active",
          "type": "bool"
        },
        {
          "internalType": "uint256",
          "name": "startTime",
          "type": "uint256"
        },
        {
          "internalType": "uint256",
          "name": "duration",
          "type": "uint256"
        },
        {
          "internalType": "uint256",
          "name": "remainingTime",
          "type": "uint256"
        },
        {
          "internalType": "bool",
          "name": "isInPresale",
          "type": "bool"
        }
      ],
      "stateMutability": "view",
      "type": "function"
    },
    {
      "inputs": [],
      "name": "getUSDTReserve",
      "outputs": [
        {
          "internalType": "uint112",
          "name": "usdtReserve",
          "type": "uint112"
        }
      ],
      "stateMutability": "view",
      "type": "function"
    },
    {
      "inputs": [],
      "name": "getUniswapV2Pair",
      "outputs": [
        {
          "internalType": "address",
          "name": "",
          "type": "address"
        }
      ],
      "stateMutability": "view",
      "type": "function"
    },
    {
      "inputs": [
        {
          "internalType": "address",
          "name": "user",
          "type": "address"
        }
      ],
      "name": "getUserInvestment",
      "outputs": [
        {
          "internalType": "uint256",
          "name": "investment",
          "type": "uint256"
        },
        {
          "internalType": "uint256",
          "name": "lastBuy",
          "type": "uint256"
        }
      ],
      "stateMutability": "view",
      "type": "function"
    },
    {
      "inputs": [],
      "name": "initializeWhitelist",
      "outputs": [],
      "stateMutability": "nonpayable",
      "type": "function"
    },
    {
      "inputs": [
        {
          "internalType": "address",
          "name": "account",
          "type": "address"
        }
      ],
      "name": "isContract",
      "outputs": [
        {
          "internalType": "bool",
          "name": "",
          "type": "bool"
        }
      ],
      "stateMutability": "view",
      "type": "function"
    },
    {
      "inputs": [
        {
          "internalType": "address",
          "name": "buyer",
          "type": "address"
        }
      ],
      "name": "isDelayedBuyPeriodMet",
      "outputs": [
        {
          "internalType": "bool",
          "name": "",
          "type": "bool"
        }
      ],
      "stateMutability": "view",
      "type": "function"
    },
    {
      "inputs": [
        {
          "internalType": "address",
          "name": "",
          "type": "address"
        }
      ],
      "name": "lastBuyTime",
      "outputs": [
        {
          "internalType": "uint256",
          "name": "",
          "type": "uint256"
        }
      ],
      "stateMutability": "view",
      "type": "function"
    },
    {
      "inputs": [],
      "name": "liquidityThreshold",
      "outputs": [
        {
          "internalType": "uint256",
          "name": "",
          "type": "uint256"
        }
      ],
      "stateMutability": "view",
      "type": "function"
    },
    {
      "inputs": [],
      "name": "marketingAddress",
      "outputs": [
        {
          "internalType": "address",
          "name": "",
          "type": "address"
        }
      ],
      "stateMutability": "view",
      "type": "function"
    },
    {
      "inputs": [],
      "name": "name",
      "outputs": [
        {
          "internalType": "string",
          "name": "",
          "type": "string"
        }
      ],
      "stateMutability": "view",
      "type": "function"
    },
    {
      "inputs": [],
      "name": "nodeDividendAddress",
      "outputs": [
        {
          "internalType": "address",
          "name": "",
          "type": "address"
        }
      ],
      "stateMutability": "view",
      "type": "function"
    },
    {
      "inputs": [],
      "name": "owner",
      "outputs": [
        {
          "internalType": "address",
          "name": "",
          "type": "address"
        }
      ],
      "stateMutability": "view",
      "type": "function"
    },
    {
      "inputs": [],
      "name": "presaleActive",
      "outputs": [
        {
          "internalType": "bool",
          "name": "",
          "type": "bool"
        }
      ],
      "stateMutability": "view",
      "type": "function"
    },
    {
      "inputs": [],
      "name": "presaleDuration",
      "outputs": [
        {
          "internalType": "uint256",
          "name": "",
          "type": "uint256"
        }
      ],
      "stateMutability": "view",
      "type": "function"
    },
    {
      "inputs": [],
      "name": "presaleStartTime",
      "outputs": [
        {
          "internalType": "uint256",
          "name": "",
          "type": "uint256"
        }
      ],
      "stateMutability": "view",
      "type": "function"
    },
    {
      "inputs": [
        {
          "internalType": "address",
          "name": "token",
          "type": "address"
        },
        {
          "internalType": "uint256",
          "name": "amount",
          "type": "uint256"
        }
      ],
      "name": "recoverStuckTokens",
      "outputs": [],
      "stateMutability": "nonpayable",
      "type": "function"
    },
    {
      "inputs": [
        {
          "internalType": "uint256",
          "name": "amount",
          "type": "uint256"
        }
      ],
      "name": "recycle",
      "outputs": [],
      "stateMutability": "nonpayable",
      "type": "function"
    },
    {
      "inputs": [],
      "name": "renounceOwnership",
      "outputs": [],
      "stateMutability": "nonpayable",
      "type": "function"
    },
    {
      "inputs": [],
      "name": "rootAddress",
      "outputs": [
        {
          "internalType": "address",
          "name": "",
          "type": "address"
        }
      ],
      "stateMutability": "view",
      "type": "function"
    },
    {
      "inputs": [
        {
          "internalType": "address[]",
          "name": "accounts",
          "type": "address[]"
        },
        {
          "internalType": "bool",
          "name": "_blacklisted",
          "type": "bool"
        }
      ],
      "name": "setBatchBlacklisted",
      "outputs": [],
      "stateMutability": "nonpayable",
      "type": "function"
    },
    {
      "inputs": [
        {
          "internalType": "address[]",
          "name": "accounts",
          "type": "address[]"
        },
        {
          "internalType": "bool",
          "name": "_whitelisted",
          "type": "bool"
        }
      ],
      "name": "setBatchFeeWhitelisted",
      "outputs": [],
      "stateMutability": "nonpayable",
      "type": "function"
    },
    {
      "inputs": [
        {
          "internalType": "address",
          "name": "account",
          "type": "address"
        },
        {
          "internalType": "bool",
          "name": "_blacklisted",
          "type": "bool"
        }
      ],
      "name": "setBlacklisted",
      "outputs": [],
      "stateMutability": "nonpayable",
      "type": "function"
    },
    {
      "inputs": [
        {
          "internalType": "uint256",
          "name": "_coldTime",
          "type": "uint256"
        }
      ],
      "name": "setColdTime",
      "outputs": [],
      "stateMutability": "nonpayable",
      "type": "function"
    },
    {
      "inputs": [
        {
          "internalType": "bool",
          "name": "_enabled",
          "type": "bool"
        }
      ],
      "name": "setDelayedBuyEnabled",
      "outputs": [],
      "stateMutability": "nonpayable",
      "type": "function"
    },
    {
      "inputs": [
        {
          "internalType": "address",
          "name": "account",
          "type": "address"
        },
        {
          "internalType": "bool",
          "name": "whitelisted",
          "type": "bool"
        }
      ],
      "name": "setFeeWhitelisted",
      "outputs": [],
      "stateMutability": "nonpayable",
      "type": "function"
    },
    {
      "inputs": [
        {
          "internalType": "address",
          "name": "_fundRelay",
          "type": "address"
        }
      ],
      "name": "setFundRelay",
      "outputs": [],
      "stateMutability": "nonpayable",
      "type": "function"
    },
    {
      "inputs": [
        {
          "internalType": "uint256",
          "name": "newThreshold",
          "type": "uint256"
        }
      ],
      "name": "setLiquidityThreshold",
      "outputs": [],
      "stateMutability": "nonpayable",
      "type": "function"
    },
    {
      "inputs": [
        {
          "internalType": "address",
          "name": "_newAddress",
          "type": "address"
        }
      ],
      "name": "setMarketingAddress",
      "outputs": [],
      "stateMutability": "nonpayable",
      "type": "function"
    },
    {
      "inputs": [
        {
          "internalType": "address",
          "name": "_node",
          "type": "address"
        }
      ],
      "name": "setNodeDividendAddress",
      "outputs": [],
      "stateMutability": "nonpayable",
      "type": "function"
    },
    {
      "inputs": [
        {
          "internalType": "address",
          "name": "_pair",
          "type": "address"
        }
      ],
      "name": "setPair",
      "outputs": [],
      "stateMutability": "nonpayable",
      "type": "function"
    },
    {
      "inputs": [
        {
          "internalType": "bool",
          "name": "_active",
          "type": "bool"
        }
      ],
      "name": "setPresaleActive",
      "outputs": [],
      "stateMutability": "nonpayable",
      "type": "function"
    },
    {
      "inputs": [],
      "name": "setPresaleDuration",
      "outputs": [],
      "stateMutability": "nonpayable",
      "type": "function"
    },
    {
      "inputs": [
        {
          "internalType": "uint256",
          "name": "_swapAtAmount",
          "type": "uint256"
        }
      ],
      "name": "setSwapAtAmount",
      "outputs": [],
      "stateMutability": "nonpayable",
      "type": "function"
    },
    {
      "inputs": [],
      "name": "staking",
      "outputs": [
        {
          "internalType": "contract IStaking",
          "name": "",
          "type": "address"
        }
      ],
      "stateMutability": "view",
      "type": "function"
    },
    {
      "inputs": [],
      "name": "swapAtAmount",
      "outputs": [
        {
          "internalType": "uint256",
          "name": "",
          "type": "uint256"
        }
      ],
      "stateMutability": "view",
      "type": "function"
    },
    {
      "inputs": [],
      "name": "symbol",
      "outputs": [
        {
          "internalType": "string",
          "name": "",
          "type": "string"
        }
      ],
      "stateMutability": "view",
      "type": "function"
    },
    {
      "inputs": [],
      "name": "totalSupply",
      "outputs": [
        {
          "internalType": "uint256",
          "name": "",
          "type": "uint256"
        }
      ],
      "stateMutability": "view",
      "type": "function"
    },
    {
      "inputs": [
        {
          "internalType": "address",
          "name": "to",
          "type": "address"
        },
        {
          "internalType": "uint256",
          "name": "value",
          "type": "uint256"
        }
      ],
      "name": "transfer",
      "outputs": [
        {
          "internalType": "bool",
          "name": "",
          "type": "bool"
        }
      ],
      "stateMutability": "nonpayable",
      "type": "function"
    },
    {
      "inputs": [
        {
          "internalType": "address",
          "name": "from",
          "type": "address"
        },
        {
          "internalType": "address",
          "name": "to",
          "type": "address"
        },
        {
          "internalType": "uint256",
          "name": "value",
          "type": "uint256"
        }
      ],
      "name": "transferFrom",
      "outputs": [
        {
          "internalType": "bool",
          "name": "",
          "type": "bool"
        }
      ],
      "stateMutability": "nonpayable",
      "type": "function"
    },
    {
      "inputs": [
        {
          "internalType": "address",
          "name": "newOwner",
          "type": "address"
        }
      ],
      "name": "transferOwnership",
      "outputs": [],
      "stateMutability": "nonpayable",
      "type": "function"
    },
    {
      "inputs": [],
      "name": "triggerFeeProcessing",
      "outputs": [],
      "stateMutability": "nonpayable",
      "type": "function"
    },
    {
      "inputs": [],
      "name": "triggerFundRelayDistribution",
      "outputs": [],
      "stateMutability": "nonpayable",
      "type": "function"
    },
    {
      "inputs": [],
      "name": "uniswapV2Pair",
      "outputs": [
        {
          "internalType": "contract IUniswapV2Pair",
          "name": "",
          "type": "address"
        }
      ],
      "stateMutability": "view",
      "type": "function"
    },
    {
      "inputs": [],
      "name": "uniswapV2Router",
      "outputs": [
        {
          "internalType": "contract IUniswapV2Router02",
          "name": "",
          "type": "address"
        }
      ],
      "stateMutability": "view",
      "type": "function"
    },
    {
      "inputs": [
        {
          "internalType": "address",
          "name": "",
          "type": "address"
        }
      ],
      "name": "userInvestment",
      "outputs": [
        {
          "internalType": "uint256",
          "name": "",
          "type": "uint256"
        }
      ],
      "stateMutability": "view",
      "type": "function"
    }
  ],
  "bytecode": "0x60e0806040523461053257608081613b26803803809161001f8285610537565b833981010312610532576100328161055a565b9061003f6020820161055a565b61005760606100506040850161055a565b930161055a565b92604051610066604082610537565b600981526829aca4902a37b5b2b760b91b60208201526040519061008b604083610537565b600382526253594960e81b60208301528051906001600160401b03821161042f5760035490600182811c92168015610528575b602083101461040f5781601f8493116104b8575b50602090601f831160011461045057600092610445575b50508160011b916000199060031b1c1916176003555b8051906001600160401b03821161042f5760045490600182811c92168015610425575b602083101461040f5781601f84931161039f575b50602090601f83116001146103375760009261032c575b50508160011b916000199060031b1c1916176004555b33156103165760058054336001600160a01b0319821681179092556001600160a01b03167f8be0079c531659141344cd1fd0a4f28419497f9722a3daafe3b4186f6b6457e0600080a3600a600b5569021e19e0c9bab2400000600e55633b9aca006019556001600160a01b038116158015610305575b80156102f4575b80156102e3575b6102d2576080526001600160a01b0390811660a05290811660c052600980546001600160a01b031916929091169190911790556102233361056e565b4260125542600f5562278d00601055600160ff1960115416176011556040516135239081610603823960805181818161073901528181611ab70152818161234a01528181612a0601528181612c5b01528181612d3f01528181612ee70152613412015260a05181818161141e015281816115cf015281816128ce015281816129410152612f13015260c0518181816104a70152818161101801528181611089015281816112bc01526113d60152f35b63d92e233d60e01b60005260046000fd5b506001600160a01b038416156101e7565b506001600160a01b038316156101e0565b506001600160a01b038216156101d9565b631e4fbdf760e01b600052600060045260246000fd5b01519050388061014d565b600460009081528281209350601f198516905b818110610387575090846001959493921061036e575b505050811b01600455610163565b015160001960f88460031b161c19169055388080610360565b9293602060018192878601518155019501930161034a565b60046000529091507f8a35acfbc15ff81a39ae7d344fd709f28e8600b4aa8c65c6b64bfe7fe36bd19b601f840160051c81019160208510610405575b90601f859493920160051c01905b8181106103f65750610136565b600081558493506001016103e9565b90915081906103db565b634e487b7160e01b600052602260045260246000fd5b91607f1691610122565b634e487b7160e01b600052604160045260246000fd5b0151905038806100e9565b600360009081528281209350601f198516905b8181106104a05750908460019594939210610487575b505050811b016003556100ff565b015160001960f88460031b161c19169055388080610479565b92936020600181928786015181550195019301610463565b60036000529091507fc2575a0e9e593c00f959f8c92f12db2869c3395a3b0502d05e2516446f71f85b601f840160051c8101916020851061051e575b90601f859493920160051c01905b81811061050f57506100d2565b60008155849350600101610502565b90915081906104f4565b91607f16916100be565b600080fd5b601f909101601f19168101906001600160401b0382119082101761042f57604052565b51906001600160a01b038216820361053257565b6a084595161401484a000000906000906002548381018091116105ec577fddf252ad1be2c89b69c2b068fc378daa952ba7f163c4a11628f55a4df523b3ef916020916002556001600160a01b031693846105d45780600254036002555b604051908152a3565b846000526000825260406000208181540190556105cb565b634e487b7160e01b600052601160045260246000fdfe6080604052600436101561001257600080fd5b6000803560e01c8063054d50d41461170957806306fdde031461164c578063095ea7b31461162557806316279055146115fe5780631694505e146115b957806318160ddd1461159b5780631abfa629146110db57806321e2c9571461153f57806323b872dd1461145e5780632927bacd1461136e578063313ce5671461135257806332f658811461130857806336543fb9146112ea57806338a674c5146112515780633c19814e146112055780633f8121a2146111635780633fecc2e21461112a57806343a066aa1461110457806349bd5a5e146110db5780634baf59f3146110b85780634cf088d9146110735780634e6fd6c41461105657806352795e0b1461100157806353135ca014610fde578063569ea10114610f9f578063570475dc14610f705780635868c32a14610f525780635df45a3714610f23578063615c440914610efa578063622e6ad814610ed75780636402511e14610eb457806366d57b9514610e9657806370a0823114610e5c578063715018a614610dff5780637464024c146108d95780638187f51614610d9857806385f8c25914610d76578063861bd3c514610c8f5780638691752414610c715780638733cfd314610c3857806387894d0314610c0a5780638da5cb5b14610be1578063906e9dd014610b4657806390e82f2414610a4f5780639315e56114610a3157806395d89b41146109205780639f54790d14610902578063a4823059146108d9578063a5ece941146108b0578063a82524b214610892578063a9059cbb14610860578063aaa2b8c814610837578063af24ccaa146107ba578063b99ce15e14610768578063c54e44eb14610723578063c596f3fe146106f5578063c9688086146106d7578063d01dd6d214610685578063d123de3114610659578063d4273cd61461063b578063d7517caa146105bc578063dbac26e91461057d578063dd1c35bc14610490578063dd62ed3e1461043b578063f2fde38b146103b2578063fdc0cdbf1461038e5763ff919151146102fe57600080fd5b3461038b578060031936011261038b5760115460135460a09260089290921c60ff16159190821561034c57815b604051931584526020840152604083015262278d0060608301526080820152f35b801561038357805b61035d81611875565b421061036a57508161032b565b61037d906103784291611875565b611b4e565b9161032b565b601254610354565b80fd5b503461038b578060031936011261038b576103a7611bda565b6103af61269b565b80f35b503461038b57602036600319011261038b576103cc611783565b6103d4611bda565b6001600160a01b0316801561042757600580546001600160a01b0319811683179091556001600160a01b03167f8be0079c531659141344cd1fd0a4f28419497f9722a3daafe3b4186f6b6457e08380a380f35b631e4fbdf760e01b82526004829052602482fd5b503461038b57604036600319011261038b576040610457611783565b91610460611799565b9260018060a01b031681526001602052209060018060a01b03166000526020526020604060002054604051908152f35b503461038b57602036600319011261038b576004357f00000000000000000000000000000000000000000000000000000000000000006001600160a01b03166104da338214611831565b6006546001600160a01b031660008181526020819052604090205490929060039004908181106105755750905b81610510578380f35b61051992611c03565b60065481906001600160a01b0316803b156105725781809160046040518095819363fff6cae960e01b83525af180156105655761055557818380f35b61055e916117e1565b3881818380f35b50604051903d90823e3d90fd5b50fd5b905090610507565b503461038b57602036600319011261038b5760209060ff906040906001600160a01b036105a8611783565b168152601884522054166040519015158152f35b503461038b578060031936011261038b5760a090600f54906010546105e1818461189b565b918242109283600014610634576105fa91504290611b4e565b905b60115460ff169384938461062c575b50604051941515855260208501526040840152606083015215156080820152f35b93503861060b565b50906105fc565b503461038b578060031936011261038b576020601354604051908152f35b503461038b578060031936011261038b576020610674611a45565b6001600160701b0360405191168152f35b503461038b57604036600319011261038b576103af6106a2611783565b6106aa6117d2565b906106b3611bda565b60018060a01b031683526018602052604083209060ff801983541691151516179055565b503461038b578060031936011261038b576020601954604051908152f35b503461038b57604036600319011261038b576103af610712611783565b61071a611bda565b6024359061194d565b503461038b578060031936011261038b576040517f00000000000000000000000000000000000000000000000000000000000000006001600160a01b03168152602090f35b503461038b57604036600319011261038b576103af610785611783565b61078d6117d2565b90610796611bda565b60018060a01b031683526017602052604083209060ff801983541691151516179055565b503461038b57602036600319011261038b577f2c8ccbef4032016d78404afa804c622487ae3acab4caeff4b2dba121d7488c1860206107f76117c3565b6107ff611bda565b8015159060115461ff008360081b169061ff0019161760115560001461082e57426013555b604051908152a180f35b83601355610824565b503461038b578060031936011261038b576008546040516001600160a01b039091168152602090f35b503461038b57604036600319011261038b5761088761087d611783565b6024359033611c03565b602060405160018152f35b503461038b578060031936011261038b576020600f54604051908152f35b503461038b578060031936011261038b576009546040516001600160a01b039091168152602090f35b503461038b578060031936011261038b576007546040516001600160a01b039091168152602090f35b503461038b578060031936011261038b576020601254604051908152f35b503461038b578060031936011261038b576040519080600454908160011c91600181168015610a27575b602084108114610a13578386529081156109ec575060011461098f575b61098b84610977818603826117e1565b604051918291602083526020830190611742565b0390f35b600481527f8a35acfbc15ff81a39ae7d344fd709f28e8600b4aa8c65c6b64bfe7fe36bd19b939250905b8082106109d25750909150810160200161097782610967565b9192600181602092548385880101520191019092916109b9565b60ff191660208087019190915292151560051b850190920192506109779150839050610967565b634e487b7160e01b83526022600452602483fd5b92607f169261094a565b503461038b578060031936011261038b576020600d54604051908152f35b503461038b57604036600319011261038b5760043567ffffffffffffffff8111610b425736602382011215610b4257806004013590610a8d82611819565b91610a9b60405193846117e1565b8083526024602084019160051b83010191368311610b3e57602401905b828210610b26575050506024358015158103610b2257610ad6611bda565b825b8251811015610b1e576001906001600160a01b03610af682866118a8565b511685526017602052610b1883604087209060ff801983541691151516179055565b01610ad8565b8380f35b8280fd5b60208091610b33846117af565b815201910190610ab8565b8480fd5b5080fd5b503461038b57602036600319011261038b57610b60611783565b610b68611bda565b6001600160a01b03168015610bd257600980546001600160a01b031981168317909155818352601760205260408320805460ff191660011790556001600160a01b03167fa8efc72ed34f90017df79620d1972d42b8e3b17eb0077fc5fc46cbf1a19ed9a98380a380f35b63d92e233d60e01b8252600482fd5b503461038b578060031936011261038b576005546040516001600160a01b039091168152602090f35b503461038b57602036600319011261038b576020610c2e610c29611783565b6118d2565b6040519015158152f35b503461038b57602036600319011261038b576020906040906001600160a01b03610c60611783565b168152601583522054604051908152f35b503461038b578060031936011261038b576020600e54604051908152f35b503461038b57604036600319011261038b5760043567ffffffffffffffff8111610b425736602382011215610b4257806004013590610ccd82611819565b91610cdb60405193846117e1565b8083526024602084019160051b83010191368311610b3e57602401905b828210610d5e575050506024358015158103610b2257610d16611bda565b825b8251811015610b1e576001906001600160a01b03610d3682866118a8565b511685526018602052610d5883604087209060ff801983541691151516179055565b01610d18565b60208091610d6b846117af565b815201910190610cf8565b503461038b576020610d90610d8a36611723565b916126d1565b604051908152f35b503461038b57602036600319011261038b57610db2611783565b610dba611bda565b6001600160a01b03168015610bd2576006546001600160a01b038116610df0576001600160a01b031916176006556103af61269b565b63a741a04560e01b8352600483fd5b503461038b578060031936011261038b57610e18611bda565b600580546001600160a01b0319811690915581906001600160a01b03167f8be0079c531659141344cd1fd0a4f28419497f9722a3daafe3b4186f6b6457e08280a380f35b503461038b57602036600319011261038b576020610d90610e7b611783565b6001600160a01b031660009081526020819052604090205490565b503461038b578060031936011261038b576020600c54604051908152f35b503461038b57602036600319011261038b57610ece611bda565b600435600e5580f35b503461038b57602036600319011261038b57610ef1611bda565b600435600b5580f35b503461038b578060031936011261038b57600a546040516001600160a01b039091168152602090f35b503461038b578060031936011261038b576060600c54600d54600e549060405192835260208301526040820152f35b503461038b578060031936011261038b576020601054604051908152f35b503461038b578060031936011261038b57604090610f93600c54600d549061189b565b82519182526020820152f35b503461038b57602036600319011261038b5760209060ff906040906001600160a01b03610fca611783565b168152601784522054166040519015158152f35b503461038b578060031936011261038b57602060ff601154166040519015158152f35b503461038b578060031936011261038b57611046337f00000000000000000000000000000000000000000000000000000000000000006001600160a01b031614611831565b61104e6125c9565b6103af6124c1565b503461038b578060031936011261038b57602060405161dead8152f35b503461038b578060031936011261038b576040517f00000000000000000000000000000000000000000000000000000000000000006001600160a01b03168152602090f35b503461038b57602036600319011261038b576110d2611bda565b60043560195580f35b503461038b578060031936011261038b576006546040516001600160a01b039091168152602090f35b503461038b578060031936011261038b57602060ff60115460081c166040519015158152f35b503461038b57602036600319011261038b576020906040906001600160a01b03611152611783565b168152601683522054604051908152f35b503461038b57602036600319011261038b577ff19c3bdddf1b5ac58b32a05cc2bc72313b03a8e8ceb7621e8818651371e00e5460206111a06117c3565b6111a8611bda565b8015159060ff196011541660ff8316176011556111c957604051908152a180f35b42600f5562278d006010557fdbeb6ec948f6eb874ecbd6117742652c35d57fbe578b778b77e677a06af90b968260405162278d008152a1610824565b503461038b57602036600319011261038b5761121f611783565b611227611bda565b6001600160a01b03168015610bd2576bffffffffffffffffffffffff60a01b600a541617600a5580f35b503461038b578060031936011261038b576005546001600160a01b0316331480156112b8575b15611284576103af6124c1565b60405162461bcd60e51b815260206004820152600c60248201526b155b985d5d1a1bdc9a5e995960a21b6044820152606490fd5b50337f00000000000000000000000000000000000000000000000000000000000000006001600160a01b031614611277565b503461038b578060031936011261038b576020600b54604051908152f35b503461038b57602036600319011261038b57604090816001600160a01b0361132e611783565b16918281526015602052818120549281526016602052205482519182526020820152f35b503461038b578060031936011261038b57602060405160128152f35b503461038b578060031936011261038b57611387611bda565b601a5460ff811661145057600160ff199182168117601a556005546001600160a01b039081168452601760208181526040808720805487168617905530875282825280872080548716861790557f00000000000000000000000000000000000000000000000000000000000000008416875282825280872080548716861790556009548416875282825280872080548716861790557f00000000000000000000000000000000000000000000000000000000000000009093168652528320805490921617905580f35b62dc149f60e41b8252600482fd5b503461038b57606036600319011261038b57611478611783565b611480611799565b6001600160a01b038216808452600160209081526040808620338752909152842054604435939160001982106114bd575b50506108879350611c03565b8482106115245780156115105733156114fc5760408686926108879852600160205281812060018060a01b0333168252602052209103905538806114b1565b634a1406b160e11b86526004869052602486fd5b63e602df0560e01b86526004869052602486fd5b6064868684637dc7a0d960e11b835233600452602452604452fd5b503461038b57602036600319011261038b57611559611783565b611561611bda565b6001600160a01b03168015610bd257600780546001600160a01b031916821790558152601760205260408120805460ff1916600117905580f35b503461038b578060031936011261038b576020600254604051908152f35b503461038b578060031936011261038b576040517f00000000000000000000000000000000000000000000000000000000000000006001600160a01b03168152602090f35b503461038b57602036600319011261038b57602061161a611783565b3b1515604051908152f35b503461038b57604036600319011261038b57610887611642611783565b6024359033612728565b503461038b578060031936011261038b576040519080600354908160011c916001811680156116ff575b602084108114610a13578386529081156109ec57506001146116a25761098b84610977818603826117e1565b600381527fc2575a0e9e593c00f959f8c92f12db2869c3395a3b0502d05e2516446f71f85b939250905b8082106116e55750909150810160200161097782610967565b9192600181602092548385880101520191019092916116cc565b92607f1692611676565b503461038b576020610d9061171d36611723565b91611b8e565b606090600319011261173d57600435906024359060443590565b600080fd5b919082519283825260005b84811061176e575050826000602080949584010152601f8019910116010190565b8060208092840101518282860101520161174d565b600435906001600160a01b038216820361173d57565b602435906001600160a01b038216820361173d57565b35906001600160a01b038216820361173d57565b60043590811515820361173d57565b60243590811515820361173d57565b90601f8019910116810190811067ffffffffffffffff82111761180357604052565b634e487b7160e01b600052604160045260246000fd5b67ffffffffffffffff81116118035760051b60200190565b1561183857565b60405162461bcd60e51b815260206004820152601560248201527413db9b1e481cdd185ada5b99c818dbdb9d1c9858dd605a1b6044820152606490fd5b9062278d00820180921161188557565b634e487b7160e01b600052601160045260246000fd5b9190820180921161188557565b80518210156118bc5760209160051b010190565b634e487b7160e01b600052603260045260246000fd5b60ff60115460081c1615908115611912575b5061190d576013548015611901576118fb90611875565b42101590565b506118fb601254611875565b600190565b6001600160a01b031660009081526017602052604090205460ff169050386118e4565b9081602091031261173d5751801515810361173d5790565b6001600160a01b03163081146119d85760055460405163a9059cbb60e01b81526001600160a01b0390911660048201526024810192909252602090829060449082906000905af180156119cc576119a15750565b6119c29060203d6020116119c5575b6119ba81836117e1565b810190611935565b50565b503d6119b0565b6040513d6000823e3d90fd5b5050565b51906001600160701b038216820361173d57565b9081606091031261173d57611a04816119dc565b916040611a13602084016119dc565b92015163ffffffff8116810361173d5790565b9081602091031261173d57516001600160a01b038116810361173d5790565b600654604051630240bc6b60e21b8152906001600160a01b0316606082600481845afa9081600093600093611b16575b50611a8257505050600090565b602060049160405192838092630dfe168160e01b82525afa9081156119cc57600091611ae7575b506001600160a01b039081167f000000000000000000000000000000000000000000000000000000000000000090911603611ae2575090565b905090565b611b09915060203d602011611b0f575b611b0181836117e1565b810190611a26565b38611aa9565b503d611af7565b909250611b3c91935060603d606011611b47575b611b3481836117e1565b8101906119f0565b509290929138611a75565b503d611b2a565b9190820391821161188557565b8115611b65570490565b634e487b7160e01b600052601260045260246000fd5b8181029291811591840414171561188557565b916126f78302928084046126f7149015171561188557611bae9083611b7b565b90612710810290808204612710149015171561188557611bd792611bd19161189b565b90611b5b565b90565b6005546001600160a01b03163303611bee57565b63118cdaa760e01b6000523360045260246000fd5b6001600160a01b038116939291906000908515908180156124b0575b61248357868352601760205260ff6040842054168015612491575b61248357611c4884826128a4565b611c528583612918565b901561203857506001600160a01b0384168084526018602052604084205490949060ff166120295760115460ff8160081c1680612012575b611fc8575b60ff1680611fb1575b611fa3576064860286810460641487151715611f8f57612710900491611cbe8388611b4e565b9383611e60575b507ffde30999d0ea66fcaf14400b79c9e771a1a87176335a8cc91382321a3d0a0c1f9596979850611cf79184916127bb565b611d00826133a0565b928581526015602052604081205490611d19858361189b565b8782526015602052604082205586815260166020524260408220558681526015602052604081205460405190838252602082015285604082015260806060820152877ffa935fe56c7e4dc5d59a584d81aa99b9714c92d3b1cb2e7e329969203c3fd226429280611d9d60808201604090600381526242555960e81b60208201520190565b0390a3868152601560205260408120549260036040516242555960e81b81522093604051938a85528760208601528660408601526060850152608084015260a08301528060c08301528060e08301528061010083015280610120830152610140820152857f681f1f0fb3679a87b3423967dfa2ec97150b706d392eada5b3617c7508afc7656101604293a460405160808082526003908201526242555960e81b60a08201529160c08301956020840152604083015260608201528042940390a35b565b60009015611f1d5791849161dead7ffde30999d0ea66fcaf14400b79c9e771a1a87176335a8cc91382321a3d0a0c1f98999a9b611cf795611ea38860025461189b565b6002555b5081600052600060205260406000208781540190557fddf252ad1be2c89b69c2b068fc378daa952ba7f163c4a11628f55a4df523b3ef6020604051898152a37f6ef4855b666dcc7884561072e4358b28dfe01feb1b7f4dcebc00e62d50394ac76020604051878152a19150918998979650611cc5565b898152806020526040812054848110611f73579161dead8b838789967ffde30999d0ea66fcaf14400b79c9e771a1a87176335a8cc91382321a3d0a0c1f9c9d9e9f611cf799975282602052036040822055611ea7565b63391434e360e21b825260048b90526024526044849052606490fd5b634e487b7160e01b85526011600452602485fd5b624e610160e31b8452600484fd5b50611fc1600f546010549061189b565b4210611c98565b6013548015612009575b62278d008101809111611ff557421015611c8f576320cf80f960e01b8552600485fd5b634e487b7160e01b86526011600452602486fd5b50601254611fd2565b50858552601760205260ff60408620541615611c8a565b6309550c7760e01b8452600484fd5b9092959693915060001461246f57828552601860205260ff6040862054166124605782855260166020526120736040862054600b549061189b565b4210612451576096840284810460961485151715611ff55761271090049161209b8386611b4e565b926120a584612cc9565b9680938195878352601560205260408320549182151580612448575b6123f2575b6120d488610378878d611b4e565b906120df888d611b4e565b9450856123d3575b6000968799806122da575b50906120fe92916127bb565b6000888152601560205260409020548381116122cb5760005b896000526015602052604060002055886000526015602052604060002054604051918252602082015283604082015260806060820152600460808201526314d1531360e21b60a0820152887ffa935fe56c7e4dc5d59a584d81aa99b9714c92d3b1cb2e7e329969203c3fd22660c04293a38515806122c257612710870290878204612710141715611885576109c49004945b6000976121b68886611b4e565b91604051938c85528760208601528760408601528a606086015260808501528c60a08501528460c08501528760e08501528861010085015289610120850152610140840152610160830152610180820152826101a0820152866101c0820152877f14f1a00236d7bca73ddcf087e3d43ca785808697c6fde3616f17d02d6f2c68e36101e04293a3868652601560205260408620549160046040516314d1531360e21b81522099604051998a5260208a01526040890152606088015260808701528360a08701528360c087015260e08601526101008501526101208401526101408301527f681f1f0fb3679a87b3423967dfa2ec97150b706d392eada5b3617c7508afc7656101604293a4565b506000946121a9565b6122d58482611b4e565b612117565b806122e96122ee9230856127bb565b612dff565b80156120f257600a54919a509197612345916001600160a01b03168381156123be576020915b60405163a9059cbb60e01b81526001600160a01b039091166004820152602481019190915292839081906044820190565b0381847f00000000000000000000000000000000000000000000000000000000000000006001600160a01b03165af19081156123b257506120fe93929190612395575b50966000999091926120f2565b6123ad9060203d6020116119c5576119ba81836117e1565b612388565b604051903d90823e3d90fd5b600954602092506001600160a01b0316612314565b6123de8630896127bb565b6123ea86600c5461189b565b600c556120e7565b96509450612400818a611b4e565b6109c48102908082046109c414901517156124345761271090049461242e8a6124298389611b7b565b611b5b565b966120c6565b634e487b7160e01b83526011600452602483fd5b50828b116120c1565b63465fd09160e01b8552600485fd5b6309550c7760e01b8552600485fd5b915061247b93506127bb565b611e5e6125c9565b915050611e5e9394506127bb565b506001600160a01b03841683526017602052604083205460ff16611c3a565b506001600160a01b03841615611c1f565b600c54600e54811015806125bc575b6124d75750565b6124df612979565b1561255c5760405190815260606020820152600e60608201526d10555513d7d512149154d213d31160921b60808201524260408201527f0d8296aa488bfcef418c563cfdccad96b64e0d82f06eda3fe90068d39c9fb85c60a03392a2600160ff196014541617601455612550612b85565b60ff1960145416601455565b60a07fe87b88b4c27d1729d389885f3f6648294b68791762d08e1bc96ece2f6dff0b1491604051908152606060208201526016606082015275494e53554646494349454e545f4c495155494449545960501b6080820152426040820152a1565b5060ff60145416156124d0565b6007546001600160a01b031680156119c25760206000916004604051809481936327d16ce960e11b83525af160009181612667575b506126065750565b8061260e5750565b60176040517f46554e445f52454c41595f444953545249425554494f4e00000000000000000081522060405191825230917fdc0542397de1d347eb80cba6dcba197e295e2516706ef1dd5a16d8ac5fb3eeda60203092a4565b90916020823d602011612693575b81612682602093836117e1565b8101031261038b57505190386125fe565b3d9150612675565b62278d006010557fdbeb6ec948f6eb874ecbd6117742652c35d57fbe578b778b77e677a06af90b96602060405162278d008152a1565b9190826126dd91611b7b565b916127108302928084046127101490151715611885576126fc91611b4e565b6126f78102908082046126f714901517156118855761271a91611b5b565b600181018091116118855790565b6001600160a01b03169081156127a5576001600160a01b031691821561278f5760207f8c5be1e5ebec7d5bd14f71427d1e84f3dd0314c0f7b2291e5b200ac8c7c3b925918360005260018252604060002085600052825280604060002055604051908152a3565b634a1406b160e11b600052600060045260246000fd5b63e602df0560e01b600052600060045260246000fd5b6001600160a01b031690816128375760207fddf252ad1be2c89b69c2b068fc378daa952ba7f163c4a11628f55a4df523b3ef916127fa8560025461189b565b6002555b6001600160a01b0316938461281f5780600254036002555b604051908152a3565b84600052600082526040600020818154019055612816565b816000526000602052604060002054838110612887577fddf252ad1be2c89b69c2b068fc378daa952ba7f163c4a11628f55a4df523b3ef91846020928560005260008452036040600020556127fe565b91905063391434e360e21b60005260045260245260445260646000fd5b6006546001600160a01b03908116929116829003612911576001600160a01b0316818114612911577f00000000000000000000000000000000000000000000000000000000000000006001600160a01b03161461290b57330361290657600190565b600090565b50600090565b5050600090565b6006546001600160a01b039081169216829003612911576001600160a01b0316818114612911577f00000000000000000000000000000000000000000000000000000000000000006001600160a01b03161461290b57331461290657600190565b600c54801561290b57306000526000602052806040600020541061290b57600654604051630240bc6b60e21b8152906001600160a01b0316606082600481845afa9182600091600094612b61575b506129d55750505050600090565b604051630dfe168160e01b815290602082600481865afa9182156119cc57600092612b40575b506001600160a01b037f0000000000000000000000000000000000000000000000000000000000000000811692168203612b3a5792905b6001600160a01b03831660009081526020818152604090912054936024604051809481936370a0823160e01b835260048301525afa9081156119cc57600091612b08575b506001600160701b03821693605f850293851594868104605f14861715611885576064900411612afd576001600160701b0316605f810290808204605f1490151715611885576064900411612af4576e01fffffffffffffffffffffffffffe9060011b16918204600214171561188557606490041061290657600190565b50505050600090565b505050505050600090565b90506020813d602011612b32575b81612b23602093836117e1565b8101031261173d575138612a76565b3d9150612b16565b90612a32565b612b5a91925060203d602011611b0f57611b0181836117e1565b90386129fb565b909350612b7d915060603d606011611b4757611b3481836117e1565b5092386129c7565b600c5480156119c2576000600c55612b9c81612dff565b9081151580612cb5575b612c26575b60018060a01b036009541660106040516f414343554d554c415445445f4645455360801b8152209260405192835280602084015260006040840152606083015260006080830152600060a083015260c08201527f86e133fbf1e40a6a97b6c78d78538f95f9c3b84ec08e1a53eb43fb050d9acb9460e04292a3565b60095460405163a9059cbb60e01b81526001600160a01b039091166004820152602481018390526020818060448101038160007f00000000000000000000000000000000000000000000000000000000000000006001600160a01b03165af180156119cc57612c96575b50612bab565b612cae9060203d6020116119c5576119ba81836117e1565b5038612c90565b506009546001600160a01b03161515612ba6565b600654604051630240bc6b60e21b81526001600160a01b039091169190606081600481865afa9283600092600095612dd7575b50612d0a5750505050600090565b602060049160405192838092630dfe168160e01b82525afa9081156119cc57600091612db8575b506001600160a01b039081167f000000000000000000000000000000000000000000000000000000000000000090911603612daa576001600160701b0390925b1680151580612d98575b612d855780612af4565b6001600160701b03611bd7931691611b8e565b506001600160701b0383161515612d7b565b6001600160701b0390612d71565b612dd1915060203d602011611b0f57611b0181836117e1565b38612d31565b909450612df491925060603d606011611b4757611b3481836117e1565b509190919338612cfc565b612e1790600160ff1960145416176014556000612e99565b9060ff1960145416601455565b600060443d10611bd7576040513d600319016004823e8051913d602484011167ffffffffffffffff841117612e93578282019283519167ffffffffffffffff8311612e8b573d84016003190185840160200111612e8b5750611bd7929101602001906117e1565b949350505050565b92915050565b506000908015801561338c575b613388576060604051612eb982826117e1565b6002815260208101601f19830136823781511561337457308152815160011015613374576001600160a01b037f000000000000000000000000000000000000000000000000000000000000000081166040840181905292907f000000000000000000000000000000000000000000000000000000000000000016612f3e868230612728565b6007546001600160a01b0316801561336c57925b6040516370a0823160e01b815230600482015293602085602481895afa948515613361578995613329575b5061012c42019081421161331557833b15613311579391899391604051958694635c11d79560e01b865260a48601908c600488015287602488015260a060448801525180915260c486019390875b8181106132ec575050506001600160a01b03166064850152608484015282900390829084905af190816132d8575b506130bc575050907f23710c5e610526df3c632bc797fb4914964991cc07e128ee2af743aeed319e06918360033d116130ac575b6308c379a014613071575b60a091601260405192808452830152712ab735b737bbb71039bbb0b81032b93937b960711b60808301526020820152426040820152a190565b613079612e24565b9182613086579150613038565b61309a604051938385948552840190611742565b9060208301524260408301520390a190565b50600484803e835160e01c61302d565b6007546001600160a01b03169182156131d9575050602084916004604051809781936327d16ce960e11b83525af19384156105655781946131a5575b508315613106575b50505090565b7f23710c5e610526df3c632bc797fb4914964991cc07e128ee2af743aeed319e0660a07f163a4024b77f02bfab6d1e18c917f413dc151008cf420bf1e0309f0cf8d7b1fa94604051908582526019868301527f46756e6452656c6179207472616e73666572206661696c65640000000000000060808301526020820152426040820152a1604051908082526020820152426040820152a1388080613100565b9093506020813d6020116131d1575b816131c1602093836117e1565b8101031261173d575192386130f8565b3d91506131b4565b6040516370a0823160e01b815230600482015294959394919250602090829060249082905afa9081156132cd57839161329b575b5081811115613293576132209250611b4e565b915b821561322d57505090565b7f23710c5e610526df3c632bc797fb4914964991cc07e128ee2af743aeed319e069160a091601e604051928084528301527f44697265637420737761702072657475726e6564207a65726f2055534454000060808301526020820152426040820152a190565b505091613222565b90506020813d6020116132c5575b816132b6602093836117e1565b8101031261173d57513861320d565b3d91506132a9565b6040513d85823e3d90fd5b866132e5919792976117e1565b9438612ff9565b82516001600160a01b031686528e985089975060209586019590920191600101612fcb565b8980fd5b634e487b7160e01b8a52601160045260248afd5b9094506020813d602011613359575b81613345602093836117e1565b8101031261335557519338612f7d565b8880fd5b3d9150613338565b6040513d8b823e3d90fd5b503092612f52565b634e487b7160e01b85526032600452602485fd5b5090565b503082528160205280604083205410612ea6565b600654604051630240bc6b60e21b81526001600160a01b0390911690606081600481855afa91826000926000946134c5575b506133dd5750505090565b602060049160405192838092630dfe168160e01b82525afa9081156119cc576000916134a6575b506001600160a01b039081167f000000000000000000000000000000000000000000000000000000000000000090911603613498576001600160701b0390915b169081151580613486575b6134595780613100565b6127108302928084046127101490151715611885576001600160701b036125e4611bd794049116906126d1565b506001600160701b038116151561344f565b6001600160701b0390613444565b6134bf915060203d602011611b0f57611b0181836117e1565b38613404565b9093506134e291925060603d606011611b4757611b3481836117e1565b5091909192386133d256fea2646970667358221220a22469fcba7ca0e2b4ca48160395a4d4758f4de7846e26263fbf553fc1b2b8b164736f6c634300081c0033",
  "linkReferences": {},
  "deployedLinkReferences": {}
}