{
  "_format": "hh-sol-artifact-1",
  "contractName": "SYI",
  "sourceName": "contracts/SYI/mainnet/SYI.sol",
  "abi": [
    {
      "inputs": [
        {
          "internalType": "address",
          "name": "_usdt",
          "type": "address"
        },
        {
          "internalType": "address",
          "name": "_router",
          "type": "address"
        },
        {
          "internalType": "address",
          "name": "_staking",
          "type": "address"
        }
      ],
      "stateMutability": "nonpayable",
      "type": "constructor"
    },
    {
      "inputs": [],
      "name": "AlreadyInitialized",
      "type": "error"
    },
    {
      "inputs": [],
      "name": "AlreadySet",
      "type": "error"
    },
    {
      "inputs": [],
      "name": "Blacklisted",
      "type": "error"
    },
    {
      "inputs": [],
      "name": "DelayedBuyPeriodNotMet",
      "type": "error"
    },
    {
      "inputs": [
        {
          "internalType": "address",
          "name": "spender",
          "type": "address"
        },
        {
          "internalType": "uint256",
          "name": "allowance",
          "type": "uint256"
        },
        {
          "internalType": "uint256",
          "name": "needed",
          "type": "uint256"
        }
      ],
      "name": "ERC20InsufficientAllowance",
      "type": "error"
    },
    {
      "inputs": [
        {
          "internalType": "address",
          "name": "sender",
          "type": "address"
        },
        {
          "internalType": "uint256",
          "name": "balance",
          "type": "uint256"
        },
        {
          "internalType": "uint256",
          "name": "needed",
          "type": "uint256"
        }
      ],
      "name": "ERC20InsufficientBalance",
      "type": "error"
    },
    {
      "inputs": [
        {
          "internalType": "address",
          "name": "approver",
          "type": "address"
        }
      ],
      "name": "ERC20InvalidApprover",
      "type": "error"
    },
    {
      "inputs": [
        {
          "internalType": "address",
          "name": "receiver",
          "type": "address"
        }
      ],
      "name": "ERC20InvalidReceiver",
      "type": "error"
    },
    {
      "inputs": [
        {
          "internalType": "address",
          "name": "sender",
          "type": "address"
        }
      ],
      "name": "ERC20InvalidSender",
      "type": "error"
    },
    {
      "inputs": [
        {
          "internalType": "address",
          "name": "spender",
          "type": "address"
        }
      ],
      "name": "ERC20InvalidSpender",
      "type": "error"
    },
    {
      "inputs": [],
      "name": "InColdPeriod",
      "type": "error"
    },
    {
      "inputs": [],
      "name": "InsufficientBalance",
      "type": "error"
    },
    {
      "inputs": [],
      "name": "NotAllowedBuy",
      "type": "error"
    },
    {
      "inputs": [
        {
          "internalType": "address",
          "name": "owner",
          "type": "address"
        }
      ],
      "name": "OwnableInvalidOwner",
      "type": "error"
    },
    {
      "inputs": [
        {
          "internalType": "address",
          "name": "account",
          "type": "address"
        }
      ],
      "name": "OwnableUnauthorizedAccount",
      "type": "error"
    },
    {
      "inputs": [],
      "name": "ZeroAddress",
      "type": "error"
    },
    {
      "anonymous": false,
      "inputs": [
        {
          "indexed": true,
          "internalType": "address",
          "name": "owner",
          "type": "address"
        },
        {
          "indexed": true,
          "internalType": "address",
          "name": "spender",
          "type": "address"
        },
        {
          "indexed": false,
          "internalType": "uint256",
          "name": "value",
          "type": "uint256"
        }
      ],
      "name": "Approval",
      "type": "event"
    },
    {
      "anonymous": false,
      "inputs": [
        {
          "indexed": false,
          "internalType": "uint256",
          "name": "marketingFee",
          "type": "uint256"
        },
        {
          "indexed": false,
          "internalType": "uint256",
          "name": "lpFee",
          "type": "uint256"
        },
        {
          "indexed": false,
          "internalType": "string",
          "name": "trigger",
          "type": "string"
        }
      ],
      "name": "AutoSwapTriggered",
      "type": "event"
    },
    {
      "anonymous": false,
      "inputs": [
        {
          "indexed": false,
          "internalType": "bool",
          "name": "enabled",
          "type": "bool"
        }
      ],
      "name": "DelayedBuyEnabled",
      "type": "event"
    },
    {
      "anonymous": false,
      "inputs": [
        {
          "indexed": false,
          "internalType": "uint256",
          "name": "newPeriod",
          "type": "uint256"
        }
      ],
      "name": "DelayedBuyPeriodUpdated",
      "type": "event"
    },
    {
      "anonymous": false,
      "inputs": [
        {
          "indexed": true,
          "internalType": "address",
          "name": "user",
          "type": "address"
        },
        {
          "indexed": false,
          "internalType": "uint256",
          "name": "amount",
          "type": "uint256"
        },
        {
          "indexed": true,
          "internalType": "string",
          "name": "category",
          "type": "string"
        },
        {
          "indexed": true,
          "internalType": "address",
          "name": "recipient",
          "type": "address"
        }
      ],
      "name": "FeeCollected",
      "type": "event"
    },
    {
      "anonymous": false,
      "inputs": [
        {
          "indexed": false,
          "internalType": "uint256",
          "name": "totalFees",
          "type": "uint256"
        },
        {
          "indexed": false,
          "internalType": "string",
          "name": "reason",
          "type": "string"
        },
        {
          "indexed": false,
          "internalType": "uint256",
          "name": "timestamp",
          "type": "uint256"
        }
      ],
      "name": "FeeProcessingSkipped",
      "type": "event"
    },
    {
      "anonymous": false,
      "inputs": [
        {
          "indexed": false,
          "internalType": "uint256",
          "name": "totalFees",
          "type": "uint256"
        },
        {
          "indexed": true,
          "internalType": "address",
          "name": "triggeredBy",
          "type": "address"
        },
        {
          "indexed": false,
          "internalType": "string",
          "name": "triggerType",
          "type": "string"
        },
        {
          "indexed": false,
          "internalType": "uint256",
          "name": "timestamp",
          "type": "uint256"
        }
      ],
      "name": "FeeProcessingTriggered",
      "type": "event"
    },
    {
      "anonymous": false,
      "inputs": [
        {
          "indexed": false,
          "internalType": "string",
          "name": "feeType",
          "type": "string"
        },
        {
          "indexed": false,
          "internalType": "uint256",
          "name": "amount",
          "type": "uint256"
        },
        {
          "indexed": false,
          "internalType": "uint256",
          "name": "totalAccumulated",
          "type": "uint256"
        }
      ],
      "name": "FeesAccumulated",
      "type": "event"
    },
    {
      "anonymous": false,
      "inputs": [
        {
          "indexed": true,
          "internalType": "uint256",
          "name": "timestamp",
          "type": "uint256"
        },
        {
          "indexed": true,
          "internalType": "string",
          "name": "processType",
          "type": "string"
        },
        {
          "indexed": false,
          "internalType": "uint256",
          "name": "totalFeesXF",
          "type": "uint256"
        },
        {
          "indexed": false,
          "internalType": "uint256",
          "name": "totalFeesUSDT",
          "type": "uint256"
        },
        {
          "indexed": false,
          "internalType": "uint256",
          "name": "lpAmount",
          "type": "uint256"
        },
        {
          "indexed": false,
          "internalType": "uint256",
          "name": "marketingAmount",
          "type": "uint256"
        },
        {
          "indexed": false,
          "internalType": "uint256",
          "name": "burnAmount",
          "type": "uint256"
        },
        {
          "indexed": false,
          "internalType": "address",
          "name": "lpRecipient",
          "type": "address"
        },
        {
          "indexed": false,
          "internalType": "address",
          "name": "marketingRecipient",
          "type": "address"
        }
      ],
      "name": "FeesProcessed",
      "type": "event"
    },
    {
      "anonymous": false,
      "inputs": [
        {
          "indexed": false,
          "internalType": "uint256",
          "name": "expectedAmount",
          "type": "uint256"
        },
        {
          "indexed": false,
          "internalType": "uint256",
          "name": "actualAmount",
          "type": "uint256"
        },
        {
          "indexed": false,
          "internalType": "uint256",
          "name": "timestamp",
          "type": "uint256"
        }
      ],
      "name": "FundRelayTransferFailed",
      "type": "event"
    },
    {
      "anonymous": false,
      "inputs": [
        {
          "indexed": true,
          "internalType": "address",
          "name": "user",
          "type": "address"
        },
        {
          "indexed": true,
          "internalType": "uint256",
          "name": "timestamp",
          "type": "uint256"
        },
        {
          "indexed": false,
          "internalType": "uint256",
          "name": "previousInvestment",
          "type": "uint256"
        },
        {
          "indexed": false,
          "internalType": "uint256",
          "name": "newInvestment",
          "type": "uint256"
        },
        {
          "indexed": false,
          "internalType": "uint256",
          "name": "changeAmount",
          "type": "uint256"
        },
        {
          "indexed": false,
          "internalType": "string",
          "name": "changeType",
          "type": "string"
        }
      ],
      "name": "InvestmentUpdated",
      "type": "event"
    },
    {
      "anonymous": false,
      "inputs": [
        {
          "indexed": true,
          "internalType": "uint256",
          "name": "timestamp",
          "type": "uint256"
        },
        {
          "indexed": false,
          "internalType": "uint256",
          "name": "regularFeesXF",
          "type": "uint256"
        },
        {
          "indexed": false,
          "internalType": "uint256",
          "name": "regularFeesUSDT",
          "type": "uint256"
        },
        {
          "indexed": false,
          "internalType": "address",
          "name": "liquidityStakingContract",
          "type": "address"
        },
        {
          "indexed": false,
          "internalType": "string",
          "name": "source",
          "type": "string"
        }
      ],
      "name": "LPDistribution",
      "type": "event"
    },
    {
      "anonymous": false,
      "inputs": [
        {
          "indexed": false,
          "internalType": "uint256",
          "name": "amount",
          "type": "uint256"
        }
      ],
      "name": "LPRewardDeposited",
      "type": "event"
    },
    {
      "anonymous": false,
      "inputs": [
        {
          "indexed": false,
          "internalType": "uint256",
          "name": "tokenAmount",
          "type": "uint256"
        },
        {
          "indexed": false,
          "internalType": "uint256",
          "name": "usdtAmount",
          "type": "uint256"
        }
      ],
      "name": "LiquidityAdded",
      "type": "event"
    },
    {
      "anonymous": false,
      "inputs": [
        {
          "indexed": true,
          "internalType": "address",
          "name": "from",
          "type": "address"
        },
        {
          "indexed": true,
          "internalType": "address",
          "name": "to",
          "type": "address"
        },
        {
          "indexed": false,
          "internalType": "uint256",
          "name": "feeAmount",
          "type": "uint256"
        },
        {
          "indexed": false,
          "internalType": "uint256",
          "name": "netAmount",
          "type": "uint256"
        },
        {
          "indexed": false,
          "internalType": "string",
          "name": "operationType",
          "type": "string"
        }
      ],
      "name": "LiquidityHandleFeeCollected",
      "type": "event"
    },
    {
      "anonymous": false,
      "inputs": [
        {
          "indexed": true,
          "internalType": "address",
          "name": "oldAddress",
          "type": "address"
        },
        {
          "indexed": true,
          "internalType": "address",
          "name": "newAddress",
          "type": "address"
        }
      ],
      "name": "MarketingAddressUpdated",
      "type": "event"
    },
    {
      "anonymous": false,
      "inputs": [
        {
          "indexed": false,
          "internalType": "uint256",
          "name": "timestamp",
          "type": "uint256"
        },
        {
          "indexed": false,
          "internalType": "uint256",
          "name": "tokenAmount",
          "type": "uint256"
        },
        {
          "indexed": false,
          "internalType": "uint256",
          "name": "usdtAmount",
          "type": "uint256"
        },
        {
          "indexed": false,
          "internalType": "uint256",
          "name": "rewardIndex",
          "type": "uint256"
        },
        {
          "indexed": true,
          "internalType": "address",
          "name": "recipient",
          "type": "address"
        },
        {
          "indexed": false,
          "internalType": "string",
          "name": "distributionType",
          "type": "string"
        }
      ],
      "name": "MarketingDistribution",
      "type": "event"
    },
    {
      "anonymous": false,
      "inputs": [
        {
          "indexed": true,
          "internalType": "address",
          "name": "seller",
          "type": "address"
        },
        {
          "indexed": true,
          "internalType": "uint256",
          "name": "timestamp",
          "type": "uint256"
        },
        {
          "indexed": false,
          "internalType": "uint256",
          "name": "feeAmountXF",
          "type": "uint256"
        },
        {
          "indexed": false,
          "internalType": "uint256",
          "name": "feeAmountUSDT",
          "type": "uint256"
        },
        {
          "indexed": false,
          "internalType": "uint256",
          "name": "saleValueUSDT",
          "type": "uint256"
        },
        {
          "indexed": false,
          "internalType": "uint256",
          "name": "userInvestmentUSDT",
          "type": "uint256"
        }
      ],
      "name": "NoProfitFeeCollected",
      "type": "event"
    },
    {
      "anonymous": false,
      "inputs": [
        {
          "indexed": true,
          "internalType": "address",
          "name": "previousOwner",
          "type": "address"
        },
        {
          "indexed": true,
          "internalType": "address",
          "name": "newOwner",
          "type": "address"
        }
      ],
      "name": "OwnershipTransferred",
      "type": "event"
    },
    {
      "anonymous": false,
      "inputs": [
        {
          "indexed": false,
          "internalType": "uint256",
          "name": "newDuration",
          "type": "uint256"
        }
      ],
      "name": "PresaleDurationUpdated",
      "type": "event"
    },
    {
      "anonymous": false,
      "inputs": [
        {
          "indexed": false,
          "internalType": "bool",
          "name": "active",
          "type": "bool"
        }
      ],
      "name": "PresaleStatusUpdated",
      "type": "event"
    },
    {
      "anonymous": false,
      "inputs": [
        {
          "indexed": true,
          "internalType": "address",
          "name": "seller",
          "type": "address"
        },
        {
          "indexed": true,
          "internalType": "uint256",
          "name": "timestamp",
          "type": "uint256"
        },
        {
          "indexed": false,
          "internalType": "uint256",
          "name": "originalXFAmount",
          "type": "uint256"
        },
        {
          "indexed": false,
          "internalType": "uint256",
          "name": "tradingFeeXF",
          "type": "uint256"
        },
        {
          "indexed": false,
          "internalType": "uint256",
          "name": "marketingFeeXF",
          "type": "uint256"
        },
        {
          "indexed": false,
          "internalType": "uint256",
          "name": "lpFeeXF",
          "type": "uint256"
        },
        {
          "indexed": false,
          "internalType": "uint256",
          "name": "netXFAfterTradingFees",
          "type": "uint256"
        },
        {
          "indexed": false,
          "internalType": "uint256",
          "name": "estimatedUSDTFromSale",
          "type": "uint256"
        },
        {
          "indexed": false,
          "internalType": "uint256",
          "name": "userHistoricalInvestment",
          "type": "uint256"
        },
        {
          "indexed": false,
          "internalType": "uint256",
          "name": "totalProfitAmount",
          "type": "uint256"
        },
        {
          "indexed": false,
          "internalType": "uint256",
          "name": "profitTaxUSDT",
          "type": "uint256"
        },
        {
          "indexed": false,
          "internalType": "uint256",
          "name": "noProfitFeeUSDT",
          "type": "uint256"
        },
        {
          "indexed": false,
          "internalType": "uint256",
          "name": "profitTaxToMarketing",
          "type": "uint256"
        },
        {
          "indexed": false,
          "internalType": "uint256",
          "name": "profitTaxToReferrer",
          "type": "uint256"
        },
        {
          "indexed": false,
          "internalType": "uint256",
          "name": "userNetProfitUSDT",
          "type": "uint256"
        },
        {
          "indexed": false,
          "internalType": "uint256",
          "name": "finalUSDTReceived",
          "type": "uint256"
        },
        {
          "indexed": false,
          "internalType": "address",
          "name": "referrer",
          "type": "address"
        }
      ],
      "name": "SellTransaction",
      "type": "event"
    },
    {
      "anonymous": false,
      "inputs": [
        {
          "indexed": false,
          "internalType": "string",
          "name": "reason",
          "type": "string"
        },
        {
          "indexed": false,
          "internalType": "uint256",
          "name": "tokenAmount",
          "type": "uint256"
        },
        {
          "indexed": false,
          "internalType": "uint256",
          "name": "timestamp",
          "type": "uint256"
        }
      ],
      "name": "SwapFailed",
      "type": "event"
    },
    {
      "anonymous": false,
      "inputs": [
        {
          "indexed": false,
          "internalType": "uint256",
          "name": "amount",
          "type": "uint256"
        }
      ],
      "name": "TokensBurned",
      "type": "event"
    },
    {
      "anonymous": false,
      "inputs": [
        {
          "indexed": true,
          "internalType": "address",
          "name": "user",
          "type": "address"
        },
        {
          "indexed": true,
          "internalType": "uint256",
          "name": "timestamp",
          "type": "uint256"
        },
        {
          "indexed": true,
          "internalType": "string",
          "name": "txType",
          "type": "string"
        },
        {
          "indexed": false,
          "internalType": "uint256",
          "name": "tokenAmount",
          "type": "uint256"
        },
        {
          "indexed": false,
          "internalType": "uint256",
          "name": "usdtAmount",
          "type": "uint256"
        },
        {
          "indexed": false,
          "internalType": "uint256",
          "name": "netUserReceived",
          "type": "uint256"
        },
        {
          "indexed": false,
          "internalType": "uint256",
          "name": "previousInvestment",
          "type": "uint256"
        },
        {
          "indexed": false,
          "internalType": "uint256",
          "name": "newInvestment",
          "type": "uint256"
        },
        {
          "indexed": false,
          "internalType": "uint256",
          "name": "burnFee",
          "type": "uint256"
        },
        {
          "indexed": false,
          "internalType": "uint256",
          "name": "lpFee",
          "type": "uint256"
        },
        {
          "indexed": false,
          "internalType": "uint256",
          "name": "marketingFee",
          "type": "uint256"
        },
        {
          "indexed": false,
          "internalType": "uint256",
          "name": "profitAmount",
          "type": "uint256"
        },
        {
          "indexed": false,
          "internalType": "uint256",
          "name": "profitTax",
          "type": "uint256"
        },
        {
          "indexed": false,
          "internalType": "address",
          "name": "referrer",
          "type": "address"
        }
      ],
      "name": "TransactionExecuted",
      "type": "event"
    },
    {
      "anonymous": false,
      "inputs": [
        {
          "indexed": true,
          "internalType": "address",
          "name": "from",
          "type": "address"
        },
        {
          "indexed": true,
          "internalType": "address",
          "name": "to",
          "type": "address"
        },
        {
          "indexed": false,
          "internalType": "uint256",
          "name": "value",
          "type": "uint256"
        }
      ],
      "name": "Transfer",
      "type": "event"
    },
    {
      "anonymous": false,
      "inputs": [
        {
          "indexed": true,
          "internalType": "address",
          "name": "from",
          "type": "address"
        },
        {
          "indexed": true,
          "internalType": "address",
          "name": "to",
          "type": "address"
        },
        {
          "indexed": false,
          "internalType": "uint256",
          "name": "feeAmount",
          "type": "uint256"
        },
        {
          "indexed": false,
          "internalType": "uint256",
          "name": "netAmount",
          "type": "uint256"
        },
        {
          "indexed": false,
          "internalType": "string",
          "name": "transferType",
          "type": "string"
        }
      ],
      "name": "TransferFeeCollected",
      "type": "event"
    },
    {
      "anonymous": false,
      "inputs": [
        {
          "indexed": true,
          "internalType": "address",
          "name": "user",
          "type": "address"
        },
        {
          "indexed": true,
          "internalType": "uint256",
          "name": "timestamp",
          "type": "uint256"
        },
        {
          "indexed": false,
          "internalType": "string",
          "name": "txType",
          "type": "string"
        },
        {
          "indexed": false,
          "internalType": "uint256",
          "name": "tokenAmount",
          "type": "uint256"
        },
        {
          "indexed": false,
          "internalType": "uint256",
          "name": "usdtAmount",
          "type": "uint256"
        },
        {
          "indexed": false,
          "internalType": "uint256",
          "name": "netReceived",
          "type": "uint256"
        }
      ],
      "name": "UserTransaction",
      "type": "event"
    },
    {
      "inputs": [],
      "name": "DEAD_ADDRESS",
      "outputs": [
        {
          "internalType": "address",
          "name": "",
          "type": "address"
        }
      ],
      "stateMutability": "view",
      "type": "function"
    },
    {
      "inputs": [],
      "name": "USDT",
      "outputs": [
        {
          "internalType": "address",
          "name": "",
          "type": "address"
        }
      ],
      "stateMutability": "view",
      "type": "function"
    },
    {
      "inputs": [
        {
          "internalType": "address",
          "name": "owner",
          "type": "address"
        },
        {
          "internalType": "address",
          "name": "spender",
          "type": "address"
        }
      ],
      "name": "allowance",
      "outputs": [
        {
          "internalType": "uint256",
          "name": "",
          "type": "uint256"
        }
      ],
      "stateMutability": "view",
      "type": "function"
    },
    {
      "inputs": [
        {
          "internalType": "address",
          "name": "spender",
          "type": "address"
        },
        {
          "internalType": "uint256",
          "name": "value",
          "type": "uint256"
        }
      ],
      "name": "approve",
      "outputs": [
        {
          "internalType": "bool",
          "name": "",
          "type": "bool"
        }
      ],
      "stateMutability": "nonpayable",
      "type": "function"
    },
    {
      "inputs": [
        {
          "internalType": "address",
          "name": "account",
          "type": "address"
        }
      ],
      "name": "balanceOf",
      "outputs": [
        {
          "internalType": "uint256",
          "name": "",
          "type": "uint256"
        }
      ],
      "stateMutability": "view",
      "type": "function"
    },
    {
      "inputs": [
        {
          "internalType": "address",
          "name": "",
          "type": "address"
        }
      ],
      "name": "blacklisted",
      "outputs": [
        {
          "internalType": "bool",
          "name": "",
          "type": "bool"
        }
      ],
      "stateMutability": "view",
      "type": "function"
    },
    {
      "inputs": [],
      "name": "coldTime",
      "outputs": [
        {
          "internalType": "uint256",
          "name": "",
          "type": "uint256"
        }
      ],
      "stateMutability": "view",
      "type": "function"
    },
    {
      "inputs": [],
      "name": "contractDeployTime",
      "outputs": [
        {
          "internalType": "uint256",
          "name": "",
          "type": "uint256"
        }
      ],
      "stateMutability": "view",
      "type": "function"
    },
    {
      "inputs": [],
      "name": "decimals",
      "outputs": [
        {
          "internalType": "uint8",
          "name": "",
          "type": "uint8"
        }
      ],
      "stateMutability": "view",
      "type": "function"
    },
    {
      "inputs": [],
      "name": "delayedBuyEnabled",
      "outputs": [
        {
          "internalType": "bool",
          "name": "",
          "type": "bool"
        }
      ],
      "stateMutability": "view",
      "type": "function"
    },
    {
      "inputs": [],
      "name": "delayedBuyEnabledTime",
      "outputs": [
        {
          "internalType": "uint256",
          "name": "",
          "type": "uint256"
        }
      ],
      "stateMutability": "view",
      "type": "function"
    },
    {
      "inputs": [
        {
          "internalType": "address",
          "name": "",
          "type": "address"
        }
      ],
      "name": "feeWhitelisted",
      "outputs": [
        {
          "internalType": "bool",
          "name": "",
          "type": "bool"
        }
      ],
      "stateMutability": "view",
      "type": "function"
    },
    {
      "inputs": [
        {
          "internalType": "uint256",
          "name": "amountOut",
          "type": "uint256"
        },
        {
          "internalType": "uint256",
          "name": "reserveIn",
          "type": "uint256"
        },
        {
          "internalType": "uint256",
          "name": "reserveOut",
          "type": "uint256"
        }
      ],
      "name": "getAmountIn",
      "outputs": [
        {
          "internalType": "uint256",
          "name": "amountIn",
          "type": "uint256"
        }
      ],
      "stateMutability": "pure",
      "type": "function"
    },
    {
      "inputs": [
        {
          "internalType": "uint256",
          "name": "amountIn",
          "type": "uint256"
        },
        {
          "internalType": "uint256",
          "name": "reserveIn",
          "type": "uint256"
        },
        {
          "internalType": "uint256",
          "name": "reserveOut",
          "type": "uint256"
        }
      ],
      "name": "getAmountOut",
      "outputs": [
        {
          "internalType": "uint256",
          "name": "amountOut",
          "type": "uint256"
        }
      ],
      "stateMutability": "pure",
      "type": "function"
    },
    {
      "inputs": [],
      "name": "getDelayedBuyInfo",
      "outputs": [
        {
          "internalType": "bool",
          "name": "enabled",
          "type": "bool"
        },
        {
          "internalType": "bool",
          "name": "testModeActive",
          "type": "bool"
        },
        {
          "internalType": "uint256",
          "name": "enabledTime",
          "type": "uint256"
        },
        {
          "internalType": "uint256",
          "name": "requiredDelay",
          "type": "uint256"
        },
        {
          "internalType": "uint256",
          "name": "remainingDelay",
          "type": "uint256"
        }
      ],
      "stateMutability": "view",
      "type": "function"
    },
    {
      "inputs": [],
      "name": "getPresaleStatus",
      "outputs": [
        {
          "internalType": "bool",
          "name": "active",
          "type": "bool"
        },
        {
          "internalType": "uint256",
          "name": "startTime",
          "type": "uint256"
        },
        {
          "internalType": "uint256",
          "name": "duration",
          "type": "uint256"
        },
        {
          "internalType": "uint256",
          "name": "remainingTime",
          "type": "uint256"
        },
        {
          "internalType": "bool",
          "name": "isInPresale",
          "type": "bool"
        }
      ],
      "stateMutability": "view",
      "type": "function"
    },
    {
      "inputs": [],
      "name": "getUSDTReserve",
      "outputs": [
        {
          "internalType": "uint112",
          "name": "usdtReserve",
          "type": "uint112"
        }
      ],
      "stateMutability": "view",
      "type": "function"
    },
    {
      "inputs": [],
      "name": "getUniswapV2Pair",
      "outputs": [
        {
          "internalType": "address",
          "name": "",
          "type": "address"
        }
      ],
      "stateMutability": "view",
      "type": "function"
    },
    {
      "inputs": [],
      "name": "initializeWhitelist",
      "outputs": [],
      "stateMutability": "nonpayable",
      "type": "function"
    },
    {
      "inputs": [
        {
          "internalType": "address",
          "name": "account",
          "type": "address"
        }
      ],
      "name": "isContract",
      "outputs": [
        {
          "internalType": "bool",
          "name": "",
          "type": "bool"
        }
      ],
      "stateMutability": "view",
      "type": "function"
    },
    {
      "inputs": [
        {
          "internalType": "address",
          "name": "buyer",
          "type": "address"
        }
      ],
      "name": "isDelayedBuyPeriodMet",
      "outputs": [
        {
          "internalType": "bool",
          "name": "",
          "type": "bool"
        }
      ],
      "stateMutability": "view",
      "type": "function"
    },
    {
      "inputs": [
        {
          "internalType": "address",
          "name": "",
          "type": "address"
        }
      ],
      "name": "lastBuyTime",
      "outputs": [
        {
          "internalType": "uint256",
          "name": "",
          "type": "uint256"
        }
      ],
      "stateMutability": "view",
      "type": "function"
    },
    {
      "inputs": [],
      "name": "name",
      "outputs": [
        {
          "internalType": "string",
          "name": "",
          "type": "string"
        }
      ],
      "stateMutability": "view",
      "type": "function"
    },
    {
      "inputs": [],
      "name": "owner",
      "outputs": [
        {
          "internalType": "address",
          "name": "",
          "type": "address"
        }
      ],
      "stateMutability": "view",
      "type": "function"
    },
    {
      "inputs": [],
      "name": "presaleActive",
      "outputs": [
        {
          "internalType": "bool",
          "name": "",
          "type": "bool"
        }
      ],
      "stateMutability": "view",
      "type": "function"
    },
    {
      "inputs": [],
      "name": "presaleDuration",
      "outputs": [
        {
          "internalType": "uint256",
          "name": "",
          "type": "uint256"
        }
      ],
      "stateMutability": "view",
      "type": "function"
    },
    {
      "inputs": [],
      "name": "presaleStartTime",
      "outputs": [
        {
          "internalType": "uint256",
          "name": "",
          "type": "uint256"
        }
      ],
      "stateMutability": "view",
      "type": "function"
    },
    {
      "inputs": [
        {
          "internalType": "address",
          "name": "token",
          "type": "address"
        },
        {
          "internalType": "uint256",
          "name": "amount",
          "type": "uint256"
        }
      ],
      "name": "recoverStuckTokens",
      "outputs": [],
      "stateMutability": "nonpayable",
      "type": "function"
    },
    {
      "inputs": [
        {
          "internalType": "uint256",
          "name": "amount",
          "type": "uint256"
        }
      ],
      "name": "recycle",
      "outputs": [],
      "stateMutability": "nonpayable",
      "type": "function"
    },
    {
      "inputs": [],
      "name": "renounceOwnership",
      "outputs": [],
      "stateMutability": "nonpayable",
      "type": "function"
    },
    {
      "inputs": [],
      "name": "rootAddress",
      "outputs": [
        {
          "internalType": "address",
          "name": "",
          "type": "address"
        }
      ],
      "stateMutability": "view",
      "type": "function"
    },
    {
      "inputs": [
        {
          "internalType": "address[]",
          "name": "accounts",
          "type": "address[]"
        },
        {
          "internalType": "bool",
          "name": "_blacklisted",
          "type": "bool"
        }
      ],
      "name": "setBatchBlacklisted",
      "outputs": [],
      "stateMutability": "nonpayable",
      "type": "function"
    },
    {
      "inputs": [
        {
          "internalType": "address[]",
          "name": "accounts",
          "type": "address[]"
        },
        {
          "internalType": "bool",
          "name": "_whitelisted",
          "type": "bool"
        }
      ],
      "name": "setBatchFeeWhitelisted",
      "outputs": [],
      "stateMutability": "nonpayable",
      "type": "function"
    },
    {
      "inputs": [
        {
          "internalType": "address",
          "name": "account",
          "type": "address"
        },
        {
          "internalType": "bool",
          "name": "_blacklisted",
          "type": "bool"
        }
      ],
      "name": "setBlacklisted",
      "outputs": [],
      "stateMutability": "nonpayable",
      "type": "function"
    },
    {
      "inputs": [
        {
          "internalType": "uint256",
          "name": "_coldTime",
          "type": "uint256"
        }
      ],
      "name": "setColdTime",
      "outputs": [],
      "stateMutability": "nonpayable",
      "type": "function"
    },
    {
      "inputs": [
        {
          "internalType": "bool",
          "name": "_enabled",
          "type": "bool"
        }
      ],
      "name": "setDelayedBuyEnabled",
      "outputs": [],
      "stateMutability": "nonpayable",
      "type": "function"
    },
    {
      "inputs": [
        {
          "internalType": "address",
          "name": "account",
          "type": "address"
        },
        {
          "internalType": "bool",
          "name": "whitelisted",
          "type": "bool"
        }
      ],
      "name": "setFeeWhitelisted",
      "outputs": [],
      "stateMutability": "nonpayable",
      "type": "function"
    },
    {
      "inputs": [
        {
          "internalType": "address",
          "name": "_pair",
          "type": "address"
        }
      ],
      "name": "setPair",
      "outputs": [],
      "stateMutability": "nonpayable",
      "type": "function"
    },
    {
      "inputs": [
        {
          "internalType": "bool",
          "name": "_active",
          "type": "bool"
        }
      ],
      "name": "setPresaleActive",
      "outputs": [],
      "stateMutability": "nonpayable",
      "type": "function"
    },
    {
      "inputs": [],
      "name": "setPresaleDuration",
      "outputs": [],
      "stateMutability": "nonpayable",
      "type": "function"
    },
    {
      "inputs": [],
      "name": "staking",
      "outputs": [
        {
          "internalType": "contract IStaking",
          "name": "",
          "type": "address"
        }
      ],
      "stateMutability": "view",
      "type": "function"
    },
    {
      "inputs": [],
      "name": "symbol",
      "outputs": [
        {
          "internalType": "string",
          "name": "",
          "type": "string"
        }
      ],
      "stateMutability": "view",
      "type": "function"
    },
    {
      "inputs": [],
      "name": "totalSupply",
      "outputs": [
        {
          "internalType": "uint256",
          "name": "",
          "type": "uint256"
        }
      ],
      "stateMutability": "view",
      "type": "function"
    },
    {
      "inputs": [
        {
          "internalType": "address",
          "name": "to",
          "type": "address"
        },
        {
          "internalType": "uint256",
          "name": "value",
          "type": "uint256"
        }
      ],
      "name": "transfer",
      "outputs": [
        {
          "internalType": "bool",
          "name": "",
          "type": "bool"
        }
      ],
      "stateMutability": "nonpayable",
      "type": "function"
    },
    {
      "inputs": [
        {
          "internalType": "address",
          "name": "from",
          "type": "address"
        },
        {
          "internalType": "address",
          "name": "to",
          "type": "address"
        },
        {
          "internalType": "uint256",
          "name": "value",
          "type": "uint256"
        }
      ],
      "name": "transferFrom",
      "outputs": [
        {
          "internalType": "bool",
          "name": "",
          "type": "bool"
        }
      ],
      "stateMutability": "nonpayable",
      "type": "function"
    },
    {
      "inputs": [
        {
          "internalType": "address",
          "name": "newOwner",
          "type": "address"
        }
      ],
      "name": "transferOwnership",
      "outputs": [],
      "stateMutability": "nonpayable",
      "type": "function"
    },
    {
      "inputs": [],
      "name": "uniswapV2Pair",
      "outputs": [
        {
          "internalType": "contract IUniswapV2Pair",
          "name": "",
          "type": "address"
        }
      ],
      "stateMutability": "view",
      "type": "function"
    },
    {
      "inputs": [],
      "name": "uniswapV2Router",
      "outputs": [
        {
          "internalType": "contract IUniswapV2Router02",
          "name": "",
          "type": "address"
        }
      ],
      "stateMutability": "view",
      "type": "function"
    }
  ],
  "bytecode": "0x60e06040523461048e5761223e6060813803918261001c81610493565b93849283398101031261048e57610032816104b8565b9061004b6040610044602084016104b8565b92016104b8565b906100566040610493565b92600984526829aca4902a37b5b2b760b91b60208501526100776040610493565b600381526253594960e81b6020820152845190946001600160401b03821161038b5760035490600182811c92168015610484575b602083101461036b5781601f849311610414575b50602090601f83116001146103ac576000926103a1575b50508160011b916000199060031b1c1916176003555b83516001600160401b03811161038b57600454600181811c91168015610381575b602082101461036b57601f8111610306575b50602094601f821160011461029f57948192939495600092610294575b50508160011b916000199060031b1c1916176004555b331561027e5760058054336001600160a01b0319821681179092556001600160a01b03167f8be0079c531659141344cd1fd0a4f28419497f9722a3daafe3b4186f6b6457e0600080a3600a6008556001600160a01b03811615801561026d575b801561025c575b61024b576080526001600160a01b0390811660a0521660c0526101db336104cc565b42600c554260095562278d00600a55600160ff19600b541617600b55604051611cdd9081610561823960805181818161068401526115d5015260a051818181610f020152818161105701528181611bb00152611c23015260c0518181816103d601528181610cd40152610ecf0152f35b63d92e233d60e01b60005260046000fd5b506001600160a01b038316156101b9565b506001600160a01b038216156101b2565b631e4fbdf760e01b600052600060045260246000fd5b01519050388061013c565b601f198216956004600052806000209160005b8881106102ee575083600195969798106102d5575b505050811b01600455610152565b015160001960f88460031b161c191690553880806102c7565b919260206001819286850151815501940192016102b2565b60046000527f8a35acfbc15ff81a39ae7d344fd709f28e8600b4aa8c65c6b64bfe7fe36bd19b601f830160051c81019160208410610361575b601f0160051c01905b818110610355575061011f565b60008155600101610348565b909150819061033f565b634e487b7160e01b600052602260045260246000fd5b90607f169061010d565b634e487b7160e01b600052604160045260246000fd5b0151905038806100d6565b600360009081528281209350601f198516905b8181106103fc57509084600195949392106103e3575b505050811b016003556100ec565b015160001960f88460031b161c191690553880806103d5565b929360206001819287860151815501950193016103bf565b60036000529091507fc2575a0e9e593c00f959f8c92f12db2869c3395a3b0502d05e2516446f71f85b601f840160051c8101916020851061047a575b90601f859493920160051c01905b81811061046b57506100bf565b6000815584935060010161045e565b9091508190610450565b91607f16916100ab565b600080fd5b6040519190601f01601f191682016001600160401b0381118382101761038b57604052565b51906001600160a01b038216820361048e57565b6a084595161401484a0000009060009060025483810180911161054a577fddf252ad1be2c89b69c2b068fc378daa952ba7f163c4a11628f55a4df523b3ef916020916002556001600160a01b031693846105325780600254036002555b604051908152a3565b84600052600082526040600020818154019055610529565b634e487b7160e01b600052601160045260246000fdfe6080604052600436101561001257600080fd5b6000803560e01c8063054d50d41461121457806306fdde0314611157578063095ea7b3146110ad57806316279055146110865780631694505e1461104157806318160ddd146110235780631abfa62914610d0357806323b872dd14610f425780632927bacd14610e67578063313ce56714610e4b57806336543fb914610e2d5780633f8121a214610d8b5780633fecc2e214610d5257806343a066aa14610d2c57806349bd5a5e14610d035780634cf088d914610cbe5780634e6fd6c414610ca157806353135ca014610c7e578063569ea10114610c3f5780635868c32a14610c21578063622e6ad814610bfe57806370a0823114610bbc578063715018a614610b5f5780638187f51614610ae957806385f8c25914610a3b578063861bd3c5146109dc57806387894d03146109ae5780638da5cb5b1461098557806390e82f241461092257806395d89b41146108195780639f54790d146107fb578063a82524b2146107dd578063a9059cbb146107ab578063aaa2b8c814610782578063af24ccaa14610705578063b99ce15e146106b3578063c54e44eb1461066e578063c596f3fe14610640578063d01dd6d2146105ee578063d123de31146105c2578063d4273cd6146105a4578063d7517caa14610525578063dbac26e9146104e6578063dd1c35bc146103bf578063dd62ed3e1461036a578063f2fde38b146102e1578063fdc0cdbf146102bd5763ff9191511461022d57600080fd5b346102ba57806003193601126102ba57600b54600d5460a09260089290921c60ff16159190821561027b57815b604051931584526020840152604083015262278d0060608301526080820152f35b80156102b257805b61028c81611428565b421061029957508161025a565b6102ac906102a74291611428565b6116a8565b9161025a565b600c54610283565b80fd5b50346102ba57806003193601126102ba576102d6611a3e565b6102de611a67565b80f35b50346102ba5760203660031901126102ba576102fb6112d6565b610303611a3e565b6001600160a01b0316801561035657600580546001600160a01b0319811683179091556001600160a01b03167f8be0079c531659141344cd1fd0a4f28419497f9722a3daafe3b4186f6b6457e08380a380f35b631e4fbdf760e01b82526004829052602482fd5b50346102ba5760403660031901126102ba5760406103866112d6565b9161038f6112ec565b9260018060a01b031681526001602052209060018060a01b03166000526020526020604060002054604051908152f35b50346102ba5760203660031901126102ba576004357f00000000000000000000000000000000000000000000000000000000000000006001600160a01b0316338190036104a9576006546001600160a01b031660008181526020819052604090205490929060039004908181106104a15750905b8161043c578380f35b610445926116e8565b60065481906001600160a01b0316803b1561049e5781809160046040518095819363fff6cae960e01b83525af180156104915761048157818380f35b61048a91611320565b3881818380f35b50604051903d90823e3d90fd5b50fd5b905090610433565b60405162461bcd60e51b815260206004820152601560248201527413db9b1e481cdd185ada5b99c818dbdb9d1c9858dd605a1b6044820152606490fd5b50346102ba5760203660031901126102ba5760209060ff906040906001600160a01b036105116112d6565b168152601084522054166040519015158152f35b50346102ba57806003193601126102ba5760a09060095490600a5461054a818461144e565b91824210928360001461059d57610563915042906116a8565b905b600b5460ff1693849384610595575b50604051941515855260208501526040840152606083015215156080820152f35b935038610574565b5090610565565b50346102ba57806003193601126102ba576020600d54604051908152f35b50346102ba57806003193601126102ba5760206105dd611564565b6001600160701b0360405191168152f35b50346102ba5760403660031901126102ba576102de61060b6112d6565b610613611311565b9061061c611a3e565b60018060a01b031683526010602052604083209060ff801983541691151516179055565b50346102ba5760403660031901126102ba576102de61065d6112d6565b610665611a3e565b602435906114be565b50346102ba57806003193601126102ba576040517f00000000000000000000000000000000000000000000000000000000000000006001600160a01b03168152602090f35b50346102ba5760403660031901126102ba576102de6106d06112d6565b6106d8611311565b906106e1611a3e565b60018060a01b03168352600f602052604083209060ff801983541691151516179055565b50346102ba5760203660031901126102ba577f2c8ccbef4032016d78404afa804c622487ae3acab4caeff4b2dba121d7488c186020610742611302565b61074a611a3e565b80151590600b5461ff008360081b169061ff00191617600b556000146107795742600d555b604051908152a180f35b83600d5561076f565b50346102ba57806003193601126102ba576007546040516001600160a01b039091168152602090f35b50346102ba5760403660031901126102ba576107d26107c86112d6565b60243590336116e8565b602060405160018152f35b50346102ba57806003193601126102ba576020600954604051908152f35b50346102ba57806003193601126102ba576020600c54604051908152f35b50346102ba57806003193601126102ba576040519080600454908160011c91600181168015610918575b602084108114610904578386529081156108dd5750600114610880575b61087c8461087081860382611320565b6040519182918261128d565b0390f35b600481527f8a35acfbc15ff81a39ae7d344fd709f28e8600b4aa8c65c6b64bfe7fe36bd19b939250905b8082106108c35750909150810160200161087082610860565b9192600181602092548385880101520191019092916108aa565b60ff191660208087019190915292151560051b850190920192506108709150839050610860565b634e487b7160e01b83526022600452602483fd5b92607f1692610843565b50346102ba5761093136611358565b610939611a3e565b825b8251811015610981576001906001600160a01b0361095982866113fe565b51168552600f60205261097b83604087209060ff801983541691151516179055565b0161093b565b8380f35b50346102ba57806003193601126102ba576005546040516001600160a01b039091168152602090f35b50346102ba5760203660031901126102ba5760206109d26109cd6112d6565b61145b565b6040519015158152f35b50346102ba576109eb36611358565b6109f3611a3e565b825b8251811015610981576001906001600160a01b03610a1382866113fe565b511685526010602052610a3583604087209060ff801983541691151516179055565b016109f5565b50346102ba57610a56610a4d3661126e565b929082906116d5565b916127108302928084046127101490151715610ad55790610a76916116a8565b906126f78202918083046126f71490151715610ac15790610a96916116b5565b9060018201809211610aad57602082604051908152f35b634e487b7160e01b81526011600452602490fd5b634e487b7160e01b83526011600452602483fd5b634e487b7160e01b84526011600452602484fd5b50346102ba5760203660031901126102ba57610b036112d6565b610b0b611a3e565b6001600160a01b03168015610b50576006546001600160a01b038116610b41576001600160a01b031916176006556102de611a67565b63a741a04560e01b8352600483fd5b63d92e233d60e01b8252600482fd5b50346102ba57806003193601126102ba57610b78611a3e565b600580546001600160a01b0319811690915581906001600160a01b03167f8be0079c531659141344cd1fd0a4f28419497f9722a3daafe3b4186f6b6457e08280a380f35b50346102ba5760203660031901126102ba576020610bf6610bdb6112d6565b6001600160a01b031660009081526020819052604090205490565b604051908152f35b50346102ba5760203660031901126102ba57610c18611a3e565b60043560085580f35b50346102ba57806003193601126102ba576020600a54604051908152f35b50346102ba5760203660031901126102ba5760209060ff906040906001600160a01b03610c6a6112d6565b168152600f84522054166040519015158152f35b50346102ba57806003193601126102ba57602060ff600b54166040519015158152f35b50346102ba57806003193601126102ba57602060405161dead8152f35b50346102ba57806003193601126102ba576040517f00000000000000000000000000000000000000000000000000000000000000006001600160a01b03168152602090f35b50346102ba57806003193601126102ba576006546040516001600160a01b039091168152602090f35b50346102ba57806003193601126102ba57602060ff600b5460081c166040519015158152f35b50346102ba5760203660031901126102ba576020906040906001600160a01b03610d7a6112d6565b168152600e83522054604051908152f35b50346102ba5760203660031901126102ba577ff19c3bdddf1b5ac58b32a05cc2bc72313b03a8e8ceb7621e8818651371e00e546020610dc8611302565b610dd0611a3e565b8015159060ff19600b541660ff831617600b55610df157604051908152a180f35b4260095562278d00600a557fdbeb6ec948f6eb874ecbd6117742652c35d57fbe578b778b77e677a06af90b968260405162278d008152a161076f565b50346102ba57806003193601126102ba576020600854604051908152f35b50346102ba57806003193601126102ba57602060405160128152f35b50346102ba57806003193601126102ba57610e80611a3e565b60115460ff8116610f3457600160ff1991821681176011556005546001600160a01b039081168452600f60208181526040808720805487168617905530875282825280872080548716861790557f00000000000000000000000000000000000000000000000000000000000000008416875282825280872080548716861790557f00000000000000000000000000000000000000000000000000000000000000009093168652528320805490921617905580f35b62dc149f60e41b8252600482fd5b50346102ba5760603660031901126102ba57610f5c6112d6565b610f646112ec565b6001600160a01b03821680845260016020908152604080862033875290915284205460443593916000198210610fa1575b50506107d293506116e8565b848210611008578015610ff4573315610fe05760408686926107d29852600160205281812060018060a01b033316825260205220910390553880610f95565b634a1406b160e11b86526004869052602486fd5b63e602df0560e01b86526004869052602486fd5b6064868684637dc7a0d960e11b835233600452602452604452fd5b50346102ba57806003193601126102ba576020600254604051908152f35b50346102ba57806003193601126102ba576040517f00000000000000000000000000000000000000000000000000000000000000006001600160a01b03168152602090f35b50346102ba5760203660031901126102ba5760206110a26112d6565b3b1515604051908152f35b50346102ba5760403660031901126102ba576110c76112d6565b602435903315611143576001600160a01b031691821561112f5760408291338152600160205281812085825260205220556040519081527f8c5be1e5ebec7d5bd14f71427d1e84f3dd0314c0f7b2291e5b200ac8c7c3b92560203392a3602060405160018152f35b634a1406b160e11b81526004819052602490fd5b63e602df0560e01b83526004839052602483fd5b50346102ba57806003193601126102ba576040519080600354908160011c9160018116801561120a575b602084108114610904578386529081156108dd57506001146111ad5761087c8461087081860382611320565b600381527fc2575a0e9e593c00f959f8c92f12db2869c3395a3b0502d05e2516446f71f85b939250905b8082106111f05750909150810160200161087082610860565b9192600181602092548385880101520191019092916111d7565b92607f1692611181565b50346102ba576112233661126e565b6126f78302928084046126f71490151715610ad55761124290836116d5565b926127108202918083046127101490151715610aad576020610bf685611268868661144e565b906116b5565b606090600319011261128857600435906024359060443590565b600080fd5b91909160208152825180602083015260005b8181106112c0575060409293506000838284010152601f8019910116010190565b806020809287010151604082860101520161129f565b600435906001600160a01b038216820361128857565b602435906001600160a01b038216820361128857565b60043590811515820361128857565b60243590811515820361128857565b90601f8019910116810190811067ffffffffffffffff82111761134257604052565b634e487b7160e01b600052604160045260246000fd5b60406003198201126112885760043567ffffffffffffffff811161128857816023820112156112885780600401359167ffffffffffffffff8311611342578260051b91604051936113ac6020850186611320565b84526024602085019382010191821161128857602401915b8183106113de575050509060243580151581036112885790565b82356001600160a01b0381168103611288578152602092830192016113c4565b80518210156114125760209160051b010190565b634e487b7160e01b600052603260045260246000fd5b9062278d00820180921161143857565b634e487b7160e01b600052601160045260246000fd5b9190820180921161143857565b60ff600b5460081c161590811561149b575b5061149657600d54801561148a5761148490611428565b42101590565b50611484600c54611428565b600190565b6001600160a01b03166000908152600f602052604090205460ff1690503861146d565b6001600160a01b03169030821461154c57602090604460018060a01b03600554166000604051958694859363a9059cbb60e01b8552600485015260248401525af180156115405761150c5750565b6020813d602011611538575b8161152560209383611320565b8101031261128857518015150361128857565b3d9150611518565b6040513d6000823e3d90fd5b5050565b51906001600160701b038216820361128857565b600654604051630240bc6b60e21b8152906001600160a01b0316606082600481845afa9081600093849361164b575b506115a057505050600090565b602060049160405192838092630dfe168160e01b82525afa90811561154057600091611605575b506001600160a01b039081167f000000000000000000000000000000000000000000000000000000000000000090911603611600575090565b905090565b6020813d602011611643575b8161161e60209383611320565b8101031261163f5751906001600160a01b03821682036102ba5750386115c7565b5080fd5b3d9150611611565b939092506060843d6060116116a0575b8161166860609383611320565b810103126102ba5761167984611550565b90604061168860208701611550565b95015163ffffffff8116036102ba5750929138611593565b3d915061165b565b9190820391821161143857565b81156116bf570490565b634e487b7160e01b600052601260045260246000fd5b8181029291811591840414171561143857565b906001600160a01b03821680158015611a2d575b611a005780600052600f60205260ff604060002054168015611a0b575b611a00576117278284611b86565b6117318385611bfa565b90156118bd5750506001600160a01b03811660008181526010602052604090205490929060ff166118ac57600b5460ff8160081c1680611893575b61185b575b60ff1680611844575b61183457611789918491611a9d565b80600052600e6020524260406000205560036040516242555960e81b815220604051827f681f1f0fb3679a87b3423967dfa2ec97150b706d392eada5b3617c7508afc7654292806117db888083611c5b565b0390a46040519160808352600360808401526242555960e81b60a08401528060208401526000604084015260608301527ffde30999d0ea66fcaf14400b79c9e771a1a87176335a8cc91382321a3d0a0c1f60c04293a35b565b624e610160e31b60005260046000fd5b50611854600954600a549061144e565b421061177a565b600d54801561188a575b62278d00810180911161143857421015611771576320cf80f960e01b60005260046000fd5b50600c54611865565b5083600052600f60205260ff604060002054161561176c565b6309550c7760e01b60005260046000fd5b90939290156119f65783600052601060205260ff604060002054166118ac5783600052600e6020526118f76040600020546008549061144e565b42106119e557611908918391611a9d565b604051818152600060208201526000604082015260006060820152816080820152600060a0820152600060c0820152600060e08201526000610100820152600061012082015260006101408201526000610160820152600061018082015260006101a082015260006101c0820152827f14f1a00236d7bca73ddcf087e3d43ca785808697c6fde3616f17d02d6f2c68e36101e04293a360046040516314d1531360e21b815220917f681f1f0fb3679a87b3423967dfa2ec97150b706d392eada5b3617c7508afc765604051806119e042958083611c5b565b0390a4565b63465fd09160e01b60005260046000fd5b6118329350611a9d565b506118329291611a9d565b506001600160a01b0382166000908152600f602052604090205460ff16611719565b506001600160a01b038216156116fc565b6005546001600160a01b03163303611a5257565b63118cdaa760e01b6000523360045260246000fd5b62278d00600a557fdbeb6ec948f6eb874ecbd6117742652c35d57fbe578b778b77e677a06af90b96602060405162278d008152a1565b6001600160a01b03169081611b195760207fddf252ad1be2c89b69c2b068fc378daa952ba7f163c4a11628f55a4df523b3ef91611adc8560025461144e565b6002555b6001600160a01b03169384611b015780600254036002555b604051908152a3565b84600052600082526040600020818154019055611af8565b816000526000602052604060002054838110611b69577fddf252ad1be2c89b69c2b068fc378daa952ba7f163c4a11628f55a4df523b3ef9184602092856000526000845203604060002055611ae0565b91905063391434e360e21b60005260045260245260445260646000fd5b6006546001600160a01b03908116929116829003611bf3576001600160a01b0316818114611bf3577f00000000000000000000000000000000000000000000000000000000000000006001600160a01b031614611bed573303611be857600190565b600090565b50600090565b5050600090565b6006546001600160a01b039081169216829003611bf3576001600160a01b0316818114611bf3577f00000000000000000000000000000000000000000000000000000000000000006001600160a01b031614611bed573314611be857600190565b610140906000929493610160820195825283602083015260408201528260608201528260808201528260a08201528260c08201528260e08201528261010082015282610120820152015256fea2646970667358221220552b9992eaf2e846341c10d36a1f696129e1c71de1a336e399c5ca8a9a5a32ed64736f6c634300081c0033",
  "linkReferences": {},
  "deployedLinkReferences": {}
}