{
  "_format": "hh-sol-artifact-1",
  "contractName": "SYI",
  "sourceName": "contracts/SYI/mainnet/SYI.sol",
  "abi": [
    {
      "inputs": [
        {
          "internalType": "address",
          "name": "_usdt",
          "type": "address"
        },
        {
          "internalType": "address",
          "name": "_router",
          "type": "address"
        },
        {
          "internalType": "address",
          "name": "_staking",
          "type": "address"
        }
      ],
      "stateMutability": "nonpayable",
      "type": "constructor"
    },
    {
      "inputs": [],
      "name": "AlreadyInitialized",
      "type": "error"
    },
    {
      "inputs": [],
      "name": "AlreadySet",
      "type": "error"
    },
    {
      "inputs": [],
      "name": "Blacklisted",
      "type": "error"
    },
    {
      "inputs": [],
      "name": "DelayedBuyPeriodNotMet",
      "type": "error"
    },
    {
      "inputs": [
        {
          "internalType": "address",
          "name": "spender",
          "type": "address"
        },
        {
          "internalType": "uint256",
          "name": "allowance",
          "type": "uint256"
        },
        {
          "internalType": "uint256",
          "name": "needed",
          "type": "uint256"
        }
      ],
      "name": "ERC20InsufficientAllowance",
      "type": "error"
    },
    {
      "inputs": [
        {
          "internalType": "address",
          "name": "sender",
          "type": "address"
        },
        {
          "internalType": "uint256",
          "name": "balance",
          "type": "uint256"
        },
        {
          "internalType": "uint256",
          "name": "needed",
          "type": "uint256"
        }
      ],
      "name": "ERC20InsufficientBalance",
      "type": "error"
    },
    {
      "inputs": [
        {
          "internalType": "address",
          "name": "approver",
          "type": "address"
        }
      ],
      "name": "ERC20InvalidApprover",
      "type": "error"
    },
    {
      "inputs": [
        {
          "internalType": "address",
          "name": "receiver",
          "type": "address"
        }
      ],
      "name": "ERC20InvalidReceiver",
      "type": "error"
    },
    {
      "inputs": [
        {
          "internalType": "address",
          "name": "sender",
          "type": "address"
        }
      ],
      "name": "ERC20InvalidSender",
      "type": "error"
    },
    {
      "inputs": [
        {
          "internalType": "address",
          "name": "spender",
          "type": "address"
        }
      ],
      "name": "ERC20InvalidSpender",
      "type": "error"
    },
    {
      "inputs": [],
      "name": "InColdPeriod",
      "type": "error"
    },
    {
      "inputs": [],
      "name": "InsufficientBalance",
      "type": "error"
    },
    {
      "inputs": [],
      "name": "NotAllowedBuy",
      "type": "error"
    },
    {
      "inputs": [
        {
          "internalType": "address",
          "name": "owner",
          "type": "address"
        }
      ],
      "name": "OwnableInvalidOwner",
      "type": "error"
    },
    {
      "inputs": [
        {
          "internalType": "address",
          "name": "account",
          "type": "address"
        }
      ],
      "name": "OwnableUnauthorizedAccount",
      "type": "error"
    },
    {
      "inputs": [],
      "name": "ZeroAddress",
      "type": "error"
    },
    {
      "anonymous": false,
      "inputs": [
        {
          "indexed": true,
          "internalType": "address",
          "name": "owner",
          "type": "address"
        },
        {
          "indexed": true,
          "internalType": "address",
          "name": "spender",
          "type": "address"
        },
        {
          "indexed": false,
          "internalType": "uint256",
          "name": "value",
          "type": "uint256"
        }
      ],
      "name": "Approval",
      "type": "event"
    },
    {
      "anonymous": false,
      "inputs": [
        {
          "indexed": false,
          "internalType": "uint256",
          "name": "marketingFee",
          "type": "uint256"
        },
        {
          "indexed": false,
          "internalType": "uint256",
          "name": "lpFee",
          "type": "uint256"
        },
        {
          "indexed": false,
          "internalType": "string",
          "name": "trigger",
          "type": "string"
        }
      ],
      "name": "AutoSwapTriggered",
      "type": "event"
    },
    {
      "anonymous": false,
      "inputs": [
        {
          "indexed": false,
          "internalType": "bool",
          "name": "enabled",
          "type": "bool"
        }
      ],
      "name": "DelayedBuyEnabled",
      "type": "event"
    },
    {
      "anonymous": false,
      "inputs": [
        {
          "indexed": false,
          "internalType": "uint256",
          "name": "newPeriod",
          "type": "uint256"
        }
      ],
      "name": "DelayedBuyPeriodUpdated",
      "type": "event"
    },
    {
      "anonymous": false,
      "inputs": [
        {
          "indexed": true,
          "internalType": "address",
          "name": "user",
          "type": "address"
        },
        {
          "indexed": false,
          "internalType": "uint256",
          "name": "amount",
          "type": "uint256"
        },
        {
          "indexed": true,
          "internalType": "string",
          "name": "category",
          "type": "string"
        },
        {
          "indexed": true,
          "internalType": "address",
          "name": "recipient",
          "type": "address"
        }
      ],
      "name": "FeeCollected",
      "type": "event"
    },
    {
      "anonymous": false,
      "inputs": [
        {
          "indexed": false,
          "internalType": "uint256",
          "name": "totalFees",
          "type": "uint256"
        },
        {
          "indexed": false,
          "internalType": "string",
          "name": "reason",
          "type": "string"
        },
        {
          "indexed": false,
          "internalType": "uint256",
          "name": "timestamp",
          "type": "uint256"
        }
      ],
      "name": "FeeProcessingSkipped",
      "type": "event"
    },
    {
      "anonymous": false,
      "inputs": [
        {
          "indexed": false,
          "internalType": "uint256",
          "name": "totalFees",
          "type": "uint256"
        },
        {
          "indexed": true,
          "internalType": "address",
          "name": "triggeredBy",
          "type": "address"
        },
        {
          "indexed": false,
          "internalType": "string",
          "name": "triggerType",
          "type": "string"
        },
        {
          "indexed": false,
          "internalType": "uint256",
          "name": "timestamp",
          "type": "uint256"
        }
      ],
      "name": "FeeProcessingTriggered",
      "type": "event"
    },
    {
      "anonymous": false,
      "inputs": [
        {
          "indexed": false,
          "internalType": "string",
          "name": "feeType",
          "type": "string"
        },
        {
          "indexed": false,
          "internalType": "uint256",
          "name": "amount",
          "type": "uint256"
        },
        {
          "indexed": false,
          "internalType": "uint256",
          "name": "totalAccumulated",
          "type": "uint256"
        }
      ],
      "name": "FeesAccumulated",
      "type": "event"
    },
    {
      "anonymous": false,
      "inputs": [
        {
          "indexed": true,
          "internalType": "uint256",
          "name": "timestamp",
          "type": "uint256"
        },
        {
          "indexed": true,
          "internalType": "string",
          "name": "processType",
          "type": "string"
        },
        {
          "indexed": false,
          "internalType": "uint256",
          "name": "totalFeesXF",
          "type": "uint256"
        },
        {
          "indexed": false,
          "internalType": "uint256",
          "name": "totalFeesUSDT",
          "type": "uint256"
        },
        {
          "indexed": false,
          "internalType": "uint256",
          "name": "lpAmount",
          "type": "uint256"
        },
        {
          "indexed": false,
          "internalType": "uint256",
          "name": "marketingAmount",
          "type": "uint256"
        },
        {
          "indexed": false,
          "internalType": "uint256",
          "name": "burnAmount",
          "type": "uint256"
        },
        {
          "indexed": false,
          "internalType": "address",
          "name": "lpRecipient",
          "type": "address"
        },
        {
          "indexed": false,
          "internalType": "address",
          "name": "marketingRecipient",
          "type": "address"
        }
      ],
      "name": "FeesProcessed",
      "type": "event"
    },
    {
      "anonymous": false,
      "inputs": [
        {
          "indexed": false,
          "internalType": "uint256",
          "name": "expectedAmount",
          "type": "uint256"
        },
        {
          "indexed": false,
          "internalType": "uint256",
          "name": "actualAmount",
          "type": "uint256"
        },
        {
          "indexed": false,
          "internalType": "uint256",
          "name": "timestamp",
          "type": "uint256"
        }
      ],
      "name": "FundRelayTransferFailed",
      "type": "event"
    },
    {
      "anonymous": false,
      "inputs": [
        {
          "indexed": true,
          "internalType": "address",
          "name": "user",
          "type": "address"
        },
        {
          "indexed": true,
          "internalType": "uint256",
          "name": "timestamp",
          "type": "uint256"
        },
        {
          "indexed": false,
          "internalType": "uint256",
          "name": "previousInvestment",
          "type": "uint256"
        },
        {
          "indexed": false,
          "internalType": "uint256",
          "name": "newInvestment",
          "type": "uint256"
        },
        {
          "indexed": false,
          "internalType": "uint256",
          "name": "changeAmount",
          "type": "uint256"
        },
        {
          "indexed": false,
          "internalType": "string",
          "name": "changeType",
          "type": "string"
        }
      ],
      "name": "InvestmentUpdated",
      "type": "event"
    },
    {
      "anonymous": false,
      "inputs": [
        {
          "indexed": true,
          "internalType": "uint256",
          "name": "timestamp",
          "type": "uint256"
        },
        {
          "indexed": false,
          "internalType": "uint256",
          "name": "regularFeesXF",
          "type": "uint256"
        },
        {
          "indexed": false,
          "internalType": "uint256",
          "name": "regularFeesUSDT",
          "type": "uint256"
        },
        {
          "indexed": false,
          "internalType": "address",
          "name": "liquidityStakingContract",
          "type": "address"
        },
        {
          "indexed": false,
          "internalType": "string",
          "name": "source",
          "type": "string"
        }
      ],
      "name": "LPDistribution",
      "type": "event"
    },
    {
      "anonymous": false,
      "inputs": [
        {
          "indexed": false,
          "internalType": "uint256",
          "name": "amount",
          "type": "uint256"
        }
      ],
      "name": "LPRewardDeposited",
      "type": "event"
    },
    {
      "anonymous": false,
      "inputs": [
        {
          "indexed": false,
          "internalType": "uint256",
          "name": "tokenAmount",
          "type": "uint256"
        },
        {
          "indexed": false,
          "internalType": "uint256",
          "name": "usdtAmount",
          "type": "uint256"
        }
      ],
      "name": "LiquidityAdded",
      "type": "event"
    },
    {
      "anonymous": false,
      "inputs": [
        {
          "indexed": true,
          "internalType": "address",
          "name": "from",
          "type": "address"
        },
        {
          "indexed": true,
          "internalType": "address",
          "name": "to",
          "type": "address"
        },
        {
          "indexed": false,
          "internalType": "uint256",
          "name": "feeAmount",
          "type": "uint256"
        },
        {
          "indexed": false,
          "internalType": "uint256",
          "name": "netAmount",
          "type": "uint256"
        },
        {
          "indexed": false,
          "internalType": "string",
          "name": "operationType",
          "type": "string"
        }
      ],
      "name": "LiquidityHandleFeeCollected",
      "type": "event"
    },
    {
      "anonymous": false,
      "inputs": [
        {
          "indexed": true,
          "internalType": "address",
          "name": "oldAddress",
          "type": "address"
        },
        {
          "indexed": true,
          "internalType": "address",
          "name": "newAddress",
          "type": "address"
        }
      ],
      "name": "MarketingAddressUpdated",
      "type": "event"
    },
    {
      "anonymous": false,
      "inputs": [
        {
          "indexed": false,
          "internalType": "uint256",
          "name": "timestamp",
          "type": "uint256"
        },
        {
          "indexed": false,
          "internalType": "uint256",
          "name": "tokenAmount",
          "type": "uint256"
        },
        {
          "indexed": false,
          "internalType": "uint256",
          "name": "usdtAmount",
          "type": "uint256"
        },
        {
          "indexed": false,
          "internalType": "uint256",
          "name": "rewardIndex",
          "type": "uint256"
        },
        {
          "indexed": true,
          "internalType": "address",
          "name": "recipient",
          "type": "address"
        },
        {
          "indexed": false,
          "internalType": "string",
          "name": "distributionType",
          "type": "string"
        }
      ],
      "name": "MarketingDistribution",
      "type": "event"
    },
    {
      "anonymous": false,
      "inputs": [
        {
          "indexed": true,
          "internalType": "address",
          "name": "seller",
          "type": "address"
        },
        {
          "indexed": true,
          "internalType": "uint256",
          "name": "timestamp",
          "type": "uint256"
        },
        {
          "indexed": false,
          "internalType": "uint256",
          "name": "feeAmountXF",
          "type": "uint256"
        },
        {
          "indexed": false,
          "internalType": "uint256",
          "name": "feeAmountUSDT",
          "type": "uint256"
        },
        {
          "indexed": false,
          "internalType": "uint256",
          "name": "saleValueUSDT",
          "type": "uint256"
        },
        {
          "indexed": false,
          "internalType": "uint256",
          "name": "userInvestmentUSDT",
          "type": "uint256"
        }
      ],
      "name": "NoProfitFeeCollected",
      "type": "event"
    },
    {
      "anonymous": false,
      "inputs": [
        {
          "indexed": true,
          "internalType": "address",
          "name": "previousOwner",
          "type": "address"
        },
        {
          "indexed": true,
          "internalType": "address",
          "name": "newOwner",
          "type": "address"
        }
      ],
      "name": "OwnershipTransferred",
      "type": "event"
    },
    {
      "anonymous": false,
      "inputs": [
        {
          "indexed": false,
          "internalType": "uint256",
          "name": "newDuration",
          "type": "uint256"
        }
      ],
      "name": "PresaleDurationUpdated",
      "type": "event"
    },
    {
      "anonymous": false,
      "inputs": [
        {
          "indexed": false,
          "internalType": "bool",
          "name": "active",
          "type": "bool"
        }
      ],
      "name": "PresaleStatusUpdated",
      "type": "event"
    },
    {
      "anonymous": false,
      "inputs": [
        {
          "indexed": true,
          "internalType": "address",
          "name": "seller",
          "type": "address"
        },
        {
          "indexed": true,
          "internalType": "uint256",
          "name": "timestamp",
          "type": "uint256"
        },
        {
          "indexed": false,
          "internalType": "uint256",
          "name": "originalXFAmount",
          "type": "uint256"
        },
        {
          "indexed": false,
          "internalType": "uint256",
          "name": "tradingFeeXF",
          "type": "uint256"
        },
        {
          "indexed": false,
          "internalType": "uint256",
          "name": "marketingFeeXF",
          "type": "uint256"
        },
        {
          "indexed": false,
          "internalType": "uint256",
          "name": "lpFeeXF",
          "type": "uint256"
        },
        {
          "indexed": false,
          "internalType": "uint256",
          "name": "netXFAfterTradingFees",
          "type": "uint256"
        },
        {
          "indexed": false,
          "internalType": "uint256",
          "name": "estimatedUSDTFromSale",
          "type": "uint256"
        },
        {
          "indexed": false,
          "internalType": "uint256",
          "name": "userHistoricalInvestment",
          "type": "uint256"
        },
        {
          "indexed": false,
          "internalType": "uint256",
          "name": "totalProfitAmount",
          "type": "uint256"
        },
        {
          "indexed": false,
          "internalType": "uint256",
          "name": "profitTaxUSDT",
          "type": "uint256"
        },
        {
          "indexed": false,
          "internalType": "uint256",
          "name": "noProfitFeeUSDT",
          "type": "uint256"
        },
        {
          "indexed": false,
          "internalType": "uint256",
          "name": "profitTaxToMarketing",
          "type": "uint256"
        },
        {
          "indexed": false,
          "internalType": "uint256",
          "name": "profitTaxToReferrer",
          "type": "uint256"
        },
        {
          "indexed": false,
          "internalType": "uint256",
          "name": "userNetProfitUSDT",
          "type": "uint256"
        },
        {
          "indexed": false,
          "internalType": "uint256",
          "name": "finalUSDTReceived",
          "type": "uint256"
        },
        {
          "indexed": false,
          "internalType": "address",
          "name": "referrer",
          "type": "address"
        }
      ],
      "name": "SellTransaction",
      "type": "event"
    },
    {
      "anonymous": false,
      "inputs": [
        {
          "indexed": false,
          "internalType": "string",
          "name": "reason",
          "type": "string"
        },
        {
          "indexed": false,
          "internalType": "uint256",
          "name": "tokenAmount",
          "type": "uint256"
        },
        {
          "indexed": false,
          "internalType": "uint256",
          "name": "timestamp",
          "type": "uint256"
        }
      ],
      "name": "SwapFailed",
      "type": "event"
    },
    {
      "anonymous": false,
      "inputs": [
        {
          "indexed": false,
          "internalType": "uint256",
          "name": "amount",
          "type": "uint256"
        }
      ],
      "name": "TokensBurned",
      "type": "event"
    },
    {
      "anonymous": false,
      "inputs": [
        {
          "indexed": true,
          "internalType": "address",
          "name": "user",
          "type": "address"
        },
        {
          "indexed": true,
          "internalType": "uint256",
          "name": "timestamp",
          "type": "uint256"
        },
        {
          "indexed": true,
          "internalType": "string",
          "name": "txType",
          "type": "string"
        },
        {
          "indexed": false,
          "internalType": "uint256",
          "name": "tokenAmount",
          "type": "uint256"
        },
        {
          "indexed": false,
          "internalType": "uint256",
          "name": "usdtAmount",
          "type": "uint256"
        },
        {
          "indexed": false,
          "internalType": "uint256",
          "name": "netUserReceived",
          "type": "uint256"
        },
        {
          "indexed": false,
          "internalType": "uint256",
          "name": "previousInvestment",
          "type": "uint256"
        },
        {
          "indexed": false,
          "internalType": "uint256",
          "name": "newInvestment",
          "type": "uint256"
        },
        {
          "indexed": false,
          "internalType": "uint256",
          "name": "burnFee",
          "type": "uint256"
        },
        {
          "indexed": false,
          "internalType": "uint256",
          "name": "lpFee",
          "type": "uint256"
        },
        {
          "indexed": false,
          "internalType": "uint256",
          "name": "marketingFee",
          "type": "uint256"
        },
        {
          "indexed": false,
          "internalType": "uint256",
          "name": "profitAmount",
          "type": "uint256"
        },
        {
          "indexed": false,
          "internalType": "uint256",
          "name": "profitTax",
          "type": "uint256"
        },
        {
          "indexed": false,
          "internalType": "address",
          "name": "referrer",
          "type": "address"
        }
      ],
      "name": "TransactionExecuted",
      "type": "event"
    },
    {
      "anonymous": false,
      "inputs": [
        {
          "indexed": true,
          "internalType": "address",
          "name": "from",
          "type": "address"
        },
        {
          "indexed": true,
          "internalType": "address",
          "name": "to",
          "type": "address"
        },
        {
          "indexed": false,
          "internalType": "uint256",
          "name": "value",
          "type": "uint256"
        }
      ],
      "name": "Transfer",
      "type": "event"
    },
    {
      "anonymous": false,
      "inputs": [
        {
          "indexed": true,
          "internalType": "address",
          "name": "from",
          "type": "address"
        },
        {
          "indexed": true,
          "internalType": "address",
          "name": "to",
          "type": "address"
        },
        {
          "indexed": false,
          "internalType": "uint256",
          "name": "feeAmount",
          "type": "uint256"
        },
        {
          "indexed": false,
          "internalType": "uint256",
          "name": "netAmount",
          "type": "uint256"
        },
        {
          "indexed": false,
          "internalType": "string",
          "name": "transferType",
          "type": "string"
        }
      ],
      "name": "TransferFeeCollected",
      "type": "event"
    },
    {
      "anonymous": false,
      "inputs": [
        {
          "indexed": true,
          "internalType": "address",
          "name": "user",
          "type": "address"
        },
        {
          "indexed": true,
          "internalType": "uint256",
          "name": "timestamp",
          "type": "uint256"
        },
        {
          "indexed": false,
          "internalType": "string",
          "name": "txType",
          "type": "string"
        },
        {
          "indexed": false,
          "internalType": "uint256",
          "name": "tokenAmount",
          "type": "uint256"
        },
        {
          "indexed": false,
          "internalType": "uint256",
          "name": "usdtAmount",
          "type": "uint256"
        },
        {
          "indexed": false,
          "internalType": "uint256",
          "name": "netReceived",
          "type": "uint256"
        }
      ],
      "name": "UserTransaction",
      "type": "event"
    },
    {
      "inputs": [],
      "name": "DEAD_ADDRESS",
      "outputs": [
        {
          "internalType": "address",
          "name": "",
          "type": "address"
        }
      ],
      "stateMutability": "view",
      "type": "function"
    },
    {
      "inputs": [],
      "name": "USDT",
      "outputs": [
        {
          "internalType": "address",
          "name": "",
          "type": "address"
        }
      ],
      "stateMutability": "view",
      "type": "function"
    },
    {
      "inputs": [
        {
          "internalType": "address",
          "name": "owner",
          "type": "address"
        },
        {
          "internalType": "address",
          "name": "spender",
          "type": "address"
        }
      ],
      "name": "allowance",
      "outputs": [
        {
          "internalType": "uint256",
          "name": "",
          "type": "uint256"
        }
      ],
      "stateMutability": "view",
      "type": "function"
    },
    {
      "inputs": [],
      "name": "amountLPFee",
      "outputs": [
        {
          "internalType": "uint256",
          "name": "",
          "type": "uint256"
        }
      ],
      "stateMutability": "view",
      "type": "function"
    },
    {
      "inputs": [],
      "name": "amountMarketingFee",
      "outputs": [
        {
          "internalType": "uint256",
          "name": "",
          "type": "uint256"
        }
      ],
      "stateMutability": "view",
      "type": "function"
    },
    {
      "inputs": [
        {
          "internalType": "address",
          "name": "spender",
          "type": "address"
        },
        {
          "internalType": "uint256",
          "name": "value",
          "type": "uint256"
        }
      ],
      "name": "approve",
      "outputs": [
        {
          "internalType": "bool",
          "name": "",
          "type": "bool"
        }
      ],
      "stateMutability": "nonpayable",
      "type": "function"
    },
    {
      "inputs": [
        {
          "internalType": "address",
          "name": "account",
          "type": "address"
        }
      ],
      "name": "balanceOf",
      "outputs": [
        {
          "internalType": "uint256",
          "name": "",
          "type": "uint256"
        }
      ],
      "stateMutability": "view",
      "type": "function"
    },
    {
      "inputs": [
        {
          "internalType": "address",
          "name": "",
          "type": "address"
        }
      ],
      "name": "blacklisted",
      "outputs": [
        {
          "internalType": "bool",
          "name": "",
          "type": "bool"
        }
      ],
      "stateMutability": "view",
      "type": "function"
    },
    {
      "inputs": [],
      "name": "coldTime",
      "outputs": [
        {
          "internalType": "uint256",
          "name": "",
          "type": "uint256"
        }
      ],
      "stateMutability": "view",
      "type": "function"
    },
    {
      "inputs": [],
      "name": "contractDeployTime",
      "outputs": [
        {
          "internalType": "uint256",
          "name": "",
          "type": "uint256"
        }
      ],
      "stateMutability": "view",
      "type": "function"
    },
    {
      "inputs": [],
      "name": "decimals",
      "outputs": [
        {
          "internalType": "uint8",
          "name": "",
          "type": "uint8"
        }
      ],
      "stateMutability": "view",
      "type": "function"
    },
    {
      "inputs": [],
      "name": "delayedBuyEnabled",
      "outputs": [
        {
          "internalType": "bool",
          "name": "",
          "type": "bool"
        }
      ],
      "stateMutability": "view",
      "type": "function"
    },
    {
      "inputs": [],
      "name": "delayedBuyEnabledTime",
      "outputs": [
        {
          "internalType": "uint256",
          "name": "",
          "type": "uint256"
        }
      ],
      "stateMutability": "view",
      "type": "function"
    },
    {
      "inputs": [
        {
          "internalType": "address",
          "name": "",
          "type": "address"
        }
      ],
      "name": "feeWhitelisted",
      "outputs": [
        {
          "internalType": "bool",
          "name": "",
          "type": "bool"
        }
      ],
      "stateMutability": "view",
      "type": "function"
    },
    {
      "inputs": [],
      "name": "fundRelay",
      "outputs": [
        {
          "internalType": "contract FundRelay",
          "name": "",
          "type": "address"
        }
      ],
      "stateMutability": "view",
      "type": "function"
    },
    {
      "inputs": [],
      "name": "getAccumulatedFees",
      "outputs": [
        {
          "internalType": "uint256",
          "name": "marketing",
          "type": "uint256"
        },
        {
          "internalType": "uint256",
          "name": "lp",
          "type": "uint256"
        },
        {
          "internalType": "uint256",
          "name": "threshold",
          "type": "uint256"
        }
      ],
      "stateMutability": "view",
      "type": "function"
    },
    {
      "inputs": [
        {
          "internalType": "uint256",
          "name": "amountOut",
          "type": "uint256"
        },
        {
          "internalType": "uint256",
          "name": "reserveIn",
          "type": "uint256"
        },
        {
          "internalType": "uint256",
          "name": "reserveOut",
          "type": "uint256"
        }
      ],
      "name": "getAmountIn",
      "outputs": [
        {
          "internalType": "uint256",
          "name": "amountIn",
          "type": "uint256"
        }
      ],
      "stateMutability": "pure",
      "type": "function"
    },
    {
      "inputs": [
        {
          "internalType": "uint256",
          "name": "amountIn",
          "type": "uint256"
        },
        {
          "internalType": "uint256",
          "name": "reserveIn",
          "type": "uint256"
        },
        {
          "internalType": "uint256",
          "name": "reserveOut",
          "type": "uint256"
        }
      ],
      "name": "getAmountOut",
      "outputs": [
        {
          "internalType": "uint256",
          "name": "amountOut",
          "type": "uint256"
        }
      ],
      "stateMutability": "pure",
      "type": "function"
    },
    {
      "inputs": [],
      "name": "getDelayedBuyInfo",
      "outputs": [
        {
          "internalType": "bool",
          "name": "enabled",
          "type": "bool"
        },
        {
          "internalType": "bool",
          "name": "testModeActive",
          "type": "bool"
        },
        {
          "internalType": "uint256",
          "name": "enabledTime",
          "type": "uint256"
        },
        {
          "internalType": "uint256",
          "name": "requiredDelay",
          "type": "uint256"
        },
        {
          "internalType": "uint256",
          "name": "remainingDelay",
          "type": "uint256"
        }
      ],
      "stateMutability": "view",
      "type": "function"
    },
    {
      "inputs": [],
      "name": "getDelayedSwapStatus",
      "outputs": [
        {
          "internalType": "bool",
          "name": "pending",
          "type": "bool"
        },
        {
          "internalType": "uint256",
          "name": "totalFees",
          "type": "uint256"
        }
      ],
      "stateMutability": "view",
      "type": "function"
    },
    {
      "inputs": [],
      "name": "getFundRelay",
      "outputs": [
        {
          "internalType": "address",
          "name": "",
          "type": "address"
        }
      ],
      "stateMutability": "view",
      "type": "function"
    },
    {
      "inputs": [],
      "name": "getPresaleStatus",
      "outputs": [
        {
          "internalType": "bool",
          "name": "active",
          "type": "bool"
        },
        {
          "internalType": "uint256",
          "name": "startTime",
          "type": "uint256"
        },
        {
          "internalType": "uint256",
          "name": "duration",
          "type": "uint256"
        },
        {
          "internalType": "uint256",
          "name": "remainingTime",
          "type": "uint256"
        },
        {
          "internalType": "bool",
          "name": "isInPresale",
          "type": "bool"
        }
      ],
      "stateMutability": "view",
      "type": "function"
    },
    {
      "inputs": [],
      "name": "getUSDTReserve",
      "outputs": [
        {
          "internalType": "uint112",
          "name": "usdtReserve",
          "type": "uint112"
        }
      ],
      "stateMutability": "view",
      "type": "function"
    },
    {
      "inputs": [],
      "name": "getUniswapV2Pair",
      "outputs": [
        {
          "internalType": "address",
          "name": "",
          "type": "address"
        }
      ],
      "stateMutability": "view",
      "type": "function"
    },
    {
      "inputs": [
        {
          "internalType": "address",
          "name": "user",
          "type": "address"
        }
      ],
      "name": "getUserInvestment",
      "outputs": [
        {
          "internalType": "uint256",
          "name": "investment",
          "type": "uint256"
        },
        {
          "internalType": "uint256",
          "name": "lastBuy",
          "type": "uint256"
        }
      ],
      "stateMutability": "view",
      "type": "function"
    },
    {
      "inputs": [],
      "name": "initializeWhitelist",
      "outputs": [],
      "stateMutability": "nonpayable",
      "type": "function"
    },
    {
      "inputs": [
        {
          "internalType": "address",
          "name": "account",
          "type": "address"
        }
      ],
      "name": "isContract",
      "outputs": [
        {
          "internalType": "bool",
          "name": "",
          "type": "bool"
        }
      ],
      "stateMutability": "view",
      "type": "function"
    },
    {
      "inputs": [
        {
          "internalType": "address",
          "name": "buyer",
          "type": "address"
        }
      ],
      "name": "isDelayedBuyPeriodMet",
      "outputs": [
        {
          "internalType": "bool",
          "name": "",
          "type": "bool"
        }
      ],
      "stateMutability": "view",
      "type": "function"
    },
    {
      "inputs": [
        {
          "internalType": "address",
          "name": "",
          "type": "address"
        }
      ],
      "name": "lastBuyTime",
      "outputs": [
        {
          "internalType": "uint256",
          "name": "",
          "type": "uint256"
        }
      ],
      "stateMutability": "view",
      "type": "function"
    },
    {
      "inputs": [],
      "name": "liquidityThreshold",
      "outputs": [
        {
          "internalType": "uint256",
          "name": "",
          "type": "uint256"
        }
      ],
      "stateMutability": "view",
      "type": "function"
    },
    {
      "inputs": [],
      "name": "marketingAddress",
      "outputs": [
        {
          "internalType": "address",
          "name": "",
          "type": "address"
        }
      ],
      "stateMutability": "view",
      "type": "function"
    },
    {
      "inputs": [],
      "name": "name",
      "outputs": [
        {
          "internalType": "string",
          "name": "",
          "type": "string"
        }
      ],
      "stateMutability": "view",
      "type": "function"
    },
    {
      "inputs": [],
      "name": "nodeDividendAddress",
      "outputs": [
        {
          "internalType": "address",
          "name": "",
          "type": "address"
        }
      ],
      "stateMutability": "view",
      "type": "function"
    },
    {
      "inputs": [],
      "name": "owner",
      "outputs": [
        {
          "internalType": "address",
          "name": "",
          "type": "address"
        }
      ],
      "stateMutability": "view",
      "type": "function"
    },
    {
      "inputs": [],
      "name": "presaleActive",
      "outputs": [
        {
          "internalType": "bool",
          "name": "",
          "type": "bool"
        }
      ],
      "stateMutability": "view",
      "type": "function"
    },
    {
      "inputs": [],
      "name": "presaleDuration",
      "outputs": [
        {
          "internalType": "uint256",
          "name": "",
          "type": "uint256"
        }
      ],
      "stateMutability": "view",
      "type": "function"
    },
    {
      "inputs": [],
      "name": "presaleStartTime",
      "outputs": [
        {
          "internalType": "uint256",
          "name": "",
          "type": "uint256"
        }
      ],
      "stateMutability": "view",
      "type": "function"
    },
    {
      "inputs": [
        {
          "internalType": "address",
          "name": "token",
          "type": "address"
        },
        {
          "internalType": "uint256",
          "name": "amount",
          "type": "uint256"
        }
      ],
      "name": "recoverStuckTokens",
      "outputs": [],
      "stateMutability": "nonpayable",
      "type": "function"
    },
    {
      "inputs": [
        {
          "internalType": "uint256",
          "name": "amount",
          "type": "uint256"
        }
      ],
      "name": "recycle",
      "outputs": [],
      "stateMutability": "nonpayable",
      "type": "function"
    },
    {
      "inputs": [],
      "name": "renounceOwnership",
      "outputs": [],
      "stateMutability": "nonpayable",
      "type": "function"
    },
    {
      "inputs": [],
      "name": "rootAddress",
      "outputs": [
        {
          "internalType": "address",
          "name": "",
          "type": "address"
        }
      ],
      "stateMutability": "view",
      "type": "function"
    },
    {
      "inputs": [
        {
          "internalType": "address[]",
          "name": "accounts",
          "type": "address[]"
        },
        {
          "internalType": "bool",
          "name": "_blacklisted",
          "type": "bool"
        }
      ],
      "name": "setBatchBlacklisted",
      "outputs": [],
      "stateMutability": "nonpayable",
      "type": "function"
    },
    {
      "inputs": [
        {
          "internalType": "address[]",
          "name": "accounts",
          "type": "address[]"
        },
        {
          "internalType": "bool",
          "name": "_whitelisted",
          "type": "bool"
        }
      ],
      "name": "setBatchFeeWhitelisted",
      "outputs": [],
      "stateMutability": "nonpayable",
      "type": "function"
    },
    {
      "inputs": [
        {
          "internalType": "address",
          "name": "account",
          "type": "address"
        },
        {
          "internalType": "bool",
          "name": "_blacklisted",
          "type": "bool"
        }
      ],
      "name": "setBlacklisted",
      "outputs": [],
      "stateMutability": "nonpayable",
      "type": "function"
    },
    {
      "inputs": [
        {
          "internalType": "uint256",
          "name": "_coldTime",
          "type": "uint256"
        }
      ],
      "name": "setColdTime",
      "outputs": [],
      "stateMutability": "nonpayable",
      "type": "function"
    },
    {
      "inputs": [
        {
          "internalType": "bool",
          "name": "_enabled",
          "type": "bool"
        }
      ],
      "name": "setDelayedBuyEnabled",
      "outputs": [],
      "stateMutability": "nonpayable",
      "type": "function"
    },
    {
      "inputs": [
        {
          "internalType": "address",
          "name": "account",
          "type": "address"
        },
        {
          "internalType": "bool",
          "name": "whitelisted",
          "type": "bool"
        }
      ],
      "name": "setFeeWhitelisted",
      "outputs": [],
      "stateMutability": "nonpayable",
      "type": "function"
    },
    {
      "inputs": [
        {
          "internalType": "address",
          "name": "_fundRelay",
          "type": "address"
        }
      ],
      "name": "setFundRelay",
      "outputs": [],
      "stateMutability": "nonpayable",
      "type": "function"
    },
    {
      "inputs": [
        {
          "internalType": "uint256",
          "name": "newThreshold",
          "type": "uint256"
        }
      ],
      "name": "setLiquidityThreshold",
      "outputs": [],
      "stateMutability": "nonpayable",
      "type": "function"
    },
    {
      "inputs": [
        {
          "internalType": "address",
          "name": "_newAddress",
          "type": "address"
        }
      ],
      "name": "setMarketingAddress",
      "outputs": [],
      "stateMutability": "nonpayable",
      "type": "function"
    },
    {
      "inputs": [
        {
          "internalType": "address",
          "name": "_node",
          "type": "address"
        }
      ],
      "name": "setNodeDividendAddress",
      "outputs": [],
      "stateMutability": "nonpayable",
      "type": "function"
    },
    {
      "inputs": [
        {
          "internalType": "address",
          "name": "_pair",
          "type": "address"
        }
      ],
      "name": "setPair",
      "outputs": [],
      "stateMutability": "nonpayable",
      "type": "function"
    },
    {
      "inputs": [
        {
          "internalType": "bool",
          "name": "_active",
          "type": "bool"
        }
      ],
      "name": "setPresaleActive",
      "outputs": [],
      "stateMutability": "nonpayable",
      "type": "function"
    },
    {
      "inputs": [],
      "name": "setPresaleDuration",
      "outputs": [],
      "stateMutability": "nonpayable",
      "type": "function"
    },
    {
      "inputs": [
        {
          "internalType": "uint256",
          "name": "_swapAtAmount",
          "type": "uint256"
        }
      ],
      "name": "setSwapAtAmount",
      "outputs": [],
      "stateMutability": "nonpayable",
      "type": "function"
    },
    {
      "inputs": [],
      "name": "staking",
      "outputs": [
        {
          "internalType": "contract IStaking",
          "name": "",
          "type": "address"
        }
      ],
      "stateMutability": "view",
      "type": "function"
    },
    {
      "inputs": [],
      "name": "swapAtAmount",
      "outputs": [
        {
          "internalType": "uint256",
          "name": "",
          "type": "uint256"
        }
      ],
      "stateMutability": "view",
      "type": "function"
    },
    {
      "inputs": [],
      "name": "symbol",
      "outputs": [
        {
          "internalType": "string",
          "name": "",
          "type": "string"
        }
      ],
      "stateMutability": "view",
      "type": "function"
    },
    {
      "inputs": [],
      "name": "totalSupply",
      "outputs": [
        {
          "internalType": "uint256",
          "name": "",
          "type": "uint256"
        }
      ],
      "stateMutability": "view",
      "type": "function"
    },
    {
      "inputs": [
        {
          "internalType": "address",
          "name": "to",
          "type": "address"
        },
        {
          "internalType": "uint256",
          "name": "value",
          "type": "uint256"
        }
      ],
      "name": "transfer",
      "outputs": [
        {
          "internalType": "bool",
          "name": "",
          "type": "bool"
        }
      ],
      "stateMutability": "nonpayable",
      "type": "function"
    },
    {
      "inputs": [
        {
          "internalType": "address",
          "name": "from",
          "type": "address"
        },
        {
          "internalType": "address",
          "name": "to",
          "type": "address"
        },
        {
          "internalType": "uint256",
          "name": "value",
          "type": "uint256"
        }
      ],
      "name": "transferFrom",
      "outputs": [
        {
          "internalType": "bool",
          "name": "",
          "type": "bool"
        }
      ],
      "stateMutability": "nonpayable",
      "type": "function"
    },
    {
      "inputs": [
        {
          "internalType": "address",
          "name": "newOwner",
          "type": "address"
        }
      ],
      "name": "transferOwnership",
      "outputs": [],
      "stateMutability": "nonpayable",
      "type": "function"
    },
    {
      "inputs": [],
      "name": "triggerFeeProcessing",
      "outputs": [],
      "stateMutability": "nonpayable",
      "type": "function"
    },
    {
      "inputs": [],
      "name": "triggerFundRelayDistribution",
      "outputs": [],
      "stateMutability": "nonpayable",
      "type": "function"
    },
    {
      "inputs": [],
      "name": "uniswapV2Pair",
      "outputs": [
        {
          "internalType": "contract IUniswapV2Pair",
          "name": "",
          "type": "address"
        }
      ],
      "stateMutability": "view",
      "type": "function"
    },
    {
      "inputs": [],
      "name": "uniswapV2Router",
      "outputs": [
        {
          "internalType": "contract IUniswapV2Router02",
          "name": "",
          "type": "address"
        }
      ],
      "stateMutability": "view",
      "type": "function"
    },
    {
      "inputs": [
        {
          "internalType": "address",
          "name": "",
          "type": "address"
        }
      ],
      "name": "userInvestment",
      "outputs": [
        {
          "internalType": "uint256",
          "name": "",
          "type": "uint256"
        }
      ],
      "stateMutability": "view",
      "type": "function"
    }
  ],
  "bytecode": "0x60e080604052346104d657606081613298803803809161001f82856104db565b8339810103126104d657610032816104fe565b9061004b6040610044602084016104fe565b92016104fe565b906040519261005b6040856104db565b600984526829aca4902a37b5b2b760b91b6020850152604051936100806040866104db565b600385526253594960e81b60208601528051906001600160401b0382116103d35760035490600182811c921680156104cc575b60208310146103b35781601f84931161045c575b50602090601f83116001146103f4576000926103e9575b50508160011b916000199060031b1c1916176003555b83516001600160401b0381116103d357600454600181811c911680156103c9575b60208210146103b357601f811161034e575b50602094601f82116001146102e7579481929394956000926102dc575b50508160011b916000199060031b1c1916176004555b33156102c65760058054336001600160a01b0319821681179092556001600160a01b03167f8be0079c531659141344cd1fd0a4f28419497f9722a3daafe3b4186f6b6457e0600080a3600a600b5569021e19e0c9bab2400000600e55633b9aca006019556001600160a01b0381161580156102b5575b80156102a4575b610293576080526001600160a01b0390811660a0521660c0526101f933610512565b4260125542600f5562278d00601055600160ff196011541617601155604051612cf190816105a7823960805181818161073901528181611acb01528181612463015281816126cf0152612802015260a05181818161137401528181611525015281816122df01528181612352015261282e015260c0518181816104a701528181610f90015281816110010152818161123401526113410152f35b63d92e233d60e01b60005260046000fd5b506001600160a01b038316156101d7565b506001600160a01b038216156101d0565b631e4fbdf760e01b600052600060045260246000fd5b015190503880610144565b601f198216956004600052806000209160005b8881106103365750836001959697981061031d575b505050811b0160045561015a565b015160001960f88460031b161c1916905538808061030f565b919260206001819286850151815501940192016102fa565b60046000527f8a35acfbc15ff81a39ae7d344fd709f28e8600b4aa8c65c6b64bfe7fe36bd19b601f830160051c810191602084106103a9575b601f0160051c01905b81811061039d5750610127565b60008155600101610390565b9091508190610387565b634e487b7160e01b600052602260045260246000fd5b90607f1690610115565b634e487b7160e01b600052604160045260246000fd5b0151905038806100de565b600360009081528281209350601f198516905b818110610444575090846001959493921061042b575b505050811b016003556100f4565b015160001960f88460031b161c1916905538808061041d565b92936020600181928786015181550195019301610407565b60036000529091507fc2575a0e9e593c00f959f8c92f12db2869c3395a3b0502d05e2516446f71f85b601f840160051c810191602085106104c2575b90601f859493920160051c01905b8181106104b357506100c7565b600081558493506001016104a6565b9091508190610498565b91607f16916100b3565b600080fd5b601f909101601f19168101906001600160401b038211908210176103d357604052565b51906001600160a01b03821682036104d657565b6a084595161401484a00000090600090600254838101809111610590577fddf252ad1be2c89b69c2b068fc378daa952ba7f163c4a11628f55a4df523b3ef916020916002556001600160a01b031693846105785780600254036002555b604051908152a3565b8460005260008252604060002081815401905561056f565b634e487b7160e01b600052601160045260246000fdfe6080604052600436101561001257600080fd5b6000803560e01c8063054d50d41461165f57806306fdde03146115a2578063095ea7b31461157b57806316279055146115545780631694505e1461150f57806318160ddd146114f15780631abfa6291461105357806321e2c9571461149557806323b872dd146113b45780632927bacd146112d9578063313ce567146112bd57806332f658811461128057806336543fb91461126257806338a674c5146111c95780633c19814e1461117d5780633f8121a2146110db5780633fecc2e2146110a257806343a066aa1461107c57806349bd5a5e146110535780634baf59f3146110305780634cf088d914610feb5780634e6fd6c414610fce57806352795e0b14610f7957806353135ca014610f56578063569ea10114610f17578063570475dc14610ee85780635868c32a14610eca5780635df45a3714610e9b578063615c440914610e72578063622e6ad814610e4f5780636402511e14610e2c57806366d57b9514610e0e57806370a0823114610dcc578063715018a614610d6f5780637464024c146108d95780638187f51614610d0857806385f8c25914610c5a578063861bd3c514610bfb5780638691752414610bdd5780638733cfd314610ba457806387894d0314610b765780638da5cb5b14610b4d578063906e9dd014610ab257806390e82f2414610a4f5780639315e56114610a3157806395d89b41146109205780639f54790d14610902578063a4823059146108d9578063a5ece941146108b0578063a82524b214610892578063a9059cbb14610860578063aaa2b8c814610837578063af24ccaa146107ba578063b99ce15e14610768578063c54e44eb14610723578063c596f3fe146106f5578063c9688086146106d7578063d01dd6d214610685578063d123de3114610659578063d4273cd61461063b578063d7517caa146105bc578063dbac26e91461057d578063dd1c35bc14610490578063dd62ed3e1461043b578063f2fde38b146103b2578063fdc0cdbf1461038e5763ff919151146102fe57600080fd5b3461038b578060031936011261038b5760115460135460a09260089290921c60ff16159190821561034c57815b604051931584526020840152604083015262278d0060608301526080820152f35b801561038357805b61035d81611889565b421061036a57508161032b565b61037d906103784291611889565b611b62565b9161032b565b601254610354565b80fd5b503461038b578060031936011261038b576103a7611ba2565b6103af612103565b80f35b503461038b57602036600319011261038b576103cc611719565b6103d4611ba2565b6001600160a01b0316801561042757600580546001600160a01b0319811683179091556001600160a01b03167f8be0079c531659141344cd1fd0a4f28419497f9722a3daafe3b4186f6b6457e08380a380f35b631e4fbdf760e01b82526004829052602482fd5b503461038b57604036600319011261038b576040610457611719565b9161046061172f565b9260018060a01b031681526001602052209060018060a01b03166000526020526020604060002054604051908152f35b503461038b57602036600319011261038b576004357f00000000000000000000000000000000000000000000000000000000000000006001600160a01b03166104da338214611845565b6006546001600160a01b031660008181526020819052604090205490929060039004908181106105755750905b81610510578380f35b61051992611bcb565b60065481906001600160a01b0316803b156105725781809160046040518095819363fff6cae960e01b83525af180156105655761055557818380f35b61055e91611763565b3881818380f35b50604051903d90823e3d90fd5b50fd5b905090610507565b503461038b57602036600319011261038b5760209060ff906040906001600160a01b036105a8611719565b168152601884522054166040519015158152f35b503461038b578060031936011261038b5760a090600f54906010546105e181846118af565b918242109283600014610634576105fa91504290611b62565b905b60115460ff169384938461062c575b50604051941515855260208501526040840152606083015215156080820152f35b93503861060b565b50906105fc565b503461038b578060031936011261038b576020601354604051908152f35b503461038b578060031936011261038b576020610674611a59565b6001600160701b0360405191168152f35b503461038b57604036600319011261038b576103af6106a2611719565b6106aa611754565b906106b3611ba2565b60018060a01b031683526018602052604083209060ff801983541691151516179055565b503461038b578060031936011261038b576020601954604051908152f35b503461038b57604036600319011261038b576103af610712611719565b61071a611ba2565b60243590611961565b503461038b578060031936011261038b576040517f00000000000000000000000000000000000000000000000000000000000000006001600160a01b03168152602090f35b503461038b57604036600319011261038b576103af610785611719565b61078d611754565b90610796611ba2565b60018060a01b031683526017602052604083209060ff801983541691151516179055565b503461038b57602036600319011261038b577f2c8ccbef4032016d78404afa804c622487ae3acab4caeff4b2dba121d7488c1860206107f7611745565b6107ff611ba2565b8015159060115461ff008360081b169061ff0019161760115560001461082e57426013555b604051908152a180f35b83601355610824565b503461038b578060031936011261038b576008546040516001600160a01b039091168152602090f35b503461038b57604036600319011261038b5761088761087d611719565b6024359033611bcb565b602060405160018152f35b503461038b578060031936011261038b576020600f54604051908152f35b503461038b578060031936011261038b576009546040516001600160a01b039091168152602090f35b503461038b578060031936011261038b576007546040516001600160a01b039091168152602090f35b503461038b578060031936011261038b576020601254604051908152f35b503461038b578060031936011261038b576040519080600454908160011c91600181168015610a27575b602084108114610a13578386529081156109ec575060011461098f575b61098b8461097781860382611763565b6040519182916020835260208301906116d8565b0390f35b600481527f8a35acfbc15ff81a39ae7d344fd709f28e8600b4aa8c65c6b64bfe7fe36bd19b939250905b8082106109d25750909150810160200161097782610967565b9192600181602092548385880101520191019092916109b9565b60ff191660208087019190915292151560051b850190920192506109779150839050610967565b634e487b7160e01b83526022600452602483fd5b92607f169261094a565b503461038b578060031936011261038b576020600d54604051908152f35b503461038b57610a5e3661179b565b610a66611ba2565b825b8251811015610aae576001906001600160a01b03610a8682866118bc565b511685526017602052610aa883604087209060ff801983541691151516179055565b01610a68565b8380f35b503461038b57602036600319011261038b57610acc611719565b610ad4611ba2565b6001600160a01b03168015610b3e57600980546001600160a01b031981168317909155818352601760205260408320805460ff191660011790556001600160a01b03167fa8efc72ed34f90017df79620d1972d42b8e3b17eb0077fc5fc46cbf1a19ed9a98380a380f35b63d92e233d60e01b8252600482fd5b503461038b578060031936011261038b576005546040516001600160a01b039091168152602090f35b503461038b57602036600319011261038b576020610b9a610b95611719565b6118e6565b6040519015158152f35b503461038b57602036600319011261038b576020906040906001600160a01b03610bcc611719565b168152601583522054604051908152f35b503461038b578060031936011261038b576020600e54604051908152f35b503461038b57610c0a3661179b565b610c12611ba2565b825b8251811015610aae576001906001600160a01b03610c3282866118bc565b511685526018602052610c5483604087209060ff801983541691151516179055565b01610c14565b503461038b57610c75610c6c366116b9565b92908290611b8f565b916127108302928084046127101490151715610cf45790610c9591611b62565b906126f78202918083046126f71490151715610ce05790610cb591611b6f565b9060018201809211610ccc57602082604051908152f35b634e487b7160e01b81526011600452602490fd5b634e487b7160e01b83526011600452602483fd5b634e487b7160e01b84526011600452602484fd5b503461038b57602036600319011261038b57610d22611719565b610d2a611ba2565b6001600160a01b03168015610b3e576006546001600160a01b038116610d60576001600160a01b031916176006556103af612103565b63a741a04560e01b8352600483fd5b503461038b578060031936011261038b57610d88611ba2565b600580546001600160a01b0319811690915581906001600160a01b03167f8be0079c531659141344cd1fd0a4f28419497f9722a3daafe3b4186f6b6457e08280a380f35b503461038b57602036600319011261038b576020610e06610deb611719565b6001600160a01b031660009081526020819052604090205490565b604051908152f35b503461038b578060031936011261038b576020600c54604051908152f35b503461038b57602036600319011261038b57610e46611ba2565b600435600e5580f35b503461038b57602036600319011261038b57610e69611ba2565b600435600b5580f35b503461038b578060031936011261038b57600a546040516001600160a01b039091168152602090f35b503461038b578060031936011261038b576060600c54600d54600e549060405192835260208301526040820152f35b503461038b578060031936011261038b576020601054604051908152f35b503461038b578060031936011261038b57604090610f0b600c54600d54906118af565b82519182526020820152f35b503461038b57602036600319011261038b5760209060ff906040906001600160a01b03610f42611719565b168152601784522054166040519015158152f35b503461038b578060031936011261038b57602060ff601154166040519015158152f35b503461038b578060031936011261038b57610fbe337f00000000000000000000000000000000000000000000000000000000000000006001600160a01b031614611845565b610fc6612031565b6103af611f29565b503461038b578060031936011261038b57602060405161dead8152f35b503461038b578060031936011261038b576040517f00000000000000000000000000000000000000000000000000000000000000006001600160a01b03168152602090f35b503461038b57602036600319011261038b5761104a611ba2565b60043560195580f35b503461038b578060031936011261038b576006546040516001600160a01b039091168152602090f35b503461038b578060031936011261038b57602060ff60115460081c166040519015158152f35b503461038b57602036600319011261038b576020906040906001600160a01b036110ca611719565b168152601683522054604051908152f35b503461038b57602036600319011261038b577ff19c3bdddf1b5ac58b32a05cc2bc72313b03a8e8ceb7621e8818651371e00e546020611118611745565b611120611ba2565b8015159060ff196011541660ff83161760115561114157604051908152a180f35b42600f5562278d006010557fdbeb6ec948f6eb874ecbd6117742652c35d57fbe578b778b77e677a06af90b968260405162278d008152a1610824565b503461038b57602036600319011261038b57611197611719565b61119f611ba2565b6001600160a01b03168015610b3e576bffffffffffffffffffffffff60a01b600a541617600a5580f35b503461038b578060031936011261038b576005546001600160a01b031633148015611230575b156111fc576103af611f29565b60405162461bcd60e51b815260206004820152600c60248201526b155b985d5d1a1bdc9a5e995960a21b6044820152606490fd5b50337f00000000000000000000000000000000000000000000000000000000000000006001600160a01b0316146111ef565b503461038b578060031936011261038b576020600b54604051908152f35b503461038b57602036600319011261038b576040906001600160a01b036112a5611719565b16815260166020528181205482519182526020820152f35b503461038b578060031936011261038b57602060405160128152f35b503461038b578060031936011261038b576112f2611ba2565b601a5460ff81166113a657600160ff199182168117601a556005546001600160a01b039081168452601760208181526040808720805487168617905530875282825280872080548716861790557f00000000000000000000000000000000000000000000000000000000000000008416875282825280872080548716861790557f00000000000000000000000000000000000000000000000000000000000000009093168652528320805490921617905580f35b62dc149f60e41b8252600482fd5b503461038b57606036600319011261038b576113ce611719565b6113d661172f565b6001600160a01b03821680845260016020908152604080862033875290915284205460443593916000198210611413575b50506108879350611bcb565b84821061147a5780156114665733156114525760408686926108879852600160205281812060018060a01b033316825260205220910390553880611407565b634a1406b160e11b86526004869052602486fd5b63e602df0560e01b86526004869052602486fd5b6064868684637dc7a0d960e11b835233600452602452604452fd5b503461038b57602036600319011261038b576114af611719565b6114b7611ba2565b6001600160a01b03168015610b3e57600780546001600160a01b031916821790558152601760205260408120805460ff1916600117905580f35b503461038b578060031936011261038b576020600254604051908152f35b503461038b578060031936011261038b576040517f00000000000000000000000000000000000000000000000000000000000000006001600160a01b03168152602090f35b503461038b57602036600319011261038b576020611570611719565b3b1515604051908152f35b503461038b57604036600319011261038b57610887611598611719565b6024359033612139565b503461038b578060031936011261038b576040519080600354908160011c91600181168015611655575b602084108114610a13578386529081156109ec57506001146115f85761098b8461097781860382611763565b600381527fc2575a0e9e593c00f959f8c92f12db2869c3395a3b0502d05e2516446f71f85b939250905b80821061163b5750909150810160200161097782610967565b919260018160209254838588010152019101909291611622565b92607f16926115cc565b503461038b5761166e366116b9565b6126f78302928084046126f71490151715610cf45761168d9083611b8f565b926127108202918083046127101490151715610ccc576020610e06856116b386866118af565b90611b6f565b60609060031901126116d357600435906024359060443590565b600080fd5b919082519283825260005b848110611704575050826000602080949584010152601f8019910116010190565b806020809284010151828286010152016116e3565b600435906001600160a01b03821682036116d357565b602435906001600160a01b03821682036116d357565b6004359081151582036116d357565b6024359081151582036116d357565b90601f8019910116810190811067ffffffffffffffff82111761178557604052565b634e487b7160e01b600052604160045260246000fd5b60406003198201126116d3576004359067ffffffffffffffff82116116d357806023830112156116d35781600401359067ffffffffffffffff82116117855760208260051b01926117ef6040519485611763565b8284526024602085019360051b8201019182116116d357602401915b818310611825575050509060243580151581036116d35790565b82356001600160a01b03811681036116d35781526020928301920161180b565b1561184c57565b60405162461bcd60e51b815260206004820152601560248201527413db9b1e481cdd185ada5b99c818dbdb9d1c9858dd605a1b6044820152606490fd5b9062278d00820180921161189957565b634e487b7160e01b600052601160045260246000fd5b9190820180921161189957565b80518210156118d05760209160051b010190565b634e487b7160e01b600052603260045260246000fd5b60ff60115460081c1615908115611926575b506119215760135480156119155761190f90611889565b42101590565b5061190f601254611889565b600190565b6001600160a01b031660009081526017602052604090205460ff169050386118f8565b908160209103126116d3575180151581036116d35790565b6001600160a01b03163081146119ec5760055460405163a9059cbb60e01b81526001600160a01b0390911660048201526024810192909252602090829060449082906000905af180156119e0576119b55750565b6119d69060203d6020116119d9575b6119ce8183611763565b810190611949565b50565b503d6119c4565b6040513d6000823e3d90fd5b5050565b51906001600160701b03821682036116d357565b908160609103126116d357611a18816119f0565b916040611a27602084016119f0565b92015163ffffffff811681036116d35790565b908160209103126116d357516001600160a01b03811681036116d35790565b600654604051630240bc6b60e21b8152906001600160a01b0316606082600481845afa9081600093600093611b2a575b50611a9657505050600090565b602060049160405192838092630dfe168160e01b82525afa9081156119e057600091611afb575b506001600160a01b039081167f000000000000000000000000000000000000000000000000000000000000000090911603611af6575090565b905090565b611b1d915060203d602011611b23575b611b158183611763565b810190611a3a565b38611abd565b503d611b0b565b909250611b5091935060603d606011611b5b575b611b488183611763565b810190611a04565b509290929138611a89565b503d611b3e565b9190820391821161189957565b8115611b79570490565b634e487b7160e01b600052601260045260246000fd5b8181029291811591840414171561189957565b6005546001600160a01b03163303611bb657565b63118cdaa760e01b6000523360045260246000fd5b906001600160a01b03821680158015611f18575b611eeb5780600052601760205260ff604060002054168015611ef6575b611eeb57611c0a82846122b5565b611c148385612329565b9015611da05750506001600160a01b03811660008181526018602052604090205490929060ff16611d8f5760115460ff8160081c1680611d76575b611d3e575b60ff1680611d27575b611d1757611c6c9184916121cc565b8060005260166020524260406000205560036040516242555960e81b815220604051827f681f1f0fb3679a87b3423967dfa2ec97150b706d392eada5b3617c7508afc765429280611cbe88808361238a565b0390a46040519160808352600360808401526242555960e81b60a08401528060208401526000604084015260608301527ffde30999d0ea66fcaf14400b79c9e771a1a87176335a8cc91382321a3d0a0c1f60c04293a35b565b624e610160e31b60005260046000fd5b50611d37600f54601054906118af565b4210611c5d565b6013548015611d6d575b62278d00810180911161189957421015611c54576320cf80f960e01b60005260046000fd5b50601254611d48565b5083600052601760205260ff6040600020541615611c4f565b6309550c7760e01b60005260046000fd5b9093929015611ed95783600052601860205260ff60406000205416611d8f57836000526016602052611dda604060002054600b54906118af565b4210611ec857611deb9183916121cc565b604051818152600060208201526000604082015260006060820152816080820152600060a0820152600060c0820152600060e08201526000610100820152600061012082015260006101408201526000610160820152600061018082015260006101a082015260006101c0820152827f14f1a00236d7bca73ddcf087e3d43ca785808697c6fde3616f17d02d6f2c68e36101e04293a360046040516314d1531360e21b815220917f681f1f0fb3679a87b3423967dfa2ec97150b706d392eada5b3617c7508afc76560405180611ec34295808361238a565b0390a4565b63465fd09160e01b60005260046000fd5b611ee393506121cc565b611d15612031565b50611d1592916121cc565b506001600160a01b03821660009081526017602052604090205460ff16611bfc565b506001600160a01b03821615611bdf565b600c54600e5481101580612024575b611f3f5750565b611f476123d6565b15611fc45760405190815260606020820152600e60608201526d10555513d7d512149154d213d31160921b60808201524260408201527f0d8296aa488bfcef418c563cfdccad96b64e0d82f06eda3fe90068d39c9fb85c60a03392a2600160ff196014541617601455611fb86125e2565b60ff1960145416601455565b60a07fe87b88b4c27d1729d389885f3f6648294b68791762d08e1bc96ece2f6dff0b1491604051908152606060208201526016606082015275494e53554646494349454e545f4c495155494449545960501b6080820152426040820152a1565b5060ff6014541615611f38565b6007546001600160a01b031680156119d65760206000916004604051809481936327d16ce960e11b83525af1600091816120cf575b5061206e5750565b806120765750565b60176040517f46554e445f52454c41595f444953545249425554494f4e00000000000000000081522060405191825230917fdc0542397de1d347eb80cba6dcba197e295e2516706ef1dd5a16d8ac5fb3eeda60203092a4565b90916020823d6020116120fb575b816120ea60209383611763565b8101031261038b5750519038612066565b3d91506120dd565b62278d006010557fdbeb6ec948f6eb874ecbd6117742652c35d57fbe578b778b77e677a06af90b96602060405162278d008152a1565b6001600160a01b03169081156121b6576001600160a01b03169182156121a05760207f8c5be1e5ebec7d5bd14f71427d1e84f3dd0314c0f7b2291e5b200ac8c7c3b925918360005260018252604060002085600052825280604060002055604051908152a3565b634a1406b160e11b600052600060045260246000fd5b63e602df0560e01b600052600060045260246000fd5b6001600160a01b031690816122485760207fddf252ad1be2c89b69c2b068fc378daa952ba7f163c4a11628f55a4df523b3ef9161220b856002546118af565b6002555b6001600160a01b031693846122305780600254036002555b604051908152a3565b84600052600082526040600020818154019055612227565b816000526000602052604060002054838110612298577fddf252ad1be2c89b69c2b068fc378daa952ba7f163c4a11628f55a4df523b3ef918460209285600052600084520360406000205561220f565b91905063391434e360e21b60005260045260245260445260646000fd5b6006546001600160a01b03908116929116829003612322576001600160a01b0316818114612322577f00000000000000000000000000000000000000000000000000000000000000006001600160a01b03161461231c57330361231757600190565b600090565b50600090565b5050600090565b6006546001600160a01b039081169216829003612322576001600160a01b0316818114612322577f00000000000000000000000000000000000000000000000000000000000000006001600160a01b03161461231c57331461231757600190565b610140906000929493610160820195825283602083015260408201528260608201528260808201528260a08201528260c08201528260e082015282610100820152826101208201520152565b600c54801561231c57306000526000602052806040600020541061231c57600654604051630240bc6b60e21b8152906001600160a01b0316606082600481845afa91826000916000946125be575b506124325750505050600090565b604051630dfe168160e01b815290602082600481865afa9182156119e05760009261259d575b506001600160a01b037f00000000000000000000000000000000000000000000000000000000000000008116921682036125975792905b6001600160a01b03831660009081526020818152604090912054936024604051809481936370a0823160e01b835260048301525afa9081156119e057600091612565575b506001600160701b03821693605f850293851594868104605f1486171561189957606490041161255a576001600160701b0316605f810290808204605f1490151715611899576064900411612551576e01fffffffffffffffffffffffffffe9060011b16918204600214171561189957606490041061231757600190565b50505050600090565b505050505050600090565b90506020813d60201161258f575b8161258060209383611763565b810103126116d35751386124d3565b3d9150612573565b9061248f565b6125b791925060203d602011611b2357611b158183611763565b9038612458565b9093506125da915060603d606011611b5b57611b488183611763565b509238612424565b600c5480156119d6576000600c55600160ff196014541617601455612606816127b5565b9060ff196014541660145581151580612729575b61269a575b60018060a01b036009541660106040516f414343554d554c415445445f4645455360801b8152209260405192835280602084015260006040840152606083015260006080830152600060a083015260c08201527f86e133fbf1e40a6a97b6c78d78538f95f9c3b84ec08e1a53eb43fb050d9acb9460e04292a3565b60095460405163a9059cbb60e01b81526001600160a01b039091166004820152602481018390526020818060448101038160007f00000000000000000000000000000000000000000000000000000000000000006001600160a01b03165af180156119e05761270a575b5061261f565b6127229060203d6020116119d9576119ce8183611763565b5038612704565b506009546001600160a01b0316151561261a565b600060443d106127a4576040513d600319016004823e8051913d602484011167ffffffffffffffff8411176127af578282019283519167ffffffffffffffff83116127a7573d840160031901858401602001116127a757506127a492910160200190611763565b90565b949350505050565b92915050565b60009080158015612ca7575b612ca35760606040516127d48282611763565b6002815260208101601f198301368237815115612c8f57308152815160011015612c8f576001600160a01b037f000000000000000000000000000000000000000000000000000000000000000081166040840181905292907f000000000000000000000000000000000000000000000000000000000000000016612859868230612139565b6007546001600160a01b03168015612c8757925b6040516370a0823160e01b815230600482015293602085602481895afa948515612c7c578995612c44575b5061012c420190814211612c3057833b15612c2c579391899391604051958694635c11d79560e01b865260a48601908c600488015287602488015260a060448801525180915260c486019390875b818110612c07575050506001600160a01b03166064850152608484015282900390829084905af19081612bf3575b506129d7575050907f23710c5e610526df3c632bc797fb4914964991cc07e128ee2af743aeed319e06918360033d116129c7575b6308c379a01461298c575b60a091601260405192808452830152712ab735b737bbb71039bbb0b81032b93937b960711b60808301526020820152426040820152a190565b61299461273d565b91826129a1579150612953565b6129b56040519383859485528401906116d8565b9060208301524260408301520390a190565b50600484803e835160e01c612948565b6007546001600160a01b0316918215612af4575050602084916004604051809781936327d16ce960e11b83525af1938415610565578194612ac0575b508315612a21575b50505090565b7f23710c5e610526df3c632bc797fb4914964991cc07e128ee2af743aeed319e0660a07f163a4024b77f02bfab6d1e18c917f413dc151008cf420bf1e0309f0cf8d7b1fa94604051908582526019868301527f46756e6452656c6179207472616e73666572206661696c65640000000000000060808301526020820152426040820152a1604051908082526020820152426040820152a1388080612a1b565b9093506020813d602011612aec575b81612adc60209383611763565b810103126116d357519238612a13565b3d9150612acf565b6040516370a0823160e01b815230600482015294959394919250602090829060249082905afa908115612be8578391612bb6575b5081811115612bae57612b3b9250611b62565b915b8215612b4857505090565b7f23710c5e610526df3c632bc797fb4914964991cc07e128ee2af743aeed319e069160a091601e604051928084528301527f44697265637420737761702072657475726e6564207a65726f2055534454000060808301526020820152426040820152a190565b505091612b3d565b90506020813d602011612be0575b81612bd160209383611763565b810103126116d3575138612b28565b3d9150612bc4565b6040513d85823e3d90fd5b86612c0091979297611763565b9438612914565b82516001600160a01b031686528e9850899750602095860195909201916001016128e6565b8980fd5b634e487b7160e01b8a52601160045260248afd5b9094506020813d602011612c74575b81612c6060209383611763565b81010312612c7057519338612898565b8880fd5b3d9150612c53565b6040513d8b823e3d90fd5b50309261286d565b634e487b7160e01b85526032600452602485fd5b5090565b5030825281602052806040832054106127c156fea2646970667358221220c064b13e46fd7093af59b722c60aae8d48f747680382bd930cb4bb2e11d9cf1d64736f6c634300081c0033",
  "linkReferences": {},
  "deployedLinkReferences": {}
}