{
  "_format": "hh-sol-artifact-1",
  "contractName": "SYIReferral",
  "sourceName": "contracts/SYI-Referral/SYIReferral.sol",
  "abi": [
    {
      "inputs": [
        {
          "internalType": "address",
          "name": "_rootAddress",
          "type": "address"
        }
      ],
      "stateMutability": "nonpayable",
      "type": "constructor"
    },
    {
      "inputs": [],
      "name": "AlreadyBound",
      "type": "error"
    },
    {
      "inputs": [],
      "name": "CannotBindSelf",
      "type": "error"
    },
    {
      "inputs": [],
      "name": "CircularReference",
      "type": "error"
    },
    {
      "inputs": [],
      "name": "InvalidAddress",
      "type": "error"
    },
    {
      "inputs": [
        {
          "internalType": "address",
          "name": "owner",
          "type": "address"
        }
      ],
      "name": "OwnableInvalidOwner",
      "type": "error"
    },
    {
      "inputs": [
        {
          "internalType": "address",
          "name": "account",
          "type": "address"
        }
      ],
      "name": "OwnableUnauthorizedAccount",
      "type": "error"
    },
    {
      "anonymous": false,
      "inputs": [
        {
          "indexed": true,
          "internalType": "address",
          "name": "user",
          "type": "address"
        },
        {
          "indexed": true,
          "internalType": "address",
          "name": "friend",
          "type": "address"
        },
        {
          "indexed": false,
          "internalType": "uint256",
          "name": "timestamp",
          "type": "uint256"
        }
      ],
      "name": "FriendBound",
      "type": "event"
    },
    {
      "anonymous": false,
      "inputs": [
        {
          "indexed": true,
          "internalType": "address",
          "name": "previousOwner",
          "type": "address"
        },
        {
          "indexed": true,
          "internalType": "address",
          "name": "newOwner",
          "type": "address"
        }
      ],
      "name": "OwnershipTransferred",
      "type": "event"
    },
    {
      "anonymous": false,
      "inputs": [
        {
          "indexed": true,
          "internalType": "address",
          "name": "user",
          "type": "address"
        },
        {
          "indexed": true,
          "internalType": "address",
          "name": "referrer",
          "type": "address"
        },
        {
          "indexed": false,
          "internalType": "uint256",
          "name": "timestamp",
          "type": "uint256"
        }
      ],
      "name": "ReferralBound",
      "type": "event"
    },
    {
      "anonymous": false,
      "inputs": [
        {
          "indexed": true,
          "internalType": "address",
          "name": "oldRoot",
          "type": "address"
        },
        {
          "indexed": true,
          "internalType": "address",
          "name": "newRoot",
          "type": "address"
        },
        {
          "indexed": false,
          "internalType": "uint256",
          "name": "timestamp",
          "type": "uint256"
        }
      ],
      "name": "RootAddressUpdated",
      "type": "event"
    },
    {
      "inputs": [],
      "name": "MAX_REFERRAL_DEPTH",
      "outputs": [
        {
          "internalType": "uint8",
          "name": "",
          "type": "uint8"
        }
      ],
      "stateMutability": "view",
      "type": "function"
    },
    {
      "inputs": [
        {
          "internalType": "address[]",
          "name": "users",
          "type": "address[]"
        }
      ],
      "name": "batchGetUserInfo",
      "outputs": [
        {
          "internalType": "address[]",
          "name": "referrers",
          "type": "address[]"
        },
        {
          "internalType": "address[]",
          "name": "friends",
          "type": "address[]"
        },
        {
          "internalType": "bool[]",
          "name": "hasReferrals",
          "type": "bool[]"
        },
        {
          "internalType": "bool[]",
          "name": "hasFriends",
          "type": "bool[]"
        }
      ],
      "stateMutability": "view",
      "type": "function"
    },
    {
      "inputs": [
        {
          "internalType": "address",
          "name": "user",
          "type": "address"
        }
      ],
      "name": "getChildren",
      "outputs": [
        {
          "internalType": "address[]",
          "name": "",
          "type": "address[]"
        }
      ],
      "stateMutability": "view",
      "type": "function"
    },
    {
      "inputs": [
        {
          "internalType": "address",
          "name": "user",
          "type": "address"
        }
      ],
      "name": "getChildrenCount",
      "outputs": [
        {
          "internalType": "uint256",
          "name": "",
          "type": "uint256"
        }
      ],
      "stateMutability": "view",
      "type": "function"
    },
    {
      "inputs": [
        {
          "internalType": "address",
          "name": "user",
          "type": "address"
        },
        {
          "internalType": "uint256",
          "name": "offset",
          "type": "uint256"
        },
        {
          "internalType": "uint256",
          "name": "limit",
          "type": "uint256"
        }
      ],
      "name": "getChildrenPaged",
      "outputs": [
        {
          "internalType": "address[]",
          "name": "",
          "type": "address[]"
        }
      ],
      "stateMutability": "view",
      "type": "function"
    },
    {
      "inputs": [
        {
          "internalType": "address",
          "name": "user",
          "type": "address"
        }
      ],
      "name": "getFriend",
      "outputs": [
        {
          "internalType": "address",
          "name": "",
          "type": "address"
        }
      ],
      "stateMutability": "view",
      "type": "function"
    },
    {
      "inputs": [
        {
          "internalType": "address",
          "name": "user",
          "type": "address"
        }
      ],
      "name": "getReferral",
      "outputs": [
        {
          "internalType": "address",
          "name": "",
          "type": "address"
        }
      ],
      "stateMutability": "view",
      "type": "function"
    },
    {
      "inputs": [
        {
          "internalType": "address",
          "name": "user",
          "type": "address"
        },
        {
          "internalType": "uint256",
          "name": "maxDepth",
          "type": "uint256"
        }
      ],
      "name": "getReferralChainWithDepth",
      "outputs": [
        {
          "internalType": "address[]",
          "name": "chain",
          "type": "address[]"
        },
        {
          "internalType": "uint256[]",
          "name": "depths",
          "type": "uint256[]"
        }
      ],
      "stateMutability": "view",
      "type": "function"
    },
    {
      "inputs": [
        {
          "internalType": "address",
          "name": "user",
          "type": "address"
        },
        {
          "internalType": "uint256",
          "name": "maxDepth",
          "type": "uint256"
        }
      ],
      "name": "getReferrals",
      "outputs": [
        {
          "internalType": "address[]",
          "name": "",
          "type": "address[]"
        }
      ],
      "stateMutability": "view",
      "type": "function"
    },
    {
      "inputs": [
        {
          "internalType": "address",
          "name": "user",
          "type": "address"
        }
      ],
      "name": "getUserInfo",
      "outputs": [
        {
          "internalType": "address",
          "name": "referrer",
          "type": "address"
        },
        {
          "internalType": "address",
          "name": "friend",
          "type": "address"
        },
        {
          "internalType": "bool",
          "name": "hasReferral",
          "type": "bool"
        },
        {
          "internalType": "bool",
          "name": "hasFriend",
          "type": "bool"
        },
        {
          "internalType": "uint256",
          "name": "childrenCount",
          "type": "uint256"
        }
      ],
      "stateMutability": "view",
      "type": "function"
    },
    {
      "inputs": [
        {
          "internalType": "address",
          "name": "user",
          "type": "address"
        }
      ],
      "name": "hasLockedFriend",
      "outputs": [
        {
          "internalType": "bool",
          "name": "",
          "type": "bool"
        }
      ],
      "stateMutability": "view",
      "type": "function"
    },
    {
      "inputs": [
        {
          "internalType": "address",
          "name": "user",
          "type": "address"
        }
      ],
      "name": "hasLockedReferral",
      "outputs": [
        {
          "internalType": "bool",
          "name": "",
          "type": "bool"
        }
      ],
      "stateMutability": "view",
      "type": "function"
    },
    {
      "inputs": [
        {
          "internalType": "address",
          "name": "_friend",
          "type": "address"
        }
      ],
      "name": "lockFriend",
      "outputs": [],
      "stateMutability": "nonpayable",
      "type": "function"
    },
    {
      "inputs": [
        {
          "internalType": "address",
          "name": "_referrer",
          "type": "address"
        }
      ],
      "name": "lockReferral",
      "outputs": [],
      "stateMutability": "nonpayable",
      "type": "function"
    },
    {
      "inputs": [],
      "name": "owner",
      "outputs": [
        {
          "internalType": "address",
          "name": "",
          "type": "address"
        }
      ],
      "stateMutability": "view",
      "type": "function"
    },
    {
      "inputs": [],
      "name": "renounceOwnership",
      "outputs": [],
      "stateMutability": "nonpayable",
      "type": "function"
    },
    {
      "inputs": [],
      "name": "rootAddress",
      "outputs": [
        {
          "internalType": "address",
          "name": "",
          "type": "address"
        }
      ],
      "stateMutability": "view",
      "type": "function"
    },
    {
      "inputs": [
        {
          "internalType": "address",
          "name": "_rootAddress",
          "type": "address"
        }
      ],
      "name": "setRootAddress",
      "outputs": [],
      "stateMutability": "nonpayable",
      "type": "function"
    },
    {
      "inputs": [
        {
          "internalType": "address",
          "name": "newOwner",
          "type": "address"
        }
      ],
      "name": "transferOwnership",
      "outputs": [],
      "stateMutability": "nonpayable",
      "type": "function"
    }
  ],
  "bytecode": "0x60803461012157601f61107138819003918201601f19168301916001600160401b038311848410176101265780849260209460405283398101031261012157516001600160a01b0381169081900361012157331561010b5760008054336001600160a01b03198216811783556040519290916001600160a01b0316907f8be0079c531659141344cd1fd0a4f28419497f9722a3daafe3b4186f6b6457e09080a381156100c95750600180546001600160a01b031916919091179055604051610f34908161013d8239f35b62461bcd60e51b815260206004820152601460248201527f496e76616c696420726f6f7420616464726573730000000000000000000000006044820152606490fd5b631e4fbdf760e01b600052600060045260246000fd5b600080fd5b634e487b7160e01b600052604160045260246000fdfe6080604052600436101561001257600080fd5b60003560e01c80631451952b14610b5f5780631a5e3ef514610b2057806330ead46914610ade57806332a00d8e146109e45780633b0f0f2f146109a25780636386c1c7146108fc5780636999fa451461087c5780636aae068c1461083d578063715018a6146107e45780637da933281461064657806389e59ea01461062a5780638da5cb5b146106015780639647ef4d14610447578063aaa2b8c81461041e578063bfbc304814610368578063db38e20514610324578063e0cc1b0a146102ea578063ea73a8411461017b5763f2fde38b146100ed57600080fd5b3461017657602036600319011261017657610106610c19565b61010e610e56565b6001600160a01b0316801561016057600080546001600160a01b03198116831782556001600160a01b0316907f8be0079c531659141344cd1fd0a4f28419497f9722a3daafe3b4186f6b6457e09080a3005b631e4fbdf760e01b600052600060045260246000fd5b600080fd5b3461017657602036600319011261017657610194610c19565b33600052600460205260ff604060002054166102d9576001600160a01b038116156102c7575b6001600160a01b038116903382146102b6576101d69033610e7f565b6102a5573360005260026020526040600020816bffffffffffffffffffffffff60a01b825416179055806000526003602052604060002080546801000000000000000081101561028f5761022f91600182018155610d78565b81549060031b9033821b9160018060a01b03901b19161790553360005260046020526040600020600160ff198254161790556040514281527ff8656c9527edebaca04b8fa3d13ccf899f67118871c85c9b8ed2c63b8ac7a56860203392a3005b634e487b7160e01b600052604160045260246000fd5b631561903960e31b60005260046000fd5b639ecbb7a160e01b60005260046000fd5b506001546001600160a01b03166101ba565b63682a906560e01b60005260046000fd5b34610176576020366003190112610176576001600160a01b0361030b610c19565b1660005260036020526020604060002054604051908152f35b3461017657606036600319011261017657610364610350610343610c19565b6044359060243590610d90565b604051918291602083526020830190610c2f565b0390f35b3461017657602036600319011261017657610381610c19565b33600052600660205260ff604060002054166102d9576001600160a01b0316801561040d573381146102b65733600081815260056020908152604080832080546001600160a01b031916861790556006825291829020805460ff1916600117905590514281527fcb39fffa5d01888f50453746d1008314dd7db2b50dae8412b3013f66a59de0f29190a3005b63e6c4247b60e01b60005260046000fd5b34610176576000366003190112610176576001546040516001600160a01b039091168152602090f35b346101765760203660031901126101765760043567ffffffffffffffff811161017657366023820112156101765780600401359067ffffffffffffffff8211610176576024810190602436918460051b010111610176576104a782610cdc565b906104b183610cdc565b6104ba84610cdc565b936104c481610cdc565b9260005b82811061051d576104f3866103648761050f8b6105018a604051978897608089526080890190610c2f565b908782036020890152610c2f565b908582036040870152610c6c565b908382036060850152610c6c565b6001906001600160a01b0361053b610536838787610d54565b610d64565b166000526002602052818060a01b036040600020541661055b8289610d1d565b52818060a01b03610570610536838787610d54565b166000526005602052818060a01b03604060002054166105908287610d1d565b52818060a01b036105a5610536838787610d54565b16600052600460205260ff604060002054166105c1828a610d1d565b9015159052818060a01b036105da610536838787610d54565b16600052600660205260ff604060002054166105f68288610d1d565b9015159052016104c8565b34610176576000366003190112610176576000546040516001600160a01b039091168152602090f35b34610176576000366003190112610176576020604051601e8152f35b346101765760403660031901126101765761065f610c19565b602435601e81116107dc575b61067481610cdc565b9161067e82610cdc565b909260009384905b848210806107ca575b15610713576001600160a01b039081166000908152600260205260409020541690816106c5575b6106bf90610d0e565b90610686565b94816106d18285610d1d565b52600186018087116106fd57816106f5916106ef6106bf9488610d1d565b52610d0e565b9590506106b6565b634e487b7160e01b600052601160045260246000fd5b50508361071f81610cdc565b9261072982610cdc565b9260005b83811061078c5761074d8686604051928392604084526040840190610c2f565b82810360208401526020808351928381520192019060005b818110610773575050500390f35b8251845285945060209384019390920191600101610765565b6001906001600160a01b036107a18285610d1d565b51166107ad8289610d1d565b526107b88185610d1d565b516107c38288610d1d565b520161072d565b506001600160a01b038116151561068f565b50601e61066b565b34610176576000366003190112610176576107fd610e56565b600080546001600160a01b0319811682556001600160a01b03167f8be0079c531659141344cd1fd0a4f28419497f9722a3daafe3b4186f6b6457e08280a3005b34610176576020366003190112610176576001600160a01b0361085e610c19565b166000526006602052602060ff604060002054166040519015158152f35b34610176576020366003190112610176576001600160a01b0361089d610c19565b166000526003602052604060002060405190816020825491828152019160005260206000209060005b8181106108dd576103648561035081870382610ca2565b82546001600160a01b03168452602090930192600192830192016108c6565b346101765760203660031901126101765760a06001600160a01b0361091f610c19565b16806000526002602052600180831b036040600020541690806000526005602052600180841b03604060002054169080600052600460205260ff6040600020541681600052600660205260ff6040600020541691600052600360205260406000205492604051948552602085015215156040840152151560608301526080820152f35b34610176576020366003190112610176576001600160a01b036109c3610c19565b166000526002602052602060018060a01b0360406000205416604051908152f35b34610176576040366003190112610176576109fd610c19565b602435601e8111610ad6575b610a1281610cdc565b600080935b83851080610ac4575b15610a71576001600160a01b03908116600090815260026020526040902054169384610a56575b610a5090610d0e565b93610a17565b90610a6981866106ef610a509487610d1d565b919050610a47565b50610a7b81610cdc565b9160005b828110610a9c576040516020808252819061036490820187610c2f565b6001906001600160a01b03610ab18285610d1d565b5116610abd8287610d1d565b5201610a7f565b506001600160a01b0381161515610a20565b50601e610a09565b34610176576020366003190112610176576001600160a01b03610aff610c19565b166000526005602052602060018060a01b0360406000205416604051908152f35b34610176576020366003190112610176576001600160a01b03610b41610c19565b166000526004602052602060ff604060002054166040519015158152f35b3461017657602036600319011261017657610b78610c19565b610b80610e56565b6001600160a01b03168015610bdd57600180546001600160a01b0319811683179091556040514281526001600160a01b03909116907fe2dd4644917f20a5299798c481a148c61b3c36930eb5e383d79166b6d3fc28ff90602090a3005b60405162461bcd60e51b8152602060048201526014602482015273496e76616c696420726f6f74206164647265737360601b6044820152606490fd5b600435906001600160a01b038216820361017657565b906020808351928381520192019060005b818110610c4d5750505090565b82516001600160a01b0316845260209384019390920191600101610c40565b906020808351928381520192019060005b818110610c8a5750505090565b82511515845260209384019390920191600101610c7d565b90601f8019910116810190811067ffffffffffffffff82111761028f57604052565b67ffffffffffffffff811161028f5760051b60200190565b90610ce682610cc4565b610cf36040519182610ca2565b8281528092610d04601f1991610cc4565b0190602036910137565b60001981146106fd5760010190565b8051821015610d315760209160051b010190565b634e487b7160e01b600052603260045260246000fd5b919082018092116106fd57565b9190811015610d315760051b0190565b356001600160a01b03811681036101765790565b8054821015610d315760005260206000200190600090565b6001600160a01b03166000818152600360205260409020549092919080821015610e385780610dbf8484610d47565b11610e24575b50610dcf82610cdc565b9260005b838110610de1575050505090565b600190826000526003602052610e056040600020610dff8387610d47565b90610d78565b838060a01b0391549060031b1c16610e1d8288610d1d565b5201610dd3565b9080925081039081116106fd579038610dc5565b50505050604051610e4a602082610ca2565b60008152600036813790565b6000546001600160a01b03163303610e6a57565b63118cdaa760e01b6000523360045260246000fd5b6001549091906001600160a01b03808316911614610ef757906000915b601e8310610eac57505050600090565b6001600160a01b0390811660009081526002602052604090205416918215610eef576001600160a01b0382168314610ee75760010191610e9c565b505050600190565b505050600090565b505060009056fea26469706673582212208f415a997ebafedd61497a69bdbf4efafff31dbd3093616a10e7723a0db7bafb64736f6c634300081c0033",
  "linkReferences": {},
  "deployedLinkReferences": {}
}